:400000000080002011000000557B0000557B000080B500AF024A034B1B68136007F0CCFDBC760040FA46004010B5054C237833B9044B13B10448AFF300800123237010BDA7
:400040003882FF1F00000000B0DD0000084B10B51BB108490848AFF300800848036803B910BD074B002BFBD0BDE81040184700BF000000003C82FF1FB0DD0000C880FF1F06
:400080000000000080B582B000AF78600B46FB70FB78184608F094FA00BF0837BD4680BD80B483B000AF7860034B1B6818460C37BD4680BC704700BFD485FF1F80B582B00E
:4000C00000AF114B1B78FB71FB7903F01E03002B04D0FB7919460D4804F004F9FB7903F02003002B06D00A4B1B78DBB21946074804F0DAF8FB7903F02003002BE1D100BFBC
:400100000837BD4680BD00BF6B6400405482FF1F4F64004080B500AF044B1B680133034A136008F06DFB00BF80BD00BFD485FF1F80B582B000AF104B1B78FB71FB7903F078
:400140001E03002B03D0FB79184601F095FCFB7903F02003002B05D0084B1B78DBB2184601F066FBFB7903F02003002BE3D100BF0837BD4680BD00BF686500404C640040FC
:4001800080B584B000AFF860B9607A603B604FF00001F8680BF024FD0346002B01D02D2200E020223B681A704FF00001F8680BF017FD0346002B03D0FB6883F00043FB6038
:4001C000F8680BF04BFD03461AB2BB681A80BB68B3F9003018460BF011FB03461946F8680BF056FA03460F4918460BF05BFB034618460BF033FD03461AB27B681A807B683C
:40020000B3F90030002B08DA7B68B3F900309BB25B429BB21AB27B681A8000BF1037BD4680BD00BF0000C842F0B5EDB008AF07F12C03184600F05AFE07F1D003142200219F
:4002400018460BF088FD002387F88F311BE097F88F2107F11C03002123F8121097F88F3107F11C025B001344FF229A8097F88F2107F11C030432802123F8121097F88F3184
:40028000013387F88F3197F88F31012BDFD907F11C0300221A7362B608F06EFF9B4809F009F809F043F809F0A3F809F0DDF801F0E9F9974809F0FAF8964808F0FBFF08F07D
:4002C000FDF808F05BF908F095F99349934803F0BDFF07F12C03914A1A60914808F0ACF9904808F0E7FF00F0BDFD07F12C03D3F88030184600F040FD0346002B14D18A4827
:4003000008F0D8FF07F12C03D3F8802007F11C031146184600F004FC07F12C0393F87C30184600F0B9F902E0804808F0C3FF00F015F97F4808F0BEFF08F040FA7D4808F075
:400340008DFA7D4808F0B6FF07F12C03184600F0F5FE09F031F9034683F00103DBB2184609F00CF9754B1B68C7F8883108F066FF034687F8873197F88731002B12D000F074
:400380007DFC0346002B05D097F88731184600F03DFC07E097F8872107F12C031146184601F094F85D4803F0B5FF07F12C03184602F00CFB07F11803184600F037F9034692
:4003C000002B0AD007F11803184600F0FBFB07F12C037433184600F05BFC07F12C03184602F07CFB07F12C03184602F09BFC07F12C03184602F01EFD07F12C03184600F02B
:40040000F5FE07F12C03184601F0C2F807F12C035B6ED7F88821D31A632B12D907F12C03D7F888215A6607F1D00207F12C031146184600F04BFF07F1D0031946374804F0EF
:40044000A7F807F12C0393F87030002B81D007F12C039B6ED7F88821D31A41F2873293427FF677AF07F12C03D7F888219A6607F12C03586F07F10F0307F1140207F116016A
:40048000FFF77EFE07F12C03986F07F10E0307F1100207F11201FFF773FE07F12C031B79184600F093FE024607F10F031B78194607F11603B3F900301C4607F11403B3F92F
:4004C00000301D4607F10E031B781E4607F11203B3F900307B6007F11003B3F9003007F1E40006937B68059304960395029401910092D7F88831124AA0210CF0A5F807F1AC
:40050000E403184608F0D6FE23E700BFD8DE00003101000000DF0000B8DD00005482FF1FBD00000018DF000034DF00005CDF000080DF000015010000A0DF0000D485FF1F24
:40054000C0DF000080B500AF07F0ACFF024B01221A7000BF80BD00BFD885FF1F80B582B000AF62B607F0F6FC07F018FF114807F04BFF114B00221A70104B00221A70104BFD
:4005800000221A700023FB7107E0FB790D4A002122F81310FB790133FB71FB79012BF4D9002007F015FF07F0EDFC00BF0837BD4680BD00BF45050000DA85FF1FD885FF1F25
:4005C000D985FF1FDC85FF1F98B500AF07F0EAFC134B1B78DBB21C4607F0F4FC03461A46104B23F814200E4B1B78DBB2012B06D10D4B01221A700A4B00221A7006E0084B52
:400600001B78DBB20133DAB2054B1A70044B1B78DBB2184607F0DCFE07F0B4FC00BF98BDDA85FF1FDC85FF1FD985FF1F80B584B000AF7860154B1B78DBB2002B04D0134B62
:4006400000221A70FFF7C0FF114B1B78DBB2002B17D00F4B00221A700023FB730CE0FB7B5B007A681344FA7B0A4931F8122012B21A80FB7B0133FB73FB7B012BEFD90123D7
:4006800000E0002318461037BD4680BDD885FF1FD985FF1FDC85FF1F80B483B000AF0346FB71FB79012B08D0022B0BD0002B00D00DE0094B094A1A6009E0074B4FF07C5240
:4006C0001A6004E0044B4FF07E521A6000BF00BF0C37BD4680BC7047CC80FF1FCDCCCC3D90B585B000AF0446084611461A462346FB800346BB800B467B8013463B80B7F911
:400700000620B7F904309A4201DABB88FB80B7F90620B7F900309A4201DD3B88FB803A887B88D31A9BB2FB817A88BB88D31A9BB2BB81B7F90E30002B01DC0123FB81B7F910
:400740000C30002B01DC0123BB81B7F90620B7F902309A4214DBB7F90620B7F90230D31A18460BF04BF80446B7F90E3018460BF045F80346194620460BF048F9034613E0BD
:40078000B7F90620B7F90230D31A18460BF036F80446B7F90C3018460BF030F80346194620460BF033F9034618461437BD4690BD90B583B000AF786039603B6883F00043EE
:4007C000796818460BF00CFA0346002B09D0396878680BF005FA0346002B02D04FF000032AE04FF0000178680BF018FA0346002B11D0396878680AF04BFF03461C463968CC
:400800004FF07E500AF044FF0346194620460BF0FDF8034610E0396878680AF03BFF03461C4639684FF07E500AF032FF0346194620460BF0EBF8034618460C37BD4690BDD8
:4008400080B485B000AF78600023FB7338E0FB7B7A685B001344B3F904309AB2F97B7B6833F911309BB2D31A9BB2BB81FA7B7B6833F91220F97B7B68043133F911309A4297
:400880000EDAFA7B7B68043233F91220FB7B79685B000B44B3F904309A4201DA012300E00023FB72B7F90C30132B01DC00230BE0FB7A002B01D1002306E0FB7B0133FB7390
:4008C000FB7B012BC3D9012318461437BD4680BC704700BF90B484B000AF78601B4A1C4B14460FCB07C423800023FB7323E0FB7BFA7B520079680A44B2F90010134A22F899
:400900001310FB7BFA7B520079680A44B2F900100E4A5B0013440A469A80FB7BFA7B520079680A44B2F90010084A043322F81310FB7B0133FB73FB7B012BD8D9054B01222E
:400940001A7000BF1037BD4690BC70470086FF1FF085FF1F0E86FF1F80B485B000AF7860214B1B78012B39D10023FB7332E0FB7B5B007A681344B3F90020FB7B1B4931F956
:4009800013309A4209DAFB7BFA7B520079680A44B2F90010154A22F81310FB7B5B007A681344B3F90020FB7B10495B000B44B3F904309A420BDDFB7BFA7B520079680A4413
:4009C000B2F90010094A5B0013440A469A80FB7B0133FB73FB7B012BC9D900E000BF1437BD4680BC704700BF0E86FF1F0086FF1F80B483B000AF0023FB7107E0FB790A4A28
:400A0000002142F82310FB790133FB71FB79012BF4D9064B00221A80054B02221A7000BF0C37BD4680BC70471886FF1F2086FF1F0E86FF1F80B485B000AF7860234B1B7881
:400A4000022B3DD10023FB7311E0FB7BFA7B204951F82220F97B490078680144B1F900100A441B4941F82320FB7B0133FB73FB7B012BEAD9174B1B8801339AB2154B1A8014
:400A8000144B1B881F2B1CD90023BB7311E0BA7BBB7B0F4951F82330002B00DA1F335B1118B20D49131D024621F81320BB7B0133BB73BB7B012BEAD9044B03221A7000E012
:400AC00000BF1437BD4680BC704700BF0E86FF1F1886FF1F2086FF1F0086FF1F98B500AF0B48FFF7ADFE0346002B03D10948FFF7F1FE0BE0084A064B14460FCB07C42380C3
:400B0000054B01221A73054B00221A7098BD00BF0086FF1F1086FF1FF085FF1F0E86FF1F90B484B000AF786039601F4B7A68144620686168A26807C3A2891A801B4B7A6898
:400B4000144620686168A26807C3A2891A80174B00221A73164B7A68144620686168A26807C3A2891A80134A3B6813600023FB730BE0FB7BF97B7A68043132F911100E4A05
:400B800022F81310FB7B0133FB73FB7B012BF0D90A4B00221A700A4B00221A8000BF1037BD4690BC704700BFE085FF1FF085FF1F0086FF1F1486FF1F1086FF1F0E86FF1FC0
:400BC0002086FF1F80B584B000AF78600023FB730CE0FB7BFA7B520079680A44B2F90010094A22F81310FB7B0133FB73FB7B012BEFD97868FFF7B0FE7868FFF71BFF00BF58
:400C00001037BD4680BD00BF1086FF1F80B582B000AF0346FB71FB79782B02D0FB79582B03D1144B00221A7020E0FB79632B02D0FB79432B19D10F4B1B78002B03D10E484E
:400C4000FFF748FE12E00B4B1B78012B02D1FFF7CFFE0BE0074B1B78022B07D0054B1B78032B03D1FFF73AFF00E000BF0837BD4680BD00BF0E86FF1F1086FF1F80B400AF8D
:400C8000024B1B781846BD4680BC70470E86FF1F90B587B000AF7860304B7B613048FFF7CFFD0346002B01D02D4B7B610023FB744CE0FB7C2B4A32F91300FA7C7B6933F9B3
:400CC0001210FA7C7B69043233F91240FB7C7A695B001344B3F904302246FFF701FDF8602149F868FFF764FDF860204B1A68FB7C22FA03F303F00103002B03D0FB6883F06A
:400D00000043FB601A4B1B681946F8680AF0CAFD0346FB604FF07E51F8680AF07FFF0346002B02D04FF07E53FB601249F8680AF057FF0346002B01D00E4BFB60FA7C7B6815
:400D4000F96843F82210FB7C0133FB74FB7C012BAFD900BF1C37BD4690BD00BFE085FF1FF085FF1F1086FF1FCDCC4C3D1486FF1FCC80FF1F000080BF80B586B000AF786000
:400D800007F108030E221946012000F071F80346002B01D1002310E007F108031846FFF74FFD0346002B01D1002306E007F1080379681846FFF7B4FE012318461837BD461E
:400DC00080BD00BF80B483B000AF0346FB71FB79012B02D0022B02D003E0002302E0012300E0FF2318460C37BD4680BC704700BF80B485B000AF03460A46FB711346BB71B5
:400E0000FB799BB21B019AB2BB799BB21344FB81FB8903F1804303F500431B78DBB218461437BD4680BC704780B584B000AF03463960FB711346BB71FB799BB21B019BB2EB
:400E40000233FB81FB8903F1804303F500431946BB791A4638680AF073FF00BF1037BD4680BD00BF80B500AF07F04EFD00BF80BD80B584B000AF03463960FB711346BB713A
:400E80003B68002B02D0BB79002B01D1002328E0FB791846FFF796FF0346FB73FB7BFF2B01D100231DE0FB7B00211846FFF7A0FF0346A52B01D0002313E0FB7B0121184610
:400EC000FFF796FF0346BB73BA7BBB799A4201D0002306E0BA79FB7B39681846FFF7A4FF012318461037BD4680BD00BF80B582B000AF7860A422002178680AF02CFF7B680B
:400F0000012283F870207B6805221A717B6805225A717B68012283F860207B68002283F830207B68002283F831207B68002283F840207B68012283F87C207B68064A1A65C8
:400F40007B680022A3F854207B680022A3F8562000BF0837BD4680BD6F12833A80B485B000AF0346FB710023FB7306E0FB79074AD35CFB71FB7B0133FB73FB79002BF5D1AA
:400F8000FB7B18461437BD4680BC7047F0DF000080B584B000AF03460A46FB711346BB71FB791846FFF7DAFF0346FB73BB791846FFF7D4FF0346BB7306E0FB79134AD35C9B
:400FC000FB71FB7B013BFB73FA7BBB7B9A42F4D806E0BB790D4AD35CBB71BB7B013BBB73BA7BFB7B9A42F4D807E0FB79074AD35CFB71BB79054AD35CBB71FA79BB799A42AB
:40100000F3D1FB7918461037BD4680BDF0DF000080B586B000AF78600B46FB7008F00AFB03461A467B689A71FB783E4A52F82330002B0DD0FB783B4A52F82330786898478E
:401040000346002B04D1384808F034F90623FB707B681B793B75FA783B7D9A425DD0FA783B7D11461846FFF793FF0346FB743B7DFB750FE0FB7D2D4A52F82330002B05D0D2
:40108000FB7D2A4A52F8233078689847FB7D284AD35CFB75FA7DFB7C9A42EBD17B683A7D5A710023BB75FB787B750CE0BB7D5A1CBA7507F1180213447A7D03F80C2C7B7D6A
:4010C0001B4AD35C7B757A7DFB7C9A42EED117E0BB7D07F11802134413F80C3C1A46154B53F82230002B0BD0BB7D07F11802134413F80C3C1A460F4B53F82230786898470B
:40110000BB7D5A1EBA75002BE2D17B68FA781A71094B1A687B68DA6600E000BF1837BD4680BD00BF04E0000058E100008CE00000F0DF000048E00000D485FF1F80B584B0CC
:4011400000AF78607B681B79FB737B6800221A71FB7B19467868FFF75BFF00BF1037BD4680BD00BF80B584B000AFF8600B467A60FB72FB7A002B09D1124808F09BF8786822
:4011800008F098F8104808F095F818E0FB681B7E002B02D0FB7A032B10D1FB68FA7A1A74FB687A685A61FB7A032B02D1FB6801221A760F21F868FFF72BFF00E000BF1037CE
:4011C000BD4680BD80E1000088E1000080B483B000AF0346FB71FB79034A52F8233018460C37BD4680BC704744E2000080B582B000AF78607B681B68002B2DD0184B1A689E
:40120000184B1B68D31A632B06D9154B1B68154A1360786801F0ECFA114B1A68124B1B68D31A41F28732934217D90D4B1B680E4A1360786801F0FEFA786801F01DFB78686E
:4012400001F03CFB786801F05BFB786801F07AFB786801F099FB00E000BF0837BD4680BDD485FF1F2486FF1F2886FF1F80B582B000AF786039601422002138680AF06BFD6B
:401280003B6800221A733B6800225A733B6800229A7300BF0837BD4680BD00BF80B582B000AF786039601422002138680AF053FD3B6801221A733B6801225A733B68002208
:4012C0009A7300BF0837BD4680BD00BF80B584B000AF786039607B6893F88430002B04D03968786801F07EFC12E07B681B791A46094B53F82230FB60FB68002B04D0FB6874
:4013000039687868984703E039687868FFF7AEFF1037BD4680BD00BF14E1000080B584B000AF78600B46FB707B681B68002B05D1164A00217868FFF715FF23E007F1080288
:4013400007F10C031946786802F00EFD0346002B05D10F4A00217868FFF704FF12E0FA687B689A65FB78002B01D1BB6801E04FF000037A68D3657B68012283F86020054839
:4013800007F098FF1037BD4680BD00BF88E200009CE20000BCE2000080B582B000AF7860034807F087FF00BF0837BD4680BD00BFD4E2000080B582B000AF78600B46FB70C0
:4013C000FB783F2B34D03F2B02DC122B05D034E05B2B27D0782B16D02FE07B681B7E002B0FD07B6800221A767B6800221A747B6800225A61134807F05DFF06217868FFF770
:4014000007FE01231AE07B681B68002B04D07B681B68184603F0FAF806217868FFF7F8FD01230BE000217868FFF778FF012305E07868FFF7B1FF012300E0002318460837B9
:40144000BD4680BD5CE3000080B483B000AF0346FB71FB79072B0BD0FB79082B08D0FB790A2B05D0FB790B2B02D0FB790C2B01D1012300E00023DBB218460C37BD4680BC17
:40148000704700BF80B582B000AF78600B46FB70FB78322B09D0332B0DD0312B11D106217868FFF7B5FD01230CE007217868FFF7AFFD012306E00C217868FFF7A9FD0123AA
:4014C00000E0002318460837BD4680BD80B584B000AF78600B46FB707B681B79102B01D900233DE07B681B7E002B0BD0FB78122B06D1FB7819467868FFF75CFF03462FE030
:4015000000232DE0FB7819467868FFF753FF0346002B01D0012323E07B681B791A46124B53F82230FB60FB68002B09D0FA78FB681146786898470346002B01D001230FE03F
:401540007B681B791846FFF77FFF0346002B06D1FB7819467868FFF795FF034600E0002318461037BD4680BDD0E0000080B483B000AF0346FB71FB79063B062B01D801230C
:4015800000E0002318460C37BD4680BC704700BF80B5A8B000AF786007F19003184600F0B9FB0346002B13D0D7F890207B685A62D7F894207B689A62D7F898207B68DA62B4
:4015C0007B68012283F830207B68012283F8312007F18C03184600F077FB0346002B49D07B681B7E002B06D07B681B790121184600F0B6FB3FE097F88C301846FFF7B6FFEC
:401600000346002B14D17B681B790221184600F0A7FB97F88C3007F10C00184A40210BF013F807F10C03184607F044FE00BF22E097F88C3087F89F3097F89F301846FFF705
:40164000C5FD034607F14C000D4A40210AF0FCFF07F14C03184607F02DFE97F89F3019467868FFF7D5FC7B681B790021184600F077FB00E000BFA037BD4680BD70E30000E2
:4016800090E3000080B483B000AF194B00221A70184B00221A70184B00221A70174B00221A80174B00221A80164B00221A80164B00221A600023FB710CE0FB79134A0021B0
:4016C00042F82310FB79124A002122F81310FB790133FB71FB79012BEFD90E4B00221A700D4B00221A7000BF0C37BD4680BC70472C86FF1F2F86FF1F8886FF1F9886FF1FC7
:401700009A86FF1F9C86FF1FA086FF1F8C86FF1F9486FF1FA586FF1FB486FF1F80B584B000AF03463960FB713C4B1B68FB60FB793B4A52F82330002B13D0FB79384A52F82F
:401740002330FA68D31ABB60FB79BA68B2F5803F02D2BA6892B201E04FF6FF72314921F81320FA7913465B0013449B002E4A13440422396818460AF0E3FAFA7913465B000E
:4017800013449B00284A1344181D3B680433022219460AF0D5FAFA7913465B0013449B00214A1344981D3B680633022219460AF0C7FAFA7913465B0013449B0008331A4AB1
:4017C00098183B680833022219460AF0B9FAFA7913465B0013449B000833134A1344981C3B680A33022219460AF0AAFAFB79012202FA03F35AB20D4B1B78DBB25BB21343FE
:401800005BB2DAB2094B1A70FB790549FA6841F8232000BF1037BD4680BD00BFD485FF1F8C86FF1F9486FF1F7086FF1F8886FF1F80B584B000AF0346FB717E4B1B78042B15
:4018400000F2F38001A252F823F000BF611800007D1800008B180000BF180000E9180000FB79AB2B03D1734B01221A70DDE0724B1B8801339AB2704B1A80D6E06F4AFB795D
:4018800013706C4B02221A70CFE06D4AFB7913706B4B1B78402B03D9664B00221A70C4E0674B1B78002B03D1624B04221A70BCE0644B00221A705F4B03221A70B5E0614B20
:4018C0001B785A1CD1B25F4A117019465E4AFB7953545C4B1A785A4B1B789A42C0F0A480544B04221A709FE0544B1B781A46574B9B5CFB73524B1A78FB7B5340DBB21A4663
:40190000524B9B5CFB730023BB730CE0BB7B4E4AD25CFB7B5340DBB21A464C4B9B5CFB73BB7B0133BB73464B1B78BA7B9A42EDD3FA7BFB799A4263D1454B1B680133444A1F
:4019400013603E4B1B78013B0F2B60D801A252F823F000BF95190000A71900000F1A00000F1A00000F1A00000F1A00000F1A00000F1A00000F1A00000F1A00000F1A00008C
:401980000F1A00000F1A00000F1A0000D1190000B91900002A4B1B780C2B3AD12A490020FFF7BCFE35E0264B1B780C2B33D126490120FFF7B3FE2EE0214B1B78012B2CD1A2
:4019C000214B1A78234B1A70234B01221A7024E01B4B1B780C2B22D11B4B1B681F4A13601F4B042219461F480AF0AAF91E4B042219461E480AF0A4F91D4B01221A700EE009
:401A00001C4B1B8801339AB21A4B1A8008E000BF06E000BF04E000BF02E000BF00E000BF044B00221A7000E000BF00BF1037BD4680BD00BF2C86FF1F9C86FF1F2D86FF1F6E
:401A40002E86FF1F2F86FF1F3086FF1FA8E30000A086FF1FA486FF1FA586FF1FA886FF1F3486FF1FAC86FF1F3886FF1FB086FF1FB486FF1F9886FF1F80B483B000AF0346F6
:401A8000FB71074B1B8801339AB2054B1A80054B00221A7000BF0C37BD4680BC704700BF9A86FF1F2C86FF1F80B584B000AF03463960FB71FB79012B01D900233BE0FB7908
:401AC000012202FA03F3BB730023FB7307F0E3FD03467B731A4B1B78DAB2BB7B1340DBB2002B23D0FA793868164913465B0013449B00CA18034607CA83E80700BB7BDB4372
:401B0000DAB20F4B1B78DBB21340DAB20C4B1A700123FB73FB79002B08D107F07BFD034683F00103DBB2184607F056FD7B7B184607F0B5FDFB7B18461037BD4680BD00BF5A
:401B40008886FF1F7086FF1F80B584B000AF0346FB71FB79012B17D8FB79012202FA03F3FB7307F098FD0346BB73FB7BDB43DAB2074B1B78DBB21340DAB2054B1A70BB7B4E
:401B8000184607F08CFD00E000BF1037BD4680BD8886FF1F80B400AF024B1B881846BD4680BC70479C86FF1F80B400AF024B1B681846BD4680BC7047A086FF1F80B483B0DC
:401BC00000AF0346FB71FB79012B04D8FB79054A32F8133000E0002318460C37BD4680BC704700BF9486FF1F80B483B000AF0346FB71FB79012B04D8FB79054A52F823309D
:401C000000E0002318460C37BD4680BC704700BF8C86FF1F80B400AF024B1B881846BD4680BC70479886FF1F80B400AF024B1B881846BD4680BC70479A86FF1F80B584B0EA
:401C400000AF03463960FB711346BB71AB2007F0F1FBFB79184607F0EDFBBB79184607F0E9FBFB79174AD35CFB73FA7BBB795340DBB21A46134B9B5CFB730023BB7314E073
:401C8000BB7B3A6813441B78184607F0D3FBBB7B3A6813441A78FB7B5340DBB21A46094B9B5CFB73BB7B0133BB73BA7BBB799A42E6D3FB7B184607F0BDFB00BF1037BD46AD
:401CC00080BD00BFA8E3000080B584B000AF78600023FB7307F0DFFC0346BB730B4B1B78DBB2002B08D07B68094A12781A70074B00221A700123FB73BB7B184607F0CFFCEA
:401D0000FB7B18461037BD4680BD00BFA586FF1FA486FF1F80B584B000AF78600023FB7307F0B9FC0346BB730B4B1B78DBB2002B09D07B68094A07CA83E80700064B0022EE
:401D40001A700123FB73BB7B184607F0A8FCFB7B18461037BD4680BDB486FF1FA886FF1F80B584B000AF03460A46FB711346BB71FB793B73BB797B7307F10C0302221946A9
:401D80003020FFF75BFF00BF1037BD4680BD00BF80B582B000AF78600E49786809F034FF0346002B02D047F6FF730EE04FF04741786809F01FFF0346002B01D0064B04E012
:401DC000786809F04BFF03461BB218460837BD4680BD00BF00FEFF460080FFFF80B582B000AF78604FF00001786809F003FF0346002B01D000230EE04FF09F41786809F0F6
:401E000003FF0346002B02D04FF0FF3303E0786809F04AFF034618460837BD4680BD00BF80B582B000AF78604FF00001786809F0E1FE0346002B01D000230EE00949786891
:401E400009F0E2FE0346002B02D04FF6FF7304E0786809F029FF03469BB218460837BD4680BD00BF00FF7F4780B5BEB000AF786039601C220021386809F06DFF504B1A686C
:401E80003B681A607B681A793B681A717B681B68002B00F090807B681B680C33C7F8F430D7F8F4301A7B3B685A71D7F8F4305A7B3B689A71D7F8F4309A7B3B68DA71D7F817
:401EC000F430DA7B3B681A72D7F8F4301A7C3B685A72D7F8F4301B683A49184609F0E2FC03461846FFF754FF03461A463B685A81D7F8F4305B683349184609F0D3FC03465C
:401F00001846FFF745FF03461A463B689A81D7F8F4309B682B49184609F0C4FC03461846FFF736FF03461A463B68DA817B681B6807F108021146184602F0DAFB97F82420F1
:401F40003B681A7497F825203B685A74BB691E49184609F0A7FC03461846FFF719FF03461A463B685A82FB691749184609F09AFC03461846FFF70CFF03461A463B689A82C8
:401F80003B6A1149184609F08DFC03461846FFF7FFFE03461A463B68DA827B690A49184609F080FC03461846FFF7F2FE03461A463B681A8300E000BFF837BD4680BD00BFB3
:401FC000D485FF1F0000C84200FEFF4680B582B000AF7860396014220021386809F0BBFE124B1A683B681A60FFF714FE03461A463B689A80FFF718FE03461A463B68DA80D1
:40200000FFF7C8FD03461A463B681A81FFF7CCFD02463B68DA600020FFF7D0FD03461A463B681A8200BF0837BD4680BDD485FF1F80B5BEB000AF78603960102200213868E4
:4020400009F089FE284B1A683B681A607B681B68002B45D07B681B6807F10C021146184602F046FB3B692149184609F01BFC03461846FFF7D5FE03461A463B689A807B699E
:402080001A49184609F00EFC03461846FFF7C8FE03461A463B68DA80D7F8A0301349184609F000FC03461846FFF7BAFE03461A463B681A81D7F8C0300C49184609F0F2FB71
:4020C00003461846FFF764FE03461A463B685A8197F8AC203B681A733B6800225A7300E000BFF837BD4680BDD485FF1F00007A4480B5BEB000AF786039600C2200213868A8
:4021000009F029FE174B1A683B681A607B681B68002B23D07B681B6807F10C021146184602F0E6FAD7F8A8300F49184609F0BAFB03461846FFF72CFE03461A463B689A80CF
:40214000D7F8B4300949184609F0ACFB03461846FFF744FE02463B689A6000E000BFF837BD4680BDD485FF1F000020410000C84280B5BEB000AF78603960202200213868E2
:4021800009F0E9FD234B1A683B681A607B681B68002B3BD07B681B6807F10C021146184602F0A6FA97F82A30002B01D0012200E0002297F82B30002B01D0022300E00023CC
:4021C0001343DAB23B681A7197F8A4203B685A71FA6C3B689A603A6D3B68DA607A6D3B681A61B7F958203B689A82B7F95A203B68DA82B7F85C203B681A83B7F85E203B6837
:402200005A83B7F860203B689A8300E000BFF837BD4680BDD485FF1F80B5BEB000AF7860396010220021386809F095FD1B4B1A683B681A607B681B68002B2AD07B681B6816
:4022400007F10C021146184602F052FA97F86230002B01D0012200E000223B681A717B6E0F49184609F01EFB0346184609F0F6FC02463B689A60BB6E0A49184609F012FBED
:4022800003461846FFF784FD03461A463B689A8100E000BFF837BD4680BD00BFD485FF1F000020410000C84280B5BEB000AF7860396010220021386809F04DFD2A4B1A68FA
:4022C0003B681A607B681B68002B49D07B681B6807F10C021146184602F00AFA97F8C630002B01D0012200E000223B681A71D7F8C8301E49184609F0D5FA03461846FFF73B
:4023000047FD03461A463B68DA80D7F8CC301749184609F0C7FA03461846FFF739FD03461A463B681A81D7F8D0301049184609F0B9FA03461846FFF72BFD03461A463B6873
:402340005A81D7F8E8300A49184609F0ABFA03461846FFF71DFD03461A463B689A8100E000BFF837BD4680BDD485FF1F00007A440000204180B584B000AF786039603B685E
:40238000FB607B6804221946F86809F0D9FCFB680433FB60FB685A1CFA607A6812791A70FB685A1CFA607A6852791A70FB685A1CFA607A6892791A70FB685A1CFA607A68E4
:4023C000D2791A70FB685A1CFA607A68127A1A70FB685A1CFA607A68527A1A707B680A3302221946F86809F0ABFCFB680233FB607B680C3302221946F86809F0A1FCFB68DE
:402400000233FB607B680E3302221946F86809F097FCFB680233FB60FB685A1CFA607A68127C1A70FB685A1CFA607A68527C1A707B68123302221946F86809F081FCFB6808
:402440000233FB607B68143302221946F86809F077FCFB680233FB607B68163302221946F86809F06DFCFB680233FB607B68183302221946F86809F063FCFB680233FB60A0
:40248000FA683B68D31ADBB218461037BD4680BD80B584B000AF786039603B68FB607B6804221946F86809F04BFCFB680433FB607B68043302221946F86809F041FCFB689E
:4024C0000233FB607B68063302221946F86809F037FCFB680233FB607B68083302221946F86809F02DFCFB680233FB607B680C3304221946F86809F023FCFB680433FB6004
:402500007B68103302221946F86809F019FCFB680233FB60FA683B68D31ADBB218461037BD4680BD80B584B000AF786039603B68FB607B6804221946F86809F001FCFB6885
:402540000433FB607B68043302221946F86809F0F7FBFB680233FB607B68063302221946F86809F0EDFBFB680233FB607B68083302221946F86809F0E3FBFB680233FB6050
:402580007B680A3302221946F86809F0D9FBFB680233FB60FB685A1CFA607A68127B1A70FB685A1CFA607A6892F90D20D2B21A70FA683B68D31ADBB218461037BD4680BDED
:4025C00080B584B000AF786039603B68FB607B6804221946F86809F0B3FBFB680433FB607B68043302221946F86809F0A9FBFB680233FB607B68083304221946F86809F067
:402600009FFBFB680433FB60FA683B68D31ADBB218461037BD4680BD80B584B000AF786039603B68FB607B6804221946F86809F087FBFB680433FB60FB685A1CFA607A68D3
:4026400012791A70FB685A1CFA607A6852791A707B68083304221946F86809F071FBFB680433FB607B680C3304221946F86809F067FBFB680433FB607B681033042219467C
:40268000F86809F05DFBFB680433FB607B68143302221946F86809F053FBFB680233FB607B68163302221946F86809F049FBFB680233FB607B68183302221946F86809F0E4
:4026C0003FFBFB680233FB607B681A3302221946F86809F035FBFB680233FB607B681C3302221946F86809F02BFBFB680233FB60FA683B68D31ADBB218461037BD4680BDF3
:4027000080B584B000AF786039603B68FB607B6804221946F86809F013FBFB680433FB60FB685A1CFA607A6812791A707B68083304221946F86809F003FBFB680433FB6035
:402740007B680C3302221946F86809F0F9FAFB680233FB60FA683B68D31ADBB218461037BD4680BD80B584B000AF786039603B68FB607B6804221946F86809F0E1FAFB688B
:402780000433FB60FB685A1CFA607A6812791A707B68063302221946F86809F0D1FAFB680233FB607B68083302221946F86809F0C7FAFB680233FB607B680A330222194656
:4027C000F86809F0BDFAFB680233FB607B680C3302221946F86809F0B3FAFB680233FB60FA683B68D31ADBB218461037BD4680BD80B592B000AF786007F128031946786874
:40280000FFF732FB07F10C0207F1280311461846FFF7B0FD034687F8473097F8472007F10C0319462020FFF709FA00BF4837BD4680BD00BF80B58CB000AF786007F11803D8
:4028400019467868FFF7C2FB07F1080207F1180311461846FFF71CFE034687F82F3097F82F2007F1080319462320FFF7E7F900BF3037BD4680BD00BF80B58CB000AF7860EF
:4028800007F11C0319467868FFF7D2FB07F10C0207F11C0311461846FFF744FE034687F82F3097F82F2007F10C0319462120FFF7C5F900BF3037BD4680BD00BF80B58AB001
:4028C00000AF786007F1180319467868FFF710FC07F10C0207F1180311461846FFF770FE034687F8273097F8272007F10C0319462220FFF7A3F900BF2837BD4680BD00BF7F
:4029000080B592B000AF786007F1240319467868FFF72EFC07F1080207F1240311461846FFF77AFE034687F8473097F8472007F1080319462420FFF781F900BF4837BD464B
:4029400080BD00BF80B58AB000AF786007F1140319467868FFF760FC07F1080207F1140311461846FFF7CCFE034687F8273097F8272007F1080319462520FFF75FF900BF96
:402980002837BD4680BD00BF80B58CB000AF786007F11C0319467868FFF786FC07F10C0207F11C0311461846FFF7DCFE034687F82F3097F82F2007F10C0319462620FFF7AA
:4029C0003DF900BF3037BD4680BD00BF80B588B000AF78607B681B68002B56D02F4B1A687B685B6ED31A042B51D92C4B1B683B614FF0FF33FB610023BB6100237B6122E040
:402A000027497A6913465B0013449B000B4408331B683A69D31AFB6021497A6913465B0013449B000B4404331A68FB689A4207D8FA68BB699A4203D3FB68BB617B69FB6195
:402A40007B6901337B617B69032BD9D9FB69B3F1FF3F1ED07B6818681149FA6913465B0013449B000B441B88194601F0EDFD0346002B0FD10A49FA6913465B0013449B00C8
:402A80000B4408333A691A6004E000BF02E000BF00E000BF2037BD4680BD00BFD485FF1FD080FF1F80B582B000AF7860034806F001FC00BF0837BD4680BD00BFA8E400009C
:402AC00080B582B000AF7860034806F0F3FB00BF0837BD4680BD00BFE4E4000080B584B000AF78607B681B79052B2CD17B689B79002B28D007F1080207F10C0319467868FE
:402B000001F032F90346002B18D07B68DB68002B03D11B4B1A687B68DA60194B1A687B68DB68D31A41F28732934222D9154806F0C1FB06217868FEF76BFA1AE07B680022CF
:402B4000DA6000BF15E07B681B79062B14D17B689B79002B10D07B6893F83030002B0AD0094806F0A7FB0A217868FEF751FA00BF01E000BF00E000BF1037BD4680BD00BF8D
:402B8000D485FF1F04E5000034E5000080B483B000AF78607B681B79062B0CBF01230023DBB218460C37BD4680BC704780B582B000AF7860034806F07DFB00BF0837BD4628
:402BC00080BD00BF64E5000080B483B000AF78607B68002283F8842000BF0C37BD4680BC704700BF80B582B000AF786039603B6800229A733B684FF000029A603B680022CB
:402C00001A747B6893F88430002B25D03B6802225A733B685A7B3B681A737B68D3F894207B68D3F88C301946104608F031FD03461449184608F0EAFE03461A463B681A6037
:402C40007B68D3F898300F49184608F0DFFE03461A463B685A6010E03B6801225A733B685A7B3B681A737B685A6F3B681A607B689B6F83F000423B685A6000BF0837BD4659
:402C800080BD00BF0000344380B582B000AF78600B46FB70FB781946786801F06DF90346002B01D0012335E0FB78362B23D0362B04DC322B0FD0342B15D02AE0382B02D0A9
:402CC000652B20D025E0154A4FF00001786801F075F801231EE0124A4FF00001786801F06DF8012316E04FF000020D49786801F065F801230EE04FF000020849786801F02A
:402D00005DF8012306E006217868FEF781F9012300E0002318460837BD4680BD6801B43B6801B4BB80B586B000AF78607B6893F88430002B4AD0284B1A687B68D3F88830D6
:402D4000D31A3B613B69952B42D90023FB7507F1080207F10C031946786801F005F80346002B27D0FA687B68D3F894301946104608F08EFC034623F000431849184608F0B6
:402D80002FFF0346002B13D0BA687B68D3F898301946104608F07CFC034623F000430F49184608F01DFF0346002B01D0012300E00023FB75FB7D002B03D13B69B3F5FA6F60
:402DC00007D37B68002283F8842002E000BF00E000BF1837BD4680BDD485FF1FCDCC4C3D80B584B000AF786007F1080207F10C031946786800F0B8FF034618461037BD469D
:402E000080BD00BF80B483B000AF78607B6893F8603018460C37BD4680BC704780B483B000AF78607B6893F8303018460C37BD4680BC7047F0B5BBB006AFF860FB681B79AC
:402E4000082B67D1FB6893F88430002B62D0BE4B1A68FB68D3F88830D31AC7F8C830D7F8C830952B40F26381002387F8CF3007F1B80207F1BC031946F86800F075FF0346C0
:402E8000002B2AD0D7F8BC20FB68D3F894301946104608F0FDFB034623F00043AB49184608F09EFE0346002B14D0D7F8B820FB68D3F898301946104608F0EAFB034623F043
:402EC0000043A249184608F08BFE0346002B01D0012300E0002387F8CF3097F8CF30002B05D1D7F8C830B3F5FA6FC0F02081984806F0E0F9FB68DB79002B01D0062300E0B8
:402F0000092387F8C73097F8C7301946F868FEF77FF80CE1FB681B79092B32D107F1AC0319460020FEF7C0FD0346002B11D0B7F9B020FB68A3F85420B7F9B220FB68A3F884
:402F40005620844806F0B6F90C21F868FEF760F8F6E0FB689B79002B00F0EB807A4B1A68FB689B68D31A42F20F72934240F2E180794806F09FF90B21F868FEF749F800BF36
:402F8000D7E0FB681B790A2B18D16F4B1A68734B1B68D31A41F2873293420BD96A4B1B686E4A1360FB6893F83030002B02D0F86800F004FBF86800F075FBC1E0FB681B79E1
:402FC0000C2B7ED1002387F8C630002387F8CE3053E007F1A00297F8CE3011461846FEF763FD0346002B42D097F8CE30002B0CD1B7F9A420FB68A3F85420B7F9A620FB68D5
:40300000A3F85620012387F8C63097F8CE30544A52F82340B7F9A4301D46B7F9A6301E4697F8CE301846FEF7C9FD0346BB60FEF7BBFD7860FEF7EEFD03463B60FEF7F4FD04
:40304000034607F1140005933A6804927A680392BB680293019600952346424A802109F0F3FA07F11403184606F024F900E000BF97F8CE30013387F8CE3097F8CE30012B3E
:40308000A7D90020FEF7B0FDC7F8C000D7F8C030002B50D0FB68DA6ED7F8C0309A424AD2294B1A68D7F8C030D31A41F28732934241D92D4806F0FEF80D21F868FDF7A8FFDC
:4030C00039E0FB681B790D2B1BD107F1940319460020FEF7E9FC0346002B2ED0B7F99820FB68A3F85420B7F99A20FB68A3F856201E4806F0DFF80C21F868FDF789FF00BF8F
:403100001BE0FB681B790E2B1AD1FB689B79002B15D0FB6893F83030002B10D0144806F0C9F80A21F868FDF773FF00BF07E000BF06E000BF04E000BF02E000BF00E000BFA8
:40314000D437BD46F0BD00BFD485FF1FCDCC4C3DB4E50000CCE50000F4E50000B886FF1F0081FF1F20E600005CE600008CE60000C0E6000080B584B000AF7860224806F06E
:4031800099F87B6893F86030002B09D11F4A00217868FDF7E7FF06217868FDF739FF2FE007F1080207F10C031946786800F0DCFD0346002B09D1164A00217868FDF7D2FF70
:4031C00006217868FDF724FF1AE0FA687B68C3F88C20BA687B68C3F890207B689A6D7B68C3F894207B68DA6D7B68C3F898207B68012283F88420074B1A687B68C3F88820A0
:403200001037BD4680BD00BFE8E6000014E7000034E70000D485FF1F80B582B000AF78607B68002283F884200020FEF78DFC7B680022DA7100BF0837BD4680BD80B582B048
:4032400000AF78600B46FB70FB78652B05D106217868FDF7DDFE012300E0002318460837BD4680BD80B582B000AF786039603B6800221A743B6800229A733B684FF00002C8
:403280009A603B6802225A733B685A7B3B681A737B68D3F894207B68D3F88C301946104608F0F6F903460B49184608F0AFFB03461A463B681A607B68D3F8983005491846EB
:4032C00008F0A4FB03461A463B685A6000BF0837BD4680BD0000344380B582B000AF7860054B1A687B689A60044805F0E3FF00BF0837BD4680BD00BFD485FF1F50E7000011
:4033000080B582B000AF78600B46FB70FB781946786800F031FE0346002B01D0012300E0002318460837BD4680BD00BFB0B58AB000AFF860B9607A603B603749F86808F0FE
:40334000B1FA03463B623449786808F0ABFA0346FB61B968386808F09BF903462E49184608F0A0FA0346BB61B86906F0DBF90446F86906F09BF903461946204608F092FA09
:4033800003467B61386A06F091F90446F86906F0C9F903461946204608F084FA03461C46386A06F0BFF90546F86906F07FF903461946284608F076FA03461D46B86906F089
:4033C00075F903461946284608F06CFA03461946204608F05DF903463B613969786906F031FA03460D49184608F05CFA03467B624FF00001786A08F0F3FB0346002B05D044
:403400000749786A08F046F903467B627B6A18462837BD46B0BD00BF98F98E3CE62E65420000B443B0B58AB000AFF860B9607A603B605049F86808F035FA03463B624D494F
:40344000386808F02FFA0346FB61B968B86B08F01FF903464749184608F024FA0346BB61396AF86908F014F903467B614FF07C51786908F017FA0346184606F053F9044689
:403480004FF07C51786908F00DFA0346184606F049F903461946204608F004FA03461C46386A06F003F90546F86906F0FFF803461946284608F0F6F903461D464FF07C51B0
:4034C000B86908F0EFF90346184606F02BF903461946284608F0E6F903461D464FF07C51B86908F0DFF90346184606F01BF903461946284608F0D6F903461946204608F0E0
:40350000C9F803463B61386906F09EF9044639694FF07E5008F0BCF80346184606F094F903461946204606F08DF903461249184608F0B8F903467B624FF07E51786A08F0A5
:403540004FFB0346002B02D04FF07E537B627968F86B08F09DF80346796A184606F072F903460649184608F09DF9034618462837BD46B0BD98F98E3C706D424BE62E654298
:4035800080B483B000AF78607B685A6A7B685A637B689A6A7B689A637B68DA6A7B68DA637B68002283F840207B68002283F8312000BF0C37BD4680BC704700BF80B5C2B0B9
:4035C00002AF78607B681B6807F108021146184601F08EF897F8263083F00103DBB2002B54D17B685B6B184608F008F903462A49184608F057F90346C7F8FC307B689B6BF6
:40360000184608F0FBF803462349184608F04AF90346C7F8F8307B68DB6B184608F0EEF803461E49184608F03DF90346C7F8F430B86AF96AD7F8F830D7F8FC20FFF776FE25
:403640000246BB6B1946104608F022F803461449184608F0DBF903461A467B68DA61B86AF96A3A6BD7F8F4300193D7F8F8300093D7F8FC30FFF7D6FE03460949184608F08D
:40368000C5F903461A467B681A6200E000BF07F58077BD4680BD00BF95BFD6336F12833A0000344390B58BB000AF7860694B1B683B627B68DB6C3A6AD31A312B40F2C3803A
:4036C00007F1080207F10C031946786800F04CFB0346002B00F0B9805F4B7B627B68DB6C002B34D07B68DB6C3A6AD31A184608F081F803465949184608F0D4F80346FB6192
:403700004FF00001F86908F089FA0346002B1ED0FA687B685B6C1946104607F0B9FF034623F00044BA687B689B6C1946104607F0AFFF034623F000431946204607F0AAFF91
:403740000346F969184608F061F903467B62FA687B685A64BA687B689A647B683A6ADA647B68DB693E49184608F09CF80346BB617B681B6A3A49184608F094F803467B610E
:40378000FB68B969184607F083FF034623F000434FF07C51184608F023FA0346002B11D0BB687969184607F073FF034623F000434FF07C51184608F013FA0346002B01D01B
:4037C000012300E00023FB7401231C464FF07E51786A08F005FA0346002B01D100231C46E3B2BB747B6893F83130002B14D07B6893F84030002B05D1FB7C002B0CD0BB7CC5
:40380000002B09D0174805F055FD7868FFF7B8FE7868FFF7D3FE19E07B6893F84030002B14D1FB7C002B11D0BB7C002B0ED07B68012283F840200C4805F03CFD0921786894
:40384000FDF7E6FB02E000BF00E000BF2C37BD4690BD00BFD485FF1F286B6E4E6F12833A0000344384E70000ACE7000080B582B000AF78607B6893F83030002B07D10B4836
:4038800005F018FD06217868FDF7C2FB0BE0084805F010FD7B680022DA647868FFF770FE7868FFF78BFE0837BD4680BDD4E7000004E8000080B582B000AF78600020FEF7FA
:4038C00043F97B6893F84030002B03D001217868FDF724FD7B684FF000021A627B681A6A7B68DA6100BF0837BD4680BD80B582B000AF78600B46FB70FB78652B05D106218C
:403900007868FDF785FB012300E0002318460837BD4680BD80B582B000AF786039603B6800221A743B6800229A733B684FF000029A603B6802225A733B685A7B3B681A7369
:403940007B68DB691C49184608F04AF90346002B01D0194B0EE07B68DB694FF07E51184608F05CF90346002B02D04FF07E5301E07B68DB693A6813607B681B6A0E4918461B
:4039800008F02EF90346002B01D00B4B0EE07B681B6A4FF07E51184608F040F90346002B02D04FF07E5301E07B681B6A3A68536000BF0837BD4680BD000080BF80B582B082
:4039C00000AF7860034805F075FC00BF0837BD4680BD00BF38E8000080B582B000AF78607B680022A3F854207B680022A3F85620034805F05FFC00BF0837BD4680BD00BFC2
:403A000064E8000080B582B000AF78600B46FB70FB78652B05D106217868FDF7F9FA012300E0002318460837BD4680BD80B584B000AF786039603B6800221A743B68002224
:403A40009A733B684FF000029A603B6801225A733B685A7B3B681A737B68B3F95430184607F0CCFE03463749184607F01BFF0346FB607B68B3F95630184607F0BFFE0346A2
:403A80003049184607F00EFF0346BB607B681B6DF968184607F006FF03462B49184608F09FF80346002B01D0274B18E07B681B6DF968184607F0F6FE03464FF07E5118467E
:403AC00008F0ACF80346002B02D04FF07E5306E07B681B6DF968184607F0E4FE03463A6813607B681B6DB968184607F0DBFE03461549184608F074F80346002B02D04FF0E5
:403B00007E5319E07B681B6DB968184607F0CAFE03464FF07E51184608F080F80346002B01D0094B08E07B681B6DB968184607F0B9FE034683F000433A68536000BF10377A
:403B4000BD4680BDCDCCCC3D000080BF80B582B000AF7860034805F0ADFB00BF0837BD4680BD00BF90E8000080B582B000AF78600B46FB70FB781946786800F0FDF903464E
:403B8000002B01D0012309E0FB78332B05D10B217868FDF73DFA012300E0002318460837BD4680BD80B582B000AF7860034805F081FB00BF0837BD4680BD00BFE8E80000A3
:403BC00080B582B000AF78600B46FB70FB781946786800F0D1F90346002B01D0012309E0FB78332B05D10B217868FDF711FA012300E0002318460837BD4680BD80B483B040
:403C000000AF0346FB71FB79022B05D0032B05D0012B05D1054B04E0054B02E0054B00E0054B18460C37BD4680BC70472CE9000034E9000040E9000048E9000080B582B035
:403C400000AF7860164805F035FB7B681B7C1846FFF7D4FF0346184605F02CFB114805F029FB7B685B69002B02D07B685B6900E00D4B184605F01EFB7B681B7C032B07D1F5
:403C80007B681B68002B03D0084805F013FB02E0074805F00FFB00BF0837BD4680BD00BF50E900005CE9000060E900006CE90000A0E9000080B584B000AF78600B46FB70CF
:403CC0007B681B7C032B13D07B685B790F2B06D07B685B79102B02D07B685B7900E00623FB73FB7B19467868FDF792F9012300E0002318461037BD4680BD00BF80B582B01A
:403D000000AF7860074805F0D5FA7B681B68002B04D07B681B68184600F078FC00BF0837BD4680BDBCE9000080B483B000AF78600B46FB70002318460C37BD4680BC704715
:403D400080B582B000AF7860396039687868FDF7A5FA7B681B7C032B02D13B6801221A7400BF0837BD4680BD80B5C0B000AFF860B9607A60FB681B68002B01D1002318E0FE
:403D8000FB681B6807F114021146184600F0B0FC3B7D83F00103DBB2002B01D0002308E007F1100307F114007A68B96800F00CFD0346184607F58077BD4680BD90B587B092
:403DC00000AFF860B9607A60FB6893F88430002B27D107F1100207F114031946F868FFF7C3FF0346002B05D15E4A0021F868FDF7B9F9B3E05C4805F05DFA7A69FB68C3F8D7
:403E00008C203A69FB68C3F890207A69FB68C3F894203A69FB68C3F89820FB68012283F88420FB68D3F89430B968184607F032FC03461C46FB689B6D4C49184607F028FCD8
:403E400003461946204607F0CBFE0346002B08D0FB689B6D4549184607F01AFC03461A4628E0FB68D3F89430B968184607F012FC03461C46FB689B6D3C49184607F00AFCA7
:403E800003461946204607F0C9FE0346002B08D0FB689B6D3549184607F0FCFB03461A4608E0FB68D3F89430B968184607F0F2FB03461A46FB68C3F89420FB68D3F898305E
:403EC0007968184607F0E6FB03461C46FB68DB6D2749184607F0DCFB03461946204607F07FFE0346002B08D0FB68DB6D2049184607F0CEFB03461A4628E0FB68D3F8983012
:403F00007968184607F0C6FB03461C46FB68DB6D1749184607F0BEFB03461946204607F07DFE0346002B08D0FB68DB6D1049184607F0B0FB03461A4608E0FB68D3F898306F
:403F40007968184607F0A6FB03461A46FB68C3F89820084B1A68FB68C3F888201C37BD4690BD00BFF4E9000014EA00000000F0410000A041D485FF1F80B582B000AF78609C
:403F80000B46FB70FB78613B162B77D801A252F823F000BF5B4000007D4000007D4000006B4000007D4000007D4000007D4000007D400000F13F000015400000034000006B
:403FC000274000007D4000007D4000007D4000007D4000007D4000007D4000004B4000007D4000007D4000007D400000394000004FF07C524FF000017868FFF7DFFE01238D
:404000003DE04FF03F424FF000017868FFF7D6FE012334E04FF000024FF03F417868FFF7CDFE01232BE04FF000024FF07C517868FFF7C4FE012322E04FF07E524FF0000157
:404040007868FFF7BBFE012319E00F4A4FF000017868FFF7B3FE012311E04FF000020A497868FFF7ABFE012309E04FF000024FF07E517868FFF7A2FE012300E000231846F5
:404080000837BD4680BD00BF000080BF80B483B000AF0346FB80FB880133FB80FB88FF2B01D90023FB80FB8818460C37BD4680BC704700BF80B483B000AF78607B68002286
:4040C000A3F800217B680022A3F802217B680022A3F8042100BF0C37BD4680BC704700BF80B584B000AF78600B46FB707B68B3F800319BB21846FFF7C9FF0346FB817B6849
:40410000B3F802319BB2FA899A420AD17B68B3F804319BB201339AB27B68A3F8042100230CE07B68B3F800319BB219467B68FA785A547B68FA89A3F800210123184610377F
:40414000BD4680BD80B582B000AF786039607B68B3F800319AB27B68B3F802319BB29A4201D1002316E07B68B3F802319BB21A467B689B5CDAB23B681A707B68B3F80231D6
:404180009BB21846FFF782FF03461A467B68A3F80221012318460837BD4680BD80B483B000AF78607B681B680F4A13617B685B680D4A93617B689B680B4A13627B681A7B58
:4041C000094B1A757B685A7B074B1A777B689A7B054B83F824207B681A7C034B1A7300BF0C37BD4680BC70470881FF1F80B582B000AF78607A680021002000F0CFFB00BFBD
:404200000837BD4680BD00BF80B584B000AF78600023FB6009E07B685B687A681268F97A10469847FB680133FB607B6803F22A2307F10B0211461846FFF784FF0346002B81
:40424000E9D1FB6818461037BD4680BD80B582B000AF786039604FF460720021786807F07AFD7B683A6807CA83E807007B68022283F830237B6803F592731846FFF71AFF47
:404280007B6803F22A231846FFF714FF044A7B681360044B1B68984700BF0837BD4680BDBC86FF1F0881FF1F80B582B000AF78600B46FB707B68002B0FD07B6803F5927361
:4042C000FA7811461846FFF70BFF7B68B3F828329AB27B68A3F8202100E000BF0837BD4680BD00BF80B483B000AF78600B46FB707B68002B09D07B6893F82221FB781343BC
:40430000DAB27B6883F8222100E000BF0C37BD4680BC704780B58AB000AF78607B68002B00F02F81994BD3F880307B6202E17B68D3F818315A1C7B68C3F81821FB7A19469D
:40434000002002F0C5FD03463B623B6A002B00D1F0E07B68D3F814315A1C7B68C3F814218A4BFB61FB691B697B83FB699B893B83FB691B6F7B617B6820331846FFF736FFF0
:404380007B69002B00F09F807B8B013B2F2B00F2998001A252F823F08F440000C54400006B44000059440000C5440000C5440000C5440000C5440000C5440000C5440000DA
:4043C000C5440000A1440000C5440000C5440000C5440000C5440000C5440000C5440000C5440000C5440000C54400007D440000C5440000C5440000C5440000C544000099
:40440000C5440000C5440000C5440000C5440000C5440000C5440000C5440000C5440000C5440000C5440000C5440000C5440000C5440000C5440000C5440000C5440000EC
:40444000C5440000C5440000C5440000C5440000C5440000B34400007B6803F120023B8B1946786900F0CEFA2DE07B6803F120023B8B1946786900F095FB24E07B6803F1FA
:4044800020023B8B1946786900F0C8FB1BE07B6803F120023B8B1946786900F061FC12E07B6803F120023B8B1946786900F03CFD09E07B6803F120023B8B1946786900F0E8
:4044C000F9FD00E000BF7B68B3F83233002B31D07B68B3F832337A8B9A422BD17B687A8BA3F83A237B683A8BA3F83C237B68012283F838233B8B3F2B02D83B8BDBB200E09D
:404500004023FB747B69002B08D07B6803F23E33FA7C7969184607F013FC07E07B6803F23E33FA7C0021184607F015FC7B68FA7C83F87E237B6803F5927307F10B021146DF
:404540001846FFF7FFFD0346002B7FF4F0AE0F4BD3F88030FB60FA687B6A9A4209D97B68D3F81C21F9687B6ACB1A1A447B68C3F81C217B68B3F828329AB27B68A3F82021EF
:4045800000E000BF2837BD4680BD00BFFC86FF1FB0B584B000AF786039607B68002B03D07B685B68002B01D1012329E03868FFF7F5FD7B683A6803F10C0415460FCD0FC4D9
:4045C0002B682360104B5B6898477868FFF71CFEF8607B68D3F80C315A1C7B68C3F80C217B68D3F81021FB681A447B68C3F810217B6893F82231002B14BF01230023DBB232
:4046000018461037BD46B0BD0881FF1FB0B588B000AF78607B68002B11D07B6807F10C0403F10C050FCD0FC42B68236001233B7707F10C0319467868FFF7AAFF00E000BF9C
:404640002037BD46B0BD00BF80B588B002AF78600B467B807B68002B03D07B685B68002B01D101233EE007F10C03184602F03AFB7B6893F830333B7479886B4607F11002E4
:404680001268104618800233120C1A70FB680022164802F091FB7868FFF7B6FD78617B687A88A3F832237B680022C3F834237B68002283F838237B68D3F80C315A1C7B68E7
:4046C000C3F80C217B68D3F810217B691A447B68C3F810217B6893F82231002B14BF01230023DBB218461837BD4680BDF486FF1F80B582B000AF786039607B68002B0BD05A
:404700003B68002B08D03A687B6810462033EC22194607F015FB00E000BF0837BD4680BD80B483B000AF78607B681B781A067B6801331B781B041A437B6802331B781B02A1
:4047400013437A6803321278134318460C37BD4680BC704780B483B000AF78607B681B781B021AB27B6801331B781BB213431BB218460C37BD4680BC704700BF80B483B0B1
:4047800000AF78607B681B781B021AB27B6801331B781BB213431BB29BB218460C37BD4680BC704780B584B000AF786007F10E0302227968184607F0C3FAB7F90E30184639
:4047C0001037BD4680BD00BFB0B58AB000AFF860B9607A603B60FB68002B06D0FB681B7883F00103DBB2002B01D00023CEE0FB68DB683B62FB681B69FB61FB685B69BB614B
:40480000FB689B697B61BB68002B3FD07969386A07F048F803461C46B969F86907F042F803461946204606F035FF03461946184606F030FF03461C46B969B86907F032F84C
:4048400003461D467969786907F02CF803461946284606F01FFF03461946184606F01AFF034619464FF07E5006F012FF03461946204604F0E7FF0246464B1B6819461046BA
:4048800007F010F803461A46BB681A607B68002B38D0B969386A07F005F803461C46F969786906F0FFFF03461946204606F0F0FE03461946184606F0EDFE03467B624FF0C5
:4048C0007E51786A07F0AAF90346002B03D04FF07E537B6208E03049786A07F081F90346002B01D02C4B7B62786A04F059FF0246284B1B681946104606F0D4FF03461A4659
:404900007B681A603B68002B3FD0F969386A06F0C9FF03461C467969B86906F0C3FF03461946204606F0B6FE03461946184606F0B1FE03461C46F969F86906F0B3FF034653
:404940001D46B969B86906F0ADFF03461946284606F0A0FE03461946184606F09BFE034619464FF07E5006F093FE03461946204604F068FF0246074B1B681946104606F043
:4049800091FF03461A463B681A60012318462837BD46B0BD20EA0000000080BF80B485B000AFF8600B467A607B81154B9A6C7B685A60134BDA6C7B689A60114B1A6E7B6825
:4049C000DA600F4B5A6D7B681A610D4B9A6D7B685A610B4BDA6D7B689A61094B93F850207B681A77064B93F851207B685A777B6801221A7000BF1437BD4680BC704700BF73
:404A00000881FF1F80B58AB000AFF8600B467A607B817B89152B40F2BB80F868FFF780FE7862FB6804331846FFF77AFE3862FB6808331846FFF774FEF861FB680C33184616
:404A4000FFF788FE03467B83FB680E331846FFF781FE03463B83FB6810331846FFF78EFE0346FB82FB6812331846FFF787FE0346BB82FB6814331846FFF780FE03467B82E0
:404A80007B687A6A5A647B683A6A1A647B68FA699A647B687A8BA3F84C207B683A8BA3F84E207B68FA8AA3F850207B68BA8AA3F852207B687A8AA3F85420786A06F09EFE78
:404AC00003463549184606F0A1FF03461A467B685A62386A06F092FE03462F49184606F095FF03461A467B681A62F86906F086FE03462A49184606F089FF03461A467B68DB
:404B00009A62B7F91A30184606F078FE03462449184606F07BFF03461A467B68DA62B7F91830184606F06AFE03461D49184606F06DFF03461A467B681A63FB8A184606F064
:404B400059FE03461649184606F060FF03461A467B685A63BB8A184606F04CFE03461049184606F053FF03461A467B689A637B8A184606F03FFE03460949184606F046FFBC
:404B800003461A467B68DA637B6801229A7700E000BF2837BD4680BD8096184B00007A440000C84280B584B000AFF8600B467A607B817B89042B28D9FB6801331846FFF7E0
:404BC000F1FD0346184606F019FE03461149184606F01CFF03461A467B689A65FB6803331846FFF7DFFD0346184606F007FE03460949184606F00AFF03461A467B68DA6548
:404C00007B68012283F8562000E000BF1037BD4680BD00BF0000204100007A4480B584B000AFF8600B467A607B817B890E2B40F28E80FB6801331846FFF7B4FD0346184622
:404C400006F0DCFD03464449184606F0DFFE03461A467B689A66FB6803331846FFF7A2FD0346184606F0CAFD03463B49184606F0CDFE03461A467B68DA66FB680533184631
:404C8000FFF790FD0346184606F0B8FD03463249184606F0BBFE03461A467B681A67FB6807331846FFF77EFD0346184606F0A6FD03462A49184606F0A9FE03461A467B6852
:404CC000C3F88020FB6809331846FFF76BFD0346184606F093FD03461F49184606F096FE03461A467B685A67FB680B331846FFF759FD0346184606F081FD0346164918467F
:404D000006F084FE03461A467B689A67FB680D331846FFF747FD0346184606F06FFD03460D49184606F072FE03461A467B68DA677B684FF00002C3F884207B684FF0000253
:404D4000C3F888207B68012283F8602000E000BF1037BD4680BD00BF0000C8420000204180B584B000AFF8600B467A607B817B89152B40F2CF80F868FFF7ECFC034618463E
:404D800006F03CFD03466549184606F03FFE03461A467B68C3F89420FB689A787B6883F89820FB6803331B78184606F023FD03465B49184606F02AFE03461A467B68C3F866
:404DC0009C20FB681A797B6883F8A020FB6805331846FFF7BFFC03461A467B68A3F8A220FB6807331846FFF7B5FC03461A467B68A3F8A420FB6809331846FFF7ABFC0346E0
:404E0000184606F0FBFC03464649184606F0FEFD03461A467B68C3F8A820FB680B331846FFF798FC03461A467B68A3F8AC20FB680D331846FFF78EFC03461A467B68A3F8CD
:404E4000AE20FB6810331846FFF784FC03461A467B68A3F8B020FB6812331846FFF77AFC0346184606F0CAFC03462C49184606F0CDFD03461A467B68C3F8B420FB6814337D
:404E80001846FFF767FC03461A467B68A3F8B8207B68012283F88C207B68B3F9A2309BB203F00103002B14BF01230023DAB27B6883F88D207B68B3F9A2309BB203F00203E8
:404EC000002B14BF01230023DAB27B6883F88E207B68B3F9A2309BB203F00403002B14BF01230023DAB27B6883F88F207B68B3F9A2309BB203F00803002B14BF012300235E
:404F0000DAB27B6883F890207B6893F890207B68DA7700E000BF1037BD4680BD0000C842000040400000204180B584B000AFF8600B467A607B817B89122B40F2B080FB68D7
:404F400001331846FFF72EFC0346184606F056FC03465549184606F059FD03461A467B68C3F8BC20FB6803331846FFF71BFC0346184606F043FC03464B49184606F046FD88
:404F800003461A467B68C3F8C020FB6805331846FFF708FC0346184606F030FC03464249184606F033FD03461A467B68C3F8C420FB6807331846FFF7F5FB0346184606F00D
:404FC0001DFC03463949184606F020FD03461A467B68C3F8C820FB6809331846FFF7E2FB0346184606F00AFC03463049184606F00DFD03461A467B68C3F8CC20FB680B33C6
:405000001846FFF7CFFB0346184606F0F7FB03462549184606F0FAFC03461A467B68C3F8D020FB680D331846FFF7BCFB0346184606F0E4FB03461C49184606F0E7FC034633
:405040001A467B68C3F8D420FB680F331846FFF7A9FB0346184606F0D1FB03461249184606F0D4FC03461A467B68C3F8D820FB6811331846FFF796FB0346184606F0BEFB4F
:4050800003460B49184606F0C1FC03461A467B68C3F8DC207B68012283F8BA2000E000BF1037BD4680BD00BF00007A440000C8420000204180B584B000AFF8600B467A60FB
:4050C0007B817B890C2B2CD9FB6808331B78092B0CBF01230023DAB27B6883F8E120FB6809331846FFF736FB0346184606F086FB03460E49184606F089FC03461A467B68CB
:40510000C3F8E420FB680B331846FFF723FB03461A467B68A3F8E8207B68012283F8E02000E000BF1037BD4680BD00BF0000204180B500AF1A4A0A211A4801F0C1FD1A4BBE
:4051400000221A75184B00221A77174B002283F82420154B002283F82C20134B002283F83420114B002283F83C200F4B002283F841200D4B002283F840200B4B002283F898
:405180004220094B002283F84320074B002283F84420054B002283F8452000BF80BD00BFF1510000F486FF1F0881FF1F80B584B002AF3B46184601F095FD02233B710023E8
:4051C0007B710023BB716B463A1D1268114619800233120C1A703B68002240F21511034801F02AFE00BF0837BD4680BDF486FF1F80B592B002AF78607B681B78022B07D054
:40520000042B02D0012B06D008E000F0AFFC05E000F0ACFC02E000F0B5FC00BF7B68DB6E184600F07DFC7B68DB6840F21512934205D040F21F12934200F04A82EAE37B6869
:405240001B78022B40F0EA83B74B1B78002B06D107F130030321184600F096FE06E007F130000023FF22032100F0ACFEAF4B1B7D032B1BD801A252F823F000BF8D520000A8
:40528000955200009D520000A5520000002387F83F300FE0012387F83F300BE0022387F83F3007E0032387F83F3003E0002387F83F3000BF9D4B1B7F032B1BD801A252F8D3
:4052C00023F000BFD5520000DD520000E5520000ED520000002387F83E300FE0042387F83E300BE0082387F83E3007E00C2387F83E3003E0002387F83E3000BF8B4B93F8E4
:405300002430032B1AD801A252F823F01D530000255300002D53000035530000002387F83D300FE0102387F83D300BE0202387F83D3007E0302387F83D3003E0002387F827
:405340003D3000BF97F83F2097F83E301343DAB297F83D301343DBB287F83030734B5B7B002B07D097F8303063F07F03DBB287F8303006E097F8303003F07F03DBB287F85A
:4053800030306A4B1B7B002B07D097F8303043F04003DBB287F8303006E097F8303023F04003DBB287F830305F4B1B78002B06D107F130030121184600F0E6FD06E007F13D
:4053C00030000023FF22012100F0FCFD564B1B78002B05D1564A0121564800F0DFFB07E0554B0093554B524A0121524800F03AFC4D4B1B78002B05D14D4A0121504800F02A
:40540000CDFB07E04C4B00934C4B494A01214C4800F028FC444B1B78002B05D1444A0121484800F0BBFB07E0434B0093434B404A0121444800F016FC0023BB833A4B1B784D
:40544000002B06D107F11C030121184600F0C2FC07E007F11C004FF000033B4A012100F0E5FC324B93F82C30012B07D0022B09D0002B0BD1002387F83C300BE0102387F811
:405480003C3007E0202387F83C3003E0002387F83C3000BF254B93F83430012B07D0022B09D0002B0BD1002387F83B300BE0042387F83B3007E0082387F83B3003E0002341
:4054C00087F83B3000BF194B93F83C30012B07D0022B09D0002B0BD1002387F83A300BE0012387F83A3007E0022387F83A3003E0002387F83A3000BF97F83C2097F83B300C
:405500001343DAB297F83A301343DBB287F83030054B1B78002B19D107F130030121184600F032FD19E000BFF086FF1F0881FF1F00FEFF462881FF1F0001003800FEFFC613
:405540002081FF1F1881FF1F00FF7F4707F130000023FF22012100F035FDAF4B9B6AAF49184606F09FF90346AC49184606F092F80346184606F098FB03469BB23B81A64BCE
:405580001B6BA649184606F08DF90346A349184606F080F80346184606F086FB03469BB27B819D4B9B6B9D49184606F07BF903469A49184606F06EF80346184606F074FB5D
:4055C00003469BB2BB81964B1B78002B06D107F108030321184600F059FD07E007F1080000234FF6FF72032100F07AFD8C4B1B78002B05D1012200218A4800F0EDFD04E00E
:4056000001220021874800F04DFE854B1B78002B05D101220121844800F0DEFD04E001220121814800F03EFE7D4B1B78002B05D1012204217D4800F0CFFD04E0012204216D
:405640007A4800F02FFE764B1B78002B05D101220521774800F0C0FD04E001220521744800F020FE6E4B1B78002B05D101220621704800F0B1FD04E0012206216D4800F08A
:4056800011FE674B1B78002B05D1012207216A4800F0A2FD04E001220721674800F002FE00F04CFA002387F830305D4B1B78002B06D107F130030121184600F065FCB0E139
:4056C00007F130000023FF22012100F07BFCA8E17B681B78012B40F0A381514B1B78002B06D107F130030321184600F04DFC06E007F130000023FF22032100F063FC484BC7
:405700001B78002B06D107F130030221184600F03BFC06E007F130000023FF22022100F051FC97F83030184606F064F803464349184606F0B7F803464149184605F0AAFF09
:4057400003461A46344B9A6497F83130184606F051F803463949184606F0A4F803463849184605F097FF03461A462B4BDA642A4B9B6C3349184606F029FA0346002B03D0F5
:40578000254B4FF000029A64234BDB6C2C49184606F01CFA0346002B03D01F4B4FF00002DA641F4B1B78002B04D10121254800F0EBFB05E00023FF220121224800F002FC71
:4057C000174B1B78002B04D101211F4800F0DCFB05E00023FF2201211B4800F0F3FB104B1B78002B05D10D4A0121184800F0D6F907E0174B0093174B084A0121134800F054
:4058000031FA074B1B78002B28D1044A0121124800F0C4F92AE000BF0881FF1F00FEFF46F086FF1F4881FF1F4981FF1F4A81FF1F4B81FF1F4C81FF1F4D81FF1FCDCCCC3D5B
:40584000000020415881FF1F5981FF1F6881FF1F0001003800FEFFC65C81FF1F744B0093744B754A0121754800F0FCF9744B1B78002B05D1704A0121724800F08FF907E0FE
:405880006B4B00936B4B6C4A01216E4800F0EAF96B4B1B78002B05D1674A01216A4800F07DF907E0624B0093624B634A0121664800F0D8F9624B1B78002B06D107F13003D4
:4058C0000221184600F060FB06E007F130000023FF22022100F076FB594B1B78002B05D101220021594800F077FC04E001220021564800F0D7FC524B1B78002B05D10122A9
:405900000121534800F068FC04E001220121504800F0C8FC4A4B1B78002B05D1012202214C4800F059FC04E001220221494800F0B9FC00F003F9424B1B78002B05D1012209
:405940000021454800F048FC04E001220021424800F0A8FC00F0F2F8394B1B78002B04D101213E4800F010FB05E00023FF2201213A4800F027FB324B1B78002B04D101215A
:40598000374800F001FB05E00023FF220121344800F018FB2A4B1B78002B04D10121314800F0F2FA05E00023FF2201212D4800F009FB234B1B78002B04D101212A4800F0FA
:4059C00065FB06E000234FF6FF720121264800F087FB1B4B1B78002B04D10121234800F055FB06E000234FF6FF7201211F4800F077FB134B1B78002B04D101211C4800F0AF
:405A000045FB0EE000234FF6FF720121184800F067FB06E07B6801221A7102E000BF00E000BF00F099F8034618464037BD4680BD0001003800FEFFC600FEFF465C81FF1FBB
:405A4000F086FF1F6081FF1F6481FF1F7681FF1F7781FF1F7881FF1F7A81FF1F7281FF1F7381FF1F7481FF1F6C81FF1F6E81FF1F7081FF1F80B584B000AF7860154B1B6805
:405A8000002B23D07B689B79002B00D01FE07B685A6E7B681A670023FB600FE00D4B1B6803F22A207B681B6F591C7A6811671B781946FEF715FBFB680133FB607B68B3F88E
:405AC00062301A46FB689A42E8DC00E000BF1037BD4680BDBC86FF1F80B483B000AF786000BF0C37BD4680BC704700BF80B500AF0A4B1B68002B0ED0084B1B689B68002BBD
:405B000009D0064B1B689B68044A1268126810469847034600E00023184680BDBC86FF1F80B483B000AF7860034A7B68136000BF0C37BD4680BC70479087FF1F80B400AF56
:405B4000044B1B680133034A136000BFBD4680BC704700BF9087FF1F80B400AF024B1B681846BD4680BC70479087FF1F80B400AF034B00221A7000BFBD4680BC704700BF29
:405B8000F086FF1F80B400AF034B02221A7000BFBD4680BC704700BFF086FF1FF0B587B000AFF860B9607A6051E0FB681B687968184605F077FE03461E46FB681B6801221E
:405BC00014464FF00001184606F028F80346002B01D100231C46E3B21C46FB681B68012215464FF00001184605F0FAFF0346002B01D100231D46EBB2E31A184605F0FEFD31
:405C000003464FF07C51184605F04CFE03461946304605F03FFD0346184606F01FF80346FB820F4B1B685A1C0D490A60B7F91620121212B2D2B21A70094B1B685A1C08491C
:405C40000A60FA8AD2B21A70FB680433FB60BB685A1EBA60002BA8D100BF1C37BD46F0BD9087FF1F80B586B000AFF860B9607A603B60564B1B78012B40F09E804EE0544B68
:405C80001B681B78DBB21B021BB21A46504B1B6801331B78DBB21343184605F0AFFD03467B614B4B1B680233494A1360396A786905F0F8FD03467B61FB681B6879691846FE
:405CC00005F0E8FC03461A46FB681A60FB681B687968184605F0A2FF0346002B02D0FB687A681A60FB681B683968184605F078FF0346002B02D0FB683A681A60FB681B6889
:405D00001946184605F094FF0346002B03D0FB684FF000021A60FB680433FB60BB685A1EBA60002BABD14CE0294B1B681B78DBB21B021BB21A46264B1B6801331B78DBB293
:405D40001343184605F05AFD03463B61204B1B6802331F4A1360396A386905F0A3FD03463B61FB683A691A60FB681B687968184605F054FF0346002B02D0FB687A681A608F
:405D8000FB681B683968184605F02AFF0346002B02D0FB683A681A60FB681B681946184605F046FF0346002B03D0FB684FF000021A60FB680433FB60BB685A1EBA60002B04
:405DC000B2D100BF1837BD4680BD00BFF086FF1F9087FF1F80B485B000AF7860396018E07B681B88FB81104B1B685A1C0E490A60B7F90E20121212B2D2B21A700A4B1B6806
:405E00005A1C09490A60FA89D2B21A707B6802337B603B685A1E3A60002BE1D100BF1437BD4680BC704700BF9087FF1F80B586B000AFF860B9607A603B60514B1B78012BCB
:405E400040F0948049E04F4B1B681B78DBB21B021AB24C4B1B6801331B78DBB21BB21343FB82484B1B680233464A1360FB68B3F900309AB2FB8A13449BB21AB2FB681A80B6
:405E8000FB68B3F90030184605F0B8FC03467968184605F0C3FE0346002B06D0786805F0DDFE03461AB2FB681A80FB68B3F90030184605F0A3FC03463968184605F090FE56
:405EC0000346002B06D0386805F0C8FE03461AB2FB681A80FB680233FB60BB685A1EBA60002BB0D147E0274B1B681B78DBB21B021AB2244B1B6801331B78DBB21BB2134309
:405F0000BB82204B1B6802331E4A1360FB68BA8A1A80FB68B3F90030184605F06FFC03467968184605F07AFE0346002B06D0786805F094FE03461AB2FB681A80FB68B3F921
:405F40000030184605F05AFC03463968184605F047FE0346002B06D0386805F07FFE03461AB2FB681A80FB680233FB60BB685A1EBA60002BB7D100BF1837BD4680BD00BFF0
:405F8000F086FF1F9087FF1F80B483B000AF786039600AE00A4B1B685A1C09490A607A6812781A707B6801337B603B685A1E3A60002BEFD100BF0C37BD4680BC704700BF5E
:405FC0009087FF1F80B487B000AFF860B96011461A460B46FB711346BB712A4B1B78012B46D122E0284B1B685A1C27490A601B78DBB2FB74FB681B787B6197F913307A693E
:4060000013447B61FA797B699A4201DAFB797B61BA797B699A4201DDBB797B617B69DAB2FB681A70FB680133FB60BB685A1EBA60002BD7D121E0144B1B685A1C12490A60F9
:406040001B78BB74FB68BA7C1A70FB681B78FA799A4202D2FB68FA791A70FB681B78BA799A4202D9FB68BA791A70FB680133FB60BB685A1EBA60002BDDD100BF1C37BD462D
:4060800080BC7047F086FF1F9087FF1F80B483B000AF7860396016E0104B1B685A1C0F490A607A681288120A92B2D2B21A700B4B1B685A1C09490A607A681288D2B21A7012
:4060C0007B6802337B603B685A1E3A60002BE3D100BF0C37BD4680BC704700BF9087FF1F80B487B000AFF860B96011461A460B46FB801346BB80364B1B78012B5ED12DE00F
:40610000344B1B681B78DBB29BB21B029AB2314B1B6801331B78DBB29BB21343FB822D4B1B6802332B4A1360FB681A88FB8A13449AB2FB681A80FB681B88FA889A4202D29A
:40614000FB68FA881A80FB681B88BA889A4202D9FB68BA881A80FB680233FB60BB685A1EBA60002BCCD12EE01A4B1B681B78DBB29BB21B029AB2174B1B6801331B78DBB2ED
:406180009BB21343BB82134B1B680233114A1360FB68BA8A1A80FB681B88FA889A4202D2FB68FA881A80FB681B88BA889A4202D9FB68BA881A80FB680233FB60BB685A1E57
:4061C000BA60002BD0D100BF1C37BD4680BC7047F086FF1F9087FF1F80B485B000AF78600B46FB701346BB702D4B1B681B78BB730023FB73BB78013B072B2BD801A252F8DA
:4062000023F000BF256200002B62000031620000376200003D62000043620000496200004F6200000123FB7315E00323FB7312E00723FB730FE00F23FB730CE01F23FB73DC
:4062400009E03F23FB7306E07F23FB7303E0FF23FB7300E000BFFA7BFB7802FA03F35BB2DB435AB297F90E3013405BB2BB737B681A78FB7B1340DBB21A46FB7802FA03F360
:406280005AB297F90E3013435BB2BB73044B1B68BA7B1A7000BF1437BD4680BC704700BF9087FF1F80B485B000AF78600B46FB701346BB700023FB73BB78013B072B2BD889
:4062C00001A252F823F000BFE9620000EF620000F5620000FB62000001630000076300000D630000136300000123FB7315E00323FB7312E00723FB730FE00F23FB730CE0BB
:406300001F23FB7309E03F23FB7306E07F23FB7303E0FF23FB7300E000BF174B1B78012B15D1164B1B681B78DBB21A46FB7842FA03F35AB297F90F3013405BB2BB737B6890
:406340001A78BB7B5340DAB27B681A700FE00B4B1B681B78DBB21A46FB7842FA03F35AB297F90F3013405BB2DAB27B681A7000BF1437BD4680BC7047F086FF1F9087FF1FDF
:4063800080B582B000AF786074220021786805F0E2FC7B680022DA667B6800229A667B6800221A67002318460837BD4680BD00BF80B584B000AF78607B6803F11C027B682E
:4063C0001A677B6803F11C027B685A667B6800221A717B685B79002B0AD02F4B1B68002B04D02D4B1B687868984704E001234EE0786800F0F3FA7B681A6F7B68DA667B681D
:406400009B7C002B22D07B6803F11C017B68B3F86230053B1A464FF0FF3000F027FCF8600023BB607B68B3F86230053B18337A681344191D07F108030422184605F080FC4B
:40644000BB68FA689A4201D0072320E07868FFF743FB7B681B7C032B16D801A252F823F081640000716400007964000079640000786800F013F809E0786800F057F805E0DA
:40648000786800F0B5F801E0022300E0002318461037BD4680BD00BFC486FF1FB0B588B002AF786000237B6136E07B685A7E1E497B6911F833309A4203D07B685B7E002B07
:4064C00027D107F10C03184600F00CFC7B689B7C7B737B68DB7C3B737B689B7DBB730123FB737B681B7E3B747B69DB000E4A98187B68D9687B689C796B4607F11002126879
:4065000015461D800233120C1A70FB68224600F007FC7B6901337B617B69002BC5DD00BF1837BD46B0BD00BF8887FF1FB0B588B002AF78607B681B7C032B03D17B6805220D
:406540001A7006E07B681B7C022B02D17B6803221A7000237B6141E07B685A7E23497B6911F833309A4203D07B685B7E002B32D11E4A7B69DB0013445B68786898477B688C
:406580005B78002B27D107F10C03184600F0AAFB7B689B7C7B737B68DB7C3B737B689B7DBB730123FB737B681B7E3B747B69DB000E4A98187B68D9687B689C796B4607F1A9
:4065C0001002126815461D800233120C1A70FB68224600F0A5FB7B6901337B617B69002BBADD00BF1837BD46B0BD00BF8887FF1F80B584B000AF78607B6801221A70002338
:40660000FB6009E0084AFB68DB0013445B6878689847FB680133FB60FB68002BF2DD00BF1037BD4680BD00BFF486FF1F80B582B000AF78607B6803F120027B689A667B6814
:406640009A6E7B681A677B685B79002B0AD0094B1B68002B04D0074B1B687868984704E0012303E0786800F0F5F8002318460837BD4680BDC086FF1F80B586B000AF78608A
:406680000023FB757B681B79012B01D10823DDE07B681B6F1A467B689B6ED31A9AB27B681A817B685B79002B03D17B681B89642B07D97B6803F11C027B685A660123FB75A2
:4066C00004E07B6803F11D027B685A667B681B6F1A467B685B6ED31A9AB27B68A3F862207B689B7C002B29D07B68B3F8623003F00303C3F104033B617B681B6F3A690021AC
:40670000184605F028FB7B681A6F3B691A447B681A677B68B3F862203B699BB213449AB27B68A3F862207B681B6F1A467B689B6ED31A9BB204339AB27B681A817B685B79C2
:40674000002B12D07B6851221A777B6842225A777B681B891B0A9BB2DAB27B689A777B681B89DAB27B68DA772AE0FB7D002B19D07B6851221A777B6858225A777B681B891B
:406780005BB263F07F035BB2DAB27B689A777B681B89DB099BB2DBB203F07F03DAB27B68DA770DE07B6851225A777B6858229A777B681B89DBB203F07F03DAB27B68DA7725
:4067C0007B689B7C002B22D07B68596E7B68B3F862301A464FF0FF3000F048FA0346BB607B681B6F07F108010422184605F0A8FA7B681B6F1A1D7B681A677B681B6F1A46F6
:406800007B685B6ED31A9AB27B68A3F862207B689A6E7B681B891946104600F069F90346FB737B681B6F591C7A681167FA7BD243D2B21A707B68B3F8623001339AB27B68EC
:40684000A3F862207868FFF715F9002318461837BD4680BD80B584B000AF78607B689A6E7B681A677B6803F170027B68DB681946104600F05BF97B6800225A747B689B7C93
:40688000002B02D07B6801225A740023FB737B681B7C5BB203F00F035AB2FB7BDBB25BB213435BB2DBB2FB737B68DB7C1B015BB203F010035AB2FB7BDBB25BB213435BB288
:4068C000DBB2FB737B68DB7D5B015BB203F020035AB2FB7BDBB25BB213435BB2DBB2FB737B689B7D9B015BB203F040035AB2FB7BDBB25BB213435BB2DBB2FB737B685B7C5B
:40690000DB015AB2FB7BDBB25BB213435BB2DBB2FB737B681B6F591C7A681167FA7BD2B21A707B685B7C002B16D00023FB737B689B7C5BB203F001035AB2FB7BDBB25BB2CC
:4069400013435BB2DBB2FB737B681B6F591C7A681167FA7BD2B21A707B689B7D002B12D17B6803F170027B681B7E1946104600F0DDF87B6803F170027B685B7E19461046F8
:4069800000F0D4F805E07B6800221A767B6800225A767B68DB7D002B12D17B6803F170027B689B7E1946104600F0C0F87B6803F170027B68DB7E1946104600F0B7F805E023
:4069C0007B6800229A767B680022DA767B681A6F7B68DA6600BF1037BD4680BD80B584B000AF78607B689A6E7B681A677B687033184600F0DFF802467B68DA607B681B6F9C
:406A0000591C7A6811671B78FB73FB7BDBB203F00F03DAB27B681A74FB7BDBB21B09DBB203F00103DAB27B68DA74FB7BDBB25B09DBB203F00103DAB27B68DA75FB7BDBB26D
:406A40009B09DBB203F00103DAB27B689A75FB7BDBB2DB09DAB27B685A747B685B7C002B0DD07B681B6F591C7A6811671B78FB73FB7BDBB203F00103DAB27B689A747B68F3
:406A80009B7D002B11D17B687033184600F092F80346DAB27B681A767B687033184600F089F80346DAB27B685A767B68DB7D002B11D17B687033184600F07CF80346DAB2C9
:406AC0007B689A767B687033184600F073F80346DAB27B68DA767B68DB7C002B04D07B681B6F9A1C7B681A6700BF1037BD4680BD80B485B000AF786039600023FB7200231A
:406B0000FB6009E07B685A1C7A601A78FB7A1344FB72FB680133FB60FA683B689A42F1D3FB7A18461437BD4680BC704780B485B000AF786039600023FB6033E0FA68134693
:406B4000DB009B1A3A6822FA03F3DBB203F07F03FB72FB685A1C1346DB009B1A3A6822FA03F3DBB203F07F03BB72BB7A002B0CD07B681B68FA7A62F07F02D2B21A707B68E3
:406B80001B685A1C7B681A6009E07B681B68FA7A1A707B681B685A1C7B681A6005E0FB680133FB60FB68032BC8DD00BF1437BD4680BC704780B485B000AF78600023FB607E
:406BC0000023BB6022E07B681B681B7803F07F01BA681346DB009B1A01FA03F3FA681343FB607B681B681B785BB2002B05DA7B681B685A1C7B681A6005E07B681B685A1CD0
:406C00007B681A6005E0BB680133BB60BB68032BD9DDFB6818461437BD4680BC704700BF80B485B000AF0346FB71FB791B06BB600023FB730EE0BB68002B05DABB685A0032
:406C4000094B5340BB6002E0BB685B00BB60FB7B0133FB73FB7B072BEDD9BB6818461437BD4680BC704700BFB71DC10480B586B000AFF860B9607A60FB683B6100237B6194
:406C800015E03B691B0E5AB2B9687B690B441B785BB253405BB2DBB21846FFF7C1FF02463B691B0253403B617B6901337B617A697B689A42E5D33B6918461837BD4680BDBA
:406CC00080B485B000AFF8600B467A60FB72FB687A685A60FB68FA7A1A7000BF1437BD4680BC704780B483B000AF78607B6800229A707B680022DA707B6800229A717B68ED
:406D000000221A717B6800225A717B6800221A707B6800225A7000BF0C37BD4680BC704782B080B5A2B000AFF860B960C7F894301346FB7107F114031846FFF721FBFB796C
:406D4000BB76BB683B62002387F8243097F8983087F82D3097F8993087F82E3097F89A3087F82F30FB681B7887F82C3097F8943087F8273097F8953087F8263007F114035B
:406D80001846FFF753FC00233B75FB685B6807F11402104698470346C7F8843007F114031846FFF769FC034618468837BD46BDE8804002B0704700BF82B080B5A2B000AF12
:406DC000F860B960C7F894301346FB7107F114031846FFF7D5FAFB79BB76BB683B62012387F8243097F8983087F82D30002387F82E3097F89A3087F82F30FB681B7887F86D
:406E00002C3097F8943087F8273097F8953087F8263007F114031846FFF708FC07F114031846FFF729FC034618468837BD46BDE8804002B0704700BF82B080B5A2B000AF57
:406E4000F860B960C7F894301346FB7107F114031846FFF795FAFB79BB76BB683B62022387F8243097F8983087F82D3097F8993087F82E3097F89A3087F82F30FB681B7875
:406E800087F82C3097F8943087F8273097F8953087F8263007F114031846FFF7C7FB02233B75FB685B6807F11402104698470346C7F8843007F114031846FFF7DDFB034602
:406EC00018468837BD46BDE8804002B0704700BF90B585B000AF03460A46FB711346BB71FB79B94A8C2101FB03F313441B78072B00F2578301A252F823F000BF1D6F0000E9
:406F00009B6F0000497000004771000051720000C5720000A173000079740000BB79512B2AD1FB79A84A8C2101FB03F31344023301221A80FB79A44A8C2101FB03F313448A
:406F40002033BA791A70FB79FA798C2101FB02F219329D490A4408329B498C2000FB03F30B4474331A60FB79974A8C2101FB03F3134401221A7014E3FB7993498C2202FBE9
:406F800003F20A448432126801328F498C2000FB03F30B4484331A6003E3FA798A498C2303FB02F30B4474331B68591C86488C2404FB02F2024474321160BA791A70FB797B
:406FC00081498C2202FB03F20A4402321288013290B27D4A8C2101FB03F31344023302461A80BB79582B11D1FB79774A8C2101FB03F31344093300221A70FB79724A8C2139
:4070000001FB03F3134402221A70CAE2BB79422B11D1FB796C4A8C2101FB03F31344093301221A70FB79684A8C2101FB03F3134404221A70B5E2FB79634A8C2101FB03F3FE
:40704000134400221A70ACE2FA795F498C2303FB02F30B4474331B68591C5B488C2404FB02F2024474321160BA791A70FB7956498C2202FB03F20A4402321288013290B230
:40708000514A8C2101FB03F31344023302461A8097F90630002B16DAFB79BA7992B222F0800290B2484A8C2101FB03F313440C3302461A80FB79444A8C2101FB03F31344E5
:4070C00003221A7066E2FB79BA7990B23E4A8C2101FB03F313440C3302461A80FB79FA7939498C2000FB02F20A447432126836498C2000FB03F30B446C331A60FB79324A2B
:407100008C2101FB03F31344063300221A70FB792D4A8C2101FB03F3134406221A70FB79294A8C2101FB03F313440C331B88402B40F23082FB79244A8C2101FB03F31344FB
:4071400000221A7026E2FA791F498C2303FB02F30B4474331B68591C1B488C2404FB02F2024474321160BA791A70FB7916498C2202FB03F20A4402321288013290B2124A70
:407180008C2101FB03F31344023302461A80FB79FA790D498C2000FB02F20A447432126809498C2000FB03F30B446C331A6097F90630002B0ADAFB79034A8C2101FB03F3F0
:4071C000134400221A702FE0FC86FF1FFA79FB79A8498C2000FB03F30B440C331B8819B2BB79DB011BB223F4804323F07F031BB20B431BB298B29F498C2303FB02F30B4415
:407200000C3302461A80FB799A4A8C2101FB03F31344063300221A70FB79964A8C2101FB03F3134406221A70FB79924A8C2101FB03F313440C331B88402B40F2AD81FB7997
