:4000000000800020110000000D5900000D59000080B500AF024A034B1B68136005F0A8FCBC760040FA46004010B5054C237833B9044B13B10448AFF300800123237010BDA2
:400040000082FF1F00000000C0AB0000084B10B51BB108490848AFF300800848036803B910BD074B002BFBD0BDE81040184700BF000000000482FF1FC0AB0000C880FF1FBA
:400080000000000080B582B000AF78600B46FB70FB78184606F070F900BF0837BD4680BD80B483B000AF7860034B1B6818460C37BD4680BC704700BF9C85FF1F80B582B06D
:4000C00000AF114B1B78FB71FB7903F01E03002B04D0FB7919460D4802F07EF8FB7903F02003002B06D00A4B1B78DBB21946074802F054F8FB7903F02003002BE1D100BFCD
:400100000837BD4680BD00BF686500401C82FF1F4F64004080B500AF044B1B680133034A136006F049FA00BF80BD00BF9C85FF1F80B582B000AF104B1B78FB71FB7903F011
:400140001E03002B03D0FB79184601F08BFEFB7903F02003002B05D0084B1B78DBB2184601F0F6FDFB7903F02003002BE3D100BF0837BD4680BD00BF6D6400404E6400406C
:4001800080B584B000AFF860B9607A603B604FF00001F86808F02CFC0346002B01D02D2200E020223B681A704FF00001F86808F01FFC0346002B03D0FB6883F00043FB6030
:4001C000F86808F053FC03461AB2BB681A80BB68B3F90030184608F019FA03461946F86808F05EF903460F49184608F063FA0346184608F03BFC03461AB27B681A807B6828
:40020000B3F90030002B08DA7B68B3F900309BB25B429BB21AB27B681A8000BF1037BD4680BD00BF0000C84280B483B000AF0346FB71FB79012B02D0022B02D003E0054B18
:4002400002E0054B00E0054B18460C37BD4680BC704700BFB8AC0000C0AC0000C8AC0000F0B5DBB008AF07F12C03184600F042FE07F1880314220021184608F074FC002323
:4002800087F847311BE097F8472107F11C03002123F8121097F8473107F11C025B001344FF229A8097F8472107F11C030432802123F8121097F84731013387F8473197F8F3
:4002C0004731012BDFD907F11C0300221A7362B606F008FF8F4806F0A3FF06F029FE06F089FE06F0C3FE01F0CFFC8B4806F0D4FF8A4806F095FF05F0BDFF06F01BF806F0A3
:4003000055F88749874801F01BFF07F12C03854A1A60854806F06CF8844806F081FF00F0A5FD07F12C031B6C184600F029FD0346002B13D17E4806F073FF07F12C031A6C06
:4003400007F11C031146184600F0EEFB07F12C0393F83C30184600F0A3F902E0754806F05FFF00F0FFF8744806F05AFF06F002F9724806F04FF9724806F052FF07F12C03DA
:40038000184600F0A7FE6F4B1B68C7F8403106F00BFF034687F83F3197F83F31002B12D000F070FC0346002B05D097F83F31184600F030FC07E097F83F2107F12C03114627
:4003C000184601F02FF9574801F01EFF07F11803184600F02FF90346002B0AD007F11803184600F0F3FB07F12C033433184600F053FC07F12C03184601F0E6FB07F12C030A
:40040000184600F005FF07F12C035B6AD7F84021D31A632B12D907F12C03D7F840215A6207F1880207F12C031146184601F0CCF907F1880319463B4802F024F807F12C0327
:4004400093F83030002B9ED007F12C039B6AD7F84021D31AB3F57A7F95D307F12C03D7F840219A6207F12C03586B07F10F0307F1140207F11601FFF783FE07F12C03986BA1
:4004800007F10E0307F1100207F11201FFF778FE07F12C031B79184600F064FE044607F12C035B7B1846FFF7BFFE024607F10F031B78194607F11603B3F900301D4607F163
:4004C0001403B3F900301E4607F10E031B787B6007F11203B3F900303B6007F11003B3F9003007F19C0007933B6806937B68059304960395029101920094D7F84031124A56
:40050000A02108F0A9FF07F19C03184606F088FE39E700BFE8AC00003101000010AD0000C8AB00001C82FF1FBD00000028AD000044AD00006CAD000090AD00001501000069
:40054000B0AD00009C85FF1FD0AD000080B500AF05F084FE024B01221A7000BF80BD00BFA085FF1F80B582B000AF62B605F0CEFB05F0F0FD114805F023FE114B00221A70CA
:40058000104B00221A70104B00221A700023FB7107E0FB790D4A002122F81310FB790133FB71FB79012BF4D9002005F0EDFD05F0C5FB00BF0837BD4680BD00BF4D0500000A
:4005C000A285FF1FA085FF1FA185FF1FA485FF1F98B500AF05F0C2FB134B1B78DBB21C4605F0CCFB03461A46104B23F814200E4B1B78DBB2012B06D10D4B01221A700A4B75
:4006000000221A7006E0084B1B78DBB20133DAB2054B1A70044B1B78DBB2184605F0B4FD05F08CFB00BF98BDA285FF1FA485FF1FA185FF1F80B584B000AF7860154B1B7865
:40064000DBB2002B04D0134B00221A70FFF7C0FF114B1B78DBB2002B17D00F4B00221A700023FB730CE0FB7B5B007A681344FA7B0A4931F8122012B21A80FB7B0133FB737B
:40068000FB7B012BEFD9012300E0002318461037BD4680BDA085FF1FA185FF1FA485FF1F80B483B000AF0346FB71FB79012B08D0022B0BD0002B00D00DE0094B094A1A60A2
:4006C00009E0074B4FF07C521A6004E0044B4FF07E521A6000BF00BF0C37BD4680BC7047CC80FF1FCDCCCC3D90B585B000AF0446084611461A462346FB800346BB800B4688
:400700007B8013463B80B7F90620B7F904309A4201DABB88FB80B7F90620B7F900309A4201DD3B88FB803A887B88D31A9BB2FB817A88BB88D31A9BB2BB81B7F90E30002B7E
:4007400001DC0123FB81B7F90C30002B01DC0123BB81B7F90620B7F902309A4214DBB7F90620B7F90230D31A184607F04FFF0446B7F90E30184607F049FF034619462046FA
:4007800008F04CF8034613E0B7F90620B7F90230D31A184607F03AFF0446B7F90C30184607F034FF03461946204608F037F8034618461437BD4690BD90B583B000AF78605A
:4007C00039603B6883F000437968184608F010F90346002B09D03968786808F009F90346002B02D04FF000032AE04FF00001786808F01CF90346002B11D03968786807F073
:400800004FFE03461C4639684FF07E5007F048FE03461946204608F001F8034610E03968786807F03FFE03461C4639684FF07E5007F036FE03461946204607F0EFFF034628
:4008400018460C37BD4690BD80B485B000AF78600023FB7338E0FB7B7A685B001344B3F904309AB2F97B7B6833F911309BB2D31A9BB2BB81FA7B7B6833F91220F97B7B6824
:40088000043133F911309A420EDAFA7B7B68043233F91220FB7B79685B000B44B3F904309A4201DA012300E00023FB72B7F90C30132B01DC00230BE0FB7A002B01D1002310
:4008C00006E0FB7B0133FB73FB7B012BC3D9012318461437BD4680BC704700BF90B484B000AF78601B4A1C4B14460FCB07C423800023FB7323E0FB7BFA7B520079680A44CD
:40090000B2F90010134A22F81310FB7BFA7B520079680A44B2F900100E4A5B0013440A469A80FB7BFA7B520079680A44B2F90010084A043322F81310FB7B0133FB73FB7B4C
:40094000012BD8D9054B01221A7000BF1037BD4690BC7047C885FF1FB885FF1FD685FF1F80B485B000AF7860214B1B78012B39D10023FB7332E0FB7B5B007A681344B3F9D4
:400980000020FB7B1B4931F913309A4209DAFB7BFA7B520079680A44B2F90010154A22F81310FB7B5B007A681344B3F90020FB7B10495B000B44B3F904309A420BDDFB7BE5
:4009C000FA7B520079680A44B2F90010094A5B0013440A469A80FB7B0133FB73FB7B012BC9D900E000BF1437BD4680BC704700BFD685FF1FC885FF1F80B483B000AF0023BF
:400A0000FB7107E0FB790A4A002142F82310FB790133FB71FB79012BF4D9064B00221A80054B02221A7000BF0C37BD4680BC7047E085FF1FE885FF1FD685FF1F80B485B099
:400A400000AF7860234B1B78022B3DD10023FB7311E0FB7BFA7B204951F82220F97B490078680144B1F900100A441B4941F82320FB7B0133FB73FB7B012BEAD9174B1B8806
:400A800001339AB2154B1A80144B1B881F2B1CD90023BB7311E0BA7BBB7B0F4951F82330002B00DA1F335B1118B20D49131D024621F81320BB7B0133BB73BB7B012BEAD976
:400AC000044B03221A7000E000BF1437BD4680BC704700BFD685FF1FE085FF1FE885FF1FC885FF1F98B500AF0B48FFF7ADFE0346002B03D10948FFF7F1FE0BE0084A064B6B
:400B000014460FCB07C42380054B01221A73054B00221A7098BD00BFC885FF1FD885FF1FB885FF1FD685FF1F90B484B000AF786039601F4B7A68144620686168A26807C3E6
:400B4000A2891A801B4B7A68144620686168A26807C3A2891A80174B00221A73164B7A68144620686168A26807C3A2891A80134A3B6813600023FB730BE0FB7BF97B7A68D1
:400B8000043132F911100E4A22F81310FB7B0133FB73FB7B012BF0D90A4B00221A700A4B00221A8000BF1037BD4690BC704700BFA885FF1FB885FF1FC885FF1FDC85FF1F2F
:400BC000D885FF1FD685FF1FE885FF1F80B584B000AF78600023FB730CE0FB7BFA7B520079680A44B2F90010094A22F81310FB7B0133FB73FB7B012BEFD97868FFF7B0FE4C
:400C00007868FFF71BFF00BF1037BD4680BD00BFD885FF1F80B582B000AF0346FB71FB79782B02D0FB79582B03D1144B00221A7020E0FB79632B02D0FB79432B19D10F4BC0
:400C40001B78002B03D10E48FFF748FE12E00B4B1B78012B02D1FFF7CFFE0BE0074B1B78022B07D0054B1B78032B03D1FFF73AFF00E000BF0837BD4680BD00BFD685FF1F75
:400C8000D885FF1F80B400AF024B1B781846BD4680BC7047D685FF1F90B587B000AF7860304B7B613048FFF7CFFD0346002B01D02D4B7B610023FB744CE0FB7C2B4A32F927
:400CC0001300FA7C7B6933F91210FA7C7B69043233F91240FB7C7A695B001344B3F904302246FFF701FDF8602149F868FFF764FDF860204B1A68FB7C22FA03F303F00103A5
:400D0000002B03D0FB6883F00043FB601A4B1B681946F86807F0CEFC0346FB604FF07E51F86807F083FE0346002B02D04FF07E53FB601249F86807F05BFE0346002B01D04E
:400D40000E4BFB60FA7C7B68F96843F82210FB7C0133FB74FB7C012BAFD900BF1C37BD4690BD00BFA885FF1FB885FF1FD885FF1FCDCC4C3DDC85FF1FCC80FF1F000080BFC7
:400D800080B586B000AF786007F108030E221946012000F071F80346002B01D1002310E007F108031846FFF74FFD0346002B01D1002306E007F1080379681846FFF7B4FE00
:400DC000012318461837BD4680BD00BF80B483B000AF0346FB71FB79012B02D0022B02D003E0002302E0012300E0FF2318460C37BD4680BC704700BF80B485B000AF034622
:400E00000A46FB711346BB71FB799BB21B019AB2BB799BB21344FB81FB8903F1804303F500431B78DBB218461437BD4680BC704780B584B000AF03463960FB711346BB71D4
:400E4000FB799BB21B019BB20233FB81FB8903F1804303F500431946BB791A46386807F077FE00BF1037BD4680BD00BF80B500AF05F026FC00BF80BD80B584B000AF0346C5
:400E80003960FB711346BB713B68002B02D0BB79002B01D1002328E0FB791846FFF796FF0346FB73FB7BFF2B01D100231DE0FB7B00211846FFF7A0FF0346A52B01D000236F
:400EC00013E0FB7B01211846FFF796FF0346BB73BA7BBB799A4201D0002306E0BA79FB7B39681846FFF7A4FF012318461037BD4680BD00BF80B582B000AF78605C22002152
:400F0000786807F030FE7B6805221A717B6805225A717B6800225A737B68012283F83C207B68012283F8302000BF0837BD4680BD80B485B000AF0346FB710023FB7306E040
:400F4000FB79074AD35CFB71FB7B0133FB73FB79002BF5D1FB7B18461437BD4680BC704708AE000080B584B000AF03460A46FB711346BB71FB791846FFF7DAFF0346FB73CF
:400F8000BB791846FFF7D4FF0346BB7306E0FB79134AD35CFB71FB7B013BFB73FA7BBB7B9A42F4D806E0BB790D4AD35CBB71BB7B013BBB73BA7BFB7B9A42F4D807E0FB7980
:400FC000074AD35CFB71BB79054AD35CBB71FA79BB799A42F3D1FB7918461037BD4680BD08AE000080B586B000AF78600B46FB707B681B793B75FA783B7D9A425DD0FA7857
:401000003B7D11461846FFF7ADFF0346FB743B7DFB750FE0FB7D2B4A52F82330002B05D0FB7D284A52F8233078689847FB7D264AD35CFB75FA7DFB7C9A42EBD17B683A7D5B
:401040005A710023BB75FB787B750CE0BB7D5A1CBA7507F1180213447A7D03F80C2C7B7D194AD35C7B757A7DFB7C9A42EED117E0BB7D07F11802134413F80C3C1A46134B67
:4010800053F82230002B0BD0BB7D07F11802134413F80C3C1A460D4B53F8223078689847BB7D5A1EBA75002BE2D17B68FA781A71074B1A687B68DA6200E000BF1837BD4604
:4010C00080BD00BF58AE000008AE000018AE00009C85FF1F80B584B000AF78607B681B79FB737B6800221A71FB7B19467868FFF779FF00BF1037BD4680BD00BF80B584B03D
:4011000000AFF8600B467A60FB72FB7A002B09D1124806F085F8786806F082F8104806F07FF818E0FB681B7B002B02D0FB7A032B10D1FB68FA7A9A71FB687A689A60FB7AAC
:40114000032B02D1FB6801221A730F21F868FFF749FF00E000BF1037BD4680BD18AF000020AF000080B483B000AF0346FB71FB79034A52F8233018460C37BD4680BC704711
:40118000E8AF000080B582B000AF7860034806F047F800BF0837BD4680BD00BF28B0000080B582B000AF7860034806F039F800BF0837BD4680BD00BF64B0000080B582B07D
:4011C00000AF78607B6801225A73034806F028F800BF0837BD4680BD84B0000080B483B000AF78607B6800225A7300BF0C37BD4680BC704780B582B000AF7860034806F0DB
:401200000FF800BF0837BD4680BD00BFD0B000002DE9F041AEB006AFF860FB681B790C2B40F0858007F19003184600F033FE0346002B29D0B7F990309846B7F992301D467B
:40124000B7F894301E46B7F89630BB60D7E926341C4600F047FE03467B6000F04DFE034607F1100005937A6804920394BB680293019600954346324A602108F0EDF807F1C0
:401280001003184605F0CCFF2E4B1A682E4B1B68D31AB3F57A7F4BD32A4B1B682A4A136040F2D243A7F87E304FF6C953A7F87C300A23A7F87A301423A7F878301EA4D4E9C8
:4012C0000034C7E91C3407F17E0107F180030222184607F03DFC07F18003023307F17C010222184607F034FC07F18003043307F17A010222184607F02BFC07F180030633CF
:4013000007F178010222184607F022FC07F18003083307F170010822184607F019FC07F1800310221946A52000F0F0FD00E000BFA037BD46BDE8F081080706050403020191
:401340000CB100009C85FF1FEC85FF1F80B483B000AF0346FB71FB79022B05D0032B05D0012B05D1054B04E0054B02E0054B00E0054B18460C37BD4680BC704748B1000026
:4013800050B100005CB1000064B1000080B582B000AF7860184805F043FF7B689B791846FFF7D4FF0346184605F03AFF134805F037FF7B689B68002B02D07B689B6800E063
:4013C0000F4B184605F02CFF7B689B79032B0CD17B681B68002B08D07B681B68184601F08FF8084805F01CFF02E0074805F018FF00BF0837BD4680BD6CB1000078B100004D
:401400007CB1000088B10000BCB1000080B5C0B000AFF860B9607A60FB681B68002B01D1002318E0FB681B6807F114021146184601F084F83B7D83F00103DBB2002B01D06E
:40144000002308E007F1100307F114007A68B96801F0E0F80346184607F58077BD4680BD80B584B000AF78607B681B68002B05D1134A00217868FFF741FE1DE007F10802BB
:4014800007F10C0319467868FFF7C0FF0346002B05D10C4A00217868FFF730FE0CE0FA687B689A61BA687B68DA617B68012283F82020054805F0B4FE1037BD4680BD00BF05
:4014C000D8B10000ECB100000CB2000080B582B000AF7860034805F0A3FE00BF0837BD4680BD00BF24B2000080B582B000AF78600B46FB70FB783F2B33D03F2B02DC122B57
:4015000005D033E05B2B27D0782B16D02EE07B681B7B002B0FD07B6800221A737B6800229A717B6800229A60134805F079FE06217868FFF757FD012319E07B681B68002BC5
:4015400004D07B681B68184600F0DAFF06217868FFF748FD01230AE07868FFF781FF012305E07868FFF7B2FF012300E0002318460837BD4680BD00BFACB2000080B483B04C
:4015800000AF0346FB71FB79072B0CBF01230023DBB218460C37BD4680BC704780B582B000AF78600B46FB70FB78322B09D0332B0DD0312B11D106217868FFF713FD0123EE
:4015C0000CE007217868FFF70DFD012306E00C217868FFF707FD012300E0002318460837BD4680BD80B584B000AF78600B46FB707B689B79032B0FD07B685B790F2B02D06F
:401600007B685B7900E00623FB73FB7B19467868FFF7E8FC012300E0002318461037BD4680BD00BF80B584B000AF78600B46FB707B681B790F2B01D900233DE07B681B7B32
:40164000002B0BD0FB78122B06D1FB7819467868FFF74AFF03462FE000232DE0FB7819467868FFF741FF0346002B01D0012323E07B681B791A46124B53F82230FB60FB6881
:40168000002B09D0FA78FB681146786898470346002B01D001230FE07B681B791846FFF76DFF0346002B06D1FB7819467868FFF775FF034600E0002318461037BD4680BD14
:4016C00098AE000080B582B000AF7860396014220021386807F047FA00BF0837BD4680BD80B582B000AF7860396039687868FFF7E9FF00BF0837BD4680BD00BF80B582B066
:4017000000AF786039603B680122DA733B6800229A733B684FF000029A603B6800221A747B6893F84430002B22D03B6802225A733B685A7B3B681A737B685A6D7B68DB6C64
:401740001946104606F0ACFE03461449184607F065F803461A463B681A607B689B6D0F49184607F05BF803461A463B685A6010E03B6801225A733B685A7B3B681A737B68F7
:401780005A6B3B681A607B689B6B83F000423B685A6000BF0837BD4680BD00BF0000344380B582B000AF7860396039687868FFF789FF7B689B79032B02D13B6801221A7406
:4017C00000BF0837BD4680BD80B584B000AF786039607B681B791A46094B53F82230FB60FB68002B04D0FB6839687868984703E039687868FFF766FF00BF1037BD4680BDD5
:40180000D8AE000090B587B000AFF860B9607A60FB6893F84430002B23D107F1100207F114031946F868FFF7F1FD0346002B05D1574A0021F868FFF761FCA6E0554805F098
:40184000EFFC7A69FB68DA643A69FB681A657A69FB685A653A69FB689A65FB68012283F84420FB685B6DB968184606F01BFE03461C46FB689B694849184606F011FE0346FD
:401880001946204607F0B4F80346002B08D0FB689B694149184606F003FE03461A4626E0FB685B6DB968184606F0FCFD03461C46FB689B693849184606F0F4FD0346194666
:4018C000204607F0B3F80346002B08D0FB689B693149184606F0E6FD03461A4607E0FB685B6DB968184606F0DDFD03461A46FB685A65FB689B6D7968184606F0D3FD0346EE
:401900001C46FB68DB692549184606F0C9FD03461946204607F06CF80346002B08D0FB68DB691E49184606F0BBFD03461A4626E0FB689B6D7968184606F0B4FD03461C469C
:40194000FB68DB691549184606F0ACFD03461946204607F06BF80346002B08D0FB68DB690E49184606F09EFD03461A4607E0FB689B6D7968184606F095FD03461A46FB68F6
:401980009A65074B1A68FB689A641C37BD4690BDC0B20000E0B200000000F0410000A0419C85FF1F80B582B000AF78600B46FB70FB78323B452B00F2FB8001A252F823F094
:4019C000E91A0000B11B0000F91A0000B11B0000091B0000B11B0000D91A0000B11B0000B11B0000B11B0000B11B0000B11B0000B11B0000B11B0000B11B0000B11B00002A
:401A0000B11B0000B11B0000B11B0000B11B0000B11B0000B11B0000B11B0000B11B0000B11B0000B11B0000B11B0000B11B0000B11B0000B11B0000B11B0000B11B0000E6
:401A4000B11B0000B11B0000B11B0000B11B0000B11B0000B11B0000B11B0000B11B0000B11B0000B11B0000B11B0000B11B0000B11B0000B11B0000B11B0000831B0000D4
:401A8000B11B0000B11B0000931B0000A51B0000B11B0000B11B0000B11B0000191B00003D1B00002B1B00004F1B0000B11B0000B11B0000B11B0000B11B0000B11B000084
:401AC000B11B0000731B0000B11B0000B11B0000B11B0000611B0000384A4FF000017868FFF790FE012364E0354A4FF000017868FFF788FE01235CE04FF000023049786809
:401B0000FFF780FE012354E04FF000022B497868FFF778FE01234CE04FF07C524FF000017868FFF76FFE012343E04FF03F424FF000017868FFF766FE01233AE04FF00002F8
:401B40004FF03F417868FFF75DFE012331E04FF000024FF07C517868FFF754FE012328E04FF07E524FF000017868FFF74BFE01231FE0144A4FF000017868FFF743FE012335
:401B800017E04FF000020F497868FFF73BFE01230FE04FF000024FF07E517868FFF732FE012306E006217868FFF71CFA012300E0002318460837BD4680BD00BF6801B43BE6
:401BC0006801B4BB000080BF80B586B000AF78607B681B79072B4CD17B6893F84430002B47D0274B1A687B689B6CD31A3B613B69952B40D90023FB7507F1080207F10C0372
:401C000019467868FFF702FC0346002B25D0FA687B685B6D1946104606F042FC034623F000431849184606F0E3FE0346002B12D0BA687B689B6D1946104606F031FC034659
:401C400023F000430F49184606F0D2FE0346002B01D0012300E00023FB75FB7D002B03D13B69B3F5FA6F07D37B68002283F8442002E000BF00E000BF1837BD4680BD00BF3E
:401C80009C85FF1FCDCC4C3D80B400AF0A4B00221A700A4B00221A70094B00221A70094B00221A60084B00221A80084B00221A8000BFBD4680BC7047F085FF1FF285FF1FF3
:401CC0004886FF1F4C86FF1F5086FF1F5286FF1F80B582B000AF786002227968144806F037FF7B68023302221946124806F030FF7B680433022219460F4806F029FF7B6894
:401D00000633022219460D4806F022FF7B680833082219460A4806F01BFF0A4B01221A70094B1B68094A136000BF0837BD4680BD3886FF1F3A86FF1F3C86FF1F3E86FF1F19
:401D40004086FF1F4886FF1F9C85FF1F4C86FF1F80B584B000AF0346FB713C4B1B78032B6FD801A252F823F0791D0000871D0000B31D0000DB1D0000FB79A52B5ED1334B15
:401D800001221A705AE0324AFB791370304B1B78002B03D02E4B1B78402B03D92B4B00221A704EE02B4B00221A70284B02221A7047E0284B1B785A1CD1B2264A1170194661
:401DC000254AFB795354234B1A78214B1B789A4236D31E4B03221A7032E01D4B1B781A461E4B9B5CFB730023BB730CE0BB7B1A4AD25CFB7B5340DBB21A46184B9B5CFB735F
:401E0000BB7B0133BB73124B1B78BA7B9A42EDD3FA7BFB799A4207D10D4B1B78102B09D10D48FFF755FF05E00D4B1B8801339AB20B4B1A80054B00221A7002E000BF00E040
:401E400000BF00BF1037BD4680BD00BFF085FF1FF185FF1FF285FF1FF485FF1FECB200005086FF1F80B483B000AF0346FB71074B1B8801339AB2054B1A80054B00221A7093
:401E800000BF0C37BD4680BC704700BF5286FF1FF085FF1F90B585B000AF78600023FB7305F069FA0346BB730C4B1B78DBB2002B0BD07B680A4A1C4613460FCB84E80F00BD
:401EC000064B00221A700123FB73BB7B184605F056FAFB7B18461437BD4690BD4886FF1F3886FF1F80B400AF024B1B881846BD4680BC70475086FF1F80B400AF024B1B8855
:401F00001846BD4680BC70475286FF1F80B584B000AF03463960FB711346BB71FB79184605F08AF8BB79184605F086F8BB79134AD35CFB730023BB7314E0BB7B3A6813447C
:401F40001B78184605F078F8BB7B3A6813441A78FB7B5340DBB21A46084B9B5CFB73BB7B0133BB73BA7BBB799A42E6D3FB7B184605F062F800BF1037BD4680BDECB20000FF
:401F800080B483B000AF0346FB80FB880133FB80FB88FF2B01D90023FB80FB8818460C37BD4680BC704700BF80B483B000AF78607B680022A3F800217B680022A3F80221A5
:401FC0007B680022A3F8042100BF0C37BD4680BC704700BF80B584B000AF78600B46FB707B68B3F800319BB21846FFF7C9FF0346FB817B68B3F802319BB2FA899A420AD184
:402000007B68B3F804319BB201339AB27B68A3F8042100230CE07B68B3F800319BB219467B68FA785A547B68FA89A3F80021012318461037BD4680BD80B582B000AF7860D7
:4020400039607B68B3F800319AB27B68B3F802319BB29A4201D1002316E07B68B3F802319BB21A467B689B5CDAB23B681A707B68B3F802319BB21846FFF782FF03461A465A
:402080007B68A3F80221012318460837BD4680BD80B483B000AF78607B681B680F4A13617B685B680D4A93617B689B680B4A13627B681A7B094B1A757B685A7B074B1A77C6
:4020C0007B689A7B054B83F824207B681A7C034B1A7300BF0C37BD4680BC7047D080FF1F80B582B000AF78607A680021002000F07BFB00BF0837BD4680BD00BF80B584B042
:4021000000AF78600023FB6009E07B685B687A681268F97A10469847FB680133FB607B6803F22A2307F10B0211461846FFF784FF0346002BE9D1FB6818461037BD4680BD47
:4021400080B582B000AF786039604FF460720021786806F008FD7B683A6807CA83E807007B68022283F830237B6803F592731846FFF71AFF7B6803F22A231846FFF714FF51
:40218000044A7B681360044B1B68984700BF0837BD4680BD5486FF1FD080FF1F80B582B000AF78600B46FB707B68002B0FD07B6803F59273FA7811461846FFF70BFF7B68A5
:4021C000B3F828329AB27B68A3F8202100E000BF0837BD4680BD00BF80B483B000AF78600B46FB707B68002B09D07B6893F82221FB781343DAB27B6883F8222100E000BF1B
:402200000C37BD4680BC704780B58AB000AF78607B68002B00F02F81994BD3F880307B6202E17B68D3F818315A1C7B68C3F81821FB7A1946002002F031FD03463B623B6ABF
:40224000002B00D1F0E07B68D3F814315A1C7B68C3F814218A4BFB61FB691B697B83FB699B893B83FB691B6F7B617B6820331846FFF736FF7B69002B00F09F807B8B013B10
:402280002F2B00F2998001A252F823F083230000B92300005F2300004D230000B9230000B9230000B9230000B9230000B9230000B9230000B923000095230000B9230000AD
:4022C000B9230000B9230000B9230000B9230000B9230000B9230000B9230000B923000071230000B9230000B9230000B9230000B9230000B9230000B9230000B923000066
:40230000B9230000B9230000B9230000B9230000B9230000B9230000B9230000B9230000B9230000B9230000B9230000B9230000B9230000B9230000B9230000B9230000DD
:40234000B9230000B9230000A72300007B6803F120023B8B1946786900F07AFA2DE07B6803F120023B8B1946786900F041FB24E07B6803F120023B8B1946786900F074FBDE
:402380001BE07B6803F120023B8B1946786900F00DFC12E07B6803F120023B8B1946786900F0E8FC09E07B6803F120023B8B1946786900F0A5FD00E000BF7B68B3F8323359
:4023C000002B31D07B68B3F832337A8B9A422BD17B687A8BA3F83A237B683A8BA3F83C237B68012283F838233B8B3F2B02D83B8BDBB200E04023FB747B69002B08D07B68AA
:4024000003F23E33FA7C7969184606F0A1FB07E07B6803F23E33FA7C0021184606F0A3FB7B68FA7C83F87E237B6803F5927307F10B0211461846FFF7FFFD0346002B7FF44D
:40244000F0AE0F4BD3F88030FB60FA687B6A9A4209D97B68D3F81C21F9687B6ACB1A1A447B68C3F81C217B68B3F828329AB27B68A3F8202100E000BF2837BD4680BD00BF4A
:402480009486FF1FB0B584B000AF786039607B68002B03D07B685B68002B01D1012329E03868FFF7F5FD7B683A6803F10C0415460FCD0FC42B682360104B5B68984778686C
:4024C000FFF71CFEF8607B68D3F80C315A1C7B68C3F80C217B68D3F81021FB681A447B68C3F810217B6893F82231002B14BF01230023DBB218461037BD46B0BDD080FF1FC3
:40250000B0B588B000AF78607B68002B11D07B6807F10C0403F10C050FCD0FC42B68236001233B7707F10C0319467868FFF7AAFF00E000BF2037BD46B0BD00BF80B582B08C
:4025400000AF786039607B68002B0BD03B68002B08D03A687B6810462033EC22194606F0F7FA00E000BF0837BD4680BD80B483B000AF78607B681B781A067B6801331B78DE
:402580001B041A437B6802331B781B0213437A6803321278134318460C37BD4680BC704780B483B000AF78607B681B781B021AB27B6801331B781BB213431BB218460C376B
:4025C000BD4680BC704700BF80B483B000AF78607B681B781B021AB27B6801331B781BB213431BB29BB218460C37BD4680BC704780B584B000AF786007F10E03022279685D
:40260000184606F0A5FAB7F90E3018461037BD4680BD00BFB0B58AB000AFF860B9607A603B60FB68002B06D0FB681B7883F00103DBB2002B01D00023CEE0FB68DB683B6273
:40264000FB681B69FB61FB685B69BB61FB689B697B61BB68002B3FD07969386A06F02AF803461C46B969F86906F024F803461946204605F017FF03461946184605F012FF33
:4026800003461C46B969B86906F014F803461D467969786906F00EF803461946284605F001FF03461946184605F0FCFE034619464FF07E5005F0F4FE03461946204604F021
:4026C000B7FE0246464B1B681946104605F0F2FF03461A46BB681A607B68002B38D0B969386A05F0E7FF03461C46F969786905F0E1FF03461946204605F0D2FE03461946F5
:40270000184605F0CFFE03467B624FF07E51786A06F08CF90346002B03D04FF07E537B6208E03049786A06F063F90346002B01D02C4B7B62786A04F029FE0246284B1B684B
:402740001946104605F0B6FF03461A467B681A603B68002B3FD0F969386A05F0ABFF03461C467969B86905F0A5FF03461946204605F098FE03461946184605F093FE0346BF
:402780001C46F969F86905F095FF03461D46B969B86905F08FFF03461946284605F082FE03461946184605F07DFE034619464FF07E5005F075FE03461946204604F038FEA3
:4027C0000246074B1B681946104605F073FF03461A463B681A60012318462837BD46B0BDECB30000000080BF80B485B000AFF8600B467A607B81154B9A6C7B685A60134BB3
:40280000DA6C7B689A60114B1A6E7B68DA600F4B5A6D7B681A610D4B9A6D7B685A610B4BDA6D7B689A61094B93F850207B681A77064B93F851207B685A777B6801221A7029
:4028400000BF1437BD4680BC704700BFD080FF1F80B58AB000AFF8600B467A607B817B89152B40F2BB80F868FFF780FE7862FB6804331846FFF77AFE3862FB680833184633
:40288000FFF774FEF861FB680C331846FFF788FE03467B83FB680E331846FFF781FE03463B83FB6810331846FFF78EFE0346FB82FB6812331846FFF787FE0346BB82FB6860
:4028C00014331846FFF780FE03467B827B687A6A5A647B683A6A1A647B68FA699A647B687A8BA3F84C207B683A8BA3F84E207B68FA8AA3F850207B68BA8AA3F852207B6882
:402900007A8AA3F85420786A05F080FE03463549184605F083FF03461A467B685A62386A05F074FE03462F49184605F077FF03461A467B681A62F86905F068FE03462A4938
:40294000184605F06BFF03461A467B689A62B7F91A30184605F05AFE03462449184605F05DFF03461A467B68DA62B7F91830184605F04CFE03461D49184605F04FFF034612
:402980001A467B681A63FB8A184605F03BFE03461649184605F042FF03461A467B685A63BB8A184605F02EFE03461049184605F035FF03461A467B689A637B8A184605F0F3
:4029C00021FE03460949184605F028FF03461A467B68DA637B6801229A7700E000BF2837BD4680BD8096184B00007A440000C84280B584B000AFF8600B467A607B817B89A9
:402A0000042B28D9FB6801331846FFF7F1FD0346184605F0FBFD03461149184605F0FEFE03461A467B689A65FB6803331846FFF7DFFD0346184605F0E9FD03460949184638
:402A400005F0ECFE03461A467B68DA657B68012283F8562000E000BF1037BD4680BD00BF0000204100007A4480B584B000AFF8600B467A607B817B890E2B40F28E80FB683A
:402A800001331846FFF7B4FD0346184605F0BEFD03464449184605F0C1FE03461A467B689A66FB6803331846FFF7A2FD0346184605F0ACFD03463B49184605F0AFFE03462B
:402AC0001A467B68DA66FB6805331846FFF790FD0346184605F09AFD03463249184605F09DFE03461A467B681A67FB6807331846FFF77EFD0346184605F088FD03462A499C
:402B0000184605F08BFE03461A467B68C3F88020FB6809331846FFF76BFD0346184605F075FD03461F49184605F078FE03461A467B685A67FB680B331846FFF759FD03460E
:402B4000184605F063FD03461649184605F066FE03461A467B689A67FB680D331846FFF747FD0346184605F051FD03460D49184605F054FE03461A467B68DA677B684FF05E
:402B80000002C3F884207B684FF00002C3F888207B68012283F8602000E000BF1037BD4680BD00BF0000C8420000204180B584B000AFF8600B467A607B817B89152B40F2CF
:402BC000CF80F868FFF7ECFC0346184605F01EFD03466549184605F021FE03461A467B68C3F89420FB689A787B6883F89820FB6803331B78184605F005FD03465B491846D6
:402C000005F00CFE03461A467B68C3F89C20FB681A797B6883F8A020FB6805331846FFF7BFFC03461A467B68A3F8A220FB6807331846FFF7B5FC03461A467B68A3F8A4205E
:402C4000FB6809331846FFF7ABFC0346184605F0DDFC03464649184605F0E0FD03461A467B68C3F8A820FB680B331846FFF798FC03461A467B68A3F8AC20FB680D331846B1
:402C8000FFF78EFC03461A467B68A3F8AE20FB6810331846FFF784FC03461A467B68A3F8B020FB6812331846FFF77AFC0346184605F0ACFC03462C49184605F0AFFD034672
:402CC0001A467B68C3F8B420FB6814331846FFF767FC03461A467B68A3F8B8207B68012283F88C207B68B3F9A2309BB203F00103002B14BF01230023DAB27B6883F88D20F4
:402D00007B68B3F9A2309BB203F00203002B14BF01230023DAB27B6883F88E207B68B3F9A2309BB203F00403002B14BF01230023DAB27B6883F88F207B68B3F9A2309BB2DC
:402D400003F00803002B14BF01230023DAB27B6883F890207B6893F890207B68DA7700E000BF1037BD4680BD0000C842000040400000204180B584B000AFF8600B467A6078
:402D80007B817B89122B40F2B080FB6801331846FFF72EFC0346184605F038FC03465549184605F03BFD03461A467B68C3F8BC20FB6803331846FFF71BFC0346184605F05A
:402DC00025FC03464B49184605F028FD03461A467B68C3F8C020FB6805331846FFF708FC0346184605F012FC03464249184605F015FD03461A467B68C3F8C420FB68073398
:402E00001846FFF7F5FB0346184605F0FFFB03463949184605F002FD03461A467B68C3F8C820FB6809331846FFF7E2FB0346184605F0ECFB03463049184605F0EFFC0346D0
:402E40001A467B68C3F8CC20FB680B331846FFF7CFFB0346184605F0D9FB03462549184605F0DCFC03461A467B68C3F8D020FB680D331846FFF7BCFB0346184605F0C6FB15
:402E800003461C49184605F0C9FC03461A467B68C3F8D420FB680F331846FFF7A9FB0346184605F0B3FB03461249184605F0B6FC03461A467B68C3F8D820FB68113318463D
:402EC000FFF796FB0346184605F0A0FB03460B49184605F0A3FC03461A467B68C3F8DC207B68012283F8BA2000E000BF1037BD4680BD00BF00007A440000C84200002041D9
:402F000080B584B000AFF8600B467A607B817B890C2B2CD9FB6808331B78092B0CBF01230023DAB27B6883F8E120FB6809331846FFF736FB0346184605F068FB03460E4995
:402F4000184605F06BFC03461A467B68C3F8E420FB680B331846FFF723FB03461A467B68A3F8E8207B68012283F8E02000E000BF1037BD4680BD00BF0000204180B500AF5F
:402F80001A4A0A211A4801F0C1FD1A4B00221A75184B00221A77174B002283F82420154B002283F82C20134B002283F83420114B002283F83C200F4B002283F841200D4B65
:402FC000002283F840200B4B002283F84220094B002283F84320074B002283F84420054B002283F8452000BF80BD00BF3D3000008C86FF1FD080FF1F80B584B002AF3B4625
:40300000184601F095FD02233B7100237B710023BB716B463A1D1268114619800233120C1A703B68002240F21511034801F0EAFD00BF0837BD4680BD8C86FF1F80B592B00C
:4030400002AF78607B681B78022B07D0042B02D0012B06D008E000F0AFFC05E000F0ACFC02E000F0B5FC00BF7B68DB6E184600F07DFC7B68DB6840F21512934205D040F2BA
:403080001F12934200F04A82EAE37B681B78022B40F0EA83B74B1B78002B06D107F130030321184600F096FE06E007F130000023FF22032100F0ACFEAF4B1B7D032B1BD8B6
:4030C00001A252F823F000BFD9300000E1300000E9300000F1300000002387F83F300FE0012387F83F300BE0022387F83F3007E0032387F83F3003E0002387F83F3000BFFF
:403100009D4B1B7F032B1BD801A252F823F000BF21310000293100003131000039310000002387F83E300FE0042387F83E300BE0082387F83E3007E00C2387F83E3003E0B9
:40314000002387F83E3000BF8B4B93F82430032B1AD801A252F823F069310000713100007931000081310000002387F83D300FE0102387F83D300BE0202387F83D3007E0F5
:40318000302387F83D3003E0002387F83D3000BF97F83F2097F83E301343DAB297F83D301343DBB287F83030734B5B7B002B07D097F8303063F07F03DBB287F8303006E0E8
:4031C00097F8303003F07F03DBB287F830306A4B1B7B002B07D097F8303043F04003DBB287F8303006E097F8303023F04003DBB287F830305F4B1B78002B06D107F13003E0
:403200000121184600F0E6FD06E007F130000023FF22012100F0FCFD564B1B78002B05D1564A0121564800F0DFFB07E0554B0093554B524A0121524800F03AFC4D4B1B781C
:40324000002B05D14D4A0121504800F0CDFB07E04C4B00934C4B494A01214C4800F028FC444B1B78002B05D1444A0121484800F0BBFB07E0434B0093434B404A0121444868
:4032800000F016FC0023BB833A4B1B78002B06D107F11C030121184600F0C2FC07E007F11C004FF000033B4A012100F0E5FC324B93F82C30012B07D0022B09D0002B0BD123
:4032C000002387F83C300BE0102387F83C3007E0202387F83C3003E0002387F83C3000BF254B93F83430012B07D0022B09D0002B0BD1002387F83B300BE0042387F83B307A
:4033000007E0082387F83B3003E0002387F83B3000BF194B93F83C30012B07D0022B09D0002B0BD1002387F83A300BE0012387F83A3007E0022387F83A3003E0002387F8F9
:403340003A3000BF97F83C2097F83B301343DAB297F83A301343DBB287F83030054B1B78002B19D107F130030121184600F032FD19E000BF8886FF1FD080FF1F00FEFF464B
:40338000F080FF1F0001003800FEFFC6E880FF1FE080FF1F00FF7F4707F130000023FF22012100F035FDAF4B9B6AAF49184605F081F90346AC49184605F074F803461846A2
:4033C00005F07AFB03469BB23B81A64B1B6BA649184605F06FF90346A349184605F062F80346184605F068FB03469BB27B819D4B9B6B9D49184605F05DF903469A49184676
:4034000005F050F80346184605F056FB03469BB2BB81964B1B78002B06D107F108030321184600F059FD07E007F1080000234FF6FF72032100F07AFD8C4B1B78002B05D199
:40344000012200218A4800F0EDFD04E001220021874800F04DFE854B1B78002B05D101220121844800F0DEFD04E001220121814800F03EFE7D4B1B78002B05D10122042128
:403480007D4800F0CFFD04E0012204217A4800F02FFE764B1B78002B05D101220521774800F0C0FD04E001220521744800F020FE6E4B1B78002B05D101220621704800F040
:4034C000B1FD04E0012206216D4800F011FE674B1B78002B05D1012207216A4800F0A2FD04E001220721674800F002FE00F04CFA002387F830305D4B1B78002B06D107F12F
:4035000030030121184600F065FCB0E107F130000023FF22012100F07BFCA8E17B681B78012B40F0A381514B1B78002B06D107F130030321184600F04DFC06E007F130005D
:403540000023FF22032100F063FC484B1B78002B06D107F130030221184600F03BFC06E007F130000023FF22022100F051FC97F83030184605F046F803464349184605F03F
:4035800099F803464149184604F08CFF03461A46344B9A6497F83130184605F033F803463949184605F086F803463849184604F079FF03461A462B4BDA642A4B9B6C3349B1
:4035C000184605F00BFA0346002B03D0254B4FF000029A64234BDB6C2C49184605F0FEF90346002B03D01F4B4FF00002DA641F4B1B78002B04D10121254800F0EBFB05E092
:403600000023FF220121224800F002FC174B1B78002B04D101211F4800F0DCFB05E00023FF2201211B4800F0F3FB104B1B78002B05D10D4A0121184800F0D6F907E0174B2B
:403640000093174B084A0121134800F031FA074B1B78002B28D1044A0121124800F0C4F92AE000BFD080FF1F00FEFF468886FF1F1081FF1F1181FF1F1281FF1F1381FF1F83
:403680001481FF1F1581FF1FCDCCCC3D000020412081FF1F2181FF1F3081FF1F0001003800FEFFC62481FF1F744B0093744B754A0121754800F0FCF9744B1B78002B05D1AC
:4036C000704A0121724800F08FF907E06B4B00936B4B6C4A01216E4800F0EAF96B4B1B78002B05D1674A01216A4800F07DF907E0624B0093624B634A0121664800F0D8F92E
:40370000624B1B78002B06D107F130030221184600F060FB06E007F130000023FF22022100F076FB594B1B78002B05D101220021594800F077FC04E001220021564800F044
:40374000D7FC524B1B78002B05D101220121534800F068FC04E001220121504800F0C8FC4A4B1B78002B05D1012202214C4800F059FC04E001220221494800F0B9FC00F004
:4037800003F9424B1B78002B05D101220021454800F048FC04E001220021424800F0A8FC00F0F2F8394B1B78002B04D101213E4800F010FB05E00023FF2201213A4800F050
:4037C00027FB324B1B78002B04D10121374800F001FB05E00023FF220121344800F018FB2A4B1B78002B04D10121314800F0F2FA05E00023FF2201212D4800F009FB234B9F
:403800001B78002B04D101212A4800F065FB06E000234FF6FF720121264800F087FB1B4B1B78002B04D10121234800F055FB06E000234FF6FF7201211F4800F077FB134B82
:403840001B78002B04D101211C4800F045FB0EE000234FF6FF720121184800F067FB06E07B6801221A7102E000BF00E000BF00F099F8034618464037BD4680BD0001003895
:4038800000FEFFC600FEFF462481FF1F8886FF1F2881FF1F2C81FF1F3E81FF1F3F81FF1F4081FF1F4281FF1F3A81FF1F3B81FF1F3C81FF1F3481FF1F3681FF1F3881FF1FF9
:4038C00080B584B000AF7860154B1B68002B23D07B689B79002B00D01FE07B685A6E7B681A670023FB600FE00D4B1B6803F22A207B681B6F591C7A6811671B781946FEF72D
:4039000069FBFB680133FB607B68B3F862301A46FB689A42E8DC00E000BF1037BD4680BD5486FF1F80B483B000AF786000BF0C37BD4680BC704700BF80B500AF0A4B1B682F
:40394000002B0ED0084B1B689B68002B09D0064B1B689B68044A1268126810469847034600E00023184680BD5486FF1F80B483B000AF7860034A7B68136000BF0C37BD469E
:4039800080BC70472887FF1F80B400AF044B1B680133034A136000BFBD4680BC704700BF2887FF1F80B400AF024B1B681846BD4680BC70472887FF1F80B400AF034B002236
:4039C0001A7000BFBD4680BC704700BF8886FF1F80B400AF034B02221A7000BFBD4680BC704700BF8886FF1FF0B587B000AFF860B9607A6051E0FB681B687968184604F0FE
:403A000059FE03461E46FB681B68012214464FF00001184605F00AF80346002B01D100231C46E3B21C46FB681B68012215464FF00001184604F0DCFF0346002B01D100238E
:403A40001D46EBB2E31A184604F0E0FD03464FF07C51184604F02EFE03461946304604F021FD0346184605F001F80346FB820F4B1B685A1C0D490A60B7F91620121212B2DB
:403A8000D2B21A70094B1B685A1C08490A60FA8AD2B21A70FB680433FB60BB685A1EBA60002BA8D100BF1C37BD46F0BD2887FF1F80B586B000AFF860B9607A603B60564BE0
:403AC0001B78012B40F09E804EE0544B1B681B78DBB21B021BB21A46504B1B6801331B78DBB21343184604F091FD03467B614B4B1B680233494A1360396A786904F0DAFD8F
:403B000003467B61FB681B687969184604F0CAFC03461A46FB681A60FB681B687968184604F084FF0346002B02D0FB687A681A60FB681B683968184604F05AFF0346002BB3
:403B400002D0FB683A681A60FB681B681946184604F076FF0346002B03D0FB684FF000021A60FB680433FB60BB685A1EBA60002BABD14CE0294B1B681B78DBB21B021BB205
:403B80001A46264B1B6801331B78DBB21343184604F03CFD03463B61204B1B6802331F4A1360396A386904F085FD03463B61FB683A691A60FB681B687968184604F036FF2B
:403BC0000346002B02D0FB687A681A60FB681B683968184604F00CFF0346002B02D0FB683A681A60FB681B681946184604F028FF0346002B03D0FB684FF000021A60FB6891
:403C00000433FB60BB685A1EBA60002BB2D100BF1837BD4680BD00BF8886FF1F2887FF1F80B485B000AF7860396018E07B681B88FB81104B1B685A1C0E490A60B7F90E2013
:403C4000121212B2D2B21A700A4B1B685A1C09490A60FA89D2B21A707B6802337B603B685A1E3A60002BE1D100BF1437BD4680BC704700BF2887FF1F80B586B000AFF86030
:403C8000B9607A603B60514B1B78012B40F0948049E04F4B1B681B78DBB21B021AB24C4B1B6801331B78DBB21BB21343FB82484B1B680233464A1360FB68B3F900309AB2A1
:403CC000FB8A13449BB21AB2FB681A80FB68B3F90030184604F09AFC03467968184604F0A5FE0346002B06D0786804F0BFFE03461AB2FB681A80FB68B3F90030184604F00E
:403D000085FC03463968184604F072FE0346002B06D0386804F0AAFE03461AB2FB681A80FB680233FB60BB685A1EBA60002BB0D147E0274B1B681B78DBB21B021AB2244BD6
:403D40001B6801331B78DBB21BB21343BB82204B1B6802331E4A1360FB68BA8A1A80FB68B3F90030184604F051FC03467968184604F05CFE0346002B06D0786804F076FE87
:403D800003461AB2FB681A80FB68B3F90030184604F03CFC03463968184604F029FE0346002B06D0386804F061FE03461AB2FB681A80FB680233FB60BB685A1EBA60002BA3
:403DC000B7D100BF1837BD4680BD00BF8886FF1F2887FF1F80B483B000AF786039600AE00A4B1B685A1C09490A607A6812781A707B6801337B603B685A1E3A60002BEFD132
:403E000000BF0C37BD4680BC704700BF2887FF1F80B487B000AFF860B96011461A460B46FB711346BB712A4B1B78012B46D122E0284B1B685A1C27490A601B78DBB2FB7458
:403E4000FB681B787B6197F913307A6913447B61FA797B699A4201DAFB797B61BA797B699A4201DDBB797B617B69DAB2FB681A70FB680133FB60BB685A1EBA60002BD7D171
:403E800021E0144B1B685A1C12490A601B78BB74FB68BA7C1A70FB681B78FA799A4202D2FB68FA791A70FB681B78BA799A4202D9FB68BA791A70FB680133FB60BB685A1EF9
:403EC000BA60002BDDD100BF1C37BD4680BC70478886FF1F2887FF1F80B483B000AF7860396016E0104B1B685A1C0F490A607A681288120A92B2D2B21A700B4B1B685A1C02
:403F000009490A607A681288D2B21A707B6802337B603B685A1E3A60002BE3D100BF0C37BD4680BC704700BF2887FF1F80B487B000AFF860B96011461A460B46FB801346C9
:403F4000BB80364B1B78012B5ED12DE0344B1B681B78DBB29BB21B029AB2314B1B6801331B78DBB29BB21343FB822D4B1B6802332B4A1360FB681A88FB8A13449AB2FB6897
:403F80001A80FB681B88FA889A4202D2FB68FA881A80FB681B88BA889A4202D9FB68BA881A80FB680233FB60BB685A1EBA60002BCCD12EE01A4B1B681B78DBB29BB21B0282
:403FC0009AB2174B1B6801331B78DBB29BB21343BB82134B1B680233114A1360FB68BA8A1A80FB681B88FA889A4202D2FB68FA881A80FB681B88BA889A4202D9FB68BA88DC
:404000001A80FB680233FB60BB685A1EBA60002BD0D100BF1C37BD4680BC70478886FF1F2887FF1F80B485B000AF78600B46FB701346BB702D4B1B681B78BB730023FB73F4
:40404000BB78013B072B2BD801A252F823F000BF71400000774000007D40000083400000894000008F400000954000009B4000000123FB7315E00323FB7312E00723FB7308
:404080000FE00F23FB730CE01F23FB7309E03F23FB7306E07F23FB7303E0FF23FB7300E000BFFA7BFB7802FA03F35BB2DB435AB297F90E3013405BB2BB737B681A78FB7BBC
:4040C0001340DBB21A46FB7802FA03F35AB297F90E3013435BB2BB73044B1B68BA7B1A7000BF1437BD4680BC704700BF2887FF1F80B485B000AF78600B46FB701346BB7063
:404100000023FB73BB78013B072B2BD801A252F823F000BF354100003B41000041410000474100004D41000053410000594100005F4100000123FB7315E00323FB7312E026
:404140000723FB730FE00F23FB730CE01F23FB7309E03F23FB7306E07F23FB7303E0FF23FB7300E000BF174B1B78012B15D1164B1B681B78DBB21A46FB7842FA03F35AB29F
:4041800097F90F3013405BB2BB737B681A78BB7B5340DAB27B681A700FE00B4B1B681B78DBB21A46FB7842FA03F35AB297F90F3013405BB2DAB27B681A7000BF1437BD463D
:4041C00080BC70478886FF1F2887FF1F80B582B000AF786074220021786804F0C4FC7B680022DA667B6800229A667B6800221A67002318460837BD4680BD00BF80B584B0A2
:4042000000AF78607B6803F11C027B681A677B6803F11C027B685A667B6800221A717B685B79002B0AD02F4B1B68002B04D02D4B1B687868984704E001234EE0786800F0FE
:40424000F3FA7B681A6F7B68DA667B689B7C002B22D07B6803F11C017B68B3F86230053B1A464FF0FF3000F027FCF8600023BB607B68B3F86230053B18337A681344191DC6
:4042800007F108030422184604F062FCBB68FA689A4201D0072320E07868FFF743FB7B681B7C032B16D801A252F823F0CD420000BD420000C5420000C5420000786800F033
:4042C00013F809E0786800F057F805E0786800F0B5F801E0022300E0002318461037BD4680BD00BF5C86FF1FB0B588B002AF786000237B6136E07B685A7E1E497B6911F852
:4043000033309A4203D07B685B7E002B27D107F10C03184600F00CFC7B689B7C7B737B68DB7C3B737B689B7DBB730123FB737B681B7E3B747B69DB000E4A98187B68D9688E
:404340007B689C796B4607F11002126815461D800233120C1A70FB68224600F007FC7B6901337B617B69002BC5DD00BF1837BD46B0BD00BF2087FF1FB0B588B002AF7860B0
:404380007B681B7C032B03D17B6805221A7006E07B681B7C022B02D17B6803221A7000237B6141E07B685A7E23497B6911F833309A4203D07B685B7E002B32D11E4A7B697F
:4043C000DB0013445B68786898477B685B78002B27D107F10C03184600F0AAFB7B689B7C7B737B68DB7C3B737B689B7DBB730123FB737B681B7E3B747B69DB000E4A9818B9
:404400007B68D9687B689C796B4607F11002126815461D800233120C1A70FB68224600F0A5FB7B6901337B617B69002BBADD00BF1837BD46B0BD00BF2087FF1F80B584B0F6
:4044400000AF78607B6801221A700023FB6009E0084AFB68DB0013445B6878689847FB680133FB60FB68002BF2DD00BF1037BD4680BD00BF8C86FF1F80B582B000AF7860E3
:404480007B6803F120027B689A667B689A6E7B681A677B685B79002B0AD0094B1B68002B04D0074B1B687868984704E0012303E0786800F0F5F8002318460837BD4680BD03
:4044C0005886FF1F80B586B000AF78600023FB757B681B79012B01D10823DDE07B681B6F1A467B689B6ED31A9AB27B681A817B685B79002B03D17B681B89642B07D97B68DF
:4045000003F11C027B685A660123FB7504E07B6803F11D027B685A667B681B6F1A467B685B6ED31A9AB27B68A3F862207B689B7C002B29D07B68B3F8623003F00303C3F118
:4045400004033B617B681B6F3A690021184604F00AFB7B681A6F3B691A447B681A677B68B3F862203B699BB213449AB27B68A3F862207B681B6F1A467B689B6ED31A9BB2A7
:4045800004339AB27B681A817B685B79002B12D07B6851221A777B6842225A777B681B891B0A9BB2DAB27B689A777B681B89DAB27B68DA772AE0FB7D002B19D07B6851228B
:4045C0001A777B6858225A777B681B895BB263F07F035BB2DAB27B689A777B681B89DB099BB2DBB203F07F03DAB27B68DA770DE07B6851225A777B6858229A777B681B8983
:40460000DBB203F07F03DAB27B68DA777B689B7C002B22D07B68596E7B68B3F862301A464FF0FF3000F048FA0346BB607B681B6F07F108010422184604F08AFA7B681B6F9C
:404640001A1D7B681A677B681B6F1A467B685B6ED31A9AB27B68A3F862207B689A6E7B681B891946104600F069F90346FB737B681B6F591C7A681167FA7BD243D2B21A70E9
:404680007B68B3F8623001339AB27B68A3F862207868FFF715F9002318461837BD4680BD80B584B000AF78607B689A6E7B681A677B6803F170027B68DB681946104600F013
:4046C0005BF97B6800225A747B689B7C002B02D07B6801225A740023FB737B681B7C5BB203F00F035AB2FB7BDBB25BB213435BB2DBB2FB737B68DB7C1B015BB203F01003C8
:404700005AB2FB7BDBB25BB213435BB2DBB2FB737B68DB7D5B015BB203F020035AB2FB7BDBB25BB213435BB2DBB2FB737B689B7D9B015BB203F040035AB2FB7BDBB25BB2D5
:4047400013435BB2DBB2FB737B685B7CDB015AB2FB7BDBB25BB213435BB2DBB2FB737B681B6F591C7A681167FA7BD2B21A707B685B7C002B16D00023FB737B689B7C5BB2A9
:4047800003F001035AB2FB7BDBB25BB213435BB2DBB2FB737B681B6F591C7A681167FA7BD2B21A707B689B7D002B12D17B6803F170027B681B7E1946104600F0DDF87B689E
:4047C00003F170027B685B7E1946104600F0D4F805E07B6800221A767B6800225A767B68DB7D002B12D17B6803F170027B689B7E1946104600F0C0F87B6803F170027B68C0
:40480000DB7E1946104600F0B7F805E07B6800229A767B680022DA767B681A6F7B68DA6600BF1037BD4680BD80B584B000AF78607B689A6E7B681A677B687033184600F094
:40484000DFF802467B68DA607B681B6F591C7A6811671B78FB73FB7BDBB203F00F03DAB27B681A74FB7BDBB21B09DBB203F00103DAB27B68DA74FB7BDBB25B09DBB203F06B
:404880000103DAB27B68DA75FB7BDBB29B09DBB203F00103DAB27B689A75FB7BDBB2DB09DAB27B685A747B685B7C002B0DD07B681B6F591C7A6811671B78FB73FB7BDBB267
:4048C00003F00103DAB27B689A747B689B7D002B11D17B687033184600F092F80346DAB27B681A767B687033184600F089F80346DAB27B685A767B68DB7D002B11D17B688E
:404900007033184600F07CF80346DAB27B689A767B687033184600F073F80346DAB27B68DA767B68DB7C002B04D07B681B6F9A1C7B681A6700BF1037BD4680BD80B485B094
:4049400000AF786039600023FB720023FB6009E07B685A1C7A601A78FB7A1344FB72FB680133FB60FA683B689A42F1D3FB7A18461437BD4680BC704780B485B000AF786087
:4049800039600023FB6033E0FA681346DB009B1A3A6822FA03F3DBB203F07F03FB72FB685A1C1346DB009B1A3A6822FA03F3DBB203F07F03BB72BB7A002B0CD07B681B6818
:4049C000FA7A62F07F02D2B21A707B681B685A1C7B681A6009E07B681B68FA7A1A707B681B685A1C7B681A6005E0FB680133FB60FB68032BC8DD00BF1437BD4680BC704796
:404A000080B485B000AF78600023FB600023BB6022E07B681B681B7803F07F01BA681346DB009B1A01FA03F3FA681343FB607B681B681B785BB2002B05DA7B681B685A1C61
:404A40007B681A6005E07B681B685A1C7B681A6005E0BB680133BB60BB68032BD9DDFB6818461437BD4680BC704700BF80B485B000AF0346FB71FB791B06BB600023FB738E
:404A80000EE0BB68002B05DABB685A00094B5340BB6002E0BB685B00BB60FB7B0133FB73FB7B072BEDD9BB6818461437BD4680BC704700BFB71DC10480B586B000AFF860CF
:404AC000B9607A60FB683B6100237B6115E03B691B0E5AB2B9687B690B441B785BB253405BB2DBB21846FFF7C1FF02463B691B0253403B617B6901337B617A697B689A42F4
:404B0000E5D33B6918461837BD4680BD80B485B000AFF8600B467A60FB72FB687A685A60FB68FA7A1A7000BF1437BD4680BC704780B483B000AF78607B6800229A707B68E4
:404B40000022DA707B6800229A717B6800221A717B6800225A717B6800221A707B6800225A7000BF0C37BD4680BC704782B080B5A2B000AFF860B960C7F894301346FB71E2
:404B800007F114031846FFF721FBFB79BB76BB683B62002387F8243097F8983087F82D3097F8993087F82E3097F89A3087F82F30FB681B7887F82C3097F8943087F8273082
:404BC00097F8953087F8263007F114031846FFF753FC00233B75FB685B6807F11402104698470346C7F8843007F114031846FFF769FC034618468837BD46BDE8804002B09A
:404C0000704700BF82B080B5A2B000AFF860B960C7F894301346FB7107F114031846FFF7D5FAFB79BB76BB683B62022387F8243097F8983087F82D3097F8993087F82E30E6
:404C400097F89A3087F82F30FB681B7887F82C3097F8943087F8273097F8953087F8263007F114031846FFF707FC02233B75FB685B6807F11402104698470346C7F884307A
:404C800007F114031846FFF71DFC034618468837BD46BDE8804002B0704700BF90B585B000AF03460A46FB711346BB71FB79B94A8C2101FB03F313441B78072B00F25783D1
:404CC00001A252F823F000BFE94C0000674D0000154E0000134F00001D500000915000006D51000045520000BB79512B2AD1FB79A84A8C2101FB03F31344023301221A80AB
:404D0000FB79A44A8C2101FB03F313442033BA791A70FB79FA798C2101FB02F219329D490A4408329B498C2000FB03F30B4474331A60FB79974A8C2101FB03F3134401226F
:404D40001A7014E3FB7993498C2202FB03F20A448432126801328F498C2000FB03F30B4484331A6003E3FA798A498C2303FB02F30B4474331B68591C86488C2404FB02F2EF
:404D8000024474321160BA791A70FB7981498C2202FB03F20A4402321288013290B27D4A8C2101FB03F31344023302461A80BB79582B11D1FB79774A8C2101FB03F31344D2
:404DC000093300221A70FB79724A8C2101FB03F3134402221A70CAE2BB79422B11D1FB796C4A8C2101FB03F31344093301221A70FB79684A8C2101FB03F3134404221A70F3
:404E0000B5E2FB79634A8C2101FB03F3134400221A70ACE2FA795F498C2303FB02F30B4474331B68591C5B488C2404FB02F2024474321160BA791A70FB7956498C2202FBC1
:404E400003F20A4402321288013290B2514A8C2101FB03F31344023302461A8097F90630002B16DAFB79BA7992B222F0800290B2484A8C2101FB03F313440C3302461A80B9
:404E8000FB79444A8C2101FB03F3134403221A7066E2FB79BA7990B23E4A8C2101FB03F313440C3302461A80FB79FA7939498C2000FB02F20A447432126836498C2000FBE3
:404EC00003F30B446C331A60FB79324A8C2101FB03F31344063300221A70FB792D4A8C2101FB03F3134406221A70FB79294A8C2101FB03F313440C331B88402B40F23082E8
:404F0000FB79244A8C2101FB03F3134400221A7026E2FA791F498C2303FB02F30B4474331B68591C1B488C2404FB02F2024474321160BA791A70FB7916498C2202FB03F2E7
:404F40000A4402321288013290B2124A8C2101FB03F31344023302461A80FB79FA790D498C2000FB02F20A447432126809498C2000FB03F30B446C331A6097F90630002BA9
:404F80000ADAFB79034A8C2101FB03F3134400221A702FE09486FF1FFA79FB79A8498C2000FB03F30B440C331B8819B2BB79DB011BB223F4804323F07F031BB20B431BB2BE
:404FC00098B29F498C2303FB02F30B440C3302461A80FB799A4A8C2101FB03F31344063300221A70FB79964A8C2101FB03F3134406221A70FB79924A8C2101FB03F31344F8
:405000000C331B88402B40F2AD81FB798C4A8C2101FB03F3134400221A70A3E1FA7988498C2303FB02F30B4474331B68591C84488C2404FB02F2024474321160BA791A70F6
:40504000FB797F498C2202FB03F20A4402321288013290B27A4A8C2101FB03F31344023302461A80FB79BA7992B2120290B2744A8C2101FB03F313440C3302461A80FB7968
:405080006F4A8C2101FB03F3134405221A706EE1FA796B498C2303FB02F30B4474331B68591C67488C2404FB02F2024474321160BA791A70FB7962498C2202FB03F20A4411
:4050C00002321288013290B25D4A8C2101FB03F31344023302461A80FB79FA7958498C2000FB02F20A447432126855498C2000FB03F30B446C331A60FB79FA7950498C2059
:4051000000FB02F20A440C321188BA7992B20A4390B24B4A8C2101FB03F313440C3302461A80FB79464A8C2101FB03F31344063300221A70FB79424A8C2101FB03F31344D4
:4051400006221A70FB793E4A8C2101FB03F313440C331B88402B40F20781FB79384A8C2101FB03F3134400221A70FDE0FA7934498C2303FB02F30B4474331B68591C304817
:405180008C2404FB02F2024474321160BA791A70FB792B498C2202FB03F20A4402321288013290B2264A8C2101FB03F31344023302461A80FB79FA7921498C2000FB02F2B0
:4051C0000A4406321178BA790A44D0B21C4A8C2101FB03F31344063302461A70FB79184A8C2101FB03F313440C331B881846FB79134A8C2101FB03F3134402331B881C4629
:40520000FB790F4A8C2101FB03F313446C331B681946FB798C2202FB03F31833084A13440833CB1AE31A984200F3A080FB79044A8C2101FB03F3134407221A7096E000BF77
:405240009486FF1FFA794C498C2303FB02F30B4474331B68591C48488C2404FB02F2024474321160BA791A70FB7943498C2202FB03F20A4402321288013290B23E4A8C21AB
:4052800001FB03F31344023302461A80BB79FB73FB79394A8C2101FB03F3134400221A70FB79354A8C2101FB03F313440A33FA791A70FB7BFA7930498C2000FB02F20A44E5
:4052C000063212781344FF2B39D1FB792A4A8C2101FB03F31344783300221A60FC79FEF72BFB0146244A8C2303FB04F3134488331960FB79204A8C2101FB03F313447C3345
:4053000001221A70FB79FA791B498C2000FB02F20A4402321088184A8C2101FB03F31344663302461A80FB798C2202FB03F3124A134404331846FEF761FF012318E0FB79AB
:405340000D498C2202FB03F20A4480321268013209498C2000FB03F30B4480331A6006E000BF04E000BF02E000BF00E000BF002318461437BD4690BD9486FF1F80B582B0DC
:4053800000AF786039603A680021786803F0EBFB00BF0837BD4680BD80B584B000AFF860B9607A607A68B968F86803F0D1FB00BF1037BD4680BD00BF80B483B000AF03462A
:4053C000FB71FEE780B487B000AF7860396000233B6100237B6127E07B699B007A6813441B68BB60BB68FB73BB6823F0FF03BB6014E03B695B003A6813441B781A46BB68D0
:40540000134419463B695B003A6813445B780B703B6901333B61FB7B013BFB73FB7B002BE7D17B6901337B617B69222BD4D900BF1C37BD4680BC704780B582B000AF454B03
:4054400000221A80444B50221A70444B19221A80434B18221A70434B19221A80424B18221A70424B1A221A80414B18221A70042240494148FFF790FF404B02221A704FF093
:40548000402308221A703E4B03221A703D4B3E4A1278D2B21A703D4B08221A803C4B41F251221A800023FB7019237B6014E0FB785B00DAB2374B1B78DBB203F00103DBB2C9
:4054C0001343DBB203F00303FB704FF4F07001F033FF7B68013B7B607B68002B02D0FB78032BE4D17B68002B02D10320FFF764FF294B4FF480721A80274B07221A70274B38
:4055000000221A70264B48221A70234B00221A70244B02221A70244B04221A70234A234B1B78DBB243F00F03DBB21370204A204B1B78DBB243F00103DBB213701D4A1D4BA9
:405540001B78DBB263F07F03DBB2137000BF0837BD4680BD80400040824000408440004086400040884000408A4000408C4000408E4000405C0900480041004000430040FF
:4055800000420040A146004008010049224200402042004025420040044000400640004008400040014000400B400040A2430040A1430040A043004080B483B000AF0B4B8D
:4055C0001B78FB710A4AFB7903F00703DBB21370084AFB791B09DBB21370074B44221A7000BF0C37BD4680BC704700BFCF0100496E5800406F5800407658004080B483B049
:4056000000AF0346FB71FB79012B24D8FA79FB791344FB71FB79124A52F82330FA79104951F822201178FA790E48825C0A43D2B21A70FB790133FB71FB79094A52F82330F9
:40564000FA79074951F822201178FA790548825C0A43D2B21A7000BF0C37BD4680BC7047F0B3000000B4000080B483B000AF0346FB71FB79012B28D8FA79FB791344FB71F6
:40568000FB79144A52F82330FA79124951F822201178FA791048825CD243D2B20A40D2B21A70FB790133FB71FB790A4A52F82330FA79084951F822201178FA790648825C0F
:4056C000D243D2B20A40D2B21A7000BF0C37BD4680BC7047F0B3000000B4000080B483B000AF0346FB71FB79012B0ED8FB79094A52F82330FA79074951F822201178FA796B
:405700000548825C0A43D2B21A7000BF0C37BD4680BC704704B400000CB4000080B483B000AF0346FB71FB79012B10D8FB790A4A52F82330FA79084951F822201178FA7970
:405740000648825CD243D2B20A40D2B21A7000BF0C37BD4680BC704704B400000CB4000080B586B000AF72B6514A514B1B78DBB243F00403DBB213700023FB7513E0FA7DBC
:4057800013465B0013445B004A4A13443B613B691A683B699B889BB219461046FFF7EEFDFB7D0133FB75FB7D062BE8D90023FB751CE0FA7D13469B0013445B003E4A13441B
:4057C000FB60FB681B68BB60FB685B687B60FB681A7A5B7A1B0213437B807B881A467968B868FFF7D9FDFB7D0133FB75FB7D002BDFD032494FF09040FFF7E4FD304B0A226C
:405800001A70304A2F4B1B78DBB243F00203DBB213702D4A2C4B1B78DBB243F00203DBB213702A4A294B1B78DBB243F04003DBB21370274A264B1B78DBB243F01003DBB2C9
:405840001370082223492448FFF7A6FD0A2223492348FFF7A1FD0A2222492348FFF79CFD082222492248FFF797FD0A2221492248FFF792FD214A214B1B78DBB243F008039F
:40588000DBB213701E4B60221A70FFF7D5FD1C4B80221A701B4B01221A70FFF78DFE0E220A491948FFF778FD00BF1837BD4680BDE846004010B400003CB400008C000048E1
:4058C000835800400350014013500140A0430040C2430040280900480251004030090048C05100403C090048F05100404809004812510040500900482051004022430040CE
:405900000048004004000840B043004080B500AF03F0F2F803461B680C2B00D1FEE7FEE780B584B000AF78600F4B1A687B6813441A460E4BD31A802B09DC0B4B1B68FB6091
:40594000094B1A687B681344074A136007E003F0D3F802460C2313604FF0FF33FB60FB6818461037BD4680BD4481FF1F3887FF1F80B586B000AF224B7B61224B3B61204B19
:405980007B6135E03B691B68FB603B695B68BB603B699B683B6000237B600CE0FB681A68BB681A60BB680433BB60FB680433FB607B6804337B607A683B689A42EED13B6921
:4059C000DB683B6000237B6008E0BB6800221A60BB680433BB607B6804337B607A683B689A42F2D13B6910333B617B69013B7B617B69002BC6D103F085F8FAF731FCFEE7FE
:405A000001000000F8B5000080B582B000AF184B184A1A60184A184B1B6843F40073136000237B600FE07B68032B04D8134A7B6852F8233000E0124B12497A6841F8223042
:405A40007B6801337B607B682F2BECD90E4B1B78DAB20E4B1A700E4B0A4A1A60FFF780FE0C4B00221A6000BF0837BD4680BD00BF0CED00E00004FA0514ED00E0000000008F
:405A80000D5900000080FF1FBC760040C480FF1F08ED00E0C080FF1F80B582B002AF324B01221A70314B00221A70102000F0FAFE102000F0DDFF07211D2001F017F92C4B80
:405AC00004221A702B4B00221A702B4B00221A702A4A2A4B1B78DBB243F01803DBB21370274B00221A70274B00221A70264B00221A70264B0A221A70254B00221A70254B3F
:405B000000221A70244B12221A70244B13221A70234B00221A70234B14221A700123009308234FF400424FF40041032000F016FA1D4A0D4B1B78DBB2013B1C499B000B449E
:405B40009B7813701A4A084B1B78DBB2013B174931F823301380044B1B78DBB2184600F04BF900BFBD4680BD4881FF1F6486FF1F96580040975800409E580040075B0040E9
:405B800093580040885B0040895B004080580040815800408358004088580040895800408D580040014E00400E4E00406C86FF1F0C4E004080B582B000AF01F0DCFB0346C5
:405BC000FB71444B1B78BB71434A434B1B78DBB243F00103DBB213703F4A3F4B1B78DBB243F01003DBB213703C4A3C4B1B78DBB243F00103DBB21370384A384B1B78DBB247
:405C000043F01003DBB21370354A354B1B78DBB243F00203DBB21370324A324B1B78DBB243F00203DBB213702F4A2F4B1B78DBB243F00303DBB21370032001F01BF8284A51
:405C4000274B1B78DBB223F00203DBB21370254A244B1B78DBB223F00203DBB21370234A224B1B78DBB243F00603DBB21370204B7A221A701F4A1F4B1B78DBB243F0010343
:405C8000DBB213701C4A1C4B1B78DBB243F00103DBB21370194A194B1B78DBB243F00103DBB21370164A164B1B78DBB243F00103DBB21370134B4FF000521A60124B4FF045
:405CC00000521A60FB79184601F059FB00BF0837BD4680BD4881FF1FAA430040BA430040F8460040F9460040915800407758004082580040A1430040B1430040A243004066
:405D0000B243004080E200E000E100E080B500AF084B1B78002B09D1074B1B78DBB2002B01D1FFF7B9FE034B01221A70FFF742FF00BF80BD6686FF1F6786FF1F80B400AF1A
:405D4000054A054B1B78DBB243F00103DBB2137000BFBD4680BC7047004E004080B400AF054A054B1B78DBB223F00103DBB2137000BFBD4680BC7047004E004080B483B067
:405D800000AF174B1B78DBB203F003037B717B79012B03D8134B1B88FB8011E0114B1B78DBB2FB80104B1B78DBB29BB21B029AB2FB881343FB807B79032B01D10B4B1B780C
:405DC0000B4B1B78DBB2002B02D00A4B00221A70B7F9063018460C37BD4680BC704700BF144E0040104E0040114E0040124E00406586FF1F6486FF1F80B582B000AF034604
:405E0000FB71384B00221A70FB79012B65D1364B34221A70354B04221A70354B06221A70344B00221A70344B00221A70334B0F221A70334B00221A70324B00221A70324BCF
:405E400000221A70314B01221A70314B14221A70304B04221A70304B18221A702F4B00221A702F4B11221A702E4B12221A702E4B00221A702D4B01221A702D4B11221A7094
:405E80002C4B19221A702C4B97221A70442000F01DF92A4B58221A70294B00221A70294B05221A70284B02221A70284B00221A70274B00221A70002000F022FC254B2A227C
:405EC0001A600121052000F02FFC0121B22000F011FD21491D2000F0E1FE00BF0837BD4680BD00BF6586FF1F004E0040024E0040034E0040044E0040054E0040064E0040F0
:405F0000084E0040094E00400A4E0040144E0040845800408558004086580040875800408A5800408B5800408C5800408E5800408F58004090580040915800409458004051
:405F4000955800409A5800409B5800409C5800409D5800402C87FF1F4961000090B587B000AF0446084611461A462346FB710346BB800B467B801346BB7197F82830002BF5
:405F800000F08B8097F82830012B00F28680FB79013B092B4AD801A252F823F0C55F00002D6000002D600000C55F00002D6000002D600000DF5F0000F95F00002D60000036
:405FC00013600000BB790F2B04D9374B1B78DBB2FB752EE0354B1B78DBB2FB7529E0BB790F2B04D9324B1B78DBB2FB7521E0314B1B78DBB2FB751CE0BB790F2B04D92E4B85
:406000001B78DBB2FB7514E02C4B1B78DBB2FB750FE0BB790F2B04D9294B1B78DBB2FB7507E0284B1B78DBB2FB7502E00023FB7500BFBA8897F917305B0113443B617B880E
:406040003A6902FB03F3FB60FB68DB0BBB82BB790D2B12D8BA8ABB79C3F10E0342FA03F3BB8297F82830013BBA790132D1B2164A9B0013440A469A7007E097F82830013BE5
:40608000114A9B0013440F229A7097F82830013B0D49BA8A21F8232002E0002000F0DEFD00BF1C37BD4690BD180100491C010049190100491D0100491A0100491E010049B2
:4060C0001B0100491F0100496C86FF1F80B584B000AF0346FB7101F04EF90346FB73174A164B1B78DBB243F00303DBB21370144A134B1B78DBB243F00303DBB21370114A5B
:40610000FB791370032000F0B5FD0C4A0B4B1B78DBB223F00303DBB21370094A084B1B78DBB223F00303DBB21370FB7B184601F026F900BF1037BD4680BD00BFF846004058
:40614000F94600409258004080B400AF00BFBD4680BC704780B582B000AF0023FB7106E0FB791846FFF780FAFB790133FB71FB79012BF5D9034BFF221A7000BF0837BD4695
:4061800080BD00BF4981FF1F80B582B000AF0346FB710A4B1B78FF2B04D0084B1B781846FFF762FAFB791846FFF728FA034AFB79137000BF0837BD4680BD00BF4981FF1FA1
:4061C00080B582B000AF786000F03CF8786800F009F8072000F018F800F028F800BF0837BD4680BD80B485B000AF7860054B1B68FB60FB6840337A681A6000BF1437BD46EA
:4062000080BC704708ED00E080B483B000AF0346FB71054AFB795B01DBB2137000BF0C37BD4680BC704700BF00E400E080B400AF034B01221A6000BFBD4680BC704700BFDF
:4062400000E100E080B400AF034B01221A6000BFBD4680BC704700BF80E100E080B400AF034B01221A6000BFBD4680BC704700BF80E200E080B500AF064B1B78002B04D18E
:4062800000F00AF8034B01221A7000F025F800BF80BD00BF7086FF1F80B400AF094B72221A70094B3E221A70084B06221A70084B47221A70074B02221A7000BFBD4680BC39
:4062C000704700BF8C6400408865004029640040396400408964004080B582B000AF01F04AF80346FB71104A0F4B1B78DBB243F02003DBB213700D4A0C4B1B78DBB243F0BB
:406300001003DBB213700A4A094B1B78DBB243F01003DBB21370FB79184601F030F800BF0837BD4680BD00BF9C640040986500409964004080B582B000AF01F01CF8034616
:40634000FB710C4A0B4B1B78DBB243F00103DBB21370084A074B1B78DBB223F00103DBB21370FB79184601F00AF800BF0837BD4680BD00BF9F64004080B483B000AF03464F
:40638000FB7100BF074B1B78DBB203F00403002BF8D1054AFB79137000BF0C37BD4680BC704700BF696400404A64004080B582B000AF00F0E0FF0346FB710C4A0B4B1B7881
:4063C000DBB243F00103DBB21370084A074B1B78DBB223F00103DBB21370FB79184600F0CEFF00BF0837BD4680BD00BF9A64004080B582B000AF786000F03CF8786800F032
:4064000009F8072000F018F800F028F800BF0837BD4680BD80B485B000AF7860054B1B68FB60FB6844337A681A6000BF1437BD4680BC704708ED00E080B483B000AF03465E
:40644000FB71054AFB795B01DBB2137000BF0C37BD4680BC704700BF01E400E080B400AF034B02221A6000BFBD4680BC704700BF00E100E080B400AF034B02221A6000BF73
:40648000BD4680BC704700BF80E100E080B500AF224A224B1B78DBB203F00103DBB213701F4A1F4B1B78DBB223F00303DBB213701C4A1C4B1B78DBB223F03003DBB21370A3
:4064C000184A184B1B78DBB243F03003DBB21370144A144B1B78DBB223F00F03DBB21370104A104B1B78DBB243F00F03DBB213700D4A0D4B1B78DBB243F00103DBB21370EF
:4065000045F6BF5000F064F845F6BF5000F072F8082000F041F800BF80BD00BF004F0040024F00400B4F0040014F004080B400AF0D4A0D4B1B78DBB243F00103DBB21370D2
:406540000A4A0A4B1B78DBB243F00103DBB21370074A074B1B78DBB243F00103DBB2137000BFBD4680BC7047A3430040B3430040004F004080B500AF064B1B78002B04D199
:40658000FFF784FF034B01221A70FFF7CFFF00BF80BD00BF7286FF1F80B483B000AF0346FB71044AFB79137000BF0C37BD4680BC704700BF034F004080B400AF034B1B78B5
:4065C000DBB21846BD4680BC704700BF034F004080B485B000AF0346FB80FB88FB81044AFB89138000BF1437BD4680BC704700BF044F004080B483B000AF0346FB80044AAF
:40660000FB88138000BF0C37BD4680BC704700BF064F004080B582B000AF786000F03CF8786800F009F8072000F018F800F028F800BF0837BD4680BD80B485B000AF7860B0
:40664000054B1B68FB60FB6884337A681A6000BF1437BD4680BC704708ED00E080B483B000AF0346FB71054AFB795B01DBB2137000BF0C37BD4680BC704700BF11E400E01B
:4066800080B400AF034B4FF400321A6000BFBD4680BC704700E100E080B400AF034B4FF400321A6000BFBD4680BC704780E100E080B500AF00F07AFA00F08AFA00BF80BD76
:4066C00080B500AFFFF7F4FF00BF80BD80B582B000AF0023FB7106E0FB791846FFF71EF8FB790133FB71FB79012BF5D9034BFF221A7000BF0837BD4680BD00BF4A81FF1F07
:4067000080B582B000AF0346FB71FFF7DFFFFB791846FEF7E3FF034AFB79137000BF0837BD4680BD4A81FF1F80B584B000AF03460A46FB8013467B7100F0CEF80346FB73C8
:4067400000F0A4F80346BB81FA88BB899A4200F08880464B1B78DBB203F00103FB72FB7B002B20D1BB89002B02D0FB88002B1AD1BB89002B0BD13E4AFB8813803D4A3D4BF5
:406780001B78DBB223F04003DBB2137069E0394A384B1B78DBB243F04003DBB21370344AFB8813805DE0FB7A002B33D0324B00221A70324B01221A70314B00221A70314AF4
:4067C000304B1B78DBB203F07F03DBB21370294B1B78DBB203F00803002B02D0FB88002B18D1294ABB891380234B07221A7000BF214B1B78DBB203F00103002BF8D11B4A4D
:406800001A4B1B78DBB223F00103DBB213701A4B00221A70154B1B78DBB203F00103002B13D0194AFB881380134A7B79002B01D0032300E00123137000BF0F4B1B78DBB26A
:4068400003F00103002BF8D10BE0094AFB8813800649064B1B78DAB2FB7A1343DBB20B70FFE700BF1037BD4680BD00BFA24300408040004082400040014000401040004024
:4068800014400040084000400240004080B400AF034B1B889BB21846BD4680BC704700BF8040004080B483B000AF0346FB710949084B1B78DBB25AB297F9073023F0070386
:4068C0005BB213435BB2DBB20B7000BF0C37BD4680BC70478240004080B400AF044B1B78DBB203F00703DBB21846BD4680BC70478240004080B584B000AF03460A46FB80C8
:4069000013467B7100F0CEF80346FB7300F0A4F80346BB81FA88BB899A4200F08880464B1B78DBB203F00103FB72FB7B002B20D1BB89002B02D0FB88002B1AD1BB89002B0A
:406940000BD13E4AFB8813803D4A3D4B1B78DBB223F04003DBB2137069E0394A384B1B78DBB243F04003DBB21370344AFB8813805DE0FB7A002B33D0324B00221A70324BF9
:4069800001221A70314B00221A70314A304B1B78DBB203F07F03DBB21370294B1B78DBB203F00803002B02D0FB88002B18D1294ABB891380234B07221A7000BF214B1B7818
:4069C000DBB203F00103002BF8D11B4A1A4B1B78DBB223F00103DBB213701A4B00221A70154B1B78DBB203F00103002B13D0194AFB881380134A7B79002B01D0032300E0AC
:406A00000123137000BF0F4B1B78DBB203F00103002BF8D10BE0094AFB8813800649064B1B78DAB2FB7A1343DBB20B70FFE700BF1037BD4680BD00BFA14300400041004015
:406A400002410040014000401440004010400040084000400240004080B400AF034B1B889BB21846BD4680BC704700BF0041004080B483B000AF0346FB710949084B1B782C
:406A8000DBB25AB297F9073023F007035BB213435BB2DBB20B7000BF0C37BD4680BC70470241004080B400AF044B1B78DBB203F00703DBB21846BD4680BC704702410040B3
:406AC00080B582B000AF00F035F94FF0FF337B6000F0B0F90346002B24D1012000F078F90346072B1BD10221124800F047F90346022B0DD100237B6002E0012000F0BAF887
:406B00000D4B1B78DBB203F00203002BF5D006E0094B1B78DBB203F00203002BE3D000F0BDF901E004237B607B6818460837BD4680BD00BF3087FF1F2247004080B582B0D8
:406B400000AF00F0F7F800F075F90346002B23D100F0CCF978607B68072B1AD102E0012000F088F8104B1B78DBB203F00203002BF5D00D4B1B78DBB203F00203002B08D0EB
:406B8000094B1B78DBB29B08DBB2002B01D100237B6000F083F901E004237B607B6818460837BD4680BD00BF2247004080B582B000AFFFF7C3FF78607B68002B02D1FFF742
:406BC0007FFF78607B6818460837BD4680BD00BF80B582B000AF00F0CEFB0346FB71194A184B1B78DBB243F00803DBB21370164A154B1B78DBB243F00803DBB21370134B7C
:406C0000C8221A70124A124B1B78DBB243F01003DBB213700F4A0F4B1B78DBB243F01003DBB2137000BF0C4B1B78DBB203F02003002BF8D0FB79184600F0A1FB00BF0837ED
:406C4000BD4680BDA0430040B043004001470040AC430040BC4300400047004080B483B000AF0346FB7101BE00BF0C37BD4680BC704700BF80B582B000AF0346FB80FB8863
:406C8000054A127802FB03F3184600F055FB00BF0837BD4680BD00BF5481FF1F80B584B000AF03463960FB710F4B1B68FB60FB791F2B02D90020FFF7D1FFFB7903F01F03D4
:406CC00010339B00FA6813441B68BB60FB7903F01F0310339B00FA6813443A681A60BB6818461037BD4680BD08ED00E080B582B000AF03460A46FB711346BB71BB79072B40
:406D000002D90020FFF7AAFFFB791F2B02D90020FFF7A4FFFB7903F01F0303F1604303F56443BA795201D2B21A7000BF0837BD4680BD00BF80B582B000AF00F01CFB0346B1
:406D4000FB710C4A0B4B1B78DBB243F00803DBB21370094A084B1B78DBB243F00803DBB21370FB79184600F00AFB00BF0837BD4680BD00BFA0430040B043004080B584B0F6
:406D800000AF78600B46FB700023FB7313E00120FFF770FF0C4B1B78DBB203F00103002BF5D0FB7B7A681344084A1278D2B21A70FB7B0133FB73FA7BFB789A42EAD3FB7B80
:406DC00018461037BD4680BD224700402047004080B485B000AF0346FB710723FB60134B1B78DBB203F00203002B16D0104BB6221A700F4BE1221A700D4B0E221A700B4B79
:406E00001B78DBB203F00203002B03D1084AFB79137004E00923FB6001E00423FB60FB6818461437BD4680BC704700BF224700402047004080B582B000AF04237B6000F00B
:406E40009AFA0346FB70124B1B78002B16D1104B01221A7000237B600E4B1B6803F00103002B0BD00B4A0B4B1B6823F00103136000BF00BF00BF084B01221A60FB78184633
:406E800000F07DFA7B6818460837BD4680BD00BF7486FF1F040008407886FF1F80B582B000AF00F068FA0346FB710D4B00221A700C4B1B68012B0BD10B4A0B4B1B6843F008
:406EC0000103136000BF00BF00BF064B00221A60FB79184600F053FA00BF0837BD4680BD7486FF1F7886FF1F0400084080B483B000AF07237B600C4B1B78DBB203F002039A
:406F0000002B09D0094BB6221A70084BE0221A70064B0D221A7001E004237B607B6818460C37BD4680BC7047224700402047004080B500AF064B1B78002B04D100F00AF847
:406F4000034B01221A7000F025F800BF80BD00BF7C86FF1F80B400AF094B72221A70094B20221A70084B06221A70084B47221A70074B00221A7000BFBD4680BC704700BFFC
:406F80008E6400408D6400402B6400403B6400408864004080B582B000AF00F0ECF90346FB71114A104B1B78DBB243F02003DBB213700E4A0D4B1B78DBB243F01003DBB215
:406FC00013700B4A0A4B1B78DBB243F01003DBB2137000F06DF8FB79184600F0D0F900BF0837BD4680BD00BF9E6400409D6400409864004080B582B000AF00F0BCF903464E
:40700000FB710C4A0B4B1B78DBB243F00103DBB21370084A074B1B78DBB223F00103DBB21370FB79184600F0AAF900BF0837BD4680BD00BF9E64004080B483B000AF0346E3
:40704000FB7100BF074B1B78DBB203F00403002BF8D1054AFB79137000BF0C37BD4680BC704700BF686400404864004080B582B000AF00F080F90346FB710C4A0B4B1B781D
:40708000DBB243F00103DBB21370084A074B1B78DBB223F00103DBB21370FB79184600F06EF900BF0837BD4680BD00BF9864004080B400AF094A094B1B78DBB243F00403CB
:4070C000DBB21370064A064B1B78DBB243F00403DBB2137000BFBD4680BC7047A2430040B243004080B500AF064B1B78002B04D100F00AF8034B01221A7000F025F800BFE5
:4071000080BD00BF7E86FF1F80B400AF094B72221A70094B20221A70084B06221A70084B47221A70074B00221A7000BFBD4680BC704700BF8B6500408A6500402A650040D1
:407140003A6500408A64004080B582B000AF00F012F90346FB71114A104B1B78DBB243F02003DBB213700E4A0D4B1B78DBB243F01003DBB213700B4A0A4B1B78DBB243F0DD
:407180001003DBB2137000F06DF8FB79184600F0F6F800BF0837BD4680BD00BF9B6500409A6500409A64004080B483B000AF0023FB710C4B1B78BB71BB7903F02003002BBD
:4071C00009D0094B1B78FB71BB7903F01E03002B01D00023FB71FB7918460C37BD4680BC704700BF6A6500404865004080B483B000AF0346FB7100BF074B1B78DBB203F0DB
:407200000403002BF8D1054AFB79137000BF0C37BD4680BC704700BF6A6400404965004080B584B000AF78600023FB810C4B1B78002B10D009E0FB897A6813441B7818463F
