:400000000080002011000000714800007148000080B500AF024A034B1B68136004F05AFCBC760040FA46004010B5054C237833B9044B13B10448AFF300800123237010BD4B
:40004000C081FF1F00000000A8770000084B10B51BB108490848AFF300800848036803B910BD074B002BFBD0BDE81040184700BF00000000C481FF1FA8770000C880FF1FD4
:400080000000000080B584B000AFF860B9607A603B604FF00001F86806F09EFE0346002B01D02D2200E020223B681A704FF00001F86806F091FE0346002B03D0FB6883F0EB
:4000C0000043FB60F86806F0C5FE03461AB2BB681A80BB68B3F90030184606F08BFC03461946F86806F0D0FB03460F49184606F0D5FC0346184606F0ADFE03461AB27B68CE
:400100001A807B68B3F90030002B08DA7B68B3F900309BB25B429BB21AB27B681A8000BF1037BD4680BD00BF0000C84290B591B000AFF860B9607A603B60FB68DB68FB63EC
:40014000FB681B69BB63FB685B697B63FB689B693B63B96BF86B06F0A1FC03461C46396B786B06F09BFC03461946204606F08EFB03461946184606F089FB0346FB62B96BC0
:40018000B86B06F08BFC03461C46796B786B06F085FC03461946204606F078FB03461946184606F073FB034619464FF07E5006F06BFB0346BB62B96AF86A05F005FE034698
:4001C0004549184606F06AFC03467B62796BF86B06F064FC03461C46B96B386B06F05EFC03461946204606F04FFB03461946184606F04CFB03463B624FF07E51386A06F015
:40020000FFFD0346002B01D0344B11E03449386A06F0ECFD0346002B01D0324B08E0386A05F080FD03462C49184606F037FC0346FB61396BF86B06F031FC03461C46796BAE
:40024000B86B06F02BFC03461946204606F01EFB03461946184606F019FB0346BB61796B786B06F01BFC03461C46396B386B06F015FC03461946204606F008FB0346194630
:40028000184606F003FB034619464FF07E5006F0FBFA03467B617969B86905F095FD03460D49184606F0FAFB03463B61BB683A6879683869FFF7E6FE3B6DBA6D796DF86999
:4002C000FFF7E0FEFB6D7A6E396E786AFFF7DAFE00BF4437BD4690BDE62E65420000B442000080BF0000B4C280B483B000AF0346FB71FB79012B02D0022B02D003E0054B24
:4003000002E0054B00E0054B18460C37BD4680BC704700BFAC770000B4770000BC77000080B582B000AF03460A46FB711346BB71FA79BB799A4221D0BB79012B06D11148E0
:4003400004F076FF104804F073FF18E0BB79022B03D10E4804F06CFF11E0BB79032B03D10B4804F065FF0AE0BB79002B07D1FB79002B04D0074804F05BFF00E000BF083793
:40038000BD4680BDC4770000107800005078000080780000C878000080B582B000AF78600B46FB70FB78184605F076F800BF0837BD4680BD80B582B000AF134B1B78FB71AB
:4003C000FB7903F01E03002B07D0FB7903F01E03DBB219460D4801F095FBFB7903F02003002B07D00A4B1B78BB71BB791946074801F0A0FBFB7903F02003002BDDD100BFF9
:400400000837BD4680BD00BF69640040DC81FF1F4964004080B500AF044B1B680133034A136005F059F900BF80BD00BF5C83FF1F80B584B000AFF860B9607A603B607B687F
:400440001B78002B05D0F86801F034FC0C4804F0EFFEBB6800221A707B6800221A703B6800221A70BB6900221A70782001F048F8044804F0DDFE00BF1037BD4680BD00BFCD
:40048000E0780000FC7800002DE9F043FDB00EAF002387F8DB30002387F8DA30002387F8D930002387F8B731002387F8D8304FF00003C7F8CC304FF00003C7F8D030002364
:4004C00087F8B631002387F8B5311BE097F8B52107F1A803002123F8121097F8B53107F1A8025B001344FF229A8097F8B52107F1A8030432802123F8121097F8B5310133E4
:4005000087F8B53197F8B531012BDFD907F1A80300221A730123C7F8B03162B604F0EAFD7D4804F085FE7D4804F082FE7C4804F07FFE7C4804F07CFE7B4804F079FE78482A
:4005400004F076FE04F026FF04F084FF04F0BEFF7649774801F0A0FA764804F0D9FF764804F066FE07F1A803D7F8B011184600F051FF00F089FC714804F05AFE05F08AF867
:400580006F4805F0D7F86F4804F052FE04F014FE034687F8AF3197F8AF316A2B03D097F8AF314A2B1AD197F8DB30002B0CBF01230023DBB287F8DB3097F8DB30002B02D0EC
:4005C000012387F8B73197F8DB30002B01D05E4B00E05E4B184604F02BFED0E097F8AF316D2B03D097F8AF314D2B1AD197F8DA30002B0CBF01230023DBB287F8DA3097F856
:40060000DA30002B02D0012387F8B73197F8DA30002B01D04E4B00E04E4B184604F008FEADE097F8AF316C2B03D097F8AF314C2B24D197F8D830002B03D1012387F8D830A7
:400640000AE097F8D830012B03D1022387F8D83002E0002387F8D83097F8D8301846FFF743FE024607F1DC033B49184606F078FC07F1DC03184604F0DBFD80E097F8AF315A
:400680006B2B03D097F8AF314B2B0DD107F1D90007F1DA0207F1DB0107F1D803009303462348FFF7C5FE6AE097F8AF31782B03D097F8AF31582B13D107F1D90007F1DA0218
:4006C00007F1DB0107F1D803009303461848FFF7AFFE002387F8B731204804F0A9FD4EE097F8AF31732B03D097F8AF31532B3BD197F8D930002B0CBF01230023DBB287F800
:40070000D93097F8D930002B01D0154B00E0154B184604F08DFD32E01C7900004C790000707900009C790000C4790000D8780000DC81FF1FB5030000E4790000007A00009F
:4007400015040000207A00003C7A0000507A0000687A0000807A0000987A0000AC7A0000DC7A0000F47A000097F8AF31632B03D097F8AF31432B02D1632000F0C1FE00F0CC
:40078000F7FE034687F8AE3197F8AE2197F8B63111461846FFF7C4FD97F8AE3187F8B631A94801F0E3F907F1D403184600F0D4FB0346002B67D007F1D403184600F07CFE9D
:4007C00007F1CC03184600F0E7FE97F8D930002B3BD0D7F8CC309D49184606F05FF90346184606F037FB0346A7F8AC31D7F8D0309649184606F052F90346184606F02AFB31
:400800000346A7F8AA31B7F9D430184600F0DAFBC7F8A401B7F9D630184600F0D3FBC7F8A001B7F9AC31B7F9AA2107F1DC0001920093D7F8A031D7F8A421854906F090FB03
:4008400007F1DC03184604F0F3FC00F091FE0346022B18D100F096FE0346A7F89E31B7F89E3103F007039BB2002B0CD1B7F89E2107F1DC002023774906F072FB07F1DC03F8
:40088000184604F0D5FC07F1B8030122DA7307F1B80300221A7497F8DB30002B24D000F067FE0346002B1FD197F8D82007F1B8031A7397F8D82007F1B8035A7307F1B8039C
:4008C00000229A73D7F8CC2007F1B8031A60D7F8D03083F0004207F1B8035A6007F1B8034FF000029A601AE007F1B80300221A7307F1B80300225A7307F1B80300229A7322
:4009000007F1B8034FF000021A6007F1B8034FF000025A6007F1B8034FF000029A6097F8DA30002B18D000F023FE0346002B13D1494B1A68494B1B68D31A632B0CD9464B7A
:400940001B68464A136007F1B80319463E4801F097F93D4801F0C4F997F8B731002B3FF415AE00F005FE0346002B7FF40FAE3A4B1A683B4B1B68D31AB3F57A7FFFF406AE31
:40098000354B1B68364A1360334B1B68C7F89831D7F89831334AA2FB03239A09324BA3FB021359090B461B015B1A9B00D31AC7F89431D7F898312D4AA2FB03239A0B2A4BD1
:4009C000A3FB021359090B461B015B1A9B00D31AC7F89031D7F89831254AA2FB03235B0DC7F88C3107F1DC00D7F894310093D7F89031D7F88C211F4906F0B2FA07F1DC0362
:400A0000184604F015FC07F1900319460E4801F0CBF907F190031C6807F190039D6807F19003DB6807F19002927D164697F8DA20002A01D0104A00E0104A97F8DB10002941
:400A40001ED00D491DE000BFDC81FF1F00007A440C7B00003C7B00005C83FF1F6083FF1F6483FF1FD34D62108988888873B2E745B17C21955C7B0000747B0000787B00005C
:400A8000C34907F1DC0003910292019600932B462246C04906F064FA07F1DC03184604F0C7FB07F120031946BB4801F05DF907F120031B78002B00F0D78007F17E0407F18D
:400AC000800207F1850107F1200007F17603059307F17803049307F18303039307F17A03029307F17C03019307F1840300932346FFF71CFB07F120035B68184606F0AAF945
:400B00000346A7F88A3107F120035C68B7F98A31184605F06FFF03461946204605F0B4FE03469E49184605F0B9FF0346184606F091F90346A7F8883107F120039B681846D3
:400B400006F088F90346A7F8863107F120039C68B7F98631184605F04DFF03461946204605F092FE03468D49184605F097FF0346184606F06FF90346A7F8843107F12003E2
:400B80001B7F9B09DBB203F0010387F8833107F120031B7F1B09DBB203F0010387F8823107F120035B7F1B09DBB203F0010387F8813107F185031B789C4607F18003B3F9C7
:400BC0000030984607F17E03B3F90030FB6107F184031B78BB6107F17C03B3F900307B6107F17A03B3F900303B6107F183031B78FB6007F17803B3F90030BB6007F17603A5
:400C0000B3F900307B60B7F98A01B7F98841B7F98651B7F9846197F8831197F8822197F8813107F1DC0E0D930C920B910A960995089407907A680692BA680592FA6804923F
:400C40003A6903927A690292BA690192FB690093434662465249704606F082F907F1DC03184604F0E5FA02E04E4804F0E1FA07F120039B7F002B00F09B8007F120035B6B8A
:400C80004949184605F00AFF0346184606F0E2F80346A7F87E3107F12003186A07F1750307F16E0207F17001FFF7ECF907F12003586A07F1740307F16A0207F16C01FFF774
:400CC000E1F907F12003986A07F1720307F1660207F16801FFF7D6F907F12003D86A07F1730307F1620207F16401FFF7CBF907F175031B789E4607F17003B3F900309C46BC
:400D000007F16E03B3F900301A4607F174031B78194607F16C03B3F900301C4607F16A03B3F900301D4607F172031B781E4607F16803B3F90030FB6107F16603B3F9003028
:400D4000BB6107F16403B3F900307B6107F16203B3F900303B61B7F97E3107F1DC0009933B6908937B690793BB690693FB69059304960395029401910092634672460B4985
:400D800006F0EEF807F1DC03184604F051FA12E0787B00007C7B0000DC81FF1F00002041C87B0000387C00000000C8425C7C00002C4804F03DFAD7F8CC0007F18F0307F196
:400DC0008A0207F18C01FFF75DF9D7F8D00007F18E0307F1860207F18801FFF753F907F18F031B78984607F18C03B3F90030994607F18A03B3F900301C4697F8D830184636
:400E0000FFF772FA054607F18E031B781E4607F18803B3F90030FB6107F18603B3F90030BB6197F8D8301846FFF75EFA034607F1DC000593BA690492FB6903930296019578
:400E400000944B464246084906F08AF807F1DC03184604F0EDF9054B002283F87220FFF795BB00BFB47C0000CC7C0000DC81FF1F80B500AF04F082FA024B01221A7000BF69
:400E800080BD00BF6883FF1F80B582B000AF62B603F0EEFE04F0EEF9114804F021FA114B00221A70104B00221A70104B00221A700023FB7107E0FB790D4A002122F8131028
:400EC000FB790133FB71FB79012BF4D9002004F0EBF903F0E5FE00BF0837BD4680BD00BF710E00006A83FF1F6883FF1F6983FF1F6C83FF1F98B500AF03F0E2FE134B1B783C
:400F0000DBB21C4603F0ECFE03461A46104B23F814200E4B1B78DBB2012B06D10D4B01221A700A4B00221A7006E0084B1B78DBB20133DAB2054B1A70044B1B78DBB2184650
:400F400004F0B2F903F0ACFE00BF98BD6A83FF1F6C83FF1F6983FF1F80B584B000AF7860154B1B78DBB2002B04D0134B00221A70FFF7C0FF114B1B78DBB2002B17D00F4BE9
:400F800000221A700023FB730CE0FB7B5B007A681344FA7B0A4931F8122012B21A80FB7B0133FB73FB7B012BEFD9012300E0002318461037BD4680BD6883FF1F6983FF1FDC
:400FC0006C83FF1F80B582B000AF0346FB80B7F90630184603F0C2FE034618460837BD4680BD00BF90B585B000AF0446084611461A462346FB800346BB800B467B801346A9
:401000003B80B7F90620B7F904309A4201DABB88FB80B7F90620B7F900309A4201DD3B88FB803A887B88D31A9BB2FB817A88BB88D31A9BB2BB81B7F90E30002B01DC0123C8
:40104000FB81B7F90C30002B01DC0123BB81B7F90620B7F902309A4214DBB7F90620B7F90230D31A184605F0C5FC0446B7F90E30184605F0BFFC03461946204605F0C2FD5C
:40108000034613E0B7F90620B7F90230D31A184605F0B0FC0446B7F90C30184605F0AAFC03461946204605F0ADFD034618461437BD4690BD90B583B000AF786039603B68F7
:4010C00083F000437968184605F086FE0346002B09D03968786805F07FFE0346002B02D04FF000032AE04FF00001786805F092FE0346002B11D03968786805F0C5FB034637
:401100001C4639684FF07E5005F0BEFB03461946204605F077FD034610E03968786805F0B5FB03461C4639684FF07E5005F0ACFB03461946204605F065FD034618460C37D7
:40114000BD4690BD80B485B000AF78600023FB7331E0FB7B7A685B001344B3F904309AB2F97B7B6833F911309BB2D31A9BB2BB81B7F90C30132B01DC002320E0FA7B7B684E
:4011800033F91220F97B7B68043133F911309A420CDAFA7B7B68043233F91220FB7B79685B000B44B3F904309A4201DB002306E0FB7B0133FB73FB7B012BCAD901231846A9
:4011C0001437BD4680BC704790B484B000AF78601B4A1C4B14460FCB07C423800023FB7323E0FB7BFA7B520079680A44B2F90010134A22F81310FB7BFA7B520079680A4480
:40120000B2F900100E4A5B0013440A469A80FB7BFA7B520079680A44B2F90010084A043322F81310FB7B0133FB73FB7B012BD8D9054B01221A7000BF1037BD4690BC70471E
:401240009083FF1F8083FF1F9E83FF1F80B485B000AF7860214B1B78012B39D10023FB7332E0FB7B5B007A681344B3F90020FB7B1B4931F913309A4209DAFB7BFA7B5200FC
:4012800079680A44B2F90010154A22F81310FB7B5B007A681344B3F90020FB7B10495B000B44B3F904309A420BDDFB7BFA7B520079680A44B2F90010094A5B0013440A4639
:4012C0009A80FB7B0133FB73FB7B012BC9D900E000BF1437BD4680BC704700BF9E83FF1F9083FF1F80B483B000AF0023FB7107E0FB790A4A002142F82310FB790133FB7173
:40130000FB79012BF4D9064B00221A80054B02221A7000BF0C37BD4680BC7047A883FF1FB083FF1F9E83FF1F80B485B000AF7860234B1B78022B3DD10023FB7311E0FB7B40
:40134000FA7B204951F82220F97B490078680144B1F900100A441B4941F82320FB7B0133FB73FB7B012BEAD9174B1B8801339AB2154B1A80144B1B881F2B1CD90023BB73AC
:4013800011E0BA7BBB7B0F4951F82330002B00DA1F335B1118B20D49131D024621F81320BB7B0133BB73BB7B012BEAD9044B03221A7000E000BF1437BD4680BC704700BFDC
:4013C0009E83FF1FA883FF1FB083FF1F9083FF1F98B500AF0B48FFF7B5FE0346002B03D10948FFF7F1FE0BE0084A064B14460FCB07C42380054B01221A73054B00221A7041
:4014000098BD00BF9083FF1FA083FF1F8083FF1F9E83FF1F90B484B000AF786039601F4B7A68144620686168A26807C3A2891A801B4B7A68144620686168A26807C3A289AC
:401440001A80174B00221A73164B7A68144620686168A26807C3A2891A80134A3B6813600023FB730BE0FB7BF97B7A68043132F911100E4A22F81310FB7B0133FB73FB7BDB
:40148000012BF0D90A4B00221A700A4B00221A8000BF1037BD4690BC704700BF7083FF1F8083FF1F9083FF1FA483FF1FA083FF1F9E83FF1FB083FF1F80B584B000AF7860F1
:4014C0000023FB730CE0FB7BFA7B520079680A44B2F90010094A22F81310FB7B0133FB73FB7B012BEFD97868FFF7B0FE7868FFF71BFF00BF1037BD4680BD00BFA083FF1F7C
:4015000080B582B000AF0346FB71FB79782B02D0FB79582B03D1144B00221A7020E0FB79632B02D0FB79432B19D10F4B1B78002B03D10E48FFF748FE12E00B4B1B78012BFC
:4015400002D1FFF7CFFE0BE0074B1B78022B07D0054B1B78032B03D1FFF73AFF00E000BF0837BD4680BD00BF9E83FF1FA083FF1F80B400AF024B1B781846BD4680BC704779
:401580009E83FF1F80B400AF024B1B881846BD4680BC7047B083FF1F90B587B000AF7860224B7B612248FFF7CDFD0346002B01D01F4B7B610023FB7430E0FB7C1D4A32F9C8
:4015C0001300FA7C7B6933F91210FA7C7B69043233F91240FB7C7A695B001344B3F904302246FFF7FFFCF8601349F868FFF762FDF860124B1A68FB7C22FA03F303F00103BD
:40160000002B03D0FB6883F00043FB60FA7C7B68F96843F82210FB7C0133FB74FB7C012BCBD900BF1C37BD4690BD00BF7083FF1F8083FF1FA083FF1FCDCC4C3DA483FF1FB5
:4016400080B483B000AF0346FB80FB880133FB80FB88FF2B01D90023FB80FB8818460C37BD4680BC704700BF80B483B000AF78607B680022A3F800217B680022A3F80221EE
:401680007B680022A3F8042100BF0C37BD4680BC704700BF80B584B000AF78600B46FB707B68B3F800319BB21846FFF7C9FF0346FB817B68B3F802319BB2FA899A420AD1CD
:4016C0007B68B3F804319BB201339AB27B68A3F8042100230CE07B68B3F800319BB219467B68FA785A547B68FA89A3F80021012318461037BD4680BD80B582B000AF786021
:4017000039607B68B3F800319AB27B68B3F802319BB29A4201D1002316E07B68B3F802319BB21A467B689B5CDAB23B681A707B68B3F802319BB21846FFF782FF03461A46A3
:401740007B68A3F80221012318460837BD4680BD80B58AB000AF7860684B7B627B6ADB68042B40F0C3807B6A1B89162B40F2C0807B6ADB6E3B623B6A002B00F0BB803B6AD0
:40178000591C07F11C030422184605F0D5FB3B6A591D07F118030422184605F0CDFB3B6A03F1090107F114030422184605F0C4FB3B6A03F10D0107F112030222184605F0D0
:4017C000BBFB3B6A03F10F0107F110030222184605F0B2FB3B6A03F1110107F10E030222184605F0A9FB3B6A03F1130107F10C030222184605F0A0FB3B6A03F1150107F11F
:401800000A030222184605F097FBBB69184605F0F1F803463A49184605F0F4F903461A467B681A62FB69184605F0E4F803463449184605F0E7F903461A467B685A627B6966
:40184000184605F0D7F803462E49184605F0DAF903461A467B689A62B7F91230184605F0C9F803462849184605F0CCF903461A467B68DA62B7F91030184605F0BBF80346F9
:401880002249184605F0BEF903461A467B681A63B7F90E30184605F0ADF803461A49184605F0B0F903461A467B685A63B7F90C30184605F09FF803461349184605F0A2F96A
:4018C00003461A467B689A63B7F90A30184605F091F803460C49184605F094F903461A467B68DA637B6801229A7704E000BF02E000BF00E000BF2837BD4680BDF083FF1F28
:401900008096184B00007A440000C8420000204180B483B000AF78607B68DB7B002B2ED1444B00221A75434B00221A77414B002283F824203F4B002283F82C203D4B0022A9
:4019400083F834203B4B002283F83C20394B4FF000021A61374B4FF000029A61354B4FF000021A62334B4FF000029A62314B4FF000021A632F4B4FF000029A6330E07B683E
:401980001A7B2C4B1A757B685A7B2A4B1A777B689A7B284B83F824207B681B68254A13617B685B68234A93617B689B68214A1362204B002283F82C201E4B002283F83420E0
:4019C0001C4B002283F83C201A4B4FF000029A62184B4FF000021A63164B4FF000029A637B681B7C002B01D0012200E00022114B1A73104B00225A730E4B002283F8402001
:401A00000C4B002283F841200A4B002283F84220084B002283F84320064B002283F84420044B002283F8452000BF0C37BD4680BC704700BFCC80FF1F80B483B000AF7860F8
:401A4000144B9A6C7B685A60124BDA6C7B689A60104B1A6E7B68DA600E4B5A6D7B681A610C4B9A6D7B685A610A4BDA6D7B689A61084B93F850207B681A77064B93F85120E1
:401A80007B685A777B6801221A7000BF0C37BD4680BC7047CC80FF1F80B582B000AF786039607B68002B26D03B68002B23D03B685B68002B1FD04FF4C0720021786805F049
:401AC00046FA7B683A6892E8030083E803007B6874331846FFF7C8FD7B6800221A777B68002283F83A207B680022C3F87C21044B1B68984700E000BF0837BD4680BD00BF38
:401B0000CC80FF1F80B483B000AF78600B46FB707B68002B09D07B6893F87220FB781343DAB27B6883F8722000E000BF0C37BD4680BC704780B582B000AF78600B46FB70E3
:401B40007B68002B0ED07B687433FA7811461846FFF7A0FD7B68B3F878319AB27B68A3F8702000E000BF0837BD4680BD80B58CB002AF78607B68002B7AD03F4BD3F880302F
:401B80007B621DE07B68DB6E5A1C7B68DA66FB7D1946002001F00AFA03463B623B6A002B0ED07B685B6E5A1C7B685A667B681C331846FFF741FF7B681C331846FFF7C8FD30
:401BC0007B68743307F1170211461846FFF794FD0346002BD6D1284BD3F88030FB61FA697B6A9A4207D97B689A6EF9697B6ACB1A1A447B689A667B68B3F878319AB27B68E7
:401C0000A3F8702002F0D8FAB8617B68D3F87C31BA69D31AC72B2CD97B68BA69C3F87C2107F11003184601F031FD02233B756B4607F114021268114619800233120C1A7079
:401C40003B69002204210D4801F08AFD06E07B685B687A681268F97B1046984707F10F031946012002F006FB0346002BEFD100E000BF2837BD4680BDEC83FF1FE483FF1F1A
:401C8000B0B483B000AF786039607B68002B0CD03B68002B09D07B683A6803F1080415460FCD0FC42B68236000E000BF0C37BD46B0BC704780B582B000AF78607B68002B33
:401CC00009D07B6801221A76786800F009F87B6800221A7600E000BF0837BD4680BD00BF80B584B000AF78607B68002B03D07B685B68002B01D1012330E07B68083318460E
:401D0000FFF706FE174B5B6898470023FB6009E07B685B687A681268F97A10469847FB680133FB6007F10B031946012002F0A2FA0346002BECD17B68DB6D5A1C7B68DA659A
:401D40007B681A6EFB681A447B681A667B6893F87230002B14BF01230023DBB218461037BD4680BDCC80FF1FB0B483B000AF786039607B68002B12D03B68002B0FD03A68AD
:401D80007B68154603F11C040FCC0FC50FCC0FC50FCC0FC594E80F0085E80F0000E000BF0C37BD46B0BC7047B0B483B000AF786039607B68002B15D03B68002B12D07B6878
:401DC000B3F878319AB27B68A3F870203A687B68154603F15C040FCC0FC594E8030085E8030000E000BF0C37BD46B0BC704700BF80B483B000AF7860034A7B68136000BF4C
:401E00000C37BD4680BC7047E083FF1F80B400AF044B1B680133034A136000BFBD4680BC704700BFE083FF1F80B400AF024B1B681846BD4680BC7047E083FF1F80B400AFDF
:401E4000034B00221A7000BFBD4680BC704700BFD883FF1F80B400AF034B02221A7000BFBD4680BC704700BFD883FF1FF0B587B000AFF860B9607A6051E0FB681B687968E1
:401E8000184604F00BFE03461E46FB681B68012214464FF00001184604F0BCFF0346002B01D100231C46E3B21C46FB681B68012215464FF00001184604F08EFF0346002BB1
:401EC00001D100231D46EBB2E31A184604F092FD03464FF07C51184604F0E0FD03461946304604F0D3FC0346184604F0B3FF0346FB820F4B1B685A1C0D490A60B7F916209E
:401F0000121212B2D2B21A70094B1B685A1C08490A60FA8AD2B21A70FB680433FB60BB685A1EBA60002BA8D100BF1C37BD46F0BDE083FF1F80B586B000AFF860B9607A601B
:401F40003B60564B1B78012B40F09E804EE0544B1B681B78DBB21B021BB21A46504B1B6801331B78DBB21343184604F043FD03467B614B4B1B680233494A1360396A786907
:401F800004F08CFD03467B61FB681B687969184604F07CFC03461A46FB681A60FB681B687968184604F036FF0346002B02D0FB687A681A60FB681B683968184604F00CFF30
:401FC0000346002B02D0FB683A681A60FB681B681946184604F028FF0346002B03D0FB684FF000021A60FB680433FB60BB685A1EBA60002BABD14CE0294B1B681B78DBB265
:402000001B021BB21A46264B1B6801331B78DBB21343184604F0EEFC03463B61204B1B6802331F4A1360396A386904F037FD03463B61FB683A691A60FB681B6879681846A2
:4020400004F0E8FE0346002B02D0FB687A681A60FB681B683968184604F0BEFE0346002B02D0FB683A681A60FB681B681946184604F0DAFE0346002B03D0FB684FF00002CD
:402080001A60FB680433FB60BB685A1EBA60002BB2D100BF1837BD4680BD00BFD883FF1FE083FF1F80B485B000AF7860396018E07B681B88FB81104B1B685A1C0E490A60AF
:4020C000B7F90E20121212B2D2B21A700A4B1B685A1C09490A60FA89D2B21A707B6802337B603B685A1E3A60002BE1D100BF1437BD4680BC704700BFE083FF1F80B586B041
:4021000000AFF860B9607A603B60514B1B78012B40F0948049E04F4B1B681B78DBB21B021AB24C4B1B6801331B78DBB21BB21343FB82484B1B680233464A1360FB68B3F9B1
:4021400000309AB2FB8A13449BB21AB2FB681A80FB68B3F90030184604F04CFC03467968184604F057FE0346002B06D0786804F071FE03461AB2FB681A80FB68B3F9003069
:40218000184604F037FC03463968184604F024FE0346002B06D0386804F05CFE03461AB2FB681A80FB680233FB60BB685A1EBA60002BB0D147E0274B1B681B78DBB21B0245
:4021C0001AB2244B1B6801331B78DBB21BB21343BB82204B1B6802331E4A1360FB68BA8A1A80FB68B3F90030184604F003FC03467968184604F00EFE0346002B06D07868EC
:4022000004F028FE03461AB2FB681A80FB68B3F90030184604F0EEFB03463968184604F0DBFD0346002B06D0386804F013FE03461AB2FB681A80FB680233FB60BB685A1E55
:40224000BA60002BB7D100BF1837BD4680BD00BFD883FF1FE083FF1F80B483B000AF786039600AE00A4B1B685A1C09490A607A6812781A707B6801337B603B685A1E3A6072
:40228000002BEFD100BF0C37BD4680BC704700BFE083FF1F80B487B000AFF860B96011461A460B46FB711346BB712A4B1B78012B46D122E0284B1B685A1C27490A601B7851
:4022C000DBB2FB74FB681B787B6197F913307A6913447B61FA797B699A4201DAFB797B61BA797B699A4201DDBB797B617B69DAB2FB681A70FB680133FB60BB685A1EBA60E4
:40230000002BD7D121E0144B1B685A1C12490A601B78BB74FB68BA7C1A70FB681B78FA799A4202D2FB68FA791A70FB681B78BA799A4202D9FB68BA791A70FB680133FB605C
:40234000BB685A1EBA60002BDDD100BF1C37BD4680BC7047D883FF1FE083FF1F80B483B000AF7860396016E0104B1B685A1C0F490A607A681288120A92B2D2B21A700B4BFA
:402380001B685A1C09490A607A681288D2B21A707B6802337B603B685A1E3A60002BE3D100BF0C37BD4680BC704700BFE083FF1F80B487B000AFF860B96011461A460B468C
:4023C000FB801346BB80364B1B78012B5ED12DE0344B1B681B78DBB29BB21B029AB2314B1B6801331B78DBB29BB21343FB822D4B1B6802332B4A1360FB681A88FB8A13440E
:402400009AB2FB681A80FB681B88FA889A4202D2FB68FA881A80FB681B88BA889A4202D9FB68BA881A80FB680233FB60BB685A1EBA60002BCCD12EE01A4B1B681B78DBB2D8
:402440009BB21B029AB2174B1B6801331B78DBB29BB21343BB82134B1B680233114A1360FB68BA8A1A80FB681B88FA889A4202D2FB68FA881A80FB681B88BA889A4202D9B2
:40248000FB68BA881A80FB680233FB60BB685A1EBA60002BD0D100BF1C37BD4680BC7047D883FF1FE083FF1F80B485B000AF78600B46FB701346BB702C4B1B681B78BB737C
:4024C000BB78013B072B2BD801A252F823F000BFF1240000F7240000FD24000003250000092500000F250000152500001B2500000123FB7315E00323FB7312E00723FB737F
:402500000FE00F23FB730CE01F23FB7309E03F23FB7306E07F23FB7303E0FF23FB7300E000BFFA7BFB7802FA03F35BB2DB435AB297F90E3013405BB2BB737B681A78FB7B57
:402540001340DBB21A46FB7802FA03F35AB297F90E3013435BB2BB73044B1B68BA7B1A7000BF1437BD4680BC704700BFE083FF1F80B485B000AF78600B46FB701346BB704A
:40258000BB78013B072B2BD801A252F823F000BFB1250000B7250000BD250000C3250000C9250000CF250000D5250000DB2500000123FB7315E00323FB7312E00723FB73BB
:4025C0000FE00F23FB730CE01F23FB7309E03F23FB7306E07F23FB7303E0FF23FB7300E000BF174B1B78012B15D1164B1B681B78DBB21A46FB7842FA03F35AB297F90F3004
:4026000013405BB2BB737B681A78BB7B5340DAB27B681A700FE00B4B1B681B78DBB21A46FB7842FA03F35AB297F90F3013405BB2DAB27B681A7000BF1437BD4680BC7047B4
:40264000D883FF1FE083FF1F80B582B000AF786074220021786804F07AFC7B680022DA667B6800229A667B6800221A67002318460837BD4680BD00BF80B584B000AF7860F2
:402680007B6803F11C027B681A677B6803F11C027B685A667B6800221A717B685B79002B0AD02F4B1B68002B04D02D4B1B687868984704E001234EE0786800F0F3FA7B6851
:4026C0001A6F7B68DA667B689B7C002B22D07B6803F11C017B68B3F86230053B1A464FF0FF3000F027FCF8600023BB607B68B3F86230053B18337A681344191D07F108032F
:402700000422184604F018FCBB68FA689A4201D0072320E0786801F045FD7B681B7C032B16D801A252F823F049270000392700004127000041270000786800F013F809E0A4
:40274000786800F057F805E0786800F0B5F801E0022300E0002318461037BD4680BD00BFB883FF1FB0B588B002AF786000237B6136E07B685A7E1E497B6911F833309A4249
:4027800003D07B685B7E002B27D107F10C03184600F07CFF7B689B7C7B737B68DB7C3B737B689B7DBB730123FB737B681B7E3B747B69DB000E4A98187B68D9687B689C79FE
:4027C0006B4607F11002126815461D800233120C1A70FB68224600F077FF7B6901337B617B69002BC5DD00BF1837BD46B0BD00BF7884FF1FB0B588B002AF78607B681B7C02
:40280000032B03D17B6805221A7006E07B681B7C022B02D17B6803221A7000237B6141E07B685A7E23497B6911F833309A4203D07B685B7E002B32D11E4A7B69DB00134462
:402840005B68786898477B685B78002B27D107F10C03184600F01AFF7B689B7C7B737B68DB7C3B737B689B7DBB730123FB737B681B7E3B747B69DB000E4A98187B68D968EE
:402880007B689C796B4607F11002126815461D800233120C1A70FB68224600F015FF7B6901337B617B69002BBADD00BF1837BD46B0BD00BF7884FF1F80B584B000AF786066
:4028C0007B6801221A700023FB6009E0084AFB68DB0013445B6878689847FB680133FB60FB68002BF2DD00BF1037BD4680BD00BFE483FF1F80B582B000AF78607B6803F1DA
:4029000020027B689A667B689A6E7B681A677B685B79002B0AD0094B1B68002B04D0074B1B687868984704E0012303E0786800F0F5F8002318460837BD4680BDB483FF1F20
:4029400080B586B000AF78600023FB757B681B79012B01D10823DDE07B681B6F1A467B689B6ED31A9AB27B681A817B685B79002B03D17B681B89642B07D97B6803F11C0264
:402980007B685A660123FB7504E07B6803F11D027B685A667B681B6F1A467B685B6ED31A9AB27B68A3F862207B689B7C002B29D07B68B3F8623003F00303C3F104033B6123
:4029C0007B681B6F3A690021184604F0C0FA7B681A6F3B691A447B681A677B68B3F862203B699BB213449AB27B68A3F862207B681B6F1A467B689B6ED31A9BB204339AB2AE
:402A00007B681A817B685B79002B12D07B6851221A777B6842225A777B681B891B0A9BB2DAB27B689A777B681B89DAB27B68DA772AE0FB7D002B19D07B6851221A777B6835
:402A400058225A777B681B895BB263F07F035BB2DAB27B689A777B681B89DB099BB2DBB203F07F03DAB27B68DA770DE07B6851225A777B6858229A777B681B89DBB203F012
:402A80007F03DAB27B68DA777B689B7C002B22D07B68596E7B68B3F862301A464FF0FF3000F048FA0346BB607B681B6F07F108010422184604F040FA7B681B6F1A1D7B68E8
:402AC0001A677B681B6F1A467B685B6ED31A9AB27B68A3F862207B689A6E7B681B891946104600F069F90346FB737B681B6F591C7A681167FA7BD243D2B21A707B68B3F811
:402B0000623001339AB27B68A3F86220786801F01FFB002318461837BD4680BD80B584B000AF78607B689A6E7B681A677B6803F170027B68DB681946104600F05BF97B68FE
:402B400000225A747B689B7C002B02D07B6801225A740023FB737B681B7C5BB203F00F035AB2FB7BDBB25BB213435BB2DBB2FB737B68DB7C1B015BB203F010035AB2FB7B18
:402B8000DBB25BB213435BB2DBB2FB737B68DB7D5B015BB203F020035AB2FB7BDBB25BB213435BB2DBB2FB737B689B7D9B015BB203F040035AB2FB7BDBB25BB213435BB290
:402BC000DBB2FB737B685B7CDB015AB2FB7BDBB25BB213435BB2DBB2FB737B681B6F591C7A681167FA7BD2B21A707B685B7C002B16D00023FB737B689B7C5BB203F00103B1
:402C00005AB2FB7BDBB25BB213435BB2DBB2FB737B681B6F591C7A681167FA7BD2B21A707B689B7D002B12D17B6803F170027B681B7E1946104600F0DDF87B6803F17002CA
:402C40007B685B7E1946104600F0D4F805E07B6800221A767B6800225A767B68DB7D002B12D17B6803F170027B689B7E1946104600F0C0F87B6803F170027B68DB7E194609
:402C8000104600F0B7F805E07B6800229A767B680022DA767B681A6F7B68DA6600BF1037BD4680BD80B584B000AF78607B689A6E7B681A677B687033184600F0DFF80246C9
:402CC0007B68DA607B681B6F591C7A6811671B78FB73FB7BDBB203F00F03DAB27B681A74FB7BDBB21B09DBB203F00103DAB27B68DA74FB7BDBB25B09DBB203F00103DAB296
:402D00007B68DA75FB7BDBB29B09DBB203F00103DAB27B689A75FB7BDBB2DB09DAB27B685A747B685B7C002B0DD07B681B6F591C7A6811671B78FB73FB7BDBB203F001039B
:402D4000DAB27B689A747B689B7D002B11D17B687033184600F092F80346DAB27B681A767B687033184600F089F80346DAB27B685A767B68DB7D002B11D17B68703318461F
:402D800000F07CF80346DAB27B689A767B687033184600F073F80346DAB27B68DA767B68DB7C002B04D07B681B6F9A1C7B681A6700BF1037BD4680BD80B485B000AF7860AA
:402DC00039600023FB720023FB6009E07B685A1C7A601A78FB7A1344FB72FB680133FB60FA683B689A42F1D3FB7A18461437BD4680BC704780B485B000AF786039600023EE
:402E0000FB6033E0FA681346DB009B1A3A6822FA03F3DBB203F07F03FB72FB685A1C1346DB009B1A3A6822FA03F3DBB203F07F03BB72BB7A002B0CD07B681B68FA7A62F0A9
:402E40007F02D2B21A707B681B685A1C7B681A6009E07B681B68FA7A1A707B681B685A1C7B681A6005E0FB680133FB60FB68032BC8DD00BF1437BD4680BC704780B485B08E
:402E800000AF78600023FB600023BB6022E07B681B681B7803F07F01BA681346DB009B1A01FA03F3FA681343FB607B681B681B785BB2002B05DA7B681B685A1C7B681A6009
:402EC00005E07B681B685A1C7B681A6005E0BB680133BB60BB68032BD9DDFB6818461437BD4680BC704700BF80B485B000AF0346FB71FB791B06BB600023FB730EE0BB6876
:402F0000002B05DABB685A00094B5340BB6002E0BB685B00BB60FB7B0133FB73FB7B072BEDD9BB6818461437BD4680BC704700BFB71DC10480B586B000AFF860B9607A6088
:402F4000FB683B6100237B6115E03B691B0E5AB2B9687B690B441B785BB253405BB2DBB21846FFF7C1FF02463B691B0253403B617B6901337B617A697B689A42E5D33B6926
:402F800018461837BD4680BD80B485B000AFF8600B467A60FB72FB687A685A60FB68FA7A1A7000BF1437BD4680BC704790B585B000AF03460A46FB711346BB71FB79B94A92
:402FC0008C2101FB03F313441B78072B00F2578301A252F823F000BFF92F00007730000025310000233200002D330000A13300007D34000055350000BB79512B2AD1FB7983
:40300000A84A8C2101FB03F31344023301221A80FB79A44A8C2101FB03F313442033BA791A70FB79FA798C2101FB02F219329D490A4408329B498C2000FB03F30B4474339A
:403040001A60FB79974A8C2101FB03F3134401221A7014E3FB7993498C2202FB03F20A448432126801328F498C2000FB03F30B4484331A6003E3FA798A498C2303FB02F383
:403080000B4474331B68591C86488C2404FB02F2024474321160BA791A70FB7981498C2202FB03F20A4402321288013290B27D4A8C2101FB03F31344023302461A80BB7920
:4030C000582B11D1FB79774A8C2101FB03F31344093300221A70FB79724A8C2101FB03F3134402221A70CAE2BB79422B11D1FB796C4A8C2101FB03F31344093301221A704C
:40310000FB79684A8C2101FB03F3134404221A70B5E2FB79634A8C2101FB03F3134400221A70ACE2FA795F498C2303FB02F30B4474331B68591C5B488C2404FB02F20244A4
:4031400074321160BA791A70FB7956498C2202FB03F20A4402321288013290B2514A8C2101FB03F31344023302461A8097F90630002B16DAFB79BA7992B222F0800290B2ED
:40318000484A8C2101FB03F313440C3302461A80FB79444A8C2101FB03F3134403221A7066E2FB79BA7990B23E4A8C2101FB03F313440C3302461A80FB79FA7939498C20DA
:4031C00000FB02F20A447432126836498C2000FB03F30B446C331A60FB79324A8C2101FB03F31344063300221A70FB792D4A8C2101FB03F3134406221A70FB79294A8C21FC
:4032000001FB03F313440C331B88402B40F23082FB79244A8C2101FB03F3134400221A7026E2FA791F498C2303FB02F30B4474331B68591C1B488C2404FB02F2024474322B
:403240001160BA791A70FB7916498C2202FB03F20A4402321288013290B2124A8C2101FB03F31344023302461A80FB79FA790D498C2000FB02F20A447432126809498C206F
:4032800000FB03F30B446C331A6097F90630002B0ADAFB79034A8C2101FB03F3134400221A702FE0EC83FF1FFA79FB79A8498C2000FB03F30B440C331B8819B2BB79DB0160
:4032C0001BB223F4804323F07F031BB20B431BB298B29F498C2303FB02F30B440C3302461A80FB799A4A8C2101FB03F31344063300221A70FB79964A8C2101FB03F31344E9
:4033000006221A70FB79924A8C2101FB03F313440C331B88402B40F2AD81FB798C4A8C2101FB03F3134400221A70A3E1FA7988498C2303FB02F30B4474331B68591C8448D8
:403340008C2404FB02F2024474321160BA791A70FB797F498C2202FB03F20A4402321288013290B27A4A8C2101FB03F31344023302461A80FB79BA7992B2120290B2744A53
:403380008C2101FB03F313440C3302461A80FB796F4A8C2101FB03F3134405221A706EE1FA796B498C2303FB02F30B4474331B68591C67488C2404FB02F20244743211606D
:4033C000BA791A70FB7962498C2202FB03F20A4402321288013290B25D4A8C2101FB03F31344023302461A80FB79FA7958498C2000FB02F20A447432126855498C2000FB36
:4034000003F30B446C331A60FB79FA7950498C2000FB02F20A440C321188BA7992B20A4390B24B4A8C2101FB03F313440C3302461A80FB79464A8C2101FB03F31344063309
:4034400000221A70FB79424A8C2101FB03F3134406221A70FB793E4A8C2101FB03F313440C331B88402B40F20781FB79384A8C2101FB03F3134400221A70FDE0FA7934499A
:403480008C2303FB02F30B4474331B68591C30488C2404FB02F2024474321160BA791A70FB792B498C2202FB03F20A4402321288013290B2264A8C2101FB03F31344023393
:4034C00002461A80FB79FA7921498C2000FB02F20A4406321178BA790A44D0B21C4A8C2101FB03F31344063302461A70FB79184A8C2101FB03F313440C331B881846FB7905
:40350000134A8C2101FB03F3134402331B881C46FB790F4A8C2101FB03F313446C331B681946FB798C2202FB03F31833084A13440833CB1AE31A984200F3A080FB79044AE5
:403540008C2101FB03F3134407221A7096E000BFEC83FF1FFA794C498C2303FB02F30B4474331B68591C48488C2404FB02F2024474321160BA791A70FB7943498C2202FB50
:4035800003F20A4402321288013290B23E4A8C2101FB03F31344023302461A80BB79FB73FB79394A8C2101FB03F3134400221A70FB79354A8C2101FB03F313440A33FA791C
:4035C0001A70FB7BFA7930498C2000FB02F20A44063212781344FF2B39D1FB792A4A8C2101FB03F31344783300221A60FC7900F0E3FD0146244A8C2303FB04F313448833D4
:403600001960FB79204A8C2101FB03F313447C3301221A70FB79FA791B498C2000FB02F20A4402321088184A8C2101FB03F31344663302461A80FB798C2202FB03F3124A9D
:40364000134404331846FFF717F8012318E0FB790D498C2202FB03F20A4480321268013209498C2000FB03F30B4480331A6006E000BF04E000BF02E000BF00E000BF002310
:4036800018461437BD4690BDEC83FF1F80B483B000AF78607B6800229A707B680022DA707B6800229A717B6800221A717B6800225A717B6800221A707B6800225A7000BFAB
:4036C0000C37BD4680BC704782B080B5A2B000AFF860B960C7F894301346FB7107F114031846FEF7B1FFFB79BB76BB683B62002387F8243097F8983087F82D3097F8993078
:4037000087F82E3097F89A3087F82F30FB681B7887F82C3097F8943087F8273097F8953087F8263007F114031846FFF7E3F800233B75FB685B6807F114021046984703468F
:40374000C7F8843007F114031846FFF7F9F8034618468837BD46BDE8804002B0704700BF82B080B5A2B000AFF860B960C7F894301346FB7107F114031846FEF765FFFB7931
:40378000BB76BB683B62012387F8243097F8983087F82D30002387F82E3097F89A3087F82F30FB681B7887F82C3097F8943087F8273097F8953087F8263007F11403184627
:4037C000FFF798F807F114031846FFF7B9F8034618468837BD46BDE8804002B0704700BF82B080B5A2B000AFF860B960C7F894301346FB7107F114031846FEF725FFFB791E
:40380000BB76BB683B62022387F8243097F8983087F82D3097F8993087F82E3097F89A3087F82F30FB681B7887F82C3097F8943087F8273097F8953087F8263007F11403CE
:403840001846FFF757F802233B75FB685B6807F11402104698470346C7F8843007F114031846FFF76DF8034618468837BD46BDE8804002B0704700BF80B500AF1A4A0A217A
:403880001A48FFF781FB1A4B00221A75184B00221A77174B002283F82420154B002283F82C20134B002283F83420114B002283F83C200F4B002283F841200D4B002283F88B
:4038C00040200B4B002283F84220094B002283F84320074B002283F84420054B002283F8452000BF80BD00BF39390000E483FF1FCC80FF1F80B584B002AF3B461846FFF70F
:40390000C5FE02233B7100237B710023BB716B463A1D1268114619800233120C1A703B68002240F215110348FFF75AFF00BF0837BD4680BDE483FF1F80B592B002AF7860CC
:403940007B681B78022B07D0042B02D0012B06D008E0FEF773FA05E0FEF770FA02E0FEF779FA00BF7B68DB6E1846FEF741FA7B68DB6840F21512934205D040F21F12934218
:4039800000F01482B4E37B681B78022B40F0B4839C4B1B78002B06D107F1300303211846FEF75AFC06E007F130000023FF220321FEF770FC944B1B7D012B08D0022B0AD013
:4039C000002B00D00BE0002387F83F3007E0012387F83F3003E0022387F83F3000BF8A4B1B7F012B08D0022B0AD0002B00D00BE0002387F83E3007E0042387F83E3003E0D4
:403A0000082387F83E3000BF7F4B93F82430012B08D0022B0AD0002B00D00BE0002387F83D3007E0102387F83D3003E0202387F83D3000BF97F83F2097F83E301343DAB262
:403A400097F83D301343DBB287F830306E4B5B7B002B07D097F8303063F07F03DBB287F8303006E097F8303003F07F03DBB287F83030654B1B7B002B07D097F8303043F0A7
:403A80004003DBB287F8303006E097F8303023F04003DBB287F830305A4B1B78002B06D107F1300301211846FEF7D6FB06E007F130000023FF220121FEF7ECFB514B1B7896
:403AC000002B05D1514A01215148FEF7CFF907E0504B0093504B4D4A01214D48FEF72AFA484B1B78002B05D1484A01214B48FEF7BDF907E0474B0093474B444A01214748A5
:403B0000FEF718FA3F4B1B78002B05D13F4A01214348FEF7ABF907E03E4B00933E4B3B4A01213F48FEF706FA0023BB83354B1B78002B06D107F11C0301211846FEF7B2FA34
:403B400007E007F11C004FF00003364A0121FEF7D5FA2D4B93F82C30012B08D0022B0AD0002B00D00BE0002387F83C3007E0102387F83C3003E0202387F83C3000BF224B02
:403B800093F83430012B08D0022B0AD0002B00D00BE0002387F83B3007E0042387F83B3003E0082387F83B3000BF174B93F83C30012B08D0022B0AD0002B00D00BE00023FC
:403BC00087F83A3007E0012387F83A3003E0022387F83A3000BF97F83C2097F83B301343DAB297F83A301343DBB287F83030054B1B78002B18D107F1300301211846FEF71F
:403C00002BFB18E0D883FF1FCC80FF1F00FEFF46EC80FF1F0001003800FEFFC6E480FF1FDC80FF1F00FF7F4707F130000023FF220121FEF72FFBAF4B9B6AAF49184602F005
:403C40002DFF0346AC49184602F020FE0346184603F026F903469BB23B81A64B1B6BA649184602F01BFF0346A349184602F00EFE0346184603F014F903469BB27B819D4BDF
:403C80009B6B9D49184602F009FF03469A49184602F0FCFD0346184603F002F903469BB2BB81964B1B78002B06D107F1080303211846FEF753FB07E007F1080000234FF657
:403CC000FF720321FEF774FB8C4B1B78002B05D1012200218A48FEF7E7FB04E0012200218748FEF745FC854B1B78002B05D1012201218448FEF7D8FB04E001220121814817
:403D0000FEF736FC7D4B1B78002B05D1012204217D48FEF7C9FB04E0012204217A48FEF727FC764B1B78002B05D1012205217748FEF7BAFB04E0012205217448FEF718FC3B
:403D40006E4B1B78002B05D1012206217048FEF7ABFB04E0012206216D48FEF709FC674B1B78002B05D1012207216A48FEF79CFB04E0012207216748FEF7FAFBFEF746F8B2
:403D8000002387F830305D4B1B78002B06D107F1300301211846FEF75FFAB0E107F130000023FF220121FEF775FAA8E17B681B78012B40F0A381514B1B78002B06D107F1A0
:403DC000300303211846FEF747FA06E007F130000023FF220321FEF75DFA484B1B78002B06D107F1300302211846FEF735FA06E007F130000023FF220221FEF74BFA97F8E0
:403E00003030184602F0F2FD03464349184602F045FE03464149184602F038FD03461A46344B9A6497F83130184602F0DFFD03463949184602F032FE03463849184602F07C
:403E400025FD03461A462B4BDA642A4B9B6C3349184602F0B7FF0346002B03D0254B4FF000029A64234BDB6C2C49184602F0AAFF0346002B03D01F4B4FF00002DA641F4B12
:403E80001B78002B04D101212548FEF7E5F905E00023FF2201212248FEF7FCF9174B1B78002B04D101211F48FEF7D6F905E00023FF2201211B48FEF7EDF9104B1B78002B8A
:403EC00005D10D4A01211848FDF7D0FF07E0174B0093174B084A01211348FEF72BF8074B1B78002B28D1044A01211248FDF7BEFF2AE000BFCC80FF1F00FEFF46D883FF1FB8
:403F00000C81FF1F0D81FF1F0E81FF1F0F81FF1F1081FF1F1181FF1FCDCCCC3D000020411C81FF1F1D81FF1F2C81FF1F0001003800FEFFC62081FF1F744B0093744B754AA0
:403F400001217548FDF7F6FF744B1B78002B05D1704A01217248FDF789FF07E06B4B00936B4B6C4A01216E48FDF7E4FF6B4B1B78002B05D1674A01216A48FDF777FF07E0A9
:403F8000624B0093624B634A01216648FDF7D2FF624B1B78002B06D107F1300302211846FEF75AF906E007F130000023FF220221FEF770F9594B1B78002B05D1012200214D
:403FC0005948FEF771FA04E0012200215648FEF7CFFA524B1B78002B05D1012201215348FEF762FA04E0012201215048FEF7C0FA4A4B1B78002B05D1012202214C48FEF772
:4040000053FA04E0012202214948FEF7B1FAFDF7FDFE424B1B78002B05D1012200214548FEF742FA04E0012200214248FEF7A0FAFDF7ECFE394B1B78002B04D101213E48E8
:40404000FEF70AF905E00023FF2201213A48FEF721F9324B1B78002B04D101213748FEF7FBF805E00023FF2201213448FEF712F92A4B1B78002B04D101213148FEF7ECF890
:4040800005E00023FF2201212D48FEF703F9234B1B78002B04D101212A48FEF75FF906E000234FF6FF7201212648FEF781F91B4B1B78002B04D101212348FEF74FF906E006
:4040C00000234FF6FF7201211F48FEF771F9134B1B78002B04D101211C48FEF73FF90EE000234FF6FF7201211848FEF761F906E07B6801221A7102E000BF00E000BFFDF718
:4041000093FE034618464037BD4680BD0001003800FEFFC600FEFF462081FF1FD883FF1F2481FF1F2881FF1F3A81FF1F3B81FF1F3C81FF1F3E81FF1F3681FF1F3781FF1F79
:404140003881FF1F3081FF1F3281FF1F3481FF1F80B584B000AF78607B689B79002B00D01BE07B685A6E7B681A670023FB600CE07B681B6F591C7A6811671B781946012050
:4041800000F022F8FB680133FB607B68B3F862301A46FB689A42EBDC00BF00BF1037BD4680BD00BF80B483B000AF786000BF0C37BD4680BC704700BF80B400AF00231846B0
:4041C000BD4680BC704700BF80B485B000AF03460A46FB711346BB71FB79224AD35CDBB25A1C214B1340002B03DA013B63F03F030133FB60FB791D4AD35CDBB21A46FB68D5
:404200009A4228D0FB79FA7916498A5CD2B21146174A9B0113440B44BA791A70FB79FA68D1B2104AD154FB790E4AD35CDBB25A1C0D4B1340002B03DA013B63F03F030133B5
:404240001946FB79094AD35CDBB2994201D1002302E0012300E0002318461437BD4680BC704700BF8484FF1F3F0000808084FF1F8884FF1F80B483B000AF03463960FB7190
:40428000FB79184AD35CDAB2FB791749CB5CDBB29A4220D0FB79FA7913498A5CD2B21146124A9B0113440B441B78DAB23B681A70FA79FB790C49CB5CDBB2591C0C4B0B4024
:4042C000002B03DA013B63F03F030133D9B2064B9954012300E0002318460C37BD4680BC704700BF8484FF1F8084FF1F8884FF1F3F00008080B582B000AF786039603A6811
:404300000021786802F023FE00BF0837BD4680BD80B584B000AFF860B9607A607A68B968F86802F009FE00BF1037BD4680BD00BF80B483B000AF0346FB71FEE780B487B04C
:4043400000AF7860396000233B6100237B6127E07B699B007A6813441B68BB60BB68FB73BB6823F0FF03BB6014E03B695B003A6813441B781A46BB68134419463B695B0067
:404380003A6813445B780B703B6901333B61FB7B013BFB73FB7B002BE7D17B6901337B617B691D2BD4D900BF1C37BD4680BC704780B582B000AF424B00221A80414B502297
:4043C0001A70414B19221A80404B18221A70404B1A221A803F4B18221A7004223E493F48FFF796FF3E4B02221A704FF0402308221A703C4B03221A703B4B3C4A1278D2B238
:404400001A703B4B08221A803A4B41F251221A800023FB7019237B6014E0FB785B00DAB2354B1B78DBB203F00103DBB21343DBB203F00303FB704FF4F07001F049FC7B68C9
:40444000013B7B607B68002B02D0FB78032BE4D17B68002B02D10320FFF76AFF274B4FF480721A80254B07221A70254B00221A70244B48221A70214B00221A70224B022200
:404480001A70224B04221A70214A214B1B78DBB243F00703DBB213701E4A1E4B1B78DBB243F00103DBB213701B4A1B4B1B78DBB263F07F03DBB2137000BF0837BD4680BDCB
:4044C00080400040824000408440004086400040884000408A40004050060048004100400043004000420040A1460040080100492242004020420040254200400440004090
:404500000640004008400040014000400B400040A2430040A1430040A043004080B483B000AF0B4B1B78FB710A4AFB7903F00703DBB21370084AFB791B09DBB21370074B69
:4045400044221A7000BF0C37BD4680BC704700BFCF0100496E5800406F5800407658004080B483B000AF0346FB71FB79012B24D8FA79FB791344FB71FB79124A52F82330E2
:40458000FA79104951F822201178FA790E48825C0A43D2B21A70FB790133FB71FB79094A52F82330FA79074951F822201178FA790548825C0A43D2B21A7000BF0C37BD46CC
:4045C00080BC7047047D0000147D000080B483B000AF0346FB71FB79012B28D8FA79FB791344FB71FB79144A52F82330FA79124951F822201178FA791048825CD243D2B20E
:404600000A40D2B21A70FB790133FB71FB790A4A52F82330FA79084951F822201178FA790648825CD243D2B20A40D2B21A7000BF0C37BD4680BC7047047D0000147D000037
:4046400080B483B000AF0346FB71FB79012B0ED8FB79094A52F82330FA79074951F822201178FA790548825C0A43D2B21A7000BF0C37BD4680BC7047187D0000207D00008B
:4046800080B483B000AF0346FB71FB79012B10D8FB790A4A52F82330FA79084951F822201178FA790648825CD243D2B20A40D2B21A7000BF0C37BD4680BC7047187D00004D
:4046C000207D000080B586B000AF72B6514A514B1B78DBB243F00403DBB213700023FB7513E0FA7D13465B0013445B004A4A13443B613B691A683B699B889BB21946104661
:40470000FFF7F8FDFB7D0133FB75FB7D062BE8D90023FB751CE0FA7D13469B0013445B003E4A1344FB60FB681B68BB60FB685B687B60FB681A7A5B7A1B0213437B807B88E3
:404740001A467968B868FFF7E3FDFB7D0133FB75FB7D002BDFD032494FF09040FFF7EEFD304B0A221A70304A2F4B1B78DBB243F00203DBB213702D4A2C4B1B78DBB243F05B
:404780000203DBB213702A4A294B1B78DBB243F04003DBB21370274A264B1B78DBB243F01003DBB21370082223492448FFF7B0FD0A2223492348FFF7ABFD0A2222492348B6
:4047C000FFF7A6FD082222492248FFF7A1FD082221492248FFF79CFD214A214B1B78DBB243F00803DBB213701E4B60221A70FFF7DFFD1C4B80221A701B4B01221A70FFF7D8
:404800008DFE0E220A491948FFF782FD00BF1837BD4680BDE8460040247D0000507D000078000048835800400350014013500140A0430040C24300402006004802510040EE
:4048400028060048C051004034060048F051004040060048125100404806004822510040224300400048004004000840B043004080B500AF02F034FB03461B680C2B00D16F
:40488000FEE7FEE780B584B000AF78600F4B1A687B6813441A460E4BD31A802B09DC0B4B1B68FB60094B1A687B681344074A136007E002F015FB02460C2313604FF0FF33A6
:4048C000FB60FB6818461037BD4680BD4081FF1F1085FF1F80B586B000AF224B7B61224B3B61204B7B6135E03B691B68FB603B695B68BB603B699B683B6000237B600CE08B
:40490000FB681A68BB681A60BB680433BB60FB680433FB607B6804337B607A683B689A42EED13B69DB683B6000237B6008E0BB6800221A60BB680433BB607B6804337B60E5
:404940007A683B689A42F2D13B6910333B617B69013B7B617B69002BC6D102F0C7FAFBF793FDFEE701000000E47D000080B582B000AF184B184A1A60184A184B1B6843F49E
:404980000073136000237B600FE07B68032B04D8134A7B6852F8233000E0124B12497A6841F822307B6801337B607B682F2BECD90E4B1B78DAB20E4B1A700E4B0A4A1A60DF
:4049C000FFF780FE0C4B00221A6000BF0837BD4680BD00BF0CED00E00004FA0514ED00E000000000714800000080FF1FBC760040C480FF1F08ED00E0C080FF1F80B582B0D1
:404A000002AF324B01221A70314B00221A70102000F0CAFF102001F0ADF807211D2001F033F92C4B04221A702B4B00221A702B4B00221A702A4A2A4B1B78DBB243F0180380
:404A4000DBB21370274B00221A70274B00221A70264B00221A70264B0A221A70254B00221A70254B00221A70244B12221A70244B13221A70234B00221A70234B14221A70CB
:404A80000123009308234FF400424FF40041032000F034FA1D4A0D4B1B78DBB2013B1C499B000B449B7813701A4A084B1B78DBB2013B174931F823301380044B1B78DBB2D9
:404AC000184600F069F900BFBD4680BD4481FF1FBC83FF1F96580040975800409E580040075B004093580040885B0040895B004080580040815800408358004088580040B4
:404B0000895800408D580040014E00400E4E0040C483FF1F0C4E004080B582B000AF01F0F6F80346FB71444B1B78BB71434A434B1B78DBB243F00103DBB213703F4A3F4B78
:404B40001B78DBB243F01003DBB213703C4A3C4B1B78DBB243F00103DBB21370384A384B1B78DBB243F01003DBB21370354A354B1B78DBB243F00203DBB21370324A324B70
:404B80001B78DBB243F00203DBB213702F4A2F4B1B78DBB243F00303DBB21370032001F037F8284A274B1B78DBB223F00203DBB21370254A244B1B78DBB223F00203DBB21F
:404BC0001370234A224B1B78DBB243F00603DBB21370204B7A221A701F4A1F4B1B78DBB243F00103DBB213701C4A1C4B1B78DBB243F00103DBB21370194A194B1B78DBB206
:404C000043F00103DBB21370164A164B1B78DBB243F00103DBB21370134B4FF000521A60124B4FF000521A60FB79184601F073F800BF0837BD4680BD4481FF1FAA430040B8
:404C4000BA430040F8460040F9460040915800407758004082580040A1430040B1430040A2430040B243004080E200E000E100E080B500AF084B1B78002B09D1074B1B783F
:404C8000DBB2002B01D1FFF7B9FE034B01221A70FFF742FF00BF80BDBE83FF1FBF83FF1F80B400AF054A054B1B78DBB243F00103DBB2137000BFBD4680BC7047004E0040A4
:404CC00080B400AF054A054B1B78DBB223F00103DBB2137000BFBD4680BC7047004E004080B483B000AF174B1B78DBB203F003037B717B79012B03D8134B1B88FB8011E0C3
:404D0000114B1B78DBB2FB80104B1B78DBB29BB21B029AB2FB881343FB807B79032B01D10B4B1B780B4B1B78DBB2002B02D00A4B00221A70B7F9063018460C37BD4680BCE0
:404D4000704700BF144E0040104E0040114E0040124E0040BD83FF1FBC83FF1F80B485B000AF78600A4B1B687A68D31A7B607B684FF47A7202FB03F2064B1B6892FBF3F3C6
:404D8000FB81B7F90E3018461437BD4680BC7047C083FF1F0885FF1F80B582B000AF0346FB71384B00221A70FB79012B65D1364B34221A70354B04221A70354B06221A704B
:404DC000344B00221A70344B00221A70334B0F221A70334B00221A70324B00221A70324B00221A70314B01221A70314B14221A70304B04221A70304B18221A702F4B00223D
:404E00001A702F4B11221A702E4B12221A702E4B00221A702D4B01221A702D4B11221A702C4B19221A702C4B97221A70442000F01DF92A4B58221A70294B00221A70294B8E
:404E400005221A70284B02221A70284B00221A70274B00221A70002000F0D4FC254B2A221A600121052000F0E1FC0121B22000F0C3FD21491D2000F0DFFE00BF0837BD46E0
:404E800080BD00BFBD83FF1F004E0040024E0040034E0040044E0040054E0040064E0040084E0040094E00400A4E0040144E00408458004085580040865800408758004053
:404EC0008A5800408B5800408C5800408E5800408F580040905800409158004094580040955800409A5800409B5800409C5800409D5800400885FF1FE950000090B587B024
:404F000000AF0446084611461A462346FB710346BB800B467B801346BB7197F82830002B00F08B8097F82830012B00F28680FB79013B092B4AD801A252F823F0654F000077
:404F4000CD4F0000CD4F0000654F0000CD4F0000CD4F00007F4F0000994F0000CD4F0000B34F0000BB790F2B04D9374B1B78DBB2FB752EE0354B1B78DBB2FB7529E0BB7981
:404F80000F2B04D9324B1B78DBB2FB7521E0314B1B78DBB2FB751CE0BB790F2B04D92E4B1B78DBB2FB7514E02C4B1B78DBB2FB750FE0BB790F2B04D9294B1B78DBB2FB7537
:404FC00007E0284B1B78DBB2FB7502E00023FB7500BFBA8897F917305B0113443B617B883A6902FB03F3FB60FB68DB0BBB82BB790D2B12D8BA8ABB79C3F10E0342FA03F3EC
:40500000BB8297F82830013BBA790132D1B2164A9B0013440A469A7007E097F82830013B114A9B0013440F229A7097F82830013B0D49BA8A21F8232002E0002000F0DCFD05
:4050400000BF1C37BD4690BD180100491C010049190100491D0100491A0100491E0100491B0100491F010049C483FF1F80B584B000AF0346FB7100F04AFE0346FB73174A20
:40508000164B1B78DBB243F00303DBB21370144A134B1B78DBB243F00303DBB21370114AFB791370032000F0B3FD0C4A0B4B1B78DBB223F00303DBB21370094A084B1B78BE
:4050C000DBB223F00303DBB21370FB7B184600F022FE00BF1037BD4680BD00BFF8460040F94600409258004080B400AF00BFBD4680BC704780B500AF064B1B78002B04D18A
:4051000000F00AF8034B01221A7000F025F800BF80BD00BFC883FF1F80B400AF094B72221A70094B20221A70084B06221A70084B47221A70074B00221A7000BFBD4680BC95
:40514000704700BF8A6500408965004028650040386500408B65004080B582B000AF00F0D6FD0346FB71114A104B1B78DBB243F02003DBB213700E4A0D4B1B78DBB243F0B5
:405180001003DBB213700B4A0A4B1B78DBB243F01003DBB2137000F015FDFB79184600F0BAFD00BF0837BD4680BD00BF9A650040996500409B65004080B483B000AF00233E
:4051C000FB710C4B1B78BB71BB7903F02003002B09D0094B1B78FB71BB7903F01E03002B01D00023FB71FB7918460C37BD4680BC704700BF696500404965004080B483B08C
:4052000000AF0346FB7100BF074B1B78DBB203F00403002BF8D1054AFB79137000BF0C37BD4680BC704700BF6B6500404B65004080B584B000AF78600023FB810C4B1B7875
:40524000002B10D009E0FB897A6813441B781846FFF7D4FFFB890133FB81FB897A6813441B78002BEFD100BF1037BD4680BD00BFC883FF1F80B582B000AF0023FB7106E05B
:40528000FB791846FFF7A2F9FB790133FB71FB79012BF5D9034BFF221A7000BF0837BD4680BD00BF4581FF1F80B582B000AF0346FB710A4B1B78FF2B04D0084B1B7818463A
:4052C000FFF784F9FB791846FFF74AF9034AFB79137000BF0837BD4680BD00BF4581FF1F80B582B000AF786000F03CF8786800F009F8072000F018F800F028F800BF0837F3
:40530000BD4680BD80B485B000AF7860054B1B68FB60FB6840337A681A6000BF1437BD4680BC704708ED00E080B483B000AF0346FB71054AFB795B01DBB2137000BF0C370C
:40534000BD4680BC704700BF00E400E080B400AF034B01221A6000BFBD4680BC704700BF00E100E080B400AF034B01221A6000BFBD4680BC704700BF80E100E080B400AF4B
:40538000034B01221A6000BFBD4680BC704700BF80E200E080B500AF064B1B78002B04D100F00AF8034B01221A7000F025F800BF80BD00BFCA83FF1F80B400AF094B722299
:4053C0001A70094B3E221A70084B06221A70084B47221A70074B02221A7000BFBD4680BC704700BF8A6400408964004028640040386400408864004080B582B000AF00F0F1
:4054000086FC0346FB71104A0F4B1B78DBB243F02003DBB213700D4A0C4B1B78DBB243F01003DBB213700A4A094B1B78DBB243F01003DBB21370FB79184600F06CFC00BFD0
:405440000837BD4680BD00BF9A640040996400409864004080B582B000AF00F058FC0346FB710C4A0B4B1B78DBB243F00103DBB21370084A074B1B78DBB223F00103DBB2AD
:405480001370FB79184600F046FC00BF0837BD4680BD00BF9964004080B483B000AF0346FB7100BF074B1B78DBB203F00403002BF8D1054AFB79137000BF0C37BD4680BCBA
:4054C000704700BF686400404B64004080B582B000AF00F01CFC0346FB710C4A0B4B1B78DBB243F00103DBB21370084A074B1B78DBB223F00103DBB21370FB79184600F0A8
:405500000AFC00BF0837BD4680BD00BF9B64004080B582B000AF786000F03CF8786800F009F8072000F018F800F028F800BF0837BD4680BD80B485B000AF7860054B1B680E
:40554000FB60FB6844337A681A6000BF1437BD4680BC704708ED00E080B483B000AF0346FB71054AFB795B01DBB2137000BF0C37BD4680BC704700BF01E400E080B400AF6C
:40558000034B02221A6000BFBD4680BC704700BF00E100E080B400AF034B02221A6000BFBD4680BC704700BF80E100E080B500AF224A224B1B78DBB203F00103DBB2137062
:4055C0001F4A1F4B1B78DBB223F00303DBB213701C4A1C4B1B78DBB223F03003DBB21370184A184B1B78DBB243F03003DBB21370144A144B1B78DBB223F00F03DBB21370DF
:40560000104A104B1B78DBB243F00F03DBB213700D4A0D4B1B78DBB243F00103DBB2137045F6BF5000F064F845F6BF5000F072F8082000F041F800BF80BD00BF004F004055
:40564000024F00400B4F0040014F004080B400AF0D4A0D4B1B78DBB243F00103DBB213700A4A0A4B1B78DBB243F00103DBB21370074A074B1B78DBB243F00103DBB213705C
:4056800000BFBD4680BC7047A3430040B3430040004F004080B500AF064B1B78002B04D1FFF784FF034B01221A70FFF7CFFF00BF80BD00BFCC83FF1F80B483B000AF0346C3
:4056C000FB71044AFB79137000BF0C37BD4680BC704700BF034F004080B400AF034B1B78DBB21846BD4680BC704700BF034F004080B485B000AF0346FB80FB88FB81044A91
:40570000FB89138000BF1437BD4680BC704700BF044F004080B483B000AF0346FB80044AFB88138000BF0C37BD4680BC704700BF064F004080B582B000AF786000F03CF864
:40574000786800F009F8072000F018F800F028F800BF0837BD4680BD80B485B000AF7860054B1B68FB60FB6884337A681A6000BF1437BD4680BC704708ED00E080B483B013
:4057800000AF0346FB71054AFB795B01DBB2137000BF0C37BD4680BC704700BF11E400E080B400AF034B4FF400321A6000BFBD4680BC704700E100E080B400AF034B4FF4C0
:4057C00000321A6000BFBD4680BC704780E100E080B582B000AF0023FB7106E0FB791846FEF74EFFFB790133FB71FB79012BF5D9034BFF221A7000BF0837BD4680BD00BFF0
:405800004681FF1F80B582B000AF0346FB71FFF7DFFFFB791846FEF713FF034AFB79137000BF0837BD4680BD4681FF1F80B584B000AF03460A46FB8013467B7100F0CEF87D
:405840000346FB7300F0A4F80346BB81FA88BB899A4200F08880464B1B78DBB203F00103FB72FB7B002B20D1BB89002B02D0FB88002B1AD1BB89002B0BD13E4AFB8813805C
:405880003D4A3D4B1B78DBB223F04003DBB2137069E0394A384B1B78DBB243F04003DBB21370344AFB8813805DE0FB7A002B33D0324B00221A70324B01221A70314B0022F9
:4058C0001A70314A304B1B78DBB203F07F03DBB21370294B1B78DBB203F00803002B02D0FB88002B18D1294ABB891380234B07221A7000BF214B1B78DBB203F00103002B85
:40590000F8D11B4A1A4B1B78DBB223F00103DBB213701A4B00221A70154B1B78DBB203F00103002B13D0194AFB881380134A7B79002B01D0032300E00123137000BF0F4B6B
:405940001B78DBB203F00103002BF8D10BE0094AFB8813800649064B1B78DAB2FB7A1343DBB20B70FFE700BF1037BD4680BD00BFA2430040804000408240004001400040A3
:405980001040004014400040084000400240004080B400AF034B1B889BB21846BD4680BC704700BF8040004080B483B000AF0346FB710949084B1B78DBB25AB297F9073022
:4059C00023F007035BB213435BB2DBB20B7000BF0C37BD4680BC70478240004080B400AF044B1B78DBB203F00703DBB21846BD4680BC70478240004080B584B000AF034685
:405A00000A46FB8013467B7100F0CEF80346FB7300F0A4F80346BB81FA88BB899A4200F08880464B1B78DBB203F00103FB72FB7B002B20D1BB89002B02D0FB88002B1AD1BD
:405A4000BB89002B0BD13E4AFB8813803D4A3D4B1B78DBB223F04003DBB2137069E0394A384B1B78DBB243F04003DBB21370344AFB8813805DE0FB7A002B33D0324B0022A0
:405A80001A70324B01221A70314B00221A70314A304B1B78DBB203F07F03DBB21370294B1B78DBB203F00803002B02D0FB88002B18D1294ABB891380234B07221A7000BF1F
:405AC000214B1B78DBB203F00103002BF8D11B4A1A4B1B78DBB223F00103DBB213701A4B00221A70154B1B78DBB203F00103002B13D0194AFB881380134A7B79002B01D0C2
:405B0000032300E00123137000BF0F4B1B78DBB203F00103002BF8D10BE0094AFB8813800649064B1B78DAB2FB7A1343DBB20B70FFE700BF1037BD4680BD00BFA14300409F
:405B40000041004002410040014000401440004010400040084000400240004080B400AF034B1B889BB21846BD4680BC704700BF0041004080B483B000AF0346FB710949A0
:405B8000084B1B78DBB25AB297F9073023F007035BB213435BB2DBB20B7000BF0C37BD4680BC70470241004080B400AF044B1B78DBB203F00703DBB21846BD4680BC70475F
:405BC0000241004080B400AF094A094B1B78DBB243F00203DBB21370064A064B1B78DBB243F00203DBB2137000BFBD4680BC7047A2430040B243004080B483B000AF0346B9
:405C0000FB7101BE00BF0C37BD4680BC704700BF80B582B000AF0346FB80FB88054A127802FB03F3184600F053F800BF0837BD4680BD00BF5081FF1F80B584B000AF034673
:405C40003960FB710F4B1B68FB60FB791F2B02D90020FFF7D1FFFB7903F01F0310339B00FA6813441B68BB60FB7903F01F0310339B00FA6813443A681A60BB6818461037A6
:405C8000BD4680BD08ED00E080B582B000AF03460A46FB711346BB71BB79072B02D90020FFF7AAFFFB791F2B02D90020FFF7A4FFFB7903F01F0303F1604303F56443BA79EB
:405CC0005201D2B21A7000BF0837BD4680BD00BF142816D902B4012114381049097811F0C001890904B40E4A515C04BC00BF00BF00BF8841FDD500BF00BF02BC704700BFC2
:405D000000BF70F10400FCD570470B050709EFF3108072B6704780F310887047004800400A5D0000F0B58BB0044600F04FF8234E054696F90030013330D02146204601F0C7
:405D400073F8074650BB204600F08EFB4FF07E5101F060F810B31A4A0123204601920093089700F0E9FC02460B461648CDE90423CDE9022300F05CFA96F90030CDE906016E
:405D8000022B0ED0684600F051FA50B1089B7BB9DDE9060100F024FD0BB0F0BD28460BB0F0BD01F09DF821230360089B002BEFD001F096F8089B0360EAE700BF5881FF1F35
:405DC0005C7D0000647D000000F04AB92DE9F84320F00045B5F17E5F044600F0C68012DCB5F17C5F064616DAB5F1485F80F2CB808B4900F04BFD4FF07E5101F00BF850B189
:405E00002046BDE8F883014600F03EFD014600F0F9FEBDE8F883204600F026FB01464FF07E5000F031FD4FF07C5100F037FE04467C4900F033FE7C4900F028FD214600F0A1
:405E40002DFE7A4900F020FD214600F027FE784900F01CFD214600F021FE764900F014FD214600F01BFE744900F010FD214600F015FE72498046204600F010FE704900F089
:405E800003FD214600F00AFE6E4900F0FFFC214600F004FE6C4900F0F7FC214600F0FEFD4FF07E5100F0F2FC8146204600F06AF9664B07469D424946404643DC00F0A2FE91
:405EC00039468046384600F0E1FC0146404600F0E5FD27F47F6525F00F0580462946284600F0DCFD0146204600F0CEFC29460446384600F0CBFC0146204600F083FE014625
:405F000000F0C4FC0146524800F0BEFC0146404600F0BAFC29460446284600F0B7FC01464C4800F0B1FC0146204600F0ADFC0146484800F0A9FC002E3FF763AF00F1004018
:405F4000BDE8F88300F05EFE394600F0A7FD394600F09CFC014600F099FC3F4900F096FC01463E4800F090FCE5E73C4900F096FD37490546204600F091FD0146284600F054
:405F800085FCBDE8F883014600F088FD0546254900F084FD244900F079FC294600F07EFD224900F071FC294600F078FD204900F06DFC294600F072FD1E4900F065FC29465B
:405FC00000F06CFD1C4900F061FC294600F066FD1A490646284600F061FD194900F054FC294600F05BFD174900F050FC294600F055FD154900F048FC294600F04FFD4FF047
:406000007E5100F043FC0146304600F0FBFD214600F044FD214600F039FCBDE8F88300BFCAF2497108EF1138047F4F3A4611243DA80A4E3E90B0A63EABAA2A3E2EC69D3D53
:406040006133303F2D57014039D119409999793F2EBD3BB3DB0F493F2EBD3B33DB0FC93FF8B50C4621F00041B1F1FF4F034614DC20F00046B6F1FF4F07460EDCB4F17E5FF7
:406080003DD0A51705F0020545EAD07556B9022D31D0032D2CD13248F8BD1946204600F0F5FBF8BD01B3B1F1FF4F2CD0B6F1FF4F1AD0711AC9153C291BDC002C39DB2146C7
:4060C000184600F09FFD00F0CFF900F0B7F8012D2CD0022D22D0002D2FD0224900F0D6FB214900F0D1FBF8BD002F06DB1F48F8BDF8BD1E48EBE71C48F8BD1D48F8BDBDE8F0
:40610000F84000F09BB8B6F1FF4F17D0022DF2D0032DC0D0012D19D00020F8BD114900F0B5FB0146104800F0AFFBF8BD00F10040F8BD3C31C3DA0020C9E7F8BD022D0CD003
:40614000032D08D0012D04D00A48F8BD4FF00040F8BD0948F8BD0948F8BD0948F8BD00BFDB0F49C02EBDBB33DB0F4940DB0FC93FDB0FC9BFDB0F493FDB0F49BFE4CB16C07D
:40618000E4CB164020F00042B2F1FF4F70B504462ED262B3002803463DDBB2F5000F4FEAE0502CD3002631467F38C3F31603C20743F4000348BF5B0040105B0019244FF0BD
:4061C00080728D189D4202DC5B1BA9181644013C4FEA43034FEA5202F3D113B106F001031E44761006F17C5606EBC05070BD70BD014600F053FC214600F048FB70BD14F48E
:40620000000201D00EE00A465B001C0202F10101F9D5801AC6E7014600F036FB014600F0F1FC70BD4FF0FF32F3E700BF0020704700200149704700BF0000F87F2DE9F04193
:4062400020F00045B5F1A14F0446064608DBB5F1FF4F6FDC002840F3A0806F48BDE8F0816E4B9D4277DCB5F1445F68DB4FF0FF372146204600F012FC0146804600F00EFC75
:406280000546674900F00AFC664900F0FFFA294600F004FC644900F0F9FA294600F0FEFB624900F0F3FA294600F0F8FB604900F0EDFA294600F0F2FB5E4900F0E7FA414669
:4062C00000F0ECFB5C498046284600F0E7FB5B4900F0DAFA294600F0E1FB594900F0D4FA294600F0DBFB574900F0CEFA294600F0D5FB554900F0C8FA294600F0CFFB7B1C4D
:40630000014640464CD000F0C1FA214600F0C6FB4E4B4F4D53F8271000F0B6FA214600F0B3FA014655F8270000F0AEFA002E30DBBDE8F081014600F0A9FABDE8F081454936
:4063400000F0A4FA4FF07E5100F064FD00288DD02046BDE8F08100F087F83F4B04469D4229DCA3F5D0039D4244DC014600F08EFA4FF07E5100F088FA4FF0804105462046AE
:4063800000F084FA0146284600F03CFC002704466EE700F10040BDE8F0813048BDE8F08100F074FA214600F079FB0146204600F06BFABDE8F0812A4B9D4214DC4FF07F5163
:4063C00000F062FA4FF07F510546204600F066FB4FF07E5100F05AFA0146284600F012FC0227044644E701461E4800F00BFC032704463DE74FF07E5100F046FA4FF07E5115
:406400000546204600F042FA0146284600F0FAFB012704462CE700BFDB0FC93FFFFFDF3ED769853C59DA4B3D356B883D6E2EBA3D2549123EABAAAA3E21A215BD6BF16E3D49
:4064400095879D3D388EE33DCDCC4C3E687D0000787D0000CAF24971FFFF973FDB0FC9BFFFFF1B40000080BF20F00040704700BF81F0004102E000BF83F0004330B54FEA02
:4064800041044FEA430594EA050F08BF90EA020F1FBF54EA000C55EA020C7FEA645C7FEA655C00F0E2804FEA5454D4EB5555B8BF6D420CDD2C4480EA020281EA030382EA04
:4064C000000083EA010180EA020281EA0303362D88BF30BD11F0004F4FEA01314FF4801C4CEA113102D0404261EB410113F0004F4FEA03334CEA133302D0524263EB43038C
:4065000094EA050F00F0A780A4F10104D5F1200E0DDB02FA0EFC22FA05F2801841F1000103FA0EF2801843FA05F359410EE0A5F120050EF1200E012A03FA0EFC28BF4CF0C9
:40654000020C43FA05F3C01851EBE37101F0004507D54FF0000EDCF1000C7EEB00006EEB0101B1F5801F1BD3B1F5001F0CD349085FEA30004FEA3C0C04F101044FEA445289
:4065800012F5800F80F09A80BCF1004F08BF5FEA500C50F1000041EB045141EA050130BD5FEA4C0C404141EB010111F4801FA4F10104E9D191F0000F04BF01460020B1FAC6
:4065C00081F308BF2033A3F10B03B3F120020CDA0C3208DD02F1140CC2F10C0201FA0CF021FA02F10CE002F11402D8BFC2F1200C01FA02F120FA0CFCDCBF41EA0C019040A5
:40660000E41AA2BF01EB0451294330BD6FEA04041F3C1CDA0C340EDC04F11404C4F1200220FA04F001FA02F340EA030021FA04F345EA030130BDC4F10C04C4F1200220FA8E
:4066400002F001FA04F340EA0300294630BD21FA04F0294630BD94F0000F83F4801306BF81F480110134013D4EE77FEA645C18BF7FEA655C29D094EA050F08BF90EA020F2B
:4066800005D054EA000C04BF1946104630BD91EA030F1EBF0021002030BD5FEA545C05D14000494128BF41F0004130BD14F580043CBF01F5801130BD01F0004545F0FE4139
:4066C00041F470014FF0000030BD7FEA645C1ABF194610467FEA655C1CBF0B46024650EA013406BF52EA033591EA030F41F4002130BD00BF90F0000F04BF0021704730B52D
:406700004FF4806404F132044FF000054FF0000150E700BF90F0000F04BF0021704730B54FF4806404F1320410F0004548BF40424FF000013EE700BF42004FEAE2014FEAA3
:4067400031014FEA02701FBF12F07F4393F07F4F81F06051704792F0000F14BF93F07F4F704730B54FF4607401F0004521F0004120E700BF50EA010208BF704730B54FF0DB
:4067800000050AE050EA010208BF704730B511F0004502D5404261EB41014FF4806404F132045FEA915C3FF4DCAE4FF003025FEADC0C18BF03325FEADC0C18BF033202EB2D
:4067C000DC02C2F1200300FA03FC20FA02F001FA03FE40EA0E0021FA02F11444C1E600BF4FEA4102B2F1E04324BFB3F5001CDCF1FE5C0DD901F0004C4FEAC0024CEA5070BC
:40680000B2F1004F40EB830008BF20F00100704711F0804F21D113F13872BCBF01F00040704741F480114FEA5252C2F11802C2F1200C10FA0CF320FA02F018BF40F00100EA
:406840004FEAC1234FEAD32303FA0CFC40EA0C0023FA02F34FEA4303CCE77FEA625307D150EA01331EBF4FF0FE4040F44000704701F0004040F0FE4040F40000704700BF1B
:4068800080F0004002E000BF81F0004142001FBF5FEA410392EA030F7FEA226C7FEA236C6AD04FEA1262D2EB1363C1BFD218414048404140B8BF5B42192B88BF704710F047
:4068C000004F40F4000020F07F4018BF404211F0004F41F4000121F07F4118BF494292EA030F3FD0A2F1010241FA03FC10EB0C00C3F1200301FA03F100F0004302D5494265
:4069000060EB4000B0F5000F13D3B0F1807F06D340084FEA310102F10102FE2A51D2B1F1004F40EBC25008BF20F0010040EA03007047490040EB000010F4000FA2F10102BE
:40694000EDD1B0FA80FCACF1080CB2EB0C0200FA0CF0AABF00EBC25052421843BCBFD0401843704792F0000F81F4000106BF80F400000132013BB5E74FEA41037FEA226C30
:4069800018BF7FEA236C21D092EA030F04D092F0000F08BF0846704790EA010F1CBF0020704712F07F4F04D1400028BF40F00040704712F100723CBF00F50000704700F01D
:4069C000004343F0FE4040F4000070477FEA226216BF08467FEA23630146420206BF5FEA412390EA010F40F4800070474FF0000304E000BF10F0004348BF40425FEA000C01
:406A000008BF704743F0964301464FF000001CE050EA010208BF70474FF000030AE000BF50EA010208BF704711F0004302D5404261EB41015FEA010C02BF84460146002076
:406A400043F0B64308BFA3F18053A3F50003BCFA8CF2083AA3EBC25310DB01FA02FC634400FA02FCC2F12002BCF1004F20FA02F243EB020008BF20F00100704702F12002D2
:406A800001FA02FCC2F1200250EA4C0021FA02F243EB020008BF20EADC7070474FF0FF0C1CEAD0521EBF1CEAD15392EA0C0F93EA0C0F6FD01A4480EA010C400218BF5FEA51
:406AC00041211ED04FF0006343EA501043EA5111A0FB01310CF00040B1F5000F3EBF490041EAD3715B0040EA010062F17F02FD2A1DD8B3F1004F40EBC25008BF20F0010097
:406B0000704790F0000F0CF0004C08BF49024CEA502040EA51207F3AC2BFD2F1FF0340EAC250704740F400004FF00003013A5DDC12F1190FDCBF00F000407047C2F1000236
:406B4000410021FA02F1C2F1200200FA02FC5FEA310040F1000053EA4C0308BF20EADC70704792F0000F00F0004C02BF400010F4000F013AF9D040EA0C0093F0000F01F050
:406B8000004C02BF490011F4000F013BF9D041EA0C018FE70CEAD15392EA0C0F18BF93EA0C0F0AD030F0004C18BF31F0004CD8D180EA010000F00040704790F0000F17BFAE
:406BC00090F0004F084691F0000F91F0004F14D092EA0C0F01D142020FD193EA0C0F03D14B0218BF084608D180EA010000F0004040F0FE4040F40000704740F0FE4040F45A
:406C0000400070474FF0FF0C1CEAD0521EBF1CEAD15392EA0C0F93EA0C0F69D0A2EB030280EA010C49024FEA402037D04FF0805343EA111143EA10130CF000408B4238BFD7
:406C40005B0042F17D024FF4000C8B4224BF5B1A40EA0C00B3EB510F24BFA3EB510340EA5C00B3EB910F24BFA3EB910340EA9C00B3EBD10F24BFA3EBD10340EADC001B0126
:406C800018BF5FEA1C1CE0D1FD2A3FF650AF8B4240EBC25008BF20F0010070470CF0004C4CEA50207F32C2BFD2F1FF0340EAC250704740F400004FF00003013A37E792F0AE
:406CC000000F00F0004C02BF400010F4000F013AF9D040EA0C0093F0000F01F0004C02BF490011F4000F013BF9D041EA0C0195E70CEAD15392EA0C0F08D142027FF47DAFE8
:406D000093EA0C0F7FF470AF084676E793EA0C0F04D14B023FF44CAF08466EE730F0004C18BF31F0004CCAD130F000427FF45CAF31F000437FF43CAF5FE700BF4FF0FF3C87
:406D400006E000BF4FF0010C02E000BF4FF0010C4DF804CD4FEA40024FEA41037FEA226C18BF7FEA236C11D001B052EA530C18BF90EA010F58BFB2EB030088BFC81738BFFF
:406D80006FEAE17018BF40F0010070477FEA226C02D15FEA402C05D17FEA236CE4D15FEA412CE1D05DF8040B704700BF844608466146FFE70FB5FFF7C9FF002848BF10F1D0
:406DC000000F0FBD4DF808EDFFF7F4FF0CBF012000205DF808FB00BF4DF808EDFFF7EAFF34BF012000205DF808FB00BF4DF808EDFFF7E0FF94BF012000205DF808FB00BF54
:406E00004DF808EDFFF7D2FF94BF012000205DF808FB00BF4DF808EDFFF7C8FF34BF012000205DF808FB00BF4FEA40024FEA41037FEA226C02D15FEA402C08D17FEA236C1C
:406E400002D15FEA412C02D14FF0000070474FF0010070474FEA4002B2F1FE4F0FD34FF09E03B3EB12620DD94FEA002343F0004310F0004F23FA02F018BF404270474FF025
:406E80000000704712F1610F01D1420205D110F0004008BF6FF0004070474FF00000704742000ED2B2F1FE4F0BD34FF09E03B3EB126209D44FEA002343F0004323FA02F0C9
:406EC00070474FF00000704712F1610F01D1420202D14FF0FF3070474FF00000704700BF014B1868704700BFBC81FF1F0E4B70B51E460E4C0025E41AA410A54204D056F8F6
:406F0000253098470135F8E700F05AFF084B094C1E46E41AA4100025A54204D056F8253098470135F8E770BDCC7D0000CC7D0000CC7D0000D47D000010B5431E0A449142EA
:406F400004D011F8014B03F8014FF8E710BD03460244934202D003F8011BFAE7704700000EB400B54FF402719CB0ADF814106FF00041049107914FF6FF711DAB0290069058
:406F8000084853F8042BADF81610006802A9019300F064F8029B00221A701CB05DF804EB03B07047BC81FF1F2DE9F0478E6882469E420C46914698463ED88A8912F4906F0B
:406FC0003AD02568096902236F1A656905EB450595FBF3F57B1C43449D4238BF1D4653050FD5294600F040FB064698B13A462169FFF7A2FFA38923F4906343F08003A381E7
:4070000013E02A4600F08EFB064670B92169504600F0DEFA0C23CAF80030A3894FF0FF3043F04003A381BDE8F08726613E44266046466561ED1BA560464528BF464649462B
:407040003246206800F0A8FAA36800209B1BA36023681E442660BDE8F08700002DE9F04F9DB003938B8980461C060D4616460DD50B695BB9402100F0F7FA2860286118B99A
:407080000C23C8F80030CDE040236B610023099320238DF82930DFF89CB130238DF82A3037463C4614F8013B1BB9B7EB060910D003E0252BF9D02746F3E74B463246294638
:4070C0004046FFF771FF013000F0A780099B4B4409933B78002B00F0A08000234FF0FF3204930793059206938DF853301A930126052221784E4800F041FA671C049B38B143
:407100004B4A3C46801A06FA00F018430490EFE7D90644BF20228DF853201A0744BF2B228DF8532022782A2A03D0079A00210A200BE0039A111D12680391002A10DA52424B
:4071400043F00200079204900BE027463B780134303B092B03D800FB02320121F5E701B107923B782E2B1ED17B782A2B0AD1039B02371A1D1B680392002BB8BF4FF0FF3324
:40718000059310E0002319460593781C0A2407463A780130303A092A03D804FB01210123F5E703B1059103223978224800F0E6F940B14023CBEB000003FA00F0049B01377B
:4071C00018430490397806221B487E1C8DF8281000F0D4F988B1194B33B9039B073323F007030833039314E003AB00932A46144B04A94046AFF3008007E003AB00932A4610
:407200000F4B04A9404600F093F8B0F1FF3F824603D0099B5344099342E7AB895B0601D4099801E04FF0FF301DB0BDE8F08F00BF8A7D0000907D0000947D0000000000009D
