:400000000080002011000000397D0000397D000080B500AF024A034B1B68136007F0BEFEBC760040FA46004010B5054C237833B9044B13B10448AFF300800123237010BDE8
:400040000082FF1F0000000068CA0000084B10B51BB108490848AFF300800848036803B910BD074B002BFBD0BDE81040184700BF000000000482FF1F68CA0000C880FF1F2C
:400080000000000080B582B000AF78600B46FB70FB78184608F064FC00BF0837BD4680BD80B582B000AF134B1B78FB71FB7903F01E03002B07D0FB7903F01E03DBB21946BE
:4000C0000D4804F07BFEFB7903F02003002B07D00A4B1B78BB71BB791946074804F086FEFB7903F02003002BDDD100BF0837BD4680BD00BF696400401C82FF1F496400402E
:4001000080B500AF044B1B680133034A136008F047FD00BF80BD00BF5C84FF1F80B588B000AF03460A46FB8013467B710023FB77FB7F5A1CFA7707F120021344512203F8D6
:40014000142CFB7F5A1CFA7707F120021344582203F8142CFB887F2B13D8FB7F5A1CFA7707F120021344072203F8142CFB7F5A1CFA77FA88D2B207F120010B4403F8142C60
:4001800023E0FB7F5A1CFA7707F120021344082203F8142CFB7F5A1CFA771946FB88DBB263F07F03DAB207F120030B4403F8142CFB7F5A1CFA771946FB88DB099BB2DAB22F
:4001C00007F120030B4403F8142CFB7F5A1CFA7707F120021344022203F8142CFB7F5A1CFA7707F1200213440A2203F8142CFB7F5A1CFA7707F120021344022203F8142CBF
:40020000FB7F5A1CFA7707F120021344002203F8142CFB7F5A1CFA7707F120021344002203F8142CFB7F5A1CFA7707F1200213447A7903F8142C0023BB830323BB770CE0BB
:40024000BB7F07F12002134413F8143C9AB2BB8B1344BB83BB7F0133BB77BA7FFB7F9A42EED3FB7F5A1CFA771946BB8BDBB2DB43DAB207F120030B4403F8142C0023BB772A
:400280000BE0BB7F07F12002134413F8143C184608F066FBBB7F0133BB77BA7FFB7F9A42EFD300BF2037BD4680BD00BF80B584B000AFF860B9607A603B604FF00001F868F2
:4002C0000AF0AAF80346002B01D02D2200E020223B681A704FF00001F8680AF09DF80346002B03D0FB6883F00043FB60F8680AF0D1F803461AB2BB681A80BB68B3F90030A1
:40030000184609F097FE03461946F86809F0DCFD03460F49184609F0E1FE034618460AF0B9F803461AB27B681A807B68B3F90030002B08DA7B68B3F900309BB25B429BB27A
:400340001AB27B681A8000BF1037BD4680BD00BF0000C84290B591B000AFF860B9607A603B60FB68DB68FB63FB681B69BB63FB685B697B63FB689B693B63B96BF86B09F077
:40038000ADFE03461C46396B786B09F0A7FE03461946204609F09AFD03461946184609F095FD0346FB62B96BB86B09F097FE03461C46796B786B09F091FE03461946204610
:4003C00009F084FD03461946184609F07FFD034619464FF07E5009F077FD0346BB62B96AF86A08F089FF03464549184609F076FE03467B62796BF86B09F070FE03461C465A
:40040000B96B386B09F06AFE03461946204609F05BFD03461946184609F058FD03463B624FF07E51386A0AF00BF80346002B01D0344B11E03449386A09F0F8FF0346002B16
:4004400001D0324B08E0386A08F004FF03462C49184609F043FE0346FB61396BF86B09F03DFE03461C46796BB86B09F037FE03461946204609F02AFD03461946184609F066
:4004800025FD0346BB61796B786B09F027FE03461C46396B386B09F021FE03461946204609F014FD03461946184609F00FFD034619464FF07E5009F007FD03467B617969EA
:4004C000B86908F019FF03460D49184609F006FE03463B61BB683A6879683869FFF7E6FE3B6DBA6D796DF869FFF7E0FEFB6D7A6E396E786AFFF7DAFE00BF4437BD4690BDB0
:40050000E62E65420000B442000080BF0000B4C280B483B000AF0346FB71FB79012B02D0022B02D003E0054B02E0054B00E0054B18460C37BD4680BC704700BF78CA0000EC
:4005400080CA000088CA000080B582B000AF03460A46FB711346BB71FA79BB799A4221D0BB79012B06D1114808F0C6F8104808F0C3F818E0BB79022B03D10E4808F0BCF84B
:4005800011E0BB79032B03D10B4808F0B5F80AE0BB79002B07D1FB79002B04D0074808F0ABF800E000BF0837BD4680BD90CA0000DCCA00001CCB00004CCB000094CB000023
:4005C00080B584B000AFF860B9607A603B60BB681B78012B05D1F86804F0F0FC0C4808F08BF87B6800221A70BB6800221A703B6800221A70BB6900221A70782003F068FDC9
:40060000044808F079F800BF1037BD4680BD00BFA4CB0000C0CB000080B5ACB000AF78600B46FB70002387F8AF3055E007F10803C7F8A83097F8AF301A462C49D7F8A80028
:400640000AF01EFC03461A46D7F8A8301344C7F8A830002387F8AE301AE097F8AF2097F8AE3013441A467B6813441B781A462049D7F8A8000AF004FC03461A46D7F8A830D5
:400680001344C7F8A83097F8AE30013387F8AE3097F8AE30072B07D897F8AF2097F8AE301A44FB789A42D8DBD7F8A830114A1188927819809A7002231A46D7F8A8301344DA
:4006C000C7F8A83007F10803184608F015F897F8AF30083387F8AF3097F8AF20FB789A42A4D300BFB037BD4680BD00BFECCB0000F8CB000000CC000090B5B7B002AFF86032
:40070000B9603B601346FB80FA8897F8E03007F1240000931346BA68C5490AF0B1FB07F12403184607F0E8FF97F8E03019463868FFF772FF97F8E030052B03D8BD4807F02C
:40074000DBFF72E197F8E030022B0AD93B68591C07F11C030222184609F00EFFB7F91C3000E00023A7F8CE3097F8E030042B0AD93B68D91C07F11A030222184609F0FCFE77
:40078000B7F91A3000E00023A7F8CC3097F8E030062B0AD93B68591D07F118030222184609F0EAFEB7F9183000E00023A7F8CA30B7F9CE30184609F03DFC03469E491846FF
:4007C00009F040FD0346184607F1230307F11E0207F12001FFF76AFDB7F9CE2097F823301C46B7F92030B7F91E1007F1240001910093234691490AF043FB07F12403184677
:4008000007F07AFFB7F9CC30184609F013FC03468949184609F016FD0346184607F1230307F11E0207F12001FFF740FDB7F9CC2097F823301C46B7F92030B7F91E1007F1D2
:4008400024000191009323467D490AF019FB07F12403184607F050FFB7F9CA30184609F0E9FB03467449184609F0ECFC0346184607F1230307F11E0207F12001FFF716FD06
:40088000B7F9CA2097F823301C46B7F92030B7F91E1007F1240001910093234669490AF0EFFA07F12403184607F026FF97F8E030122B40F2BA80644807F01EFF97F8E030FD
:4008C0000A2B0BD93B6803F1090107F116030222184609F051FEB7F9163000E00023A7F8C83097F8E0300C2B0BD93B6803F10B0107F114030222184609F03EFEB7F91430BC
:4009000000E00023A7F8C63097F8E0300E2B0BD93B6803F10D0107F112030222184609F02BFEB7F9123000E00023A7F8C430B7F9C830184609F07EFB03463F49184609F0E5
:4009400081FC0346184607F1230307F11E0207F12001FFF7ABFCB7F9C82097F823301C46B7F92030B7F91E1007F1240001910093234636490AF084FA07F12403184607F098
:40098000BBFEB7F9C630184609F054FB03462A49184609F057FC0346184607F1230307F11E0207F12001FFF781FCB7F9C62097F823301C46B7F92030B7F91E1007F124008F
:4009C00001910093234622490AF05AFA07F12403184607F091FEB7F9C430184609F02AFB03461549184609F02DFC0346184607F1230307F11E0207F12001FFF757FCB7F977
:400A0000C42097F823301C46B7F92030B7F91E1007F124000191009323460E490AF030FA07F12403184607F067FED437BD4690BD04CC00003CCC00000000C84254CC000055
:400A400094CC0000D0CC000010CD00002CCD000070CD0000B4CD000080B5B8B002AFF860B9603B601346FB80FA8897F8E03007F1140000931346BA68A1490AF001FA07F1A6
:400A80001403184607F038FE97F8E03019463868FFF7C2FD97F8E0300B2B03D8994807F02BFE2AE197F8E030032B11D93B681B781A063B6801331B781B041A433B680233BA
:400AC0001B781B0213433A6803321278134300E00023C7F8D43097F8E030072B12D93B6804331B781A063B6805331B781B041A433B6806331B781B0213433A6807321278F9
:400B0000134300E00023C7F8D03097F8E0300B2B12D93B6808331B781A063B6809331B781B041A433B680A331B781B0213433A680B321278134300E00023C7F8CC30D7F82C
:400B4000D430002BB8BF5B42C7F8C830D7F8D430002B01DA2D2300E02B2387F8C730D7F8C830694A82FB03129215DB17D31AC7F8C030D7F8C830644A82FB03129115DA17CF
:400B80008A1A624901FB02F29B1AC7F8BC3097F8C72007F11400D7F8BC300193D7F8C03000931346D7F8D42059490AF069F907F11403184607F0A0FDD7F8D030002BB8BFE7
:400BC0005B42C7F8B830D7F8D030002B01DA2D2300E02B2387F8C730D7F8B8304A4A82FB03129215DB17D31AC7F8C030D7F8B830454A82FB03129115DA178A1A434901FB3B
:400C000002F29B1AC7F8BC3097F8C72007F11400D7F8BC300193D7F8C03000931346D7F8D0203C490AF02CF907F11403184607F063FDD7F8CC30002BB8BF5B42C7F8B43010
:400C4000D7F8CC30002B01DA2D2300E02B2387F8C730D7F8B430304A82FB03129211DB17D31AC7F8C030D7F8B4302B4A82FB03129111DA178A1A4FF47A7101FB02F29B1AFB
:400C8000C7F8BC3097F8C72007F11400D7F8BC300193D7F8C03000931346D7F8CC201F490AF0EEF807F11403184607F025FD97F8E0301A2B21D93B681A331B781A463B6820
:400CC0001A331B7807F1140015490AF0D9F807F11403184607F010FD3B681B331B781A463B681B331B7807F114000E490AF0C8F807F11403184607F0FFFCD837BD4680BD3B
:400D0000F8CD00003CCC00006BCA5F6B8096980030CE000070CE0000D34D6210B0CE0000F4CE000030CF000090B5B3B002AFF860B9603B601346FB80FA8897F8D03007F1EA
:400D40001C0000931346BA6847490AF099F807F11C03184607F0D0FC97F8D03019463868FFF75AFC97F8D030032B03D83F4807F0C3FC75E097F8D030022B0AD93B68591C3B
:400D800007F114030222184609F0F6FBB7F9143000E00023A7F8BE3097F8D030042B0AD93B68D91C07F112030222184609F0E4FBB7F9123000E00023A7F8BC30B7F9BE3076
:400DC000184609F037F903462949184609F03AFA0346184607F11B0307F1160207F11801FFF764FAB7F9BE20FB7E1C46B7F91830B7F9161007F11C000191009323461D49B5
:400E00000AF03EF807F11C03184607F075FCB7F9BC30184609F00EF903461749184609F011FA0346184607F11B0307F1160207F11801FFF73BFAB7F9BC20FB7E1C46B7F980
:400E40001830B7F9161007F11C000191009323460A490AF015F807F11C03184607F04CFCC437BD4690BD00BF6CCF00003CCC000000002041A4CF00000000C842E8CF0000C2
:400E8000B0B5B2B002AFF860B9603B601346FB80FA8897F8D03007F11C0000931346BA68944909F0EDFF07F11C03184607F024FC97F8D03019463868FFF7AEFB97F8D0309D
:400EC000042B03D88C4807F017FC10E197F8D030012B0AD93B681B781B021AB23B6801331B781BB213431BB200E00023A7F8BE30B7F9BE30184609F09DF803467F49184679
:400F000009F0A0F90346184607F11B0307F1160207F11801FFF7CAF9B7F9BE20FB7E1C46B7F91830B7F9161007F11C00019100932346734909F0A4FF07F11C03184607F0EB
:400F4000DBFB3B6802331B781A463B6802331B7807F11C006B4909F093FF07F11C03184607F0CAFB3B6803331B781C463B6803331B78654AA2FB03235B08DBB21D463B683F
:400F800003331A78604BA3FB021359080B465B000B44D31ADBB21A4613465B01134407F11C0000932B462246584909F069FF07F11C03184607F0A0FB97F8D030042B10D999
:400FC0003B6804331B781A463B6804331B7807F11C004F4909F054FF07F11C03184607F08BFB97F8D030062B1DD997F8D030062B0DD93B6805331B781B021AB23B6806333E
:401000001B781BB213431BB29BB21A4600E0002207F11C033F49184609F032FF07F11C03184607F069FB97F8D0300A2B3BD997F8D0300A2B0BD93B6809331B781B021AB2AC
:401040003B680A331B781BB213431BB200E00023A7F8BC30B7F9BC30184608F0EBFF03462D49184609F0EEF80346184607F11B0307F1160207F11801FFF718F9B7F9BC2036
:40108000FB7E1C46B7F91830B7F9161007F11C00019100932346214909F0F2FE07F11C03184607F029FB97F8D0300C2B1CD997F8D0300C2B0CD93B680B331B781B021AB23F
:4010C0003B680C331B781BB213431BB21A4600E0002207F11C031249184609F0D1FE07F11C03184607F008FB0E4807F005FBC037BD46B0BD24D000003CCC00000000C84268
:401100005CD000009CD00000ABAAAAAADCD0000018D100004CD100000000204184D10000C8D10000FCD1000090B5B3B002AFF860B9603B601346FB80FA8897F8D03007F15E
:40114000180000931346BA68624909F099FE07F11803184607F0D0FA97F8D03019463868FFF75AFA97F8D030052B03D85A4807F0C3FAABE097F8D030012B0AD93B681B78B5
:401180001B021AB23B6801331B781BB213431BB200E00023A7F8BE3097F8D030032B0BD93B6802331B781B021AB23B6803331B781BB213431BB200E00023A7F8BC3097F8EE
:4011C000D030052B0BD93B6804331B781B021AB23B6805331B781BB213431BB200E00023A7F8BA30B7F9BE30184608F023FF07F1170307F1120207F11401FFF757F8B7F965
:40120000BE2007F118033549184609F039FE07F11803184607F070FAB7F9BC2007F118032F49184609F02CFE07F11803184607F063FAB7F9BA2007F118032A49184609F01B
:401240001FFE07F11803184607F056FA97F8D0300D2B3BD997F8D0300D2B0BD93B680C331B781B021AB23B680D331B781BB213431BB200E00023A7F8B830B7F9B8301846CF
:4012800008F0D8FE03461849184608F0DBFF0346184607F1170307F1120207F11401FFF705F8B7F9B820FB7D1C46B7F91430B7F9121007F118000191009323460B4909F0AE
:4012C000DFFD07F11803184607F016FAC437BD4690BD00BF20D200003CCC000058D2000088D20000B8D200000000C842E8D2000090B5B3B002AFF860B9603B601346FB808B
:40130000FA8897F8D03007F1180000931346BA68694909F0B5FD07F11803184607F0ECF997F8D03019463868FFF776F997F8D030062B03D8614807F0DFF9B9E097F8D030A6
:40134000022B0BD93B6801331B781B021AB23B6802331B781BB213431BB200E00023A7F8BE3097F8D030042B0BD93B6803331B781B021AB23B6804331B781BB213431BB2CA
:4013800000E00023A7F8BC3097F8D030062B0BD93B6805331B781B021AB23B6806331B781BB213431BB200E00023A7F8BA30B7F9BE30184608F03EFE03464149184608F060
:4013C00041FF0346184607F1170307F1120207F11401FEF76BFFB7F9BE20FB7D1C46B7F91430B7F9121007F11800019100932346344909F045FD07F11803184607F07CF91B
:40140000B7F9BC30184608F015FE03462C49184608F018FF0346184607F1170307F1120207F11401FEF742FFB7F9BC20FB7D1C46B7F91430B7F9121007F118000191009313
:401440002346214909F01CFD07F11803184607F053F9B7F9BA30184608F0ECFD03461849184608F0EFFE0346184607F1170307F1120207F11401FEF719FFB7F9BA20FB7D2C
:401480001C46B7F91430B7F9121007F118000191009323460D4909F0F3FC07F11803184607F02AF90A4807F027F90A4807F024F9C437BD4690BD00BF28D300003CCC0000C1
:4014C0000000C84260D30000ACD30000F8D3000064D40000A4D40000B0B5B2B004AFF860B9603B601346FB80FA8897F8C83007F1140000931346BA68414909F0C1FC07F100
:401500001403184607F0F8F897F8C83019463868FFF782F897F8C830082B03D8394807F0EBF869E007F11403374A1C4615460FCD0FC495E80F0007C4237007F114031846CD
:4015400007F0DAF83B6808331B781A4607F114032E49184609F094FC07F11403184607F0CBF897F8C8300D2B46D93B6809331B781C463B680A331B781D463B680B331B7841
:401580001A463B680C331B7819463B680D331B7807F114000293019100922B4622461C4909F06EFC07F11403184607F0A5F8002387F8B730092387F8B6300FE097F8B6309C
:4015C0003A6813441B78002B03D0012387F8B73008E097F8B630013387F8B63097F8B6300D2BEBD997F8B730002B01D0094B00E0094B184607F080F8B837BD46B0BD00BF8B
:40160000ECD400003CCC000024D5000044D5000084D500000CD6000040D600002DE9F04FEDB008AF3B1D186007F118023B1D1146186803F005FE5B4807F05EF85A4807F046
:401640005BF807F118031B7883F00103DBB2002B03D0564807F050F89FE007F1100407F1120207F1170107F1180007F10803059307F10A03049307F11503039307F10C03F7
:40168000029307F10E03019307F1160300932346FEF760FE07F117031B789E4607F11203B3F900309C4607F11003B3F900301A4607F116031B78194607F10E03B3F9003015
:4016C0001C4607F10C03B3F900301D4607F115031B781E4607F10A03B3F900303B6007F10803B3F9003007F1F00006933B68059304960395029401910092634672462C4962
:4017000009F0BEFB07F1F003184606F0F5FF07F11803DB68184608F0A7FA82468B4607F118031B69184608F09FFA04460D4607F118035B69184608F097FA8046894607F170
:4017400018039B69184608F08FFA02460B4607F1F000CDE90423CDE90289CDE9004552465B46144909F08CFB07F1F003184606F0C3FF114806F0C0FF3B1D1621186803F0AA
:4017800033FC0E4B1A683B1D1B68C3F814220C4806F0B2FF0B4806F0AFFF07F5CA77BD46BDE8F08F74D60000A0D60000ECD6000038D700007CD70000B0D700005C84FF1F94
:4017C000F4D700003CD8000080B5CEB002AF3B1D18603B46196007F14C023B1D1146186803F02EFD3B1D1B68B3F81C32A7F82E313B1D1B68B3F81A32A7F82C313B1D1B68CE
:4018000003F21E23C7F828313B1D1B6893F83E3287F82731B7F82C31013B2F2B00F2C68001A252F823F000BF3D190000751900002119000005190000AD190000AD1900004C
:40184000AD190000AD190000AD190000AD190000AD19000059190000AD190000AD190000AD190000AD190000AD190000AD190000AD190000AD190000AD190000E918000021
:40188000AD190000AD190000AD190000AD190000AD190000AD190000AD190000AD190000AD190000AD190000AD190000AD190000AD190000AD190000AD190000AD190000C8
:4018C000AD190000AD190000AD190000AD190000AD190000AD190000AD190000AD190000AD19000091190000B7F82E21394607F14C0097F827310093D7F828310968FEF77F
:40190000FBFE61E0B7F82E21394607F14C0097F827310093D7F828310968FFF79DF853E0B7F82E21394607F14C0097F827310093D7F828310968FFF7F7F945E0B7F82E21FE
:40194000394607F14C0097F827310093D7F828310968FFF795FA37E0B7F82E21394607F14C0097F827310093D7F828310968FFF7DBFB29E0B7F82E21394607F14C0097F8FC
:4019800027310093D7F828310968FFF7B1FC1BE0B7F82E21394607F14C0097F827310093D7F828310968FFF797FD0DE0B7F82C2107F10C030749184609F062FA07F10C03AD
:4019C000184606F099FE00BF00BF07F59877BD4680BD00BF88D80000F0B5BDB004AF78600B46FB70FB78052B03D8674806F084FEC6E0FB78012B0AD97B681B781B021AB28F
:401A00007B6801331B781BB213431BB200E00023A7F8DA30FB78032B0BD97B6802331B781B021AB27B6803331B781BB213431BB200E00023A7F8D830FB78052B0BD97B6897
:401A400004331B781B021AB27B6805331B781BB213431BB200E00023A7F8D630B7F9D830184608F0E7FA0446B7F9DA30184608F0E1FA03461946204607F03EFC0346434935
:401A8000184608F02BFB0346C7F8DC304FF00001D7F8DC0008F0C0FC0346002B07D03C49D7F8DC0008F012FA0346C7F8DC3007F12F0307F1300207F13201D7F8DC00FEF745
:401AC000F5FB00237B6107F1180300221A605A609A60DA601A61FB780D2B33D9FB780D2B0BD97B680C331B781B021AB27B680D331B781BB213431BB200E00023A7F8D430AF
:401B0000B7F9D430184608F095FA03462149184608F098FB0346184607F1130307F10E0207F11001FEF7C2FBFB7C1A46B7F910301946B7F90E3007F1140000930B46164995
:401B400009F09EF9B7F9DA10B7F9D840B7F9D630B7F932201546B7F93020164607F1340007F11402039202960195009323460A460A4909F085F907F13403184606F0BCFDB5
:401B8000E437BD46F0BD00BFBCD80000E62E65420000B4430000C842CCD80000E0D80000F0B5B5B004AF78600B46FB70FB78042B03D8374806F0A0FD66E0FB78022B0AD946
:401BC0007B68591C07F110030222184608F0D4FCB7F9103000E00023A7F8BE30FB78042B0AD97B68D91C07F10E030222184608F0C3FCB7F90E3000E00023A7F8BC30B7F9ED
:401C0000BE30184608F016FA03462249184608F019FB0346184607F11B0307F1160207F11801FEF743FBB7F9BC30184608F002FA03461949184608F005FB0346184607F193
:401C40001A0307F1120207F11401FEF72FFBFB7E1D46B7F918301E46B7F91630BA7EB7F91410B7F91200044607F11C00039402910192009333462A46084909F001F907F140
:401C80001C03184606F038FDC437BD46F0BD00BF14D90000000020410000C84224D90000F0B5B9B004AF78600B46FB70FB78032B03D85D4806F020FDB2E0FB78012B0AD920
:401CC0007B681B781B021AB27B6801331B781BB213431BB200E00023A7F8CE307B689B7887F8CD307B68DB7887F8CC30B7F9CE30184608F09FF903464C49184608F0A2FABC
:401D00000346184607F1270307F1220207F12401FEF7CCFA97F8CC30642202FB03F3444AA2FB03235B08A7F8CA3097F827301E46B7F924309E46B7F922301C4697F8CD2083
:401D4000B7F9CA303B4981FB03014911DB17CB1A1BB21D46B7F9CA30364981FB03014811D917411A642000FB01F15B1A1BB207F128000393029501920094734632462E4938
:401D800009F07EF8FB780A2B42D9FB780A2B0BD97B6809331B781B021AB27B680A331B781BB213431BB200E00023A7F8C830B7F9C830184608F03EF903462049184608F050
:401DC00041FA0346184607F1210307F11C0207F11E01FEF76BFA97F821301A46B7F91E301946B7F91C3007F1080000930B46144909F046F807F12803184606F07DFC07F165
:401E00000803184606F078FC0E4806F075FC07E007F12803184606F06FFC0A4806F06CFCD437BD46F0BD00BF50D900000000C842ABAAAAAA1F85EB5160D9000000002041C9
:401E400094D9000000CC00002DE9F041B8B008AF78600B46FB70FB78062B03D8504806F04BFC99E0FB78022B0BD97B6801331B781B021AB27B6802331B781BB213431BB2B0
:401E800000E00023A7F8BE30FB78042B0BD97B6803331B781B021AB27B6804331B781BB213431BB200E00023A7F8BC30FB78062B0BD97B6805331B781B021AB27B68063311
:401EC0001B781BB213431BB200E00023A7F8BA30B7F9BE30184608F0ADF803463149184608F0B0F90346184607F1170307F1100207F11201FEF7DAF9B7F9BC30184608F0F0
:401F000099F803462749184608F09CF90346184607F1160307F10C0207F10E01FEF7C6F9B7F9BA30184608F085F803461D49184608F088F90346184607F1150307F1080247
:401F400007F10A01FEF7B2F9FB7D9E46B7F912309C46B7F91030BA7DB7F90E10B7F90C000446787D0546B7F90A000646B7F9080007F11808069005960495039402910192F6
:401F80000093634672460849404608F079FF07F11803184606F0B0FBC037BD46BDE8F081A8D900000000C842B8D9000080B582B000AF03463960FB8013467B71FB88013B31
:401FC0000B2B33D801A252F823F000BF1520000021200000092000002D2000002D2000002D2000002D2000002D2000002D2000002D2000002D200000FD1F00007B7919466B
:402000003868FFF7E9FC12E07B7919463868FFF7C7FD0CE07B7919463868FFF741FE06E07B7919463868FFF70FFF00E000BF00BF0837BD4680BD00BF2DE9F043ADF52B7D66
:402040000EAF07F26F1300221A7007F5B77300221A7007F26D1300221A70002387F86F3207F5B67300221A7007F5B0734FF000021A6007F5B0734FF000025A60002387F8DB
:402080006E32002387F86D321BE097F86D2207F59E73002123F8121097F86D3207F59E725B001344FF229A8097F86D2207F59E730432802123F8121097F86D32013387F874
:4020C0006D3297F86D32012BDFD907F59E7300221A73012387F86C32012387F86B320123C7F8543262B606F069FABC4806F004FBBB4806F001FBBB4806F0FEFABA4806F041
:40210000FBFABA4806F0F8FAB94806F0F5FAB94806F0F2FAB84806F0EFFAB84806F0ECFAB74806F0E9FAB74806F0E6FAB64806F0E3FAB64806F0E0FAAA4806F0DDFA06F03B
:402140008DFB06F0EBFB06F025FCB149B14802F0E7FDB14806F040FCB04806F0CDFA07F59E73D7F85412184601F03CFF01F048FCAB4806F0C1FA06F0F1FCAA4806F03EFD90
:40218000A94806F0B9FAA94806F0B6FA06F078FA034687F8533207F26F131B78002B05D007F26F131B78012B40F0B58297F853326D2B03D097F853324D2B1AD107F26F1319
:4021C0001B78002B0DD107F26F1301221A70012387F86F32964B00221A70964806F08CFAE7E107F26F1300221A70934806F084FADFE197F85332742B03D097F85332542BD9
:4022000016D107F26F131B78002B0DD107F26F1302221A70894806F06FFA894806F06CFA884806F069FAC4E1874806F065FAC0E197F85332722B03D097F85332522B33D16E
:4022400007F26F131B78002B2AD107F26F1304221A707E4B01221A707D4B00221A707D4B1B687D4A13607B4B1B687C4A13607C4806F042FA7B4806F03FFA7B4806F03CFA37
:4022800001214FF4BF70FDF749FF4FF4BF71614802F0AAFE6F4B1B685E4AC2F8143288E1724806F029FA84E197F85332762B03D097F85332562B1CD107F26F131B78002BCF
:4022C00013D107F26F1305221A70694B00221A70684B00221A70684806F00EFA674806F00BFA674806F008FA63E1604806F004FA5FE197F85332772B03D097F85332572BD1
:4023000024D107F26F131B78002B1BD107F26F1303221A705B4B40F221321A805A4B40F221321A80594B00221A70594B00221A70584806F0E1F9584806F0DEF9574806F0BE
:40234000DBF936E1494806F0D7F932E197F853326A2B03D097F853324A2B22D107F5B7731B78002B0CBF01230023DBB21A4607F5B7731A7007F5B7731B78002B05D00123A0
:4023800087F86F322A4B00221A7007F5B7731B78002B01D0424B00E0424B184606F0ACF907E197F853326C2B04D097F853324C2B40F09C8007F5B6731B78002B04D107F542
:4023C000B67301221A7073E007F5B6731B78012B6AD107F5B67302221A7069E008DA000038DA00005CDA000088DA0000B8DA0000ECDA000010DB000034DB000074DB00004C
:40240000A4DB0000C0DB0000ECDB000020DC000070CA00001C82FF1FA100000048DC000064DC00000101000084DC0000A0DC00006084FF1FB8DC0000DCDC0000FCDC0000C0
:4024400014DD00003CDD00006CDD00006184FF1F6284FF1F5C84FF1F6484FF1F6884FF1F9CDD0000D0DD0000FCDD00003CDE00006C84FF1F6D84FF1F58DE000088DE000022
:40248000B8DE0000CC80FF1FCE80FF1F6E84FF1F6F84FF1FD4DE000004DF000030DF000058DF000080DF000007F5B67300221A70B54B00221A7007F5B6731B781846FEF7CD
:4024C00027F8024607F5B873B049184608F0D8FC07F5B873184606F00FF907F5B6731B78022B66D1AA4806F007F962E097F853326B2B03D097F853324B2B10D1A24B00226B
:402500001A7007F26D1007F5B77207F26F1107F5B673009303469F48FEF752F849E097F85332782B03D097F85332582B16D1964B00221A7007F26D1007F5B77207F26F1104
:4025400007F5B673009303469248FEF739F8002387F86F32904806F0CFF82AE097F85332732B03D097F85332532B17D107F26D131B78002B0CBF01230023DBB21A4607F24A
:402580006D131A7007F26D131B78002B01D0834B00E0834B184606F0AFF80AE097F85332632B03D097F85332432B02D1632001F08FFD07F26F131B78012B40F0548297F80F
:4025C0005332662B03D097F85332462B0FD13021704802F009FD734B1B686E4AC2F81432714B30221A70714806F086F892E097F85332702B03D097F85332502B14D16C4BAF
:402600001B78002B0CBF01230023DBB21A46684B1A70674B1B78002B01D0664B00E0664B184606F069F875E097F853322F2B40F21A8297F85332352B00F2158207F5B673B5
:402640001B78022B03D05D4806F056F80BE297F85332303B052B54D801A252F823F000BF7926000091260000A9260000BF260000D5260000EB260000514B4FF000021A60EA
:40268000504B4FF000021A604F4806F035F839E04B4B4FF07A521A604A4B4FF000021A604A4806F029F82DE0454B494A1A60454B4FF000021A60474806F01EF822E0404BC0
:4026C0004FF000021A603F4B434A1A60434806F013F817E03A4B4FF000021A60394B404A1A60404806F008F80CE0354B4FF07C521A60344B4FF000021A603B4805F0FCFF25
:4027000000E000BF204B01221A7007F5B77300221A70A8E1A7E107F26F131B78032B6BD197F85332002B00F0A18197F85332782B0BD097F85332582B07D097F853326B2B8C
:4027400003D097F853324B2B15D1284B00221A70274B00221A700F4B0022A3F812220D4B002283F8182207F26F1300221A70214805F0C2FF7AE11E4B1B78002B00F07681B0
:402780001B4B00221A7071E16084FF1F98DF0000ACDF00001C82FF1FDCDF00000CE0000024E000005C84FF1F7084FF1F3CE000007184FF1F6CE00000ACE00000C8E000008B
:4027C0007484FF1F7884FF1FECE0000014E10000000080BE34E10000ABAA2A3E54E10000ABAA2ABE74E1000094E100006F84FF1F6E84FF1FB4E1000007F26F131B78022BAB
:4028000040F0ED8097F85332742B03D097F85332542B0FD1AF4B0022A3F81222AD4B002283F8182207F26F1300221A70AA4805F063FF1BE197F853326B2B0BD097F8533243
:402840004B2B07D097F85332782B03D097F85332582B24D19F4B0022A3F812229D4B002283F8182207F26D1007F5B77207F26F1107F5B673009303469648FDF7A1FE97F846
:402880005332782B04D097F85332582B40F0ED80002387F86F32914805F02EFFE5E097F85332612B03D097F85332412B0CD11621884802F099FB8A4B1B68864AC2F8143260
:4028C000884805F019FFD1E097F85332672B03D097F85332472B0CD104217E4802F084FB7F4B1B687B4AC2F814327F4805F004FFBCE097F85332622B03D097F85332422BB0
:402900000CD10321734802F06FFB754B1B68714AC2F81432754805F0EFFEA7E097F85332732B03D097F85332532B0CD10121694802F05AFB6A4B1B68664AC2F814326C48B1
:4029400005F0DAFE92E097F853326E2B03D097F853324E2B0CD10C215E4802F045FB604B1B685C4AC2F81432624805F0C5FE7DE097F85332322B0FD10221564802F034FB63
:40298000574B1B68534AC2F814325B4805F0B4FE5A4805F0B1FE69E097F85332342B12D130214C4802F020FB4D4B1B68494AC2F81432534805F0A0FE524805F09DFE524894
:4029C00005F09AFE52E097F85332712B03D097F85332512B4AD13F48FEF720FE46E007F26F131B78042B22D197F85332782B0BD097F85332582B07D097F853326B2B03D07D
:402A000097F853324B2B31D1324B0022A3F81222304B002283F818223C4B00221A7007F26F1300221A703A4805F066FE1EE007F26F131B78052B19D197F85332002B15D0CB
:402A4000244B0022A3F81222224B002283F81822304B00221A7007F26F1300221A702E4805F04AFE02E000BF00E000BF01F068FB034687F8523297F8522297F86E32114648
:402A80001846FDF761FD97F8523287F86E32114802F0CAF907F26F131B78022B5FD10D4B93F81832002B39D00D4B1A68094BD3F81432D31AC7F84C32D7F84C120548FEF782
:402AC00083FE044B002283F81822024B0022A3F8122244E01C82FF1FD0E10000E4E100005C84FF1FFCE1000028E2000048E2000068E2000094E20000C0E20000F0E2000058
:402B000024E300004CE3000088E300006184FF1FC8E300006D84FF1FE8E30000BD4BB3F81232002B1BD0BC4B1A68BA4BD3F81432D31AB3F5FA6F12D3B64BB3F812321A468D
:402B400007F5B873B549184608F09AF907F5B873184605F0D1FDAF4B0022A3F8122207F26F131B78032B40F0A481AD4B1B78002B40F09F81AB4B1B78002B00F0C180A54BA8
:402B800093F81832002B00F0BB80A34B1A68A64B1B68D31AC7F8483207F5B873C7F864329C4BB3F81A321A46D7F848329F49D7F8640208F065F903461A46D7F86432134405
:402BC000C7F86432002387F8633215E097F86332974AD35C1A469749D7F8640208F050F903461A46D7F864321344C7F8643297F86332013387F863328F4B1B7897F86322C3
:402C00009A42E3D3D7F864328C491A460B461B88138001231A46D7F864321344C7F86432002387F8633217E097F86332794A134493F81E321A467F49D7F8640208F020F997
:402C400003461A46D7F864321344C7F8643297F86332013387F863326E4B93F83E3297F863229A42E0D3D7F86432754A1188927819809A7002231A46D7F864321344C7F86D
:402C8000643207F5B873184605F036FD614B002283F818225F4B0022A3F81222614B00221A70684B1B8801339AB2664B1A80654B1B881A46644B1B88C8339A4205D0614BDD
:402CC0001B88B3F5166F40F2F180604805F014FD5C4B1B88B3F5166F07D95D4805F00CFD07F26F1300221A70E0E0564B1A88564B1A804B4B01221A70564805F0FDFCD5E0D0
:402D0000484B1B78002B00F0AB80434B1A68464B1B68D31AB3F5FA7FC0F0A28007F5B873C7F85C32474B1B881A464FF4FA734A49D7F85C0208F0A4F803461A46D7F85C3210
:402D40001344C7F85C32002387F85B3215E097F85B32374AD35C1A463649D7F85C0208F08FF803461A46D7F85C321344C7F85C3297F85B32013387F85B322F4B1B7897F892
:402D80005B229A42E3D3D7F85C32344A1068186003231A46D7F85C321344C7F85C3207F5B873184605F0A8FC1A4B0022A3F812221C4B00221A70234B1B8801339AB2214B2E
:402DC0001A80204B1B881A461F4B1B88C8339A4204D01C4B1B88B3F5166F69D91B4805F08BFC184B1B88B3F5166F07D9184805F083FC07F26F1300221A7059E0114B1A8876
:402E0000114B1A80064B01221A70124805F074FC4EE000BF1C82FF1F5C84FF1F00E400006E84FF1F6F84FF1F7C84FF1F1CE400008084FF1F24E400009084FF1F2CE40000A9
:402E400000CC0000CC80FF1FCE80FF1F30E400003CE400005CE400007CE4000084E40000A34B1B78002B24D1A24B1B78002B20D1A14B1B88B3F5166F1BD8A04B00221A70F1
:402E80009D4B19889D4B009310239D4A9D4802F00FF99D4B1B689D4A13609C4B1B68994AC2F81432924B01221A7002E000BF00E000BF07F26F131B78042B40F0BA80914BB6
:402EC00093F81832002B77D08E4BB3F81A32B3F5BF7F71D18B4B93F83E32002B03D0894B93F81E3200E0FF2387F84732854B002283F81822834B0022A3F8122297F84732AD
:402F0000012B1AD1824B01221A707F4B1A68814B1B68D31A804AA2FB03239A0907F5B8737E49184607F0ACFF07F5B873184605F0E3FB7B4B02221A703EE097F84732002B3D
:402F400025D1734B1B78002B21D06F4B1A68714B1B68D31A704AA2FB03239A0907F5B8737049184607F08CFF07F5B873184605F0C3FB6D4805F0C0FB6C4805F0BDFB684BF5
:402F800003221A7007F26F1300221A7014E05E4B1A68604B1B68D31A5F4AA2FB03239A0997F8473207F5B870614907F069FF07F5B873184605F0A0FB594B1B78032B1AD059
:402FC000514B1A685B4B1B68D31AB3F57A7F12D34C4BB3F81232002B0DD14B4B1B68554A13604FF4BF71474801F0FEFF464B1B68444AC2F81432444B1A68464B1B68D31AB9
:4030000043F69722934214D94B4805F075FB4B4805F072FB3B4B0022A3F81222394B002283F818223E4B00221A7007F26F1300221A7007F26F131B78052B40F0B380404B95
:403040001B78002B23D02F4B93F81832002B1ED02C4BB3F81A022B4B93F83E321A463949FEF7A4FF274B002283F81822254B0022A3F81222324B00221A70334B1B780133F6
:40308000DBB203F00303DAB22F4B1A708AE02C4B1B78002B60D01C4B1A682C4B1B68D31A40F2DB52934257D9274B1B781A46284B33F812301A4607F5B8732649184607F067
:4030C000DFFE07F5B873184605F016FB0D4B0022A3F812221A4B00221A701B4B1B780133DBB203F00303DAB2174B1A705AE000BF6F84FF1F6E84FF1FCC80FF1F9084FF1F2D
:403100008084FF1F1C82FF1F5C84FF1F7C84FF1F6284FF1F6484FF1FD34D621088E400006184FF1FB4E40000DCE4000008E5000040E500006884FF1F78E50000ACE5000028
:403140006D84FF1F3A84FF1F6C84FF1F9484FF1FDCE70000DCE50000BF4B1B78002B21D1BE4B1A68BE4B1B68D31AB3F5167F19D3BC4B1B781A46BC4B33F81230A7F8443232
:40318000B7F844321946B94801F02EFFB34B1B68B64AC2F81432B14B1B68B14A1360AE4B01221A7007F26F131B78012B4BD1B04B1B78002B25D0AD4B93F81832002B20D06C
:4031C000AA4BB3F81A22AA4B1B789BB29A4218D1A24B1A68A54BD3F81432D31AC7F84032D7F84012A148FEF7EFFAA04B002283F818229E4B0022A3F812229D4B00221A70B3
:4032000021E09B4B1B78002B1DD0944B1A68974BD3F81432D31AB3F5FA6F14D3944B1B781A4607F5B8739349184607F029FE07F5B873184605F060FA8C4B0022A3F81222D6
:403240008B4B00221A7005F0C9FF034687F83F3297F86B32012B28D197F83F32002B24D1322005F039FF05F0B9FF0346002B1CD197F86C325A1C804B83FB0231D317C91AEC
:403280000B465B000B44D11A0B4687F86C3297F86C32184600F062FC784805F02DFA00BF05F09CFF0346002BFAD097F83F3287F86B3207F5B473184600F00AFC0346002B71
:4032C0006ED007F5B473184600F0DEFE07F5B073184600F049FF07F26D131B78002B41D007F5B0731B686649184606F0F7FE0346184607F0CFF80346A7F83C3207F5B073D2
:403300005B685F49184606F0E9FE0346184607F0C1F80346A7F83A3207F5B473B3F90030184600F00BFCC7F8340207F5B473B3F90230184600F002FCC7F83002B7F93C3297
:40334000B7F93A2207F5B87001920093D7F83032D7F834224B4907F093FD07F5B873184605F0CAF900F0ECFE0346022B18D100F0F1FE0346A7F82E32B7F82E3203F00703DD
:403380009BB2002B0CD1B7F82E2207F5B87020233D4907F075FD07F5B873184605F0ACF907F5A6730122DA7307F5A67300221A74364B1B78002B20D007F5B6731B78022BE6
:4033C0001BD107F5A67302221A7307F5A67302225A7307F5A67300229A732D4B1A6807F5A6731A602B4B1A6807F5A6735A6007F5A6734FF000029A6069E007F5B7731B782F
:40340000002B49D000F09CFE0346002B44D107F5B6731A7807F5A6731A7307F5B6731A7807F5A6735A7307F5A67300229A7307F5B0731A6807F5A6731A6007F5B0735B68ED
:4034400083F0004207F5A6735A6007F5A6734FF000029A603BE000BF6D84FF1F5C84FF1F9484FF1F6C84FF1FDCE700001C82FF1F7084FF1FF8E500005655555514E6000090
:4034800000007A4428E6000058E600006084FF1F7484FF1F7884FF1F07F5A67300221A7307F5A67300225A7307F5A67300229A7307F5A6734FF000021A6007F5A6734FF0A0
:4034C00000025A6007F5A6734FF000029A6007F26F131B78012B18D100F032FE0346002B13D1494B1A68494B1B68D31A632B0CD9454B1B68454A136007F5A6731946444883
:4035000001F042FD424801F053FE97F86F32002B3EF43CAE07F26F131B78012B7EF436AE00F00EFE0346002B7EF430AE364B1A68384B1B68D31AB3F57A7FFEF427AE324BED
:403540001B68344A1360304B1B68C7F82832D7F82832314AA2FB03239A09304BA3FB021359090B461B015B1A9B00D31AC7F82432D7F828322A4AA2FB03239A0B274BA3FB92
:40358000021359090B461B015B1A9B00D31AC7F82032D7F82832234AA2FB03235B0DC7F81C3207F5B870D7F824320093D7F82032D7F81C221C4907F063FC07F5B873184601
:4035C00005F09AF807F592731946114801F050FE07F592731C6807F592739D6807F59273DB6807F59272927D164607F5B7721278002A01D00D4A00E00D4A0E4909780029D9
:403600001CD00D491BE000BF5C84FF1F9884FF1F1C82FF1F9C84FF1FD34D62108988888873B2E745B17C219578E6000090E6000098E600006084FF1F9CE60000A14907F5B9
:40364000B87003910292019600932B4622469E4907F016FC07F5B873184605F04DF807F124031946994801F0EBFD07F124031B78002B00F03B8107F5897407F58A7207F29D
:40368000191107F1240007F58573059307F58673049307F21713039307F58773029307F58873019307F58C7300932346FCF752FE07F124035B68184606F0ECFE0346A7F89B
:4036C0001A3207F124035C68B7F91A32184606F0B1FC03461946204606F0F6FB03467C49184606F0FBFC0346184606F0D3FE0346A7F8183207F124039B68184606F0CAFE72
:403700000346A7F8163207F124039C68B7F91632184606F08FFC03461946204606F0D4FB03466B49184606F0D9FC0346184606F0B1FE0346A7F8143207F124031B7F9B098F
:40374000DBB203F0010387F8133207F124031B7F1B09DBB203F0010387F8123207F124035B7F1B09DBB203F0010387F81132594B1B78002B4AD0584B1B685849184606F0E3
:40378000ADFC0346184607F2091307F5827207F58371FCF78BFD524B1B685049184606F09DFC0346184607F1FF0307F5807207F58171FCF77BFD07F209131B781D4607F5B4
:4037C0008373B3F900301E4607F58273B3F900301A4607F1FF031B78194607F58173B3F900301C4607F58073B3F9003007F5B870039302940191009233462A46394907F0AB
:403800003FFB07F5B873184604F076FF07F219131B789C4607F58A73B3F90030984607F58973B3F90030FB6107F58C731B78BB6107F58873B3F900307B6107F58773B3F9E8
:4038400000303B6107F217131B78FB6007F58673B3F90030BB6007F58573B3F900307B60B7F91A02B7F91842B7F91652B7F9146297F8131297F8122297F8113207F5B87E45
:403880000D930C920B910A960995089407907A680692BA680592FA6804923A6903927A690292BA690192FB690093434662460E49704607F0E5FA07F5B873184604F01CFF8E
:4038C00017E000BF98E60000A4E600001C82FF1F000020416084FF1F7484FF1F000034437884FF1FDCE600001CE70000384804F003FF384B1B78002B0FD0374B1B78002BA9
:403900000BD10221354801F06FFB354B1B68334AC2F81432304B02221A7007F5B073186807F2231307F58F7207F59071FCF7BEFC07F5B073586807F5917307F58D7207F5BC
:403940008E71FCF7B3FC07F223131B78984607F59073B3F90030994607F58F73B3F900301C4607F5B6731B781846FCF7D1FD054607F591731B781E4607F58E73B3F900301E
:40398000FB6107F58D73B3F90030BB6107F5B6731B781846FCF7BCFD034607F5B8700593BA690492FB6903930296019500944B4642460C4907F064FA07F5B873184604F03F
:4039C0009BFE064B002283F80A21FEF7DFBB00BF88E700007184FF1F7084FF1F1C82FF1F5C84FF1FA8E7000080B500AF04F02AFF024B01221A7000BF80BD00BFA084FF1FF2
:403A000080B582B000AF62B604F096FB04F096FE114804F0C9FE114B00221A70104B00221A70104B00221A700023FB7107E0FB790D4A002122F81310FB790133FB71FB79FA
:403A4000012BF4D9002004F093FE04F08DFB00BF0837BD4680BD00BFE9390000A284FF1FA084FF1FA184FF1FA484FF1F98B500AF04F08AFB134B1B78DBB21C4604F094FB26
:403A800003461A46104B23F814200E4B1B78DBB2012B06D10D4B01221A700A4B00221A7006E0084B1B78DBB20133DAB2054B1A70044B1B78DBB2184604F05AFE04F054FBE2
:403AC00000BF98BDA284FF1FA484FF1FA184FF1F80B584B000AF7860154B1B78DBB2002B04D0134B00221A70FFF7C0FF114B1B78DBB2002B17D00F4B00221A700023FB7392
:403B00000CE0FB7B5B007A681344FA7B0A4931F8122012B21A80FB7B0133FB73FB7B012BEFD9012300E0002318461037BD4680BDA084FF1FA184FF1FA484FF1F80B582B04E
:403B400000AF0346FB80B7F90630184604F06AFB034618460837BD4680BD00BF80B483B000AF0346FB71FB79012B08D0022B0BD0002B00D00DE0094B094A1A6009E0074BC1
:403B80004FF07C521A6004E0044B4FF07E521A6000BF00BF0C37BD4680BC7047D080FF1FCDCCCC3D90B585B000AF0446084611461A462346FB800346BB800B467B80134676
:403BC0003B80B7F90620B7F904309A4201DABB88FB80B7F90620B7F900309A4201DD3B88FB803A887B88D31A9BB2FB817A88BB88D31A9BB2BB81B7F90E30002B01DC0123DD
:403C0000FB81B7F90C30002B01DC0123BB81B7F90620B7F902309A4214DBB7F90620B7F90230D31A184606F005FA0446B7F90E30184606F0FFF903461946204606F002FBB4
:403C4000034613E0B7F90620B7F90230D31A184606F0F0F90446B7F90C30184606F0EAF903461946204606F0EDFA034618461437BD4690BD90B583B000AF786039603B6851
:403C800083F000437968184606F0C6FB0346002B09D03968786806F0BFFB0346002B02D04FF000032AE04FF00001786806F0D2FB0346002B11D03968786806F005F9034652
:403CC0001C4639684FF07E5006F0FEF803461946204606F0B7FA034610E03968786806F0F5F803461C4639684FF07E5006F0ECF803461946204606F0A5FA034618460C37B6
:403D0000BD4690BD80B485B000AF78600023FB7338E0FB7B7A685B001344B3F904309AB2F97B7B6833F911309BB2D31A9BB2BB81FA7B7B6833F91220F97B7B68043133F96F
:403D400011309A420EDAFA7B7B68043233F91220FB7B79685B000B44B3F904309A4201DA012300E00023FB72B7F90C30132B01DC00230BE0FB7A002B01D1002306E0FB7B20
:403D80000133FB73FB7B012BC3D9012318461437BD4680BC704700BF90B484B000AF78601B4A1C4B14460FCB07C423800023FB7323E0FB7BFA7B520079680A44B2F9001079
:403DC000134A22F81310FB7BFA7B520079680A44B2F900100E4A5B0013440A469A80FB7BFA7B520079680A44B2F90010084A043322F81310FB7B0133FB73FB7B012BD8D936
:403E0000054B01221A7000BF1037BD4690BC7047C884FF1FB884FF1FD684FF1F80B485B000AF7860214B1B78012B39D10023FB7332E0FB7B5B007A681344B3F90020FB7B29
:403E40001B4931F913309A4209DAFB7BFA7B520079680A44B2F90010154A22F81310FB7B5B007A681344B3F90020FB7B10495B000B44B3F904309A420BDDFB7BFA7B5200BF
:403E800079680A44B2F90010094A5B0013440A469A80FB7B0133FB73FB7B012BC9D900E000BF1437BD4680BC704700BFD684FF1FC884FF1F80B483B000AF0023FB7107E040
:403EC000FB790A4A002142F82310FB790133FB71FB79012BF4D9064B00221A80054B02221A7000BF0C37BD4680BC7047E084FF1FE884FF1FD684FF1F80B485B000AF786074
:403F0000234B1B78022B3DD10023FB7311E0FB7BFA7B204951F82220F97B490078680144B1F900100A441B4941F82320FB7B0133FB73FB7B012BEAD9174B1B8801339AB218
:403F4000154B1A80144B1B881F2B1CD90023BB7311E0BA7BBB7B0F4951F82330002B00DA1F335B1118B20D49131D024621F81320BB7B0133BB73BB7B012BEAD9044B03228D
:403F80001A7000E000BF1437BD4680BC704700BFD684FF1FE084FF1FE884FF1FC884FF1F98B500AF0B48FFF7ADFE0346002B03D10948FFF7F1FE0BE0084A064B14460FCBBA
:403FC00007C42380054B01221A73054B00221A7098BD00BFC884FF1FD884FF1FB884FF1FD684FF1F90B484B000AF786039601F4B7A68144620686168A26807C3A2891A8065
:404000001B4B7A68144620686168A26807C3A2891A80174B00221A73164B7A68144620686168A26807C3A2891A80134A3B6813600023FB730BE0FB7BF97B7A68043132F941
:4040400011100E4A22F81310FB7B0133FB73FB7B012BF0D90A4B00221A700A4B00221A8000BF1037BD4690BC704700BFA884FF1FB884FF1FC884FF1FDC84FF1FD884FF1F24
:40408000D684FF1FE884FF1F80B584B000AF78600023FB730CE0FB7BFA7B520079680A44B2F90010094A22F81310FB7B0133FB73FB7B012BEFD97868FFF7B0FE7868FFF7FE
:4040C0001BFF00BF1037BD4680BD00BFD884FF1F80B582B000AF0346FB71FB79782B02D0FB79582B03D1144B00221A7020E0FB79632B02D0FB79432B19D10F4B1B78002BE5
:4041000003D10E48FFF748FE12E00B4B1B78012B02D1FFF7CFFE0BE0074B1B78022B07D0054B1B78032B03D1FFF73AFF00E000BF0837BD4680BD00BFD684FF1FD884FF1FC5
:4041400080B400AF024B1B781846BD4680BC7047D684FF1F80B400AF024B1B881846BD4680BC7047E884FF1F90B587B000AF7860304B7B613048FFF7C5FD0346002B01D030
:404180002D4B7B610023FB744CE0FB7C2B4A32F91300FA7C7B6933F91210FA7C7B69043233F91240FB7C7A695B001344B3F904302246FFF7F7FCF8602149F868FFF75AFD61
:4041C000F860204B1A68FB7C22FA03F303F00103002B03D0FB6883F00043FB601A4B1B681946F86805F07AFF0346FB604FF07E51F86806F02FF90346002B02D04FF07E53ED
:40420000FB601249F86806F007F90346002B01D00E4BFB60FA7C7B68F96843F82210FB7C0133FB74FB7C012BAFD900BF1C37BD4690BD00BFA884FF1FB884FF1FD884FF1FCE
:40424000CDCC4C3DDC84FF1FD080FF1F000080BF80B483B000AF0346FB80FB880133FB80FB88FF2B01D90023FB80FB8818460C37BD4680BC704700BF80B483B000AF7860F9
:404280007B680022A3F800217B680022A3F802217B680022A3F8042100BF0C37BD4680BC704700BF80B584B000AF78600B46FB707B68B3F800319BB21846FFF7C9FF0346E1
:4042C000FB817B68B3F802319BB2FA899A420AD17B68B3F804319BB201339AB27B68A3F8042100230CE07B68B3F800319BB219467B68FA785A547B68FA89A3F80021012304
:4043000018461037BD4680BD80B582B000AF786039607B68B3F800319AB27B68B3F802319BB29A4201D1002316E07B68B3F802319BB21A467B689B5CDAB23B681A707B684D
:40434000B3F802319BB21846FFF782FF03461A467B68A3F80221012318460837BD4680BD80B483B000AF78607B681B781A067B6801331B781B041A437B6802331B781B0280
:4043800013437A6803321278134318460C37BD4680BC704780B483B000AF78607B681B781B021AB27B6801331B781BB213431BB218460C37BD4680BC704700BF80B58AB06D
:4043C00000AF78606C4B7B627B6ADB68042B40F0CA807B6A1B89152B40F2C7807B6ADB6E3B623B6A002B00F0C280386AFFF7B8FFF8613B6A04331846FFF7B2FFB8613B6A7B
:4044000008331846FFF7ACFF78613B6A0C331846FFF7C0FF03467B823B6A0E331846FFF7B9FF03463B823B6A10331846FFF7B2FF0346FB813B6A12331846FFF7ABFF034651
:40444000BB813B6A14331846FFF7A4FF03467B817B68FA695A647B68BA691A647B687A699A647B687A8AA3F84C207B683A8AA3F84E207B68FA89A3F850207B68BA89A3F8BC
:4044800052207B687A89A3F85420F86905F0D2FD03463A49184605F0D5FE03461A467B685A62B86905F0C6FD03463449184605F0C9FE03461A467B681A62786905F0BAFDE8
:4044C00003462F49184605F0BDFE03461A467B689A62B7F91230184605F0ACFD03462949184605F0AFFE03461A467B68DA62B7F91030184605F09EFD03462349184605F00E
:40450000A1FE03461A467B681A63B7F90E30184605F090FD03461B49184605F093FE03461A467B685A63B7F90C30184605F082FD03461449184605F085FE03461A467B6865
:404540009A63B7F90A30184605F074FD03460D49184605F077FE03461A467B68DA637B6801229A7704E000BF02E000BF00E000BF2837BD4680BD00BF2885FF1F8096184BC4
:4045800000007A440000C8420000204180B586B000AF7860244B7B617B69DB68032B3AD17B691B89042B38D97B69DB6E3B613B69002B34D03B69591C07F10E03022218462D
:4045C00005F0DAFF3B69D91C07F10C030222184605F0D2FFB7F90E30184605F02BFD03461249184605F02EFE03461A467B689A65B7F90C30184605F01DFD03460C49184699
:4046000005F020FE03461A467B68DA657B68012283F8562004E000BF02E000BF00E000BF1837BD4680BD00BF2885FF1F000020410000C84280B58AB000AF7860764B7B62AA
:404640007B6ADB68162B40F0DE807B6A1B89122B40F2DB807B6ADB6E3B623B6A002B00F0D6803B6A591C07F11E030222184605F083FF3B6AD91C07F11C030222184605F0BB
:404680007BFF3B6A591D07F11A030222184605F073FF3B6AD91D07F118030222184605F06BFF3B6A03F1090107F116030222184605F062FF3B6A03F10B0107F11403022274
:4046C000184605F059FF3B6A03F10D0107F112030222184605F050FF3B6A03F10F0107F110030222184605F047FF3B6A03F1110107F10E030222184605F03EFFB7F91E30BE
:40470000184605F097FC03464449184605F09AFD03461A467B689A66B7F91C30184605F089FC03463D49184605F08CFD03461A467B68DA66B7F91A30184605F07BFC0346EF
:404740003649184605F07EFD03461A467B685A66B7F91830184605F06DFC03463049184605F070FD03461A467B681A67B7F91630184605F05FFC03462949184605F062FD4C
:4047800003461A467B685A67B7F91430184605F051FC03462249184605F054FD03461A467B689A67B7F91230184605F043FC03461B49184605F046FD03461A467B68DA679F
:4047C000B7F91030184605F035FC03461449184605F038FD03461A467B68C3F88020B7F90E30184605F026FC03460D49184605F029FD03461A467B68C3F884207B680122C4
:4048000083F8602004E000BF02E000BF00E000BF2837BD4680BD00BF2885FF1F0000C8420000204180B584B000AF7860564BFB60FB68DB68012B40F09E80FB681B89152BB3
:4048400040F29B80FB68DB6EBB60BB68002B00F09680B868FFF79EFD0346184605F0EAFB03464A49184605F0EDFC03461A467B68C3F88C20BB689A787B6883F89020BB682D
:4048800003331B78184605F0D1FB03464049184605F0D8FC03461A467B68C3F89420BB681A797B6883F89820BB6805331846FFF771FD03461A467B68A3F89A20BB680733F5
:4048C0001846FFF767FD03461A467B68A3F89C20BB6809331846FFF75DFD0346184605F0A9FB03462B49184605F0ACFC03461A467B68C3F8A020BB680B331846FFF74AFD15
:4049000003461A467B68A3F8A420BB680D331846FFF740FD03461A467B68A3F8A620BB6810331846FFF736FD03461A467B68A3F8A820BB6812331846FFF72CFD0346184643
:4049400005F078FB03461149184605F07BFC03461A467B68C3F8AC20BB6814331846FFF719FD03461A467B68A3F8B0207B68012283F8882004E000BF02E000BF00E000BF78
:404980001037BD4680BD00BF2885FF1F0000C842000040400000204180B58AB000AF7860794B7B627B6ADB680C2B40F0E5807B6A1B89122B40F2E2807B6ADB6E3B623B6AA6
:4049C000002B00F0DD803B6A591C07F11E030222184605F0D1FD3B6AD91C07F11C030222184605F0C9FD3B6A591D07F11A030222184605F0C1FD3B6AD91D07F118030222A2
:404A0000184605F0B9FD3B6A03F1090107F116030222184605F0B0FD3B6A03F10B0107F114030222184605F0A7FD3B6A03F10D0107F112030222184605F09EFD3B6A03F167
:404A40000F0107F110030222184605F095FD3B6A03F1110107F10E030222184605F08CFDB7F91E30184605F0E5FA03464749184605F0E8FB03461A467B68C3F8B420B7F954
:404A80001C30184605F0D6FA03464049184605F0D9FB03461A467B68C3F8B820B7F91A30184605F0C7FA03463849184605F0CAFB03461A467B68C3F8BC20B7F91830184606
:404AC00005F0B8FA03463249184605F0BBFB03461A467B68C3F8C020B7F91630184605F0A9FA03462A49184605F0ACFB03461A467B68C3F8C420B7F91430184605F09AFA73
:404B000003462249184605F09DFB03461A467B68C3F8C820B7F91230184605F08BFA03461A49184605F08EFB03461A467B68C3F8CC20B7F91030184605F07CFA03461349C4
:404B4000184605F07FFB03461A467B68C3F8D020B7F90E30184605F06DFA03460D49184605F070FB03461A467B68C3F8D4207B68012283F8B22004E000BF02E000BF00E07A
:404B800000BF2837BD4680BD2885FF1F00007A440000C8420000204180B483B000AF78607B68DB7B002B2ED1444B00221A75434B00221A77414B002283F824203F4B0022B8
:404BC00083F82C203D4B002283F834203B4B002283F83C20394B4FF000021A61374B4FF000029A61354B4FF000021A62334B4FF000029A62314B4FF000021A632F4B4FF00D
:404C000000029A6330E07B681A7B2C4B1A757B685A7B2A4B1A777B689A7B284B83F824207B681B68254A13617B685B68234A93617B689B68214A1362204B002283F82C2095
:404C40001E4B002283F834201C4B002283F83C201A4B4FF000029A62184B4FF000021A63164B4FF000029A637B681B7C002B01D0012200E00022114B1A73104B00225A734A
:404C80000E4B002283F840200C4B002283F841200A4B002283F84220084B002283F84320064B002283F84420044B002283F8452000BF0C37BD4680BC704700BFD480FF1FD6
:404CC00080B483B000AF7860144B9A6C7B685A60124BDA6C7B689A60104B1A6E7B68DA600E4B5A6D7B681A610C4B9A6D7B685A610A4BDA6D7B689A61084B93F850207B681F
:404D00001A77064B93F851207B685A777B6801221A7000BF0C37BD4680BC7047D480FF1F80B582B000AF786039607B68002B3FD03B68002B3CD03B685B68002B38D04FF48D
:404D400010720021786805F022FC7B683A6892E8030083E803007B6803F586731846FFF78BFA7B6800221A777B68002283F83A207B68002283F872207B68002283F87C20E2
:404D80007B68002283F8A4207B68002283F8CE207B680022A3F812227B680022C3F814227B68002283F81822034B1B68984700E000BF0837BD4680BDD480FF1F80B483B016
:404DC00000AF78600B46FB707B68002B09D07B6893F80A21FB781343DAB27B6883F80A2100E000BF0C37BD4680BC704780B582B000AF78600B46FB707B68002B0FD07B68C0
:404E000003F58673FA7811461846FFF74BFA7B68B3F810329AB27B68A3F8082100E000BF0837BD4680BD00BF80B58AB000AF78607B68002B00F0A280524BD3F880307B6274
:404E400075E07B68D3F804315A1C7B68C3F80421FB7B1946002001F00DFB03463B623B6A002B64D07B68D3F8FC305A1C7B68C3F8FC20444B1B69FB83424B9B89BB837B687C
:404E80001C331846FFF71CFF7B681C331846FFF795FA7B681C331846FFF778FB7B681C331846FFF7C7FB7B681C331846FFF7BAFC7B681C331846FFF76FFD7B68B3F81232DE
:404EC000002B34D07B68B3F81232FA8B9A422ED17B68FA8BA3F81A227B68BA8BA3F81C227B68012283F81822264B1B6FBB61BB8B1F2B02D8BB8BDBB200E02023FB75BB694B
:404F0000002B08D07B6803F21E23FA7DB969184605F032FB07E07B6803F21E23FA7D0021184605F034FB7B68FA7D83F83E227B6803F5867307F10F0211461846FFF7E4F988
:404F40000346002B7FF47DAF0E4BD3F880303B613A697B6A9A4209D97B68D3F8002139697B6ACB1A1A447B68C3F800217B68B3F810329AB27B68A3F8082100E000BF28374F
:404F8000BD4680BD2485FF1FB0B483B000AF786039607B68002B0CD03B68002B09D07B683A6803F1080415460FCD0FC42B68236000E000BF0C37BD46B0BC704780B582B08E
:404FC00000AF78607B68002B09D07B6801221A76786800F0EDF87B6800221A7600E000BF0837BD4680BD00BF80B588B002AF78600B467B807B68002B03D07B685B68002B92
:4050000001D101234EE007F10C03184601F0A2FD02233B7479886B4607F110021268104618800233120C1A70FB6800221F4801F0FBFD00237B6109E07B685B687A681268C3
:40504000F97A104698477B6901337B6107F10B031946012002F072FB0346002BECD17B687A88A3F812227B680022C3F814227B68002283F818227B68D3F8F4305A1C7B68EF
:40508000C3F8F4207B68D3F8F8207B691A447B68C3F8F8207B6893F80A31002B14BF01230023DBB218461837BD4680BD1C85FF1F80B58AB002AFF8607A601A460B467B813D
:4050C00013467B72FB68002B03D0FB685B68002B01D1012365E007F11403184601F03AFD02233B7679896B4607F118021268104618800233120C1A707B6900222B4801F09E
:4051000093FD0023FB610023FB7618E0FB685B68FA681268F97C104698477B68002B0BD0FA7E7B7A9A4207D2FB7E5A1CFA761A467B681344FA7C1A70FB690133FB6107F138
:4051400013031946012002F0F9FA0346002BDDD1BB6A002B02D0BB6AFA7E1A70FB687A89A3F81222FB680022C3F81422FB68002283F81822FB68D3F8F4305A1CFB68C3F87E
:40518000F420FB68D3F8F820FB691A44FB68C3F8F820FB6893F80A31002B14BF01230023DBB218462037BD4680BD00BF1C85FF1F80B584B000AF78607B68002B03D07B687B
:4051C0005B68002B01D1012334E07B6808331846FFF7E2FC194B5B6898470023FB6009E07B685B687A681268F97A10469847FB680133FB6007F10B031946012002F09EFA4E
:405200000346002BECD17B68D3F8F4305A1C7B68C3F8F4207B68D3F8F820FB681A447B68C3F8F8207B6893F80A31002B14BF01230023DBB218461037BD4680BDD480FF1F34
:4052400080B582B000AF786039607B68002B0BD03B68002B08D03A687B6810461C33D822194605F089F900E000BF0837BD4680BDB0B483B000AF786039607B68002B15D056
:405280003B68002B12D07B68B3F810329AB27B68A3F808213A687B68154603F1F4040FCC0FC594E8030085E8030000E000BF0C37BD46B0BC704700BF80B483B000AF78605C
:4052C000034A7B68136000BF0C37BD4680BC70471885FF1F80B400AF044B1B680133034A136000BFBD4680BC704700BF1885FF1F80B400AF024B1B681846BD4680BC704779
:405300001885FF1F80B400AF034B00221A7000BFBD4680BC704700BF1085FF1F80B400AF034B02221A7000BFBD4680BC704700BF1085FF1FF0B587B000AFF860B9607A60D2
:4053400051E0FB681B687968184604F0C7FE03461E46FB681B68012214464FF00001184605F078F80346002B01D100231C46E3B21C46FB681B68012215464FF00001184647
:4053800005F04AF80346002B01D100231D46EBB2E31A184604F04EFE03464FF07C51184604F09CFE03461946304604F08FFD0346184605F06FF80346FB820F4B1B685A1CB7
:4053C0000D490A60B7F91620121212B2D2B21A70094B1B685A1C08490A60FA8AD2B21A70FB680433FB60BB685A1EBA60002BA8D100BF1C37BD46F0BD1885FF1F80B586B041
:4054000000AFF860B9607A603B60564B1B78012B40F09E804EE0544B1B681B78DBB21B021BB21A46504B1B6801331B78DBB21343184604F0FFFD03467B614B4B1B680233E6
:40544000494A1360396A786904F048FE03467B61FB681B687969184604F038FD03461A46FB681A60FB681B687968184604F0F2FF0346002B02D0FB687A681A60FB681B6879
:405480003968184604F0C8FF0346002B02D0FB683A681A60FB681B681946184604F0E4FF0346002B03D0FB684FF000021A60FB680433FB60BB685A1EBA60002BABD14CE011
:4054C000294B1B681B78DBB21B021BB21A46264B1B6801331B78DBB21343184604F0AAFD03463B61204B1B6802331F4A1360396A386904F0F3FD03463B61FB683A691A6043
:40550000FB681B687968184604F0A4FF0346002B02D0FB687A681A60FB681B683968184604F07AFF0346002B02D0FB683A681A60FB681B681946184604F096FF0346002BF3
:4055400003D0FB684FF000021A60FB680433FB60BB685A1EBA60002BB2D100BF1837BD4680BD00BF1085FF1F1885FF1F80B485B000AF7860396018E07B681B88FB81104B89
:405580001B685A1C0E490A60B7F90E20121212B2D2B21A700A4B1B685A1C09490A60FA89D2B21A707B6802337B603B685A1E3A60002BE1D100BF1437BD4680BC704700BF7E
:4055C0001885FF1F80B586B000AFF860B9607A603B60514B1B78012B40F0948049E04F4B1B681B78DBB21B021AB24C4B1B6801331B78DBB21BB21343FB82484B1B680233A9
:40560000464A1360FB68B3F900309AB2FB8A13449BB21AB2FB681A80FB68B3F90030184604F008FD03467968184604F013FF0346002B06D0786804F02DFF03461AB2FB6804
:405640001A80FB68B3F90030184604F0F3FC03463968184604F0E0FE0346002B06D0386804F018FF03461AB2FB681A80FB680233FB60BB685A1EBA60002BB0D147E0274B02
:405680001B681B78DBB21B021AB2244B1B6801331B78DBB21BB21343BB82204B1B6802331E4A1360FB68BA8A1A80FB68B3F90030184604F0BFFC03467968184604F0CAFEE9
:4056C0000346002B06D0786804F0E4FE03461AB2FB681A80FB68B3F90030184604F0AAFC03463968184604F097FE0346002B06D0386804F0CFFE03461AB2FB681A80FB6870
:405700000233FB60BB685A1EBA60002BB7D100BF1837BD4680BD00BF1085FF1F1885FF1F80B483B000AF786039600AE00A4B1B685A1C09490A607A6812781A707B6801336E
:405740007B603B685A1E3A60002BEFD100BF0C37BD4680BC704700BF1885FF1F80B487B000AFF860B96011461A460B46FB711346BB712A4B1B78012B46D122E0284B1B6875
:405780005A1C27490A601B78DBB2FB74FB681B787B6197F913307A6913447B61FA797B699A4201DAFB797B61BA797B699A4201DDBB797B617B69DAB2FB681A70FB6801331C
:4057C000FB60BB685A1EBA60002BD7D121E0144B1B685A1C12490A601B78BB74FB68BA7C1A70FB681B78FA799A4202D2FB68FA791A70FB681B78BA799A4202D9FB68BA79D4
:405800001A70FB680133FB60BB685A1EBA60002BDDD100BF1C37BD4680BC70471085FF1F1885FF1F80B483B000AF7860396016E0104B1B685A1C0F490A607A681288120ABD
:4058400092B2D2B21A700B4B1B685A1C09490A607A681288D2B21A707B6802337B603B685A1E3A60002BE3D100BF0C37BD4680BC704700BF1885FF1F80B487B000AFF860D6
:40588000B96011461A460B46FB801346BB80364B1B78012B5ED12DE0344B1B681B78DBB29BB21B029AB2314B1B6801331B78DBB29BB21343FB822D4B1B6802332B4A1360D9
:4058C000FB681A88FB8A13449AB2FB681A80FB681B88FA889A4202D2FB68FA881A80FB681B88BA889A4202D9FB68BA881A80FB680233FB60BB685A1EBA60002BCCD12EE00B
:405900001A4B1B681B78DBB29BB21B029AB2174B1B6801331B78DBB29BB21343BB82134B1B680233114A1360FB68BA8A1A80FB681B88FA889A4202D2FB68FA881A80FB6851
:405940001B88BA889A4202D9FB68BA881A80FB680233FB60BB685A1EBA60002BD0D100BF1C37BD4680BC70471085FF1F1885FF1F80B485B000AF78600B46FB701346BB7032
:405980002C4B1B681B78BB73BB78013B072B2BD801A252F823F000BFB9590000BF590000C5590000CB590000D1590000D7590000DD590000E35900000123FB7315E00323E4
:4059C000FB7312E00723FB730FE00F23FB730CE01F23FB7309E03F23FB7306E07F23FB7303E0FF23FB7300E000BFFA7BFB7802FA03F35BB2DB435AB297F90E3013405BB284
:405A0000BB737B681A78FB7B1340DBB21A46FB7802FA03F35AB297F90E3013435BB2BB73044B1B68BA7B1A7000BF1437BD4680BC704700BF1885FF1F80B485B000AF786042
:405A40000B46FB701346BB70BB78013B072B2BD801A252F823F000BF795A00007F5A0000855A00008B5A0000915A0000975A00009D5A0000A35A00000123FB7315E0032396
:405A8000FB7312E00723FB730FE00F23FB730CE01F23FB7309E03F23FB7306E07F23FB7303E0FF23FB7300E000BF174B1B78012B15D1164B1B681B78DBB21A46FB7842FAE8
:405AC00003F35AB297F90F3013405BB2BB737B681A78BB7B5340DAB27B681A700FE00B4B1B681B78DBB21A46FB7842FA03F35AB297F90F3013405BB2DAB27B681A7000BF30
:405B00001437BD4680BC70471085FF1F1885FF1F80B582B000AF786074220021786804F036FD7B680022DA667B6800229A667B6800221A67002318460837BD4680BD00BF7B
:405B400080B584B000AF78607B6803F11C027B681A677B6803F11C027B685A667B6800221A717B685B79002B0AD02F4B1B68002B04D02D4B1B687868984704E001234EE00C
:405B8000786800F0F3FA7B681A6F7B68DA667B689B7C002B22D07B6803F11C017B68B3F86230053B1A464FF0FF3000F027FCF8600023BB607B68B3F86230053B18337A682A
:405BC0001344191D07F108030422184604F0D4FCBB68FA689A4201D0072320E0786801F045FD7B681B7C032B16D801A252F823F0115C0000015C0000095C0000095C000034
:405C0000786800F013F809E0786800F057F805E0786800F0B5F801E0022300E0002318461037BD4680BD00BFF084FF1FB0B588B002AF786000237B6136E07B685A7E1E4983
:405C40007B6911F833309A4203D07B685B7E002B27D107F10C03184600F07CFF7B689B7C7B737B68DB7C3B737B689B7DBB730123FB737B681B7E3B747B69DB000E4A9818F9
:405C80007B68D9687B689C796B4607F11002126815461D800233120C1A70FB68224600F077FF7B6901337B617B69002BC5DD00BF1837BD46B0BD00BFB085FF1FB0B588B0BB
:405CC00002AF78607B681B7C032B03D17B6805221A7006E07B681B7C022B02D17B6803221A7000237B6141E07B685A7E23497B6911F833309A4203D07B685B7E002B32D1E9
:405D00001E4A7B69DB0013445B68786898477B685B78002B27D107F10C03184600F01AFF7B689B7C7B737B68DB7C3B737B689B7DBB730123FB737B681B7E3B747B69DB00A7
:405D40000E4A98187B68D9687B689C796B4607F11002126815461D800233120C1A70FB68224600F015FF7B6901337B617B69002BBADD00BF1837BD46B0BD00BFB085FF1FFC
:405D800080B584B000AF78607B6801221A700023FB6009E0084AFB68DB0013445B6878689847FB680133FB60FB68002BF2DD00BF1037BD4680BD00BF1C85FF1F80B582B019
:405DC00000AF78607B6803F120027B689A667B689A6E7B681A677B685B79002B0AD0094B1B68002B04D0074B1B687868984704E0012303E0786800F0F5F800231846083763
:405E0000BD4680BDEC84FF1F80B586B000AF78600023FB757B681B79012B01D10823DDE07B681B6F1A467B689B6ED31A9AB27B681A817B685B79002B03D17B681B89642B76
:405E400007D97B6803F11C027B685A660123FB7504E07B6803F11D027B685A667B681B6F1A467B685B6ED31A9AB27B68A3F862207B689B7C002B29D07B68B3F8623003F0B6
:405E80000303C3F104033B617B681B6F3A690021184604F07CFB7B681A6F3B691A447B681A677B68B3F862203B699BB213449AB27B68A3F862207B681B6F1A467B689B6E5C
:405EC000D31A9BB204339AB27B681A817B685B79002B12D07B6851221A777B6842225A777B681B891B0A9BB2DAB27B689A777B681B89DAB27B68DA772AE0FB7D002B19D04E
:405F00007B6851221A777B6858225A777B681B895BB263F07F035BB2DAB27B689A777B681B89DB099BB2DBB203F07F03DAB27B68DA770DE07B6851225A777B6858229A775A
:405F40007B681B89DBB203F07F03DAB27B68DA777B689B7C002B22D07B68596E7B68B3F862301A464FF0FF3000F048FA0346BB607B681B6F07F108010422184604F0FCFAB7
:405F80007B681B6F1A1D7B681A677B681B6F1A467B685B6ED31A9AB27B68A3F862207B689A6E7B681B891946104600F069F90346FB737B681B6F591C7A681167FA7BD24331
:405FC000D2B21A707B68B3F8623001339AB27B68A3F86220786801F01FFB002318461837BD4680BD80B584B000AF78607B689A6E7B681A677B6803F170027B68DB681946EB
:40600000104600F05BF97B6800225A747B689B7C002B02D07B6801225A740023FB737B681B7C5BB203F00F035AB2FB7BDBB25BB213435BB2DBB2FB737B68DB7C1B015BB22E
:4060400003F010035AB2FB7BDBB25BB213435BB2DBB2FB737B68DB7D5B015BB203F020035AB2FB7BDBB25BB213435BB2DBB2FB737B689B7D9B015BB203F040035AB2FB7B10
:40608000DBB25BB213435BB2DBB2FB737B685B7CDB015AB2FB7BDBB25BB213435BB2DBB2FB737B681B6F591C7A681167FA7BD2B21A707B685B7C002B16D00023FB737B68DA
:4060C0009B7C5BB203F001035AB2FB7BDBB25BB213435BB2DBB2FB737B681B6F591C7A681167FA7BD2B21A707B689B7D002B12D17B6803F170027B681B7E1946104600F0D9
:40610000DDF87B6803F170027B685B7E1946104600F0D4F805E07B6800221A767B6800225A767B68DB7D002B12D17B6803F170027B689B7E1946104600F0C0F87B6803F103
:4061400070027B68DB7E1946104600F0B7F805E07B6800229A767B680022DA767B681A6F7B68DA6600BF1037BD4680BD80B584B000AF78607B689A6E7B681A677B68703334
:40618000184600F0DFF802467B68DA607B681B6F591C7A6811671B78FB73FB7BDBB203F00F03DAB27B681A74FB7BDBB21B09DBB203F00103DAB27B68DA74FB7BDBB25B0944
:4061C000DBB203F00103DAB27B68DA75FB7BDBB29B09DBB203F00103DAB27B689A75FB7BDBB2DB09DAB27B685A747B685B7C002B0DD07B681B6F591C7A6811671B78FB7391
:40620000FB7BDBB203F00103DAB27B689A747B689B7D002B11D17B687033184600F092F80346DAB27B681A767B687033184600F089F80346DAB27B685A767B68DB7D002BF6
:4062400011D17B687033184600F07CF80346DAB27B689A767B687033184600F073F80346DAB27B68DA767B68DB7C002B04D07B681B6F9A1C7B681A6700BF1037BD4680BDDF
:4062800080B485B000AF786039600023FB720023FB6009E07B685A1C7A601A78FB7A1344FB72FB680133FB60FA683B689A42F1D3FB7A18461437BD4680BC704780B485B04C
:4062C00000AF786039600023FB6033E0FA681346DB009B1A3A6822FA03F3DBB203F07F03FB72FB685A1C1346DB009B1A3A6822FA03F3DBB203F07F03BB72BB7A002B0CD09E
:406300007B681B68FA7A62F07F02D2B21A707B681B685A1C7B681A6009E07B681B68FA7A1A707B681B685A1C7B681A6005E0FB680133FB60FB68032BC8DD00BF1437BD46C9
:4063400080BC704780B485B000AF78600023FB600023BB6022E07B681B681B7803F07F01BA681346DB009B1A01FA03F3FA681343FB607B681B681B785BB2002B05DA7B680E
:406380001B685A1C7B681A6005E07B681B685A1C7B681A6005E0BB680133BB60BB68032BD9DDFB6818461437BD4680BC704700BF80B485B000AF0346FB71FB791B06BB60CD
:4063C0000023FB730EE0BB68002B05DABB685A00094B5340BB6002E0BB685B00BB60FB7B0133FB73FB7B072BEDD9BB6818461437BD4680BC704700BFB71DC10480B586B0EC
:4064000000AFF860B9607A60FB683B6100237B6115E03B691B0E5AB2B9687B690B441B785BB253405BB2DBB21846FFF7C1FF02463B691B0253403B617B6901337B617A6952
:406440007B689A42E5D33B6918461837BD4680BD80B485B000AFF8600B467A60FB72FB687A685A60FB68FA7A1A7000BF1437BD4680BC704790B585B000AF03460A46FB717E
:406480001346BB71FB79B94A8C2101FB03F313441B78072B00F2578301A252F823F000BFC16400003F650000ED650000EB660000F567000069680000456900001D6A0000CC
:4064C000BB79512B2AD1FB79A84A8C2101FB03F31344023301221A80FB79A44A8C2101FB03F313442033BA791A70FB79FA798C2101FB02F219329D490A4408329B498C206E
:4065000000FB03F30B4474331A60FB79974A8C2101FB03F3134401221A7014E3FB7993498C2202FB03F20A448432126801328F498C2000FB03F30B4484331A6003E3FA791C
:406540008A498C2303FB02F30B4474331B68591C86488C2404FB02F2024474321160BA791A70FB7981498C2202FB03F20A4402321288013290B27D4A8C2101FB03F3134401
:40658000023302461A80BB79582B11D1FB79774A8C2101FB03F31344093300221A70FB79724A8C2101FB03F3134402221A70CAE2BB79422B11D1FB796C4A8C2101FB03F34C
:4065C0001344093301221A70FB79684A8C2101FB03F3134404221A70B5E2FB79634A8C2101FB03F3134400221A70ACE2FA795F498C2303FB02F30B4474331B68591C5B4859
:406600008C2404FB02F2024474321160BA791A70FB7956498C2202FB03F20A4402321288013290B2514A8C2101FB03F31344023302461A8097F90630002B16DAFB79BA7929
:4066400092B222F0800290B2484A8C2101FB03F313440C3302461A80FB79444A8C2101FB03F3134403221A7066E2FB79BA7990B23E4A8C2101FB03F313440C3302461A80E0
:40668000FB79FA7939498C2000FB02F20A447432126836498C2000FB03F30B446C331A60FB79324A8C2101FB03F31344063300221A70FB792D4A8C2101FB03F31344062210
:4066C0001A70FB79294A8C2101FB03F313440C331B88402B40F23082FB79244A8C2101FB03F3134400221A7026E2FA791F498C2303FB02F30B4474331B68591C1B488C24F8
:4067000004FB02F2024474321160BA791A70FB7916498C2202FB03F20A4402321288013290B2124A8C2101FB03F31344023302461A80FB79FA790D498C2000FB02F20A44B9
:406740007432126809498C2000FB03F30B446C331A6097F90630002B0ADAFB79034A8C2101FB03F3134400221A702FE02485FF1FFA79FB79A8498C2000FB03F30B440C3391
:406780001B8819B2BB79DB011BB223F4804323F07F031BB20B431BB298B29F498C2303FB02F30B440C3302461A80FB799A4A8C2101FB03F31344063300221A70FB79964A6C
:4067C0008C2101FB03F3134406221A70FB79924A8C2101FB03F313440C331B88402B40F2AD81FB798C4A8C2101FB03F3134400221A70A3E1FA7988498C2303FB02F30B4459
:4068000074331B68591C84488C2404FB02F2024474321160BA791A70FB797F498C2202FB03F20A4402321288013290B27A4A8C2101FB03F31344023302461A80FB79BA794B
:4068400092B2120290B2744A8C2101FB03F313440C3302461A80FB796F4A8C2101FB03F3134405221A706EE1FA796B498C2303FB02F30B4474331B68591C67488C2404FB71
:4068800002F2024474321160BA791A70FB7962498C2202FB03F20A4402321288013290B25D4A8C2101FB03F31344023302461A80FB79FA7958498C2000FB02F20A447432AF
:4068C000126855498C2000FB03F30B446C331A60FB79FA7950498C2000FB02F20A440C321188BA7992B20A4390B24B4A8C2101FB03F313440C3302461A80FB79464A8C21D8
:4069000001FB03F31344063300221A70FB79424A8C2101FB03F3134406221A70FB793E4A8C2101FB03F313440C331B88402B40F20781FB79384A8C2101FB03F3134400227A
:406940001A70FDE0FA7934498C2303FB02F30B4474331B68591C30488C2404FB02F2024474321160BA791A70FB792B498C2202FB03F20A4402321288013290B2264A8C21C5
:4069800001FB03F31344023302461A80FB79FA7921498C2000FB02F20A4406321178BA790A44D0B21C4A8C2101FB03F31344063302461A70FB79184A8C2101FB03F3134446
:4069C0000C331B881846FB79134A8C2101FB03F3134402331B881C46FB790F4A8C2101FB03F313446C331B681946FB798C2202FB03F31833084A13440833CB1AE31A984212
:406A000000F3A080FB79044A8C2101FB03F3134407221A7096E000BF2485FF1FFA794C498C2303FB02F30B4474331B68591C48488C2404FB02F2024474321160BA791A70F7
:406A4000FB7943498C2202FB03F20A4402321288013290B23E4A8C2101FB03F31344023302461A80BB79FB73FB79394A8C2101FB03F3134400221A70FB79354A8C2101FB79
:406A800003F313440A33FA791A70FB7BFA7930498C2000FB02F20A44063212781344FF2B39D1FB792A4A8C2101FB03F31344783300221A60FC7900F0E3FD0146244A8C23E9
:406AC00003FB04F3134488331960FB79204A8C2101FB03F313447C3301221A70FB79FA791B498C2000FB02F20A4402321088184A8C2101FB03F31344663302461A80FB799F
:406B00008C2202FB03F3124A134404331846FFF717F8012318E0FB790D498C2202FB03F20A4480321268013209498C2000FB03F30B4480331A6006E000BF04E000BF02E09F
:406B400000BF00E000BF002318461437BD4690BD2485FF1F80B483B000AF78607B6800229A707B680022DA707B6800229A717B6800221A717B6800225A717B6800221A7089
:406B80007B6800225A7000BF0C37BD4680BC704782B080B5A2B000AFF860B960C7F894301346FB7107F114031846FEF7B1FFFB79BB76BB683B62002387F8243097F8983029
:406BC00087F82D3097F8993087F82E3097F89A3087F82F30FB681B7887F82C3097F8943087F8273097F8953087F8263007F114031846FFF7E3F800233B75FB685B6807F1FB
:406C00001402104698470346C7F8843007F114031846FFF7F9F8034618468837BD46BDE8804002B0704700BF82B080B5A2B000AFF860B960C7F894301346FB7107F11403D3
:406C40001846FEF765FFFB79BB76BB683B62012387F8243097F8983087F82D30002387F82E3097F89A3087F82F30FB681B7887F82C3097F8943087F8273097F8953087F8CA
:406C8000263007F114031846FFF798F807F114031846FFF7B9F8034618468837BD46BDE8804002B0704700BF82B080B5A2B000AFF860B960C7F894301346FB7107F1140351
:406CC0001846FEF725FFFB79BB76BB683B62022387F8243097F8983087F82D3097F8993087F82E3097F89A3087F82F30FB681B7887F82C3097F8943087F8273097F89530D3
:406D000087F8263007F114031846FFF757F802233B75FB685B6807F11402104698470346C7F8843007F114031846FFF76DF8034618468837BD46BDE8804002B0704700BF14
:406D400080B500AF1A4A0A211A48FFF781FB1A4B00221A75184B00221A77174B002283F82420154B002283F82C20134B002283F83420114B002283F83C200F4B002283F879
:406D800041200D4B002283F840200B4B002283F84220094B002283F84320074B002283F84420054B002283F8452000BF80BD00BF016E00001C85FF1FD480FF1F80B584B00B
:406DC00002AF3B461846FFF7C5FE02233B7100237B710023BB716B463A1D1268114619800233120C1A703B68002240F215110348FFF75AFF00BF0837BD4680BD1C85FF1F18
:406E000080B592B002AF78607B681B78022B07D0042B02D0012B06D008E0FEF773FA05E0FEF770FA02E0FEF779FA00BF7B68DB6E1846FEF741FA7B68DB6840F21512934230
:406E400005D040F21F12934200F01482B4E37B681B78022B40F0B4839C4B1B78002B06D107F1300303211846FEF75AFC06E007F130000023FF220321FEF770FC944B1B7D1C
:406E8000012B08D0022B0AD0002B00D00BE0002387F83F3007E0012387F83F3003E0022387F83F3000BF8A4B1B7F012B08D0022B0AD0002B00D00BE0002387F83E3007E0CB
:406EC000042387F83E3003E0082387F83E3000BF7F4B93F82430012B08D0022B0AD0002B00D00BE0002387F83D3007E0102387F83D3003E0202387F83D3000BF97F83F2056
:406F000097F83E301343DAB297F83D301343DBB287F830306E4B5B7B002B07D097F8303063F07F03DBB287F8303006E097F8303003F07F03DBB287F83030654B1B7B002BCC
:406F400007D097F8303043F04003DBB287F8303006E097F8303023F04003DBB287F830305A4B1B78002B06D107F1300301211846FEF7D6FB06E007F130000023FF220121B3
:406F8000FEF7ECFB514B1B78002B05D1514A01215148FEF7CFF907E0504B0093504B4D4A01214D48FEF72AFA484B1B78002B05D1484A01214B48FEF7BDF907E0474B009376
:406FC000474B444A01214748FEF718FA3F4B1B78002B05D13F4A01214348FEF7ABF907E03E4B00933E4B3B4A01213F48FEF706FA0023BB83354B1B78002B06D107F11C0390
:4070000001211846FEF7B2FA07E007F11C004FF00003364A0121FEF7D5FA2D4B93F82C30012B08D0022B0AD0002B00D00BE0002387F83C3007E0102387F83C3003E0202303
:4070400087F83C3000BF224B93F83430012B08D0022B0AD0002B00D00BE0002387F83B3007E0042387F83B3003E0082387F83B3000BF174B93F83C30012B08D0022B0AD0F9
:40708000002B00D00BE0002387F83A3007E0012387F83A3003E0022387F83A3000BF97F83C2097F83B301343DAB297F83A301343DBB287F83030054B1B78002B18D107F1C9
:4070C000300301211846FEF72BFB18E01085FF1FD480FF1F00FEFF46F480FF1F0001003800FEFFC6EC80FF1FE480FF1F00FF7F4707F130000023FF220121FEF72FFBAF4B5C
:407100009B6AAF49184602F0E9FF0346AC49184602F0DCFE0346184603F0E2F903469BB23B81A64B1B6BA649184602F0D7FF0346A349184602F0CAFE0346184603F0D0F9AF
:4071400003469BB27B819D4B9B6B9D49184602F0C5FF03469A49184602F0B8FE0346184603F0BEF903469BB2BB81964B1B78002B06D107F1080303211846FEF753FB07E01B
:4071800007F1080000234FF6FF720321FEF774FB8C4B1B78002B05D1012200218A48FEF7E7FB04E0012200218748FEF745FC854B1B78002B05D1012201218448FEF7D8FBAC
:4071C00004E0012201218148FEF736FC7D4B1B78002B05D1012204217D48FEF7C9FB04E0012204217A48FEF727FC764B1B78002B05D1012205217748FEF7BAFB04E0012240
:4072000005217448FEF718FC6E4B1B78002B05D1012206217048FEF7ABFB04E0012206216D48FEF709FC674B1B78002B05D1012207216A48FEF79CFB04E0012207216748EF
