:400000000080002011000000CD6E0000CD6E000080B500AF024A034B1B68136006F088FFBC760040FA46004010B5054C237833B9044B13B10448AFF300800123237010BD14
:40004000C881FF1F00000000689E0000084B10B51BB108490848AFF300800848036803B910BD074B002BFBD0BDE81040184700BF00000000CC81FF1F689E0000C880FF1FF6
:400080000000000080B582B000AF78600B46FB70FB78184607F02EFD00BF0837BD4680BD80B582B000AF134B1B78FB71FB7903F01E03002B07D0FB7903F01E03DBB21946F4
:4000C0000D4803F0C5FFFB7903F02003002B07D00A4B1B78BB71BB791946074803F0D0FFFB7903F02003002BDDD100BF0837BD4680BD00BF69640040E481FF1F49640040D3
:4001000080B500AF044B1B680133034A136007F011FE00BF80BD00BF2484FF1F80B584B000AFF860B9607A603B604FF00001F86809F0B2F90346002B01D02D2200E0202296
:400140003B681A704FF00001F86809F0A5F90346002B03D0FB6883F00043FB60F86809F0D9F903461AB2BB681A80BB68B3F90030184608F09FFF03461946F86808F0E4FE8E
:4001800003460F49184608F0E9FF0346184609F0C1F903461AB27B681A807B68B3F90030002B08DA7B68B3F900309BB25B429BB21AB27B681A8000BF1037BD4680BD00BF64
:4001C0000000C84290B591B000AFF860B9607A603B60FB68DB68FB63FB681B69BB63FB685B697B63FB689B693B63B96BF86B08F0B5FF03461C46396B786B08F0AFFF034673
:400200001946204608F0A2FE03461946184608F09DFE0346FB62B96BB86B08F09FFF03461C46796B786B08F099FF03461946204608F08CFE03461946184608F087FE0346E7
:4002400019464FF07E5008F07FFE0346BB62B96AF86A08F019F903464549184608F07EFF03467B62796BF86B08F078FF03461C46B96B386B08F072FF03461946204608F041
:4002800063FE03461946184608F060FE03463B624FF07E51386A09F013F90346002B01D0344B11E03449386A09F000F90346002B01D0324B08E0386A08F094F803462C4992
:4002C000184608F04BFF0346FB61396BF86B08F045FF03461C46796BB86B08F03FFF03461946204608F032FE03461946184608F02DFE0346BB61796B786B08F02FFF034694
:400300001C46396B386B08F029FF03461946204608F01CFE03461946184608F017FE034619464FF07E5008F00FFE03467B617969B86908F0A9F803460D49184608F00EFF44
:4003400003463B61BB683A6879683869FFF7E6FE3B6DBA6D796DF869FFF7E0FEFB6D7A6E396E786AFFF7DAFE00BF4437BD4690BDE62E65420000B442000080BF0000B4C2F6
:4003800080B483B000AF0346FB71FB79012B02D0022B02D003E0054B02E0054B00E0054B18460C37BD4680BC704700BF749E00007C9E0000849E000080B582B000AF034669
:4003C0000A46FB711346BB71FA79BB799A4221D0BB79012B06D1114807F058FA104807F055FA18E0BB79022B03D10E4807F04EFA11E0BB79032B03D10B4807F047FA0AE073
:40040000BB79002B07D1FB79002B04D0074807F03DFA00E000BF0837BD4680BD8C9E0000D89E0000189F0000489F0000909F000080B584B000AFF860B9607A603B60BB68E9
:400440001B78012B05D1F86803F002FF0C4807F01DFA7B6800221A70BB6800221A703B6800221A70BB6900221A70782002F07AFF044807F00BFA00BF1037BD4680BD00BF64
:40048000A09F0000BC9F000080B487B000AFF860B9607A603B60FB68002B01DA2D2300E02B23FB75FB68002BB8BF5B423B613A69BB6892FBF3F27B681A603B69BA6893FB24
:4004C000F2F2B96801FB02F29A1A3B681A60FB7D18461C37BD4680BC704700BF90B5BDB002AFF860B9603B601346FB80FA8897F8F83007F12C0000931346BA68D84909F090
:400500008FF807F12C03184607F0C0F9002387F8E73056E007F12C03C7F8E03097F8E7301A46D049D7F8E00009F07AF803461A46D7F8E0301344C7F8E030002387F8E6307B
:400540001AE097F8E72097F8E63013441A463B6813441B781A46C449D7F8E00009F060F803461A46D7F8E0301344C7F8E03097F8E630013387F8E63097F8E630072B08D8C2
:4005800097F8E72097F8E6301A4497F8F8309A42D7DBD7F8E030B54A1188927819809A7002231A46D7F8E0301344C7F8E03007F12C03184607F06AF997F8E730083387F870
:4005C000E73097F8E72097F8F8309A42A2D397F8F830052B0DD897F8F82007F12C03A449184609F01DF807F12C03184607F04EF94BE297F8F830022B0AD93B68591C07F18C
:4006000024030222184608F0F7FFB7F9243000E00023A7F8DE3097F8F830042B0AD93B68D91C07F122030222184608F0E5FFB7F9223000E00023A7F8DC3097F8F830062BFB
:400640000AD93B68591D07F120030222184608F0D3FFB7F9203000E00023A7F8DA30B7F9DE30184608F026FD03468249184608F029FE0346184607F12B0307F1260207F1BE
:400680002801FFF74BFDB7F9DE2097F82B301C46B7F92830B7F9261007F12C00019100932346754908F0BCFF07F12C03184607F0EDF8B7F9DC30184608F0FCFC03466D495E
:4006C000184608F0FFFD0346184607F12B0307F1260207F12801FFF721FDB7F9DC2097F82B301C46B7F92830B7F9261007F12C00019100932346614908F092FF07F12C0394
:40070000184607F0C3F8B7F9DA30184608F0D2FC03465849184608F0D5FD0346184607F12B0307F1260207F12801FFF7F7FCB7F9DA2097F82B301C46B7F92830B7F92610DE
:4007400007F12C000191009323464D4908F068FF07F12C03184607F099F897F8F830122B0DD897F8F82007F12C034649184608F057FF07F12C03184607F088F885E14248F7
:4007800007F084F897F8F830082B0AD93B68D91D07F11E030222184608F02EFFB7F91E3000E00023A7F8D83097F8F8300A2B0BD93B6803F1090107F11C030222184608F0F6
:4007C0001BFFB7F91C3000E00023A7F8D63097F8F8300C2B0BD93B6803F10B0107F11A030222184608F008FFB7F91A3000E00023A7F8D43097F8F8300E2B0BD93B6803F125
:400800000D0107F118030222184608F0F5FEB7F9183000E00023A7F8D23097F8F830102B0BD93B6803F10F0107F116030222184608F0E2FEB7F9163000E00023A7F8D0300E
:4008400097F8F830122B21D93B6803F1110107F114030222184608F0CFFEB7F9143016E0E89F000020A000002CA0000034A0000038A000000000C84274A00000B4A0000070
:40088000F0A0000030A1000074A100000023A7F8CE30B7F9D830184608F00CFC03467C49184608F00FFD0346184607F12B0307F1260207F12801FFF731FCB7F9D82097F814
:4008C0002B301C46B7F92830B7F9261007F12C000191009323466F4908F0A2FE07F12C03184606F0D3FFB7F9D630184608F0E2FB03466749184608F0E5FC0346184607F146
:400900002B0307F1260207F12801FFF707FCB7F9D62097F82B301C46B7F92830B7F9261007F12C000191009323465B4908F078FE07F12C03184606F0A9FFB7F9D430184676
:4009400008F0B8FB03465249184608F0BBFC0346184607F12B0307F1260207F12801FFF7DDFBB7F9D42097F82B301C46B7F92830B7F9261007F12C000191009323464749DF
:4009800008F04EFE07F12C03184606F07FFFB7F9D230184608F08EFB03463D49184608F091FC0346184607F12B0307F1260207F12801FFF7B3FBB7F9D22097F82B301C4617
:4009C000B7F92830B7F9261007F12C00019100932346334908F024FE07F12C03184606F055FFB7F9D030184608F064FB03462849184608F067FC0346184607F12B0307F155
:400A0000260207F12801FFF789FBB7F9D02097F82B301C46B7F92830B7F9261007F12C000191009323461F4908F0FAFD07F12C03184606F02BFFB7F9CE30184608F03AFB32
:400A400003461349184608F03DFC0346184607F12B0307F1260207F12801FFF75FFBB7F9CE2097F82B301C46B7F92830B7F9261007F12C000191009323460B4908F0D0FD41
:400A800007F12C03184606F001FFEC37BD4690BD00002041A0A10000E4A1000028A2000068A20000B0A20000FCA2000090B5BBB002AFF860B9603B601346FB80FA8897F80B
:400AC000F03007F1200000931346BA68C04908F0A7FD07F12003184606F0D8FE002387F8DF3056E007F12003C7F8D83097F8DF301A46B849D7F8D80008F092FD03461A4627
:400B0000D7F8D8301344C7F8D830002387F8DE301AE097F8DF2097F8DE3013441A463B6813441B781A46AC49D7F8D80008F078FD03461A46D7F8D8301344C7F8D83097F811
:400B4000DE30013387F8DE3097F8DE30072B08D897F8DF2097F8DE301A4497F8F0309A42D7DBD7F8D8309D4A1188927819809A7002231A46D7F8D8301344C7F8D83007F1BB
:400B80002003184606F082FE97F8DF30083387F8DF3097F8DF2097F8F0309A42A2D397F8F0300B2B0DD897F8F02007F120038C49184608F035FD07F12003184606F066FE95
:400BC000FDE197F8F030032B11D93B681B781A063B6801331B781B041A433B6802331B781B0213433A6803321278134300E00023C7F8D43097F8F030072B12D93B68043313
:400C00001B781A063B6805331B781B041A433B6806331B781B0213433A6807321278134300E00023C7F8D03097F8F0300B2B12D93B6808331B781A063B6809331B781B04C6
:400C40001A433B680A331B781B0213433A680B321278134300E00023C7F8CC3007F1180307F11C025F49D7F8D400FFF70DFC034687F8CB3097F8CB10FB69BA6907F1200075
:400C8000019200930B46D7F8D420574908F0C8FC07F12003184606F0F9FD07F1180307F11C025049D7F8D000FFF7EEFB034687F8CB3097F8CB10FB69BA6907F1200001929A
:400CC00000930B46D7F8D020484908F0A9FC07F12003184606F0DAFD07F1180307F11C024FF47A71D7F8CC00FFF7CEFB034687F8CB3097F8CB10FB69BA6907F120000192CD
:400D000000930B46D7F8CC20394908F089FC07F12003184606F0BAFD97F8F030152B0DD897F8F02007F120033249184608F078FC07F12003184606F0A9FD40E197F8F03037
:400D40000D2B0BD93B680C331B781B021AB23B680D331B781BB213431BB200E00023A7F8C83097F8F0300F2B0BD93B680E331B781B021AB23B680F331B781BB213431BB264
:400D800000E00023A7F8C63097F8F030112B0BD93B6810331B781B021AB23B6811331B781BB213431BB200E00023A7F8C43097F8F030132B20D93B6812331B781B021AB220
:400DC0003B6813331B781BB213431BB215E000BF44A3000020A000002CA0000034A000007CA3000080969800B4A30000F4A3000034A4000078A400000023A7F8C23097F89A
:400E0000F030152B0BD93B6814331B781B021AB23B6815331B781BB213431BB200E00023A7F8C030B7F9C830184608F043F903466449184608F046FA0346184607F1170389
:400E400007F1120207F11401FFF768F9B7F9C820FB7D1C46B7F91430B7F9121007F12000019100932346584908F0DAFB07F12003184606F00BFDB7F9C630184608F01AF930
:400E800003465249184608F01DFA0346184607F1170307F1120207F11401FFF73FF9B7F9C620FB7D1C46B7F91430B7F9121007F12000019100932346454908F0B1FB07F1DB
:400EC0002003184606F0E2FCB7F9C430184608F0F1F803463B49184608F0F4F90346184607F1170307F1120207F11401FFF716F9B7F9C420FB7D1C46B7F91430B7F912109F
:400F000007F12000019100932346324908F088FB07F12003184606F0B9FCB7F9C230184608F0C8F803462749184608F0CBF90346184607F1170307F1120207F11401FFF79E
:400F4000EDF8B7F9C220FB7D1C46B7F91430B7F9121007F120000191009323461E4908F05FFB07F12003184606F090FCB7F9C030184608F09FF803461249184608F0A2F9DE
:400F80000346184607F1170307F1120207F11401FFF7C4F8B7F9C020FB7D1C46B7F91430B7F9121007F120000191009323460B4908F036FB07F12003184606F067FCE4376D
:400FC000BD4690BD0000C842B8A4000000002041FCA400003CA5000078A50000B4A5000090B5B9B002AFF860B9603B601346FB80FA8897F8E83007F1240000931346BA6851
:40100000B44908F00DFB07F12403184606F03EFC002387F8D73056E007F12403C7F8D03097F8D7301A46AC49D7F8D00008F0F8FA03461A46D7F8D0301344C7F8D030002324
:4010400087F8D6301AE097F8D72097F8D63013441A463B6813441B781A46A049D7F8D00008F0DEFA03461A46D7F8D0301344C7F8D03097F8D630013387F8D63097F8D63069
:40108000072B08D897F8D72097F8D6301A4497F8E8309A42D7DBD7F8D030914A1188927819809A7002231A46D7F8D0301344C7F8D03007F12403184606F0E8FB97F8D7302A
:4010C000083387F8D73097F8D72097F8E8309A42A2D397F8E830032B0DD897F8E82007F124038049184608F09BFA07F12403184606F0CCFB86E197F8E830012B09D907F13F
:401100001C0302223968184608F076FAB7F91C3000E00023A7F8CE3097F8E830012B0AD93B681B781B021AB23B6801331B781BB213431BB200E00023A7F8CC3097F8E830F5
:40114000022B0AD93B68591C07F11A030222184608F052FAB7F91A3000E00023A7F8CA30B7F9CE30184607F0A5FF03465E49184608F0A8F80346184607F1230307F11E026C
:4011800007F12001FEF7CAFFB7F9CE2097F823301C46B7F92030B7F91E1007F12400019100932346514908F03BFA07F12403184606F06CFBB7F9CC30184607F07BFF034689
:4011C0004949184608F07EF80346184607F1230307F11E0207F12001FEF7A0FFB7F9CC2097F823301C46B7F92030B7F91E1007F124000191009323463D4908F011FA07F11E
:401200002403184606F042FBB7F9CA30184607F051FF03463449184608F054F80346184607F1230307F11E0207F12001FEF776FFB7F9CA2097F823301C46B7F92030B7F951
:401240001E1007F12400019100932346294908F0E7F907F12403184606F018FB264806F015FB97F8E830052B40F2C98097F8E830032B0AD93B68991C07F11803022218465B
:4012800008F0BAF9B7F9183000E00023A7F8C83097F8E830032B0BD93B6802331B781B021AB23B6803331B781BB213431BB200E00023A7F8C63097F8E830042B1ED93B6880
:4012C000D91C07F116030222184608F095F9B7F9163014E0F4A5000020A000002CA0000034A000002CA600000000204150A6000098A60000E0A6000028A700000023A7F87F
:40130000C430B7F9C830184607F0D4FE03463F49184607F0D7FF0346184607F1230307F11E0207F12001FEF7F9FEB7F9C82097F823301C46B7F92030B7F91E1007F1240036
:40134000019100932346324908F06AF907F12403184606F09BFAB7F9C630184607F0AAFE03462A49184607F0ADFF0346184607F1230307F11E0207F12001FEF7CFFEB7F939
:40138000C62097F823301C46B7F92030B7F91E1007F124000191009323461E4908F040F907F12403184606F071FAB7F9C430184607F080FE03461549184607F083FF0346C7
:4013C000184607F1230307F11E0207F12001FEF7A5FEB7F9C42097F823301C46B7F92030B7F91E1007F124000191009323460A4908F016F907F12403184606F047FA0748EB
:4014000006F044FADC37BD4690BD00BF0000C84238A7000080A70000C8A7000010A80000B0B5B8B002AFF860B9603B601346FB80FA8897F8E83007F11C0000931346BA6876
:40144000B14908F0EDF807F11C03184606F01EFA002387F8D73056E007F11C03C7F8D03097F8D7301A46A949D7F8D00008F0D8F803461A46D7F8D0301344C7F8D03000235D
:4014800087F8D6301AE097F8D72097F8D63013441A463B6813441B781A469D49D7F8D00008F0BEF803461A46D7F8D0301344C7F8D03097F8D630013387F8D63097F8D6304A
:4014C000072B08D897F8D72097F8D6301A4497F8E8309A42D7DBD7F8D0308E4A1188927819809A7002231A46D7F8D0301344C7F8D03007F11C03184606F0C8F997F8D73013
:40150000083387F8D73097F8D72097F8E8309A42A2D397F8E830042B0DD897F8E82007F11C037D49184608F07BF807F11C03184606F0ACF906E297F8E830012B0AD93B6823
:401540001B781B021AB23B6801331B781BB213431BB200E00023A7F8CE30B7F9CE30184607F0A8FD03466D49184607F0ABFE0346184607F11B0307F1160207F11801FEF77D
:40158000CDFDB7F9CE20FB7E1C46B7F91830B7F9161007F11C00019100932346604908F03FF807F11C03184606F070F93B6802331B781A463B6802331B7807F11C005949E0
:4015C00008F02EF807F11C03184606F05FF93B6803331B781C463B6803331B78524AA2FB03235B08DBB21D463B6803331A784E4BA3FB021359080B465B000B44D31ADBB291
:401600001A4613465B01134407F11C0000932B462246464908F004F807F11C03184606F035F997F8E830042B10D93B6804331B781A463B6804331B7807F11C003C4907F019
:40164000EFFF07F11C03184606F020F997F8E830062B20D997F8E830062B0BD93B6805331B781B021AB23B6806331B781BB213431BB200E00023A7F8CC30B7F8CC301A460C
:4016800007F11C032B49184607F0CAFF07F11C03184606F0FBF897F8E830082B20D997F8E830082B0BD93B6807331B781B021AB23B6808331B781BB213431BB200E00023D5
:4016C000A7F8CA30B7F9CA20B7F9CA3007F11C00194907F0A5FF07F11C03184606F0D6F897F8E8300A2B55D997F8E8300A2B25D93B6809331B781B021AB23B680A331B7811
:401700001BB213431BB21AE064A8000020A000002CA0000034A000002CA600000000C8429CA80000DCA80000ABAAAAAA18A9000054A9000088A90000C0A900000023A7F8EC
:40174000C830B7F9C830184607F0B4FC03467F49184607F0B7FD0346184607F11B0307F1160207F11801FEF7D9FCB7F9C820FB7E1C46B7F91830B7F9161007F11C0001911B
:4017800000932346724907F04BFF07F11C03184606F07CF86F4806F079F897F8E8300C2B1FD997F8E8300C2B0BD93B680B331B781B021AB23B680C331B781BB213431BB2DA
:4017C00000E00023A7F8C630B7F9C62007F11C036149184607F024FF07F11C03184606F055F897F8E8300E2B20D997F8E8300E2B0BD93B680D331B781B021AB23B680E33EA
:401800001B781BB213431BB200E00023A7F8C430B7F8C4301A4607F11C035049184607F0FFFE07F11C03184606F030F897F8E830112B1FD997F8E830112B0BD93B6810336F
:401840001B781B021AB23B6811331B781BB213431BB200E00023A7F8C230B7F9C22007F11C033F49184607F0DBFE07F11C03184606F00CF897F8E830132B3BD997F8E83080
:40188000132B0BD93B6812331B781B021AB23B6813331B781BB213431BB200E00023A7F8C030B7F9C030184607F004FC03462D49184607F007FD0346184607F11B0307F1E2
:4018C000160207F11801FEF729FCB7F9C020FB7E1C46B7F91830B7F9161007F11C00019100932346204907F09BFE07F11C03184605F0CCFF97F8E830152B20D997F8E83015
:40190000152B0BD93B6814331B781B021AB23B6815331B781BB213431BB200E00023A7F8BE30B7F9BE20B7F9BE3007F11C000F4907F076FE07F11C03184605F0A7FF0C48B8
:4019400005F0A4FFD837BD46B0BD00BF00002041F8A900003CAA000078AA0000A8AA0000DCAA00000000C84210AB000050AB000090AB000090B5BBB002AFF860B9603B6047
:401980001346FB80FA8897F8F03007F12C0000931346BA68C24907F043FE07F12C03184605F074FF97F8F030052B0DD897F8F02007F12C03BB49184607F032FE07F12C0386
:4019C000184605F063FF3FE297F8F030022B0AD93B68591C07F124030222184607F00CFEB7F9243000E00023A7F8DE3097F8F030042B0AD93B68D91C07F1220302221846EC
:401A000007F0FAFDB7F9223000E00023A7F8DC3097F8F030062B0AD93B68591D07F120030222184607F0E8FDB7F9203000E00023A7F8DA30B7F9DE30184607F03BFB034675
:401A40009949184607F03EFC0346184607F12B0307F1260207F12801FEF760FBB7F9DE2097F82B301C46B7F92830B7F9261007F12C000191009323468C4907F0D1FD07F16B
:401A80002C03184605F002FFB7F9DC30184607F011FB03468449184607F014FC0346184607F12B0307F1260207F12801FEF736FBB7F9DC2097F82B301C46B7F92830B7F927
:401AC000261007F12C00019100932346784907F0A7FD07F12C03184605F0D8FEB7F9DA30184607F0E7FA03466F49184607F0EAFB0346184607F12B0307F1260207F1280119
:401B0000FEF70CFBB7F9DA2097F82B301C46B7F92830B7F9261007F12C00019100932346644907F07DFD07F12C03184605F0AEFE97F8F0300A2B78D997F8F030082B0AD9D5
:401B40003B68D91D07F11E030222184607F054FDB7F91E3000E00023A7F8D83097F8F0300A2B0BD93B6803F1090107F11C030222184607F041FDB7F91C3000E00023A7F86C
:401B8000D630B7F9D830184607F094FA03464A49184607F097FB0346184607F12B0307F1260207F12801FEF7B9FAB7F9D82097F82B301C46B7F92830B7F9261007F12C0005
:401BC0000191009323463D4907F02AFD07F12C03184605F05BFEB7F9D630184607F06AFA03463549184607F06DFB0346184607F12B0307F1260207F12801FEF78FFAB7F9B1
:401C0000D62097F82B301C46B7F92830B7F9261007F12C00019100932346294907F000FD07F12C03184605F031FE97F8F030102B40F2C98097F8F0300C2B0BD93B6803F1ED
:401C40000B0107F11A030222184607F0D5FCB7F91A3000E00023A7F8D43097F8F0300E2B0BD93B6803F10D0107F118030222184607F0C2FCB7F9183000E00023A7F8D23002
:401C800097F8F030102B1DD93B6803F10F0107F116030222184607F0AFFCB7F9163012E0B4AB00002CA6000000007A44ECAB000028AC000064AC00000000C842A0AC0000C0
:401CC000E0AC00000023A7F8D030B7F9D430184607F0F0F903465E49184607F0F3FA0346184607F12B0307F1260207F12801FEF715FAB7F9D42097F82B301C46B7F9283068
:401D0000B7F9261007F12C00019100932346514907F086FC07F12C03184605F0B7FDB7F9D230184607F0C6F903464949184607F0C9FA0346184607F12B0307F1260207F12C
:401D40002801FEF7EBF9B7F9D22097F82B301C46B7F92830B7F9261007F12C000191009323463D4907F05CFC07F12C03184605F08DFDB7F9D030184607F09CF9034634499A
:401D8000184607F09FFA0346184607F12B0307F1260207F12801FEF7C1F9B7F9D02097F82B301C46B7F92830B7F9261007F12C00019100932346294907F032FC07F12C032E
:401DC000184605F063FD97F8F030122B3CD997F8F030122B0BD93B6803F1110107F114030222184607F008FCB7F9143000E00023A7F8CE30B7F9CE30184607F05BF90346F6
:401E00001749184607F05EFA0346184607F12B0307F1260207F12801FEF780F9B7F9CE2097F82B301C46B7F92830B7F9261007F12C000191009323460A4907F0F1FB07F161
:401E40002C03184605F022FDE437BD4690BD00BF00007A441CAD000058AD000094AD000000002041D0AD000080B5CEB002AF3B1D18603B46196007F14C023B1D1146186849
:401E800002F0A8FA3B1D1B68B3F81C32A7F82E313B1D1B68B3F81A32A7F82C313B1D1B6803F21E23C7F828313B1D1B6893F83E3287F82731B7F82C31013B152B74D801A2A1
:401EC00052F823F0711F0000A91F0000551F0000391F0000A91F0000A91F0000A91F0000A91F0000A91F0000A91F0000A91F00008D1F0000A91F0000A91F0000A91F0000E5
:401F0000A91F0000A91F0000A91F0000A91F0000A91F0000A91F00001D1F0000B7F82E21394607F14C0097F827310093D7F828310968FEF7D3FA45E0B7F82E21394607F185
:401F40004C0097F827310093D7F828310968FEF7ADFD37E0B7F82E21394607F14C0097F827310093D7F828310968FFF739F829E0B7F82E21394607F14C0097F8273100930D
:401F8000D7F828310968FFF74BFA1BE0B7F82E21394607F14C0097F827310093D7F828310968FFF7E7FC0DE0B7F82C2107F10C030749184607F034FB07F10C03184605F087
:401FC00065FC00BF00BF07F59877BD4680BD00BF14AE00002DE9F043ADF5217D0EAF002387F85F31002387F85E31002387F85D31002387F84732002387F85C314FF00003D1
:40200000C7F850314FF00003C7F85431002387F84632002387F845321BE097F8452207F59673002123F8121097F8453207F596725B001344FF229A8097F8452207F5967361
:402040000432802123F8121097F84532013387F8453297F84532012BDFD907F5967300221A73012387F84432012387F843320123C7F83C3262B605F06BFBBE4805F006FC8C
:40208000BD4805F003FCBD4805F000FCBC4805F0FDFBBC4805F0FAFBBB4805F0F7FBBB4805F0F4FBBA4805F0F1FBB44805F0EEFB05F09EFC05F0FCFC05F036FDB549B64824
:4020C00001F078FFB54805F051FDB54805F0DEFB07F59673D7F83C12184601F0CDF800F0D9FDB04805F0D2FB05F002FEAE4805F04FFEAE4805F0CAFBAD4805F0C7FB05F039
:4021000089FB034687F83B3297F85F31022B00F0E58097F83B326D2B03D097F83B324D2B14D197F85F31002B09D1012387F85F31012387F847329F4805F0A8FB31E200235D
:4021400087F85F319C4805F0A1FB2AE297F83B32742B03D097F83B32542B14D197F85F31002B0CD1022387F85F31944805F08EFB864805F08BFB924805F088FB11E29148E5
:4021800005F084FB0DE297F83B326A2B03D097F83B324A2B1AD197F85E31002B0CBF01230023DBB287F85E3197F85E31002B02D0012387F8473297F85E31002B01D0824BE8
:4021C00000E0824B184605F061FBEAE197F83B326C2B03D097F83B324C2B24D197F85C31002B03D1012387F85C310AE097F85C31012B03D1022387F85C3102E0002387F8E4
:402200005C3197F85C311846FEF7BAF8024607F5B0736F49184607F003FA07F5B073184605F034FBBDE197F83B326B2B03D097F83B324B2B0DD107F25D1007F5AF7207F20F
:402240005F1107F5AE73009303465348FEF7F0F8A7E197F83B32782B03D097F83B32582B13D107F25D1007F5AF7207F25F1107F5AE73009303464848FEF7DAF8002387F842
:402280004732544805F002FB8BE197F83B32732B03D097F83B32532B13D197F85D31002B0CBF01230023DBB287F85D3197F85D31002B01D0484B00E0484B184605F0E6FA9A
:4022C0006FE197F83B32632B04D097F83B32432B40F06781632001F045F862E197F83B32742B03D097F83B32542B0ED12A4B0022A3F81222284B002283F81822002387F8A0
:402300005F31374805F0C2FA4BE197F83B326B2B0BD097F83B324B2B07D097F83B32782B03D097F83B32582B5ED11B4B0022A3F81222194B002283F8182207F25D1007F5E7
:40234000AF7207F25F1107F5AE73009303461248FEF76EF897F83B32782B04D097F83B32582B40F01D81002387F847321D4805F08DFA15E148AE000078AE00009CAE00000D
:40238000C8AE0000F4AE000024AF00003CAF00006CAF00006C9E0000E481FF1FA100000094AF0000B0AF000001010000D0AF0000ECAF000004B0000028B0000048B00000BC
:4023C00060B0000094B00000C4B00000D8B00000F0B0000004B1000034B100004CB1000064B1000078B1000097F83B32612B03D097F83B32412B23D11621834801F03EFF31
:40240000034687F83632814B1B687F4AC2F814327D4BD3F8142297F83632002B01D17C4B00E07C4B07F5B0707B4907F0F9F807F5B073184605F02AFA784805F027FAB0E065
:4024400097F83B32672B03D097F83B32472B23D104216D4801F012FF034687F837326B4B1B68694AC2F81432674BD3F8142297F83732002B01D1664B00E0664B07F5B0709A
:40248000674907F0CDF807F5B073184605F0FEF9624805F0FBF984E097F83B32622B03D097F83B32422B23D10321574801F0E6FE034687F83832554B1B68534AC2F814320D
:4024C000514BD3F8142297F83832002B01D1504B00E0504B07F5B070524907F0A1F807F5B073184605F0D2F94C4805F0CFF958E097F83B32732B03D097F83B32532B23D14B
:402500000121414801F0BAFE034687F839323F4B1B683D4AC2F814323B4BD3F8142297F83932002B01D13A4B00E03A4B07F5B0703D4907F075F807F5B073184605F0A6F901
:40254000364805F0A3F92CE097F83B326E2B03D097F83B324E2B24D10C212B4801F08EFE034687F83A32294B1B68274AC2F81432254BD3F8142297F83A32002B01D1244BDD
:4025800000E0244B07F5B070284907F049F807F5B073184605F07AF9204805F077F900E000BF00F017FF034687F8353297F8352297F8463211461846FDF7FEFE97F83532F9
:4025C00087F84632104801F079FD97F85F31022B53D10D4B93F81832002B29D00B4B1A68094BD3F81432D31AC7F83032D7F830120548FFF739FC044B002283F81822024B1D
:402600000022A3F8122238E0E481FF1F2484FF1F90B1000094B10000A0B10000D8B10000F8B100002CB2000060B200009CB20000D44BB3F81232002B1FD0D34B1A68D14B1D
:40264000D3F81432D31AB3F5FA6F16D3CD4BB3F812321A4607F5B0704FF4FA63CB4906F0DFFF07F5B073184605F010F9C84805F00DF9C44B0022A3F8122205F079FE03461C
:4026800087F82F3297F84332012B28D197F82F32002B24D1322005F0E9FD05F069FE0346002B1CD197F844325A1CBA4B83FB0231D317C91A0B465B000B44D11A0B4687F863
:4026C000443297F84432184600F092FBB24805F0DDF800BF05F04CFE0346002BFAD097F82F3287F8433207F5AC73184600F03AFB0346002B67D007F5AC73184600F00EFEE2
:4027000007F5A873184600F079FE97F85D31002B3BD0D7F85031A149184606F01FFD0346184606F0F7FE0346A7F82C32D7F854319A49184606F012FD0346184606F0EAFEC9
:402740000346A7F82A32B7F95831184600F040FBC7F82402B7F95A31184600F039FBC7F82002B7F92C32B7F92A2207F5B07001920093D7F82032D7F82422894906F050FF37
:4027800007F5B073184605F081F800F023FE0346022B18D100F028FE0346A7F81E32B7F81E3203F007039BB2002B0CD1B7F81E2207F5B07020237B4906F032FF07F5B073C7
:4027C000184605F063F807F59E730122DA7307F59E7300221A7497F85E31002B24D000F0F9FD0346002B1FD197F85C2107F59E731A7397F85C2107F59E735A7307F59E73D1
:4028000000229A73D7F8502107F59E731A60D7F8543183F0004207F59E735A6007F59E734FF000029A601AE007F59E7300221A7307F59E7300225A7307F59E7300229A739C
:4028400007F59E734FF000021A6007F59E734FF000025A6007F59E734FF000029A6097F85F31012B18D100F0B5FD0346002B13D1454B1A684C4B1B68D31A632B0CD9424BF9
:402880001B68494A136007F59E7319463D4801F0C5FC3C4801F056FD97F84732002B3FF42EAC97F85F31012B7FF429AC00F092FD0346002B7FF423AC334B1A683B4B1B6813
:4028C000D31AB3F57A7FFFF41AAC2F4B1B68374A13602D4B1B68C7F81832D7F81832344AA2FB03239A09334BA3FB021359090B461B015B1A9B00D31AC7F81432D7F8183284
:402900002D4AA2FB03239A0B2A4BA3FB021359090B461B015B1A9B00D31AC7F81032D7F81832264AA2FB03235B0DC7F80C3207F5B070D7F814320093D7F81032D7F80C2240
:402940001F4906F06DFE07F5B073184604F09EFF07F58A7319460B4801F054FD07F58A73196807F58A739C6807F58A73DB6807F58A72927D154697F85E21002A24D0114AF7
:4029800023E000BFE481FF1F2484FF1FD8B200000CB300005655555548B3000000007A445CB300008CB300002884FF1F2C84FF1FD34D62108988888873B2E745B17C2195E8
:4029C000ACB30000C4B30000A54A07F5B07002920195009323460A46A24906F021FE07F5B073184604F052FF07F1200319469E4801F0F0FC07F120031B78002B00F0D78061
:402A000007F5817407F5827207F2091107F1200007F1FA03059307F1FC03049307F20713039307F1FE03029307F58073019307F5847300932346FDF7C5FB07F120035B6834
:402A4000184606F067FD0346A7F80A3207F120035C68B7F90A32184606F02CFB03461946204606F071FA03468049184606F076FB0346184606F04EFD0346A7F8083207F1EC
:402A800020039B68184606F045FD0346A7F8063207F120039C68B7F90632184606F00AFB03461946204606F04FFA03466F49184606F054FB0346184606F02CFD0346A7F83B
:402AC000043207F120031B7F9B09DBB203F0010387F8033207F120031B7F1B09DBB203F0010387F8023207F120035B7F1B09DBB203F0010387F8013207F209131B789C4626
:402B000007F58273B3F90030984607F58173B3F90030FB6107F584731B78BB6107F58073B3F900307B6107F1FE03B3F900303B6107F207131B78FB6007F1FC03B3F9003034
:402B4000BB6007F1FA03B3F900307B60B7F90A02B7F90842B7F90652B7F9046297F8031297F8022297F8013207F5B07E0D930C920B910A960995089407907A680692BA6890
:402B80000592FA6804923A6903927A690292BA690192FB690093434662463549704606F03FFD07F5B073184604F070FE02E0314804F06CFED7F8500107F2131307F58772C7
:402BC00007F58871FDF7AAFAD7F8540107F5897307F5857207F58671FDF7A0FA07F213131B78984607F58873B3F90030994607F58773B3F900301C4697F85C311846FDF7D4
:402C0000BFFB054607F589731B781E4607F58673B3F90030FB6107F58573B3F90030BB6197F85C311846FDF7ABFB034607F5B0700593BA690492FB69039302960195009401
:402C40004B4642460C4906F0EBFC07F5B073184604F01CFE044B002283F80A21FFF74FBAC8B30000CCB30000E481FF1F0000204118B4000088B40000ACB4000080B500AF3E
:402C800004F0AAFE024B01221A7000BF80BD00BF3084FF1F80B582B000AF62B604F016FB04F016FE114804F049FE114B00221A70104B00221A70104B00221A700023FB717D
:402CC00007E0FB790D4A002122F81310FB790133FB71FB79012BF4D9002004F013FE04F00DFB00BF0837BD4680BD00BF7D2C00003284FF1F3084FF1F3184FF1F3484FF1F2D
:402D000098B500AF04F00AFB134B1B78DBB21C4604F014FB03461A46104B23F814200E4B1B78DBB2012B06D10D4B01221A700A4B00221A7006E0084B1B78DBB20133DAB2CD
:402D4000054B1A70044B1B78DBB2184604F0DAFD04F0D4FA00BF98BD3284FF1F3484FF1F3184FF1F80B584B000AF7860154B1B78DBB2002B04D0134B00221A70FFF7C0FF60
:402D8000114B1B78DBB2002B17D00F4B00221A700023FB730CE0FB7B5B007A681344FA7B0A4931F8122012B21A80FB7B0133FB73FB7B012BEFD9012300E000231846103729
:402DC000BD4680BD3084FF1F3184FF1F3484FF1F80B582B000AF0346FB80B7F90630184604F0EAFA034618460837BD4680BD00BF80B483B000AF0346FB71FB79012B08D0FA
:402E0000022B0BD0002B00D00DE0094B094A1A6009E0074B4FF07C521A6004E0044B4FF07E521A6000BF00BF0C37BD4680BC7047CC80FF1FCDCCCC3D90B585B000AF0446CD
:402E4000084611461A462346FB800346BB800B467B8013463B80B7F90620B7F904309A4201DABB88FB80B7F90620B7F900309A4201DD3B88FB803A887B88D31A9BB2FB812D
:402E80007A88BB88D31A9BB2BB81B7F90E30002B01DC0123FB81B7F90C30002B01DC0123BB81B7F90620B7F902309A4214DBB7F90620B7F90230D31A184606F0FBF80446B4
:402EC000B7F90E30184606F0F5F803461946204606F0F8F9034613E0B7F90620B7F90230D31A184606F0E6F80446B7F90C30184606F0E0F803461946204606F0E3F9034610
:402F000018461437BD4690BD90B583B000AF786039603B6883F000437968184606F0BCFA0346002B09D03968786806F0B5FA0346002B02D04FF000032AE04FF00001786897
:402F400006F0C8FA0346002B11D03968786805F0FBFF03461C4639684FF07E5005F0F4FF03461946204606F0ADF9034610E03968786805F0EBFF03461C4639684FF07E50F7
:402F800005F0E2FF03461946204606F09BF9034618460C37BD4690BD80B485B000AF78600023FB7338E0FB7B7A685B001344B3F904309AB2F97B7B6833F911309BB2D31A9C
:402FC0009BB2BB81FA7B7B6833F91220F97B7B68043133F911309A420EDAFA7B7B68043233F91220FB7B79685B000B44B3F904309A4201DA012300E00023FB72B7F90C30D1
:40300000132B01DC00230BE0FB7A002B01D1002306E0FB7B0133FB73FB7B012BC3D9012318461437BD4680BC704700BF90B484B000AF78601B4A1C4B14460FCB07C42380A7
:403040000023FB7323E0FB7BFA7B520079680A44B2F90010134A22F81310FB7BFA7B520079680A44B2F900100E4A5B0013440A469A80FB7BFA7B520079680A44B2F9001039
:40308000084A043322F81310FB7B0133FB73FB7B012BD8D9054B01221A7000BF1037BD4690BC70475884FF1F4884FF1F6684FF1F80B485B000AF7860214B1B78012B39D1C5
:4030C0000023FB7332E0FB7B5B007A681344B3F90020FB7B1B4931F913309A4209DAFB7BFA7B520079680A44B2F90010154A22F81310FB7B5B007A681344B3F90020FB7B42
:4031000010495B000B44B3F904309A420BDDFB7BFA7B520079680A44B2F90010094A5B0013440A469A80FB7B0133FB73FB7B012BC9D900E000BF1437BD4680BC704700BF57
:403140006684FF1F5884FF1F80B483B000AF0023FB7107E0FB790A4A002142F82310FB790133FB71FB79012BF4D9064B00221A80054B02221A7000BF0C37BD4680BC7047E7
:403180007084FF1F7884FF1F6684FF1F80B485B000AF7860234B1B78022B3DD10023FB7311E0FB7BFA7B204951F82220F97B490078680144B1F900100A441B4941F8232084
:4031C000FB7B0133FB73FB7B012BEAD9174B1B8801339AB2154B1A80144B1B881F2B1CD90023BB7311E0BA7BBB7B0F4951F82330002B00DA1F335B1118B20D49131D024696
:4032000021F81320BB7B0133BB73BB7B012BEAD9044B03221A7000E000BF1437BD4680BC704700BF6684FF1F7084FF1F7884FF1F5884FF1F98B500AF0B48FFF7ADFE034681
:40324000002B03D10948FFF7F1FE0BE0084A064B14460FCB07C42380054B01221A73054B00221A7098BD00BF5884FF1F6884FF1F4884FF1F6684FF1F90B484B000AF7860E4
:4032800039601F4B7A68144620686168A26807C3A2891A801B4B7A68144620686168A26807C3A2891A80174B00221A73164B7A68144620686168A26807C3A2891A80134A64
:4032C0003B6813600023FB730BE0FB7BF97B7A68043132F911100E4A22F81310FB7B0133FB73FB7B012BF0D90A4B00221A700A4B00221A8000BF1037BD4690BC704700BFFA
:403300003884FF1F4884FF1F5884FF1F6C84FF1F6884FF1F6684FF1F7884FF1F80B584B000AF78600023FB730CE0FB7BFA7B520079680A44B2F90010094A22F81310FB7BFB
:403340000133FB73FB7B012BEFD97868FFF7B0FE7868FFF71BFF00BF1037BD4680BD00BF6884FF1F80B582B000AF0346FB71FB79782B02D0FB79582B03D1144B00221A7034
:4033800020E0FB79632B02D0FB79432B19D10F4B1B78002B03D10E48FFF748FE12E00B4B1B78012B02D1FFF7CFFE0BE0074B1B78022B07D0054B1B78032B03D1FFF73AFF6A
:4033C00000E000BF0837BD4680BD00BF6684FF1F6884FF1F80B400AF024B1B781846BD4680BC70476684FF1F80B400AF024B1B881846BD4680BC70477884FF1F90B587B002
:4034000000AF7860304B7B613048FFF7C5FD0346002B01D02D4B7B610023FB744CE0FB7C2B4A32F91300FA7C7B6933F91210FA7C7B69043233F91240FB7C7A695B0013443B
:40344000B3F904302246FFF7F7FCF8602149F868FFF75AFDF860204B1A68FB7C22FA03F303F00103002B03D0FB6883F00043FB601A4B1B681946F86805F070FE0346FB60C7
:403480004FF07E51F86806F025F80346002B02D04FF07E53FB601249F86805F0FDFF0346002B01D00E4BFB60FA7C7B68F96843F82210FB7C0133FB74FB7C012BAFD900BF0A
:4034C0001C37BD4690BD00BF3884FF1F4884FF1F6884FF1FCDCC4C3D6C84FF1FCC80FF1F000080BF80B483B000AF0346FB80FB880133FB80FB88FF2B01D90023FB80FB880F
:4035000018460C37BD4680BC704700BF80B483B000AF78607B680022A3F800217B680022A3F802217B680022A3F8042100BF0C37BD4680BC704700BF80B584B000AF786057
:403540000B46FB707B68B3F800319BB21846FFF7C9FF0346FB817B68B3F802319BB2FA899A420AD17B68B3F804319BB201339AB27B68A3F8042100230CE07B68B3F8003159
:403580009BB219467B68FA785A547B68FA89A3F80021012318461037BD4680BD80B582B000AF786039607B68B3F800319AB27B68B3F802319BB29A4201D1002316E07B68E7
:4035C000B3F802319BB21A467B689B5CDAB23B681A707B68B3F802319BB21846FFF782FF03461A467B68A3F80221012318460837BD4680BD80B483B000AF78607B681B781B
:403600001A067B6801331B781B041A437B6802331B781B0213437A6803321278134318460C37BD4680BC704780B483B000AF78607B681B781B021AB27B6801331B781BB2D4
:4036400013431BB218460C37BD4680BC704700BF80B58AB000AF78606C4B7B627B6ADB68042B40F0CA807B6A1B89152B40F2C7807B6ADB6E3B623B6A002B00F0C280386AC5
:40368000FFF7B8FFF8613B6A04331846FFF7B2FFB8613B6A08331846FFF7ACFF78613B6A0C331846FFF7C0FF03467B823B6A0E331846FFF7B9FF03463B823B6A10331846D7
:4036C000FFF7B2FF0346FB813B6A12331846FFF7ABFF0346BB813B6A14331846FFF7A4FF03467B817B68FA695A647B68BA691A647B687A699A647B687A8AA3F84C207B68AC
:403700003A8AA3F84E207B68FA89A3F850207B68BA89A3F852207B687A89A3F85420F86905F0C8FC03463A49184605F0CBFD03461A467B685A62B86905F0BCFC0346344946
:40374000184605F0BFFD03461A467B681A62786905F0B0FC03462F49184605F0B3FD03461A467B689A62B7F91230184605F0A2FC03462949184605F0A5FD03461A467B6845
:40378000DA62B7F91030184605F094FC03462349184605F097FD03461A467B681A63B7F90E30184605F086FC03461B49184605F089FD03461A467B685A63B7F90C30184679
:4037C00005F078FC03461449184605F07BFD03461A467B689A63B7F90A30184605F06AFC03460D49184605F06DFD03461A467B68DA637B6801229A7704E000BF02E000BF43
:4038000000E000BF2837BD4680BD00BFB884FF1F8096184B00007A440000C8420000204180B586B000AF7860244B7B617B69DB68032B3AD17B691B89042B38D97B69DB6EFD
:403840003B613B69002B34D03B69591C07F10E030222184605F0D0FE3B69D91C07F10C030222184605F0C8FEB7F90E30184605F021FC03461249184605F024FD03461A4676
:403880007B689A65B7F90C30184605F013FC03460C49184605F016FD03461A467B68DA657B68012283F8562004E000BF02E000BF00E000BF1837BD4680BD00BFB884FF1F87
:4038C000000020410000C84280B58AB000AF7860764B7B627B6ADB68162B40F0DE807B6A1B89122B40F2DB807B6ADB6E3B623B6A002B00F0D6803B6A591C07F11E03022247
:40390000184605F079FE3B6AD91C07F11C030222184605F071FE3B6A591D07F11A030222184605F069FE3B6AD91D07F118030222184605F061FE3B6A03F1090107F11603E0
:403940000222184605F058FE3B6A03F10B0107F114030222184605F04FFE3B6A03F10D0107F112030222184605F046FE3B6A03F10F0107F110030222184605F03DFE3B6A88
:4039800003F1110107F10E030222184605F034FEB7F91E30184605F08DFB03464449184605F090FC03461A467B689A66B7F91C30184605F07FFB03463D49184605F082FCCC
:4039C00003461A467B68DA66B7F91A30184605F071FB03463649184605F074FC03461A467B685A66B7F91830184605F063FB03463049184605F066FC03461A467B681A673E
:403A0000B7F91630184605F055FB03462949184605F058FC03461A467B685A67B7F91430184605F047FB03462249184605F04AFC03461A467B689A67B7F91230184605F096
:403A400039FB03461B49184605F03CFC03461A467B68DA67B7F91030184605F02BFB03461449184605F02EFC03461A467B68C3F88020B7F90E30184605F01CFB03460D49A3
:403A8000184605F01FFC03461A467B68C3F884207B68012283F8602004E000BF02E000BF00E000BF2837BD4680BD00BFB884FF1F0000C8420000204180B584B000AF7860B6
:403AC000564BFB60FB68DB68012B40F09E80FB681B89152B40F29B80FB68DB6EBB60BB68002B00F09680B868FFF79EFD0346184605F0E0FA03464A49184605F0E3FB03467E
:403B00001A467B68C3F88C20BB689A787B6883F89020BB6803331B78184605F0C7FA03464049184605F0CEFB03461A467B68C3F89420BB681A797B6883F89820BB68053388
:403B40001846FFF771FD03461A467B68A3F89A20BB6807331846FFF767FD03461A467B68A3F89C20BB6809331846FFF75DFD0346184605F09FFA03462B49184605F0A2FBBB
:403B800003461A467B68C3F8A020BB680B331846FFF74AFD03461A467B68A3F8A420BB680D331846FFF740FD03461A467B68A3F8A620BB6810331846FFF736FD03461A46A0
:403BC0007B68A3F8A820BB6812331846FFF72CFD0346184605F06EFA03461149184605F071FB03461A467B68C3F8AC20BB6814331846FFF719FD03461A467B68A3F8B02056
:403C00007B68012283F8882004E000BF02E000BF00E000BF1037BD4680BD00BFB884FF1F0000C842000040400000204180B58AB000AF7860794B7B627B6ADB680C2B40F0C7
:403C4000E5807B6A1B89122B40F2E2807B6ADB6E3B623B6A002B00F0DD803B6A591C07F11E030222184605F0C7FC3B6AD91C07F11C030222184605F0BFFC3B6A591D07F13A
:403C80001A030222184605F0B7FC3B6AD91D07F118030222184605F0AFFC3B6A03F1090107F116030222184605F0A6FC3B6A03F10B0107F114030222184605F09DFC3B6AB7
:403CC00003F10D0107F112030222184605F094FC3B6A03F10F0107F110030222184605F08BFC3B6A03F1110107F10E030222184605F082FCB7F91E30184605F0DBF90346E5
:403D00004749184605F0DEFA03461A467B68C3F8B420B7F91C30184605F0CCF903464049184605F0CFFA03461A467B68C3F8B820B7F91A30184605F0BDF903463849184661
:403D400005F0C0FA03461A467B68C3F8BC20B7F91830184605F0AEF903463249184605F0B1FA03461A467B68C3F8C020B7F91630184605F09FF903462A49184605F0A2FA0A
:403D800003461A467B68C3F8C420B7F91430184605F090F903462249184605F093FA03461A467B68C3F8C820B7F91230184605F081F903461A49184605F084FA03461A4660
:403DC0007B68C3F8CC20B7F91030184605F072F903461349184605F075FA03461A467B68C3F8D020B7F90E30184605F063F903460D49184605F066FA03461A467B68C3F8B7
:403E0000D4207B68012283F8B22004E000BF02E000BF00E000BF2837BD4680BDB884FF1F00007A440000C8420000204180B483B000AF78607B68DB7B002B2ED1444B002234
:403E40001A75434B00221A77414B002283F824203F4B002283F82C203D4B002283F834203B4B002283F83C20394B4FF000021A61374B4FF000029A61354B4FF000021A625F
:403E8000334B4FF000029A62314B4FF000021A632F4B4FF000029A6330E07B681A7B2C4B1A757B685A7B2A4B1A777B689A7B284B83F824207B681B68254A13617B685B68F0
:403EC000234A93617B689B68214A1362204B002283F82C201E4B002283F834201C4B002283F83C201A4B4FF000029A62184B4FF000021A63164B4FF000029A637B681B7CB1
:403F0000002B01D0012200E00022114B1A73104B00225A730E4B002283F840200C4B002283F841200A4B002283F84220084B002283F84320064B002283F84420044B002218
:403F400083F8452000BF0C37BD4680BC704700BFD080FF1F80B483B000AF7860144B9A6C7B685A60124BDA6C7B689A60104B1A6E7B68DA600E4B5A6D7B681A610C4B9A6DF0
:403F80007B685A610A4BDA6D7B689A61084B93F850207B681A77064B93F851207B685A777B6801221A7000BF0C37BD4680BC7047D080FF1F80B582B000AF786039607B68C6
:403FC000002B3FD03B68002B3CD03B685B68002B38D04FF410720021786805F018FB7B683A6892E8030083E803007B6803F586731846FFF78BFA7B6800221A777B6800228E
:4040000083F83A207B68002283F872207B68002283F87C207B68002283F8A4207B68002283F8CE207B680022A3F812227B680022C3F814227B68002283F81822034B1B6876
:40404000984700E000BF0837BD4680BDD080FF1F80B483B000AF78600B46FB707B68002B09D07B6893F80A21FB781343DAB27B6883F80A2100E000BF0C37BD4680BC7047F5
:4040800080B582B000AF78600B46FB707B68002B0FD07B6803F58673FA7811461846FFF74BFA7B68B3F810329AB27B68A3F8082100E000BF0837BD4680BD00BF80B58AB024
:4040C00000AF78607B68002B00F0A280524BD3F880307B6275E07B68D3F804315A1C7B68C3F80421FB7B1946002001F08DFA03463B623B6A002B64D07B68D3F8FC305A1C0C
:404100007B68C3F8FC20444B1B69FB83424B9B89BB837B681C331846FFF71CFF7B681C331846FFF795FA7B681C331846FFF778FB7B681C331846FFF7C7FB7B681C331846BE
:40414000FFF7BAFC7B681C331846FFF76FFD7B68B3F81232002B34D07B68B3F81232FA8B9A422ED17B68FA8BA3F81A227B68BA8BA3F81C227B68012283F81822264B1B6F78
:40418000BB61BB8B1F2B02D8BB8BDBB200E02023FB75BB69002B08D07B6803F21E23FA7DB969184605F028FA07E07B6803F21E23FA7D0021184605F02AFA7B68FA7D83F8E1
:4041C0003E227B6803F5867307F10F0211461846FFF7E4F90346002B7FF47DAF0E4BD3F880303B613A697B6A9A4209D97B68D3F8002139697B6ACB1A1A447B68C3F80021D9
:404200007B68B3F810329AB27B68A3F8082100E000BF2837BD4680BDB484FF1FB0B483B000AF786039607B68002B0CD03B68002B09D07B683A6803F1080415460FCD0FC450
:404240002B68236000E000BF0C37BD46B0BC704780B582B000AF78607B68002B09D07B6801221A76786800F06DF87B6800221A7600E000BF0837BD4680BD00BF80B588B0A1
:4042800002AF78600B467B807B68002B03D07B685B68002B01D101234EE007F10C03184601F022FD02233B7479886B4607F110021268104618800233120C1A70FB68002284
:4042C0001F4801F07BFD00237B6109E07B685B687A681268F97A104698477B6901337B6107F10B031946012002F0F2FA0346002BECD17B687A88A3F812227B680022C3F85F
:4043000014227B68002283F818227B68D3F8F4305A1C7B68C3F8F4207B68D3F8F8207B691A447B68C3F8F8207B6893F80A31002B14BF01230023DBB218461837BD4680BD6D
:40434000AC84FF1F80B584B000AF78607B68002B03D07B685B68002B01D1012334E07B6808331846FFF762FD194B5B6898470023FB6009E07B685B687A681268F97A10463A
:404380009847FB680133FB6007F10B031946012002F09EFA0346002BECD17B68D3F8F4305A1C7B68C3F8F4207B68D3F8F820FB681A447B68C3F8F8207B6893F80A31002BE0
:4043C00014BF01230023DBB218461037BD4680BDD080FF1F80B582B000AF786039607B68002B0BD03B68002B08D03A687B6810461C33D822194605F0FFF800E000BF083760
:40440000BD4680BDB0B483B000AF786039607B68002B15D03B68002B12D07B68B3F810329AB27B68A3F808213A687B68154603F1F4040FCC0FC594E8030085E8030000E0D5
:4044400000BF0C37BD46B0BC704700BF80B483B000AF7860034A7B68136000BF0C37BD4680BC7047A884FF1F80B400AF044B1B680133034A136000BFBD4680BC704700BF65
:40448000A884FF1F80B400AF024B1B681846BD4680BC7047A884FF1F80B400AF034B00221A7000BFBD4680BC704700BFA084FF1F80B400AF034B02221A7000BFBD4680BCF1
:4044C000704700BFA084FF1FF0B587B000AFF860B9607A6051E0FB681B687968184604F03DFE03461E46FB681B68012214464FF00001184604F0EEFF0346002B01D10023B1
:404500001C46E3B21C46FB681B68012215464FF00001184604F0C0FF0346002B01D100231D46EBB2E31A184604F0C4FD03464FF07C51184604F012FE03461946304604F02B
:4045400005FD0346184604F0E5FF0346FB820F4B1B685A1C0D490A60B7F91620121212B2D2B21A70094B1B685A1C08490A60FA8AD2B21A70FB680433FB60BB685A1EBA60C1
:40458000002BA8D100BF1C37BD46F0BDA884FF1F80B586B000AFF860B9607A603B60564B1B78012B40F09E804EE0544B1B681B78DBB21B021BB21A46504B1B6801331B78FE
:4045C000DBB21343184604F075FD03467B614B4B1B680233494A1360396A786904F0BEFD03467B61FB681B687969184604F0AEFC03461A46FB681A60FB681B6879681846D4
:4046000004F068FF0346002B02D0FB687A681A60FB681B683968184604F03EFF0346002B02D0FB683A681A60FB681B681946184604F05AFF0346002B03D0FB684FF0000264
:404640001A60FB680433FB60BB685A1EBA60002BABD14CE0294B1B681B78DBB21B021BB21A46264B1B6801331B78DBB21343184604F020FD03463B61204B1B6802331F4A64
:404680001360396A386904F069FD03463B61FB683A691A60FB681B687968184604F01AFF0346002B02D0FB687A681A60FB681B683968184604F0F0FE0346002B02D0FB68DD
:4046C0003A681A60FB681B681946184604F00CFF0346002B03D0FB684FF000021A60FB680433FB60BB685A1EBA60002BB2D100BF1837BD4680BD00BFA084FF1FA884FF1FA6
:4047000080B485B000AF7860396018E07B681B88FB81104B1B685A1C0E490A60B7F90E20121212B2D2B21A700A4B1B685A1C09490A60FA89D2B21A707B6802337B603B68DC
:404740005A1E3A60002BE1D100BF1437BD4680BC704700BFA884FF1F80B586B000AFF860B9607A603B60514B1B78012B40F0948049E04F4B1B681B78DBB21B021AB24C4BBC
:404780001B6801331B78DBB21BB21343FB82484B1B680233464A1360FB68B3F900309AB2FB8A13449BB21AB2FB681A80FB68B3F90030184604F07EFC03467968184604F030
:4047C00089FE0346002B06D0786804F0A3FE03461AB2FB681A80FB68B3F90030184604F069FC03463968184604F056FE0346002B06D0386804F08EFE03461AB2FB681A805F
:40480000FB680233FB60BB685A1EBA60002BB0D147E0274B1B681B78DBB21B021AB2244B1B6801331B78DBB21BB21343BB82204B1B6802331E4A1360FB68BA8A1A80FB68B7
:40484000B3F90030184604F035FC03467968184604F040FE0346002B06D0786804F05AFE03461AB2FB681A80FB68B3F90030184604F020FC03463968184604F00DFE03465A
:40488000002B06D0386804F045FE03461AB2FB681A80FB680233FB60BB685A1EBA60002BB7D100BF1837BD4680BD00BFA084FF1FA884FF1F80B483B000AF786039600AE0A9
:4048C0000A4B1B685A1C09490A607A6812781A707B6801337B603B685A1E3A60002BEFD100BF0C37BD4680BC704700BFA884FF1F80B487B000AFF860B96011461A460B4692
:40490000FB711346BB712A4B1B78012B46D122E0284B1B685A1C27490A601B78DBB2FB74FB681B787B6197F913307A6913447B61FA797B699A4201DAFB797B61BA797B6934
:404940009A4201DDBB797B617B69DAB2FB681A70FB680133FB60BB685A1EBA60002BD7D121E0144B1B685A1C12490A601B78BB74FB68BA7C1A70FB681B78FA799A4202D27A
:40498000FB68FA791A70FB681B78BA799A4202D9FB68BA791A70FB680133FB60BB685A1EBA60002BDDD100BF1C37BD4680BC7047A084FF1FA884FF1F80B483B000AF786095
:4049C000396016E0104B1B685A1C0F490A607A681288120A92B2D2B21A700B4B1B685A1C09490A607A681288D2B21A707B6802337B603B685A1E3A60002BE3D100BF0C370A
:404A0000BD4680BC704700BFA884FF1F80B487B000AFF860B96011461A460B46FB801346BB80364B1B78012B5ED12DE0344B1B681B78DBB29BB21B029AB2314B1B6801334E
:404A40001B78DBB29BB21343FB822D4B1B6802332B4A1360FB681A88FB8A13449AB2FB681A80FB681B88FA889A4202D2FB68FA881A80FB681B88BA889A4202D9FB68BA8859
:404A80001A80FB680233FB60BB685A1EBA60002BCCD12EE01A4B1B681B78DBB29BB21B029AB2174B1B6801331B78DBB29BB21343BB82134B1B680233114A1360FB68BA8A7C
:404AC0001A80FB681B88FA889A4202D2FB68FA881A80FB681B88BA889A4202D9FB68BA881A80FB680233FB60BB685A1EBA60002BD0D100BF1C37BD4680BC7047A084FF1F69
:404B0000A884FF1F80B485B000AF78600B46FB701346BB702C4B1B681B78BB73BB78013B072B2BD801A252F823F000BF4D4B0000534B0000594B00005F4B0000654B0000A9
:404B40006B4B0000714B0000774B00000123FB7315E00323FB7312E00723FB730FE00F23FB730CE01F23FB7309E03F23FB7306E07F23FB7303E0FF23FB7300E000BFFA7BFB
:404B8000FB7802FA03F35BB2DB435AB297F90E3013405BB2BB737B681A78FB7B1340DBB21A46FB7802FA03F35AB297F90E3013435BB2BB73044B1B68BA7B1A7000BF143767
:404BC000BD4680BC704700BFA884FF1F80B485B000AF78600B46FB701346BB70BB78013B072B2BD801A252F823F000BF0D4C0000134C0000194C00001F4C0000254C00002A
:404C00002B4C0000314C0000374C00000123FB7315E00323FB7312E00723FB730FE00F23FB730CE01F23FB7309E03F23FB7306E07F23FB7303E0FF23FB7300E000BF174B0A
:404C40001B78012B15D1164B1B681B78DBB21A46FB7842FA03F35AB297F90F3013405BB2BB737B681A78BB7B5340DAB27B681A700FE00B4B1B681B78DBB21A46FB7842FAEF
:404C800003F35AB297F90F3013405BB2DAB27B681A7000BF1437BD4680BC7047A084FF1FA884FF1F80B582B000AF786074220021786804F0ACFC7B680022DA667B680022D3
:404CC0009A667B6800221A67002318460837BD4680BD00BF80B584B000AF78607B6803F11C027B681A677B6803F11C027B685A667B6800221A717B685B79002B0AD02F4BC8
:404D00001B68002B04D02D4B1B687868984704E001234EE0786800F0F3FA7B681A6F7B68DA667B689B7C002B22D07B6803F11C017B68B3F86230053B1A464FF0FF3000F08C
:404D400027FCF8600023BB607B68B3F86230053B18337A681344191D07F108030422184604F04AFCBB68FA689A4201D0072320E0786801F045FD7B681B7C032B16D801A2F7
:404D800052F823F0A54D0000954D00009D4D00009D4D0000786800F013F809E0786800F057F805E0786800F0B5F801E0022300E0002318461037BD4680BD00BF8084FF1FDA
:404DC000B0B588B002AF786000237B6136E07B685A7E1E497B6911F833309A4203D07B685B7E002B27D107F10C03184600F07CFF7B689B7C7B737B68DB7C3B737B689B7DDD
:404E0000BB730123FB737B681B7E3B747B69DB000E4A98187B68D9687B689C796B4607F11002126815461D800233120C1A70FB68224600F077FF7B6901337B617B69002B66
:404E4000C5DD00BF1837BD46B0BD00BF4085FF1FB0B588B002AF78607B681B7C032B03D17B6805221A7006E07B681B7C022B02D17B6803221A7000237B6141E07B685A7E6D
:404E800023497B6911F833309A4203D07B685B7E002B32D11E4A7B69DB0013445B68786898477B685B78002B27D107F10C03184600F01AFF7B689B7C7B737B68DB7C3B7386
:404EC0007B689B7DBB730123FB737B681B7E3B747B69DB000E4A98187B68D9687B689C796B4607F11002126815461D800233120C1A70FB68224600F015FF7B6901337B611C
:404F00007B69002BBADD00BF1837BD46B0BD00BF4085FF1F80B584B000AF78607B6801221A700023FB6009E0084AFB68DB0013445B6878689847FB680133FB60FB68002BDB
:404F4000F2DD00BF1037BD4680BD00BFAC84FF1F80B582B000AF78607B6803F120027B689A667B689A6E7B681A677B685B79002B0AD0094B1B68002B04D0074B1B687868AF
:404F8000984704E0012303E0786800F0F5F8002318460837BD4680BD7C84FF1F80B586B000AF78600023FB757B681B79012B01D10823DDE07B681B6F1A467B689B6ED31AC4
:404FC0009AB27B681A817B685B79002B03D17B681B89642B07D97B6803F11C027B685A660123FB7504E07B6803F11D027B685A667B681B6F1A467B685B6ED31A9AB27B68FD
:40500000A3F862207B689B7C002B29D07B68B3F8623003F00303C3F104033B617B681B6F3A690021184604F0F2FA7B681A6F3B691A447B681A677B68B3F862203B699BB283
:4050400013449AB27B68A3F862207B681B6F1A467B689B6ED31A9BB204339AB27B681A817B685B79002B12D07B6851221A777B6842225A777B681B891B0A9BB2DAB27B686E
:405080009A777B681B89DAB27B68DA772AE0FB7D002B19D07B6851221A777B6858225A777B681B895BB263F07F035BB2DAB27B689A777B681B89DB099BB2DBB203F07F033D
:4050C000DAB27B68DA770DE07B6851225A777B6858229A777B681B89DBB203F07F03DAB27B68DA777B689B7C002B22D07B68596E7B68B3F862301A464FF0FF3000F048FA44
:405100000346BB607B681B6F07F108010422184604F072FA7B681B6F1A1D7B681A677B681B6F1A467B685B6ED31A9AB27B68A3F862207B689A6E7B681B891946104600F0E8
:4051400069F90346FB737B681B6F591C7A681167FA7BD243D2B21A707B68B3F8623001339AB27B68A3F86220786801F01FFB002318461837BD4680BD80B584B000AF7860B7
:405180007B689A6E7B681A677B6803F170027B68DB681946104600F05BF97B6800225A747B689B7C002B02D07B6801225A740023FB737B681B7C5BB203F00F035AB2FB7BFB
:4051C000DBB25BB213435BB2DBB2FB737B68DB7C1B015BB203F010035AB2FB7BDBB25BB213435BB2DBB2FB737B68DB7D5B015BB203F020035AB2FB7BDBB25BB213435BB29B
:40520000DBB2FB737B689B7D9B015BB203F040035AB2FB7BDBB25BB213435BB2DBB2FB737B685B7CDB015AB2FB7BDBB25BB213435BB2DBB2FB737B681B6F591C7A681167D3
:40524000FA7BD2B21A707B685B7C002B16D00023FB737B689B7C5BB203F001035AB2FB7BDBB25BB213435BB2DBB2FB737B681B6F591C7A681167FA7BD2B21A707B689B7D1D
:40528000002B12D17B6803F170027B681B7E1946104600F0DDF87B6803F170027B685B7E1946104600F0D4F805E07B6800221A767B6800225A767B68DB7D002B12D17B68B0
:4052C00003F170027B689B7E1946104600F0C0F87B6803F170027B68DB7E1946104600F0B7F805E07B6800229A767B680022DA767B681A6F7B68DA6600BF1037BD4680BDF2
:4053000080B584B000AF78607B689A6E7B681A677B687033184600F0DFF802467B68DA607B681B6F591C7A6811671B78FB73FB7BDBB203F00F03DAB27B681A74FB7BDBB2D9
:405340001B09DBB203F00103DAB27B68DA74FB7BDBB25B09DBB203F00103DAB27B68DA75FB7BDBB29B09DBB203F00103DAB27B689A75FB7BDBB2DB09DAB27B685A747B686F
:405380005B7C002B0DD07B681B6F591C7A6811671B78FB73FB7BDBB203F00103DAB27B689A747B689B7D002B11D17B687033184600F092F80346DAB27B681A767B68703326
:4053C000184600F089F80346DAB27B685A767B68DB7D002B11D17B687033184600F07CF80346DAB27B689A767B687033184600F073F80346DAB27B68DA767B68DB7C002B52
:4054000004D07B681B6F9A1C7B681A6700BF1037BD4680BD80B485B000AF786039600023FB720023FB6009E07B685A1C7A601A78FB7A1344FB72FB680133FB60FA683B6856
:405440009A42F1D3FB7A18461437BD4680BC704780B485B000AF786039600023FB6033E0FA681346DB009B1A3A6822FA03F3DBB203F07F03FB72FB685A1C1346DB009B1A2E
:405480003A6822FA03F3DBB203F07F03BB72BB7A002B0CD07B681B68FA7A62F07F02D2B21A707B681B685A1C7B681A6009E07B681B68FA7A1A707B681B685A1C7B681A6053
:4054C00005E0FB680133FB60FB68032BC8DD00BF1437BD4680BC704780B485B000AF78600023FB600023BB6022E07B681B681B7803F07F01BA681346DB009B1A01FA03F389
:40550000FA681343FB607B681B681B785BB2002B05DA7B681B685A1C7B681A6005E07B681B685A1C7B681A6005E0BB680133BB60BB68032BD9DDFB6818461437BD4680BC48
:40554000704700BF80B485B000AF0346FB71FB791B06BB600023FB730EE0BB68002B05DABB685A00094B5340BB6002E0BB685B00BB60FB7B0133FB73FB7B072BEDD9BB68E9
:4055800018461437BD4680BC704700BFB71DC10480B586B000AFF860B9607A60FB683B6100237B6115E03B691B0E5AB2B9687B690B441B785BB253405BB2DBB21846FFF74E
:4055C000C1FF02463B691B0253403B617B6901337B617A697B689A42E5D33B6918461837BD4680BD80B485B000AFF8600B467A60FB72FB687A685A60FB68FA7A1A7000BFAD
:405600001437BD4680BC704790B585B000AF03460A46FB711346BB71FB79B94A8C2101FB03F313441B78072B00F2578301A252F823F000BF55560000D3560000815700000D
:405640007F58000089590000FD590000D95A0000B15B0000BB79512B2AD1FB79A84A8C2101FB03F31344023301221A80FB79A44A8C2101FB03F313442033BA791A70FB7907
:40568000FA798C2101FB02F219329D490A4408329B498C2000FB03F30B4474331A60FB79974A8C2101FB03F3134401221A7014E3FB7993498C2202FB03F20A4484321268D3
:4056C00001328F498C2000FB03F30B4484331A6003E3FA798A498C2303FB02F30B4474331B68591C86488C2404FB02F2024474321160BA791A70FB7981498C2202FB03F25D
:405700000A4402321288013290B27D4A8C2101FB03F31344023302461A80BB79582B11D1FB79774A8C2101FB03F31344093300221A70FB79724A8C2101FB03F3134402220E
:405740001A70CAE2BB79422B11D1FB796C4A8C2101FB03F31344093301221A70FB79684A8C2101FB03F3134404221A70B5E2FB79634A8C2101FB03F3134400221A70ACE2B3
:40578000FA795F498C2303FB02F30B4474331B68591C5B488C2404FB02F2024474321160BA791A70FB7956498C2202FB03F20A4402321288013290B2514A8C2101FB03F360
:4057C0001344023302461A8097F90630002B16DAFB79BA7992B222F0800290B2484A8C2101FB03F313440C3302461A80FB79444A8C2101FB03F3134403221A7066E2FB798D
:40580000BA7990B23E4A8C2101FB03F313440C3302461A80FB79FA7939498C2000FB02F20A447432126836498C2000FB03F30B446C331A60FB79324A8C2101FB03F3134478
:40584000063300221A70FB792D4A8C2101FB03F3134406221A70FB79294A8C2101FB03F313440C331B88402B40F23082FB79244A8C2101FB03F3134400221A7026E2FA79A3
:405880001F498C2303FB02F30B4474331B68591C1B488C2404FB02F2024474321160BA791A70FB7916498C2202FB03F20A4402321288013290B2124A8C2101FB03F313447A
:4058C000023302461A80FB79FA790D498C2000FB02F20A447432126809498C2000FB03F30B446C331A6097F90630002B0ADAFB79034A8C2101FB03F3134400221A702FE0AD
:40590000B484FF1FFA79FB79A8498C2000FB03F30B440C331B8819B2BB79DB011BB223F4804323F07F031BB20B431BB298B29F498C2303FB02F30B440C3302461A80FB79B4
:405940009A4A8C2101FB03F31344063300221A70FB79964A8C2101FB03F3134406221A70FB79924A8C2101FB03F313440C331B88402B40F2AD81FB798C4A8C2101FB03F390
:40598000134400221A70A3E1FA7988498C2303FB02F30B4474331B68591C84488C2404FB02F2024474321160BA791A70FB797F498C2202FB03F20A4402321288013290B296
:4059C0007A4A8C2101FB03F31344023302461A80FB79BA7992B2120290B2744A8C2101FB03F313440C3302461A80FB796F4A8C2101FB03F3134405221A706EE1FA796B4976
:405A00008C2303FB02F30B4474331B68591C67488C2404FB02F2024474321160BA791A70FB7962498C2202FB03F20A4402321288013290B25D4A8C2101FB03F31344023348
:405A400002461A80FB79FA7958498C2000FB02F20A447432126855498C2000FB03F30B446C331A60FB79FA7950498C2000FB02F20A440C321188BA7992B20A4390B24B4A35
:405A80008C2101FB03F313440C3302461A80FB79464A8C2101FB03F31344063300221A70FB79424A8C2101FB03F3134406221A70FB793E4A8C2101FB03F313440C331B8874
:405AC000402B40F20781FB79384A8C2101FB03F3134400221A70FDE0FA7934498C2303FB02F30B4474331B68591C30488C2404FB02F2024474321160BA791A70FB792B496F
:405B00008C2202FB03F20A4402321288013290B2264A8C2101FB03F31344023302461A80FB79FA7921498C2000FB02F20A4406321178BA790A44D0B21C4A8C2101FB03F3B4
:405B40001344063302461A70FB79184A8C2101FB03F313440C331B881846FB79134A8C2101FB03F3134402331B881C46FB790F4A8C2101FB03F313446C331B681946FB79FE
:405B80008C2202FB03F31833084A13440833CB1AE31A984200F3A080FB79044A8C2101FB03F3134407221A7096E000BFB484FF1FFA794C498C2303FB02F30B4474331B682D
:405BC000591C48488C2404FB02F2024474321160BA791A70FB7943498C2202FB03F20A4402321288013290B23E4A8C2101FB03F31344023302461A80BB79FB73FB79394A84
:405C00008C2101FB03F3134400221A70FB79354A8C2101FB03F313440A33FA791A70FB7BFA7930498C2000FB02F20A44063212781344FF2B39D1FB792A4A8C2101FB03F380
:405C40001344783300221A60FC7900F0E3FD0146244A8C2303FB04F3134488331960FB79204A8C2101FB03F313447C3301221A70FB79FA791B498C2000FB02F20A440232C5
:405C80001088184A8C2101FB03F31344663302461A80FB798C2202FB03F3124A134404331846FFF717F8012318E0FB790D498C2202FB03F20A4480321268013209498C20E6
:405CC00000FB03F30B4480331A6006E000BF04E000BF02E000BF00E000BF002318461437BD4690BDB484FF1F80B483B000AF78607B6800229A707B680022DA707B680022EC
:405D00009A717B6800221A717B6800225A717B6800221A707B6800225A7000BF0C37BD4680BC704782B080B5A2B000AFF860B960C7F894301346FB7107F114031846FEF71F
:405D4000B1FFFB79BB76BB683B62002387F8243097F8983087F82D3097F8993087F82E3097F89A3087F82F30FB681B7887F82C3097F8943087F8273097F8953087F8263056
:405D800007F114031846FFF7E3F800233B75FB685B6807F11402104698470346C7F8843007F114031846FFF7F9F8034618468837BD46BDE8804002B0704700BF82B080B5FC
:405DC000A2B000AFF860B960C7F894301346FB7107F114031846FEF765FFFB79BB76BB683B62012387F8243097F8983087F82D30002387F82E3097F89A3087F82F30FB68FA
:405E00001B7887F82C3097F8943087F8273097F8953087F8263007F114031846FFF798F807F114031846FFF7B9F8034618468837BD46BDE8804002B0704700BF82B080B53E
:405E4000A2B000AFF860B960C7F894301346FB7107F114031846FEF725FFFB79BB76BB683B62022387F8243097F8983087F82D3097F8993087F82E3097F89A3087F82F30E6
:405E8000FB681B7887F82C3097F8943087F8273097F8953087F8263007F114031846FFF757F802233B75FB685B6807F11402104698470346C7F8843007F114031846FFF7B0
:405EC0006DF8034618468837BD46BDE8804002B0704700BF80B500AF1A4A0A211A48FFF781FB1A4B00221A75184B00221A77174B002283F82420154B002283F82C20134BEA
:405F0000002283F83420114B002283F83C200F4B002283F841200D4B002283F840200B4B002283F84220094B002283F84320074B002283F84420054B002283F8452000BF61
:405F400080BD00BF955F0000AC84FF1FD080FF1F80B584B002AF3B461846FFF7C5FE02233B7100237B710023BB716B463A1D1268114619800233120C1A703B68002240F24E
:405F800015110348FFF75AFF00BF0837BD4680BDAC84FF1F80B592B002AF78607B681B78022B07D0042B02D0012B06D008E0FEF773FA05E0FEF770FA02E0FEF779FA00BF81
:405FC0007B68DB6E1846FEF741FA7B68DB6840F21512934205D040F21F12934200F01482B4E37B681B78022B40F0B4839C4B1B78002B06D107F1300303211846FEF75AFCEB
:4060000006E007F130000023FF220321FEF770FC944B1B7D012B08D0022B0AD0002B00D00BE0002387F83F3007E0012387F83F3003E0022387F83F3000BF8A4B1B7F012BC7
:4060400008D0022B0AD0002B00D00BE0002387F83E3007E0042387F83E3003E0082387F83E3000BF7F4B93F82430012B08D0022B0AD0002B00D00BE0002387F83D3007E006
:40608000102387F83D3003E0202387F83D3000BF97F83F2097F83E301343DAB297F83D301343DBB287F830306E4B5B7B002B07D097F8303063F07F03DBB287F8303006E0BE
:4060C00097F8303003F07F03DBB287F83030654B1B7B002B07D097F8303043F04003DBB287F8303006E097F8303023F04003DBB287F830305A4B1B78002B06D107F13003BB
:4061000001211846FEF7D6FB06E007F130000023FF220121FEF7ECFB514B1B78002B05D1514A01215148FEF7CFF907E0504B0093504B4D4A01214D48FEF72AFA484B1B7849
:40614000002B05D1484A01214B48FEF7BDF907E0474B0093474B444A01214748FEF718FA3F4B1B78002B05D13F4A01214348FEF7ABF907E03E4B00933E4B3B4A01213F48A1
:40618000FEF706FA0023BB83354B1B78002B06D107F11C0301211846FEF7B2FA07E007F11C004FF00003364A0121FEF7D5FA2D4B93F82C30012B08D0022B0AD0002B00D034
:4061C0000BE0002387F83C3007E0102387F83C3003E0202387F83C3000BF224B93F83430012B08D0022B0AD0002B00D00BE0002387F83B3007E0042387F83B3003E0082371
:4062000087F83B3000BF174B93F83C30012B08D0022B0AD0002B00D00BE0002387F83A3007E0012387F83A3003E0022387F83A3000BF97F83C2097F83B301343DAB297F865
:406240003A301343DBB287F83030054B1B78002B18D107F1300301211846FEF72BFB18E0A084FF1FD080FF1F00FEFF46F080FF1F0001003800FEFFC6E880FF1FE080FF1FBC
:4062800000FF7F4707F130000023FF220121FEF72FFBAF4B9B6AAF49184602F05FFF0346AC49184602F052FE0346184603F058F903469BB23B81A64B1B6BA649184602F0F6
:4062C0004DFF0346A349184602F040FE0346184603F046F903469BB27B819D4B9B6B9D49184602F03BFF03469A49184602F02EFE0346184603F034F903469BB2BB81964BA4
:406300001B78002B06D107F1080303211846FEF753FB07E007F1080000234FF6FF720321FEF774FB8C4B1B78002B05D1012200218A48FEF7E7FB04E0012200218748FEF774
:4063400045FC854B1B78002B05D1012201218448FEF7D8FB04E0012201218148FEF736FC7D4B1B78002B05D1012204217D48FEF7C9FB04E0012204217A48FEF727FC764B9D
:406380001B78002B05D1012205217748FEF7BAFB04E0012205217448FEF718FC6E4B1B78002B05D1012206217048FEF7ABFB04E0012206216D48FEF709FC674B1B78002B6E
:4063C00005D1012207216A48FEF79CFB04E0012207216748FEF7FAFBFEF746F8002387F830305D4B1B78002B06D107F1300301211846FEF75FFAB0E107F130000023FF220E
:406400000121FEF775FAA8E17B681B78012B40F0A381514B1B78002B06D107F1300303211846FEF747FA06E007F130000023FF220321FEF75DFA484B1B78002B06D107F161
:40644000300302211846FEF735FA06E007F130000023FF220221FEF74BFA97F83030184602F024FE03464349184602F077FE03464149184602F06AFD03461A46344B9A64EA
:4064800097F83130184602F011FE03463949184602F064FE03463849184602F057FD03461A462B4BDA642A4B9B6C3349184602F0E9FF0346002B03D0254B4FF000029A641F
:4064C000234BDB6C2C49184602F0DCFF0346002B03D01F4B4FF00002DA641F4B1B78002B04D101212548FEF7E5F905E00023FF2201212248FEF7FCF9174B1B78002B04D124
:4065000001211F48FEF7D6F905E00023FF2201211B48FEF7EDF9104B1B78002B05D10D4A01211848FDF7D0FF07E0174B0093174B084A01211348FEF72BF8074B1B78002BC5
:4065400028D1044A01211248FDF7BEFF2AE000BFD080FF1F00FEFF46A084FF1F1081FF1F1181FF1F1281FF1F1381FF1F1481FF1F1581FF1FCDCCCC3D000020412081FF1F00
:406580002181FF1F3081FF1F0001003800FEFFC62481FF1F744B0093744B754A01217548FDF7F6FF744B1B78002B05D1704A01217248FDF789FF07E06B4B00936B4B6C4AF4
:4065C00001216E48FDF7E4FF6B4B1B78002B05D1674A01216A48FDF777FF07E0624B0093624B634A01216648FDF7D2FF624B1B78002B06D107F1300302211846FEF75AF967
:4066000006E007F130000023FF220221FEF770F9594B1B78002B05D1012200215948FEF771FA04E0012200215648FEF7CFFA524B1B78002B05D1012201215348FEF762FA24
:4066400004E0012201215048FEF7C0FA4A4B1B78002B05D1012202214C48FEF753FA04E0012202214948FEF7B1FAFDF7FDFE424B1B78002B05D1012200214548FEF742FAF8
:4066800004E0012200214248FEF7A0FAFDF7ECFE394B1B78002B04D101213E48FEF70AF905E00023FF2201213A48FEF721F9324B1B78002B04D101213748FEF7FBF805E0AA
:4066C0000023FF2201213448FEF712F92A4B1B78002B04D101213148FEF7ECF805E00023FF2201212D48FEF703F9234B1B78002B04D101212A48FEF75FF906E000234FF65B
:40670000FF7201212648FEF781F91B4B1B78002B04D101212348FEF74FF906E000234FF6FF7201211F48FEF771F9134B1B78002B04D101211C48FEF73FF90EE000234FF685
:40674000FF7201211848FEF761F906E07B6801221A7102E000BF00E000BFFDF793FE034618464037BD4680BD0001003800FEFFC600FEFF462481FF1FA084FF1F2881FF1F32
:406780002C81FF1F3E81FF1F3F81FF1F4081FF1F4281FF1F3A81FF1F3B81FF1F3C81FF1F3481FF1F3681FF1F3881FF1F80B584B000AF78607B689B79002B00D01BE07B68C6
:4067C0005A6E7B681A670023FB600CE07B681B6F591C7A6811671B781946012000F022F8FB680133FB607B68B3F862301A46FB689A42EBDC00BF00BF1037BD4680BD00BF6E
:4068000080B483B000AF786000BF0C37BD4680BC704700BF80B400AF00231846BD4680BC704700BF80B485B000AF03460A46FB711346BB71FB79224AD35CDBB25A1C214B7A
:406840001340002B03DA013B63F03F030133FB60FB791D4AD35CDBB21A46FB689A4228D0FB79FA7916498A5CD2B21146174A9B0113440B44BA791A70FB79FA68D1B2104A15
:40688000D154FB790E4AD35CDBB25A1C0D4B1340002B03DA013B63F03F0301331946FB79094AD35CDBB2994201D1002302E0012300E0002318461437BD4680BC704700BFE4
:4068C0004C85FF1F3F0000804885FF1F5085FF1F80B483B000AF03463960FB71FB79184AD35CDAB2FB791749CB5CDBB29A4220D0FB79FA7913498A5CD2B21146124A9B01C7
:4069000013440B441B78DAB23B681A70FA79FB790C49CB5CDBB2591C0C4B0B40002B03DA013B63F03F030133D9B2064B9954012300E0002318460C37BD4680BC704700BF0B
:406940004C85FF1F4885FF1F5085FF1F3F00008080B582B000AF786039603A680021786802F055FE00BF0837BD4680BD80B584B000AFF860B9607A607A68B968F86802F026
:406980003BFE00BF1037BD4680BD00BF80B483B000AF0346FB71FEE780B487B000AF7860396000233B6100237B6127E07B699B007A6813441B68BB60BB68FB73BB6823F07C
:4069C000FF03BB6014E03B695B003A6813441B781A46BB68134419463B695B003A6813445B780B703B6901333B61FB7B013BFB73FB7B002BE7D17B6901337B617B691D2B6F
:406A0000D4D900BF1C37BD4680BC704780B582B000AF424B00221A80414B50221A70414B19221A80404B18221A70404B1A221A803F4B18221A7004223E493F48FFF796FF9C
:406A40003E4B02221A704FF0402308221A703C4B03221A703B4B3C4A1278D2B21A703B4B08221A803A4B41F251221A800023FB7019237B6014E0FB785B00DAB2354B1B789A
:406A8000DBB203F00103DBB21343DBB203F00303FB704FF4F07001F07BFC7B68013B7B607B68002B02D0FB78032BE4D17B68002B02D10320FFF76AFF274B4FF480721A809F
:406AC000254B07221A70254B00221A70244B48221A70214B00221A70224B02221A70224B04221A70214A214B1B78DBB243F00703DBB213701E4A1E4B1B78DBB243F0010338
:406B0000DBB213701B4A1B4B1B78DBB263F07F03DBB2137000BF0837BD4680BD80400040824000408440004086400040884000408A40004050060048004100400043004077
:406B400000420040A146004008010049224200402042004025420040044000400640004008400040014000400B400040A2430040A1430040A043004080B483B000AF0B4BB7
:406B80001B78FB710A4AFB7903F00703DBB21370084AFB791B09DBB21370074B44221A7000BF0C37BD4680BC704700BFCF0100496E5800406F5800407658004080B483B073
:406BC00000AF0346FB71FB79012B24D8FA79FB791344FB71FB79124A52F82330FA79104951F822201178FA790E48825C0A43D2B21A70FB790133FB71FB79094A52F8233024
:406C0000FA79074951F822201178FA790548825C0A43D2B21A7000BF0C37BD4680BC7047E4B40000F4B4000080B483B000AF0346FB71FB79012B28D8FA79FB791344FB7137
:406C4000FB79144A52F82330FA79124951F822201178FA791048825CD243D2B20A40D2B21A70FB790133FB71FB790A4A52F82330FA79084951F822201178FA790648825C39
:406C8000D243D2B20A40D2B21A7000BF0C37BD4680BC7047E4B40000F4B4000080B483B000AF0346FB71FB79012B0ED8FB79094A52F82330FA79074951F822201178FA79AC
:406CC0000548825C0A43D2B21A7000BF0C37BD4680BC7047F8B4000000B5000080B483B000AF0346FB71FB79012B10D8FB790A4A52F82330FA79084951F822201178FA79B2
:406D00000648825CD243D2B20A40D2B21A7000BF0C37BD4680BC7047F8B4000000B5000080B586B000AF72B6514A514B1B78DBB243F00403DBB213700023FB7513E0FA7DFD
:406D400013465B0013445B004A4A13443B613B691A683B699B889BB219461046FFF7F8FDFB7D0133FB75FB7D062BE8D90023FB751CE0FA7D13469B0013445B003E4A13443B
:406D8000FB60FB681B68BB60FB685B687B60FB681A7A5B7A1B0213437B807B881A467968B868FFF7E3FDFB7D0133FB75FB7D002BDFD032494FF09040FFF7EEFD304B0A2282
:406DC0001A70304A2F4B1B78DBB243F00203DBB213702D4A2C4B1B78DBB243F00203DBB213702A4A294B1B78DBB243F04003DBB21370274A264B1B78DBB243F01003DBB2F4
:406E00001370082223492448FFF7B0FD0A2223492348FFF7ABFD0A2222492348FFF7A6FD082222492248FFF7A1FD082221492248FFF79CFD214A214B1B78DBB243F0080399
:406E4000DBB213701E4B60221A70FFF7DFFD1C4B80221A701B4B01221A70FFF78DFE0E220A491948FFF782FD00BF1837BD4680BDE846004004B5000030B500007800004821
:406E8000835800400350014013500140A0430040C2430040200600480251004028060048C051004034060048F051004040060048125100404806004822510040224300402D
:406EC0000048004004000840B043004080B500AF02F066FB03461B680C2B00D1FEE7FEE780B584B000AF78600F4B1A687B6813441A460E4BD31A802B09DC0B4B1B68FB6046
:406F0000094B1A687B681344074A136007E002F047FB02460C2313604FF0FF33FB60FB6818461037BD4680BD4481FF1FD885FF1F80B586B000AF224B7B61224B3B61204B2F
:406F40007B6135E03B691B68FB603B695B68BB603B699B683B6000237B600CE0FB681A68BB681A60BB680433BB60FB680433FB607B6804337B607A683B689A42EED13B694B
:406F8000DB683B6000237B6008E0BB6800221A60BB680433BB607B6804337B607A683B689A42F2D13B6910333B617B69013B7B617B69002BC6D102F0F9FAFBF70BF8FEE7DC
:406FC00001000000C4B5000080B582B000AF184B184A1A60184A184B1B6843F40073136000237B600FE07B68032B04D8134A7B6852F8233000E0124B12497A6841F82230A1
:407000007B6801337B607B682F2BECD90E4B1B78DAB20E4B1A700E4B0A4A1A60FFF780FE0C4B00221A6000BF0837BD4680BD00BF0CED00E00004FA0514ED00E000000000B9
:40704000CD6E00000080FF1FBC760040C480FF1F08ED00E0C080FF1F80B582B002AF324B01221A70314B00221A70102000F0CAFF102001F0ADF807211D2001F055F92C4BFC
:4070800004221A702B4B00221A702B4B00221A702A4A2A4B1B78DBB243F01803DBB21370274B00221A70274B00221A70264B00221A70264B0A221A70254B00221A70254B69
:4070C00000221A70244B12221A70244B13221A70234B00221A70234B14221A700123009308234FF400424FF40041032000F034FA1D4A0D4B1B78DBB2013B1C499B000B44AB
:407100009B7813701A4A084B1B78DBB2013B174931F823301380044B1B78DBB2184600F069F900BFBD4680BD4881FF1F8484FF1F96580040975800409E580040075B0040D7
:4071400093580040885B0040895B004080580040815800408358004088580040895800408D580040014E00400E4E00408C84FF1F0C4E004080B582B000AF01F028F9034687
:40718000FB71444B1B78BB71434A434B1B78DBB243F00103DBB213703F4A3F4B1B78DBB243F01003DBB213703C4A3C4B1B78DBB243F00103DBB21370384A384B1B78DBB271
:4071C00043F01003DBB21370354A354B1B78DBB243F00203DBB21370324A324B1B78DBB243F00203DBB213702F4A2F4B1B78DBB243F00303DBB21370032001F059F8284A3E
:40720000274B1B78DBB223F00203DBB21370254A244B1B78DBB223F00203DBB21370234A224B1B78DBB243F00603DBB21370204B7A221A701F4A1F4B1B78DBB243F001036D
