:400000000080002011000000451000004510000080B500AF024A034B1B68136001F044F8BC760040FA46004010B5054C237833B9044B13B10448AFF300800123237010BD30
:400040005081FF1F00000000782F0000084B10B51BB108490848AFF300800848036803B910BD074B002BFBD0BDE81040184700BF000000005481FF1F782F0000C880FF1FA4
:400080000000000080B582B000AF03460A46FB711346BB71FA79BB799A422AD0BB79012B09D1164801F0AEFC154801F0ABFC154801F0A8FC1EE0BB79022B06D1124801F088
:4000C000A1FC124801F09EFC14E0BB79032B06D10F4801F097FC0F4801F094FC0AE0BB79002B07D1FB79002B04D00B4801F08AFC00E000BF0837BD4680BD00BF7C2F0000B8
:400100008C2F0000E42F000020300000643000009C300000B4300000E030000080B5A8B002AF002387F897300023C7F890300023C7F88C30002387F89630002387F8953097
:4001400020E097F895305B0007F198021344002223F8942C97F895305B0007F198021344FF2223F8902C97F8953004335B0007F198021344802223F8942C97F89530013386
:4001800087F8953097F89530012BDAD900233B740123C7F8883062B601F096FB5F4801F031FC5F4801F02EFC3B1DD7F88810184600F090FB00F0C8F801F0E8FB034687F856
:4001C000873097F88730732B03D097F88730532B03D1012387F897301DE097F88730782B03D097F88730582B08D1002387F8973097F88730184600F0E3FB0CE097F8873027
:40020000632B03D097F88730432B04D197F88730184600F0D5FB00F00BFC034687F8863097F8862097F8963011461846FFF72AFF97F8863087F8963007F11C03184600F0AE
:40024000EBF80346002BB7D007F11C03184600F093FBB7F91C30184600F014F9C7F89000B7F91E30184600F00DF9C7F88C0007F11403184600F0F0FB97F89730002B2BD0A6
:400280007B692849184602F027F80346184602F0E9F90346A7F88430BB692249184602F01BF80346184602F0DDF90346A7F88230B7F98430B7F9822007F120000192009374
:4002C000D7F88C30D7F89020174902F031FA07F12003184601F096FB00F0AAFB0346022B7FF46AAF00F0AEFB0346A7F88030B7F8803003F007039BB2002B7FF45DAFB7F8B2
:40030000802007F120002023084902F011FA07F12003184601F076FB4EE700BFF03000000031000000007A44403100007031000080B500AF01F08CFE024B01221A7000BF6C
:4003400080BD00BF6C81FF1F80B582B000AF62B601F078F801F0F8FD114801F02BFE114B00221A70104B00221A70104B00221A700023FB7107E0FB790D4A002122F81310D9
:40038000FB790133FB71FB79012BF4D9002001F0F5FD01F06FF800BF0837BD4680BD00BF310300006E81FF1F6C81FF1F6D81FF1F7081FF1F98B500AF01F06CF8134B1B78BB
:4003C000DBB21C4601F076F803461A46104B23F814200E4B1B78DBB2012B06D10D4B01221A700A4B00221A7006E0084B1B78DBB20133DAB2054B1A70044B1B78DBB218461A
:4004000001F0BCFD01F036F800BF98BD6E81FF1F7081FF1F6D81FF1F80B584B000AF7860154B1B78DBB2002B04D0134B00221A70FFF7C0FF114B1B78DBB2002B17D00F4BA1
:4004400000221A700023FB730CE0FB7B5B007A681344FA7B0A4931F8122012B21A80FB7B0133FB73FB7B012BEFD9012300E0002318461037BD4680BD6C81FF1F6D81FF1F23
:400480007081FF1F80B582B000AF0346FB80B7F90630184601F04CF8034618460837BD4680BD00BF90B585B000AF0446084611461A462346FB800346BB800B467B80134670
:4004C0003B80B7F90620B7F904309A4201DABB88FB80B7F90620B7F900309A4201DD3B88FB803A887B88D31A9BB2FB817A88BB88D31A9BB2BB81B7F90E30002B01DC012314
:40050000FB81B7F90C30002B01DC0123BB81B7F90620B7F902309A4214DBB7F90620B7F90230D31A184601F083FE0446B7F90E30184601F07DFE03461946204601F080FF73
:40054000034613E0B7F90620B7F90230D31A184601F06EFE0446B7F90C30184601F068FE03461946204601F06BFF034618461437BD4690BD90B583B000AF786039603B680E
:4005800083F000437968184602F044F80346002B09D03968786802F03DF80346002B02D04FF000032AE04FF00001786802F050F80346002B11D03968786801F083FD0346A7
:4005C0001C4639684FF07E5001F07CFD03461946204601F035FF034610E03968786801F073FD03461C4639684FF07E5001F06AFD03461946204601F023FF034618460C3777
:40060000BD4690BD80B485B000AF78600023FB7331E0FB7B7A685B001344B3F904309AB2F97B7B6833F911309BB2D31A9BB2BB81B7F90C30132B01DC002320E0FA7B7B6899
:4006400033F91220F97B7B68043133F911309A420CDAFA7B7B68043233F91220FB7B79685B000B44B3F904309A4201DB002306E0FB7B0133FB73FB7B012BCAD901231846F4
:400680001437BD4680BC704790B484B000AF78601B4A1C4B14460FCB07C423800023FB7323E0FB7BFA7B520079680A44B2F90010134A22F81310FB7BFA7B520079680A44CB
:4006C000B2F900100E4A5B0013440A469A80FB7BFA7B520079680A44B2F90010084A043322F81310FB7B0133FB73FB7B012BD8D9054B01221A7000BF1037BD4690BC70476A
:400700009481FF1F8481FF1FA281FF1F80B485B000AF7860214B1B78012B39D10023FB7332E0FB7B5B007A681344B3F90020FB7B1B4931F913309A4209DAFB7BFA7B520041
:4007400079680A44B2F90010154A22F81310FB7B5B007A681344B3F90020FB7B10495B000B44B3F904309A420BDDFB7BFA7B520079680A44B2F90010094A5B0013440A4684
:400780009A80FB7B0133FB73FB7B012BC9D900E000BF1437BD4680BC704700BFA281FF1F9481FF1F80B483B000AF0023FB7107E0FB790A4A002142F82310FB790133FB71BA
:4007C000FB79012BF4D9064B00221A80054B02221A7000BF0C37BD4680BC7047AC81FF1FB481FF1FA281FF1F80B485B000AF7860234B1B78022B3DD10023FB7311E0FB7B86
:40080000FA7B204951F82220F97B490078680144B1F900100A441B4941F82320FB7B0133FB73FB7B012BEAD9174B1B8801339AB2154B1A80144B1B881F2B1CD90023BB73F7
:4008400011E0BA7BBB7B0F4951F82330002B00DA1F335B1118B20D49131D024621F81320BB7B0133BB73BB7B012BEAD9044B03221A7000E000BF1437BD4680BC704700BF27
:40088000A281FF1FAC81FF1FB481FF1F9481FF1F98B500AF0B48FFF7B5FE0346002B03D10948FFF7F1FE0BE0084A064B14460FCB07C42380054B01221A73054B00221A7084
:4008C00098BD00BF9481FF1FA481FF1F8481FF1FA281FF1F90B484B000AF786039601F4B7A68144620686168A26807C3A2891A801B4B7A68144620686168A26807C3A289F0
:400900001A80174B00221A73164B7A68144620686168A26807C3A2891A80134A3B6813600023FB730BE0FB7BF97B7A68043132F911100E4A22F81310FB7B0133FB73FB7B26
:40094000012BF0D90A4B00221A700A4B00221A8000BF1037BD4690BC704700BF7481FF1F8481FF1F9481FF1FA881FF1FA481FF1FA281FF1FB481FF1F80B584B000AF78602E
:400980000023FB730CE0FB7BFA7B520079680A44B2F90010094A22F81310FB7B0133FB73FB7B012BEFD97868FFF7B0FE7868FFF71BFF00BF1037BD4680BD00BFA481FF1FC5
:4009C00080B582B000AF0346FB71FB79782B02D0FB79582B03D1144B00221A7020E0FB79632B02D0FB79432B19D10F4B1B78002B03D10E48FFF748FE12E00B4B1B78012B48
:400A000002D1FFF7CFFE0BE0074B1B78022B07D0054B1B78032B03D1FFF73AFF00E000BF0837BD4680BD00BFA281FF1FA481FF1F80B400AF024B1B781846BD4680BC7047C0
:400A4000A281FF1F80B400AF024B1B881846BD4680BC7047B481FF1F90B587B000AF7860224B7B612248FFF7CDFD0346002B01D01F4B7B610023FB7430E0FB7C1D4A32F90F
:400A80001300FA7C7B6933F91210FA7C7B69043233F91240FB7C7A695B001344B3F904302246FFF7FFFCF8601349F868FFF762FDF860124B1A68FB7C22FA03F303F0010308
:400AC000002B03D0FB6883F00043FB60FA7C7B68F96843F82210FB7C0133FB74FB7C012BCBD900BF1C37BD4690BD00BF7481FF1F8481FF1FA481FF1FCDCC4C3DA881FF1FF9
:400B000080B582B000AF786039603A680021786801F005FE00BF0837BD4680BD80B584B000AFF860B9607A607A68B968F86801F0EBFD00BF1037BD4680BD00BF80B483B04E
:400B400000AF0346FB71FEE780B487B000AF7860396000233B6100237B6127E07B699B007A6813441B68BB60BB68FB73BB6823F0FF03BB6014E03B695B003A6813441B7823
:400B80001A46BB68134419463B695B003A6813445B780B703B6901333B61FB7B013BFB73FB7B002BE7D17B6901337B617B69152BD4D900BF1C37BD4680BC704780B582B095
:400BC00000AF3F4B00221A803E4B50221A703E4B19221A803D4B18221A7004223C493D48FFF79CFF3C4B02221A704FF0402308221A703A4B03221A70394B3A4A1278D2B23B
:400C00001A70394B08221A80384B41F251221A800023FB7019237B6014E0FB785B00DAB2334B1B78DBB203F00103DBB21343DBB203F00303FB704FF4F07001F015FA7B683D
:400C4000013B7B607B68002B02D0FB78032BE4D17B68002B02D10320FFF770FF254B4FF480721A80234B07221A70234B00221A70224B48221A701F4B00221A70204B02223E
:400C80001A70204B04221A701F4A1F4B1B78DBB243F00303DBB213701C4A1C4B1B78DBB243F00103DBB21370194A194B1B78DBB263F07F03DBB2137000BF0837BD4680BD15
:400CC0008040004082400040844000408640004030030048004100400043004000420040A146004008010049224200402042004025420040044000400640004008400040EF
:400D0000014000400B400040A2430040A1430040A043004080B483B000AF0B4B1B78FB710A4AFB7903F00703DBB21370084AFB791B09DBB21370074B44221A7000BF0C37BD
:400D4000BD4680BC704700BFCF0100496E5800406F5800407658004080B483B000AF0346FB71FB79012B24D8FA79FB791344FB71FB79124A52F82330FA79104951F82220B5
:400D80001178FA790E48825C0A43D2B21A70FB790133FB71FB79094A52F82330FA79074951F822201178FA790548825C0A43D2B21A7000BF0C37BD4680BC704788310000AF
:400DC0009831000080B483B000AF0346FB71FB79012B28D8FA79FB791344FB71FB79144A52F82330FA79124951F822201178FA791048825CD243D2B20A40D2B21A70FB79B6
:400E00000133FB71FB790A4A52F82330FA79084951F822201178FA790648825CD243D2B20A40D2B21A7000BF0C37BD4680BC7047883100009831000080B483B000AF03466C
:400E4000FB71FB79012B0ED8FB79094A52F82330FA79074951F822201178FA790548825C0A43D2B21A7000BF0C37BD4680BC70479C310000A431000080B483B000AF034653
:400E8000FB71FB79012B10D8FB790A4A52F82330FA79084951F822201178FA790648825CD243D2B20A40D2B21A7000BF0C37BD4680BC70479C310000A431000080B586B06C
:400EC00000AF72B64C4A4C4B1B78DBB243F00403DBB213700023FB7513E0FA7D13465B0013445B00454A13443B613B691A683B699B889BB219461046FFF702FEFB7D01330E
:400F0000FB75FB7D072BE8D90023FB751CE0FA7D13469B0013445B00394A1344FB60FB681B68BB60FB685B687B60FB681A7A5B7A1B0213437B807B881A467968B868FFF75F
:400F4000EDFDFB7D0133FB75FB7D002BDFD02D494FF09040FFF7F8FD2B4B0A221A702B4A2A4B1B78DBB243F00203DBB21370284A274B1B78DBB243F00203DBB21370254A70
:400F8000244B1B78DBB243F04003DBB21370224A214B1B78DBB243F01003DBB2137008221E491F48FFF7BAFD0A221E491E48FFF7B5FD08221D491E48FFF7B0FD1D4A1D4B20
:400FC0001B78DBB243F00803DBB213701A4B60221A70FFF7F3FD184B80221A70174B01221A70FFF797FE0E220A491548FFF796FD00BF1837BD4680BDE8460040A831000005
:40100000D831000058000048835800400350014013500140A0430040C243004014030048025100401C030048C0510040280300481251004022430040004800400400084013
:40104000B043004080B500AF01F032FB03461B680C2B00D1FEE7FEE780B584B000AF78600F4B1A687B6813441A460E4BD31A802B09DC0B4B1B68FB60094B1A687B6813441D
:40108000074A136007E001F013FB02460C2313604FF0FF33FB60FB6818461037BD4680BDCC80FF1FD881FF1F80B586B000AF224B7B61224B3B61204B7B6135E03B691B68B8
:4010C000FB603B695B68BB603B699B683B6000237B600CE0FB681A68BB681A60BB680433BB60FB680433FB607B6804337B607A683B689A42EED13B69DB683B6000237B6066
:4011000008E0BB6800221A60BB680433BB607B6804337B607A683B689A42F2D13B6910333B617B69013B7B617B69002BC6D101F0C5FAFEF7F3FFFEE7010000003C3200006A
:4011400080B582B000AF184B184A1A60184A184B1B6843F40073136000237B600FE07B68032B04D8134A7B6852F8233000E0124B12497A6841F822307B6801337B607B6824
:401180002F2BECD90E4B1B78DAB20E4B1A700E4B0A4A1A60FFF792FE0C4B00221A6000BF0837BD4680BD00BF0CED00E00004FA0514ED00E000000000451000000080FF1F68
:4011C000BC760040C480FF1F08ED00E0C080FF1F80B582B002AF324B01221A70314B00221A70102000F01CFD102000F0FFFD07211D2000F085FE2C4B04221A702B4B002292
:401200001A702B4B00221A702A4A2A4B1B78DBB243F01803DBB21370274B00221A70274B00221A70264B00221A70264B0A221A70254B00221A70254B00221A70244B122240
:401240001A70244B13221A70234B00221A70234B14221A700123009308234FF400424FF40041032000F034FA1D4A0D4B1B78DBB2013B1C499B000B449B7813701A4A084B8B
:401280001B78DBB2013B174931F823301380044B1B78DBB2184600F069F900BFBD4680BDD080FF1FB881FF1F96580040975800409E580040075B004093580040885B0040FD
:4012C000895B004080580040815800408358004088580040895800408D580040014E00400E4E0040C081FF1F0C4E004080B582B000AF00F0D8FE0346FB71444B1B78BB7115
:40130000434A434B1B78DBB243F00103DBB213703F4A3F4B1B78DBB243F01003DBB213703C4A3C4B1B78DBB243F00103DBB21370384A384B1B78DBB243F01003DBB21370B3
:40134000354A354B1B78DBB243F00203DBB21370324A324B1B78DBB243F00203DBB213702F4A2F4B1B78DBB243F00303DBB21370032000F089FD284A274B1B78DBB223F099
:401380000203DBB21370254A244B1B78DBB223F00203DBB21370234A224B1B78DBB243F00603DBB21370204B7A221A701F4A1F4B1B78DBB243F00103DBB213701C4A1C4B14
:4013C0001B78DBB243F00103DBB21370194A194B1B78DBB243F00103DBB21370164A164B1B78DBB243F00103DBB21370134B4FF000521A60124B4FF000521A60FB7918468D
:4014000000F055FE00BF0837BD4680BDD080FF1FAA430040BA430040F8460040F9460040915800407758004082580040A1430040B1430040A2430040B243004080E200E010
:4014400000E100E080B500AF084B1B78002B09D1074B1B78DBB2002B01D1FFF7B9FE034B01221A70FFF742FF00BF80BDBA81FF1FBB81FF1F80B400AF054A054B1B78DBB23D
:4014800043F00103DBB2137000BFBD4680BC7047004E004080B400AF054A054B1B78DBB223F00103DBB2137000BFBD4680BC7047004E004080B483B000AF174B1B78DBB2FE
:4014C00003F003037B717B79012B03D8134B1B88FB8011E0114B1B78DBB2FB80104B1B78DBB29BB21B029AB2FB881343FB807B79032B01D10B4B1B780B4B1B78DBB2002BA5
:4015000002D00A4B00221A70B7F9063018460C37BD4680BC704700BF144E0040104E0040114E0040124E0040B981FF1FB881FF1F80B485B000AF78600A4B1B687A68D31AD7
:401540007B607B684FF47A7202FB03F2064B1B6892FBF3F3FB81B7F90E3018461437BD4680BC7047BC81FF1FD081FF1F80B582B000AF0346FB71384B00221A70FB79012BD8
:4015800065D1364B34221A70354B04221A70354B06221A70344B00221A70344B00221A70334B0F221A70334B00221A70324B00221A70324B00221A70314B01221A70314B82
:4015C00014221A70304B04221A70304B18221A702F4B00221A702F4B11221A702E4B12221A702E4B00221A702D4B01221A702D4B11221A702C4B19221A702C4B97221A70B8
:40160000442000F01DF92A4B58221A70294B00221A70294B05221A70284B02221A70284B00221A70274B00221A70002000F026FA254B2A221A600121052000F033FA012138
:40164000B22000F015FB21491D2000F031FC00BF0837BD4680BD00BFB981FF1F004E0040024E0040034E0040044E0040054E0040064E0040084E0040094E00400A4E004052
:40168000144E0040845800408558004086580040875800408A5800408B5800408C5800408E5800408F580040905800409158004094580040955800409A5800409B5800404D
:4016C0009C5800409D580040D081FF1FBD18000090B587B000AF0446084611461A462346FB710346BB800B467B801346BB7197F82830002B00F08B8097F82830012B00F287
:401700008680FB79013B092B4AD801A252F823F039170000A1170000A117000039170000A1170000A1170000531700006D170000A117000087170000BB790F2B04D9374B0C
:401740001B78DBB2FB752EE0354B1B78DBB2FB7529E0BB790F2B04D9324B1B78DBB2FB7521E0314B1B78DBB2FB751CE0BB790F2B04D92E4B1B78DBB2FB7514E02C4B1B78FF
:40178000DBB2FB750FE0BB790F2B04D9294B1B78DBB2FB7507E0284B1B78DBB2FB7502E00023FB7500BFBA8897F917305B0113443B617B883A6902FB03F3FB60FB68DB0B2B
:4017C000BB82BB790D2B12D8BA8ABB79C3F10E0342FA03F3BB8297F82830013BBA790132D1B2164A9B0013440A469A7007E097F82830013B114A9B0013440F229A7097F8D1
:401800002830013B0D49BA8A21F8232002E0002000F02EFB00BF1C37BD4690BD180100491C010049190100491D0100491A0100491E0100491B0100491F010049C081FF1F16
:4018400080B584B000AF0346FB7100F02CFC0346FB73174A164B1B78DBB243F00303DBB21370144A134B1B78DBB243F00303DBB21370114AFB791370032000F005FB0C4AC1
:401880000B4B1B78DBB223F00303DBB21370094A084B1B78DBB223F00303DBB21370FB7B184600F004FC00BF1037BD4680BD00BFF8460040F94600409258004080B400AFC7
:4018C00000BFBD4680BC704780B500AF064B1B78002B04D100F00AF8034B01221A7000F025F800BF80BD00BFC481FF1F80B400AF094B72221A70094B20221A70084B062263
:401900001A70084B47221A70074B00221A7000BFBD4680BC704700BF8A6500408B65004029650040396500408865004080B582B000AF00F0B8FB0346FB71114A104B1B7876
:40194000DBB243F02003DBB213700E4A0D4B1B78DBB243F01003DBB213700B4A0A4B1B78DBB243F01003DBB2137000F067FAFB79184600F09CFB00BF0837BD4680BD00BF87
:401980009A6500409B6500409865004080B483B000AF0023FB710C4B1B78BB71BB7903F02003002B09D0094B1B78FB71BB7903F01E03002B01D00023FB71FB7918460C3727
:4019C000BD4680BC704700BF6B6500404A65004080B483B000AF0346FB7100BF074B1B78DBB203F00403002BF8D1054AFB79137000BF0C37BD4680BC704700BF686500403F
:401A00004865004080B584B000AF78600023FB810C4B1B78002B10D009E0FB897A6813441B781846FFF7D4FFFB890133FB81FB897A6813441B78002BEFD100BF1037BD465D
:401A400080BD00BFC481FF1F80B582B000AF0023FB7106E0FB791846FFF70EFAFB790133FB71FB79012BF5D9034BFF221A7000BF0837BD4680BD00BFD180FF1F80B582B05E
:401A800000AF0346FB71FFF7DFFFFB791846FFF7D3F9034AFB79137000BF0837BD4680BDD180FF1F80B584B000AF03460A46FB8013467B7100F0CEF80346FB7300F0A4F8FF
:401AC0000346BB81FA88BB899A4200F08880464B1B78DBB203F00103FB72FB7B002B20D1BB89002B02D0FB88002B1AD1BB89002B0BD13E4AFB8813803D4A3D4B1B78DBB22E
:401B000023F04003DBB2137069E0394A384B1B78DBB243F04003DBB21370344AFB8813805DE0FB7A002B33D0324B00221A70324B01221A70314B00221A70314A304B1B78D2
:401B4000DBB203F07F03DBB21370294B1B78DBB203F00803002B02D0FB88002B18D1294ABB891380234B07221A7000BF214B1B78DBB203F00103002BF8D11B4A1A4B1B782F
:401B8000DBB223F00103DBB213701A4B00221A70154B1B78DBB203F00103002B13D0194AFB881380134A7B79002B01D0032300E00123137000BF0F4B1B78DBB203F0010338
:401BC000002BF8D10BE0094AFB8813800649064B1B78DAB2FB7A1343DBB20B70FFE700BF1037BD4680BD00BFA2430040804000408240004001400040104000401440004054
:401C0000084000400240004080B400AF034B1B889BB21846BD4680BC704700BF8040004080B483B000AF0346FB710949084B1B78DBB25AB297F9073023F007035BB2134383
:401C40005BB2DBB20B7000BF0C37BD4680BC70478240004080B400AF044B1B78DBB203F00703DBB21846BD4680BC70478240004080B584B000AF03460A46FB8013467B71B2
:401C800000F0CEF80346FB7300F0A4F80346BB81FA88BB899A4200F08880464B1B78DBB203F00103FB72FB7B002B20D1BB89002B02D0FB88002B1AD1BB89002B0BD13E4AB8
:401CC000FB8813803D4A3D4B1B78DBB223F04003DBB2137069E0394A384B1B78DBB243F04003DBB21370344AFB8813805DE0FB7A002B33D0324B00221A70324B01221A707D
:401D0000314B00221A70314A304B1B78DBB203F07F03DBB21370294B1B78DBB203F00803002B02D0FB88002B18D1294ABB891380234B07221A7000BF214B1B78DBB203F011
:401D40000103002BF8D11B4A1A4B1B78DBB223F00103DBB213701A4B00221A70154B1B78DBB203F00103002B13D0194AFB881380134A7B79002B01D0032300E00123137051
:401D800000BF0F4B1B78DBB203F00103002BF8D10BE0094AFB8813800649064B1B78DAB2FB7A1343DBB20B70FFE700BF1037BD4680BD00BFA1430040004100400241004006
:401DC000014000401440004010400040084000400240004080B400AF034B1B889BB21846BD4680BC704700BF0041004080B483B000AF0346FB710949084B1B78DBB25AB2E3
:401E000097F9073023F007035BB213435BB2DBB20B7000BF0C37BD4680BC70470241004080B400AF044B1B78DBB203F00703DBB21846BD4680BC70470241004080B400AF35
:401E4000094A094B1B78DBB243F00203DBB21370064A064B1B78DBB243F00203DBB2137000BFBD4680BC7047A2430040B243004080B483B000AF0346FB7101BE00BF0C37AF
:401E8000BD4680BC704700BF80B582B000AF0346FB80FB88054A127802FB03F3184600F0E3F800BF0837BD4680BD00BFDC80FF1F80B584B000AF03463960FB710F4B1B6861
:401EC000FB60FB791F2B02D90020FFF7D1FFFB7903F01F0310339B00FA6813441B68BB60FB7903F01F0310339B00FA6813443A681A60BB6818461037BD4680BD08ED00E031
:401F000080B582B000AF03460A46FB711346BB71BB79072B02D90020FFF7AAFFFB791F2B02D90020FFF7A4FFFB7903F01F0303F1604303F56443BA795201D2B21A7000BF9D
:401F40000837BD4680BD00BF80B582B000AF0023FB7106E0FB791846FEF734FFFB790133FB71FB79012BF5D9034BFF221A7000BF0837BD4680BD00BFE480FF1F80B582B03D
:401F800000AF0346FB710A4B1B78FF2B04D0084B1B781846FEF716FFFB791846FEF7DCFE034AFB79137000BF0837BD4680BD00BFE480FF1F80B582B000AF786000F03CF813
:401FC000786800F009F8072000F018F800F028F800BF0837BD4680BD80B485B000AF7860054B1B68FB60FB6840337A681A6000BF1437BD4680BC704708ED00E080B483B00F
:4020000000AF0346FB71054AFB795B01DBB2137000BF0C37BD4680BC704700BF00E400E080B400AF034B01221A6000BFBD4680BC704700BF00E100E080B400AF034B01223B
:402040001A6000BFBD4680BC704700BF80E100E080B400AF034B01221A6000BFBD4680BC704700BF80E200E0142816D902B4012114381049097811F0C001890904B40E4A20
:40208000515C04BC00BF00BF00BF8841FDD500BF00BF02BC704700BF00BF70F10400FCD570470B050709EFF3108072B6704780F31088704700480040A220000080F0004050
:4020C00002E000BF81F0004142001FBF5FEA410392EA030F7FEA226C7FEA236C6AD04FEA1262D2EB1363C1BFD218414048404140B8BF5B42192B88BF704710F0004F40F47C
:40210000000020F07F4018BF404211F0004F41F4000121F07F4118BF494292EA030F3FD0A2F1010241FA03FC10EB0C00C3F1200301FA03F100F0004302D5494260EB400064
:40214000B0F5000F13D3B0F1807F06D340084FEA310102F10102FE2A51D2B1F1004F40EBC25008BF20F0010040EA03007047490040EB000010F4000FA2F10102EDD1B0FAE9
:4021800080FCACF1080CB2EB0C0200FA0CF0AABF00EBC25052421843BCBFD0401843704792F0000F81F4000106BF80F400000132013BB5E74FEA41037FEA226C18BF7FEA60
:4021C000236C21D092EA030F04D092F0000F08BF0846704790EA010F1CBF0020704712F07F4F04D1400028BF40F00040704712F100723CBF00F50000704700F0004343F0EF
:40220000FE4040F4000070477FEA226216BF08467FEA23630146420206BF5FEA412390EA010F40F4800070474FF0000304E000BF10F0004348BF40425FEA000C08BF704700
:4022400043F0964301464FF000001CE050EA010208BF70474FF000030AE000BF50EA010208BF704711F0004302D5404261EB41015FEA010C02BF84460146002043F0B643D0
:4022800008BFA3F18053A3F50003BCFA8CF2083AA3EBC25310DB01FA02FC634400FA02FCC2F12002BCF1004F20FA02F243EB020008BF20F00100704702F1200201FA02FC0D
:4022C000C2F1200250EA4C0021FA02F243EB020008BF20EADC7070474FF0FF0C1CEAD0521EBF1CEAD15392EA0C0F93EA0C0F6FD01A4480EA010C400218BF5FEA41211ED002
:402300004FF0006343EA501043EA5111A0FB01310CF00040B1F5000F3EBF490041EAD3715B0040EA010062F17F02FD2A1DD8B3F1004F40EBC25008BF20F00100704790F0B7
:40234000000F0CF0004C08BF49024CEA502040EA51207F3AC2BFD2F1FF0340EAC250704740F400004FF00003013A5DDC12F1190FDCBF00F000407047C2F10002410021FA19
:4023800002F1C2F1200200FA02FC5FEA310040F1000053EA4C0308BF20EADC70704792F0000F00F0004C02BF400010F4000F013AF9D040EA0C0093F0000F01F0004C02BFA7
:4023C000490011F4000F013BF9D041EA0C018FE70CEAD15392EA0C0F18BF93EA0C0F0AD030F0004C18BF31F0004CD8D180EA010000F00040704790F0000F17BF90F0004FF4
:40240000084691F0000F91F0004F14D092EA0C0F01D142020FD193EA0C0F03D14B0218BF084608D180EA010000F0004040F0FE4040F40000704740F0FE4040F44000704739
:402440004FF0FF0C1CEAD0521EBF1CEAD15392EA0C0F93EA0C0F69D0A2EB030280EA010C49024FEA402037D04FF0805343EA111143EA10130CF000408B4238BF5B0042F148
:402480007D024FF4000C8B4224BF5B1A40EA0C00B3EB510F24BFA3EB510340EA5C00B3EB910F24BFA3EB910340EA9C00B3EBD10F24BFA3EBD10340EADC001B0118BF5FEA9C
:4024C0001C1CE0D1FD2A3FF650AF8B4240EBC25008BF20F0010070470CF0004C4CEA50207F32C2BFD2F1FF0340EAC250704740F400004FF00003013A37E792F0000F00F0D7
:40250000004C02BF400010F4000F013AF9D040EA0C0093F0000F01F0004C02BF490011F4000F013BF9D041EA0C0195E70CEAD15392EA0C0F08D142027FF47DAF93EA0C0F56
:402540007FF470AF084676E793EA0C0F04D14B023FF44CAF08466EE730F0004C18BF31F0004CCAD130F000427FF45CAF31F000437FF43CAF5FE700BF4FF0FF3C06E000BF82
:402580004FF0010C02E000BF4FF0010C4DF804CD4FEA40024FEA41037FEA226C18BF7FEA236C11D001B052EA530C18BF90EA010F58BFB2EB030088BFC81738BF6FEAE17002
:4025C00018BF40F0010070477FEA226C02D15FEA402C05D17FEA236CE4D15FEA412CE1D05DF8040B704700BF844608466146FFE70FB5FFF7C9FF002848BF10F1000F0FBDA7
:402600004DF808EDFFF7F4FF0CBF012000205DF808FB00BF4DF808EDFFF7EAFF34BF012000205DF808FB00BF4DF808EDFFF7E0FF94BF012000205DF808FB00BF4DF808EDFC
:40264000FFF7D2FF94BF012000205DF808FB00BF4DF808EDFFF7C8FF34BF012000205DF808FB00BF4FEA4002B2F1FE4F0FD34FF09E03B3EB12620DD94FEA002343F00043AF
:4026800010F0004F23FA02F018BF404270474FF00000704712F1610F01D1420205D110F0004008BF6FF0004070474FF000007047014B1868704700BF4881FF1F0E4B70B55D
:4026C0001E460E4C0025E41AA410A54204D056F8253098470135F8E700F09EFD084B094C1E46E41AA4100025A54204D056F8253098470135F8E770BD24320000243200005A
:40270000243200002C32000010B5431E0A44914204D011F8014B03F8014FF8E710BD03460244934202D003F8011BFAE7704700000EB400B54FF402719CB0ADF814106FF0F8
:402740000041049107914FF6FF711DAB02900690084853F8042BADF81610006802A9019300F064F8029B00221A701CB05DF804EB03B070474881FF1F2DE9F0478E68824609
:402780009E420C46914698463ED88A8912F4906F3AD02568096902236F1A656905EB450595FBF3F57B1C43449D4238BF1D4653050FD5294600F040FB064698B13A46216901
:4027C000FFF7A2FFA38923F4906343F08003A38113E02A4600F08EFB064670B92169504600F0DEFA0C23CAF80030A3894FF0FF3043F04003A381BDE8F08726613E442660F9
:4028000046466561ED1BA560464528BF464649463246206800F0A8FAA36800209B1BA36023681E442660BDE8F08700002DE9F04F9DB003938B8980461C060D4616460DD5E2
:402840000B695BB9402100F0F7FA2860286118B90C23C8F80030CDE040236B610023099320238DF82930DFF89CB130238DF82A3037463C4614F8013B1BB9B7EB060910D0CF
:4028800003E0252BF9D02746F3E74B46324629464046FFF771FF013000F0A780099B4B4409933B78002B00F0A08000234FF0FF3204930793059206938DF853301A9301269C
:4028C000052221784E4800F041FA671C049B38B14B4A3C46801A06FA00F018430490EFE7D90644BF20228DF853201A0744BF2B228DF8532022782A2A03D0079A00210A20B4
:402900000BE0039A111D12680391002A10DA524243F00200079204900BE027463B780134303B092B03D800FB02320121F5E701B107923B782E2B1ED17B782A2B0AD1039BDB
:4029400002371A1D1B680392002BB8BF4FF0FF33059310E0002319460593781C0A2407463A780130303A092A03D804FB01210123F5E703B1059103223978224800F0E6F936
:4029800040B14023CBEB000003FA00F0049B013718430490397806221B487E1C8DF8281000F0D4F988B1194B33B9039B073323F007030833039314E003AB00932A46144BB7
:4029C00004A94046AFF3008007E003AB00932A460F4B04A9404600F093F8B0F1FF3F824603D0099B5344099342E7AB895B0601D4099801E04FF0FF301DB0BDE8F08F00BF5E
:402A0000E4310000EA310000EE31000000000000792700002DE9F04791461F460A698B6806469342B8BF1346C9F8003091F843200C46DDF8208012B10133C9F800302368B0
:402A4000990642BFD9F800300233C9F80030256815F0060510D104F1190A07E00123524639463046C04701301AD00135E368D9F800209B1A9D42F1DB94F8433022680033B1
:402A800018BF012392060FD5E118302081F843005A1C94F845102244023382F8431003E04FF0FF30BDE8F08704F1430239463046C0470130F4D02268D9F80050E36802F05B
:402AC0000602042A08BF5D1B2269A3680CBF25EAE57500259342C4BF9B1AED184FF000091A344D4509D00123224639463046C0470130D5D009F10109F3E70020BDE8F087E7
:402B00002DE9F04317460A7E85B06E2A984606460C460C9B01F1430E00F0AE8011D8632A22D009D8002A00F0BB80582A40F0CA8081F84520834955E0642A1ED0692A1CD0A2
:402B4000C0E0732A00F0B08009D86F2A2ED0702A40F0B8800A6842F020020A603EE0752A24D0782A3AD0ADE01A6801F14205111D1960136884F84230A8E021681A6811F005
:402B8000800F02D0111D196008E011F0400F02F10401196002D0B2F9003000E01368002B3CDA2D225B4284F8432037E021681A6811F0800F02D0111D196007E011F0400FEE
:402BC00002F10401196001D0138800E01368227E5C496F2A14BF0A2208221BE078225A4984F845202268186812F0800F00F104051D6003D1550601D5038800E00368D007B9
:402C000044BF42F0200222601BB9226822F0200222601022002084F8430001E049490A226568002DA56008DB206820F0040020602BB9002D7DD175460CE0002B79D07546C4
:402C4000B3FBF2F002FB1033CB5C05F8013D03460028F5D1082A0BD12368DA0708D5236962689A42DEBF302305F8013C05F1FF35C5EB0E0323612EE008681A6810F0800F3A
:402C8000496903D0101D1860136808E010F0400F02F104001860136801D0198000E0196000232361754616E01A68111D1960156800216268284600F049F808B1401B60602F
:402CC000636804E004F1420584F8422001232361002384F84330CDF800803B4603AA21463046FFF797FE013002D14FF0FF3026E023692A4639463046C0470130F5D0236885
:402D00009B0710D5002504F1190907E001234A4639463046C0470130E7D00135E368039A9B1A9D42F2DBE068039B9842B8BF184605E00B7804F1420584F842308AE705B085
:402D4000BDE8F083F53100000632000010B5C9B202449042034605D01C7801308C42F8D1184610BD002010BD884210B501EB020301D8421E0BE09842FBD28118D21AD3420E
:402D800004D013F8014D01F8014DF8E710BD994204D011F8014B02F8014FF8E710BD000038B50546002944D051F8043C0C1F002BB8BFE41800F0D4F81E4A1368114613B970
:402DC0006360146030E0A3420DD92268A018834201BF18685B681218226063600C6023E0A24203D813465A68002AF9D118681918A1420BD12168014458188242196013D13C
:402E000010685268014419605A600DE002D90C232B6009E021686018824201BF106852680918216062605C602846BDE8384000F098B838BDCC81FF1F70B5CD1C25F0030550
:402E400008350C2D38BF0C25002D064601DBA94202D90C23336046E000F082F8234B1C681A462146A1B10B685B1B0ED40B2B03D90B60CC18CD501EE08C420BBF63684B68DF
:402E80001360636018BF0C4615E00C464968E9E7174C23681BB9304600F052F820602946304600F04DF8431C18D0C41C24F00304A0420DD12560304600F053F804F10B00A7
:402EC000231D20F00700C31A0ED05A42E25070BD211A304600F034F80130EBD10C233360304600F03EF8002070BD00BFCC81FF1FC881FF1FF8B5074615460E4621B91146F5
:402F0000BDE8F840FFF798BF1AB9FFF749FF2846F8BD00F027F885420ED929463846FFF78BFF044650B131462A46FFF7EDFB31463846FFF735FF01E03046F8BD2046F8BDB3
:402F400038B5064C0023054608462360FEF784F8431C02D1236803B12B6038BDD481FF1F7047704751F8040C0028BEBF091851F8043CC01804387047000000000D0A434182
:402F80004C204D4F44450D0A000000005374657020313A204D6F7665206A6F79737469636B207468726F7567682046554C4C2072616E67652028616C6C206469726563743E
:402FC000696F6E73292C207468656E2072656C6561736520746F2063656E7465722E0D0A0000000050726573732027632720746F20636170747572652043454E5445522014
:40300000286176657261676564292C2027782720746F2063616E63656C2E0D0A000000000D0A5374657020323A20436170747572696E672043454E5445522028617665723D
:403040006167696E67292E2E2E206B656570206A6F79737469636B2072656C617865642E0D0A00005761697420666F72206361707475726520746F20636F6D706C6574656C
:403080002C207468656E2070726573732027632720746F20534156452E0D0A000D0A43656E7465722063617074757265642E0D0A000000005374657020333A205072657348
:4030C000732027632720746F20534156452C2027782720746F2063616E63656C2E0D0A000D0A43414C206578697465642E0D0A00434F4D20506F7274204F70656E0D0A001E
:403100004B6579733A20733D73746172742073747265616D2C20783D73746F702073747265616D2F63616E63656C2063616C2C20633D63616C20616476616E63650D0A0092
:40314000583A256C64206D5620593A256C64206D56202070616E3A25642F31303030202074696C743A25642F313030300D0A000043656E7465722073616D706C65733A2091
:4031800025752F25750D0A000D510040005B00400D510040005B004001100220035B00402443004040000000205100405000F051004010000000014000100014014000062D
:4031C000801A0140800100400140000A004C01400002005001402000001A01409402004880004300232D302B2000686C4C006566674546470030313233343536373839416F
:40320000424344454600303132333435363738396162636465660000F8B500BFF8BC08BC9E4670474D00000041110000F8B500BFF8BC08BC9E467047290000005032000090
:40324000C880FF1F88000000880000000000000000000000D881FF1F01FF000000366E01C05D0000180000000000E02EFF000000000000000000000000000000000000007A
:4032800000000000000000000000000000000000E23100000000000000000000000000000000000000000000000000000000000000000000000000000000000000000000FB
:4032C00000000000000000000000000000000000E880FF1F000000000000000000000000000000000000000000000000000000000000000000000000000000000000000048
:40330000000000000000000000000000000000000000000000000000000000000000000000000000000000000000000000000000000000000000000000000000000000008D
:40334000000000000000000000000000000000000000000000000000000000000000000000000000000000000000000000000000000000000000000000000000000000004D
:40338000000000000000000000000000000000000000000000000000000000000000000000000000000000000000000000000000000000000000000000000000000000000D
:4033C00000000000000000000000000000000000000000000000000000000000000000000000000000000000000000000000000000000000000000000000000000000000CD
:020000040003F7
:0200000480007A
:40000000025200400365004001070140040801400209014069180140391901400E1A01403E1B0140024001400141014001420140064301400244014001450140034601409E
:400040000247014005480140034C0140074D0140025001400151014061806440880F8A728B38E804B880BE40D804DF011801E804000901030210034404100553070C080C66
:40008000090A0A110B540C200E03141C160218141F082120234525532704281029802A0C31303220330F3580361F374039023B083E043F5040344106450B47CE483149FFD2
:4000C0004AFF4BFF4EF04F44500C5401580459045A045B045C115D115F0166C06A406B028101824C830E8584875189E7946C9603983199E79A0E9D20A213A431A542A64627
:40010000A791AA08B030B107B20FB3C0B44AB520B718B802BA28BE01BF40C004C704C9FFCA07CBFFCC40CD20CEF0CF05D008D804D904DA04DC11DD01DF01E040E1A8E240AB
:40014000E32003400408055007400A140E100F081088110813021720184019101A1C1C201D40200A210525042640276828202C802E042F08324033103740392A3A053D0813
:400180003E103F0240404504470248804E044F08500C57095C025D105E805F088410B401C0F8C266C44ECAE2CC1CCEE7D0C1D220D6F0E008860296019E02AE01B001B202D9
:4001C000BA80BE05D418D804DB04DC01DD10DF0100440208061009A00A100E010F101080114013241580180419251A111D801F052040212A231129602A0531963828394032
:4002000040404188480549104A085140521059015F01670A69206A806B107094714073248C208D40952096809A059C209F10A005A802AB08AD10AF01C027C2A7C48FCA0FEC
:40024000CC0FCE0ED00BD20CD681D8303380CC10A780A78011409404A780A804C440E8207D20DE01A5104708A510D001A510AB0824049404A940AB80C8208710B510EC0890
:40028000128073108E809310C408DC01E20210021C020002000000003C0CC20000044300E72118800073000C3C0FC17000000473FF7F00001063000008420000181C006384
:4002C00004080000200F581C1F8080608000280200000100460103000500EC000CFFFFFF62A0F0410C000000000002130404040411110001000000000000400200103010C8
:4003000000101012000000000000000000000000000000000000000000000300800040808000800000000000000B0B0000000000B200180100000000000000000000000067
:40034000000000000000000000000000000000000000000000000000000000000000000000000000000000000000000000000000000000000000000000000000000000007D
:40038000000000000000000000000000000000000000000000000000000000000000000000000000000000000000000000000000000000000000000000000000000000003D
:4003C00000000000000000000000000000000000000000000000000000000000000000000000000000000000000000000000000000000000000000000000000000000000FD
:4004000000000000000000000000000000000000000000000000000000000000000000000000000000000000000000000000000000000000000000000000000000000000BC
:0200000490006A
:0400000000004005B7
:0200000490105A
:04000000BC90ACAF55
:0200000490303A
:020000002826B0
:0200000490402A
:4000000000000000000000000000000000000000000000000000000000000000000000000000000000000000000000000000000000000000000000000000000000000000C0
:400040000000000000000000000000000000000000000000000000000000000000000000000000000000000000000000000000000000000000000000000000000000000080
:400080000000000000000000000000000000000000000000000000000000000000000000000000000000000000000000000000000000000000000000000000000000000040
:4000C0000000000000000000000000000000000000000000000000000000000000000000000000000000000000000000000000000000000000000000000000000000000000
:0200000490501A
:0C00000000012E16106900012E2A388F16
:00000001FF