:400000000080002011000000D14B0000D14B000080B500AF024A034B1B68136004F00AFEBC760040FA46004010B5054C237833B9044B13B10448AFF300800123237010BDD3
:40004000F881FF1F00000000D0930000084B10B51BB108490848AFF300800848036803B910BD074B002BFBD0BDE81040184700BF00000000FC81FF1FD0930000C880FF1FDC
:400080000000000080B582B000AF78600B46FB70FB78184605F092FB00BF0837BD4680BD80B483B000AF7860034B1B6818460C37BD4680BC704700BF9C84FF1F80B582B04B
:4000C00000AF114B1B78FB71FB7903F01E03002B04D0FB7919460D4801F044FAFB7903F02003002B06D00A4B1B78DBB21946074801F01AFAFB7903F02003002BE1D100BF3F
:400100000837BD4680BD00BF696400401482FF1F4964004080B500AF044B1B680133034A136005F06BFC00BF80BD00BF9C84FF1F80B584B000AFF860B9607A603B604FF097
:400140000001F86806F01CFE0346002B01D02D2200E020223B681A704FF00001F86806F00FFE0346002B03D0FB6883F00043FB60F86806F043FE03461AB2BB681A80BB6841
:40018000B3F90030184606F009FC03461946F86806F04EFB03460849184606F053FC0346184606F02BFE03461AB27B681A8000BF1037BD4680BD00BF0000C84280B483B0B8
:4001C00000AF0346FB71FB79012B02D0022B02D003E0054B02E0054B00E0054B18460C37BD4680BC704700BFE4930000EC930000F4930000F0B5C1B004AFD14BB3F862329E
:40020000A7F8DE30CF4BC7F8D830CD4B93F8863287F8D730B7F8DE2097F8D73007F12400C94907F0E1FA07F12403184605F092F9002387F8EF3057E007F12403C7F8E83021
:4002400097F8EF301A46C149D7F8E80007F0CCFA03461A46D7F8E8301344C7F8E830002387F8E7301BE097F8EF2097F8E73013441A46D7F8D83013441B781A46B449D7F898
:40028000E80007F0B1FA03461A46D7F8E8301344C7F8E83097F8E730013387F8E73097F8E730072B08D897F8EF2097F8E7301A4497F8D7309A42D6DBD7F8E830A54A11889A
:4002C000927819809A7002231A46D7F8E8301344C7F8E83007F12403184605F03BF997F8EF30083387F8EF3097F8EF2097F8D7309A42A1D3B7F8DE30013B152B00F2B382A6
:4003000001A252F823F000BFD706000067080000090600008F04000067080000670800006708000067080000670800006708000067080000710700006708000067080000B1
:40034000670800006708000067080000670800006708000067080000670800006103000097F8D730052B40F28282D7F8D830591C07F122030222184606F0B2FDD7F8D830AD
:40038000D91C07F120030222184606F0A9FDD7F8D830591D07F11E030222184606F0A0FDB7F92230184606F0F9FA03466A49184606F0FCFB0346184607F1190307F11A0235
:4003C00007F11C01FFF7B4FE7B7E1A46B7F91C301946B7F91A3007F1240000930B465F4907F002FA07F12403184605F0B3F8B7F92030184606F0D2FA03465749184606F07D
:40040000D5FB0346184607F1190307F11A0207F11C01FFF78DFE7B7E1A46B7F91C301946B7F91A3007F1240000930B464C4907F0DBF907F12403184605F08CF8B7F91E3085
:40044000184606F0ABFA03464349184606F0AEFB0346184607F1190307F11A0207F11C01FFF766FE7B7E1A46B7F91C301946B7F91A3007F1240000930B463A4907F0B4F99E
:4004800007F12403184605F065F800BFF8E197F8D7300B2B40F2ED81D7F8D8301B781A06D7F8D83001331B781B041A43D7F8D83002331B781B021343D7F8D820033212782D
:4004C0001343C7F8D030D7F8D83004331B781A06D7F8D83005331B781B041A43D7F8D83006331B781B021343D7F8D820073212781343C7F8CC30D7F8CC301B4A82FB031295
:400500009215DB17D51AD7F8CC20174B83FB02139915D317CB1A154901FB03F3D31A002B26DAD7F8CC305B420F4A82FB03129115DA178A1A0D4901FB02F29A1A24E000BF53
:400540001482FF1F7A84FF1FFC93000018940000249400002C9400000000C8423094000044940000549400006BCA5F6B80969800D7F8CC30C44A82FB03129115DA178A1A17
:40058000C24901FB02F29A1AD7F8D030BE4981FB03018915DB17C81AD7F8D010BA4B83FB01439C15CB17E31AB84C04FB03F3CB1A002B0DDAD7F8D0305942B34B83FB0143A4
:4005C0009C15CB17E31AB14C04FB03F3CB1A0BE0D7F8D010AC4B83FB01439C15CB17E31AAA4C04FB03F3CB1A07F124040193009013462A46A649204607F0F6F807F124037B
:40060000184604F0A7FF3BE197F8D730042B40F23281D7F8D830591C07F116030222184606F05EFCD7F8D830D91C07F114030222184606F055FCB7F91630184606F0AEF938
:4006400003469449184606F0B1FA0346184607F10F0307F1100207F11201FFF769FDFB7B1A46B7F912301946B7F9103007F1240000930B46884907F0B7F807F12403184628
:4006800004F068FFB7F91430184606F087F903468249184606F08AFA0346184607F10F0307F1100207F11201FFF742FDFB7B1A46B7F912301946B7F9103007F1240000936A
:4006C0000B46774907F090F807F12403184604F041FF00BFD4E097F8D730032B40F2CD80D7F8D8301B781B021AB2D7F8D83001331B781BB21343A7F8CA30B7F9CA3018464E
:4007000006F04CF903466549184606F04FFA0346184607F1090307F10A0207F10C01FFF707FD7B7A1D46B7F90C301E46B7F90A301946D7F8D83002331B781C46D7F8D83073
:4007400003331B78574AA2FB03235B08DBB207F1240002930194009133462A46524907F043F807F12403184604F0F4FE00BF87E097F8D730052B40F28280D7F8D830013341
:400780001B781B021AB2D7F8D83002331B781BB21343A7F8C830D7F8D83003331B781B021AB2D7F8D83004331B781BB21343A7F8C630D7F8D83005331B781B021AB2D7F828
:4007C000D83006331B781BB21343A7F8C430B7F9C630184606F0E2F80446B7F9C830184606F0DCF803461946204605F02FFC03462E49184606F026F90346C7F8E0304FF0C9
:400800000001D7F8E00006F0BBFA0346002B07D02749D7F8E00006F00DF80346C7F8E030FB1C3A1DB91DD7F8E000FFF781FCB7F9C820B7F9C610B7F9C430B7F906000446B8
:40084000B7F90400054607F124000295019400930B46184906F0C8FF07F12403184604F079FE00BF0CE0144804F074FE08E000BF06E000BF04E000BF02E000BF00E000BFAB
:4008800000BFF437BD46F0BD6BCA5F6B809698006C94000000002041989400000000C842AC940000ABAAAAAAC0940000E62E65420000B443EC9400001495000080B5BAB0A3
:4008C00000AF002387F8E730002387F8E630002387F8E5300023C7F8E0304FF00003BB61BB697B61002387F8DF3020E097F8DF305B0007F1E8021344002223F8E42C97F812
:40090000DF305B0007F1E8021344FF2223F8E02C97F8DF3004335B0007F1E8021344802223F8E42C97F8DF30013387F8DF3097F8DF30012BDAD900233B7462B604F06CFD72
:40094000BF4804F007FEBF4804F004FEBE4804F001FE04F0B1FE04F00FFF04F049FFBB49BB4800F0B3FDBB4804F064FF3B1D0121184600F05FFC00F025FA05F01DF8B64865
:4009800005F06AF8B54804F0E5FD04F0A7FD034687F8DB3097F8E730002B04D097F8E730012B40F0908097F8DB306D2B03D097F8DB304D2B11D197F8E730002B06D1012326
:4009C00087F8E730A64804F0C5FD7BE0002387F8E730A44804F0BEFD74E097F8DB30742B03D097F8DB30542B0AD197F8E730002B68D1022387F8E7309B4804F0ABFD61E035
:400A000097F8DB306C2B03D097F8DB304C2B24D197F8E630002B03D1012387F8E6300AE097F8E630012B03D1022387F8E63002E0002387F8E63097F8E6301846FFF7BEFBBA
:400A4000024607F134038949184606F0CDFE07F13403184604F07EFD34E097F8DB306A2B03D097F8DB304A2B13D197F8E530002B0CBF01230023DBB287F8E53097F8E53063
:400A8000002B01D07A4B00E07A4B184604F062FD18E097F8DB306B2B04D097F8DB304B2B40F0A1806A4800F0AFFE002387F8E730002387F8E530002387F8E6306E4804F0A1
:400AC00049FD90E08FE097F8E730022B40F08C800023A7F8DC3097F8DB30612B03D097F8DB30412B06D11623A7F8DC30634804F031FD63E097F8DB30672B03D097F8DB3091
:400B0000472B06D10423A7F8DC305D4804F022FD54E097F8DB30622B03D097F8DB30422B06D10323A7F8DC30564804F013FD45E097F8DB30732B03D097F8DB30532B06D144
:400B40000123A7F8DC30504804F004FD36E097F8DB306E2B03D097F8DB304E2B06D10C23A7F8DC30494804F0F5FC27E097F8DB30742B03D097F8DB30542B0ED1344B002217
:400B8000A3F85A22324B002283F86022002387F8E7303F4804F0DEFC10E097F8DB306B2B03D097F8DB304B2B08D1294800F02CFE002387F8E730374804F0CCFCB7F8DC305E
:400BC000002B11D0224BB3F85A32002B0CD1B7F8DC3019461E4800F035FE2F4B1B681C4AC2F85C3200E000BF194800F0D3FC97F8E730022B75D1164B93F86032002B4FD04F
:400C0000254B1A68124BD3F85C32D31AC7F8D43007F13403D7F8D4202049184606F0E4FD07F13403184604F095FCFFF7E3FA084B002283F86022064B0022A3F85A2250E0BB
:400C400034950000549500007C950000D89300001482FF1FBD00000015010000B0950000C0950000D0950000E09500000C96000020960000349600004C9600006C96000045
:400C800088960000A4960000C0960000E0960000FC960000109700009C84FF1F2C9700003F4BB3F85A32002B1BD03E4B1A683C4BD3F85C32D31AB3F5FA6F12D3384BB3F803
:400CC0005A321A4607F134033749184606F08CFD07F13403184604F03DFC314B0022A3F85A2207F11C03184600F0D4F80346002B09D007F11C03184600F0EEFA07F1140333
:400D0000184600F017FB97F8E530002B19D000F007FB0346002B14D197F8E63087F82C3097F8E63087F82D30002387F82E307B693B62BB6983F000437B624FF00003BB62B8
:400D40000FE0002387F82C30002387F82D30002387F82E304FF00003BB62BB6A7B627B6A3B62012387F82F30002387F8303097F8E730012B7FF409AE0A4B1A68D7F8E030EE
:400D8000D31A632B7FF601AE064B1B68C7F8E03007F120031946024800F0F8FCF5E500BF1482FF1F9C84FF1F3C97000080B500AF04F076FC024B01221A7000BF80BD00BFEC
:400DC000A084FF1F80B582B000AF62B604F000F904F0E2FB114804F015FC114B00221A70104B00221A70104B00221A700023FB7107E0FB790D4A002122F81310FB7901330A
:400E0000FB71FB79012BF4D9002004F0DFFB04F0F7F800BF0837BD4680BD00BFAD0D0000A284FF1FA084FF1FA184FF1FA484FF1F98B500AF04F0F4F8134B1B78DBB21C4686
:400E400004F0FEF803461A46104B23F814200E4B1B78DBB2012B06D10D4B01221A700A4B00221A7006E0084B1B78DBB20133DAB2054B1A70044B1B78DBB2184604F0A6FB5E
:400E800004F0BEF800BF98BDA284FF1FA484FF1FA184FF1F80B584B000AF7860154B1B78DBB2002B04D0134B00221A70FFF7C0FF114B1B78DBB2002B17D00F4B00221A70E5
:400EC0000023FB730CE0FB7B5B007A681344FA7B0A4931F8122012B21A80FB7B0133FB73FB7B012BEFD9012300E0002318461037BD4680BDA084FF1FA184FF1FA484FF1F91
:400F000090B585B000AF0446084611461A462346FB800346BB800B467B8013463B80B7F90620B7F904309A4201DABB88FB80B7F90620B7F900309A4201DD3B88FB803A88D2
:400F40007B88D31A9BB2FB817A88BB88D31A9BB2BB81B7F90E30002B01DC0123FB81B7F90C30002B01DC0123BB81B7F90620B7F902309A4214DBB7F90620B7F90230D31AEB
:400F8000184605F00BFD0446B7F90E30184605F005FD03461946204605F008FE034613E0B7F90620B7F90230D31A184605F0F6FC0446B7F90C30184605F0F0FC03461946FD
:400FC000204605F0F3FD034618461437BD4690BD90B583B000AF786039603B6883F000437968184605F0CCFE0346002B09D03968786805F0C5FE0346002B02D04FF0000367
:401000002AE04FF00001786805F0D8FE0346002B11D03968786805F00BFC03461C4639684FF07E5005F004FC03461946204605F0BDFD034610E03968786805F0FBFB0346F0
:401040001C4639684FF07E5005F0F2FB03461946204605F0ABFD034618460C37BD4690BD80B485B000AF78600023FB7338E0FB7B7A685B001344B3F904309AB2F97B7B6873
:4010800033F911309BB2D31A9BB2BB81FA7B7B6833F91220F97B7B68043133F911309A420EDAFA7B7B68043233F91220FB7B79685B000B44B3F904309A4201DA012300E005
:4010C0000023FB72B7F90C30132B01DC00230BE0FB7A002B01D1002306E0FB7B0133FB73FB7B012BC3D9012318461437BD4680BC704700BF80B485B000AF7860214B1B7809
:40110000012B39D10023FB7332E0FB7B5B007A681344B3F90020FB7B1B4931F913309A4209DAFB7BFA7B520079680A44B2F90010154A22F81310FB7B5B007A681344B3F981
:401140000020FB7B10495B000B44B3F904309A420BDDFB7BFA7B520079680A44B2F90010094A5B0013440A469A80FB7B0133FB73FB7B012BC9D900E000BF1437BD4680BC17
:40118000704700BFD684FF1FC884FF1F80B485B000AF7860234B1B78022B3DD10023FB7311E0FB7BFA7B204951F82220F97B490078680144B1F900100A441B4941F8232080
:4011C000FB7B0133FB73FB7B012BEAD9174B1B8801339AB2154B1A80144B1B881F2B1CD90023BB7311E0BA7BBB7B0F4951F82330002B00DA1F335B1118B20D49131D0246B6
:4012000021F81320BB7B0133BB73BB7B012BEAD9044B03221A7000E000BF1437BD4680BC704700BFD684FF1FE084FF1FE884FF1FC884FF1F90B484B000AF786039601F4B18
:401240007A68144620686168A26807C3A2891A801B4B7A68144620686168A26807C3A2891A80174B00221A73164B7A68144620686168A26807C3A2891A80134A3B681360B1
:401280000023FB730BE0FB7BF97B7A68043132F911100E4A22F81310FB7B0133FB73FB7B012BF0D90A4B00221A700A4B00221A8000BF1037BD4690BC704700BFA884FF1F26
:4012C000B884FF1FC884FF1FDC84FF1FD884FF1FD684FF1FE884FF1F80B584B000AF78600023FB730CE0FB7BFA7B520079680A44B2F90010094A22F81310FB7B0133FB73F4
:40130000FB7B012BEFD97868FFF7F4FE7868FFF73DFF00BF1037BD4680BD00BFD884FF1F80B400AF024B1B781846BD4680BC7047D684FF1F90B587B000AF7860304B7B6101
:401340003048FFF78DFE0346002B01D02D4B7B610023FB744CE0FB7C2B4A32F91300FA7C7B6933F91210FA7C7B69043233F91240FB7C7A695B001344B3F904302246FFF7F3
:40138000BFFDF8602149F868FFF722FEF860204B1A68FB7C22FA03F303F00103002B03D0FB6883F00043FB601A4B1B681946F86805F048FB0346FB604FF07E51F86805F01C
:4013C000FDFC0346002B02D04FF07E53FB601249F86805F0D5FC0346002B01D00E4BFB60FA7C7B68F96843F82210FB7C0133FB74FB7C012BAFD900BF1C37BD4690BD00BF3C
:40140000A884FF1FB884FF1FD884FF1FCDCC4C3DDC84FF1FCC80FF1F000080BF80B483B000AF78607B681B680F4A13617B685B680D4A93617B689B680B4A13627B681A7B0B
:40144000094B1A757B685A7B074B1A777B689A7B054B83F824207B681A7C034B1A7300BF0C37BD4680BC7047D080FF1F80B582B000AF78607A680021002000F077FA00BFFC
:401480000837BD4680BD00BF80B584B000AF78600023FB6009E07B685B687A681268F97A10469847FB680133FB607B6803F2162307F10B021146184603F0ACF80346002B25
:4014C000E9D1FB6818461037BD4680BD80B582B000AF786039604FF422720021786805F00AFD7B683A6807CA83E807007B68022283F858227B6803F58873184602F0DCFFCA
:401500007B6803F21623184603F04AF8044A7B681360044B1B68984700BF0837BD4680BDEC84FF1FD080FF1F80B582B000AF78600B46FB707B68002B0FD07B6803F588730B
:40154000FA781146184602F0CDFF7B68B3F814329AB27B68A3F80C2100E000BF0837BD4680BD00BF80B483B000AF78600B46FB707B68002B09D07B6893F80E21FB781343E7
:40158000DAB27B6883F80E2100E000BF0C37BD4680BC704780B58AB000AF78607B68002B00F0EE80784BD3F880307B62C1E07B68D3F804315A1C7B68C3F80421FB7B19462B
:4015C000002002F0F5FB03463B623B6A002B00D1AFE07B68D3F800315A1C7B68C3F80021694B1B69FB83684B9B89BB83664B1B6FBB617B6820331846FFF738FFBB69002B8D
:4016000060D0FB8B013B152B5BD801A252F823F09F160000C31600007B16000069160000C3160000C3160000C3160000C3160000C3160000C3160000C3160000B1160000F1
:40164000C3160000C3160000C3160000C3160000C3160000C3160000C3160000C3160000C31600008D1600007B6803F12002BB8B1946B86900F0AEF924E07B6803F12002D3
:40168000BB8B1946B86900F07BFA1BE07B6803F12002BB8B1946B86900F0B4FA12E07B6803F12002BB8B1946B86900F067FB09E07B6803F12002BB8B1946B86900F006FC0A
:4016C00000E000BF7B68B3F85A32002B31D07B68B3F85A32FA8B9A422BD17B68FA8BA3F862227B68BA8BA3F864227B68012283F86022BB8B1F2B02D8BB8BDBB200E020235B
:40170000FB75BB69002B08D07B6803F26623FA7DB969184605F0E4FB07E07B6803F26623FA7D0021184605F0E6FB7B68FA7D83F886227B6803F5887307F10F0211461846C1
:4017400002F002FF0346002B7FF431AF0E4BD3F880303B613A697B6A9A4209D97B68D3F8082139697B6ACB1A1A447B68C3F808217B68B3F814329AB27B68A3F80C2100E0E6
:4017800000BF2837BD4680BD2485FF1FB0B584B000AF786039607B68002B03D07B685B68002B01D1012329E03868FFF737FE7B683A6803F10C0415460FCD0FC42B68236026
:4017C000104B5B6898477868FFF75EFEF8607B68D3F8F8305A1C7B68C3F8F8207B68D3F8FC20FB681A447B68C3F8FC207B6893F80E31002B14BF01230023DBB218461037F7
:40180000BD46B0BDD080FF1FB0B588B000AF78607B68002B11D07B6807F10C0403F10C050FCD0FC42B68236001233B7707F10C0319467868FFF7AAFF00E000BF2037BD464E
:40184000B0BD00BF80B588B002AF78600B467B807B68002B03D07B685B68002B01D101233EE007F10C03184602F0ACF97B6893F858323B7479886B4607F110021268104605
:4018800018800233120C1A70FB680022164802F003FA7868FFF7F8FD78617B687A88A3F85A227B680022C3F85C227B68002283F860227B68D3F8F8305A1C7B68C3F8F820FF
:4018C0007B68D3F8FC207B691A447B68C3F8FC207B6893F80E31002B14BF01230023DBB218461837BD4680BD1C85FF1F80B483B000AF78607B681B781A067B6801331B78C9
:401900001B041A437B6802331B781B0213437A6803321278134318460C37BD4680BC704780B483B000AF78607B681B781B021AB27B6801331B781BB213431BB218460C37F7
:40194000BD4680BC704700BF80B584B000AF786007F10E0302227968184605F0C1FAB7F90E3018461037BD4680BD00BF80B485B000AFF8600B467A607B81154B9A6C7B6834
:401980005A60134BDA6C7B689A60114B1A6E7B68DA600F4B5A6D7B681A610D4B9A6D7B685A610B4BDA6D7B689A61094B93F850207B681A77064B93F851207B685A777B684D
:4019C00001221A7000BF1437BD4680BC704700BFD080FF1F80B58AB000AFF8600B467A607B817B89152B40F2BE80F868FFF77EFF7862FB6804331846FFF778FF3862FB68AD
:401A000008331846FFF772FFF861FB680C331846FFF786FF03467B83FB680E331846FFF77FFF03463B83FB6810331846FFF778FF0346FB82FB6812331846FFF771FF034622
:401A4000BB82FB6814331846FFF76AFF03467B827B687A6A5A647B683A6A1A647B68FA699A647B687A8BA3F84C207B683A8BA3F84E207B68FA8AA3F850207B68BA8AA3F8DA
:401A800052207B687A8AA3F85420786A04F086FF03463749184605F089F803461A467B685A62386A04F07AFF03463149184605F07DF803461A467B681A62F86904F06EFF1A
:401AC00003462C49184605F071F803461A467B689A62B7F91A30184604F060FF03462649184605F063F803461A467B68DA62B7F91830184604F052FF03462049184605F06B
:401B000055F803461A467B681A63B7F91630184604F044FF03461849184605F047F803461A467B685A63B7F91430184604F036FF03461149184605F039F803461A467B6811
:401B40009A63B7F91230184604F028FF03460A49184605F02BF803461A467B68DA637B6801229A7700E000BF2837BD4680BD00BF8096184B00007A440000C842000020416C
:401B800080B586B000AFF8600B467A607B817B89042B2ED9FB6801331846FFF7D5FE0346FB82FB6803331846FFF7CEFE0346BB82B7F91630184604F0F1FE03460F49184659
:401BC00004F0F4FF03461A467B689A65B7F91430184604F0E3FE03460949184604F0E6FF03461A467B68DA657B68012283F8562000E000BF1837BD4680BD00BF000020416A
:401C00000000C84280B584B000AFF8600B467A607B817B89122B40F2A980FB6801331846FFF792FE0346184604F0B8FE03465149184604F0BBFF03461A467B685A66FB68FD
:401C400003331846FFF780FE0346184604F0A6FE03464849184604F0A9FF03461A467B689A66FB6805331846FFF76EFE0346184604F094FE03463F49184604F097FF034633
:401C80001A467B68DA66FB6807331846FFF75CFE0346184604F082FE03463749184604F085FF03461A467B681A67FB6809331846FFF74AFE0346184604F070FE03462E498B
:401CC000184604F073FF03461A467B685A67FB680B331846FFF738FE0346184604F05EFE03462549184604F061FF03461A467B689A67FB680D331846FFF726FE03461846F9
:401D000004F04CFE03461C49184604F04FFF03461A467B68DA67FB680F331846FFF714FE0346184604F03AFE03461349184604F03DFF03461A467B68C3F88020FB681133AB
:401D40001846FFF701FE0346184604F027FE03460949184604F02AFF03461A467B68C3F884207B68012283F8602000E000BF1037BD4680BD0000C8420000204180B584B054
:401D800000AFF8600B467A607B817B89152B40F29280F868FFF7C4FD0346184604F0FEFD03464749184604F001FF03461A467B68C3F88C20FB689A787B6883F89020FB68BC
:401DC00003331B78184604F0E5FD03463D49184604F0ECFE03461A467B68C3F89420FB681A797B6883F89820FB6805331846FFF797FD03461A467B68A3F89A20FB680733D3
:401E00001846FFF78DFD03461A467B68A3F89C20FB6809331846FFF783FD0346184604F0BDFD03462849184604F0C0FE03461A467B68C3F8A020FB680B331846FFF770FDE6
:401E400003461A467B68A3F8A420FB680D331846FFF766FD03461A467B68A3F8A620FB6810331846FFF75CFD03461A467B68A3F8A820FB6812331846FFF752FD03461846FC
:401E800004F08CFD03460E49184604F08FFE03461A467B68C3F8AC20FB6814331846FFF73FFD03461A467B68A3F8B0207B68012283F8882000E000BF1037BD4680BD00BFD4
:401EC0000000C842000040400000204180B584B000AFF8600B467A607B817B89122B40F2B080FB6801331846FFF72EFD0346184604F054FD03465549184604F057FE0346E4
:401F00001A467B68C3F8B420FB6803331846FFF71BFD0346184604F041FD03464B49184604F044FE03461A467B68C3F8B820FB6805331846FFF708FD0346184604F02EFDA7
:401F400003464249184604F031FE03461A467B68C3F8BC20FB6807331846FFF7F5FC0346184604F01BFD03463949184604F01EFE03461A467B68C3F8C020FB6809331846F7
:401F8000FFF7E2FC0346184604F008FD03463049184604F00BFE03461A467B68C3F8C420FB680B331846FFF7CFFC0346184604F0F5FC03462549184604F0F8FD03461A4672
:401FC0007B68C3F8C820FB680D331846FFF7BCFC0346184604F0E2FC03461C49184604F0E5FD03461A467B68C3F8CC20FB680F331846FFF7A9FC0346184604F0CFFC0346D1
:402000001249184604F0D2FD03461A467B68C3F8D020FB6811331846FFF796FC0346184604F0BCFC03460B49184604F0BFFD03461A467B68C3F8D4207B68012283F8B220D4
:4020400000E000BF1037BD4680BD00BF00007A440000C8420000204180B500AF1A4A0A211A4801F09DFD1A4B00221A75184B00221A77174B002283F82420154B002283F886
:402080002C20134B002283F83420114B002283F83C200F4B002283F841200D4B002283F840200B4B002283F84220094B002283F84320074B002283F84420054B002283F89A
:4020C000452000BF80BD00BF192100001C85FF1FD080FF1F80B584B002AF3B46184601F071FD02233B7100237B710023BB716B463A1D1268114619800233120C1A703B68E0
:40210000002240F21511034801F006FE00BF0837BD4680BD1C85FF1F80B592B002AF78607B681B78022B07D0042B02D0012B06D008E000F08BFC05E000F088FC02E000F0E1
:4021400091FC00BF7B68DB6E184600F059FC7B68DB6840F21512934205D040F21F12934200F02682C6E37B681B78022B40F0C683A54B1B78002B06D107F130030321184654
:4021800000F072FE06E007F130000023FF22032100F088FE9D4B1B7D012B07D0022B09D0002B0BD1002387F83F300BE0012387F83F3007E0022387F83F3003E0002387F8B6
:4021C0003F3000BF914B1B7F012B07D0022B09D0002B0BD1002387F83E300BE0042387F83E3007E0082387F83E3003E0002387F83E3000BF854B93F82430012B07D0022B8C
:4022000009D0002B0BD1002387F83D300BE0102387F83D3007E0202387F83D3003E0002387F83D3000BF97F83F2097F83E301343DAB297F83D301343DBB287F83030734B95
:402240005B7B002B07D097F8303063F07F03DBB287F8303006E097F8303003F07F03DBB287F83030694B1B7B002B07D097F8303043F04003DBB287F8303006E097F83030AE
:4022800023F04003DBB287F830305F4B1B78002B06D107F130030121184600F0E5FD06E007F130000023FF22012100F0FBFD564B1B78002B05D1564A0121564800F0DEFBE6
:4022C00007E0554B0093554B514A0121514800F039FC4D4B1B78002B05D14D4A0121504800F0CCFB07E04C4B00934C4B484A01214B4800F027FC444B1B78002B05D1444AC2
:402300000121484800F0BAFB07E0434B0093434B3F4A0121434800F015FC0023BB833A4B1B78002B06D107F11C030121184600F0C1FC07E007F11C004FF000033A4A0121D7
:4023400000F0E4FC314B93F82C30012B07D0022B09D0002B0BD1002387F83C300BE0102387F83C3007E0202387F83C3003E0002387F83C3000BF254B93F83430012B07D0DC
:40238000022B09D0002B0BD1002387F83B300BE0042387F83B3007E0082387F83B3003E0002387F83B3000BF184B93F83C30012B07D0022B09D0002B0BD1002387F83A30E6
:4023C0000BE0012387F83A3007E0022387F83A3003E0002387F83A3000BF97F83C2097F83B301343DAB297F83A301343DBB287F83030054B1B78002B18D107F1300301217C
:40240000184600F031FD18E01885FF1FD080FF1F00FEFF46F080FF1F0001003800FEFFC6E880FF1FE080FF1F00FF7F4707F130000023FF22012100F035FDAF4B9B6AAF49C2
:40244000184604F0FFFA0346AC49184604F0F2F90346184604F0F8FC03469BB23B81A64B1B6BA649184604F0EDFA0346A349184604F0E0F90346184604F0E6FC03469BB2A3
:402480007B819D4B9B6B9D49184604F0DBFA03469A49184604F0CEF90346184604F0D4FC03469BB2BB81964B1B78002B06D107F108030321184600F059FD07E007F108007B
:4024C00000234FF6FF72032100F07AFD8C4B1B78002B05D1012200218A4800F0EDFD04E001220021874800F04DFE854B1B78002B05D101220121844800F0DEFD04E00122A4
:402500000121814800F03EFE7D4B1B78002B05D1012204217D4800F0CFFD04E0012204217A4800F02FFE764B1B78002B05D101220521774800F0C0FD04E001220521744861
:4025400000F020FE6E4B1B78002B05D101220621704800F0B1FD04E0012206216D4800F011FE674B1B78002B05D1012207216A4800F0A2FD04E001220721674800F002FEDE
:4025800000F04CFA002387F830305D4B1B78002B06D107F130030121184600F065FCB0E107F130000023FF22012100F07BFCA8E17B681B78012B40F0A381514B1B78002B4B
:4025C00006D107F130030321184600F04DFC06E007F130000023FF22032100F063FC484B1B78002B06D107F130030221184600F03BFC06E007F130000023FF22022100F0F9
:4026000051FC97F83030184604F0C4F903464349184604F017FA03464149184604F00AF903461A46344B9A6497F83130184604F0B1F903463949184604F004FA03463849F8
:40264000184604F0F7F803461A462B4BDA642A4B9B6C3349184604F089FB0346002B03D0254B4FF000029A64234BDB6C2C49184604F07CFB0346002B03D01F4B4FF0000213
:40268000DA641F4B1B78002B04D10121254800F0EBFB05E00023FF220121224800F002FC174B1B78002B04D101211F4800F0DCFB05E00023FF2201211B4800F0F3FB104BAB
:4026C0001B78002B05D10D4A0121184800F0D6F907E0174B0093174B084A0121134800F031FA074B1B78002B28D1044A0121124800F0C4F92AE000BFD080FF1F00FEFF468C
:402700001885FF1F1081FF1F1181FF1F1281FF1F1381FF1F1481FF1F1581FF1FCDCCCC3D000020412081FF1F2181FF1F3081FF1F0001003800FEFFC62481FF1F744B009353
:40274000744B754A0121754800F0FCF9744B1B78002B05D1704A0121724800F08FF907E06B4B00936B4B6C4A01216E4800F0EAF96B4B1B78002B05D1674A01216A4800F0B0
:402780007DF907E0624B0093624B634A0121664800F0D8F9624B1B78002B06D107F130030221184600F060FB06E007F130000023FF22022100F076FB594B1B78002B05D14A
:4027C00001220021594800F077FC04E001220021564800F0D7FC524B1B78002B05D101220121534800F068FC04E001220121504800F0C8FC4A4B1B78002B05D101220221BF
:402800004C4800F059FC04E001220221494800F0B9FC00F003F9424B1B78002B05D101220021454800F048FC04E001220021424800F0A8FC00F0F2F8394B1B78002B04D116
:4028400001213E4800F010FB05E00023FF2201213A4800F027FB324B1B78002B04D10121374800F001FB05E00023FF220121344800F018FB2A4B1B78002B04D101213148CC
:4028800000F0F2FA05E00023FF2201212D4800F009FB234B1B78002B04D101212A4800F065FB06E000234FF6FF720121264800F087FB1B4B1B78002B04D10121234800F06C
:4028C00055FB06E000234FF6FF7201211F4800F077FB134B1B78002B04D101211C4800F045FB0EE000234FF6FF720121184800F067FB06E07B6801221A7102E000BF00E0A4
:4029000000BF00F099F8034618464037BD4680BD0001003800FEFFC600FEFF462481FF1F1885FF1F2881FF1F2C81FF1F3E81FF1F3F81FF1F4081FF1F4281FF1F3A81FF1F56
:402940003B81FF1F3C81FF1F3481FF1F3681FF1F3881FF1F80B584B000AF7860154B1B68002B23D07B689B79002B00D01FE07B685A6E7B681A670023FB600FE00D4B1B68EA
:4029800003F216207B681B6F591C7A6811671B78194601F017FEFB680133FB607B68B3F862301A46FB689A42E8DC00E000BF1037BD4680BDEC84FF1F80B483B000AF7860A1
:4029C00000BF0C37BD4680BC704700BF80B500AF0A4B1B68002B0ED0084B1B689B68002B09D0064B1B689B68044A1268126810469847034600E00023184680BDEC84FF1FBB
:402A000080B483B000AF7860034A7B68136000BF0C37BD4680BC7047B885FF1F80B400AF044B1B680133034A136000BFBD4680BC704700BFB885FF1F80B400AF024B1B6887
:402A40001846BD4680BC7047B885FF1F80B400AF034B00221A7000BFBD4680BC704700BF1885FF1F80B400AF034B02221A7000BFBD4680BC704700BF1885FF1FF0B587B0B1
:402A800000AFF860B9607A6051E0FB681B687968184603F0D7FF03461E46FB681B68012214464FF00001184604F088F90346002B01D100231C46E3B21C46FB681B6801220F
:402AC00015464FF00001184604F05AF90346002B01D100231D46EBB2E31A184603F05EFF03464FF07C51184603F0ACFF03461946304603F09FFE0346184604F07FF9034627
:402B0000FB820F4B1B685A1C0D490A60B7F91620121212B2D2B21A70094B1B685A1C08490A60FA8AD2B21A70FB680433FB60BB685A1EBA60002BA8D100BF1C37BD46F0BD7F
:402B4000B885FF1F80B586B000AFF860B9607A603B60564B1B78012B40F09E804EE0544B1B681B78DBB21B021BB21A46504B1B6801331B78DBB21343184603F00FFF034622
:402B80007B614B4B1B680233494A1360396A786903F058FF03467B61FB681B687969184603F048FE03461A46FB681A60FB681B687968184604F002F90346002B02D0FB6850
:402BC0007A681A60FB681B683968184604F0D8F80346002B02D0FB683A681A60FB681B681946184604F0F4F80346002B03D0FB684FF000021A60FB680433FB60BB685A1E93
:402C0000BA60002BABD14CE0294B1B681B78DBB21B021BB21A46264B1B6801331B78DBB21343184603F0BAFE03463B61204B1B6802331F4A1360396A386903F003FF034639
:402C40003B61FB683A691A60FB681B687968184604F0B4F80346002B02D0FB687A681A60FB681B683968184604F08AF80346002B02D0FB683A681A60FB681B6819461846AB
:402C800004F0A6F80346002B03D0FB684FF000021A60FB680433FB60BB685A1EBA60002BB2D100BF1837BD4680BD00BF1885FF1FB885FF1F80B485B000AF7860396018E021
:402CC0007B681B88FB81104B1B685A1C0E490A60B7F90E20121212B2D2B21A700A4B1B685A1C09490A60FA89D2B21A707B6802337B603B685A1E3A60002BE1D100BF1437BF
:402D0000BD4680BC704700BFB885FF1F80B586B000AFF860B9607A603B60514B1B78012B40F0948049E04F4B1B681B78DBB21B021AB24C4B1B6801331B78DBB21BB2134304
:402D4000FB82484B1B680233464A1360FB68B3F900309AB2FB8A13449BB21AB2FB681A80FB68B3F90030184603F018FE03467968184604F023F80346002B06D0786804F0B0
:402D80003DF803461AB2FB681A80FB68B3F90030184603F003FE03463968184603F0F0FF0346002B06D0386804F028F803461AB2FB681A80FB680233FB60BB685A1EBA6059
:402DC000002BB0D147E0274B1B681B78DBB21B021AB2244B1B6801331B78DBB21BB21343BB82204B1B6802331E4A1360FB68BA8A1A80FB68B3F90030184603F0CFFD034678
:402E00007968184603F0DAFF0346002B06D0786803F0F4FF03461AB2FB681A80FB68B3F90030184603F0BAFD03463968184603F0A7FF0346002B06D0386803F0DFFF034639
:402E40001AB2FB681A80FB680233FB60BB685A1EBA60002BB7D100BF1837BD4680BD00BF1885FF1FB885FF1F80B483B000AF786039600AE00A4B1B685A1C09490A607A68AE
:402E800012781A707B6801337B603B685A1E3A60002BEFD100BF0C37BD4680BC704700BFB885FF1F80B487B000AFF860B96011461A460B46FB711346BB712A4B1B78012BA2
:402EC00046D122E0284B1B685A1C27490A601B78DBB2FB74FB681B787B6197F913307A6913447B61FA797B699A4201DAFB797B61BA797B699A4201DDBB797B617B69DAB27A
:402F0000FB681A70FB680133FB60BB685A1EBA60002BD7D121E0144B1B685A1C12490A601B78BB74FB68BA7C1A70FB681B78FA799A4202D2FB68FA791A70FB681B78BA7985
:402F40009A4202D9FB68BA791A70FB680133FB60BB685A1EBA60002BDDD100BF1C37BD4680BC70471885FF1FB885FF1F80B483B000AF7860396016E0104B1B685A1C0F49B3
:402F80000A607A681288120A92B2D2B21A700B4B1B685A1C09490A607A681288D2B21A707B6802337B603B685A1E3A60002BE3D100BF0C37BD4680BC704700BFB885FF1F8F
:402FC00080B487B000AFF860B96011461A460B46FB801346BB80364B1B78012B5ED12DE0344B1B681B78DBB29BB21B029AB2314B1B6801331B78DBB29BB21343FB822D4BF0
:403000001B6802332B4A1360FB681A88FB8A13449AB2FB681A80FB681B88FA889A4202D2FB68FA881A80FB681B88BA889A4202D9FB68BA881A80FB680233FB60BB685A1E43
:40304000BA60002BCCD12EE01A4B1B681B78DBB29BB21B029AB2174B1B6801331B78DBB29BB21343BB82134B1B680233114A1360FB68BA8A1A80FB681B88FA889A4202D22C
:40308000FB68FA881A80FB681B88BA889A4202D9FB68BA881A80FB680233FB60BB685A1EBA60002BD0D100BF1C37BD4680BC70471885FF1FB885FF1F80B485B000AF7860D1
:4030C0000B46FB701346BB702D4B1B681B78BB730023FB73BB78013B072B2BD801A252F823F000BF053100000B31000011310000173100001D3100002331000029310000E8
:403100002F3100000123FB7315E00323FB7312E00723FB730FE00F23FB730CE01F23FB7309E03F23FB7306E07F23FB7303E0FF23FB7300E000BFFA7BFB7802FA03F35BB2B7
:40314000DB435AB297F90E3013405BB2BB737B681A78FB7B1340DBB21A46FB7802FA03F35AB297F90E3013435BB2BB73044B1B68BA7B1A7000BF1437BD4680BC704700BF7E
:40318000B885FF1F80B485B000AF78600B46FB701346BB700023FB73BB78013B072B2BD801A252F823F000BFC9310000CF310000D5310000DB310000E1310000E73100005A
:4031C000ED310000F33100000123FB7315E00323FB7312E00723FB730FE00F23FB730CE01F23FB7309E03F23FB7306E07F23FB7303E0FF23FB7300E000BF174B1B78012BDB
:4032000015D1164B1B681B78DBB21A46FB7842FA03F35AB297F90F3013405BB2BB737B681A78BB7B5340DAB27B681A700FE00B4B1B681B78DBB21A46FB7842FA03F35AB206
:4032400097F90F3013405BB2DAB27B681A7000BF1437BD4680BC70471885FF1FB885FF1F80B582B000AF786074220021786803F042FE7B680022DA667B6800229A667B682B
:4032800000221A67002318460837BD4680BD00BF80B584B000AF78607B6803F11C027B681A677B6803F11C027B685A667B6800221A717B685B79002B0AD02F4B1B68002B57
:4032C00004D02D4B1B687868984704E001234EE0786800F0F3FA7B681A6F7B68DA667B689B7C002B22D07B6803F11C017B68B3F86230053B1A464FF0FF3000F027FCF8601A
:403300000023BB607B68B3F86230053B18337A681344191D07F108030422184603F0E0FDBB68FA689A4201D0072320E07868FFF743FB7B681B7C032B16D801A252F823F0D8
:4033400061330000513300005933000059330000786800F013F809E0786800F057F805E0786800F0B5F801E0022300E0002318461037BD4680BD00BFF484FF1FB0B588B0F8
:4033800002AF786000237B6136E07B685A7E1E497B6911F833309A4203D07B685B7E002B27D107F10C03184600F00CFC7B689B7C7B737B68DB7C3B737B689B7DBB730123F5
:4033C000FB737B681B7E3B747B69DB000E4A98187B68D9687B689C796B4607F11002126815461D800233120C1A70FB68224600F007FC7B6901337B617B69002BC5DD00BF25
:403400001837BD46B0BD00BFB085FF1FB0B588B002AF78607B681B7C032B03D17B6805221A7006E07B681B7C022B02D17B6803221A7000237B6141E07B685A7E23497B6968
:4034400011F833309A4203D07B685B7E002B32D11E4A7B69DB0013445B68786898477B685B78002B27D107F10C03184600F0AAFB7B689B7C7B737B68DB7C3B737B689B7DA9
:40348000BB730123FB737B681B7E3B747B69DB000E4A98187B68D9687B689C796B4607F11002126815461D800233120C1A70FB68224600F0A5FB7B6901337B617B69002BD6
:4034C000BADD00BF1837BD46B0BD00BFB085FF1F80B584B000AF78607B6801221A700023FB6009E0084AFB68DB0013445B6878689847FB680133FB60FB68002BF2DD00BF47
:403500001037BD4680BD00BF1C85FF1F80B582B000AF78607B6803F120027B689A667B689A6E7B681A677B685B79002B0AD0094B1B68002B04D0074B1B687868984704E063
:40354000012303E0786800F0F5F8002318460837BD4680BDF084FF1F80B586B000AF78600023FB757B681B79012B01D10823DDE07B681B6F1A467B689B6ED31A9AB27B683E
:403580001A817B685B79002B03D17B681B89642B07D97B6803F11C027B685A660123FB7504E07B6803F11D027B685A667B681B6F1A467B685B6ED31A9AB27B68A3F8622069
:4035C0007B689B7C002B29D07B68B3F8623003F00303C3F104033B617B681B6F3A690021184603F088FC7B681A6F3B691A447B681A677B68B3F862203B699BB213449AB2C1
:403600007B68A3F862207B681B6F1A467B689B6ED31A9BB204339AB27B681A817B685B79002B12D07B6851221A777B6842225A777B681B891B0A9BB2DAB27B689A777B6877
:403640001B89DAB27B68DA772AE0FB7D002B19D07B6851221A777B6858225A777B681B895BB263F07F035BB2DAB27B689A777B681B89DB099BB2DBB203F07F03DAB27B681C
:40368000DA770DE07B6851225A777B6858229A777B681B89DBB203F07F03DAB27B68DA777B689B7C002B22D07B68596E7B68B3F862301A464FF0FF3000F048FA0346BB60A9
:4036C0007B681B6F07F108010422184603F008FC7B681B6F1A1D7B681A677B681B6F1A467B685B6ED31A9AB27B68A3F862207B689A6E7B681B891946104600F069F9034665
:40370000FB737B681B6F591C7A681167FA7BD243D2B21A707B68B3F8623001339AB27B68A3F862207868FFF715F9002318461837BD4680BD80B584B000AF78607B689A6ED8
:403740007B681A677B6803F170027B68DB681946104600F05BF97B6800225A747B689B7C002B02D07B6801225A740023FB737B681B7C5BB203F00F035AB2FB7BDBB25BB2A6
:4037800013435BB2DBB2FB737B68DB7C1B015BB203F010035AB2FB7BDBB25BB213435BB2DBB2FB737B68DB7D5B015BB203F020035AB2FB7BDBB25BB213435BB2DBB2FB7394
:4037C0007B689B7D9B015BB203F040035AB2FB7BDBB25BB213435BB2DBB2FB737B685B7CDB015AB2FB7BDBB25BB213435BB2DBB2FB737B681B6F591C7A681167FA7BD2B230
:403800001A707B685B7C002B16D00023FB737B689B7C5BB203F001035AB2FB7BDBB25BB213435BB2DBB2FB737B681B6F591C7A681167FA7BD2B21A707B689B7D002B12D162
:403840007B6803F170027B681B7E1946104600F0DDF87B6803F170027B685B7E1946104600F0D4F805E07B6800221A767B6800225A767B68DB7D002B12D17B6803F17002B2
:403880007B689B7E1946104600F0C0F87B6803F170027B68DB7E1946104600F0B7F805E07B6800229A767B680022DA767B681A6F7B68DA6600BF1037BD4680BD80B584B049
:4038C00000AF78607B689A6E7B681A677B687033184600F0DFF802467B68DA607B681B6F591C7A6811671B78FB73FB7BDBB203F00F03DAB27B681A74FB7BDBB21B09DBB2EC
:4039000003F00103DAB27B68DA74FB7BDBB25B09DBB203F00103DAB27B68DA75FB7BDBB29B09DBB203F00103DAB27B689A75FB7BDBB2DB09DAB27B685A747B685B7C002B78
:403940000DD07B681B6F591C7A6811671B78FB73FB7BDBB203F00103DAB27B689A747B689B7D002B11D17B687033184600F092F80346DAB27B681A767B687033184600F034
:4039800089F80346DAB27B685A767B68DB7D002B11D17B687033184600F07CF80346DAB27B689A767B687033184600F073F80346DAB27B68DA767B68DB7C002B04D07B6843
:4039C0001B6F9A1C7B681A6700BF1037BD4680BD80B485B000AF786039600023FB720023FB6009E07B685A1C7A601A78FB7A1344FB72FB680133FB60FA683B689A42F1D3C8
:403A0000FB7A18461437BD4680BC704780B485B000AF786039600023FB6033E0FA681346DB009B1A3A6822FA03F3DBB203F07F03FB72FB685A1C1346DB009B1A3A6822FA6A
:403A400003F3DBB203F07F03BB72BB7A002B0CD07B681B68FA7A62F07F02D2B21A707B681B685A1C7B681A6009E07B681B68FA7A1A707B681B685A1C7B681A6005E0FB6823
:403A80000133FB60FB68032BC8DD00BF1437BD4680BC704780B485B000AF78600023FB600023BB6022E07B681B681B7803F07F01BA681346DB009B1A01FA03F3FA68134373
:403AC000FB607B681B681B785BB2002B05DA7B681B685A1C7B681A6005E07B681B685A1C7B681A6005E0BB680133BB60BB68032BD9DDFB6818461437BD4680BC704700BFE5
:403B000080B485B000AF0346FB71FB791B06BB600023FB730EE0BB68002B05DABB685A00094B5340BB6002E0BB685B00BB60FB7B0133FB73FB7B072BEDD9BB681846143710
:403B4000BD4680BC704700BFB71DC10480B586B000AFF860B9607A60FB683B6100237B6115E03B691B0E5AB2B9687B690B441B785BB253405BB2DBB21846FFF7C1FF024649
:403B80003B691B0253403B617B6901337B617A697B689A42E5D33B6918461837BD4680BD80B485B000AFF8600B467A60FB72FB687A685A60FB68FA7A1A7000BF1437BD46C1
:403BC00080BC704780B483B000AF78607B6800229A707B680022DA707B6800229A717B6800221A717B6800225A717B6800221A707B6800225A7000BF0C37BD4680BC7047C0
:403C000082B080B5A2B000AFF860B960C7F894301346FB7107F114031846FFF721FBFB79BB76BB683B62002387F8243097F8983087F82D3097F8993087F82E3097F89A30C8
:403C400087F82F30FB681B7887F82C3097F8943087F8273097F8953087F8263007F114031846FFF753FC00233B75FB685B6807F11402104698470346C7F8843007F114038A
:403C80001846FFF769FC034618468837BD46BDE8804002B0704700BF82B080B5A2B000AFF860B960C7F894301346FB7107F114031846FFF7D5FAFB79BB76BB683B62012379
:403CC00087F8243097F8983087F82D30002387F82E3097F89A3087F82F30FB681B7887F82C3097F8943087F8273097F8953087F8263007F114031846FFF708FC07F11403EE
:403D00001846FFF729FC034618468837BD46BDE8804002B0704700BF82B080B5A2B000AFF860B960C7F894301346FB7107F114031846FFF795FAFB79BB76BB683B62022377
:403D400087F8243097F8983087F82D3097F8993087F82E3097F89A3087F82F30FB681B7887F82C3097F8943087F8273097F8953087F8263007F114031846FFF7C7FB022364
:403D80003B75FB685B6807F11402104698470346C7F8843007F114031846FFF7DDFB034618468837BD46BDE8804002B0704700BF90B585B000AF03460A46FB711346BB714A
:403DC000FB79B94A8C2101FB03F313441B78072B00F2578301A252F823F000BFFD3D00007B3E0000293F00002740000031410000A54100008142000059430000BB79512BDD
:403E00002AD1FB79A84A8C2101FB03F31344023301221A80FB79A44A8C2101FB03F313442033BA791A70FB79FA798C2101FB02F219329D490A4408329B498C2000FB03F313
:403E40000B4474331A60FB79974A8C2101FB03F3134401221A7014E3FB7993498C2202FB03F20A448432126801328F498C2000FB03F30B4484331A6003E3FA798A498C2372
:403E800003FB02F30B4474331B68591C86488C2404FB02F2024474321160BA791A70FB7981498C2202FB03F20A4402321288013290B27D4A8C2101FB03F3134402330246ED
:403EC0001A80BB79582B11D1FB79774A8C2101FB03F31344093300221A70FB79724A8C2101FB03F3134402221A70CAE2BB79422B11D1FB796C4A8C2101FB03F3134409331D
:403F000001221A70FB79684A8C2101FB03F3134404221A70B5E2FB79634A8C2101FB03F3134400221A70ACE2FA795F498C2303FB02F30B4474331B68591C5B488C2404FB23
:403F400002F2024474321160BA791A70FB7956498C2202FB03F20A4402321288013290B2514A8C2101FB03F31344023302461A8097F90630002B16DAFB79BA7992B222F069
:403F8000800290B2484A8C2101FB03F313440C3302461A80FB79444A8C2101FB03F3134403221A7066E2FB79BA7990B23E4A8C2101FB03F313440C3302461A80FB79FA7936
:403FC00039498C2000FB02F20A447432126836498C2000FB03F30B446C331A60FB79324A8C2101FB03F31344063300221A70FB792D4A8C2101FB03F3134406221A70FB79E0
:40400000294A8C2101FB03F313440C331B88402B40F23082FB79244A8C2101FB03F3134400221A7026E2FA791F498C2303FB02F30B4474331B68591C1B488C2404FB02F2E9
:40404000024474321160BA791A70FB7916498C2202FB03F20A4402321288013290B2124A8C2101FB03F31344023302461A80FB79FA790D498C2000FB02F20A447432126873
:4040800009498C2000FB03F30B446C331A6097F90630002B0ADAFB79034A8C2101FB03F3134400221A702FE02485FF1FFA79FB79A8498C2000FB03F30B440C331B8819B22A
:4040C000BB79DB011BB223F4804323F07F031BB20B431BB298B29F498C2303FB02F30B440C3302461A80FB799A4A8C2101FB03F31344063300221A70FB79964A8C2101FB18
:4041000003F3134406221A70FB79924A8C2101FB03F313440C331B88402B40F2AD81FB798C4A8C2101FB03F3134400221A70A3E1FA7988498C2303FB02F30B4474331B68BE
:40414000591C84488C2404FB02F2024474321160BA791A70FB797F498C2202FB03F20A4402321288013290B27A4A8C2101FB03F31344023302461A80FB79BA7992B2120204
:4041800090B2744A8C2101FB03F313440C3302461A80FB796F4A8C2101FB03F3134405221A706EE1FA796B498C2303FB02F30B4474331B68591C67488C2404FB02F2024476
:4041C00074321160BA791A70FB7962498C2202FB03F20A4402321288013290B25D4A8C2101FB03F31344023302461A80FB79FA7958498C2000FB02F20A44743212685549B8
:404200008C2000FB03F30B446C331A60FB79FA7950498C2000FB02F20A440C321188BA7992B20A4390B24B4A8C2101FB03F313440C3302461A80FB79464A8C2101FB03F3E4
:404240001344063300221A70FB79424A8C2101FB03F3134406221A70FB793E4A8C2101FB03F313440C331B88402B40F20781FB79384A8C2101FB03F3134400221A70FDE0EC
:40428000FA7934498C2303FB02F30B4474331B68591C30488C2404FB02F2024474321160BA791A70FB792B498C2202FB03F20A4402321288013290B2264A8C2101FB03F321
:4042C0001344023302461A80FB79FA7921498C2000FB02F20A4406321178BA790A44D0B21C4A8C2101FB03F31344063302461A70FB79184A8C2101FB03F313440C331B883D
:404300001846FB79134A8C2101FB03F3134402331B881C46FB790F4A8C2101FB03F313446C331B681946FB798C2202FB03F31833084A13440833CB1AE31A984200F3A080C7
:40434000FB79044A8C2101FB03F3134407221A7096E000BF2485FF1FFA794C498C2303FB02F30B4474331B68591C48488C2404FB02F2024474321160BA791A70FB794349F1
:404380008C2202FB03F20A4402321288013290B23E4A8C2101FB03F31344023302461A80BB79FB73FB79394A8C2101FB03F3134400221A70FB79354A8C2101FB03F3134413
:4043C0000A33FA791A70FB7BFA7930498C2000FB02F20A44063212781344FF2B39D1FB792A4A8C2101FB03F31344783300221A60FC79FEF7EBFA0146244A8C2303FB04F31E
:40440000134488331960FB79204A8C2101FB03F313447C3301221A70FB79FA791B498C2000FB02F20A4402321088184A8C2101FB03F31344663302461A80FB798C2202FBCF
:4044400003F3124A134404331846FEF721FF012318E0FB790D498C2202FB03F20A4480321268013209498C2000FB03F30B4480331A6006E000BF04E000BF02E000BF00E082
:4044800000BF002318461437BD4690BD2485FF1F80B483B000AF0346FB80FB880133FB80FB88FF2B01D90023FB80FB8818460C37BD4680BC704700BF80B483B000AF786062
:4044C0007B680022A3F800217B680022A3F802217B680022A3F8042100BF0C37BD4680BC704700BF80B584B000AF78600B46FB707B68B3F800319BB21846FFF7C9FF03469F
:40450000FB817B68B3F802319BB2FA899A420AD17B68B3F804319BB201339AB27B68A3F8042100230CE07B68B3F800319BB219467B68FA785A547B68FA89A3F800210123C1
:4045400018461037BD4680BD80B582B000AF786039607B68B3F800319AB27B68B3F802319BB29A4201D1002316E07B68B3F802319BB21A467B689B5CDAB23B681A707B680B
:40458000B3F802319BB21846FFF782FF03461A467B68A3F80221012318460837BD4680BD80B483B000AF78607B68002283F840207B68002283F8412000BF0C37BD4680BCC0
:4045C000704700BF80B485B000AF78600B46FB707B6893F840300133DBB203F03F03FB737B6893F84130FA7B9A4201D100230BE07B6893F8403019467B68FA785A547B6824
:40460000FA7B83F84020012318461437BD4680BC704700BF80B483B000AF786039607B6893F840207B6893F841309A4201D1002313E07B6893F841301A467B689A5C3B68F5
:404640001A707B6893F841300133DBB203F03F03DAB27B6883F84120012318460C37BD4680BC704780B582B000AF786039603A680021786802F03FFC00BF0837BD4680BD40
:4046800080B584B000AFF860B9607A607A68B968F86802F025FC00BF1037BD4680BD00BF80B483B000AF0346FB71FEE780B487B000AF7860396000233B6100237B6127E01C
:4046C0007B699B007A6813441B68BB60BB68FB73BB6823F0FF03BB6014E03B695B003A6813441B781A46BB68134419463B695B003A6813445B780B703B6901333B61FB7B98
:40470000013BFB73FB7B002BE7D17B6901337B617B691D2BD4D900BF1C37BD4680BC704780B582B000AF424B00221A80414B50221A70414B19221A80404B18221A70404B7F
:404740001A221A803F4B18221A7004223E493F48FFF796FF3E4B02221A704FF0402308221A703C4B03221A703B4B3C4A1278D2B21A703B4B08221A803A4B41F251221A80E0
:404780000023FB7019237B6014E0FB785B00DAB2354B1B78DBB203F00103DBB21343DBB203F00303FB704FF4F07001F025FC7B68013B7B607B68002B02D0FB78032BE4D1B6
:4047C0007B68002B02D10320FFF76AFF274B4FF480721A80254B07221A70254B00221A70244B48221A70214B00221A70224B02221A70224B04221A70214A214B1B78DBB22C
:4048000043F00703DBB213701E4A1E4B1B78DBB243F00103DBB213701B4A1B4B1B78DBB263F07F03DBB2137000BF0837BD4680BD80400040824000408440004086400040D9
:40484000884000408A40004044060048004100400043004000420040A146004008010049224200402042004025420040044000400640004008400040014000400B4000400A
:40488000A2430040A1430040A043004080B483B000AF0B4B1B78FB710A4AFB7903F00703DBB21370084AFB791B09DBB21370074B44221A7000BF0C37BD4680BC704700BF59
:4048C000CF0100496E5800406F5800407658004080B483B000AF0346FB71FB79012B24D8FA79FB791344FB71FB79124A52F82330FA79104951F822201178FA790E48825C7F
:404900000A43D2B21A70FB790133FB71FB79094A52F82330FA79074951F822201178FA790548825C0A43D2B21A7000BF0C37BD4680BC7047589700006897000080B483B087
:4049400000AF0346FB71FB79012B28D8FA79FB791344FB71FB79144A52F82330FA79124951F822201178FA791048825CD243D2B20A40D2B21A70FB790133FB71FB790A4AC2
:4049800052F82330FA79084951F822201178FA790648825CD243D2B20A40D2B21A7000BF0C37BD4680BC7047589700006897000080B483B000AF0346FB71FB79012B0ED8BB
:4049C000FB79094A52F82330FA79074951F822201178FA790548825C0A43D2B21A7000BF0C37BD4680BC70476C9700007497000080B483B000AF0346FB71FB79012B10D82A
:404A0000FB790A4A52F82330FA79084951F822201178FA790648825CD243D2B20A40D2B21A7000BF0C37BD4680BC70476C9700007497000080B586B000AF72B64F4A4F4B2E
:404A40001B78DBB243F00403DBB213700023FB7513E0FA7D13465B0013445B00484A13443B613B691A683B699B889BB219461046FFF7F8FDFB7D0133FB75FB7D072BE8D983
:404A80000023FB751CE0FA7D13469B0013445B003C4A1344FB60FB681B68BB60FB685B687B60FB681A7A5B7A1B0213437B807B881A467968B868FFF7E3FDFB7D0133FB7580
:404AC000FB7D002BDFD030494FF09040FFF7EEFD2E4B0A221A702E4A2D4B1B78DBB243F00203DBB213702B4A2A4B1B78DBB243F00203DBB21370284A274B1B78DBB243F0EB
:404B00004003DBB21370254A244B1B78DBB243F01003DBB21370082221492248FFF7B0FD0A2221492148FFF7ABFD082220492148FFF7A6FD082220492048FFF7A1FD204A02
:404B40001F4B1B78DBB243F00803DBB213701D4B60221A70FFF7E4FD1A4B80221A701A4B01221A70FFF792FE0E220B491748FFF787FD00BF1837BD4680BD00BFE846004011
:404B800078970000A897000078000048835800400350014013500140A0430040C2430040200600480251004028060048C051004034060048125100403C0600482251004002
:404BC000224300400048004004000840B043004080B500AF02F058F903461B680C2B00D1FEE7FEE780B584B000AF78600F4B1A687B6813441A460E4BD31A802B09DC0B4BB2
:404C00001B68FB60094B1A687B681344074A136007E002F039F902460C2313604FF0FF33FB60FB6818461037BD4680BD4481FF1FC885FF1F80B586B000AF224B7B61224B9B
:404C40003B61204B7B6135E03B691B68FB603B695B68BB603B699B683B6000237B600CE0FB681A68BB681A60BB680433BB60FB680433FB607B6804337B607A683B689A42CA
:404C8000EED13B69DB683B6000237B6008E0BB6800221A60BB680433BB607B6804337B607A683B689A42F2D13B6910333B617B69013B7B617B69002BC6D102F0EBF8FBF794
:404CC000FDFDFEE7010000005899000080B582B000AF184B184A1A60184A184B1B6843F40073136000237B600FE07B68032B04D8134A7B6852F8233000E0124B12497A68F8
:404D000041F822307B6801337B607B682F2BECD90E4B1B78DAB20E4B1A700E4B0A4A1A60FFF788FE0C4B00221A6000BF0837BD4680BD00BF0CED00E00004FA0514ED00E049
:404D400000000000D14B00000080FF1FBC760040C480FF1F08ED00E0C080FF1F80B582B002AF324B01221A70314B00221A70102000F0ACFF102001F08FF807211D2001F03F
:404D800015F92C4B04221A702B4B00221A702B4B00221A702A4A2A4B1B78DBB243F01803DBB21370274B00221A70274B00221A70264B00221A70264B0A221A70254B002201
:404DC0001A70254B00221A70244B12221A70244B13221A70234B00221A70234B14221A700123009308234FF400424FF40041032000F016FA1D4A0D4B1B78DBB2013B1C49DC
:404E00009B000B449B7813701A4A084B1B78DBB2013B174931F823301380044B1B78DBB2184600F04BF900BFBD4680BD4881FF1FFC84FF1F96580040975800409E58004058
:404E4000075B004093580040885B0040895B004080580040815800408358004088580040895800408D580040014E00400E4E00400485FF1F0C4E004080B582B000AF01F0F9
:404E8000DAF80346FB71444B1B78BB71434A434B1B78DBB243F00103DBB213703F4A3F4B1B78DBB243F01003DBB213703C4A3C4B1B78DBB243F00103DBB21370384A384B99
:404EC0001B78DBB243F01003DBB21370354A354B1B78DBB243F00203DBB21370324A324B1B78DBB243F00203DBB213702F4A2F4B1B78DBB243F00303DBB21370032001F004
:404F000019F8284A274B1B78DBB223F00203DBB21370254A244B1B78DBB223F00203DBB21370234A224B1B78DBB243F00603DBB21370204B7A221A701F4A1F4B1B78DBB244
:404F400043F00103DBB213701C4A1C4B1B78DBB243F00103DBB21370194A194B1B78DBB243F00103DBB21370164A164B1B78DBB243F00103DBB21370134B4FF000521A60F7
:404F8000124B4FF000521A60FB79184601F057F800BF0837BD4680BD4881FF1FAA430040BA430040F8460040F9460040915800407758004082580040A1430040B143004041
:404FC000A2430040B243004080E200E000E100E080B500AF084B1B78002B09D1074B1B78DBB2002B01D1FFF7B9FE034B01221A70FFF742FF00BF80BDFE84FF1FFF84FF1FFA
:4050000080B400AF054A054B1B78DBB243F00103DBB2137000BFBD4680BC7047004E004080B400AF054A054B1B78DBB223F00103DBB2137000BFBD4680BC7047004E004038
:4050400080B483B000AF174B1B78DBB203F003037B717B79012B03D8134B1B88FB8011E0114B1B78DBB2FB80104B1B78DBB29BB21B029AB2FB881343FB807B79032B01D1DB
:405080000B4B1B780B4B1B78DBB2002B02D00A4B00221A70B7F9063018460C37BD4680BC704700BF144E0040104E0040114E0040124E0040FD84FF1FFC84FF1F80B582B034
:4050C00000AF0346FB71384B00221A70FB79012B65D1364B34221A70354B04221A70354B06221A70344B00221A70344B00221A70334B0F221A70334B00221A70324B00222C
:405100001A70324B00221A70314B01221A70314B14221A70304B04221A70304B18221A702F4B00221A702F4B11221A702E4B12221A702E4B00221A702D4B01221A702D4B97
:4051400011221A702C4B19221A702C4B97221A70442000F01DF92A4B58221A70294B00221A70294B05221A70284B02221A70284B00221A70274B00221A70002000F0D4FC16
:40518000254B2A221A600121052000F0E1FC0121B22000F0C3FD21491D2000F0DFFE00BF0837BD4680BD00BFFD84FF1F004E0040024E0040034E0040044E0040054E00401D
:4051C000064E0040084E0040094E00400A4E0040144E0040845800408558004086580040875800408A5800408B5800408C5800408E5800408F580040905800409158004037
:4052000094580040955800409A5800409B5800409C5800409D580040BC85FF1F0D54000090B587B000AF0446084611461A462346FB710346BB800B467B801346BB7197F854
:405240002830002B00F08B8097F82830012B00F28680FB79013B092B4AD801A252F823F089520000F1520000F152000089520000F1520000F1520000A3520000BD520000D9
:40528000F1520000D7520000BB790F2B04D9374B1B78DBB2FB752EE0354B1B78DBB2FB7529E0BB790F2B04D9324B1B78DBB2FB7521E0314B1B78DBB2FB751CE0BB790F2B2F
:4052C00004D92E4B1B78DBB2FB7514E02C4B1B78DBB2FB750FE0BB790F2B04D9294B1B78DBB2FB7507E0284B1B78DBB2FB7502E00023FB7500BFBA8897F917305B011344A5
:405300003B617B883A6902FB03F3FB60FB68DB0BBB82BB790D2B12D8BA8ABB79C3F10E0342FA03F3BB8297F82830013BBA790132D1B2164A9B0013440A469A7007E097F827
:405340002830013B114A9B0013440F229A7097F82830013B0D49BA8A21F8232002E0002000F0DCFD00BF1C37BD4690BD180100491C010049190100491D0100491A010049D5
:405380001E0100491B0100491F0100490485FF1F80B584B000AF0346FB7100F04CFE0346FB73174A164B1B78DBB243F00303DBB21370144A134B1B78DBB243F00303DBB285
:4053C0001370114AFB791370032000F0B3FD0C4A0B4B1B78DBB223F00303DBB21370094A084B1B78DBB223F00303DBB21370FB7B184600F024FE00BF1037BD4680BD00BF46
:40540000F8460040F94600409258004080B400AF00BFBD4680BC704780B500AF064B1B78002B04D100F00AF8034B01221A7000F025F800BF80BD00BF0885FF1F80B400AFA2
:40544000094B72221A70094B20221A70084B06221A70084B47221A70074B00221A7000BFBD4680BC704700BF8A6500408965004028650040386500408B65004080B582B03F
:4054800000AF00F0D8FD0346FB71114A104B1B78DBB243F02003DBB213700E4A0D4B1B78DBB243F01003DBB213700B4A0A4B1B78DBB243F01003DBB2137000F015FDFB79CB
:4054C000184600F0BCFD00BF0837BD4680BD00BF9A650040996500409B65004080B483B000AF0023FB710C4B1B78BB71BB7903F02003002B09D0094B1B78FB71BB7903F068
:405500001E03002B01D00023FB71FB7918460C37BD4680BC704700BF696500404965004080B483B000AF0346FB7100BF074B1B78DBB203F00403002BF8D1054AFB791370C9
:4055400000BF0C37BD4680BC704700BF6B6500404B65004080B584B000AF78600023FB810C4B1B78002B10D009E0FB897A6813441B781846FFF7D4FFFB890133FB81FB89D8
:405580007A6813441B78002BEFD100BF1037BD4680BD00BF0885FF1F80B582B000AF0023FB7106E0FB791846FFF7C8F9FB790133FB71FB79012BF5D9034BFF221A7000BF36
:4055C0000837BD4680BD00BF4981FF1F80B582B000AF0346FB710A4B1B78FF2B04D0084B1B781846FFF7AAF9FB791846FFF770F9034AFB79137000BF0837BD4680BD00BF85
:405600004981FF1F80B582B000AF786000F03CF8786800F009F8072000F018F800F028F800BF0837BD4680BD80B485B000AF7860054B1B68FB60FB6840337A681A6000BF1B
:405640001437BD4680BC704708ED00E080B483B000AF0346FB71054AFB795B01DBB2137000BF0C37BD4680BC704700BF00E400E080B400AF034B01221A6000BFBD4680BCD3
:40568000704700BF00E100E080B400AF034B01221A6000BFBD4680BC704700BF80E100E080B400AF034B01221A6000BFBD4680BC704700BF80E200E080B500AF064B1B78E4
:4056C000002B04D100F00AF8034B01221A7000F025F800BF80BD00BF0A85FF1F80B400AF094B72221A70094B3E221A70084B06221A70084B47221A70074B02221A7000BFAB
:40570000BD4680BC704700BF8A6400408964004028640040386400408864004080B582B000AF00F088FC0346FB71104A0F4B1B78DBB243F02003DBB213700D4A0C4B1B78CB
:40574000DBB243F01003DBB213700A4A094B1B78DBB243F01003DBB21370FB79184600F06EFC00BF0837BD4680BD00BF9A640040996400409864004080B582B000AF00F042
:405780005AFC0346FB710C4A0B4B1B78DBB243F00103DBB21370084A074B1B78DBB223F00103DBB21370FB79184600F048FC00BF0837BD4680BD00BF9964004080B483B039
:4057C00000AF0346FB7100BF074B1B78DBB203F00403002BF8D1054AFB79137000BF0C37BD4680BC704700BF686400404B64004080B582B000AF00F01EFC0346FB710C4A03
:405800000B4B1B78DBB243F00103DBB21370084A074B1B78DBB223F00103DBB21370FB79184600F00CFC00BF0837BD4680BD00BF9B64004080B582B000AF786000F03CF8A8
:40584000786800F009F8072000F018F800F028F800BF0837BD4680BD80B485B000AF7860054B1B68FB60FB6844337A681A6000BF1437BD4680BC704708ED00E080B483B052
:4058800000AF0346FB71054AFB795B01DBB2137000BF0C37BD4680BC704700BF01E400E080B400AF034B02221A6000BFBD4680BC704700BF00E100E080B400AF034B022280
:4058C0001A6000BFBD4680BC704700BF80E100E080B500AF224A224B1B78DBB203F00103DBB213701F4A1F4B1B78DBB223F00303DBB213701C4A1C4B1B78DBB223F0300346
:40590000DBB21370184A184B1B78DBB243F03003DBB21370144A144B1B78DBB223F00F03DBB21370104A104B1B78DBB243F00F03DBB213700D4A0D4B1B78DBB243F00103BA
:40594000DBB2137045F6BF5000F064F845F6BF5000F072F8082000F041F800BF80BD00BF004F0040024F00400B4F0040014F004080B400AF0D4A0D4B1B78DBB243F001039E
:40598000DBB213700A4A0A4B1B78DBB243F00103DBB21370074A074B1B78DBB243F00103DBB2137000BFBD4680BC7047A3430040B3430040004F004080B500AF064B1B7855
:4059C000002B04D1FFF784FF034B01221A70FFF7CFFF00BF80BD00BF0C85FF1F80B483B000AF0346FB71044AFB79137000BF0C37BD4680BC704700BF034F004080B400AFC9
:405A0000034B1B78DBB21846BD4680BC704700BF034F004080B485B000AF0346FB80FB88FB81044AFB89138000BF1437BD4680BC704700BF044F004080B483B000AF034662
:405A4000FB80044AFB88138000BF0C37BD4680BC704700BF064F004080B582B000AF786000F03CF8786800F009F8072000F018F800F028F800BF0837BD4680BD80B485B03A
:405A800000AF7860054B1B68FB60FB6884337A681A6000BF1437BD4680BC704708ED00E080B483B000AF0346FB71054AFB795B01DBB2137000BF0C37BD4680BC704700BF35
:405AC00011E400E080B400AF034B4FF400321A6000BFBD4680BC704700E100E080B400AF034B4FF400321A6000BFBD4680BC704780E100E080B582B000AF0023FB7106E09A
:405B0000FB791846FEF774FFFB790133FB71FB79012BF5D9034BFF221A7000BF0837BD4680BD00BF4A81FF1F80B582B000AF0346FB71FFF7DFFFFB791846FEF739FF034ADF
:405B4000FB79137000BF0837BD4680BD4A81FF1F80B584B000AF03460A46FB8013467B7100F0CEF80346FB7300F0A4F80346BB81FA88BB899A4200F08880464B1B78DBB2CD
:405B800003F00103FB72FB7B002B20D1BB89002B02D0FB88002B1AD1BB89002B0BD13E4AFB8813803D4A3D4B1B78DBB223F04003DBB2137069E0394A384B1B78DBB243F0F5
:405BC0004003DBB21370344AFB8813805DE0FB7A002B33D0324B00221A70324B01221A70314B00221A70314A304B1B78DBB203F07F03DBB21370294B1B78DBB203F0080336
:405C0000002B02D0FB88002B18D1294ABB891380234B07221A7000BF214B1B78DBB203F00103002BF8D11B4A1A4B1B78DBB223F00103DBB213701A4B00221A70154B1B781A
:405C4000DBB203F00103002B13D0194AFB881380134A7B79002B01D0032300E00123137000BF0F4B1B78DBB203F00103002BF8D10BE0094AFB8813800649064B1B78DAB2E8
:405C8000FB7A1343DBB20B70FFE700BF1037BD4680BD00BFA24300408040004082400040014000401040004014400040084000400240004080B400AF034B1B889BB21846D1
:405CC000BD4680BC704700BF8040004080B483B000AF0346FB710949084B1B78DBB25AB297F9073023F007035BB213435BB2DBB20B7000BF0C37BD4680BC704782400040FD
:405D000080B400AF044B1B78DBB203F00703DBB21846BD4680BC70478240004080B584B000AF03460A46FB8013467B7100F0CEF80346FB7300F0A4F80346BB81FA88BB897C
:405D40009A4200F08880464B1B78DBB203F00103FB72FB7B002B20D1BB89002B02D0FB88002B1AD1BB89002B0BD13E4AFB8813803D4A3D4B1B78DBB223F04003DBB2137050
:405D800069E0394A384B1B78DBB243F04003DBB21370344AFB8813805DE0FB7A002B33D0324B00221A70324B01221A70314B00221A70314A304B1B78DBB203F07F03DBB2E7
:405DC0001370294B1B78DBB203F00803002B02D0FB88002B18D1294ABB891380234B07221A7000BF214B1B78DBB203F00103002BF8D11B4A1A4B1B78DBB223F00103DBB2CB
:405E000013701A4B00221A70154B1B78DBB203F00103002B13D0194AFB881380134A7B79002B01D0032300E00123137000BF0F4B1B78DBB203F00103002BF8D10BE0094A74
:405E4000FB8813800649064B1B78DAB2FB7A1343DBB20B70FFE700BF1037BD4680BD00BFA143004000410040024100400140004014400040104000400840004002400040B8
:405E800080B400AF034B1B889BB21846BD4680BC704700BF0041004080B483B000AF0346FB710949084B1B78DBB25AB297F9073023F007035BB213435BB2DBB20B7000BF76
:405EC0000C37BD4680BC70470241004080B400AF044B1B78DBB203F00703DBB21846BD4680BC70470241004080B400AF094A094B1B78DBB243F00203DBB21370064A064BA0
:405F00001B78DBB243F00203DBB2137000BFBD4680BC7047A2430040B243004080B483B000AF0346FB7101BE00BF0C37BD4680BC704700BF80B582B000AF0346FB80FB884C
:405F4000054A127802FB03F3184600F055F800BF0837BD4680BD00BF5481FF1F80B584B000AF03463960FB710F4B1B68FB60FB791F2B02D90020FFF7D1FFFB7903F01F0324
:405F800010339B00FA6813441B68BB60FB7903F01F0310339B00FA6813443A681A60BB6818461037BD4680BD08ED00E080B582B000AF03460A46FB711346BB71BB79072B8D
:405FC00002D90020FFF7AAFFFB791F2B02D90020FFF7A4FFFB7903F01F0303F1604303F56443BA795201D2B21A7000BF0837BD4680BD00BF00000000142816D902B4012162
:4060000014381049097811F0C001890904B40E4A515C04BC00BF00BF00BF8841FDD500BF00BF02BC704700BF00BF70F10400FCD570470B050709EFF3108072B6704780F34F
:4060400010887047004800403260000000F000B8F8B50C4621F00041B1F1FF4F034614DC20F00046B6F1FF4F07460EDCB4F17E5F3DD0A51705F0020545EAD07556B9022D1A
:4060800031D0032D2CD13248F8BD1946204600F0D1FBF8BD01B3B1F1FF4F2CD0B6F1FF4F1AD0711AC9153C291BDC002C39DB2146184600F07BFD00F073F900F05BF8012DCF
:4060C0002CD0022D22D0002D2FD0224900F0B2FB214900F0ADFBF8BD002F06DB1F48F8BDF8BD1E48EBE71C48F8BD1D48F8BDBDE8F84000F03FB8B6F1FF4F17D0022DF2D0BB
:40610000032DC0D0012D19D00020F8BD114900F091FB0146104800F08BFBF8BD00F10040F8BD3C31C3DA0020C9E7F8BD022D0CD0032D08D0012D04D00A48F8BD4FF0004003
:40614000F8BD0948F8BD0948F8BD0948F8BD00BFDB0F49C02EBDBB33DB0F4940DB0FC93FDB0FC9BFDB0F493FDB0F49BFE4CB16C0E4CB16402DE9F04120F00045B5F1A14FD6
:406180000446064608DBB5F1FF4F6FDC002840F3A0806F48BDE8F0816E4B9D4277DCB5F1445F68DB4FF0FF372146204600F04AFC0146804600F046FC0546674900F042FC88
:4061C000664900F037FB294600F03CFC644900F031FB294600F036FC624900F02BFB294600F030FC604900F025FB294600F02AFC5E4900F01FFB414600F024FC5C498046A0
:40620000284600F01FFC5B4900F012FB294600F019FC594900F00CFB294600F013FC574900F006FB294600F00DFC554900F000FB294600F007FC7B1C014640464CD000F075
:40624000F9FA214600F0FEFB4E4B4F4D53F8271000F0EEFA214600F0EBFA014655F8270000F0E6FA002E30DBBDE8F081014600F0E1FABDE8F081454900F0DCFA4FF07E51AC
:4062800000F09CFD00288DD02046BDE8F08100F087F83F4B04469D4229DCA3F5D0039D4244DC014600F0C6FA4FF07E5100F0C0FA4FF080410546204600F0BCFA0146284608
:4062C00000F074FC002704466EE700F10040BDE8F0813048BDE8F08100F0ACFA214600F0B1FB0146204600F0A3FABDE8F0812A4B9D4214DC4FF07F5100F09AFA4FF07F51D4
:406300000546204600F09EFB4FF07E5100F092FA0146284600F04AFC0227044644E701461E4800F043FC032704463DE74FF07E5100F07EFA4FF07E510546204600F07AFA03
:406340000146284600F032FC012704462CE700BFDB0FC93FFFFFDF3ED769853C59DA4B3D356B883D6E2EBA3D2549123EABAAAA3E21A215BD6BF16E3D95879D3D388EE33DD2
:40638000CDCC4C3EB4970000C4970000CAF24971FFFF973FDB0FC9BFFFFF1B40000080BF20F00040704700BF81F0004102E000BF83F0004330B54FEA41044FEA430594EA8F
:4063C000050F08BF90EA020F1FBF54EA000C55EA020C7FEA645C7FEA655C00F0E2804FEA5454D4EB5555B8BF6D420CDD2C4480EA020281EA030382EA000083EA010180EA30
:40640000020281EA0303362D88BF30BD11F0004F4FEA01314FF4801C4CEA113102D0404261EB410113F0004F4FEA03334CEA133302D0524263EB430394EA050F00F0A7807C
:40644000A4F10104D5F1200E0DDB02FA0EFC22FA05F2801841F1000103FA0EF2801843FA05F359410EE0A5F120050EF1200E012A03FA0EFC28BF4CF0020C43FA05F3C01818
:4064800051EBE37101F0004507D54FF0000EDCF1000C7EEB00006EEB0101B1F5801F1BD3B1F5001F0CD349085FEA30004FEA3C0C04F101044FEA445212F5800F80F09A8045
:4064C000BCF1004F08BF5FEA500C50F1000041EB045141EA050130BD5FEA4C0C404141EB010111F4801FA4F10104E9D191F0000F04BF01460020B1FA81F308BF2033A3F185
:406500000B03B3F120020CDA0C3208DD02F1140CC2F10C0201FA0CF021FA02F10CE002F11402D8BFC2F1200C01FA02F120FA0CFCDCBF41EA0C019040E41AA2BF01EB0451E7
:40654000294330BD6FEA04041F3C1CDA0C340EDC04F11404C4F1200220FA04F001FA02F340EA030021FA04F345EA030130BDC4F10C04C4F1200220FA02F001FA04F340EAE1
:406580000300294630BD21FA04F0294630BD94F0000F83F4801306BF81F480110134013D4EE77FEA645C18BF7FEA655C29D094EA050F08BF90EA020F05D054EA000C04BF18
:4065C0001946104630BD91EA030F1EBF0021002030BD5FEA545C05D14000494128BF41F0004130BD14F580043CBF01F5801130BD01F0004545F0FE4141F470014FF00000F7
:4066000030BD7FEA645C1ABF194610467FEA655C1CBF0B46024650EA013406BF52EA033591EA030F41F4002130BD00BF90F0000F04BF0021704730B54FF4806404F1320480
:406640004FF000054FF0000150E700BF90F0000F04BF0021704730B54FF4806404F1320410F0004548BF40424FF000013EE700BF42004FEAE2014FEA31014FEA02701FBFFB
:4066800012F07F4393F07F4F81F06051704792F0000F14BF93F07F4F704730B54FF4607401F0004521F0004120E700BF50EA010208BF704730B54FF000050AE050EA01022B
:4066C00008BF704730B511F0004502D5404261EB41014FF4806404F132045FEA915C3FF4DCAE4FF003025FEADC0C18BF03325FEADC0C18BF033202EBDC02C2F1200300FA6C
:4067000003FC20FA02F001FA03FE40EA0E0021FA02F11444C1E600BF4FF0FF3C06E000BF4FF0010C02E000BF4FF0010C4DF804CD4FEA410C7FEA6C5C4FEA430C18BF7FEA61
:406740006C5C1BD001B050EA410C0CBF52EA430C91EA030F02BF90EA020F0020704710F1000F91EA030F58BF994208BF90422CBFD8176FEAE37040F0010070474FEA410C0C
:406780007FEA6C5C02D150EA013C07D14FEA430C7FEA6C5CD6D152EA033CD3D05DF8040B704700BF8446104662468C461946634600E000BF01B5FFF7B7FF002848BF10F15B
:4067C000000F01BD4DF808EDFFF7F4FF0CBF012000205DF808FB00BF4DF808EDFFF7EAFF34BF012000205DF808FB00BF4DF808EDFFF7E0FF94BF012000205DF808FB00BF68
:406800004DF808EDFFF7CEFF94BF012000205DF808FB00BF4DF808EDFFF7C4FF34BF012000205DF808FB00BF80F0004002E000BF81F0004142001FBF5FEA410392EA030F34
:406840007FEA226C7FEA236C6AD04FEA1262D2EB1363C1BFD218414048404140B8BF5B42192B88BF704710F0004F40F4000020F07F4018BF404211F0004F41F4000121F083
:406880007F4118BF494292EA030F3FD0A2F1010241FA03FC10EB0C00C3F1200301FA03F100F0004302D5494260EB4000B0F5000F13D3B0F1807F06D340084FEA310102F1A3
:4068C0000102FE2A51D2B1F1004F40EBC25008BF20F0010040EA03007047490040EB000010F4000FA2F10102EDD1B0FA80FCACF1080CB2EB0C0200FA0CF0AABF00EBC250A7
:4069000052421843BCBFD0401843704792F0000F81F4000106BF80F400000132013BB5E74FEA41037FEA226C18BF7FEA236C21D092EA030F04D092F0000F08BF084670478D
:4069400090EA010F1CBF0020704712F07F4F04D1400028BF40F00040704712F100723CBF00F50000704700F0004343F0FE4040F4000070477FEA226216BF08467FEA23633E
:406980000146420206BF5FEA412390EA010F40F4800070474FF0000304E000BF10F0004348BF40425FEA000C08BF704743F0964301464FF000001CE050EA010208BF704718
:4069C0004FF000030AE000BF50EA010208BF704711F0004302D5404261EB41015FEA010C02BF84460146002043F0B64308BFA3F18053A3F50003BCFA8CF2083AA3EBC25370
:406A000010DB01FA02FC634400FA02FCC2F12002BCF1004F20FA02F243EB020008BF20F00100704702F1200201FA02FCC2F1200250EA4C0021FA02F243EB020008BF20EABC
:406A4000DC7070474FF0FF0C1CEAD0521EBF1CEAD15392EA0C0F93EA0C0F6FD01A4480EA010C400218BF5FEA41211ED04FF0006343EA501043EA5111A0FB01310CF00040DE
:406A8000B1F5000F3EBF490041EAD3715B0040EA010062F17F02FD2A1DD8B3F1004F40EBC25008BF20F00100704790F0000F0CF0004C08BF49024CEA502040EA51207F3A54
:406AC000C2BFD2F1FF0340EAC250704740F400004FF00003013A5DDC12F1190FDCBF00F000407047C2F10002410021FA02F1C2F1200200FA02FC5FEA310040F1000053EA0D
:406B00004C0308BF20EADC70704792F0000F00F0004C02BF400010F4000F013AF9D040EA0C0093F0000F01F0004C02BF490011F4000F013BF9D041EA0C018FE70CEAD1535D
:406B400092EA0C0F18BF93EA0C0F0AD030F0004C18BF31F0004CD8D180EA010000F00040704790F0000F17BF90F0004F084691F0000F91F0004F14D092EA0C0F01D1420217
:406B80000FD193EA0C0F03D14B0218BF084608D180EA010000F0004040F0FE4040F40000704740F0FE4040F4400070474FF0FF0C1CEAD0521EBF1CEAD15392EA0C0F93EA24
:406BC0000C0F69D0A2EB030280EA010C49024FEA402037D04FF0805343EA111143EA10130CF000408B4238BF5B0042F17D024FF4000C8B4224BF5B1A40EA0C00B3EB510FE7
:406C000024BFA3EB510340EA5C00B3EB910F24BFA3EB910340EA9C00B3EBD10F24BFA3EBD10340EADC001B0118BF5FEA1C1CE0D1FD2A3FF650AF8B4240EBC25008BF20F0D6
:406C4000010070470CF0004C4CEA50207F32C2BFD2F1FF0340EAC250704740F400004FF00003013A37E792F0000F00F0004C02BF400010F4000F013AF9D040EA0C0093F017
:406C8000000F01F0004C02BF490011F4000F013BF9D041EA0C0195E70CEAD15392EA0C0F08D142027FF47DAF93EA0C0F7FF470AF084676E793EA0C0F04D14B023FF44CAF87
:406CC00008466EE730F0004C18BF31F0004CCAD130F000427FF45CAF31F000437FF43CAF5FE700BF4FF0FF3C06E000BF4FF0010C02E000BF4FF0010C4DF804CD4FEA400216
:406D00004FEA41037FEA226C18BF7FEA236C11D001B052EA530C18BF90EA010F58BFB2EB030088BFC81738BF6FEAE17018BF40F0010070477FEA226C02D15FEA402C05D1F0
:406D40007FEA236CE4D15FEA412CE1D05DF8040B704700BF844608466146FFE70FB5FFF7C9FF002848BF10F1000F0FBD4DF808EDFFF7F4FF0CBF012000205DF808FB00BFAD
:406D80004DF808EDFFF7EAFF34BF012000205DF808FB00BF4DF808EDFFF7E0FF94BF012000205DF808FB00BF4DF808EDFFF7D2FF94BF012000205DF808FB00BF4DF808EDCF
:406DC000FFF7C8FF34BF012000205DF808FB00BF4FEA40024FEA41037FEA226C02D15FEA402C08D17FEA236C02D15FEA412C02D14FF0000070474FF0010070474FEA40027F
:406E0000B2F1FE4F0FD34FF09E03B3EB12620DD94FEA002343F0004310F0004F23FA02F018BF404270474FF00000704712F1610F01D1420205D110F0004008BF6FF000406D
:406E400070474FF00000704742000ED2B2F1FE4F0BD34FF09E03B3EB126209D44FEA002343F0004323FA02F070474FF00000704712F1610F01D1420202D14FF0FF30704797
:406E80004FF00000704700BF014B1868704700BFBC81FF1F0E4B70B51E460E4C0025E41AA410A54204D056F8253098470135F8E702F040FD084B094C1E46E41AA410002509
:406EC000A54204D056F8253098470135F8E770BD4099000040990000409900004899000010B5431E0A44914204D011F8014B03F8014FF8E710BD03460244934202D003F80F
:406F0000011BFAE770472DE9F04788B0149F002B1E461299B8BF03F1004327F02007B6BF1E4600232D23462F1446109DDDF84CA00B7003D0452F03D1013501E0032300E003
:406F4000022307AA049206AA03928DE828042246334600F001FD472F804602D1119BDB0728D5462F08EB050911D198F80030302B0AD10022002320463146FFF723FC18B900
:406F8000C5F10105CAF80050DAF8003099440022002320463146FFF715FC08B9302202E0CDF81C9006E0079B994503D9591C07911A70F8E74046079B159AC8EB03031360DA
:406FC00008B0BDE8F087034673B50029B8BF494203F8022BB4BF2D222B22092942701ADD0DF1070216460A2591FBF5F405FB1411092C01F1300102F8011D2146F4DC3031DB
:40700000541E02F8011CB4421A460AD214F8012B03F8012BF7E71A463024214402F8024B5970101A02B070BD2DE9F04F91B00C46DDF8688016461F46054601F025FA0368FA
:407040001846099300F0F4FB00230E93D8F800300A90073323F0070303F1080294F81890D4F800B0C8F80020D3E90023C4E91223D4F84CA0D4F848802AF000430B934FF0AD
:40708000FF32A74B40460B9902F064F9A0B94FF0FF32A34B40460B99FFF7A8FB60B90022002340465146FFF797FB10B12D2384F843309C4B9C4A0AE04246534640465146C2
:4070C00002F048F9002800F09281984B984AB9F1470F8CBF90469846032323612BF0040323604FF0000A3DE0B9F1670F00F08A81B9F1470F00F086812360019363680021A4
:407100000DF13302059002920093424653460691CDF81090CDF80CE02846FFF7F4FE09F0DF03472B804600F08481B9F1650F0D9900F28D8101394A4604F150000D91FFF7CD
:4071400042FF0E9A82468318012A236100F37C812268D10700F178819DF8333013B12D2384F84330009733460FAA2146284600F09FF9013002D14FF0FF3096E123685A05E4
:4071800001D4236965E0B9F1650F40F2D580D4E9120100220023FFF715FB78B30123654A31462846B8470130E5D00E9B0D9A9A420BDB2368D80708D423689B0740F1118159
:4071C0004FF0000804F1190906E10A9B099A31462846B8470130CED04FF0000804F11A090E9B013B9845E7DA01234A4631462846B8470130BFD008F10108F1E70D9B002B68
:4072000029DC01234B4A31462846B8470130B2D00D9B23B90E9B13B92368D907CCD50A9B099A31462846B8470130A4D04FF0000904F11A0A0D9B5B42994509DA0123524600
