:400000000080002011000000F9190000F919000008B5044B1A6803F53F5302331A6001F00BFD00BFFA46004010B5054C237833B9044B13B10448AFF300800123237010BD4A
:40004000F081FF1F00000000E84D0000084B10B51BB108490848AFF300800848036803B910BD074B002BFBD0BDE81040184700BF00000000F481FF1FE84D0000C880FF1F48
:400080000000000008B501E001F0C2FD01F0CAFD0028F9D108BD00BF10B50DE0094A13680133136001F030FEC4B22146002000F009FE204601F0C2FD01F030FE0028EDD16F
:4000C00010BD00BF0C82FF1F2DE9F041A0B005460E461EA800F0EEFC02278DF87C7000248DF87D408DF87E4001A800F0F5FA8DF80A4040F2151304938DF814709DF87C301D
:400100008DF81D309DF87D308DF81E309DF87E308DF81F30DFF8548098F800308DF81C309DF878308DF817309DF879308DF8163001A800F095FB8DF80470D8F8043001A8A4
:4001400098471D9001A800F02FFC234604E01A9AD25CEA5401339BB2BDF866209342F6D33280002020B0BDE8F08100BF3482FF1F70B5B8B062B601F02FFD2C4801F0D0FC2A
:4001800001F0A6FD2A4801F0EFFD2A4A0A212A4800F08CFC294801F05DFD294B1B6898474FF4FA7001F0D2FC01F0C8FC0246254903A802F09DFF03A801F04CFD204C0025BB
:4001C00025750123237784F8245084F82C5084F8345084F83C500023A3610DF10A0118A8FFF772FF184B9D801A68184908A802F07FFF08A801F02EFDE66CA06C01F044FF7F
:4002000004460D46304601F03FFFCDE9000122462B460F4908A802F06BFF08A801F01AFD4FF47A7001F092FCBAE700BF8500000099000000591000003482FF1FF04D00002C
:40024000CC80FF1F0C4E00000C82FF1F184E0000304E0000014B1860704700BF3082FF1F024A136801331360704700BF3082FF1F014B1868704700BF3082FF1F0022014BEC
:400280001A7070472882FF1F0222014B1A7070472882FF1F2DE9F0470546174633E0D5F800803946404602F051F8824601240021404602F007FA00B900244FF00109002159
:4002C000404602F0E1F908B94FF00009C9EB040001F0E8FF4FF07C5102F038F80146504601F02CFF02F00EFA00B2094B1A68511C1960C0F3072111701A68511C1960C0B24E
:400300001070043531464E1E0029C8D1BDE8F0873082FF1F2DE9F047044617469846DDF820A0304B1B78012B55D129E0DFF8B890D9F800502B781B021BB26878184301F0AA
:40034000B1FF0235C9F80050514601F0FFFF216801F0F4FE2060394602F0B4F900B127604146206802F090F908B1C4F800802168084602F0B1F908B10023236004343146BD
:400380004E1E0029D2D1BDE8F087174E35682B781B021BB26878184301F084FF023535600146504601F0D2FF01462060384602F06BF900B127602168404602F083F908B137
:4003C000C4F800802168084602F086F908B1002323600434494601F1FF390029D5D1BDE8F08700BF2882FF1F3082FF1F30B40EE030F9023B084A11684D1C1560C3F3072524
:400400000D7011684D1C1560DBB20B7021464C1E0029EDD130BC70473082FF1FF8B5044615461E462A4B1B78012B4DD124E029490A6813781B021BB25078034302320A60A4
:400440002088184400B2208001F02CFF294602F039F918B1284602F055F92080B4F9000001F020FF314602F00FF918B1304602F049F92080023439464F1E0029D7D1F8BD77
:40048000144A13681878000200B25978084302331360208001F006FF0146284602F0F4F818B1284602F02EF92080B4F9000001F0F9FE0146304602F005F918B1304602F0CF
:4004C00021F92080023439464F1E0029D8D1F8BD2882FF1F3082FF1F10B407E0064A1368591C116010F8012B1A7021464C1E0029F4D110BC704700BF3082FF1F70B4184C8E
:400500002478012C27D112E0164C21684E1C266009784CB2017821441446914200DC0C4619469C4200DB214600F8011B29464D1E0029E9D112E00B4C21684E1C26600978E2
:40054000C9B201708A4200D2027001788B4200D90370013029464D1E0029ECD170BC70472882FF1F3082FF1F10B40EE0094B19684A1C1A600288120A0A701A68511C196092
:4005800030F8023BDBB2137021464C1E0029EDD110BC70473082FF1FF0B41A4C2478012C2BD114E0184E34682578617841EA0525023434600188294489B20180914200D903
:4005C00002800188994200D20380023039464F1E0029E7D114E00C4D29680F784C7844EA0724023129600480A24200D2028001888B4200D90380023031464E1E0029EAD11C
:40060000F0BC70472882FF1F3082FF1F70B4154B1D682C78E4B2013A072A14D8DFE802F0120406080A0C0E1003260CE007260AE00F2608E01F2606E03F2604E07F2602E0CF
:40064000FF2600E0012606FA01F324EA030464B20378334003FA01F12143C9B2297070BC704700BF3082FF1F10B4013A072A14D8DFE802F0120406080A0C0E1003240CE028
:4006800007240AE00F2408E01F2406E03F2404E07F2402E0FF2400E001240D4B1B78012B0BD10C4B1B681B78DBB243FA01F10C40E4B203785C40047007E0064B1B681B7816
:4006C000DBB243FA01F12140017010BC704700BF2882FF1F3082FF1F08B57422002102F08EF8002008BD00BF38B5054601230370002406E0044B03EBC4035B682846984715
:400700000134002CF6DD38BD3482FF1F10B400231A4604E004782344DBB2013201308A42F8D3184610BC704710B400221BE0C2EBC20321FA03F303F07F030132C2EBC204C6
:4007400021FA04F414F07F0F07D0046863F07F03237003680133036005E00268137003680133036001E0032AE1DD10BC704700BF30B583B00446836E054645F8703FC16892
:400780002846FFF7D1FF00236374A37C0BB10123637400238DF80730237C9DF8072003F00F0313438DF80730E37C1B019DF8072003F0100313438DF80730E37D5B019DF844
:4007C000072003F0200313438DF80730A37D9B019DF8072003F0400313438DF80730627C9DF8073043EAC213DBB28DF80730236F5A1C22679DF807201A70637C83B10023E8
:400800008DF80730A37C9DF8072003F0010313438DF80730236F5A1C22679DF807201A70A37D43B9217E2846FFF77EFF617E2846FFF77AFF02E0002323766376E37D43B916
:40084000A17E2846FFF770FFE17E2846FFF76CFF02E00023A376E376236FE36603B030BD08B500F120038366036743792BB1064B1B6833B19847002008BDFFF779FF0020A0
:4008800008BD012008BD00BF1482FF1F70B405460023184611E02A68147804F07F01C3EBC306B140084314F0800F03D001322A60013302E001322A6001E0032BEBDD70BCFB
:4008C000704700BF30B583B00446836E054645F8703F2846FFF7DAFFE060216F481C20670B788DF807309DF8073003F00F0323749DF80730C3F30013E3749DF80730C3F3EB
:400900004013E3759DF80730C3F38013A3759DF80720D20962744AB1881C20674A788DF807209DF8072002F00102A2743BB92846FFF7ACFF20762846FFF7A8FF6076E37D3D
:400940003BB92846FFF7A2FFA0762846FFF79EFFE076E37C13B1236F0233236703B030BD0006002308E0002803DA054A82EA400000E040000133DBB2072BF4D9704700BF96
:40098000B71DC104F8B505460F461646002407E0385D80EA1560FFF7E3FF80EA05250134B442F5D32846F8BD0379012B79D0F0B583B0076F836EFB1A9BB2038142790AB960
:4009C000642B04D900F11C034366012603E000F11D03436600260446436EFB1A9BB2A0F86230827CA2B103F00303C3F104052A460021384601F003FF226F2A442267B4F824
:400A000062301D44A4F86250A36ED21A04322281637943B1512323774223637723891A0AA277E37714E05EB15123237758236377238963F07F02A277C3F3C613E37707E070
:400A4000512363775823A377238903F07F03E377A37C9BB1B4F86220616E4FF0FF30FFF791FF02AB43F8040D226F18681060236F04332367626E9B1AA4F862302189A06E84
:400A8000FFF744FE236F5A1C2267C0431870B4F862300133A4F86230204600F031FE002001E00820704703B0F0BD00BF42600170704700BF00238370C370837103714371D0
:400AC00003704370704700BF82B070B59EB004460D461646239301A8FFF7FEFD8DF80A60049500258DF814509DF890308DF81D309DF891308DF81E309DF892308DF81F305B
:400B000023788DF81C309DF88C308DF817309DF88D308DF8163001A8FFF7A2FE8DF80450636801A898471D9001A8FFF73DFF1EB0BDE8704002B0704730B585B00546002407
:400B400027E06B7E154A12F83420934200D0FBB902A8FFF7AFFFAB7C8DF80930EB7C8DF80830AB7D8DF80A3001238DF80B302B7E8DF80C30AA79039BADF800301B0C8DF8A1
:400B80000230029BE968054800EBC400FFF79CFF0134002CD5DD05B030BD00BFC882FF1F30B585B00546037C032B02D10523037003E0022B01D10323037000242FE06B7E95
:400BC000194A12F83420934200D03BBB164B03EBC4035B68284698476B78FBB902A8FFF769FFAB7C8DF80930EB7C8DF80830AB7D8DF80A3001238DF80B302B7E8DF80C3096
:400C0000AA79039BADF800301B0C8DF80230029BE968054800EBC400FFF756FF0134002CCDDD05B030BD00BFC882FF1F70B582B0044600F11C05056745660023037143791A
:400C40002BB11F4B5B68002B34D0984701E0FFF739FE236FE366A37C9BB1B4F86260721F29464FF0FF30FFF78DFE0246002301931336264470680190019B9A4201D0072021
:400C80001BE0204600F052FD237C032B14D8DFE803F00C0207072046FFF74EFF00200CE02046FFF77DFF002007E02046FFF71CFD002002E0012000E0022002B070BD00BF39
:400CC0001482FF1F70B58C2303FB00F3A34AD35C072B00F23881DFE813F00800260051008200B600C800E3000401512910D19B4A8C2303FB00F014180125658084F8201091
:400D000000F119031344083363671554002070BD8C23924A03FB0020D0F884300133C0F88430002070BD8C238C4A03FB00235A6F541C5C6711705A8801325A80582909D115
:400D4000864A8C2303FB00F3D118002048720221D15470BD42290AD1804A8C2303FB00F013180121597204231354002070BD8C2303FB00F30020794AD05470BD8C23774AE7
:400D800003FB00235A6F541C5C6711705A8801325A8011F0800F0BD001F07F016F4A8C2303FB00F01318998103231354002070BD89B26A4C8C2303FB00F3E2189181556FF4
:400DC000D566002595710622E254402940F2BD808C2303FB00F328462246D55470BD8C235E4A03FB00235A6F541C5C6711705A8801325A805A6FDA6611F0800F06D08C2389
:400E000003FB00F30021554AD1540EE0C901534D8C2303FB00F3EA1801F47E51948921439181002191710622EA548C234B4A03FB00239B89402B40F28A808C2303FB00F332
:400E40000020D05470BD454C8C2303FB00F023185A6F551C5D6711705A8801325A800902998105232354002070BD3C4D8C2404FB00F42B195A6F561C5E6711705A88013213
:400E80005A805A6FDA669A891143998100229A7106232B5589B240295BD91046285570BD2E4C8C2505FB00F56219536F5E1C56671970538801335380967931449171918971
:400EC0009BB2D26E18352C440834141B1B1B994241DC8C2303FB00F00722204B1A54002070BD1E4D8C2202FB00F2AB185C6F661C5E6721705C8801345C800024AC54987292
:400F00009B791944FF2913D18C25144B05FB0035AC6700F00DFCC5F88800012485F87C406B88A5F86630281DFFF780FE204670BD8C220A4B02FB0030D0F880300133C0F83A
:400F40008030002070BD002070BD002070BD002070BD002070BD002070BD00BF3C82FF1F82B070B59EB004460D461646239301A8FFF7B2FB8DF80A60049502258DF8145020
:400F80009DF890308DF81D309DF891308DF81E309DF892308DF81F3023788DF81C309DF88C308DF817309DF88D308DF8163001A8FFF756FC8DF80450636801A898471D9046
:400FC00001A8FFF7F1FC1EB0BDE8704002B0704708B50F4A0A210F48FFF768FD0E4B00221A751A7783F8242083F82C2083F8342083F83C2083F8412083F8402083F842208B
:4010000083F8432083F8442083F8452008BD00BF591000003482FF1FCC80FF1F00B585B002A8FFF747FD02238DF80C3000228DF80D208DF80E20039BADF800301B0C8DF88E
:401040000230029B40F215110248FFF789FF05B05DF804FB3482FF1F2DE9F04790B004460378022B07D0042B02D0012B08D105E0FFF704F904E0FFF701F901E0FFF704F9C8
:40108000E06EFFF7E7F8E36840F21512934205D040F21F12934200F0A6811BE32378022B40F01A83A24B1B7823B903210DA8FFF713FA05E00023FF2203210DA8FFF71EFA95
:4010C0009C4B1B7D012B03D043B1022B03D007E04FF0010A04E04FF0020A01E04FF0000A944B1B7F012B03D033B1022B02D004E0042502E0082500E000258E4B93F82430C0
:40110000012B03D043B1022B03D007E04FF0100904E04FF0200901E04FF000094AEA050549EA05095FFA89F9824B5B7B23B169F07F098DF8349003E009F07F098DF8349060
:401140007C4B1B7B33B19DF8343043F040038DF8343005E09DF8343023F040038DF83430734B1B7823B901210DA8FFF7B5F905E00023FF2201210DA8FFF7C0F96C4B1B7818
:401180002BB96D4A01216D48FFF784F807E06C4B00936C4B684A01216848FFF7BBF8644B1B782BB9644A01216748FFF773F807E0634B0093634B604A01216348FFF7AAF84B
:4011C0005B4B1B782BB95C4A01216048FFF762F807E05B4B00935B4B574A01215B48FFF799F80023ADF82030514B1B7823B9012108A8FFF7FBF805E00023554A012108A808
:40120000FFF70CF94B4B93F82C30012B03D043B1022B03D007E04FF0100804E04FF0200801E04FF00008434B93F83430012B03D033B1022B02D004E0042602E0082600E035
:4012400000263C4B93F83C30012B03D033B1022B02D004E0012702E0022700E0002748EA060637438DF83470314B1B7823B901210DA8FFF731F905E00023FF2201210DA807
:40128000FFF73CF92B4C2C49A06A01F05FF82A4900F054FF01F05CFAADF80C002649206B01F054F8244900F049FF01F051FAADF80E002149A06B01F049F81F4900F03EFF10
:4012C00001F046FAADF81000194B1B7823B9032103A8FFF749F906E000234FF6FF72032103A8FFF759F9124B1B782BB9012200211848FFF78BF904E0012200211548FFF7EB
:40130000B3F90B4B1B782BB9012211461248FFF77DF904E0012211460F48FFF7A5F9044B1B78EBB9012204210C48FFF76FF91CE02882FF1FCC80FF1F00FEFF46EC80FF1F30
:401340000001003800FEFFC6E480FF1FDC80FF1F00FF7F470C81FF1F0D81FF1F0E81FF1F012204219D48FFF77FF99D4B1B782BB9012205219B48FFF749F904E00122052121
:401380009848FFF771F9964B1B782BB9012206219548FFF73BF904E0012206219248FFF763F98F4B1B782BB9012207218F48FFF72DF904E0012207218C48FFF755F9FEF71F
:4013C0004FFF00238DF83430854B1B7823B901210DA8FFF781F87FE10023FF2201210DA8FFF78CF878E12378012B40F075817C4B1B7823B903210DA8FFF76EF805E0002360
:40140000FF2203210DA8FFF779F8754B1B7823B902210DA8FFF760F805E00023FF2202210DA8FFF76BF89DF8340000F037FF704900F08CFF6F4900F081FE05466E4EB06437
:401440009DF8350000F02AFF694900F07FFF694900F074FE0446F0646649284601F00AF908B10022B2646349204601F003F910B10022614BDA645A4B1B7823B901215F480C
:40148000FFF72AF805E00023FF2201215B48FFF735F8534B1B7823B901215948FFF71CF805E00023FF2201215548FFF727F84C4B1B782BB9534A01215348FEF7EBFE07E0FF
:4014C000524B0093524B4F4A01214F48FEF722FF434B1B782BB94B4A01214E48FEF7DAFE07E04A4B00934A4B464A01214948FEF711FF3B4B1B782BB9424A01214648FEF77E
:40150000C9FE07E0414B0093414B3E4A01214248FEF700FF324B1B782BB93A4A01213F48FEF7B8FE07E0394B0093394B354A01213A48FEF7EFFE2A4B1B7823B902210DA81B
:40154000FEF7CAFF05E00023FF2202210DA8FEF7D5FF234B1B782BB9012200213048FFF755F804E0012200212D48FFF77DF81C4B1B782BB9012211462A48FFF747F804E014
:40158000012211462748FFF76FF8154B1B782BB9012202212448FFF739F804E0012202212148FFF761F8FEF75BFE0D4B1B782BB9012200211D48FFF729F804E0012200214E
:4015C0001A48FFF751F8FEF74BFE054B1B788BBB01211748FEF780FF32E000BF0E81FF1F2882FF1F0F81FF1F1081FF1F1181FF1FCDCCCC3D00002041CC80FF1F1C81FF1F73
:401600001D81FF1F00FEFF462C81FF1F0001003800FEFFC62081FF1F2481FF1F2881FF1F3A81FF1F3B81FF1F3C81FF1F3E81FF1F3681FF1F0023FF2201212A48FEF75EFF31
:40164000294B1B7823B901212848FEF745FF05E00023FF2201212548FEF750FF224B1B7823B901212248FEF737FF05E00023FF2201211F48FEF742FF1B4B1B7823B901214E
:401680001C48FEF771FF06E000234FF6FF7201211848FEF781FF144B1B7823B901211648FEF762FF06E000234FF6FF7201211248FEF772FF0C4B1B7823B901210F48FEF732
:4016C00053FF09E000234FF6FF7201210B48FEF763FF01E001232371FEF7CAFD10B0BDE8F08700BF3681FF1F2882FF1F3781FF1F3881FF1F3081FF1F3281FF1F3481FF1F5D
:4017000038B5837983B90446436E0367002507E0236F5A1C22671978012000F00BF80135B4F862309D42F3DB38BD00BF704700BF00207047164B1B5C0133164A134003D524
:40174000013B63F03F030133134A125CD2B2934219D030B40E4A145CE4B2104D05EB80152955DBB21354135C01330A4A134003D5013B63F03F030133074A125CD2B2934282
:4017800003D1002002E000207047012030BC7047D482FF1F3F000080D082FF1FD882FF1FFEE700BFF0B40022174611E050F82760F3B226F0FF0608E001EB420511F81240E0
:4017C0006D78A5550132013BDBB2002BF4D101371A2FEBD9F0BC7047064B1B78DBB203F00701054A11701B09013213704422034B1A707047CF0100496E580040765800403E
:4018000008B50A46002100F0FAFF08BD38B51925294B1D801823294A13701A21023211800232137047F22F52254B1A8002331D70022203F276231A7008224FF040231A7090
:40184000032103F5007319701E4B1B78DBB21E490B701E4B1A8041F25122023B1A8000240CE01B4B1B7803F0010343EA440404F003044FF4F07000F093FA013D0DB1032CAA
:40188000EFD115B90320FFF78BFF124B4FF480721A8007221A7000220F490A704820023108701A700222033B1A700C4A137843F00703137038BD00BF804000408240004044
:4018C0008840004008010049A146004022420040254200400440004006400040A243004008B500F081FF08BD38B572B6334A137843F00403137000240CE0314D63001919FE
:401900004A0011462A44084691882858FFF778FF0134E4B2092CF0D900240CE02848A20011194B000344B3F84420196CD86BFFF7D7FF0134E4B2022CF0D922494FF09040BE
:40194000FFF730FF204A137843F0020313701032137843F0020313701C4C237843F040032370A2F58632513A137843F0100313700A2217491748FFF7B3FF08221649174855
:40198000FFF7AEFF0A2216491648FFF7A9FF164A137843F008031370144D61232B70FFF735FF81232B700122114B1A70FFF714FF0E2221460F48FFF793FF38BDE84600407D
:4019C000584E00006C00004803500140A043004000060048C05100400C060048125100401406004820510040224300400048004004000840B043004008B500F0C9FE03689C
:401A00000C2B00D1FEE7FEE708B5094B1A681044084BC31A802B02DC054B186005E000F0B7FE0C2303604FF0FF32104608BD00BF4081FF1F6083FF1F08B5104E104D16E0B8
:401A400029686B68AC68002204E051F8040B43F8040B0432A242F8D1E868002203E0002143F8041B04328242F9D11035013E002EE6D100F093FEFEF77BFBFEE70100000094
:401A80003850000008B5104A104B1A60104A136843F40073136000230AE0032B03D80D4A52F8231000E00C490C4A42F8231001332F2BF2D90A4B1A780A4B1A70074A0A4B19
:401AC0001A60FFF711FF08BD0004FA050CED00E014ED00E000000000F91900000080FF1FBC760040C080FF1F08ED00E0014B1B681864704708ED00E04001C0B2014B187031
:401B0000704700BF00E400E00122014B1A60704700E100E00122014B1A60704780E100E010B50446FFF7F6FF2046FFF7DFFF0720FFF7E2FFFFF7E8FF10BD00BF024B1878B1
:401B4000C0F34000704700BF2151004010B5044605E0084B186800F023F9A4F50044B4F5004FF6D8034B586800FB04F000F018F910BD00BF4481FF1F7222084B1A703E2296
:401B8000013B1A700622A3F5B0731A70472210331A70002250331A70704700BF8A65004010B500F005F904460A4A137843F020031370013A137843F010031370A2F580721B
:401BC000137843F01003137000F0DCF8204600F0F3F810BD9A65004008B5054B1B7823B9FFF7CAFF0122024B1A70FFF7D9FF08BD1C82FF1F014B1878704700BF4A650040BB
:401C0000024B187800F07F00704700BF6965004010B5FFF7F5FF0402FFF7ECFF204380B210BD00BF044B1B7813F0200F01D0012070470020704700BF69650040034B1B78DB
:401C400013F0040FFAD1024B18707047696400404965004038B5074B1B782BB938BDFFF7EDFF0134A4B201E005460024285D0028F5D138BD1C82FF1F7222084B1A703E229F
:401C8000013B1A700622623B1A70472210331A70002203F5A8731A70704700BF8B64004008B500F085F8094A137843F020031370013A137843F010031370FE32137843F017
:401CC0001003137000F078F808BD00BF9B64004008B5054B1B7823B9FFF7CEFF0122024B1A70FFF7DDFF08BD1E82FF1F014B1878704700BF4B640040024B187800F07F0010
:401D0000704700BF6A64004010B5FFF7F5FF0402FFF7ECFF204380B210BD00BF044B1B7813F0200F01D0012070470020704700BF6A640040014B1B685864704708ED00E0F0
:401D40004001C0B2014B1870704700BF01E400E00222014B1A60704700E100E00222014B1A60704780E100E010B50446FFF7F6FF2046FFF7DFFF0720FFF7E2FFFFF7E8FF4E
:401D800010BD00BF054A137843F0010313701032137843F001031370704700BFA24300400230800803D000BF01380046FCD17047EFF3108072B6704780F31088704700BFC0
:401DC00081F0004102E000BF83F0004330B54FEA41044FEA430594EA050F08BF90EA020F1FBF54EA000C55EA020C7FEA645C7FEA655C00F0E2804FEA5454D4EB5555B8BF37
:401E00006D420CDD2C4480EA020281EA030382EA000083EA010180EA020281EA0303362D88BF30BD11F0004F4FEA01314FF4801C4CEA113102D0404261EB410113F0004F24
:401E40004FEA03334CEA133302D0524263EB430394EA050F00F0A780A4F10104D5F1200E0DDB02FA0EFC22FA05F2801841F1000103FA0EF2801843FA05F359410EE0A5F192
:401E800020050EF1200E012A03FA0EFC28BF4CF0020C43FA05F3C01851EBE37101F0004507D54FF0000EDCF1000C7EEB00006EEB0101B1F5801F1BD3B1F5001F0CD34908AC
:401EC0005FEA30004FEA3C0C04F101044FEA445212F5800F80F09A80BCF1004F08BF5FEA500C50F1000041EB045141EA050130BD5FEA4C0C404141EB010111F4801FA4F12E
:401F00000104E9D191F0000F04BF01460020B1FA81F308BF2033A3F10B03B3F120020CDA0C3208DD02F1140CC2F10C0201FA0CF021FA02F10CE002F11402D8BFC2F1200C3A
:401F400001FA02F120FA0CFCDCBF41EA0C019040E41AA2BF01EB0451294330BD6FEA04041F3C1CDA0C340EDC04F11404C4F1200220FA04F001FA02F340EA030021FA04F3B8
:401F800045EA030130BDC4F10C04C4F1200220FA02F001FA04F340EA0300294630BD21FA04F0294630BD94F0000F83F4801306BF81F480110134013D4EE77FEA645C18BF63
:401FC0007FEA655C29D094EA050F08BF90EA020F05D054EA000C04BF1946104630BD91EA030F1EBF0021002030BD5FEA545C05D14000494128BF41F0004130BD14F5800452
:402000003CBF01F5801130BD01F0004545F0FE4141F470014FF0000030BD7FEA645C1ABF194610467FEA655C1CBF0B46024650EA013406BF52EA033591EA030F41F40021D5
:4020400030BD00BF90F0000F04BF0021704730B54FF4806404F132044FF000054FF0000150E700BF90F0000F04BF0021704730B54FF4806404F1320410F0004548BF4042AA
:402080004FF000013EE700BF42004FEAE2014FEA31014FEA02701FBF12F07F4393F07F4F81F06051704792F0000F14BF93F07F4F704730B54FF4607401F0004521F00041CC
:4020C00020E700BF50EA010208BF704730B54FF000050AE050EA010208BF704730B511F0004502D5404261EB41014FF4806404F132045FEA915C3FF4DCAE4FF003025FEAAD
:40210000DC0C18BF03325FEADC0C18BF033202EBDC02C2F1200300FA03FC20FA02F001FA03FE40EA0E0021FA02F11444C1E600BF80F0004002E000BF81F0004142001FBFA5
:402140005FEA410392EA030F7FEA226C7FEA236C6AD04FEA1262D2EB1363C1BFD218414048404140B8BF5B42192B88BF704710F0004F40F4000020F07F4018BF404211F045
:40218000004F41F4000121F07F4118BF494292EA030F3FD0A2F1010241FA03FC10EB0C00C3F1200301FA03F100F0004302D5494260EB4000B0F5000F13D3B0F1807F06D3FA
:4021C00040084FEA310102F10102FE2A51D2B1F1004F40EBC25008BF20F0010040EA03007047490040EB000010F4000FA2F10102EDD1B0FA80FCACF1080CB2EB0C0200FAAA
:402200000CF0AABF00EBC25052421843BCBFD0401843704792F0000F81F4000106BF80F400000132013BB5E74FEA41037FEA226C18BF7FEA236C21D092EA030F04D092F04D
:40224000000F08BF0846704790EA010F1CBF0020704712F07F4F04D1400028BF40F00040704712F100723CBF00F50000704700F0004343F0FE4040F4000070477FEA2262BC
:4022800016BF08467FEA23630146420206BF5FEA412390EA010F40F4800070474FF0000304E000BF10F0004348BF40425FEA000C08BF704743F0964301464FF000001CE008
:4022C00050EA010208BF70474FF000030AE000BF50EA010208BF704711F0004302D5404261EB41015FEA010C02BF84460146002043F0B64308BFA3F18053A3F50003BCFA5F
:402300008CF2083AA3EBC25310DB01FA02FC634400FA02FCC2F12002BCF1004F20FA02F243EB020008BF20F00100704702F1200201FA02FCC2F1200250EA4C0021FA02F2A1
:4023400043EB020008BF20EADC7070474FF0FF0C1CEAD0521EBF1CEAD15392EA0C0F93EA0C0F6FD01A4480EA010C400218BF5FEA41211ED04FF0006343EA501043EA51112D
:40238000A0FB01310CF00040B1F5000F3EBF490041EAD3715B0040EA010062F17F02FD2A1DD8B3F1004F40EBC25008BF20F00100704790F0000F0CF0004C08BF49024CEA56
:4023C000502040EA51207F3AC2BFD2F1FF0340EAC250704740F400004FF00003013A5DDC12F1190FDCBF00F000407047C2F10002410021FA02F1C2F1200200FA02FC5FEA2F
:40240000310040F1000053EA4C0308BF20EADC70704792F0000F00F0004C02BF400010F4000F013AF9D040EA0C0093F0000F01F0004C02BF490011F4000F013BF9D041EAA2
:402440000C018FE70CEAD15392EA0C0F18BF93EA0C0F0AD030F0004C18BF31F0004CD8D180EA010000F00040704790F0000F17BF90F0004F084691F0000F91F0004F14D06E
:4024800092EA0C0F01D142020FD193EA0C0F03D14B0218BF084608D180EA010000F0004040F0FE4040F40000704740F0FE4040F4400070474FF0FF0C1CEAD0521EBF1CEAF6
:4024C000D15392EA0C0F93EA0C0F69D0A2EB030280EA010C49024FEA402037D04FF0805343EA111143EA10130CF000408B4238BF5B0042F17D024FF4000C8B4224BF5B1A2A
:4025000040EA0C00B3EB510F24BFA3EB510340EA5C00B3EB910F24BFA3EB910340EA9C00B3EBD10F24BFA3EBD10340EADC001B0118BF5FEA1C1CE0D1FD2A3FF650AF8B42FD
:4025400040EBC25008BF20F0010070470CF0004C4CEA50207F32C2BFD2F1FF0340EAC250704740F400004FF00003013A37E792F0000F00F0004C02BF400010F4000F013ACC
:40258000F9D040EA0C0093F0000F01F0004C02BF490011F4000F013BF9D041EA0C0195E70CEAD15392EA0C0F08D142027FF47DAF93EA0C0F7FF470AF084676E793EA0C0F9C
:4025C00004D14B023FF44CAF08466EE730F0004C18BF31F0004CCAD130F000427FF45CAF31F000437FF43CAF5FE700BF4FF0FF3C06E000BF4FF0010C02E000BF4FF0010C9E
:402600004DF804CD4FEA40024FEA41037FEA226C18BF7FEA236C11D001B052EA530C18BF90EA010F58BFB2EB030088BFC81738BF6FEAE17018BF40F0010070477FEA226C04
:4026400002D15FEA402C05D17FEA236CE4D15FEA412CE1D05DF8040B704700BF844608466146FFE70FB5FFF7C9FF002848BF10F1000F0FBD4DF808EDFFF7F4FF0CBF0120CD
:4026800000205DF808FB00BF4DF808EDFFF7EAFF34BF012000205DF808FB00BF4DF808EDFFF7E0FF94BF012000205DF808FB00BF4DF808EDFFF7D2FF94BF012000205DF8DB
:4026C00008FB00BF4DF808EDFFF7C8FF34BF012000205DF808FB00BF4FEA40024FEA41037FEA226C02D15FEA402C08D17FEA236C02D15FEA412C02D14FF0000070474FF0FD
:40270000010070474FEA4002B2F1FE4F0FD34FF09E03B3EB12620DD94FEA002343F0004310F0004F23FA02F018BF404270474FF00000704712F1610F01D1420205D110F027
:40274000004008BF6FF0004070474FF00000704742000ED2B2F1FE4F0BD34FF09E03B3EB126209D44FEA002343F0004323FA02F070474FF00000704712F1610F01D1420230
:4027800002D14FF0FF3070474FF00000704700BF014B1868704700BFB481FF1F0E4B70B51E460E4C0025E41AA410A54204D056F8253098470135F8E702F02CFC084B094CB0
:4027C0001E46E41AA4100025A54204D056F8253098470135F8E770BD2050000020500000205000002850000010B5431E0A44914204D011F8014B03F8014FF8E710BD0346A7
:402800000244934202D003F8011BFAE770472DE9F04788B0149F002B1E461299B8BF03F1004327F02007B6BF1E4600232D23462F1446109DDDF84CA00B7003D0452F03D17F
:40284000013501E0032300E0022307AA049206AA03928DE828042246334600F001FD472F804602D1119BDB0728D5462F08EB050911D198F80030302B0AD100220023204687
:40288000314602F041FA18B9C5F10105CAF80050DAF800309944002200232046314602F033FA08B9302202E0CDF81C9006E0079B994503D9591C07911A70F8E74046079B6F
:4028C000159AC8EB0303136008B0BDE8F087034673B50029B8BF494203F8022BB4BF2D222B22092942701ADD0DF1070216460A2591FBF5F405FB1411092C01F1300102F8FD
:40290000011D2146F4DC3031541E02F8011CB4421A460AD214F8012B03F8012BF7E71A463024214402F8024B5970101A02B070BD2DE9F04F91B00C46DDF8688016461F4651
:40294000054601F025FA03681846099300F0F4FB00230E93D8F800300A90073323F0070303F1080294F81890D4F800B0C8F80020D3E90023C4E91223D4F84CA0D4F8488068
:402980002AF000430B934FF0FF32A74B40460B9902F0ECF9A0B94FF0FF32A34B40460B9902F0C6F960B9002200234046514602F0B5F910B12D2384F843309C4B9C4A0AE055
:4029C000424653464046514602F0D0F9002800F09281984B984AB9F1470F8CBF90469846032323612BF0040323604FF0000A3DE0B9F1670F00F08A81B9F1470F00F0868128
:402A000023600193636800210DF13302059002920093424653460691CDF81090CDF80CE02846FFF7F4FE09F0DF03472B804600F08481B9F1650F0D9900F28D8101394A46EA
:402A400004F150000D91FFF742FF0E9A82468318012A236100F37C812268D10700F178819DF8333013B12D2384F84330009733460FAA2146284600F09FF9013002D14FF0E2
:402A8000FF3096E123685A0501D4236965E0B9F1650F40F2D580D4E912010022002302F033F978B30123654A31462846B8470130E5D00E9B0D9A9A420BDB2368D80708D4E8
:402AC00023689B0740F111814FF0000804F1190906E10A9B099A31462846B8470130CED04FF0000804F11A090E9B013B9845E7DA01234A4631462846B8470130BFD008F173
:402B00000108F1E70D9B002B29DC01234B4A31462846B8470130B2D00D9B23B90E9B13B92368D907CCD50A9B099A31462846B8470130A4D04FF0000904F11A0A0D9B5B4210
:402B4000994509DA0123524631462846B847013095D009F10109F1E70E9B4246A7E00E9AA36D9A42A8BF1A46002A914606DC4FF0000A29EAE97904F11A0B11E013463146F3
:402B800042462846B8470130F1D178E701235A4631462846B84701303FF471AF0AF1010AA36DC9EB03029245F0DB08EB03090D9A0E9B9A420FDB2368DA070CD40E9B0D9A80
:402BC0009844C9EB08089B1A9845A8BF9846B8F1000F08DC0FE00A9B099A31462846B8470130EBD14BE743464A4631462846B84701303FF444AF4FF0000928EAE87804F185
:402C00001A0A09E00123524631462846B84701303FF435AF09F101090D9A0E9B9B1AC8EB03039945EEDB4BE7FFFFEF7FB44E0000B84E0000BC4E0000C04E0000C44E000066
:402C40000E9A012A01DCDB0738D50123424631462846B84701303FF412AF0A9B099A31462846B84701303FF40AAFD4E912010022002302F049F820B14FF0000804F11A093F
:402C80000EE00E9B08F10102013B19E001234A4631462846B84701303FF4F1AE08F101080E9B013B9845F1DB534604F1500231462846B84701307FF403AFE0E64246012395
:402CC00031462846B8470130EED1D8E601234A4631462846B84701303FF4D1AE08F10108E3680F9A9B1A9845F0DBE0680F9B9842B8BF18465DE062680EA8531C0DF1340E67
:402D00004BF480637FF474AE062201E012B90122626075E6002106910DF133018DE80C00236005904246CDF81090CDF80CE0029153462846FFF76BFD80460D9BD81C02DB70
:402D4000626893421DDDA9F102095FFA89F970E60133236184E6B9F1660F14D10029636807DD216113B92268D2071DD501330B4419E013B92268D00701D5023313E0012378
:402D800011E04FF067090D9B0E9A934205DB22682361D10708D5013305E0002BD4BFC3F102030123134423610D9B4FF0000AA36556E611B0BDE8F08F2DE9F04791461F4679
:402DC0000A698B6806469342B8BF1346C9F8003091F843200C46DDF8208012B10133C9F800302368990642BFD9F800300233C9F80030256815F0060510D104F1190A07E021
:402E00000123524639463046C04701301AD00135E368D9F800209B1A9D42F1DB94F843302268003318BF012392060FD5E118302081F843005A1C94F845102244023382F849
:402E4000431003E04FF0FF30BDE8F08704F1430239463046C0470130F4D02268D9F80050E36802F00602042A08BF5D1B2269A3680CBF25EAE57500259342C4BF9B1AED1809
:402E80004FF000091A344D4509D00123224639463046C0470130D5D009F10109F3E70020BDE8F0872DE9F04317460A7E85B06E2A984606460C460C9B01F1430E00F0AE801A
:402EC00011D8632A22D009D8002A00F0BB80582A40F0CA8081F84520834955E0642A1ED0692A1CD0C0E0732A00F0B08009D86F2A2ED0702A40F0B8800A6842F020020A6057
:402F00003EE0752A24D0782A3AD0ADE01A6801F14205111D1960136884F84230A8E021681A6811F0800F02D0111D196008E011F0400F02F10401196002D0B2F9003000E00A
:402F40001368002B3CDA2D225B4284F8432037E021681A6811F0800F02D0111D196007E011F0400F02F10401196001D0138800E01368227E5C496F2A14BF0A2208221BE02E
:402F800078225A4984F845202268186812F0800F00F104051D6003D1550601D5038800E00368D00744BF42F0200222601BB9226822F0200222601022002084F8430001E050
:402FC00049490A226568002DA56008DB206820F0040020602BB9002D7DD175460CE0002B79D07546B3FBF2F002FB1033CB5C05F8013D03460028F5D1082A0BD12368DA07FD
:4030000008D5236962689A42DEBF302305F8013C05F1FF35C5EB0E0323612EE008681A6810F0800F496903D0101D1860136808E010F0400F02F104001860136801D0198029
:4030400000E0196000232361754616E01A68111D1960156800216268284600F0A5FE08B1401B6060636804E004F1420584F8422001232361002384F84330CDF800803B46F0
:4030800003AA21463046FFF797FE013002D14FF0FF3026E023692A4639463046C0470130F5D023689B0710D5002504F1190907E001234A4639463046C0470130E7D0013592
:4030C000E368039A9B1A9D42F2DBE068039B9842B8BF184605E00B7804F1420584F842308AE705B0BDE8F083C64E0000D74E00000EB400B54FF402719CB0ADF814106FF048
:403100000041049107914FF6FF711DAB02900690084853F8042BADF81610006802A9019301F038FA029B00221A701CB05DF804EB03B07047B481FF1F034613F8012B002A5D
:40314000FBD1181A013870472DE9F74F03690C6980469C427FDC013C01F114074FEA840E00F1140606EB0E0357F82450019356F824300135B3FBF5F507EB0E09C5B34FF07C
:40318000000A3846B446D34650F8043B9AB205FB02A21B0C4FEA124A05FB03A392B2C2EB0B0BBCF800204FEA134A5A441FFA83FBDCF800308145CBEB134303EB224392B288
:4031C00042EA03424FEA234B4CF8042BDCD256F80E306BB9019B043B9E421A4602D3C8F8104005E01268043B002AF8D1013CF3E7404600F0F4FF00282BDB304601354FF0BC
:40320000000E57F8042B036891B2C1EB0E0E120C99B27144C2EB134303EB214389B24FEA234EB94541EA034340F8043BE9D256F8242006EB840362B9043B9E421A4602D31A
:40324000C8F8104005E01268043B002AF8D1013CF3E7284600E0002003B0BDE8F08F00002DE9F04F456A95B08246219CCDE9022345B9102000F090FDCAF82400456085608D
:403280000560C560DAF82430196859B15A68012393404A608B60504600F0C9FDDAF8243000221A60039BA04A002BBDBF01232360039B0023BCBF23F000430393DDF80C8018
:4032C000A8BF236028F000431B0D1B0593421DD142F20F73209A1360029B43B9934A944BC8F31300002814BF1846104600E09048229B002B00F04685C37813B100F1080373
:4033000000E0C31C229A136000F03CBDDDE90245002200232046294601F0F6FC074658B1209A01231360229B002B00F01E8581481860013800F026BD12AB019313AB00939B
:4033400022462B46504600F0C5FFC8F30A56049056B1C5F3130343F07F51204641F44011A6F2FF3611971DE0139B129E1E4406F23243202B0ADD029A06F21240C3F1400309
:4033800022FA00F008FA03F3184304E0C3F12000029B03FA00F0FEF755FE0123A1F1F871013E11930022644BFEF70EFD58A3D3E9002301F041FA58A3D3E90023FEF706FD79
:4033C000044630460D46FEF74DFE55A3D3E9002301F032FA02460B4620462946FEF7F6FC04460D4601F0D8FC0022834600232046294601F093FC58B15846FEF733FE024657
:403400000B462046294601F07FFC08B90BF1FF3BBBF1160F0DD8DDE90223484901EBCB01D1E9000101F098FC30B10BF1FF3B002300E00123109300E01090129B9E1B731E81
:40344000079343BFC3F10008002307934FF00008BBF1000F06DB079BCDF82CB05B440793002705E00023CBEB0808CBF100070B931E9B092B28D8052BC4BF043B1E931E9B39
:40348000C8BF0025A3F10203D8BF0125032B20D8DFE803F0060E0204012302E0012308E000230A931F9B002B1DDD9946059321E000230A931F9B0BEB030909F10103012B41
:4034C0000593B8BF012315E0012500231E930A9501E001230A934FF0FF390022CDF8149012231F9206E04FF001094B46CDF81490CDF87C90DAF8244000226260042101F156
:4035000014029A421CD86268490001326260F6E761436F63A787D23FB3C8608B288AC63FFB799F501344D33F0000F07FE84E0000F14E0000C54E00000000F83F004F0000A5
:403540006168504600F03EFCDAF8243020601B680693059B0E2B00F25B81002D00F05881DDE90234BBF1000FCDE90E3430DD9F4A0BF00F034FEA2B1502EBC303E80618CBB4
:40358000CDE908340CD5DDE90E01994B05F00F05D3E9082301F07AFA0324CDE9020100E00224934E6DB1E90708D5DDE90801D6E9002301F041F9CDE9080101346D100836ED
:4035C000F0E7DDE90823DDE9020101F05FFA20E0CBF1000505B3DDE90E01844B05F00F0203EBC203D3E9002301F026F9CDE902017F4E2D110023022455B1EA0705D5D6E98E
:40360000002301F019F9013401236D100836F3E71BB1CDE9020100E00224109BE3B1DDE902560022734B2846314601F077FB98B1059B8BB1B9F1000F40F3E6800BF1FF33C1
:403640000893314600226C4B284601F0F5F80134CDE902014E4602E0059ECDF820B02046FEF700FDDDE9022301F0E6F8634B0022FEF7ACFBA1F1507304460C931D46D6B9C9
:40368000DDE9020100225E4BFEF79EFB22460C9BCDE9020101F060FB002840F03F820C99224601F10043DDE9020101F037FB002840F02B82A8E00A9A4C4B711E002A49D0F3
:4036C00003EBC103D3E9002300204E4901F0DEF922462B46FEF778FBCDE90C01069CDDE9020101F059FB0546FEF7BCFC02460B46DDE90201FEF768FBDDE90C23303504F8FE
:40370000015BCDE9020101F009FB002840F01D83DDE9022300203749FEF756FBDDE90C2301F0FCFA002840F0D180069BE31AB3426ADADDE90C0100222F4B01F07DF8002263
:40374000CDE90C01DDE902012B4B01F075F8CDE90201C4E703EBC1012246D1E900012B4601F06AF8069BCDE90C011D469C19DDE9020101F011FB0646FEF774FC02460B4662
:40378000DDE90201FEF720FB303605F8016BAC42CDE902014FF0000222D11A4BDDE90C01FEF714FB02460B46DDE9020101F0D4FA002840F08B80DDE90C2300201149FEF762
:4037C00003FB02460B46DDE9020101F0A7FAD8B114F8013C621E302B40F0B7821446F7E7054B01F029F8CDE90201C0E7004F0000D84F00000000F03F0000244000001C4062
:40380000000014400000E03FDDE90E34CDE90234139B002B7CDBBBF10E0F79DCAB4B03EBCB03D3E900671F9B002B14DA059B002B11DC40F06C810022A54B3046394600F05F
:40384000FBFFDDE9022301F07DFA059D2E46002840F05F8165E1069CDDE9028932463B464046494601F012F901F096FA0546FEF7F9FB32463B4600F0DFFF0B4602464946C6
:403880004046FEF7A1FA05F1300E069B04F801EBC3EB040E059B73452DD102460B46FEF795FA8046894602460B463046394601F035FA78B942464B463046394601F024FA71
:4038C000002800F04482EB0704D440E2DDF820B000E01C4614F8012C631E392A07D1069A9A42F6D1069930220BF1010B0A701A7801321A702BE20022764B00F09DFF00227F
:4039000000238046894601F0FFF90028A6D01EE20A9A002A2BD01E9A012A0ADC119A12B103F2334302E0129BC3F136033D46444613E0059B5D1EAF42BFBF0B9BEA1B9B1879
:403940000B93059BB6BF2F467D1B0025002BA7BF4446059BC3EB08040023079A01211A4450469844079200F001FB064602E03D4644460A9E5CB1079B002B08DDA342A8BFC4
:403980002346079AC3EB0808E41AD31A0793002F1DDD0A9BABB18DB131462A46504600F07FFB049A01460646504600F0E8FA04990890504600F03BFA089B04937A1B06D03D
:4039C00000E03A460499504600F06AFB04900121504600F0CBFA0B9B05465BB31A460146504600F05DFB1E9B0546012B18DC029B83B9039BC3F3130373B9039B23F00047CF
:403A00003F0D3F054FB1079B08F1010801330793012702E0002700E0029F0B9B73B100E000272B6905EB8303186900F052FAC0F1200004E01E9B012BD9DD0B9F0120079B7D
:403A4000184410F01F0008D0C0F12003042B02DDC0F11C0002E006D018461C30079B8044034404440793B8F1000F05DD42460499504600F063FB0490079B002B05DD2946FE
:403A80001A46504600F05AFB0546109B23B32946049800F0A4FB00281EDA00230A220499504600F0DBF90A9B0BF1FF3B0490002B00F05F81314600230A22504600F0CEF982
:403AC000B9F1000F06463FDC3BE000BF004F00000000144000002440059B002B2BDC1E9B022B28DDDDF81490B9F1000F11D129464B460522504600F0B1F90146054604986F
:403B000000F06DFB00280CDC03E0354600E000252E461F9B069C6FEA030B09E03546DDF820B0069B069A5C1C312313700BF1010B05960026F7E00A9BDDF8149023B9069CAE
:403B4000B2E01E9B022BCFDC002C05DD31462246504600F0F3FA06469FB17168504600F031F90446326906F10C01023292000C30FEF73AFE01222146504600F0DFFA059007
:403B800000E00596029B069F03F00103079329460498FFF7D9FA3146044600F13008049800F01DFB059A02902946504600F033FBC36802463BB901460A90049800F00FFB23
:403BC0000A9A034600E00123114650460A9300F02EF90A9B53B91E9A42B9079A32B9B8F1390F2AD0029B002B1CDC1DE0029A002A04DB1BD11E9ACAB9079ABAB9002B13DDA0
:403C000001220499504600F099FA2946049000F0E6FA002803DC07D118F0010F04D0B8F1390F0AD004F131087C1C0CE0002B07F101040BDDB8F1390F03D139233B7001377C
:403C400056E008F1010887F800806CE0069B2746E31A4B4504F8018C3BD000230A220499504600F0FBF8059B04909E424FF00A024FF000033146504604D100F0EFF8064687
:403C8000059084E700F0EAF8002306460A220599504600F0E3F8059079E700230A220499504600F0DBF8049029460498FFF74CFA069B00F1300804F8018BE31A4B45ECDBDD
:403CC000069B0596B9F1010FACBF4B4401331F46002601220499504600F030FA2946049000F07DFA002803DC15D118F0010F12D03C4614F8013C621E392B09D1069B934255
:403D000004D10BF1010B3123069A02E01446F0E70133137007E03C4614F8013C621E302B01D11446F8E72946504600F080F8059B6BB12EB19E4203D03146504600F077F829
:403D40000599504600F073F801E0DDF820B00499504600F06CF80023209A23700BF101031360229B1BB11C6001E008480AE0069808E0B9F1000F3FF7E2AE1E9B022B7FF743
:403D8000DEAEB1E615B0BDE8F08F00BFC44E000000487047B881FF1F024B0146186800F041BB00BFB481FF1F10B5C9B202449042034605D01C7801308C42F8D1184610BDC1
:403DC000002010BD70B5456A04460E463DB91020FFF7E2FF6062456085600560C560656AEB6843B1636ADB6853F8260078B1026843F8262017E021220421204600F0B8FA7F
:403E0000636AE860DB68002BECD1002070BD012101FA06F56A1D9200204600F0A9FA0028F3D04660856000230361C36070BD70B5446A06460D463CB91020FFF7ADFF706273
:403E4000446084600460C4603DB1736A6A68DB6853F82210296043F8225070BD2DE9F04106460C460D691F4601F1140E0023DEF80000013381B202FB0171000C0F0C02FBAB
:403E8000007089B201EB00419D424FEA10474EF8041BECDCD7B1A3689D4212DB616830460131FFF78FFF8046226904F10C01023292000C30FEF798FC21463046FFF7B7FFD3
:403EC000444604EB850301355F6125612046BDE8F081030C1B0413B90004102300E0002310F07F4F04BF0002083310F0704F04BF0001043310F0404F04BF800002330028DE
:403F000003DB420003D5581C70471846704720207047036813F007020BD0D90722D49A074BBF5B089B08036003604CBF01200220704799B209B91B0C102213F0FF0F04BF74
:403F40001B0A0832190704BF1B090432990704BF9B080232D90702D45B0805D00132036010467047002070472020704710B50C460121FFF727FF01224461026110BD2DE9A9
:403F8000F74F14460A69236988469A42BEBF0B46A0461C46D8F81070D4F81090D8F80830D8F8041007EB09069E42C8BF0131FFF709FF00F114052B4605EB860C002263459B
:403FC00002D243F8042BFAE704F1140208F1140102EB890301EB87070093009B0192934257D9B2F800B0BBF1000F23D08946AE464FF0000859F8044BBEF800A0A3B20BFB6D
:4040000003A34FEA144ADEF8004043444FEA14480BFB0A84F24604EB13449BB243EA04434F454FEA14484AF8043B01D9D646E1E7CEF80480019B0432B3F802A0BAF1000FB3
:4040400021D02C4689462B684FF00008B9F800E0B4F802B09BB20AFB0EBEA346F04443EA08434BF8043B59F8043BB4F804E01B0C0AFB03E34F4503EB18434FEA134801D993
:404080005C46E3E763600435A7E75CF8043D13B9013E002EF9DC066103B0BDE8F08F00002DE9F843154612F0030206460F4607D0214C013A002354F82220FFF7CFFE074695
:4040C000AD1036D0746A3CB91020FFF765FE7062446084600460C460D6F82480D8F808404CB940F271213046FFF740FF04460023C8F8080003604FF00008EB070AD5394692
:4041000022463046FFF73BFF814639463046FFF78EFE4F466D100CD0206808B10446ECE7224621463046FFF72AFF2060C0F80080F4E73846BDE8F883C84F00002DE9F047EE
:404140000C460746914626694FEA621A56444968A368751CAB4202DA01315B00FAE73846FFF730FE002380461A4600F11401534503DA41F823200133F9E72AEAEA73206977
:4041800001EB830319F01F0904F1140101EB800E14D0C9F1200C002208689A4600FA09F0024343F8042B51F8042B8E4522FA0CF2F2D8CAF8042042B1B51C06E0043B51F8B3
:4041C000042B8E4543F8042FF9D8013D3846C8F810502146FFF72BFE4046BDE8F08703690A6910B59B1A11D192001430143183180A4453F8044D52F8041D8C4202D007D3BA
:40420000012010BD9842F4D3002010BD184610BD4FF0FF3010BD2DE9F8430C460746114620461546FFF7DBFF061E08D131463846FFF7C8FD012303614661BDE8F883BCBF4D
:4042400023462C4638466168BABF1D4601260026FFF7B8FD2B69C660266905F1140904F1140101EB860709EB830800F114054FF0000C51F8042B59F8044B93B29C44A3B203
:40428000240CC3EB0C03C4EB124202EB23429BB24FEA224CC84543EA02428E4645F8042BE7D8BE450ED25EF8041B8AB26244131403EB114392B242EA03424FEA234C45F80E
:4042C000042BEEE755F8043D0BB9013EFAE70661BDE8F8832DE9F3411C4601219046089E099DFFF76FFDC4F31302C4F30A5407460CB142F480120192B8F1000F19D002A8DE
:4043000040F8088DFFF705FE009B48B1019AC0F1200102FA01F10B43C2407B61019200E07B61019B002B14BF02210121BB61396107E001A8FFF7EDFD019B01217B61396114
:40434000203034B1A4F2334404443460C0F1350009E0A0F2324007EB810330601869FFF7B8FDC0EB41102860384602B0BDE8F08138B502FB01F4214600F054F8054618B1BA
:4043800022460021FEF73BFA284638BD38B50546002944D051F8043C0C1F002BB8BFE41800F017FA1E4A1368114613B96360146030E0A3420DD92268A018834201BF1868C0
:4043C0005B681218226063600C6023E0A24203D813465A68002AF9D118681918A1420BD12168014458188242196013D110685268014419605A600DE002D90C232B6009E06A
:4044000021686018824201BF106852680918216062605C602846BDE8384000F0DBB938BD2482FF1F70B5CD1C25F0030508350C2D38BF0C25002D064601DBA94202D90C23CA
:40444000336046E000F0C5F9234B1C681A462146A1B10B685B1B0ED40B2B03D90B60CC18CD501EE08C420BBF63684B681360636018BF0C4615E00C464968E9E7174C236858
:404480001BB9304600F07AF920602946304600F075F9431C18D0C41C24F00304A0420DD12560304600F096F904F10B00231D20F00700C31A0ED05A42E25070BD211A304652
:4044C00000F05CF90130EBD10C233360304600F081F9002070BD00BF2482FF1F2082FF1F2DE9F0478E6882469E420C46914698463ED88A8912F4906F3AD02568096902230A
:404500006F1A656905EB450595FBF3F57B1C43449D4238BF1D4653050FD52946FFF782FF064698B13A462169FEF75EF9A38923F4906343F08003A38113E02A4600F04BF967
:40454000064670B921695046FFF720FF0C23CAF80030A3894FF0FF3043F04003A381BDE8F08726613E44266046466561ED1BA560464528BF464649463246206800F00EF9AE
:40458000A36800209B1BA36023681E442660BDE8F08700002DE9F04F9DB003938B8980461C060D4616460DD50B695BB94021FFF739FF2860286118B90C23C8F80030CDE0FE
:4045C00040236B610023099320238DF82930DFF89CB130238DF82A3037463C4614F8013B1BB9B7EB060910D003E0252BF9D02746F3E74B46324629464046FFF771FF0130D2
:4046000000F0A780099B4B4409933B78002B00F0A08000234FF0FF3204930793059206938DF853301A930126052221784E48FFF7BBFB671C049B38B14B4A3C46801A06FA18
:4046400000F018430490EFE7D90644BF20228DF853201A0744BF2B228DF8532022782A2A03D0079A00210A200BE0039A111D12680391002A10DA524243F002000792049085
:404680000BE027463B780134303B092B03D800FB02320121F5E701B107923B782E2B1ED17B782A2B0AD1039B02371A1D1B680392002BB8BF4FF0FF33059310E00023194667
:4046C0000593781C0A2407463A780130303A092A03D804FB01210123F5E703B10591032239782248FFF760FB40B14023CBEB000003FA00F0049B0137184304903978062226
:404700001B487E1C8DF82810FFF74EFB88B1194B33B9039B073323F007030833039314E003AB00932A46144B04A94046FEF700F907E003AB00932A460F4B04A94046FEF7F2
:40474000B1FBB0F1FF3F824603D0099B5344099342E7AB895B0601D4099801E04FF0FF301DB0BDE8F08F00BF00500000065000000A50000031290000E144000038B5064C4B
:404780000023054608462360FDF73EF9431C02D1236803B12B6038BD5883FF1F884210B501EB020301D8421E0BE09842FBD28118D21AD34204D013F8014D01F8014DF8E76D
:4047C00010BD994204D011F8014B02F8014FF8E710BD70477047F8B5074615460E4621B91146BDE8F840FFF71DBE1AB9FFF7CEFD2846F8BD00F015F885420ED929463846AD
:40480000FFF710FE044650B131462A46FDF7ECFF31463846FFF7BAFD01E03046F8BD2046F8BD51F8040C0028BEBF091851F8043CC01804387047000070B54FF0FF0C4CF478
:40484000E06C1CEA11541DBF1CEA135594EA0C0F95EA0C0F00F0DEF82C4481EA030621EA4C5123EA4C5350EA013518BF52EA033541F4801143F4801338D0A0FB02CE4FF009
:404880000005E1FB02E506F00042E0FB03E54FF00006E1FB03569CF0000F18BF4EF0010EA4F1FF04B6F5007F64F5407404D25FEA4E0E6D4146EB060642EAC62141EA5551E3
:4048C0004FEAC52040EA5E504FEACE2EB4F1FD0C88BFBCF5E06F1ED8BEF1004F08BF5FEA500E50F1000041EB045170BD06F0004646EA010140EA020081EA0301B4EB5C043F
:40490000C2BFD4EB0C0541EA045170BD41F480114FF0000E013C00F3AB8014F1360FDEBF002001F0004170BDC4F10004203C35DA0C341BDC04F11404C4F1200500FA05F371
:4049400020FA04F001FA05F240EA020001F0004221F0004110EBD37021FA04F642EB06015EEA430E08BF20EAD37070BDC4F10C04C4F1200500FA04F320FA05F001FA04F295
:4049800040EA020001F0004110EBD37041F100015EEA430E08BF20EAD37070BDC4F1200500FA05F24EEA020E20FA04F301FA05F243EA020321FA04F001F0004121FA04F2B4
:4049C00020EA020000EBD3705EEA430E08BF20EAD37070BD94F0000F0FD101F00046400041EB010111F4801F08BF013CF7D041EA060195F0000F18BF704703F0004652003D
:404A000043EB030313F4801F08BF013DF7D043EA0603704794EA0C0F0CEA135518BF95EA0C0F0CD050EA410618BF52EA4306D1D181EA030101F000414FF0000070BD50EAD9
:404A4000410606BF1046194652EA430619D094EA0C0F02D150EA013613D195EA0C0F05D152EA03361CBF104619460AD181EA030101F0004141F0FE4141F470014FF0000000
:404A800070BD41F0FE4141F4780170BD70B54FF0FF0C4CF4E06C1CEA11541DBF1CEA135594EA0C0F95EA0C0F00F0A7F8A4EB050481EA030E52EA03354FEA013100F0888021
:404AC0004FEA03334FF0805545EA131343EA12634FEA022245EA111545EA10654FEA00260EF000419D4208BF964244F1FD0404F5407402D25B084FEA3202B61A65EB03051B
:404B00005B084FEA32024FF480104FF4002CB6EB020E75EB030E22BFB61A754640EA0C005B084FEA3202B6EB020E75EB030E22BFB61A754640EA5C005B084FEA3202B6EB4A
:404B4000020E75EB030E22BFB61A754640EA9C005B084FEA3202B6EB020E75EB030E22BFB61A754640EADC0055EA060E18D04FEA051545EA16754FEA06164FEAC30343EA55
:404B800052734FEAC2025FEA1C1CC0D111F4801F0BD141EA00014FF000004FF0004CB6E711F4801F04BF01430020B4F1FD0C88BFBCF5E06F3FF6AFAEB5EB030C04BFB6EBA9
:404BC000020C5FEA500C50F1000041EB045170BD0EF0004E4EEA113114EB5C04C2BFD4EB0C0541EA045170BD41F480114FF0000E013C90E645EA060E8DE60CEA135594EA98
:404C00000C0F08BF95EA0C0F3FF43BAF94EA0C0F0AD150EA01347FF434AF95EA0C0F7FF425AF104619462CE795EA0C0F06D152EA03353FF4FDAE1046194622E750EA4106F7
:404C400018BF52EA43067FF4C5AE50EA41047FF40DAF52EA43057FF4EBAE12E74FF0FF3C06E000BF4FF0010C02E000BF4FF0010C4DF804CD4FEA410C7FEA6C5C4FEA430C0E
:404C800018BF7FEA6C5C1BD001B050EA410C0CBF52EA430C91EA030F02BF90EA020F0020704710F1000F91EA030F58BF994208BF90422CBFD8176FEAE37040F0010070472D
:404CC0004FEA410C7FEA6C5C02D150EA013C07D14FEA430C7FEA6C5CD6D152EA033CD3D05DF8040B704700BF8446104662468C461946634600E000BF01B5FFF7B7FF0028B8
:404D000048BF10F1000F01BD4DF808EDFFF7F4FF0CBF012000205DF808FB00BF4DF808EDFFF7EAFF34BF012000205DF808FB00BF4DF808EDFFF7E0FF94BF012000205DF8FC
:404D400008FB00BF4DF808EDFFF7CEFF94BF012000205DF808FB00BF4DF808EDFFF7C4FF34BF012000205DF808FB00BF4FEA410C7FEA6C5C02D150EA013C0AD14FEA430C27
:404D80007FEA6C5C02D152EA033C02D14FF0000070474FF0010070474FEA410212F5001215D211D56FF47873B3EB625212D94FEAC12343F0004343EA505311F0004F23FAF7
:404DC00002F018BF404270474FF00000704750EA013005D111F0004008BF6FF0004070474FF00000704700BF000000000000000025202D2D20496E697469616C697A656432
:404E000021202D2D20250D0A000000005357313A2025640D0A0000004D4F56492052582062797465733A20256C750D0A0000000047696D62616C2062617474657279204C10
:404E40003A20252E326620562C20523A20252E326620560D0A000000005100401000305100404000F0510040100000000140800A000B01400005001401400006801A014082
:404E8000800100400140000A004C0140000200500140200060520040F80400480600800A0140000500488000001A01408005004880004300494E4600696E66004E414E00F0
:404EC0006E616E00300030313233343536373839414243444546003031323334353637383961626364656600496E66696E697479004E614E00504F534958002E0000000039
:404F0000000000000000F03F000000000000244000000000000059400000000000408F40000000000088C34000000000006AF8400000000080842E4100000000D012634110
:404F40000000000084D797410000000065CDCD41000000205FA00242000000E876483742000000A2941A6D42000040E59C30A2420000901EC4BCD64200003426F56B0C4319
:404F80000080E03779C3414300A0D8855734764300C84E676DC1AB43003D9160E458E143408CB5781DAF154450EFE2D6E41A4B4492D54D06CFF08044F64AE1C7022DB54443
:404FC000B49DD9794378EA4405000000190000007D000000000000000080E03779C34143176E05B5B5B89346F5F93FE9034F384D321D30F94877825A3CBF737FDD4F15750B
:40500000232D302B2000686C4C0065666745464700000000F8B500BFF8BC08BC9E4670474D000000851A0000F8B500BFF8BC08BC9E4670472900000048500000C880FF1F70
:40504000280100007001000000000000D10F00001D100000000000000000000000000000000000000000000000000000000000000000000000000000000000000000000089
:4050800000000000000000000000000000000000000000000000000000000000000000000000000000000000000000000000000000000000000000000000000000000000F0
:4050C0006083FF1F0000E02EC05D00001800000000366E010000000000000000000000000000000000000000000000000000000000000000B24E00000000000000000000C7
:40510000000000000000000000000000000000000000000000000000000000000000000000000000000000000000000000000000000000005481FF1FFB4E000005500000DE
:405140000550000005500000055000000550000005500000055000000550000005500000FFFFFFFFFFFFFFFFFFFFFFFFFFFF00000000000000000000000000000000000095
:4051800000000000000000000000000000000000000000000000000000000000000000000000000000000000000000000000000000000000000000000000000000000000EF
:4051C00000000000000000000000000000000000000000000000000000000000000000000000000000000000000000000000000000000000000000000000000000000000AF
:40520000000000000000000000000000000000000000000000000000000000000000000000000000000000000000000000000000000000000000000000000000000000006E
:40524000000000000000000000000000000000000000000000000000000000000000000000000000000000000000000000000000000000000000000000000000000000002E
:020000040003F7
:0200000480007A
:40000000015200400364004003650040010501407308014044090140140A0140380B0140020D014001170140611801404A1901401B1A0140431B0140034001400241014046
:4000400004420140014301400244014006450140024601400647014003480140034C01400A4D014004500140015101401102890F8A388B72880F89388A72E204011003A016
:40008000046C05300611085C09300A020C140D200F90120313401480150A1704188019031B041E202009221023052470260C2708281029032B0C2C802D032F04301F31C046
:4000C00032603480350F373038083B203E043F014003470449FF4A074BFF4C404D204EF04F055008580459045A045C115D015F01604061A8624063208001820E87A0882CA2
:400100008A038B038D098F10922C95F0970C9A039B809C109D14A1ECA311A510A608A801A95CAA26AB82B02AB210B360B40FB51FB780B908BA22BE04BF44C003C640C9FFB5
:40014000CA07CBFFCC40CD20CEF0CF05D008D401D804D904DA04DB04DF01E040E1A8E240E3200122060107280B8A0E940F0110041210154216281704182019221D181E80BC
:400180001F01211422502550274429222B202D012EA02F10301432A033083729380839203B803D803E154104450849104B104D014F03500C521053245608581059055A8099
:4001C0005D025E0289018B108C109140921597109F41A420A702B013B181C0EAC2FBC4F6CAF7CCEECEFED042D60F030106021102120126012E0230013101340237023E1115
:400200003F4054185604580459045B045C205D105F0100080501062207140BC00C220E010F1011801304172918041B011C201D091E481F40200221022560260127142C20E1
:400240002E222F0231023580372539023E493F10452847404F54540458025C025E0A600463826D406E14760A772883409201C0F4C2F8C475CAF0CCF1CEF1D070D230D64176
:40028000D80D9201B201E60101400383042006050708080A09A10A140B160C130E041413151C160C17A3184019A11B0E1E08238024032604271C3180320F331A3440350F38
:4002C00036303760388039803A083B283E103F014031410245E0460C47BE483649FF4AFF4BFF4EF04F44500C5401580459045A045B045C105D115F0166C06A406B028302E0
:4003000087049402970498049E01A301AF01B001B101B204B302B402B504BE14BF11C036C105C5EEC6CBC80FC9FFCAFFCBFFCEF0CF44D00CD418D604D804D904DA04DB0478
:40034000DC01DF01E6C0EA40EB02040805600A210B080D800E200F08161019041B221D801E281F482004235024402640272829822F903208372839023A403B443D203E0A2C
:400380003F02430846024724480849414A014B084D0152B0568157845A025C605D015E086084624080808F209008923597A099209A089B049D059E819F29A008A150A2011E
:4003C000A301A6A0A70AB020B140C0E0C2E7C420CAC9CC62CEE3D072D20CD6F1D80D8102830184E7850789078D048F019402961598449A2A9D019F06A021A24AA8E7AC80FB
:40040000B018B207B460B680B707BE01D804D904DC10DF0100A6071008900A200C100E2810A813401552180419811A201B041C201D041E681FE02082222A230126802701DB
:4004400028802B2630A031043202368038083BD13D803E1540244240438049824B04590169506B1070AC80048302862188A18901921593109502960297049D829F01A140B4
:40048000A608B020B240B390C02FC267C4DFCA0FCC1FCEFFD00FD208D60132403580CC3096809D80818096809D80E22096801080C40803085840B080C002D401EE019C407A
:4004C000A3088F02B040B308E402E801EA0482409680E6808C01A302E002101070017F0288109002A302C408DC01DE04E20400070C0710031C03000F20A000005000000049
:400500001F2460005C0823007F000063081C00E173600C0000FF63000218000001E7001803100000044000000C1C00E2000000042C600F1F10004C8000800A280000100092
:4005400036020500010C000E11FFFFFF62A0F0410C0000000000021204040404111100010000000000004002001030100010101200000000000000000000000000000000CB
:400580007FFF000073180C00030000045C002363001C00E21F606000020800000110000008240000044000000C1C00E100E76318101F2C800F604C00000828820000010021
:4005C0002103050004CE000003FFFFFF62A0F0410C0000000000021304040404000000010000000000004002001030100010101200000000000000000000000000000000D7
:40060000A00050A0A000A00000000000000B0B00000000000400000602000200000000000000000000000000000000000000000000000000000000000000000000000000C6
:40064000000000000000000000000000000000000000000000000000000000000000000000000000000000000000000000000000000000000000000000000000000000007A
:40068000000000000000000000000000000000000000000000000000000000000000000000000000000000000000000000000000000000000000000000000000000000003A
:4006C00000000000000000000000000000000000000000000000000000000000000000000000000000000000000000000000000000000000000000000000000000000000FA
:4007000000000000000000000000000000000000000000000000000000000000000000000000000000000000000000000000000000000000000000000000000000000000B9
:0200000490006A
:0400000000004005B7
:0200000490105A
:04000000BC90ACAF55
:0200000490303A
:0200000047EFC8
:0200000490402A
:4000000000000000000000000000000000000000000000000000000000000000000000000000000000000000000000000000000000000000000000000000000000000000C0
:400040000000000000000000000000000000000000000000000000000000000000000000000000000000000000000000000000000000000000000000000000000000000080
:400080000000000000000000000000000000000000000000000000000000000000000000000000000000000000000000000000000000000000000000000000000000000040
:4000C0000000000000000000000000000000000000000000000000000000000000000000000000000000000000000000000000000000000000000000000000000000000000
:0200000490501A
:0C00000000012E16106900012E37585820
:00000001FF