:4000000000800020110000005D7300005D73000080B500AF024A034B1B68136007F0D0F9BC760040FA46004010B5054C237833B9044B13B10448AFF300800123237010BDA7
:400040004882FF1F0000000098EC0000084B10B51BB108490848AFF300800848036803B910BD074B002BFBD0BDE81040184700BF000000004C82FF1F98EC0000C880FF1FF8
:400080000000000080B582B000AF78600B46FB70FB78184607F0CEFA00BF0837BD4680BD80B483B000AF7860034B1B6818460C37BD4680BC704700BFE485FF1F80B582B0C5
:4000C00000AF114B1B78FB71FB7903F01E03002B04D0FB7919460D4803F0E0FDFB7903F02003002B06D00A4B1B78DBB21946074803F0B6FDFB7903F02003002BE1D100BFFD
:400100000837BD4680BD00BF6E6400406482FF1F4D64004080B500AF044B1B680133034A136007F0A7FB00BF80BD00BFE485FF1F80B582B000AF104B1B78FB71FB7903F01E
:400140001E03002B03D0FB79184601F059F8FB7903F02003002B05D0084B1B78DBB2184600F0DEFEFB7903F02003002BE3D100BF0837BD4680BD00BF6564004045640040CD
:4001800080B584B000AFF860B9607A603B604FF00001F8680CF076FC0346002B01D02D2200E020223B681A704FF00001F8680CF069FC0346002B03D0FB6883F00043FB6094
:4001C000F8680CF09DFC03461AB2BB681A80BB68B3F9003018460CF063FA03461946F8680CF0A8F903460F4918460CF0ADFA034618460CF085FC03461AB27B681A807B68A2
:40020000B3F90030002B08DA7B68B3F900309BB25B429BB21AB27B681A8000BF1037BD4680BD00BF0000C842F0B5E3B008AF07F11C03184600F03EF907F1AC0314220021FE
:4002400018460CF0DAFC62B608F01EF803F070FB8A4803F08FFB07F031FE07F0B5FE07F0EFFE00F077FD864807F00CFF854803F081FB01E007F084FE07F090FE0346002B04
:40028000F8D107F031F907F0B3F907F0EDF901E007F08AF907F096F90346002BF8D17A497A4803F0AFFC07F11C03784A1A60784807F0FCF9774803F05DFB00F0F5F807F0B6
:4002C000B7FA754807F004FB744803F053FB07F11C03184600F024FA07F05AFF034683F00103DBB2184607F035FF6D4B1B68C7F8643103F089FB034687F8633197F863316F
:40030000002B07D097F8632107F11C031146184600F0D4FB5D4803F0D9FC07F11C03184601F084FF03F00CFB07F11C03184602F003F807F11C03184602F034F907F11C03C0
:40034000184602F0B7F907F11C03184600F040FA07F11C03184600F013FC07F11C035B6ED7F86421D31A632B12D907F11C03D7F864215A6607F1AC0207F11C031146184633
:4003800000F096FA07F1AC031946404803F0DCFD07F11C0393F87030002B9DD007F11C039B6ED7F86421D31A41F28732934293D907F11C03D7F864219A6607F118034FF03E
:4003C00000021A6007F114034FF000021A6007F1140207F1180107F11C03184603F0FEF807F11803186807F10B0307F1100207F11201FFF7C5FE07F11403186807F10A033F
:4004000007F10C0207F10E01FFF7BAFE07F11C031B79184600F0CCF9024607F10B031B78194607F11203B3F900301C4607F11003B3F900301D4607F10A031B781E4607F17A
:400440000E03B3F900307B6007F10C03B3F9003007F1C00006937B68059304960395029401910092D7F864310E4AA0210DF03EF807F1C003184603F07DFA2DE7DCEC00000A
:400480003101000004ED0000A0EC00006482FF1FBD0000001CED00001501000038ED0000E485FF1F58ED000080B500AF07F066FA00BF80BD80B582B000AF786090220021C4
:4004C00078680CF09AFB7B68012283F870207B6805221A717B6805225A717B68012283F860207B68002283F830207B68002283F831207B68002283F840207B68064A1A65DC
:400500007B680022A3F854207B680022A3F8562000BF0837BD4680BD6F12833A80B485B000AF0346FB710023FB7306E0FB79074AD35CFB71FB7B0133FB73FB79002BF5D1F4
:40054000FB7B18461437BD4680BC704788ED000080B584B000AF03460A46FB711346BB71FB791846FFF7DAFF0346FB73BB791846FFF7D4FF0346BB7306E0FB79134AD35C3F
:40058000FB71FB7B013BFB73FA7BBB7B9A42F4D806E0BB790D4AD35CBB71BB7B013BBB73BA7BFB7B9A42F4D807E0FB79074AD35CFB71BB79054AD35CBB71FA79BB799A42F5
:4005C000F3D1FB7918461037BD4680BD88ED000080B586B000AF78600B46FB7007F016FE0346012B01D1012200E000227B689A717B689B79002B01D0414B00E0414B18460D
:4006000003F0B8F9FB78404A52F82330002B0DD0FB783D4A52F82330786898470346002B04D13A4803F0A6F90623FB707B681B793B75FA783B7D9A425DD0FA783B7D114652
:400640001846FFF785FF0346FB743B7DFB750FE0FB7D2F4A52F82330002B05D0FB7D2C4A52F8233078689847FB7D2A4AD35CFB75FA7DFB7C9A42EBD17B683A7D5A71002362
:40068000BB75FB787B750CE0BB7D5A1CBA7507F1180213447A7D03F80C2C7B7D1D4AD35C7B757A7DFB7C9A42EED117E0BB7D07F11802134413F80C3C1A46174B53F822307A
:4006C000002B0BD0BB7D07F11802134413F80C3C1A46114B53F8223078689847BB7D5A1EBA75002BE2D17B68FA781A710B4B1A687B68DA6600E000BF1837BD4680BD00BF63
:40070000F0EE000004EF00009CED000018EF000024EE000088ED0000E0ED0000E485FF1F80B584B000AF78607B681B79FB737B6800221A71FB7B19467868FFF749FF00BF66
:400740001037BD4680BD00BF80B584B000AFF8600B467A60FB72FB7A002B09D1124803F009F9786803F006F9104803F003F918E0FB681B7E002B02D0FB7A032B10D1FB6871
:40078000FA7A1A74FB687A685A61FB7A032B02D1FB6801221A760F21F868FFF719FF00E000BF1037BD4680BD40EF000048EF000080B483B000AF0346FB71FB79034A52F8AB
:4007C000233018460C37BD4680BC704704F0000080B582B000AF78607B681B68002B2DD0184B1A68184B1B68D31A632B06D9154B1B68154A1360786801F02AFC114B1A68F0
:40080000124B1B68D31A41F28732934217D90D4B1B680E4A1360786801F03CFC786801F05BFC786801F07AFC786801F099FC786801F0B8FC786801F0D7FC00E000BF0837AF
:40084000BD4680BDE485FF1FE885FF1FEC85FF1F80B582B000AF786039601422002138680CF0CBF93B6800221A733B6800225A733B6800229A7300BF0837BD4680BD00BFA6
:4008800080B582B000AF786039601422002138680CF0B3F93B6801221A733B6801225A733B6800229A7300BF0837BD4680BD00BF80B584B000AF786039607B6893F87130C5
:4008C000002B04D03968786801F0D0FD12E07B681B791A46094B53F82230FB60FB68002B04D0FB6839687868984703E039687868FFF7AEFF1037BD4680BD00BFACEE000099
:4009000080B584B000AF78600B46FB707B681B68002B05D1164A00217868FFF715FF23E007F1080207F10C031946786802F056FE0346002B05D10F4A00217868FFF704FF0B
:4009400012E0FA687B689A65FB78002B01D1BB6801E04FF000037A68D3657B68012283F86020054803F006F81037BD4680BD00BF48F000005CF000007CF0000080B582B095
:4009800000AF7860034802F0F5FF00BF0837BD4680BD00BF94F0000080B582B000AF78600B46FB70FB783F2B39D03F2B02DC122B05D039E05B2B2CD0782B1BD034E07B68F4
:4009C0001B7E002B10D07B6800221A767B6800221A747B6800225A61164802F0CBFF06217868FFF7F5FD03E005217868FFF7F0FD01231AE07B681B68002B04D07B681B68AD
:400A0000184603F0DFFA06217868FFF7E1FD01230BE000217868FFF773FF012305E07868FFF7ACFF012300E0002318460837BD4680BD00BF1CF1000080B483B000AF034680
:400A4000FB71FB79072B0BD0FB79082B08D0FB790A2B05D0FB790B2B02D0FB790C2B01D1012300E00023DBB218460C37BD4680BC704700BF80B582B000AF78600B46FB70DF
:400A8000FB78322B09D0332B0DD0312B11D106217868FFF79DFD01230CE007217868FFF797FD012306E00C217868FFF791FD012300E0002318460837BD4680BD80B584B0D3
:400AC00000AF78600B46FB707B681B79102B01D900233DE07B681B7E002B0BD0FB78122B06D1FB7819467868FFF756FF03462FE000232DE0FB7819467868FFF74DFF03461C
:400B0000002B01D0012323E07B681B791A46124B53F82230FB60FB68002B09D0FA78FB681146786898470346002B01D001230FE07B681B791846FFF77FFF0346002B06D128
:400B4000FB7819467868FFF795FF034600E0002318461037BD4680BD68EE000080B483B000AF0346FB71FB79063B062B01D8012300E0002318460C37BD4680BC704700BFAB
:400B800090B5ADB002AF786007F19803184600F085FC0346002B13D0D7F898207B685A62D7F89C207B689A62D7F8A0207B68DA627B68012283F830207B68012283F8312070
:400BC00007F19403184600F08FFC0346002B23D07B681B79072B1CD1B7F9943018460BF05FFD0346554918460BF062FE03461C46B7F9963018460BF053FD03464F491846BE
:400C00000BF056FE03461A462146786802F010FD02E04B4802F0AEFE07F18C03184600F089FC0346002B2AD097F88C30012B18D1D7F890207B681A657B681B6D18460BF096
:400C4000F9F803460C4607F10800CDE900343D4A40210CF04BFC07F10803184602F08AFE0DE097F88C3007F10800374A40210CF03DFC07F10803184602F07CFE00BF00F02D
:400C800081FC0346002B03D000217868FFF738FE07F18803184600F0DBFB0346002B49D07B681B7E002B06D07B681B790121184600F086FC3FE097F888301846FFF74EFF22
:400CC0000346002B14D17B681B790221184600F077FC97F8883007F108001C4A40210CF005FC07F10803184602F044FE00BF22E097F8883087F8A73097F8A7301846FFF788
:400D000057FD034607F14800114A40210CF0EEFB07F14803184602F02DFE97F8A73019467868FFF755FC7B681B790021184600F047FC00E000BFAC37BD4690BD0000C84286
:400D400030F1000054F100006CF1000088F10000A8F1000080B483B000AF1E4B00221A701D4B00221A701D4B00221A701C4B00221A801C4B00221A801B4B00221A801B4B7D
:400D800000221A600023FB710CE0FB79184A002142F82310FB79174A002122F81310FB790133FB71FB79012BEFD9134B00221A70124B00221A70124B00221A70114B00226F
:400DC0001A70114B00221A7000BF0C37BD4680BC704700BFF085FF1FF385FF1F4C86FF1F5C86FF1F5E86FF1F6086FF1F6486FF1F5086FF1F5886FF1F6986FF1F7886FF1F6A
:400E00008086FF1F8C86FF1F8D86FF1F80B584B000AF03463960FB713C4B1B68FB60FB793B4A52F82330002B13D0FB79384A52F82330FA68D31ABB60FB79BA68B2F5803FC5
:400E400002D2BA6892B201E04FF6FF72314921F81320FA7913465B0013449B002E4A13440422396818460BF0BDFEFA7913465B0013449B00284A1344181D3B680433022203
:400E800019460BF0AFFEFA7913465B0013449B00214A1344981D3B680633022219460BF0A1FEFA7913465B0013449B0008331A4A98183B680833022219460BF093FEFA79DA
:400EC00013465B0013449B000833134A1344981C3B680A33022219460BF084FEFB79012202FA03F35AB20D4B1B78DBB25BB213435BB2DAB2094B1A70FB790549FA6841F885
:400F0000232000BF1037BD4680BD00BFE485FF1F5086FF1F5886FF1F3486FF1F4C86FF1F80B584B000AF0346FB719B4B1B78042B00F22D8101A252F823F000BF510F0000F6
:400F40006D0F00007B0F0000AF0F0000D90F0000FB79AB2B03D1904B01221A7017E18F4B1B8801339AB28D4B1A8010E18C4AFB791370894B02221A7009E18A4AFB791370C3
:400F8000884B1B78402B03D9834B00221A70FEE0844B1B78002B03D17F4B04221A70F6E0814B00221A707C4B03221A70EFE07E4B1B785A1CD1B27C4A117019467B4AFB798A
:400FC0005354794B1A78774B1B789A42C0F0DE80714B04221A70D9E0714B1B781A46744B9B5CFB736F4B1A78FB7B5340DBB21A466F4B9B5CFB730023BB730CE0BB7B6B4A34
:40100000D25CFB7B5340DBB21A46694B9B5CFB73BB7B0133BB73634B1B78BA7B9A42EDD3FA7BFB799A4240F09780624B1B680133604A13605A4B1B78013B122B00F2938086
:4010400001A252F823F000BF95100000A7100000671100006711000067110000671100006711000067110000671100006711000067110000671100006711000067110000B5
:40108000D1100000B9100000011100002511000049110000434B1B780C2B66D143490020FFF7B4FE61E03F4B1B780C2B5FD13F490120FFF7ABFE5AE03A4B1B78012B58D14D
:4010C0003A4B1A783C4B1A703C4B01221A7050E0344B1B780C2B4ED1344B1B68384A1360384B0422194638480BF07CFD374B0422194637480BF076FD364B01221A703AE0CD
:40110000284B1B78042B38D1284B1A88324B1A80324B0222194632480BF064FD314B01221A702AE01F4B1B78052B28D11F4B1A782D4B1A702D4B042219462D480BF052FD5C
:401140002C4B01221A701AE0164B1B78002B18D1294B01221A7014E0284B1B8801339AB2264B1A800EE000BF0CE000BF0AE000BF08E000BF06E000BF04E000BF02E000BF02
:4011800000E000BF044B00221A7000E000BF00BF1037BD4680BD00BFF085FF1F6086FF1FF185FF1FF285FF1FF385FF1FF485FF1FC0F100006486FF1F6886FF1F6986FF1F32
:4011C0006C86FF1FF885FF1F7086FF1FFC85FF1F7486FF1F7886FF1F7C86FF1FF685FF1F7E86FF1F8086FF1F8486FF1FF585FF1F8886FF1F8C86FF1F8D86FF1F5C86FF1F11
:4012000080B483B000AF0346FB71074B1B8801339AB2054B1A80054B00221A7000BF0C37BD4680BC704700BF5E86FF1FF085FF1F80B584B000AF03463960FB71FB79012B36
:4012400001D900233BE0FB79012202FA03F3BB730023FB7309F02FF903467B731A4B1B78DAB2BB7B1340DBB2002B23D0FA793868164913465B0013449B00CA18034607CAEA
:4012800083E80700BB7BDB43DAB20F4B1B78DBB21340DAB20C4B1A700123FB73FB79002B08D106F0A3FF034683F00103DBB2184606F07EFF7B7B184609F001F9FB7B1846C7
:4012C0001037BD4680BD00BF4C86FF1F3486FF1F80B584B000AF0346FB71FB79012B17D8FB79012202FA03F3FB7309F0E4F80346BB73FB7BDB43DAB2074B1B78DBB213405C
:40130000DAB2054B1A70BB7B184609F0D8F800E000BF1037BD4680BD4C86FF1F80B400AF024B1B881846BD4680BC70476086FF1F80B400AF024B1B681846BD4680BC7047A2
:401340006486FF1F80B483B000AF0346FB71FB79012B04D8FB79054A32F8133000E0002318460C37BD4680BC704700BF5886FF1F80B483B000AF0346FB71FB79012B04D852
:40138000FB79054A52F8233000E0002318460C37BD4680BC704700BF5086FF1F80B400AF024B1B881846BD4680BC70475C86FF1F80B400AF024B1B881846BD4680BC704732
:4013C0005E86FF1F80B584B000AF03463960FB711346BB71AB2006F019FEFB79184606F015FEBB79184606F011FEFB79174AD35CFB73FA7BBB795340DBB21A46134B9B5CC6
:40140000FB730023BB7314E0BB7B3A6813441B78184606F0FBFDBB7B3A6813441A78FB7B5340DBB21A46094B9B5CFB73BB7B0133BB73BA7BBB799A42E6D3FB7B184606F01B
:40144000E5FD00BF1037BD4680BD00BFC0F1000080B584B000AF78600023FB7309F02BF80346BB730B4B1B78DBB2002B08D07B68094A12781A70074B00221A700123FB736D
:40148000BB7B184609F01BF8FB7B18461037BD4680BD00BF6986FF1F6886FF1F80B584B000AF78600023FB7309F005F80346BB730B4B1B78DBB2002B09D07B68094A07CAEA
:4014C00083E80700064B00221A700123FB73BB7B184608F0F4FFFB7B18461037BD4680BD7886FF1F6C86FF1F80B584B000AF78600023FB7308F0DFFF0346BB730B4B1B782E
:40150000DBB2002B08D07B68094A10681860074B00221A700123FB73BB7B184608F0CFFFFB7B18461037BD4680BD00BF8086FF1F7C86FF1F80B584B000AF78600023FB732C
:4015400008F0B9FF0346BB730C4B1B78DBB2002B0AD07B680A4A92E8030083E80300074B00221A700123FB73BB7B184608F0A7FFFB7B18461037BD4680BD00BF8C86FF1F9A
:401580008486FF1F80B582B000AF0023FB7108F092FF0346BB71094B1B78DBB2002B04D0064B00221A700123FB71BB79184608F086FFFB7918460837BD4680BD8D86FF1FCF
:4015C00080B584B000AF03460A46FB711346BB71FB793B73BB797B7307F10C03022219463020FFF7EFFE00BF1037BD4680BD00BF80B582B000AF78600E4978680BF056FAD3
:401600000346002B02D047F6FF730EE04FF0474178680BF041FA0346002B01D0064B04E078680BF06DFA03461BB218460837BD4680BD00BF00FEFF460080FFFF80B582B054
:4016400000AF78604FF0000178680BF025FA0346002B01D000230EE04FF09F4178680BF025FA0346002B02D04FF0FF3303E078680BF06CFA034618460837BD4680BD00BF7A
:4016800080B582B000AF78604FF0000178680BF003FA0346002B01D000230EE0094978680BF004FA0346002B02D04FF6FF7304E078680BF04BFA03469BB218460837BD466C
:4016C00080BD00BF00FF7F4780B5BEB000AF786039601C22002138680BF08FFA504B1A683B681A607B681A793B681A717B681B68002B00F090807B681B680C33C7F8F430EC
:40170000D7F8F4301A7B3B685A71D7F8F4305A7B3B689A71D7F8F4309A7B3B68DA71D7F8F430DA7B3B681A72D7F8F4301A7C3B685A72D7F8F4301B683A4918460BF004F88A
:4017400003461846FFF754FF03461A463B685A81D7F8F4305B68334918460AF0F5FF03461846FFF745FF03461A463B689A81D7F8F4309B682B4918460AF0E6FF034618463E
:40178000FFF736FF03461A463B68DA817B681B6807F108021146184602F086FC97F824203B681A7497F825203B685A74BB691E4918460AF0C9FF03461846FFF719FF0346D4
:4017C0001A463B685A82FB69174918460AF0BCFF03461846FFF70CFF03461A463B689A823B6A114918460AF0AFFF03461846FFF7FFFE03461A463B68DA827B690A49184647
:401800000AF0A2FF03461846FFF7F2FE03461A463B681A8300E000BFF837BD4680BD00BFE485FF1F0000C84200FEFF4680B582B000AF786039601422002138680BF0DDF9A7
:40184000124B1A683B681A60FFF7A8FD03461A463B689A80FFF7ACFD03461A463B68DA80FFF75CFD03461A463B681A81FFF760FD02463B68DA600020FFF764FD03461A4658
:401880003B681A8200BF0837BD4680BDE485FF1F80B5BEB000AF786039601022002138680BF0ABF9284B1A683B681A607B681B68002B45D07B681B6807F10C0211461846F6
:4018C00002F0F2FB3B69214918460AF03DFF03461846FFF7D5FE03461A463B689A807B691A4918460AF030FF03461846FFF7C8FE03461A463B68DA80D7F8A0301349184661
:401900000AF022FF03461846FFF7BAFE03461A463B681A81D7F8C0300C4918460AF014FF03461846FFF764FE03461A463B685A8197F8AC203B681A733B6800225A7300E0AE
:4019400000BFF837BD4680BDE485FF1F00007A4480B5BEB000AF786039600C22002138680BF04BF9174B1A683B681A607B681B68002B23D07B681B6807F10C02114618465D
:4019800002F092FBD7F8A8300F4918460AF0DCFE03461846FFF72CFE03461A463B689A80D7F8B430094918460AF0CEFE03461846FFF744FE02463B689A6000E000BFF8378F
:4019C000BD4680BDE485FF1F000020410000C84280B5BEB000AF786039602022002138680BF00BF9234B1A683B681A607B681B68002B3BD07B681B6807F10C021146184626
:401A000002F052FB97F82A30002B01D0012200E0002297F82B30002B01D0022300E000231343DAB23B681A7197F8A4203B685A71FA6C3B689A603A6D3B68DA607A6D3B686D
:401A40001A61B7F958203B689A82B7F95A203B68DA82B7F85C203B681A83B7F85E203B685A83B7F860203B689A8300E000BFF837BD4680BDE485FF1F80B5BEB000AF786015
:401A800039601022002138680BF0B7F81B4B1A683B681A607B681B68002B2AD07B681B6807F10C021146184602F0FEFA97F86230002B01D0012200E000223B681A717B6EFC
:401AC0000F4918460AF040FE034618460BF018F802463B689A60BB6E0A4918460AF034FE03461846FFF784FD03461A463B689A8100E000BFF837BD4680BD00BFE485FF1F82
:401B0000000020410000C84280B5BEB000AF786039601022002138680BF06FF82A4B1A683B681A607B681B68002B49D07B681B6807F10C021146184602F0B6FA97F8C6301C
:401B4000002B01D0012200E000223B681A71D7F8C8301E4918460AF0F7FD03461846FFF747FD03461A463B68DA80D7F8CC30174918460AF0E9FD03461846FFF739FD034690
:401B80001A463B681A81D7F8D030104918460AF0DBFD03461846FFF72BFD03461A463B685A81D7F8E8300A4918460AF0CDFD03461846FFF71DFD03461A463B689A8100E0E9
:401BC00000BFF837BD4680BDE485FF1F00007A440000204180B584B000AF786039603B68FB607B6804221946F8680AF0FBFFFB680433FB60FB685A1CFA607A6812791A70AF
:401C0000FB685A1CFA607A6852791A70FB685A1CFA607A6892791A70FB685A1CFA607A68D2791A70FB685A1CFA607A68127A1A70FB685A1CFA607A68527A1A707B680A33F0
:401C400002221946F8680AF0CDFFFB680233FB607B680C3302221946F8680AF0C3FFFB680233FB607B680E3302221946F8680AF0B9FFFB680233FB60FB685A1CFA607A6853
:401C8000127C1A70FB685A1CFA607A68527C1A707B68123302221946F8680AF0A3FFFB680233FB607B68143302221946F8680AF099FFFB680233FB607B68163302221946C4
:401CC000F8680AF08FFFFB680233FB607B68183302221946F8680AF085FFFB680233FB60FA683B68D31ADBB218461037BD4680BD80B584B000AF786039603B68FB607B68B9
:401D000004221946F8680AF06DFFFB680433FB607B68043302221946F8680AF063FFFB680233FB607B68063302221946F8680AF059FFFB680233FB607B6808330222194632
:401D4000F8680AF04FFFFB680233FB607B680C3304221946F8680AF045FFFB680433FB607B68103302221946F8680AF03BFFFB680233FB60FA683B68D31ADBB2184610373A
:401D8000BD4680BD80B584B000AF786039603B68FB607B6804221946F8680AF023FFFB680433FB607B68043302221946F8680AF019FFFB680233FB607B68063302221946E2
:401DC000F8680AF00FFFFB680233FB607B68083302221946F8680AF005FFFB680233FB607B680A3302221946F8680AF0FBFEFB680233FB60FB685A1CFA607A68127B1A7081
:401E0000FB685A1CFA607A6892F90D20D2B21A70FA683B68D31ADBB218461037BD4680BD80B584B000AF786039603B68FB607B6804221946F8680AF0D5FEFB680433FB6052
:401E40007B68043302221946F8680AF0CBFEFB680233FB607B68083304221946F8680AF0C1FEFB680433FB60FA683B68D31ADBB218461037BD4680BD80B584B000AF7860AA
:401E800039603B68FB607B6804221946F8680AF0A9FEFB680433FB60FB685A1CFA607A6812791A70FB685A1CFA607A6852791A707B68083304221946F8680AF093FEFB68A8
:401EC0000433FB607B680C3304221946F8680AF089FEFB680433FB607B68103304221946F8680AF07FFEFB680433FB607B68143302221946F8680AF075FEFB680233FB60EF
:401F00007B68163302221946F8680AF06BFEFB680233FB607B68183302221946F8680AF061FEFB680233FB607B681A3302221946F8680AF057FEFB680233FB607B681C3358
:401F400002221946F8680AF04DFEFB680233FB60FA683B68D31ADBB218461037BD4680BD80B584B000AF786039603B68FB607B6804221946F8680AF035FEFB680433FB6071
:401F8000FB685A1CFA607A6812791A707B68083304221946F8680AF025FEFB680433FB607B680C3302221946F8680AF01BFEFB680233FB60FA683B68D31ADBB218461037B3
:401FC000BD4680BD80B584B000AF786039603B68FB607B6804221946F8680AF003FEFB680433FB60FB685A1CFA607A6812791A707B68063302221946F8680AF0F3FDFB68EC
:402000000233FB607B68083302221946F8680AF0E9FDFB680233FB607B680A3302221946F8680AF0DFFDFB680233FB607B680C3302221946F8680AF0D5FDFB680233FB60AC
:40204000FA683B68D31ADBB218461037BD4680BD80B592B000AF786007F1280319467868FFF732FB07F10C0207F1280311461846FFF7B0FD034687F8473097F8472007F1CB
:402080000C0319462020FFF79DF900BF4837BD4680BD00BF80B58CB000AF786007F1180319467868FFF7C2FB07F1080207F1180311461846FFF71CFE034687F82F3097F81C
:4020C0002F2007F1080319462320FFF77BF900BF3037BD4680BD00BF80B58CB000AF786007F11C0319467868FFF7D2FB07F10C0207F11C0311461846FFF744FE034687F87A
:402100002F3097F82F2007F10C0319462120FFF759F900BF3037BD4680BD00BF80B58AB000AF786007F1180319467868FFF710FC07F10C0207F1180311461846FFF770FED2
:40214000034687F8273097F8272007F10C0319462220FFF737F900BF2837BD4680BD00BF80B592B000AF786007F1240319467868FFF72EFC07F1080207F12403114618462D
:40218000FFF77AFE034687F8473097F8472007F1080319462420FFF715F900BF4837BD4680BD00BF80B58AB000AF786007F1140319467868FFF760FC07F1080207F11403EE
:4021C00011461846FFF7CCFE034687F8273097F8272007F1080319462520FFF7F3F800BF2837BD4680BD00BF80B58CB000AF786007F11C0319467868FFF786FC07F10C0204
:4022000007F11C0311461846FFF7DCFE034687F82F3097F82F2007F10C0319462620FFF7D1F800BF3037BD4680BD00BF80B588B000AF78607B681B68002B53D02D4B1A68CB
:402240007B685B6ED31A042B4ED92A4B1B683B614FF0FF33FB610023BB6100237B6122E025497A6913465B0013449B000B4408331B683A69D31AFB601F497A6913465B00E0
:4022800013449B000B4404331A68FB689A4207D8FA68BB699A4203D3FB68BB617B69FB617B6901337B617B69032BD9D9FB69B3F1FF3F1BD07B6818680F49FA6913465B0054
:4022C00013449B000B441B88194601F099FE0A49FA6913465B0013449B000B4408333A691A6004E000BF02E000BF00E000BF2037BD4680BDE485FF1FCC80FF1F80B582B03E
:4023000000AF78607B680022DA60034801F032FB00BF0837BD4680BDC0F2000080B582B000AF7860034801F025FB00BF0837BD4680BD00BFFCF2000080B584B000AF786059
:402340007B681B79052B2CD17B689B79002B28D007F1080207F10C031946786801F03EF90346002B18D07B68DB68002B03D11B4B1A687B68DA60194B1A687B68DB68D31AB0
:4023800041F28732934222D9154801F0F3FA06217868FEF71DF91AE07B680022DA6000BF15E07B681B79062B14D17B689B79002B10D07B6893F83030002B0AD0094801F083
:4023C000D9FA0A217868FEF703F900BF01E000BF00E000BF1037BD4680BD00BFE485FF1F1CF300004CF3000080B582B000AF78600B46FB70FB781946786801F00FFA034656
:40240000002B01D0012300E0002318460837BD4680BD00BF80B483B000AF78607B681B79062B0CBF01230023DBB218460C37BD4680BC704780B582B000AF7860034801F0E7
:4024400099FA00BF0837BD4680BD00BF7CF3000080B483B000AF78607B68002283F8712000BF0C37BD4680BC704700BF80B582B000AF786039603B6800229A733B684FF06C
:4024800000029A603B6800221A747B6893F87130002B24D03B6802225A733B685A7B3B681A737B68D3F880207B689B6F194610460AF040F80346134918460AF0F9F9034609
:4024C0001A463B681A607B68D3F884300D4918460AF0EEF903461A463B685A600EE03B6801225A733B685A7B3B681A733B684FF000021A603B684FF000025A6000BF08373F
:40250000BD4680BD0000344380B582B000AF78600B46FB70FB781946786801F07FF90346002B01D0012335E0FB78362B23D0362B04DC322B0FD0342B15D02AE0382B02D0DA
:40254000652B20D025E0154A4FF00001786801F06FF801231EE0124A4FF00001786801F067F8012316E04FF000020D49786801F05FF801230EE04FF000020849786801F0C3
:4025800057F8012306E006217868FEF721F8012300E0002318460837BD4680BD6801B43B6801B4BB80B586B000AF78607B6893F87130002B49D0284B1A687B685B6FD31AA5
:4025C0003B613B69952B42D90023FB7507F1080207F10C031946786801F000F80346002B27D0FA687B68D3F880301946104609F0A1FF034623F00043184918460AF042FAEF
:402600000346002B13D0BA687B68D3F884301946104609F08FFF034623F000430F4918460AF030FA0346002B01D0012300E00023FB75FB7D002B03D13B69B3F5FA6F07D328
:402640007B68002283F8712002E000BF00E000BF1837BD4680BD00BFE485FF1FCDCC4C3D80B584B000AF786007F1080207F10C031946786800F0B2FF034618461037BD4648
:4026800080BD00BF80B483B000AF78607B6893F8603018460C37BD4680BC704780B483B000AF78607B6893F8303018460C37BD4680BC7047F0B5BBB006AFF860FB681B7934
:4026C000082B66D1FB6893F87130002B61D0BD4B1A68FB685B6FD31AC7F8C830D7F8C830952B40F26381002387F8CF3007F1B80207F1BC031946F86800F070FF0346002BF1
:402700002AD0D7F8BC20FB68D3F880301946104609F010FF034623F00043AB4918460AF0B1F90346002B14D0D7F8B820FB68D3F884301946104609F0FDFE034623F000439B
:40274000A14918460AF09EF90346002B01D0012300E0002387F8CF3097F8CF30002B05D1D7F8C830B3F5FA6FC0F02081974801F001F9FB68DB79002B01D0062300E009232C
:4027800087F8C73097F8C7301946F868FDF720FF0CE1FB681B79092B32D107F1AC0319460020FEF745FD0346002B11D0B7F9B020FB68A3F85420B7F9B220FB68A3F8562096
:4027C000834801F0D7F80C21F868FDF701FFF6E0FB689B79002B00F0EB807A4B1A68FB689B68D31A42F20F72934240F2E180794801F0C0F80B21F868FDF7EAFE00BFD7E0FB
:40280000FB681B790A2B18D16E4B1A68724B1B68D31A41F2873293420BD96A4B1B686E4A1360FB6893F83030002B02D0F86800F0FFFAF86800F070FBC1E0FB681B790C2BF5
:402840007ED1002387F8C630002387F8CE3053E007F1A00297F8CE3011461846FEF7E8FC0346002B42D097F8CE30002B0CD1B7F9A420FB68A3F85420B7F9A620FB68A3F874
:402880005620012387F8C63097F8CE30534A52F82340B7F9A4301D46B7F9A6301E4697F8CE301846FEF74EFD0346BB60FEF740FD7860FEF773FD03463B60FEF779FD0346CB
:4028C00007F1140005933A6804927A680392BB680293019600952346414A80210AF006FE07F11403184601F045F800E000BF97F8CE30013387F8CE3097F8CE30012BA7D95D
:402900000020FEF735FDC7F8C000D7F8C030002B50D0FB68DA6ED7F8C0309A424AD2294B1A68D7F8C030D31A41F28732934241D92C4801F01FF80D21F868FDF749FE39E08A
:40294000FB681B790D2B1BD107F1940319460020FEF76EFC0346002B2ED0B7F99820FB68A3F85420B7F99A20FB68A3F856201E4801F000F80C21F868FDF72AFE00BF1BE0F3
:40298000FB681B790E2B1AD1FB689B79002B15D0FB6893F83030002B10D0144800F0EAFF0A21F868FDF714FE00BF07E000BF06E000BF04E000BF02E000BF00E000BFD4375E
:4029C000BD46F0BDE485FF1FCDCC4C3DBCF30000D4F30000FCF300009086FF1FFC80FF1F28F4000064F4000094F40000C8F4000080B584B000AF7860204800F0BBFF7B68AE
:402A000093F86030002B09D11D4A00217868FDF79BFE06217868FDF7DBFD2CE007F1080207F10C031946786800F0D8FD0346002B09D1144A00217868FDF786FE0621786869
:402A4000FDF7C6FD17E0FA687B689A67BA687B68DA677B689A6D7B68C3F880207B68DA6D7B68C3F884207B68012283F87120064B1A687B685A671037BD4680BDF0F4000094
:402A80001CF500003CF50000E485FF1F80B582B000AF78607B68002283F871200020FEF717FC7B680022DA7100BF0837BD4680BD80B582B000AF78600B46FB70FB78652BEB
:402AC00005D106217868FDF783FD012300E0002318460837BD4680BD80B582B000AF786039603B6800221A743B6800229A733B684FF000029A603B6802225A733B685A7BEB
:402B00003B681A737B68D3F880207B689B6F1946104609F00FFD03460B49184609F0C8FE03461A463B681A607B68D3F884300649184609F0BDFE03461A463B685A6000BF68
:402B40000837BD4680BD00BF0000344380B582B000AF7860054B1A687B689A60044800F009FF00BF0837BD4680BD00BFE485FF1F58F5000080B582B000AF78600B46FB7044
:402B8000FB781946786800F049FE0346002B01D0012300E0002318460837BD4680BD00BFB0B58AB000AFF860B9607A603B603749F86809F0C9FD03463B623449786809F015
:402BC000C3FD0346FB61B968386809F0B3FC03462E49184609F0B8FD0346BB61B86907F0F3FC0446F86907F0B3FC03461946204609F0AAFD03467B61386A07F0A9FC044623
:402C0000F86907F0E1FC03461946204609F09CFD03461C46386A07F0D7FC0546F86907F097FC03461946284609F08EFD03461D46B86907F08DFC03461946284609F084FDFB
:402C400003461946204609F075FC03463B613969786907F049FD03460D49184609F074FD03467B624FF00001786A09F00BFF0346002B05D00749786A09F05EFC03467B6291
:402C80007B6A18462837BD46B0BD00BF98F98E3CE62E65420000B443B0B58AB000AFF860B9607A603B605049F86809F04DFD03463B624D49386809F047FD0346FB61B968A7
:402CC000B86B09F037FC03464749184609F03CFD0346BB61396AF86909F02CFC03467B614FF07C51786909F02FFD0346184607F06BFC04464FF07C51786909F025FD0346BB
:402D0000184607F061FC03461946204609F01CFD03461C46386A07F01BFC0546F86907F017FC03461946284609F00EFD03461D464FF07C51B86909F007FD0346184607F022
:402D400043FC03461946284609F0FEFC03461D464FF07C51B86909F0F7FC0346184607F033FC03461946284609F0EEFC03461946204609F0E1FB03463B61386907F0B6FC6E
:402D8000044639694FF07E5009F0D4FB0346184607F0ACFC03461946204607F0A5FC03461249184609F0D0FC03467B624FF07E51786A09F067FE0346002B02D04FF07E53D5
:402DC0007B627968F86B09F0B5FB0346796A184607F08AFC03460649184609F0B5FC034618462837BD46B0BD98F98E3C706D424BE62E654280B483B000AF78607B685A6AD7
:402E00007B685A637B689A6A7B689A637B68DA6A7B68DA637B68002283F840207B68002283F8312000BF0C37BD4680BC704700BF80B5C2B002AF78607B681B6807F10802E4
:402E40001146184601F030F997F8263083F00103DBB2002B54D17B685B6B184609F020FC03462A49184609F06FFC0346C7F8FC307B689B6B184609F013FC0346234918461A
:402E800009F062FC0346C7F8F8307B68DB6B184609F006FC03461E49184609F055FC0346C7F8F430B86AF96AD7F8F830D7F8FC20FFF776FE0246BB6B1946104609F03AFB63
:402EC00003461449184609F0F3FC03461A467B68DA61B86AF96A3A6BD7F8F4300193D7F8F8300093D7F8FC30FFF7D6FE03460949184609F0DDFC03461A467B681A6200E06C
:402F000000BF07F58077BD4680BD00BF95BFD6336F12833A0000344390B58BB000AF7860694B1B683B627B68DB6C3A6AD31A312B40F2C38007F1080207F10C03194678681F
:402F400000F04CFB0346002B00F0B9805F4B7B627B68DB6C002B34D07B68DB6C3A6AD31A184609F099FB03465949184609F0ECFB0346FB614FF00001F86909F0A1FD0346A8
:402F8000002B1ED0FA687B685B6C1946104609F0D1FA034623F00044BA687B689B6C1946104609F0C7FA034623F000431946204609F0C2FA0346F969184609F079FC03467F
:402FC0007B62FA687B685A64BA687B689A647B683A6ADA647B68DB693E49184609F0B4FB0346BB617B681B6A3A49184609F0ACFB03467B61FB68B969184609F09BFA034648
:4030000023F000434FF07C51184609F03BFD0346002B11D0BB687969184609F08BFA034623F000434FF07C51184609F02BFD0346002B01D0012300E00023FB7401231C46DE
:403040004FF07E51786A09F01DFD0346002B01D100231C46E3B2BB747B6893F83130002B14D07B6893F84030002B05D1FB7C002B0CD0BB7C002B09D0174800F07BFC7868A2
:40308000FFF7B8FE7868FFF7D3FE19E07B6893F84030002B14D1FB7C002B11D0BB7C002B0ED07B68012283F840200C4800F062FC09217868FDF78CFA02E000BF00E000BFCC
:4030C0002C37BD4690BD00BFE485FF1F286B6E4E6F12833A000034438CF50000B4F5000080B582B000AF78607B6893F83030002B07D10B4800F03EFC06217868FDF768FA10
:403100000BE0084800F036FC7B680022DA647868FFF770FE7868FFF78BFE0837BD4680BDDCF500000CF6000080B582B000AF78600020FEF7CDF87B6893F84030002B03D056
:4031400001217868FDF7DCFB7B684FF000021A627B681A6A7B68DA6100BF0837BD4680BD80B582B000AF78600B46FB70FB78652B05D106217868FDF72BFA012300E0002355
:4031800018460837BD4680BD80B582B000AF786039603B6800221A743B6800229A733B684FF000029A603B6802225A733B685A7B3B681A737B68DB691C49184609F062FC2B
:4031C0000346002B01D0194B0EE07B68DB694FF07E51184609F074FC0346002B02D04FF07E5301E07B68DB693A6813607B681B6A0E49184609F046FC0346002B01D00B4BD6
:403200000EE07B681B6A4FF07E51184609F058FC0346002B02D04FF07E5301E07B681B6A3A68536000BF0837BD4680BD000080BF80B582B000AF7860034800F09BFB00BF90
:403240000837BD4680BD00BF40F6000080B582B000AF78607B680022A3F854207B680022A3F85620034800F085FB00BF0837BD4680BD00BF6CF6000080B582B000AF7860BA
:403280000B46FB70FB78652B05D106217868FDF79FF9012300E0002318460837BD4680BD80B584B000AF786039603B6800221A743B6800229A733B684FF000029A603B68B3
:4032C00001225A733B685A7B3B681A737B68B3F95430184609F0E4F903463749184609F033FA0346FB607B68B3F95630184609F0D7F903463049184609F026FA0346BB6025
:403300007B681B6DF968184609F01EFA03462B49184609F0B7FB0346002B01D0274B18E07B681B6DF968184609F00EFA03464FF07E51184609F0C4FB0346002B02D04FF0C0
:403340007E5306E07B681B6DF968184609F0FCF903463A6813607B681B6DB968184609F0F3F903461549184609F08CFB0346002B02D04FF07E5319E07B681B6DB968184693
:4033800009F0E2F903464FF07E51184609F098FB0346002B01D0094B08E07B681B6DB968184609F0D1F9034683F000433A68536000BF1037BD4680BDCDCCCC3D000080BF4F
:4033C00080B582B000AF7860034800F0D3FA00BF0837BD4680BD00BF98F6000080B582B000AF78600B46FB70FB781946786800F015FA0346002B01D0012309E0FB78332BCE
:4034000005D10B217868FDF7E3F8012300E0002318460837BD4680BD80B582B000AF7860034800F0A7FA00BF0837BD4680BD00BFF0F6000080B582B000AF78600B46FB7080
:40344000FB781946786800F0E9F90346002B01D0012309E0FB78332B05D10B217868FDF7B7F8012300E0002318460837BD4680BD80B483B000AF0346FB71FB79022B05D0DB
:40348000032B05D0012B05D1054B04E0054B02E0054B00E0054B18460C37BD4680BC704734F700003CF7000048F7000050F7000080B582B000AF7860164800F05BFA7B6832
:4034C0001B7C1846FFF7D4FF0346184600F052FA114800F04FFA7B685B69002B02D07B685B6900E00D4B184600F044FA7B681B7C032B07D17B681B68002B03D0084800F066
:4035000039FA02E0074800F035FA00BF0837BD4680BD00BF58F7000064F7000068F7000074F70000A8F7000080B584B000AF78600B46FB707B681B7C032B13D07B685B790A
:403540000F2B06D07B685B79102B02D07B685B7900E00623FB73FB7B19467868FDF738F8012300E0002318461037BD4680BD00BF80B582B000AF7860074800F0FBF97B68A1
:403580001B68002B04D07B681B68184600F01AFD00BF0837BD4680BDC4F7000080B483B000AF78600B46FB70002318460C37BD4680BC704780B582B000AF78603960396839
:4035C0007868FDF75DF97B681B7C032B02D13B6801221A7400BF0837BD4680BD80B5C0B000AFF860B9607A60FB681B68002B01D1002318E0FB681B6807F11402114618464E
:4036000000F052FD3B7D83F00103DBB2002B01D0002308E007F1100307F114007A68B96800F0AEFD0346184607F58077BD4680BDF0B599B002AFF860B9607A60FB6893F821
:403640007130002B3FD107F1500207F154031946F868FFF7C3FF0346002B05D1694A0021F868FDF771F8CAE07B6D184608F0E2FB05460E463B6D184608F0DCFB03460C46AF
:4036800007F11000CDE900342A4633465E4909F05FFF07F11003184600F06CF95B4800F069F97A6DFB689A673A6DFB68DA677A6DFB68C3F880203A6DFB68C3F88420FB6877
:4036C000012283F87120FB68D3F88030B968184608F032FF03461C46FB689B6D4C49184608F028FF03461946204609F0CBF90346002B08D0FB689B6D4549184608F01AFF6E
:4037000003461A4628E0FB68D3F88030B968184608F012FF03461C46FB689B6D3C49184608F00AFF03461946204609F0C9F90346002B08D0FB689B6D3549184608F0FCFE2A
:4037400003461A4608E0FB68D3F88030B968184608F0F2FE03461A46FB68C3F88020FB68D3F884307968184608F0E6FE03461C46FB68DB6D2749184608F0DCFE0346194671
:40378000204609F07FF90346002B08D0FB68DB6D2049184608F0CEFE03461A4628E0FB68D3F884307968184608F0C6FE03461C46FB68DB6D1749184608F0BEFE03461946B2
:4037C000204609F07DF90346002B08D0FB68DB6D1049184608F0B0FE03461A4608E0FB68D3F884307968184608F0A6FE03461A46FB68C3F88420084B1A68FB685A675C375B
:40380000BD46F0BDFCF700001CF800003CF800000000F0410000A041E485FF1F80B582B000AF78600B46FB70FB78613B162B77D801A252F823F000BFFF380000213900006B
:40384000213900000F3900002139000021390000213900002139000095380000B9380000A7380000CB38000021390000213900002139000021390000213900002139000082
:40388000EF380000213900002139000021390000DD3800004FF07C524FF000017868FFF7C7FE01233DE04FF03F424FF000017868FFF7BEFE012334E04FF000024FF03F41CB
:4038C0007868FFF7B5FE01232BE04FF000024FF07C517868FFF7ACFE012322E04FF07E524FF000017868FFF7A3FE012319E00F4A4FF000017868FFF79BFE012311E04FF0DE
:4039000000020A497868FFF793FE012309E04FF000024FF07E517868FFF78AFE012300E0002318460837BD4680BD00BF000080BF80B500AF0021002004F028FD00BF80BDD5
:4039400080B500AF04F0C4FE0346002B0DD004F0B3FE0346002B05D005F0B2F8044B01221A7002E0024B00221A7000BF80BD00BF9486FF1F80B586B000AF7860204B1B7815
:40398000002B37D07B68002B34D0786809F004FEF86000237B6128E000233B6106E03B6901333B613B69174A934225D805F024F90346002BF3D0FA687B69D31A402B06D8D4
:4039C000FB689AB27B699BB2D31A9BB200E040237B817A687B6913447A891146184605F0C3F87B897A6913447B617A69FB689A42D2D302E000BF00E000BF1837BD4680BD39
:403A00009486FF1F400D030080B582B000AF0C4B1B78002B01D100230EE005F0DBF80346002B01D1002307E00023FB71FB1D0121184605F0F3F8FB7918460837BD4680BD80
:403A40009486FF1F80B483B000AF0346FB80FB880133FB80FB88FF2B01D90023FB80FB8818460C37BD4680BC704700BF80B483B000AF78607B680022A3F800217B68002250
:403A8000A3F802217B680022A3F8042100BF0C37BD4680BC704700BF80B584B000AF78600B46FB707B68B3F800319BB21846FFF7C9FF0346FB817B68B3F802319BB2FA89A2
:403AC0009A420AD17B68B3F804319BB201339AB27B68A3F8042100230CE07B68B3F800319BB219467B68FA785A547B68FA89A3F80021012318461037BD4680BD80B582B0CD
:403B000000AF786039607B68B3F800319AB27B68B3F802319BB29A4201D1002316E07B68B3F802319BB21A467B689B5CDAB23B681A707B68B3F802319BB21846FFF782FFA1
:403B400003461A467B68A3F80221012318460837BD4680BD80B483B000AF78607B681B680F4A13617B685B680D4A93617B689B680B4A13627B681A7B094B1A757B685A7B25
:403B8000074B1A777B689A7B054B83F824207B681A7C034B1A7300BF0C37BD4680BC70470481FF1F80B582B000AF78607A680021002000F0CFFB00BF0837BD4680BD00BF64
:403BC00080B584B000AF78600023FB6009E07B685B687A681268F97A10469847FB680133FB607B6803F22A2307F10B0211461846FFF784FF0346002BE9D1FB681846103744
:403C0000BD4680BD80B582B000AF786039604FF460720021786808F0F0FF7B683A6807CA83E807007B68022283F830237B6803F592731846FFF71AFF7B6803F22A23184653
:403C4000FFF714FF044A7B681360044B1B68984700BF0837BD4680BD9886FF1F0481FF1F80B582B000AF78600B46FB707B68002B0FD07B6803F59273FA7811461846FFF735
:403C80000BFF7B68B3F828329AB27B68A3F8202100E000BF0837BD4680BD00BF80B483B000AF78600B46FB707B68002B09D07B6893F82221FB781343DAB27B6883F82221F2
:403CC00000E000BF0C37BD4680BC704780B58AB000AF78607B68002B00F02F81994BD3F880307B6202E17B68D3F818315A1C7B68C3F81821FB7A1946002002F0C5FD0346F4
:403D00003B623B6A002B00D1F0E07B68D3F814315A1C7B68C3F814218A4BFB61FB691B697B83FB699B893B83FB691B6F7B617B6820331846FFF736FF7B69002B00F09F8035
:403D40007B8B013B2F2B00F2998001A252F823F0473E00007D3E0000233E0000113E00007D3E00007D3E00007D3E00007D3E00007D3E00007D3E00007D3E0000593E0000F8
:403D80007D3E00007D3E00007D3E00007D3E00007D3E00007D3E00007D3E00007D3E00007D3E0000353E00007D3E00007D3E00007D3E00007D3E00007D3E00007D3E00009B
:403DC0007D3E00007D3E00007D3E00007D3E00007D3E00007D3E00007D3E00007D3E00007D3E00007D3E00007D3E00007D3E00007D3E00007D3E00007D3E00007D3E000013
:403E00007D3E00007D3E00007D3E00006B3E00007B6803F120023B8B1946786900F0CEFA2DE07B6803F120023B8B1946786900F095FB24E07B6803F120023B8B1946786962
:403E400000F0C8FB1BE07B6803F120023B8B1946786900F061FC12E07B6803F120023B8B1946786900F03CFD09E07B6803F120023B8B1946786900F0F9FD00E000BF7B68DE
:403E8000B3F83233002B31D07B68B3F832337A8B9A422BD17B687A8BA3F83A237B683A8BA3F83C237B68012283F838233B8B3F2B02D83B8BDBB200E04023FB747B69002B7A
:403EC00008D07B6803F23E33FA7C7969184608F089FE07E07B6803F23E33FA7C0021184608F08BFE7B68FA7C83F87E237B6803F5927307F10B0211461846FFF7FFFD03467C
:403F0000002B7FF4F0AE0F4BD3F88030FB60FA687B6A9A4209D97B68D3F81C21F9687B6ACB1A1A447B68C3F81C217B68B3F828329AB27B68A3F8202100E000BF2837BD46CD
:403F400080BD00BFD086FF1FB0B584B000AF786039607B68002B03D07B685B68002B01D1012329E03868FFF7F5FD7B683A6803F10C0415460FCD0FC42B682360104B5B6818
:403F800098477868FFF71CFEF8607B68D3F80C315A1C7B68C3F80C217B68D3F81021FB681A447B68C3F810217B6893F82231002B14BF01230023DBB218461037BD46B0BD97
:403FC0000481FF1FB0B588B000AF78607B68002B11D07B6807F10C0403F10C050FCD0FC42B68236001233B7707F10C0319467868FFF7AAFF00E000BF2037BD46B0BD00BF76
:4040000080B588B002AF78600B467B807B68002B03D07B685B68002B01D101233EE007F10C03184602F03AFB7B6893F830333B7479886B4607F11002126810461880023313
:40404000120C1A70FB680022164802F091FB7868FFF7B6FD78617B687A88A3F832237B680022C3F834237B68002283F838237B68D3F80C315A1C7B68C3F80C217B68D3F834
:4040800010217B691A447B68C3F810217B6893F82231002B14BF01230023DBB218461837BD4680BDC886FF1F80B582B000AF786039607B68002B0BD03B68002B08D03A681A
:4040C0007B6810462033EC22194608F08BFD00E000BF0837BD4680BD80B483B000AF78607B681B781A067B6801331B781B041A437B6802331B781B0213437A6803321278C0
:40410000134318460C37BD4680BC704780B483B000AF78607B681B781B021AB27B6801331B781BB213431BB218460C37BD4680BC704700BF80B483B000AF78607B681B78F1
:404140001B021AB27B6801331B781BB213431BB29BB218460C37BD4680BC704780B584B000AF786007F10E0302227968184608F039FDB7F90E3018461037BD4680BD00BFBC
:40418000B0B58AB000AFF860B9607A603B60FB68002B06D0FB681B7883F00103DBB2002B01D00023CEE0FB68DB683B62FB681B69FB61FB685B69BB61FB689B697B61BB6871
:4041C000002B3FD07969386A08F0BEFA03461C46B969F86908F0B8FA03461946204608F0ABF903461946184608F0A6F903461C46B969B86908F0A8FA03461D46796978693B
:4042000008F0A2FA03461946284608F095F903461946184608F090F9034619464FF07E5008F088F903461946204606F05DFA0246464B1B681946104608F086FA03461A460C
:40424000BB681A607B68002B38D0B969386A08F07BFA03461C46F969786908F075FA03461946204608F066F903461946184608F063F903467B624FF07E51786A08F020FC1C
:404280000346002B03D04FF07E537B6208E03049786A08F0F7FB0346002B01D02C4B7B62786A06F0CFF90246284B1B681946104608F04AFA03461A467B681A603B68002B61
:4042C0003FD0F969386A08F03FFA03461C467969B86908F039FA03461946204608F02CF903461946184608F027F903461C46F969F86908F029FA03461D46B969B86908F0E8
:4043000023FA03461946284608F016F903461946184608F011F9034619464FF07E5008F009F903461946204606F0DEF90246074B1B681946104608F007FA03461A463B689A
:404340001A60012318462837BD46B0BD48F80000000080BF80B485B000AFF8600B467A607B81154B9A6C7B685A60134BDA6C7B689A60114B1A6E7B68DA600F4B5A6D7B68D3
:404380001A610D4B9A6D7B685A610B4BDA6D7B689A61094B93F850207B681A77064B93F851207B685A777B6801221A7000BF1437BD4680BC704700BF0481FF1F80B58AB0E5
:4043C00000AFF8600B467A607B817B89152B40F2BB80F868FFF780FE7862FB6804331846FFF77AFE3862FB6808331846FFF774FEF861FB680C331846FFF788FE03467B83B0
:40440000FB680E331846FFF781FE03463B83FB6810331846FFF78EFE0346FB82FB6812331846FFF787FE0346BB82FB6814331846FFF780FE03467B827B687A6A5A647B6881
:404440003A6A1A647B68FA699A647B687A8BA3F84C207B683A8BA3F84E207B68FA8AA3F850207B68BA8AA3F852207B687A8AA3F85420786A08F014F903463549184608F096
:4044800017FA03461A467B685A62386A08F008F903462F49184608F00BFA03461A467B681A62F86908F0FCF803462A49184608F0FFF903461A467B689A62B7F91A301846AD
:4044C00008F0EEF803462449184608F0F1F903461A467B68DA62B7F91830184608F0E0F803461D49184608F0E3F903461A467B681A63FB8A184608F0CFF803461649184668
:4045000008F0D6F903461A467B685A63BB8A184608F0C2F803461049184608F0C9F903461A467B689A637B8A184608F0B5F803460949184608F0BCF903461A467B68DA635C
:404540007B6801229A7700E000BF2837BD4680BD8096184B00007A440000C84280B584B000AFF8600B467A607B817B89042B28D9FB6801331846FFF7F1FD0346184608F062
:404580008FF803461149184608F092F903461A467B689A65FB6803331846FFF7DFFD0346184608F07DF803460949184608F080F903461A467B68DA657B68012283F856205C
:4045C00000E000BF1037BD4680BD00BF0000204100007A4480B584B000AFF8600B467A607B817B890E2B40F28E80FB6801331846FFF7B4FD0346184608F052F80346444948
:40460000184608F055F903461A467B689A66FB6803331846FFF7A2FD0346184608F040F803463B49184608F043F903461A467B68DA66FB6805331846FFF790FD0346184699
:4046400008F02EF803463249184608F031F903461A467B681A67FB6807331846FFF77EFD0346184608F01CF803462A49184608F01FF903461A467B68C3F88020FB680933FC
:404680001846FFF76BFD0346184608F009F803461F49184608F00CF903461A467B685A67FB680B331846FFF759FD0346184607F0F7FF03461649184608F0FAF803461A46CD
:4046C0007B689A67FB680D331846FFF747FD0346184607F0E5FF03460D49184608F0E8F803461A467B68DA677B684FF00002C3F884207B684FF00002C3F888207B68012267
:4047000083F8602000E000BF1037BD4680BD00BF0000C8420000204180B584B000AFF8600B467A607B817B89152B40F2CF80F868FFF7ECFC0346184607F0B2FF034665494E
:40474000184608F0B5F803461A467B68C3F89420FB689A787B6883F89820FB6803331B78184607F099FF03465B49184608F0A0F803461A467B68C3F89C20FB681A797B68E0
:4047800083F8A020FB6805331846FFF7BFFC03461A467B68A3F8A220FB6807331846FFF7B5FC03461A467B68A3F8A420FB6809331846FFF7ABFC0346184607F071FF0346AD
:4047C0004649184608F074F803461A467B68C3F8A820FB680B331846FFF798FC03461A467B68A3F8AC20FB680D331846FFF78EFC03461A467B68A3F8AE20FB681033184663
:40480000FFF784FC03461A467B68A3F8B020FB6812331846FFF77AFC0346184607F040FF03462C49184608F043F803461A467B68C3F8B420FB6814331846FFF767FC0346A8
:404840001A467B68A3F8B8207B68012283F88C207B68B3F9A2309BB203F00103002B14BF01230023DAB27B6883F88D207B68B3F9A2309BB203F00203002B14BF01230023E9
:40488000DAB27B6883F88E207B68B3F9A2309BB203F00403002B14BF01230023DAB27B6883F88F207B68B3F9A2309BB203F00803002B14BF01230023DAB27B6883F890204F
:4048C0007B6893F890207B68DA7700E000BF1037BD4680BD0000C842000040400000204180B584B000AFF8600B467A607B817B89122B40F2B080FB6801331846FFF72EFC06
:404900000346184607F0CCFE03465549184607F0CFFF03461A467B68C3F8BC20FB6803331846FFF71BFC0346184607F0B9FE03464B49184607F0BCFF03461A467B68C3F855
:40494000C020FB6805331846FFF708FC0346184607F0A6FE03464249184607F0A9FF03461A467B68C3F8C420FB6807331846FFF7F5FB0346184607F093FE034639491846ED
:4049800007F096FF03461A467B68C3F8C820FB6809331846FFF7E2FB0346184607F080FE03463049184607F083FF03461A467B68C3F8CC20FB680B331846FFF7CFFB03467C
:4049C000184607F06DFE03462549184607F070FF03461A467B68C3F8D020FB680D331846FFF7BCFB0346184607F05AFE03461C49184607F05DFF03461A467B68C3F8D42007
:404A0000FB680F331846FFF7A9FB0346184607F047FE03461249184607F04AFF03461A467B68C3F8D820FB6811331846FFF796FB0346184607F034FE03460B49184607F027
:404A400037FF03461A467B68C3F8DC207B68012283F8BA2000E000BF1037BD4680BD00BF00007A440000C8420000204180B584B000AFF8600B467A607B817B890C2B2CD97D
:404A8000FB6808331B78092B0CBF01230023DAB27B6883F8E120FB6809331846FFF736FB0346184607F0FCFD03460E49184607F0FFFE03461A467B68C3F8E420FB680B33FB
:404AC0001846FFF723FB03461A467B68A3F8E8207B68012283F8E02000E000BF1037BD4680BD00BF0000204180B500AF1A4A0A211A4801F0C1FD1A4B00221A75184B00222F
:404B00001A77174B002283F82420154B002283F82C20134B002283F83420114B002283F83C200F4B002283F841200D4B002283F840200B4B002283F84220094B002283F8C1
:404B40004320074B002283F84420054B002283F8452000BF80BD00BFA94B0000C886FF1F0481FF1F80B584B002AF3B46184601F095FD02233B7100237B710023BB716B4613
:404B80003A1D1268114619800233120C1A703B68002240F21511034801F02AFE00BF0837BD4680BDC886FF1F80B592B002AF78607B681B78022B07D0042B02D0012B06D0AF
:404BC00008E000F0AFFC05E000F0ACFC02E000F0B5FC00BF7B68DB6E184600F07DFC7B68DB6840F21512934205D040F21F12934200F04A82EAE37B681B78022B40F0EA8356
:404C0000B74B1B78002B06D107F130030321184600F096FE06E007F130000023FF22032100F0ACFEAF4B1B7D032B1BD801A252F823F000BF454C00004D4C0000554C00005F
:404C40005D4C0000002387F83F300FE0012387F83F300BE0022387F83F3007E0032387F83F3003E0002387F83F3000BF9D4B1B7F032B1BD801A252F823F000BF8D4C000092
:404C8000954C00009D4C0000A54C0000002387F83E300FE0042387F83E300BE0082387F83E3007E00C2387F83E3003E0002387F83E3000BF8B4B93F82430032B1AD801A2F6
:404CC00052F823F0D54C0000DD4C0000E54C0000ED4C0000002387F83D300FE0102387F83D300BE0202387F83D3007E0302387F83D3003E0002387F83D3000BF97F83F20A7
:404D000097F83E301343DAB297F83D301343DBB287F83030734B5B7B002B07D097F8303063F07F03DBB287F8303006E097F8303003F07F03DBB287F830306A4B1B7B002BE4
:404D400007D097F8303043F04003DBB287F8303006E097F8303023F04003DBB287F830305F4B1B78002B06D107F130030121184600F0E6FD06E007F130000023FF220121C3
:404D800000F0FCFD564B1B78002B05D1564A0121564800F0DFFB07E0554B0093554B524A0121524800F03AFC4D4B1B78002B05D14D4A0121504800F0CDFB07E04C4B00932D
:404DC0004C4B494A01214C4800F028FC444B1B78002B05D1444A0121484800F0BBFB07E0434B0093434B404A0121444800F016FC0023BB833A4B1B78002B06D107F11C0354
:404E00000121184600F0C2FC07E007F11C004FF000033B4A012100F0E5FC324B93F82C30012B07D0022B09D0002B0BD1002387F83C300BE0102387F83C3007E0202387F85B
:404E40003C3003E0002387F83C3000BF254B93F83430012B07D0022B09D0002B0BD1002387F83B300BE0042387F83B3007E0082387F83B3003E0002387F83B3000BF194B8F
:404E800093F83C30012B07D0022B09D0002B0BD1002387F83A300BE0012387F83A3007E0022387F83A3003E0002387F83A3000BF97F83C2097F83B301343DAB297F83A3084
:404EC0001343DBB287F83030054B1B78002B19D107F130030121184600F032FD19E000BFC486FF1F0481FF1F00FEFF462481FF1F0001003800FEFFC61C81FF1F1481FF1FFB
:404F000000FF7F4707F130000023FF22012100F035FDAF4B9B6AAF49184607F015FC0346AC49184607F008FB0346184607F00EFE03469BB23B81A64B1B6BA649184607F052
:404F400003FC0346A349184607F0F6FA0346184607F0FCFD03469BB27B819D4B9B6B9D49184607F0F1FB03469A49184607F0E4FA0346184607F0EAFD03469BB2BB81964BE3
:404F80001B78002B06D107F108030321184600F059FD07E007F1080000234FF6FF72032100F07AFD8C4B1B78002B05D1012200218A4800F0EDFD04E001220021874800F004
:404FC0004DFE854B1B78002B05D101220121844800F0DEFD04E001220121814800F03EFE7D4B1B78002B05D1012204217D4800F0CFFD04E0012204217A4800F02FFE764B17
:405000001B78002B05D101220521774800F0C0FD04E001220521744800F020FE6E4B1B78002B05D101220621704800F0B1FD04E0012206216D4800F011FE674B1B78002BF1
:4050400005D1012207216A4800F0A2FD04E001220721674800F002FE00F04CFA002387F830305D4B1B78002B06D107F130030121184600F065FCB0E107F130000023FF2292
:40508000012100F07BFCA8E17B681B78012B40F0A381514B1B78002B06D107F130030321184600F04DFC06E007F130000023FF22032100F063FC484B1B78002B06D107F1EC
:4050C00030030221184600F03BFC06E007F130000023FF22022100F051FC97F83030184607F0DAFA03464349184607F02DFB03464149184607F020FA03461A46344B9A6451
:4051000097F83130184607F0C7FA03463949184607F01AFB03463849184607F00DFA03461A462B4BDA642A4B9B6C3349184607F09FFC0346002B03D0254B4FF000029A64D3
:40514000234BDB6C2C49184607F092FC0346002B03D01F4B4FF00002DA641F4B1B78002B04D10121254800F0EBFB05E00023FF220121224800F002FC174B1B78002B04D1F8
:4051800001211F4800F0DCFB05E00023FF2201211B4800F0F3FB104B1B78002B05D10D4A0121184800F0D6F907E0174B0093174B084A0121134800F031FA074B1B78002B54
:4051C00028D1044A0121124800F0C4F92AE000BF0481FF1F00FEFF46C486FF1F4481FF1F4581FF1F4681FF1F4781FF1F4881FF1F4981FF1FCDCCCC3D000020415481FF1FD1
:405200005581FF1F6481FF1F0001003800FEFFC65881FF1F744B0093744B754A0121754800F0FCF9744B1B78002B05D1704A0121724800F08FF907E06B4B00936B4B6C4AF3
:4052400001216E4800F0EAF96B4B1B78002B05D1674A01216A4800F07DF907E0624B0093624B634A0121664800F0D8F9624B1B78002B06D107F130030221184600F060FB03
:4052800006E007F130000023FF22022100F076FB594B1B78002B05D101220021594800F077FC04E001220021564800F0D7FC524B1B78002B05D101220121534800F068FCAA
:4052C00004E001220121504800F0C8FC4A4B1B78002B05D1012202214C4800F059FC04E001220221494800F0B9FC00F003F9424B1B78002B05D101220021454800F048FC7F
:4053000004E001220021424800F0A8FC00F0F2F8394B1B78002B04D101213E4800F010FB05E00023FF2201213A4800F027FB324B1B78002B04D10121374800F001FB05E032
:405340000023FF220121344800F018FB2A4B1B78002B04D10121314800F0F2FA05E00023FF2201212D4800F009FB234B1B78002B04D101212A4800F065FB06E000234FF6E2
:40538000FF720121264800F087FB1B4B1B78002B04D10121234800F055FB06E000234FF6FF7201211F4800F077FB134B1B78002B04D101211C4800F045FB0EE000234FF60D
:4053C000FF720121184800F067FB06E07B6801221A7102E000BF00E000BF00F099F8034618464037BD4680BD0001003800FEFFC600FEFF465881FF1FC486FF1F5C81FF1F39
:405400006081FF1F7281FF1F7381FF1F7481FF1F7681FF1F6E81FF1F6F81FF1F7081FF1F6881FF1F6A81FF1F6C81FF1F80B584B000AF7860154B1B68002B23D07B689B79F5
:40544000002B00D01FE07B685A6E7B681A670023FB600FE00D4B1B6803F22A207B681B6F591C7A6811671B781946FEF715FBFB680133FB607B68B3F862301A46FB689A42B8
:40548000E8DC00E000BF1037BD4680BD9886FF1F80B483B000AF786000BF0C37BD4680BC704700BF80B500AF0A4B1B68002B0ED0084B1B689B68002B09D0064B1B689B68A8
:4054C000044A1268126810469847034600E00023184680BD9886FF1F80B483B000AF7860034A7B68136000BF0C37BD4680BC70476487FF1F80B400AF044B1B680133034A4A
:40550000136000BFBD4680BC704700BF6487FF1F80B400AF024B1B681846BD4680BC70476487FF1F80B400AF034B00221A7000BFBD4680BC704700BFC486FF1F80B400AFCF
:40554000034B02221A7000BFBD4680BC704700BFC486FF1FF0B587B000AFF860B9607A6051E0FB681B687968184607F0EDF803461E46FB681B68012214464FF0000118469D
:4055800007F09EFA0346002B01D100231C46E3B21C46FB681B68012215464FF00001184607F070FA0346002B01D100231D46EBB2E31A184607F074F803464FF07C5118465D
:4055C00007F0C2F803461946304606F0B5FF0346184607F095FA0346FB820F4B1B685A1C0D490A60B7F91620121212B2D2B21A70094B1B685A1C08490A60FA8AD2B21A70B6
:40560000FB680433FB60BB685A1EBA60002BA8D100BF1C37BD46F0BD6487FF1F80B586B000AFF860B9607A603B60564B1B78012B40F09E804EE0544B1B681B78DBB21B0216
:405640001BB21A46504B1B6801331B78DBB21343184607F025F803467B614B4B1B680233494A1360396A786907F06EF803467B61FB681B687969184606F05EFF03461A4622
:40568000FB681A60FB681B687968184607F018FA0346002B02D0FB687A681A60FB681B683968184607F0EEF90346002B02D0FB683A681A60FB681B681946184607F00AFAB4
:4056C0000346002B03D0FB684FF000021A60FB680433FB60BB685A1EBA60002BABD14CE0294B1B681B78DBB21B021BB21A46264B1B6801331B78DBB21343184606F0D0FFA6
:4057000003463B61204B1B6802331F4A1360396A386907F019F803463B61FB683A691A60FB681B687968184607F0CAF90346002B02D0FB687A681A60FB681B68396818460B
:4057400007F0A0F90346002B02D0FB683A681A60FB681B681946184607F0BCF90346002B03D0FB684FF000021A60FB680433FB60BB685A1EBA60002BB2D100BF1837BD46B7
:4057800080BD00BFC486FF1F6487FF1F80B485B000AF7860396018E07B681B88FB81104B1B685A1C0E490A60B7F90E20121212B2D2B21A700A4B1B685A1C09490A60FA8983
:4057C000D2B21A707B6802337B603B685A1E3A60002BE1D100BF1437BD4680BC704700BF6487FF1F80B586B000AFF860B9607A603B60514B1B78012B40F0948049E04F4BEC
:405800001B681B78DBB21B021AB24C4B1B6801331B78DBB21BB21343FB82484B1B680233464A1360FB68B3F900309AB2FB8A13449BB21AB2FB681A80FB68B3F90030184666
:4058400006F02EFF03467968184607F039F90346002B06D0786807F053F903461AB2FB681A80FB68B3F90030184606F019FF03463968184607F006F90346002B06D0386802
:4058800007F03EF903461AB2FB681A80FB680233FB60BB685A1EBA60002BB0D147E0274B1B681B78DBB21B021AB2244B1B6801331B78DBB21BB21343BB82204B1B68023366
:4058C0001E4A1360FB68BA8A1A80FB68B3F90030184606F0E5FE03467968184607F0F0F80346002B06D0786807F00AF903461AB2FB681A80FB68B3F90030184606F0D0FE18
:4059000003463968184607F0BDF80346002B06D0386807F0F5F803461AB2FB681A80FB680233FB60BB685A1EBA60002BB7D100BF1837BD4680BD00BFC486FF1F6487FF1FBA
:4059400080B483B000AF786039600AE00A4B1B685A1C09490A607A6812781A707B6801337B603B685A1E3A60002BEFD100BF0C37BD4680BC704700BF6487FF1F80B487B0F9
:4059800000AFF860B96011461A460B46FB711346BB712A4B1B78012B46D122E0284B1B685A1C27490A601B78DBB2FB74FB681B787B6197F913307A6913447B61FA797B699A
:4059C0009A4201DAFB797B61BA797B699A4201DDBB797B617B69DAB2FB681A70FB680133FB60BB685A1EBA60002BD7D121E0144B1B685A1C12490A601B78BB74FB68BA7C6F
:405A00001A70FB681B78FA799A4202D2FB68FA791A70FB681B78BA799A4202D9FB68BA791A70FB680133FB60BB685A1EBA60002BDDD100BF1C37BD4680BC7047C486FF1F73
:405A40006487FF1F80B483B000AF7860396016E0104B1B685A1C0F490A607A681288120A92B2D2B21A700B4B1B685A1C09490A607A681288D2B21A707B6802337B603B6875
:405A80005A1E3A60002BE3D100BF0C37BD4680BC704700BF6487FF1F80B487B000AFF860B96011461A460B46FB801346BB80364B1B78012B5ED12DE0344B1B681B78DBB2F5
:405AC0009BB21B029AB2314B1B6801331B78DBB29BB21343FB822D4B1B6802332B4A1360FB681A88FB8A13449AB2FB681A80FB681B88FA889A4202D2FB68FA881A80FB6821
:405B00001B88BA889A4202D9FB68BA881A80FB680233FB60BB685A1EBA60002BCCD12EE01A4B1B681B78DBB29BB21B029AB2174B1B6801331B78DBB29BB21343BB82134BD7
:405B40001B680233114A1360FB68BA8A1A80FB681B88FA889A4202D2FB68FA881A80FB681B88BA889A4202D9FB68BA881A80FB680233FB60BB685A1EBA60002BD0D100BF36
:405B80001C37BD4680BC7047C486FF1F6487FF1F80B485B000AF78600B46FB701346BB702D4B1B681B78BB730023FB73BB78013B072B2BD801A252F823F000BFDD5B000013
:405BC000E35B0000E95B0000EF5B0000F55B0000FB5B0000015C0000075C00000123FB7315E00323FB7312E00723FB730FE00F23FB730CE01F23FB7309E03F23FB7306E004
:405C00007F23FB7303E0FF23FB7300E000BFFA7BFB7802FA03F35BB2DB435AB297F90E3013405BB2BB737B681A78FB7B1340DBB21A46FB7802FA03F35AB297F90E30134315
:405C40005BB2BB73044B1B68BA7B1A7000BF1437BD4680BC704700BF6487FF1F80B485B000AF78600B46FB701346BB700023FB73BB78013B072B2BD801A252F823F000BF6C
:405C8000A15C0000A75C0000AD5C0000B35C0000B95C0000BF5C0000C55C0000CB5C00000123FB7315E00323FB7312E00723FB730FE00F23FB730CE01F23FB7309E03F2339
:405CC000FB7306E07F23FB7303E0FF23FB7300E000BF174B1B78012B15D1164B1B681B78DBB21A46FB7842FA03F35AB297F90F3013405BB2BB737B681A78BB7B5340DAB2EB
:405D00007B681A700FE00B4B1B681B78DBB21A46FB7842FA03F35AB297F90F3013405BB2DAB27B681A7000BF1437BD4680BC7047C486FF1F6487FF1F80B582B000AF786076
:405D400074220021786806F058FF7B680022DA667B6800229A667B6800221A67002318460837BD4680BD00BF80B584B000AF78607B6803F11C027B681A677B6803F11C0272
:405D80007B685A667B6800221A717B685B79002B0AD02F4B1B68002B04D02D4B1B687868984704E001234EE0786800F0F3FA7B681A6F7B68DA667B689B7C002B22D07B68C2
:405DC00003F11C017B68B3F86230053B1A464FF0FF3000F027FCF8600023BB607B68B3F86230053B18337A681344191D07F108030422184606F0F6FEBB68FA689A4201D0FE
:405E0000072320E07868FFF743FB7B681B7C032B16D801A252F823F0395E0000295E0000315E0000315E0000786800F013F809E0786800F057F805E0786800F0B5F801E02C
:405E4000022300E0002318461037BD4680BD00BFA086FF1FB0B588B002AF786000237B6136E07B685A7E1E497B6911F833309A4203D07B685B7E002B27D107F10C03184672
:405E800000F00CFC7B689B7C7B737B68DB7C3B737B689B7DBB730123FB737B681B7E3B747B69DB000E4A98187B68D9687B689C796B4607F11002126815461D800233120CD1
:405EC0001A70FB68224600F007FC7B6901337B617B69002BC5DD00BF1837BD46B0BD00BF5C87FF1FB0B588B002AF78607B681B7C032B03D17B6805221A7006E07B681B7CE1
:405F0000022B02D17B6803221A7000237B6141E07B685A7E23497B6911F833309A4203D07B685B7E002B32D11E4A7B69DB0013445B68786898477B685B78002B27D107F1CE
:405F40000C03184600F0AAFB7B689B7C7B737B68DB7C3B737B689B7DBB730123FB737B681B7E3B747B69DB000E4A98187B68D9687B689C796B4607F11002126815461D8059
:405F80000233120C1A70FB68224600F0A5FB7B6901337B617B69002BBADD00BF1837BD46B0BD00BF5C87FF1F80B584B000AF78607B6801221A700023FB6009E0084AFB6835
:405FC000DB0013445B6878689847FB680133FB60FB68002BF2DD00BF1037BD4680BD00BFC886FF1F80B582B000AF78607B6803F120027B689A667B689A6E7B681A677B6831
:406000005B79002B0AD0094B1B68002B04D0074B1B687868984704E0012303E0786800F0F5F8002318460837BD4680BD9C86FF1F80B586B000AF78600023FB757B681B7939
:40604000012B01D10823DDE07B681B6F1A467B689B6ED31A9AB27B681A817B685B79002B03D17B681B89642B07D97B6803F11C027B685A660123FB7504E07B6803F11D0218
:406080007B685A667B681B6F1A467B685B6ED31A9AB27B68A3F862207B689B7C002B29D07B68B3F8623003F00303C3F104033B617B681B6F3A690021184606F09EFD7B68FA
:4060C0001A6F3B691A447B681A677B68B3F862203B699BB213449AB27B68A3F862207B681B6F1A467B689B6ED31A9BB204339AB27B681A817B685B79002B12D07B685122FF
:406100001A777B6842225A777B681B891B0A9BB2DAB27B689A777B681B89DAB27B68DA772AE0FB7D002B19D07B6851221A777B6858225A777B681B895BB263F07F035BB2D5
:40614000DAB27B689A777B681B89DB099BB2DBB203F07F03DAB27B68DA770DE07B6851225A777B6858229A777B681B89DBB203F07F03DAB27B68DA777B689B7C002B22D043
:406180007B68596E7B68B3F862301A464FF0FF3000F048FA0346BB607B681B6F07F108010422184606F01EFD7B681B6F1A1D7B681A677B681B6F1A467B685B6ED31A9AB2F4
:4061C0007B68A3F862207B689A6E7B681B891946104600F069F90346FB737B681B6F591C7A681167FA7BD243D2B21A707B68B3F8623001339AB27B68A3F862207868FFF725
:4062000015F9002318461837BD4680BD80B584B000AF78607B689A6E7B681A677B6803F170027B68DB681946104600F05BF97B6800225A747B689B7C002B02D07B680122C9
:406240005A740023FB737B681B7C5BB203F00F035AB2FB7BDBB25BB213435BB2DBB2FB737B68DB7C1B015BB203F010035AB2FB7BDBB25BB213435BB2DBB2FB737B68DB7D9B
:406280005B015BB203F020035AB2FB7BDBB25BB213435BB2DBB2FB737B689B7D9B015BB203F040035AB2FB7BDBB25BB213435BB2DBB2FB737B685B7CDB015AB2FB7BDBB2EC
:4062C0005BB213435BB2DBB2FB737B681B6F591C7A681167FA7BD2B21A707B685B7C002B16D00023FB737B689B7C5BB203F001035AB2FB7BDBB25BB213435BB2DBB2FB73A0
:406300007B681B6F591C7A681167FA7BD2B21A707B689B7D002B12D17B6803F170027B681B7E1946104600F0DDF87B6803F170027B685B7E1946104600F0D4F805E07B6818
:4063400000221A767B6800225A767B68DB7D002B12D17B6803F170027B689B7E1946104600F0C0F87B6803F170027B68DB7E1946104600F0B7F805E07B6800229A767B68F5
:406380000022DA767B681A6F7B68DA6600BF1037BD4680BD80B584B000AF78607B689A6E7B681A677B687033184600F0DFF802467B68DA607B681B6F591C7A6811671B7878
:4063C000FB73FB7BDBB203F00F03DAB27B681A74FB7BDBB21B09DBB203F00103DAB27B68DA74FB7BDBB25B09DBB203F00103DAB27B68DA75FB7BDBB29B09DBB203F00103EE
:40640000DAB27B689A75FB7BDBB2DB09DAB27B685A747B685B7C002B0DD07B681B6F591C7A6811671B78FB73FB7BDBB203F00103DAB27B689A747B689B7D002B11D17B6859
:406440007033184600F092F80346DAB27B681A767B687033184600F089F80346DAB27B685A767B68DB7D002B11D17B687033184600F07CF80346DAB27B689A767B6870339E
:40648000184600F073F80346DAB27B68DA767B68DB7C002B04D07B681B6F9A1C7B681A6700BF1037BD4680BD80B485B000AF786039600023FB720023FB6009E07B685A1C3C
:4064C0007A601A78FB7A1344FB72FB680133FB60FA683B689A42F1D3FB7A18461437BD4680BC704780B485B000AF786039600023FB6033E0FA681346DB009B1A3A6822FA29
:4065000003F3DBB203F07F03FB72FB685A1C1346DB009B1A3A6822FA03F3DBB203F07F03BB72BB7A002B0CD07B681B68FA7A62F07F02D2B21A707B681B685A1C7B681A6021
:4065400009E07B681B68FA7A1A707B681B685A1C7B681A6005E0FB680133FB60FB68032BC8DD00BF1437BD4680BC704780B485B000AF78600023FB600023BB6022E07B68F7
:406580001B681B7803F07F01BA681346DB009B1A01FA03F3FA681343FB607B681B681B785BB2002B05DA7B681B685A1C7B681A6005E07B681B685A1C7B681A6005E0BB68D4
:4065C0000133BB60BB68032BD9DDFB6818461437BD4680BC704700BF80B485B000AF0346FB71FB791B06BB600023FB730EE0BB68002B05DABB685A00094B5340BB6002E0FA
:40660000BB685B00BB60FB7B0133FB73FB7B072BEDD9BB6818461437BD4680BC704700BFB71DC10480B586B000AFF860B9607A60FB683B6100237B6115E03B691B0E5AB2F0
:40664000B9687B690B441B785BB253405BB2DBB21846FFF7C1FF02463B691B0253403B617B6901337B617A697B689A42E5D33B6918461837BD4680BD80B485B000AFF8605E
:406680000B467A60FB72FB687A685A60FB68FA7A1A7000BF1437BD4680BC704780B483B000AF78607B6800229A707B680022DA707B6800229A717B6800221A717B680022F1
:4066C0005A717B6800221A707B6800225A7000BF0C37BD4680BC704782B080B5A2B000AFF860B960C7F894301346FB7107F114031846FFF721FBFB79BB76BB683B62002351
:4067000087F8243097F8983087F82D3097F8993087F82E3097F89A3087F82F30FB681B7887F82C3097F8943087F8273097F8953087F8263007F114031846FFF753FC0023EF
:406740003B75FB685B6807F11402104698470346C7F8843007F114031846FFF769FC034618468837BD46BDE8804002B0704700BF82B080B5A2B000AFF860B960C7F894302A
:406780001346FB7107F114031846FFF7D5FAFB79BB76BB683B62012387F8243097F8983087F82D30002387F82E3097F89A3087F82F30FB681B7887F82C3097F8943087F879
:4067C000273097F8953087F8263007F114031846FFF708FC07F114031846FFF729FC034618468837BD46BDE8804002B0704700BF82B080B5A2B000AFF860B960C7F89430D8
:406800001346FB7107F114031846FFF795FAFB79BB76BB683B62022387F8243097F8983087F82D3097F8993087F82E3097F89A3087F82F30FB681B7887F82C3097F8943081
:4068400087F8273097F8953087F8263007F114031846FFF7C7FB02233B75FB685B6807F11402104698470346C7F8843007F114031846FFF7DDFB034618468837BD46BDE8B1
:40688000804002B0704700BF90B585B000AF03460A46FB711346BB71FB79B94A8C2101FB03F313441B78072B00F2578301A252F823F000BFD568000053690000016A00001C
:4068C000FF6A0000096C00007D6C0000596D0000316E0000BB79512B2AD1FB79A84A8C2101FB03F31344023301221A80FB79A44A8C2101FB03F313442033BA791A70FB7997
:40690000FA798C2101FB02F219329D490A4408329B498C2000FB03F30B4474331A60FB79974A8C2101FB03F3134401221A7014E3FB7993498C2202FB03F20A448432126840
:4069400001328F498C2000FB03F30B4484331A6003E3FA798A498C2303FB02F30B4474331B68591C86488C2404FB02F2024474321160BA791A70FB7981498C2202FB03F2CA
:406980000A4402321288013290B27D4A8C2101FB03F31344023302461A80BB79582B11D1FB79774A8C2101FB03F31344093300221A70FB79724A8C2101FB03F3134402227C
:4069C0001A70CAE2BB79422B11D1FB796C4A8C2101FB03F31344093301221A70FB79684A8C2101FB03F3134404221A70B5E2FB79634A8C2101FB03F3134400221A70ACE221
:406A0000FA795F498C2303FB02F30B4474331B68591C5B488C2404FB02F2024474321160BA791A70FB7956498C2202FB03F20A4402321288013290B2514A8C2101FB03F3CD
:406A40001344023302461A8097F90630002B16DAFB79BA7992B222F0800290B2484A8C2101FB03F313440C3302461A80FB79444A8C2101FB03F3134403221A7066E2FB79FA
:406A8000BA7990B23E4A8C2101FB03F313440C3302461A80FB79FA7939498C2000FB02F20A447432126836498C2000FB03F30B446C331A60FB79324A8C2101FB03F31344E6
:406AC000063300221A70FB792D4A8C2101FB03F3134406221A70FB79294A8C2101FB03F313440C331B88402B40F23082FB79244A8C2101FB03F3134400221A7026E2FA7911
:406B00001F498C2303FB02F30B4474331B68591C1B488C2404FB02F2024474321160BA791A70FB7916498C2202FB03F20A4402321288013290B2124A8C2101FB03F31344E7
:406B4000023302461A80FB79FA790D498C2000FB02F20A447432126809498C2000FB03F30B446C331A6097F90630002B0ADAFB79034A8C2101FB03F3134400221A702FE01A
:406B8000D086FF1FFA79FB79A8498C2000FB03F30B440C331B8819B2BB79DB011BB223F4804323F07F031BB20B431BB298B29F498C2303FB02F30B440C3302461A80FB7904
:406BC0009A4A8C2101FB03F31344063300221A70FB79964A8C2101FB03F3134406221A70FB79924A8C2101FB03F313440C331B88402B40F2AD81FB798C4A8C2101FB03F3FE
:406C0000134400221A70A3E1FA7988498C2303FB02F30B4474331B68591C84488C2404FB02F2024474321160BA791A70FB797F498C2202FB03F20A4402321288013290B203
:406C40007A4A8C2101FB03F31344023302461A80FB79BA7992B2120290B2744A8C2101FB03F313440C3302461A80FB796F4A8C2101FB03F3134405221A706EE1FA796B49E3
:406C80008C2303FB02F30B4474331B68591C67488C2404FB02F2024474321160BA791A70FB7962498C2202FB03F20A4402321288013290B25D4A8C2101FB03F313440233B6
:406CC00002461A80FB79FA7958498C2000FB02F20A447432126855498C2000FB03F30B446C331A60FB79FA7950498C2000FB02F20A440C321188BA7992B20A4390B24B4AA3
:406D00008C2101FB03F313440C3302461A80FB79464A8C2101FB03F31344063300221A70FB79424A8C2101FB03F3134406221A70FB793E4A8C2101FB03F313440C331B88E1
:406D4000402B40F20781FB79384A8C2101FB03F3134400221A70FDE0FA7934498C2303FB02F30B4474331B68591C30488C2404FB02F2024474321160BA791A70FB792B49DC
:406D80008C2202FB03F20A4402321288013290B2264A8C2101FB03F31344023302461A80FB79FA7921498C2000FB02F20A4406321178BA790A44D0B21C4A8C2101FB03F322
:406DC0001344063302461A70FB79184A8C2101FB03F313440C331B881846FB79134A8C2101FB03F3134402331B881C46FB790F4A8C2101FB03F313446C331B681946FB796C
:406E00008C2202FB03F31833084A13440833CB1AE31A984200F3A080FB79044A8C2101FB03F3134407221A7096E000BFD086FF1FFA794C498C2303FB02F30B4474331B687C
:406E4000591C48488C2404FB02F2024474321160BA791A70FB7943498C2202FB03F20A4402321288013290B23E4A8C2101FB03F31344023302461A80BB79FB73FB79394AF1
:406E80008C2101FB03F3134400221A70FB79354A8C2101FB03F313440A33FA791A70FB7BFA7930498C2000FB02F20A44063212781344FF2B39D1FB792A4A8C2101FB03F3EE
:406EC0001344783300221A60FC79FEF7EBFA0146244A8C2303FB04F3134488331960FB79204A8C2101FB03F313447C3301221A70FB79FA791B498C2000FB02F20A44023229
:406F00001088184A8C2101FB03F31344663302461A80FB798C2202FB03F3124A134404331846FEF721FF012318E0FB790D498C2202FB03F20A4480321268013209498C2043
:406F400000FB03F30B4480331A6006E000BF04E000BF02E000BF00E000BF002318461437BD4690BDD086FF1F80B582B000AF786039603A680021786805F03FFE00BF083732
:406F8000BD4680BD80B584B000AFF860B9607A607A68B968F86805F025FE00BF1037BD4680BD00BF80B483B000AF0346FB71FEE780B487B000AF7860396000233B61002391
:406FC0007B6127E07B699B007A6813441B68BB60BB68FB73BB6823F0FF03BB6014E03B695B003A6813441B781A46BB68134419463B695B003A6813445B780B703B6901339E
:407000003B61FB7B013BFB73FB7B002BE7D17B6901337B617B69232BD4D900BF1C37BD4680BC704780B582B000AF364B01221A80354B18221A70354B19221A80344B1822BA
:407040001A70344B1A221A80334B18221A70334B06221A70324B52221A70324B324A1278D2B21A70314B4FF4E1621A80304B41F251221A800023FB7019237B6014E0FB7850
:407080005B00DAB22B4B1B78DBB203F00103DBB21343DBB203F00303FB704FF4F07003F0EBF97B68013B7B607B68002B02D0FB78032BE4D17B68002B02D10320FFF772FF73
:4070C0001D4B4FF480721A801B4B07221A701B4B00221A701A4B48221A70174B00221A70184B00221A70184B02221A70174A174B1B78DBB243F00703DBB2137000BF083779
:40710000BD4680BD80400040824000408440004086400040884000408A4000400043004000420040A14600400F010049224200402042004025420040044000400640004075
:40714000084000400940004001400040A243004080B483B000AF0F4B1B78FB710E4AFB7903F00703DBB213700C4AFB791B09DBB213700B4B24221A700A4B10221A700A4B86
:4071800012221A70094B44221A7000BF0C37BD4680BC7047CF0100496E5800406F580040CD510040905A0040005B00407658004080B586B000AF72B6514A514B1B78DBB2E5
:4071C00043F00403DBB213700023FB7513E0FA7D13465B0013445B004A4A13443B613B691A683B699B889BB219461046FFF7BCFEFB7D0133FB75FB7D062BE8D90023FB75A3
:407200001CE0FA7D13469B0013445B003E4A1344FB60FB681B68BB60FB685B687B60FB681A7A5B7A1B0213437B807B881A467968B868FFF7A7FEFB7D0133FB75FB7D002B01
