:400000000080002011000000CD7C0000CD7C000080B500AF024A034B1B68136007F088FEBC760040FA46004010B5054C237833B9044B13B10448AFF300800123237010BDF8
:400040004882FF1F0000000008F60000084B10B51BB108490848AFF300800848036803B910BD074B002BFBD0BDE81040184700BF000000004C82FF1F08F60000C880FF1F04
:400080000000000080B582B000AF78600B46FB70FB78184607F086FF00BF0837BD4680BD80B483B000AF7860034B1B6818460C37BD4680BC704700BFE485FF1F80B582B008
:4000C00000AF114B1B78FB71FB7903F01E03002B04D0FB7919460D4804F098FAFB7903F02003002B06D00A4B1B78DBB21946074804F06EFAFB7903F02003002BE1D100BF91
:400100000837BD4680BD00BF6E6400406482FF1F4D64004080B500AF044B1B680133034A136008F05FF800BF80BD00BFE485FF1F80B582B000AF104B1B78FB71FB7903F068
:400140001E03002B03D0FB79184601F011FAFB7903F02003002B05D0084B1B78DBB2184601F074F8FB7903F02003002BE3D100BF0837BD4680BD00BF656400404564004082
:4001800080B584B000AFF860B9607A603B604FF00001F8680DF02EF90346002B01D02D2200E020223B681A704FF00001F8680DF021F90346002B03D0FB6883F00043FB6028
:4001C000F8680DF055F903461AB2BB681A80BB68B3F9003018460CF01BFF03461946F8680CF060FE03460F4918460CF065FF034618460DF03DF903461AB27B681A807B68FF
:40020000B3F90030002B08DA7B68B3F900309BB25B429BB21AB27B681A8000BF1037BD4680BD00BF0000C842F0B5EDB008AF07F11C03184600F042F907F1D40314220021C8
:4002400018460DF092F962B608F0D6FC04F028F88C4804F047F808F0E9FA08F06DFB08F0A7FB00F003FF884808F0C4FB874804F039F801E008F03CFB08F048FB0346002B9A
:40028000F8D107F0E9FD07F06BFE07F0A5FE01E007F042FE07F04EFE0346002BF8D17C497C4804F067F907F11C037A4A1A607A4807F0B4FE794804F015F800F0F9F807F0CF
:4002C0006FFF774807F0BCFF764804F00BF807F11C03184600F054FA08F012FC034683F00103DBB2184608F0EDFB6F4B1B68C7F88C3104F041F8034687F88B3197F88B3171
:40030000002B07D097F88B2107F11C031146184600F00AFC5F4804F091F907F11C03184602F0CCF903F0C4FF07F11C03184602F04DFA07F11C03184602F088FC07F11C0307
:40034000184602F00BFD07F11C03184600F070FA07F11C03184600F0A3FC07F11C03D3F88C30D7F88C21D31A632B13D907F11C03D7F88C21C3F88C2007F1D40207F11C03F2
:400380001146184600F0C4FA07F1D4031946414804F092FA07F11C0393F89830002B9BD007F11C03D3F89030D7F88C21D31A41F28732934290D907F11C03D7F88C21C3F820
:4003C000902007F118034FF000021A6007F114034FF000021A6007F1140207F1180107F11C03184603F0A6FD07F11803186807F10B0307F1100207F11201FFF7C1FE07F130
:400400001403186807F10A0307F10C0207F10E01FFF7B6FE07F11C031B79184600F0F8F9024607F10B031B78194607F11203B3F900301C4607F11003B3F900301D4607F1B2
:400440000A031B781E4607F10E03B3F900307B6007F10C03B3F9003007F1E80006937B68059304960395029401910092D7F88C310E4AA0210DF0F2FC07F1E803184603F031
:4004800031FF29E74CF600003101000074F6000010F600006482FF1FBD0000008CF6000015010000A8F60000E485FF1FC8F6000080B500AF07F01AFF00BF80BD80B582B085
:4004C00000AF7860B822002178680DF04EF87B68012283F898207B6805221A717B6805225A717B6801225A767B68012283F888207B68002283F830207B68002283F8312014
:400500007B68002283F840207B681A4A1A657B684FF000025A657B684FF000029A657B68154ADA657B684FF000021A667B684FF000025A667B680022A3F87C207B680022C5
:40054000A3F87E207B684FF000029A667B684FF00002DA667B684FF000021A677B684FF000025A677B684FF000029A6700BF0837BD4680BD6F12833ACDCC4C3E80B485B003
:4005800000AF0346FB710023FB7306E0FB79074AD35CFB71FB7B0133FB73FB79002BF5D1FB7B18461437BD4680BC7047F8F6000080B584B000AF03460A46FB711346BB71DE
:4005C000FB791846FFF7DAFF0346FB73BB791846FFF7D4FF0346BB7306E0FB79134AD35CFB71FB7B013BFB73FA7BBB7B9A42F4D806E0BB790D4AD35CBB71BB7B013BBB73A0
:40060000BA7BFB7B9A42F4D807E0FB79074AD35CFB71BB79054AD35CBB71FA79BB799A42F3D1FB7918461037BD4680BDF8F6000080B586B000AF78600B46FB7008F09EFA76
:400640000346012B01D1012200E000227B689A717B689B79002B01D0414B00E0414B184603F040FEFB78404A52F82330002B0DD0FB783D4A52F82330786898470346002B3A
:4006800004D13A4803F02EFE0623FB707B681B793B75FA783B7D9A425ED0FA783B7D11461846FFF785FF0346FB743B7DFB750FE0FB7D2F4A52F82330002B05D0FB7D2C4A31
:4006C00052F8233078689847FB7D2A4AD35CFB75FA7DFB7C9A42EBD17B683A7D5A710023BB75FB787B750CE0BB7D5A1CBA7507F1180213447A7D03F80C2C7B7D1D4AD35C88
:400700007B757A7DFB7C9A42EED117E0BB7D07F11802134413F80C3C1A46174B53F82230002B0BD0BB7D07F11802134413F80C3C1A46114B53F8223078689847BB7D5A1EB4
:40074000BA75002BE2D17B68FA781A710B4B1A687B68C3F8942000E000BF1837BD4680BD60F8000074F800000CF7000088F8000094F70000F8F6000050F70000E485FF1FA6
:4007800080B584B000AF78607B681B79FB737B6800221A71FB7B19467868FFF749FF00BF1037BD4680BD00BF80B584B000AFF8600B467A60FB72FB7A002B09D1124803F00D
:4007C00091FD786803F08EFD104803F08BFD18E0FB681B7E002B02D0FB7A032B10D1FB68FA7A1A74FB687A685A61FB7A032B02D1FB6801221A760F21F868FFF719FF00E056
:4008000000BF1037BD4680BDB0F80000B8F8000080B483B000AF0346FB71FB79034A52F8233018460C37BD4680BC704774F9000080B582B000AF78607B681B68002B2DD071
:40084000184B1A68184B1B68D31A632B06D9154B1B68154A1360786801F042FE114B1A68124B1B68D31A41F28732934217D90D4B1B680E4A1360786801F054FE786801F097
:4008800073FE786801F092FE786801F0B1FE786801F0D0FE786801F0EFFE00E000BF0837BD4680BDE485FF1FE885FF1FEC85FF1F80B582B000AF786039601422002138684C
:4008C0000CF053FE3B6800221A733B6800225A733B6800229A7300BF0837BD4680BD00BF80B582B000AF786039601422002138680CF03BFE3B6801221A733B6801225A735F
:400900003B6800229A7300BF0837BD4680BD00BF80B584B000AF786039607B6893F89930002B04D03968786801F0ECFF12E07B681B791A46094B53F82230FB60FB68002B29
:4009400004D0FB6839687868984703E039687868FFF7AEFF1037BD4680BD00BF1CF8000080B584B000AF78600B46FB707B681B68002B06D1194A00217868FFF715FF0023DA
:4009800027E007F1080207F10C031946786803F0D1FA0346002B06D1114A00217868FFF703FF002315E0FA687B68C3F88020FB78002B01D1BB6801E04FF000037A68C2F881
:4009C00084307B68012283F88820064803F08AFC012318461037BD4680BD00BFB8F90000CCF90000ECF9000080B582B000AF7860034803F077FC00BF0837BD4680BD00BF94
:400A000004FA000080B582B000AF78600B46FB70FB783F2B39D03F2B02DC122B05D039E05B2B2CD0782B1BD034E07B681B7E002B10D07B6800221A767B6800221A747B68FF
:400A400000225A61164803F04DFC06217868FFF7EFFD03E005217868FFF7EAFD01231AE07B681B68002B04D07B681B68184603F061FF06217868FFF7DBFD01230BE00021B1
:400A80007868FFF76DFF012305E07868FFF7ACFF012300E0002318460837BD4680BD00BF8CFA000080B483B000AF0346FB71FB79072B0BD0FB79082B08D0FB790A2B05D0D8
:400AC000FB790B2B02D0FB790C2B01D1012300E00023DBB218460C37BD4680BC704700BF80B582B000AF78600B46FB70FB78322B09D0332B0DD0312B11D106217868FFF72A
:400B000097FD01230CE007217868FFF791FD012306E00C217868FFF78BFD012300E0002318460837BD4680BD80B584B000AF78600B46FB707B681B79102B01D900233DE074
:400B40007B681B7E002B0BD0FB78122B06D1FB7819467868FFF756FF03462FE000232DE0FB7819467868FFF74DFF0346002B01D0012323E07B681B791A46124B53F82230B6
:400B8000FB60FB68002B09D0FA78FB681146786898470346002B01D001230FE07B681B791846FFF77FFF0346002B06D1FB7819467868FFF795FF034600E00023184610376F
:400BC000BD4680BDD8F7000080B483B000AF0346FB71FB79063B062B01D8012300E0002318460C37BD4680BC704700BF80B483B000AF0346FB71FB79063B082B16D801A29B
:400C000052F823F0290C0000290C00002D0C0000290C00002D0C00002D0C00002D0C0000290C0000290C0000012300E0002318460C37BD4680BC704780B485B000AFF8603C
:400C40000B467A60FB72FB7A013B032B22D801A252F823F0650C0000710C00007D0C0000890C0000FB681A6D7B681A60012312E0FB685A6D7B681A6001230CE0FB689A6D99
:400C80007B681A60012306E0FB68DA6D7B681A60012300E0002318461437BD4680BC704790B5AFB002AF786007F1A003184600F0ADFD0346002B17D0D7F8A0207B685A62B7
:400CC000D7F8A4207B689A62D7F8A8207B68DA627B68012283F830207B68012283F8312000210F2000F04AFE07F19C03184600F0B3FD0346002B2FD07B681B791846FFF7CE
:400D000075FF0346002B20D0B7F99C3018460CF07FF90346CA4918460CF082FA03461C46B7F99E3018460CF073F90346C44918460CF076FA03461A462146786803F024F94C
:400D40000021112000F01AFE06E0BE4803F0CAFA0121112000F012FE07F19403184600F0A1FD0346002B00F0B280002387F8AF3097F89430013B032B00F2928001A252F8E3
:400D800023F000BF950D0000C70D0000090E00003B0E0000D7F898207B681A657B681B6D18460BF0FFFC03460C4607F10800CDE90034A54A40210DF051F807F10803184667
:400DC00003F090FA7DE0D7F898207B685A657B684FF000021A667B684FF000025A667B685B6D18460BF0DEFC03460C4607F10800CDE90034954A40210DF030F807F108039D
:400E0000184603F06FFA5CE0D7F898207B689A657B689B6D18460BF0C5FC03460C4607F10800CDE900348A4A40210DF017F807F10803184603F056FA43E0D7F898304FF0EB
:400E4000000118460CF0D6FA0346002B02D04FF000030EE0D7F898304FF07E5118460CF0E7FA0346002B02D04FF07E5301E0D7F898307A68D3657B68DB6D18460BF092FCF7
:400E800003460C4607F10800CDE90034714A40210CF0E4FF07F10803184603F023FA10E097F8943007F108006B4A40210CF0D6FF07F10803184603F015FA022387F8AF3031
:400EC00000BF97F8AF301946122000F057FD00F089FD0346002B11D000217868FFF740FD034687F8AE3097F8AE30002B01D0002300E003231946132000F040FD00F020FDED
:400F00000346002B17D07B681B7E002B0FD07B6800221A767B6800221A747B6800225A614E4803F0DFF906217868FFF781FB0021152000F023FD07F19003184600F0DAFCF9
:400F40000346002B26D04FF00003BB6497F8903007F1480219467868FFF76EFE0346002B07D097F89030BA6C1146184600F01EFD10E097F8903007F10800394A40210CF0D5
:400F80006DFF07F10803184603F0ACF90221142000F0F4FC07F18C03184600F011FC0346002B49D07B681B7E002B06D07B681B790121184600F034FD3FE097F88C301846C9
:400FC000FFF702FE0346002B14D17B681B790221184600F025FD97F88C3007F10800214A40210CF03BFF07F10803184603F07AF900BF22E097F88C3087F8AD3097F8AD30B0
:401000001846FFF705FC034607F14C00164A40210CF024FF07F14C03184603F063F997F8AD3019467868FFF703FB7B681B790021184600F0F5FC00E000BFB437BD4690BDAA
:401040000000C842A0FA0000C4FA0000DCFA0000F4FA00000CFB00002CFB000048FB000064FB000084FB0000A4FB000080B483B000AF214B00221A70204B00221A70204BAC
:4010800000221A701F4B00221A801F4B00221A801E4B00221A801E4B00221A600023FB710CE0FB791B4A002142F82310FB791A4A002122F81310FB790133FB71FB79012B42
:4010C000EFD9164B00221A70154B00221A70154B00221A70144B00221A70144B00221A70134B00221A70134B00221A7000BF0C37BD4680BC704700BFF085FF1FF385FF1FF9
:401100004C86FF1F5C86FF1F5E86FF1F6086FF1F6486FF1F5086FF1F5886FF1F6986FF1F7886FF1F8086FF1F8C86FF1F8D86FF1F9186FF1F9286FF1F80B584B000AF034647
:401140003960FB713C4B1B68FB60FB793B4A52F82330002B13D0FB79384A52F82330FA68D31ABB60FB79BA68B2F5803F02D2BA6892B201E04FF6FF72314921F81320FA795E
:4011800013465B0013449B002E4A13440422396818460CF0DFF9FA7913465B0013449B00284A1344181D3B680433022219460CF0D1F9FA7913465B0013449B00214A1344AC
:4011C000981D3B680633022219460CF0C3F9FA7913465B0013449B0008331A4A98183B680833022219460CF0B5F9FA7913465B0013449B000833134A1344981C3B680A3314
:40120000022219460CF0A6F9FB79012202FA03F35AB20D4B1B78DBB25BB213435BB2DAB2094B1A70FB790549FA6841F8232000BF1037BD4680BD00BFE485FF1F5086FF1F89
:401240005886FF1F3486FF1F4C86FF1F80B584B000AF0346FB71A94B1B78042B00F2498101A252F823F000BF7D12000099120000A7120000DB12000005130000FB79AB2B6A
:4012800003D19E4B01221A7033E19D4B1B8801339AB29B4B1A802CE19A4AFB791370974B02221A7025E1984AFB791370964B1B78402B03D9914B00221A701AE1924B1B7820
:4012C000002B03D18D4B04221A7012E18F4B00221A708A4B03221A700BE18C4B1B785A1CD1B28A4A11701946894AFB795354874B1A78854B1B789A42C0F0FA807F4B0422BC
:401300001A70F5E07F4B1B781A46824B9B5CFB737D4B1A78FB7B5340DBB21A467D4B9B5CFB730023BB730CE0BB7B794AD25CFB7B5340DBB21A46774B9B5CFB73BB7B0133F7
:40134000BB73714B1B78BA7B9A42EDD3FA7BFB799A4240F0AF80704B1B6801336E4A1360684B1B78013B142B00F2AB8001A252F823F000BFC9130000DB130000C314000020
:40138000C3140000C3140000C3140000C3140000C3140000C3140000C3140000C3140000C3140000C3140000C314000005140000ED13000035140000591400007D14000090
:4013C0008D140000A51400004F4B1B780C2B7AD14F490020FFF7B0FE75E04B4B1B780C2B73D14B490120FFF7A7FE6EE0464B1B78012B6CD1464B1A78484B1A70484B01226E
:401400001A7064E0404B1B780C2B62D1404B1B68444A1360444B0422194644480CF09AF8434B0422194643480CF094F8424B01221A704EE0344B1B78042B4CD1344B1A880C
:401440003E4B1A803E4B022219463E480CF082F83D4B01221A703EE02B4B1B78052B3CD12B4B1A78394B1A70394B0422194639480CF070F8384B01221A702EE0224B1B7866
:40148000002B2CD1354B01221A7028E01E4B1B78012B26D11E4B1A78314B1A70314B01221A701EE0184B1B78002B1CD12E4B01221A7018E02D4B1B8801339AB22B4B1A80B1
:4014C00012E000BF10E000BF0EE000BF0CE000BF0AE000BF08E000BF06E000BF04E000BF02E000BF00E000BF044B00221A7000E000BF00BF1037BD4680BD00BFF085FF1F2A
:401500006086FF1FF185FF1FF285FF1FF385FF1FF485FF1FBCFB00006486FF1F6886FF1F6986FF1F6C86FF1FF885FF1F7086FF1FFC85FF1F7486FF1F7886FF1F7C86FF1FC7
:40154000F685FF1F7E86FF1F8086FF1F8486FF1FF585FF1F8886FF1F8C86FF1F8D86FF1F9086FF1F9186FF1F9286FF1F5C86FF1F80B483B000AF0346FB71074B1B880133AC
:401580009AB2054B1A80054B00221A7000BF0C37BD4680BC704700BF5E86FF1FF085FF1F80B584B000AF03463960FB71FB79012B01D900233BE0FB79012202FA03F3BB73D8
:4015C0000023FB7309F02FFC03467B731A4B1B78DAB2BB7B1340DBB2002B23D0FA793868164913465B0013449B00CA18034607CA83E80700BB7BDB43DAB20F4B1B78DBB267
:401600001340DAB20C4B1A700123FB73FB79002B08D107F0A3FA034683F00103DBB2184607F07EFA7B7B184609F001FCFB7B18461037BD4680BD00BF4C86FF1F3486FF1F06
:4016400080B584B000AF0346FB71FB79012B17D8FB79012202FA03F3FB7309F0E4FB0346BB73FB7BDB43DAB2074B1B78DBB21340DAB2054B1A70BB7B184609F0D8FB00E03D
:4016800000BF1037BD4680BD4C86FF1F80B400AF024B1B881846BD4680BC70476086FF1F80B400AF024B1B681846BD4680BC70476486FF1F80B483B000AF0346FB71FB797B
:4016C000012B04D8FB79054A32F8133000E0002318460C37BD4680BC704700BF5886FF1F80B483B000AF0346FB71FB79012B04D8FB79054A52F8233000E0002318460C3712
:40170000BD4680BC704700BF5086FF1F80B400AF024B1B881846BD4680BC70475C86FF1F80B400AF024B1B881846BD4680BC70475E86FF1F80B584B000AF03463960FB714A
:401740001346BB71AB2007F019F9FB79184607F015F9BB79184607F011F9FB79174AD35CFB73FA7BBB795340DBB21A46134B9B5CFB730023BB7314E0BB7B3A6813441B7841
:40178000184607F0FBF8BB7B3A6813441A78FB7B5340DBB21A46094B9B5CFB73BB7B0133BB73BA7BBB799A42E6D3FB7B184607F0E5F800BF1037BD4680BD00BFBCFB000077
:4017C00080B584B000AF78600023FB7309F02BFB0346BB730B4B1B78DBB2002B08D07B68094A12781A70074B00221A700123FB73BB7B184609F01BFBFB7B18461037BD46BE
:4018000080BD00BF6986FF1F6886FF1F80B584B000AF78600023FB7309F005FB0346BB730B4B1B78DBB2002B09D07B68094A07CA83E80700064B00221A700123FB73BB7BEA
:40184000184609F0F4FAFB7B18461037BD4680BD7886FF1F6C86FF1F80B584B000AF78600023FB7309F0DFFA0346BB730B4B1B78DBB2002B08D07B68094A10681860074BE1
:4018800000221A700123FB73BB7B184609F0CFFAFB7B18461037BD4680BD00BF8086FF1F7C86FF1F80B584B000AF78600023FB7309F0B9FA0346BB730C4B1B78DBB2002BF0
:4018C0000AD07B680A4A92E8030083E80300074B00221A700123FB73BB7B184609F0A7FAFB7B18461037BD4680BD00BF8C86FF1F8486FF1F80B584B000AF78600023FB733B
:4019000009F091FA0346BB730B4B1B78DBB2002B08D07B68094A12781A70074B00221A700123FB73BB7B184609F081FAFB7B18461037BD4680BD00BF9186FF1F9086FF1FCE
:4019400080B582B000AF0023FB7109F06CFA0346BB71094B1B78DBB2002B04D0064B00221A700123FB71BB79184609F060FAFB7918460837BD4680BD9286FF1F80B584B019
:4019800000AF03460A46FB711346BB71FB793B73BB797B7307F10C03022219463120FFF7C9FE00BF1037BD4680BD00BF80B584B000AF03463960FB71FB793B7207F1080383
:4019C00001333946042218460BF0C4FD07F10803052219463420FFF7ADFE00BF1037BD4680BD00BF80B582B000AF0023FB7109F01AFA0346BB71094B1B78DBB2002B04D0D7
:401A0000064B00221A700123FB71BB79184609F00EFAFB7918460837BD4680BD8D86FF1F80B584B000AF03460A46FB711346BB71FB793B73BB797B7307F10C030222194694
:401A40003020FFF777FE00BF1037BD4680BD00BF80B582B000AF78600E4978680BF0DEFC0346002B02D047F6FF730EE04FF0474178680BF0C9FC0346002B01D0064B04E0E8
:401A800078680BF0F5FC03461BB218460837BD4680BD00BF00FEFF460080FFFF80B582B000AF78604FF0000178680BF0ADFC0346002B01D000230EE04FF09F4178680BF0E5
:401AC000ADFC0346002B02D04FF0FF3303E078680BF0F4FC034618460837BD4680BD00BF80B582B000AF78604FF0000178680BF08BFC0346002B01D000230EE009497868DB
:401B00000BF08CFC0346002B02D04FF6FF7304E078680BF0D3FC03469BB218460837BD4680BD00BF00FF7F4780B5BEB000AF786039601C22002138680BF017FD5C4B1A68A6
:401B40003B681A607B681A793B681A717B681B68002B00F0A8807B681B680C33C7F8F430D7F8F4301A7B3B685A71D7F8F4305A7B3B689A71D7F8F4309A7B3B68DA717B682E
:401B80001B7E002B01D0012200E000227B6893F88830002B01D0022300E000231343DAB27B6893F89930002B01D0042300E000231343DAB23B681A72D7F8F4301A7C3B68A5
:401BC0005A72D7F8F4301B683A4918460BF074FA03461846FFF73CFF03461A463B685A81D7F8F4305B68334918460BF065FA03461846FFF72DFF03461A463B689A81D7F871
:401C0000F4309B682B4918460BF056FA03461846FFF71EFF03461A463B68DA817B681B6807F108021146184602F0F6FE97F824203B681A7497F825203B685A74BB691E4928
:401C400018460BF039FA03461846FFF701FF03461A463B685A82FB69174918460BF02CFA03461846FFF7F4FE03461A463B689A823B6A114918460BF01FFA03461846FFF7CB
:401C8000E7FE03461A463B68DA827B690A4918460BF012FA03461846FFF7DAFE03461A463B681A8300E000BFF837BD4680BD00BFE485FF1F0000C84200FEFF4680B582B095
:401CC00000AF786039601422002138680BF04DFC124B1A683B681A60FFF718FD03461A463B689A80FFF71CFD03461A463B68DA80FFF7CCFC03461A463B681A81FFF7D0FC00
:401D000002463B68DA600020FFF7D4FC03461A463B681A8200BF0837BD4680BDE485FF1F80B5BEB000AF786039601022002138680BF01BFC284B1A683B681A607B681B68AB
:401D4000002B45D07B681B6807F10C021146184602F062FE3B69214918460BF0ADF903461846FFF7BDFE03461A463B689A807B691A4918460BF0A0F903461846FFF7B0FE61
:401D800003461A463B68DA80D7F8A030134918460BF092F903461846FFF7A2FE03461A463B681A81D7F8C0300C4918460BF084F903461846FFF74CFE03461A463B685A8182
:401DC00097F8AC203B681A733B6800225A7300E000BFF837BD4680BDE485FF1F00007A4480B5BEB000AF786039600C22002138680BF0BBFB174B1A683B681A607B681B68A9
:401E0000002B23D07B681B6807F10C021146184602F002FED7F8A8300F4918460BF04CF903461846FFF714FE03461A463B689A80D7F8B430094918460BF03EF90346184683
:401E4000FFF72CFE02463B689A6000E000BFF837BD4680BDE485FF1F000020410000C84280B5BEB000AF786039602022002138680BF07BFB234B1A683B681A607B681B68B3
:401E8000002B3BD07B681B6807F10C021146184602F0C2FD97F82A30002B01D0012200E0002297F82B30002B01D0022300E000231343DAB23B681A7197F8A4203B685A7131
:401EC000FA6C3B689A603A6D3B68DA607A6D3B681A61B7F958203B689A82B7F95A203B68DA82B7F85C203B681A83B7F85E203B685A83B7F860203B689A8300E000BFF83771
:401F0000BD4680BDE485FF1F80B5BEB000AF786039601022002138680BF027FB1B4B1A683B681A607B681B68002B2AD07B681B6807F10C021146184602F06EFD97F86230D8
:401F4000002B01D0012200E000223B681A717B6E0F4918460BF0B0F8034618460BF088FA02463B689A60BB6E0A4918460BF0A4F803461846FFF76CFD03461A463B689A81E9
:401F800000E000BFF837BD4680BD00BFE485FF1F000020410000C84280B5BEB000AF786039601022002138680BF0DFFA2A4B1A683B681A607B681B68002B49D07B681B68B4
:401FC00007F10C021146184602F026FD97F8C630002B01D0012200E000223B681A71D7F8C8301E4918460BF067F803461846FFF72FFD03461A463B68DA80D7F8CC301749BD
:4020000018460BF059F803461846FFF721FD03461A463B681A81D7F8D030104918460BF04BF803461846FFF713FD03461A463B685A81D7F8E8300A4918460BF03DF80346AB
:402040001846FFF705FD03461A463B689A8100E000BFF837BD4680BDE485FF1F00007A440000204180B584B000AF786039603B68FB607B6804221946F8680BF06BFAFB68DD
:402080000433FB60FB685A1CFA607A6812791A70FB685A1CFA607A6852791A70FB685A1CFA607A6892791A70FB685A1CFA607A68D2791A70FB685A1CFA607A68127A1A703B
:4020C000FB685A1CFA607A68527A1A707B680A3302221946F8680BF03DFAFB680233FB607B680C3302221946F8680BF033FAFB680233FB607B680E3302221946F8680BF02B
:4021000029FAFB680233FB60FB685A1CFA607A68127C1A70FB685A1CFA607A68527C1A707B68123302221946F8680BF013FAFB680233FB607B68143302221946F8680BF0E1
:4021400009FAFB680233FB607B68163302221946F8680BF0FFF9FB680233FB607B68183302221946F8680BF0F5F9FB680233FB60FA683B68D31ADBB218461037BD4680BD23
:4021800080B584B000AF786039603B68FB607B6804221946F8680BF0DDF9FB680433FB607B68043302221946F8680BF0D3F9FB680233FB607B68063302221946F8680BF059
:4021C000C9F9FB680233FB607B68083302221946F8680BF0BFF9FB680233FB607B680C3304221946F8680BF0B5F9FB680433FB607B68103302221946F8680BF0ABF9FB68D3
:402200000233FB60FA683B68D31ADBB218461037BD4680BD80B584B000AF786039603B68FB607B6804221946F8680BF093F9FB680433FB607B68043302221946F8680BF0E7
:4022400089F9FB680233FB607B68063302221946F8680BF07FF9FB680233FB607B68083302221946F8680BF075F9FB680233FB607B680A3302221946F8680BF06BF9FB6862
:402280000233FB60FB685A1CFA607A68127B1A70FB685A1CFA607A6892F90D20D2B21A70FA683B68D31ADBB218461037BD4680BD80B584B000AF786039603B68FB607B68B9
:4022C00004221946F8680BF045F9FB680433FB607B68043302221946F8680BF03BF9FB680233FB607B68083304221946F8680BF031F9FB680433FB60FA683B68D31ADBB210
:4023000018461037BD4680BD80B584B000AF786039603B68FB607B6804221946F8680BF019F9FB680433FB60FB685A1CFA607A6812791A70FB685A1CFA607A6852791A70D3
:402340007B68083304221946F8680BF003F9FB680433FB607B680C3304221946F8680BF0F9F8FB680433FB607B68103304221946F8680BF0EFF8FB680433FB607B6814337A
:4023800002221946F8680BF0E5F8FB680233FB607B68163302221946F8680BF0DBF8FB680233FB607B68183302221946F8680BF0D1F8FB680233FB607B681A330222194624
:4023C000F8680BF0C7F8FB680233FB607B681C3302221946F8680BF0BDF8FB680233FB60FA683B68D31ADBB218461037BD4680BD80B584B000AF786039603B68FB607B684A
:4024000004221946F8680BF0A5F8FB680433FB60FB685A1CFA607A6812791A707B68083304221946F8680BF095F8FB680433FB607B680C3302221946F8680BF08BF8FB689A
:402440000233FB60FA683B68D31ADBB218461037BD4680BD80B584B000AF786039603B68FB607B6804221946F8680BF073F8FB680433FB60FB685A1CFA607A6812791A7094
:402480007B68063302221946F8680BF063F8FB680233FB607B68083302221946F8680BF059F8FB680233FB607B680A3302221946F8680BF04FF8FB680233FB607B680C333A
:4024C00002221946F8680BF045F8FB680233FB60FA683B68D31ADBB218461037BD4680BD80B592B000AF786007F1280319467868FFF71AFB07F10C0207F128031146184621
:40250000FFF7B0FD034687F8473097F8472007F10C0319462020FFF70DF900BF4837BD4680BD00BF80B58CB000AF786007F1180319467868FFF7C2FB07F1080207F11803D2
:4025400011461846FFF71CFE034687F82F3097F82F2007F1080319462320FFF7EBF800BF3037BD4680BD00BF80B58CB000AF786007F11C0319467868FFF7D2FB07F10C02D7
:4025800007F11C0311461846FFF744FE034687F82F3097F82F2007F10C0319462120FFF7C9F800BF3037BD4680BD00BF80B58AB000AF786007F1180319467868FFF710FC45
:4025C00007F10C0207F1180311461846FFF770FE034687F8273097F8272007F10C0319462220FFF7A7F800BF2837BD4680BD00BF80B592B000AF786007F1240319467868FE
:40260000FFF72EFC07F1080207F1240311461846FFF77AFE034687F8473097F8472007F1080319462420FFF785F800BF4837BD4680BD00BF80B58AB000AF786007F11403A6
:4026400019467868FFF760FC07F1080207F1140311461846FFF7CCFE034687F8273097F8272007F1080319462520FFF763F800BF2837BD4680BD00BF80B58CB000AF786041
:4026800007F11C0319467868FFF786FC07F10C0207F11C0311461846FFF7DCFE034687F82F3097F82F2007F10C0319462620FFF741F800BF3037BD4680BD00BF80B588B038
:4026C00000AF78607B681B68002B54D02E4B1A687B68D3F88C30D31A042B4ED92A4B1B683B614FF0FF33FB610023BB6100237B6122E026497A6913465B0013449B000B440E
:4027000008331B683A69D31AFB6020497A6913465B0013449B000B4404331A68FB689A4207D8FA68BB699A4203D3FB68BB617B69FB617B6901337B617B69032BD9D9FB69C5
:40274000B3F1FF3F1BD07B6818681049FA6913465B0013449B000B441B88194602F008F90A49FA6913465B0013449B000B4408333A691A6004E000BF02E000BF00E000BF9D
:402780002037BD4680BD00BFE485FF1FCC80FF1F80B582B000AF78607B680022DA60034801F0A0FD00BF0837BD4680BDBCFC000080B582B000AF7860034801F093FD00BF5D
:4027C0000837BD4680BD00BFF8FC000080B584B000AF78607B681B79052B2CD17B689B79002B28D007F1080207F10C031946786801F0A0FB0346002B18D07B68DB68002B78
:4028000003D11B4B1A687B68DA60194B1A687B68DB68D31A41F28732934222D9154801F061FD06217868FDF703FF1AE07B680022DA6000BF15E07B681B79062B14D17B6804
:402840009B79002B10D07B6893F83030002B0AD0094801F047FD0A217868FDF7E9FE00BF01E000BF00E000BF1037BD4680BD00BFE485FF1F18FD000048FD000080B582B06E
:4028800000AF78600B46FB70FB781946786801F07DFC0346002B01D0012300E0002318460837BD4680BD00BF80B483B000AF78607B681B79062B0CBF01230023DBB218461E
:4028C0000C37BD4680BC704780B582B000AF78607B6801225A76034801F004FD00BF0837BD4680BD78FD000080B483B000AF78607B68002283F8992000BF0C37BD4680BC83
:40290000704700BF80B582B000AF786039603B6800229A733B684FF000029A603B6800221A747B6893F89930002B25D03B6802225A733B685A7B3B681A737B68D3F8A8208E
:402940007B68D3F8A030194610460AF0ABFA0346284918460AF064FC03461A463B681A607B68D3F8AC30234918460AF059FC03461A463B685A6039E07B685B7E012B0FD1C3
:402980003B6801225A733B685A7B3B681A733B684FF000021A603B684FF000025A6025E07B685A7E3B685A733B685A7B3B681A737B68D3F8A8207B68D3F8A030194610465F
:4029C0000AF070FA03460B4918460AF029FC03461A463B681A607B68D3F8AC30054918460AF01EFC03461A463B685A600837BD4680BD00BF0000344380B584B000AF78609E
:402A00000B46FB70FB78012B20D007F1080207F10C031946786801F08DFA0346002B05D1144A00217868FDF7BFFE20E0FA687B68C3F8A020FA687B68C3F8A820BA687B68A4
:402A4000C3F8A420BA687B68C3F8AC207B68FA785A76FB78012B06D0FB78022B01D1064B02E0064B00E0064B184601F03BFC1037BD4680BDC4FD0000E4FD0000F8FD0000E6
:402A80000CFE000080B582B000AF78600B46FB70FB781946786801F079FB0346002B01D00123CAE0FB78323B442B00F2C58001A252F823F0D92B0000392C0000E92B000035
:402AC000392C0000F92B0000392C0000C92B0000392C0000392C0000392C0000392C0000392C0000392C0000392C0000392C0000392C0000392C0000392C0000392C000038
:402B0000392C0000392C0000392C0000392C0000392C0000392C0000392C0000392C0000392C0000392C0000392C0000392C0000392C0000392C0000392C0000392C000045
:402B4000392C0000392C0000392C0000392C0000392C0000392C0000392C0000392C0000392C0000392C0000392C0000392C0000392C0000152C0000392C0000392C000029
:402B80002D2C0000392C0000392C0000392C0000392C0000392C0000392C0000392C0000212C0000392C0000392C0000392C0000392C0000392C0000392C0000392C0000E9
:402BC000392C0000092C00001E4A4FF00001786801F0DAF9012330E01B4A4FF00001786801F0D2F9012328E04FF000021649786801F0CAF9012320E04FF00002114978687B
:402C000001F0C2F9012318E001217868FFF7F4FE012312E002217868FFF7EEFE01230CE003217868FFF7E8FE012306E006217868FDF7FEFC012300E0002318460837BD4631
:402C400080BD00BF6801B43B6801B4BB80B586B000AF78607B6893F89930002B4AD0284B1A687B68D3F89C30D31A3B613B69952B42D90023FB7507F1080207F10C03194648
:402C8000786801F057F90346002B27D0FA687B68D3F8A830194610460AF004F9034623F00043184918460AF0A5FB0346002B13D0BA687B68D3F8AC30194610460AF0F2F860
:402CC000034623F000430F4918460AF093FB0346002B01D0012300E00023FB75FB7D002B03D13B69B3F5FA6F07D37B68002283F8992002E000BF00E000BF1837BD4680BD0D
:402D0000E485FF1FCDCC4C3D80B584B000AF786007F1080207F10C031946786801F00AF9034618461037BD4680BD00BF80B483B000AF78607B6893F8883018460C37BD4619
:402D400080BC704780B483B000AF78607B6893F8303018460C37BD4680BC7047F0B5BBB006AFF860FB681B79082B67D1FB6893F89930002B62D0614B1A68FB68D3F89C3052
:402D8000D31AC7F8C830D7F8C830952B40F2E281002387F8CF3007F1B40207F1B8031946F86801F0C7F80346002B2AD0D7F8B820FB68D3F8A830194610460AF073F8034664
:402DC00023F000434E4918460AF014FB0346002B14D0D7F8B420FB68D3F8AC30194610460AF060F8034623F00043454918460AF001FB0346002B01D0012300E0002387F807
:402E0000CF3097F8CF30002B05D1D7F8C830B3F5FA6FC0F09F813B4801F064FAFB68DB79002B01D0062300E0092387F8C73097F8C7301946F868FDF7FBFB8BE1FB681B799A
:402E4000092B32D107F1A80319460020FEF7A8FB0346002B11D0B7F9AC20FB68A3F87C20B7F9AE20FB68A3F87E20274801F03AFA0C21F868FDF7DCFB75E1FB689B79002BF8
:402E800000F06A811D4B1A68FB689B68D31A42F20F72934240F260811C4801F023FA0B21F868FDF7C5FB00BF56E1FB681B790A2B18D1124B1A68164B1B68D31A41F2873204
:402EC00093420BD90D4B1B68114A1360FB6893F83030002B02D0F86800F07EFBF86800F0EFFB40E1FB681B790C2B40F0FD80002387F8C630002387F8CE30CFE0E485FF1FB8
:402F0000CDCC4C3D20FE000038FE000060FE00009486FF1F07F19C0297F8CE3011461846FEF73EFB0346002B00F0B28097F8CE30002B7BD1FB68B3F87C30A7F8C430FB6835
:402F4000B3F87E30A7F8C230B7F9A020FB68A3F87C20B7F9A220FB68A3F87E20012387F8C6300020FEF7A6FB0346A7F8CC30B7F8CC30002B04D0B7F8CC30B3F57A7F02D94B
:402F80002123A7F8CC30B7F8CC3018460AF03CF80346764918460AF08FF803461A46FB689A67B7F9A03018460AF032F80446B7F9C43018460AF02CF803461946204609F094
:402FC00071FF03466A4918460AF076F803461A46FB689B6F194610460AF022F903461A46FB681A67B7F9A23018460AF011F80446B7F9C23018460AF00BF8034619462046FA
:4030000009F050FF03465A4918460AF055F803461A46FB689B6F194610460AF001F903461A46FB685A67F86800F02AFD97F8CE30504A52F82340B7F9A0301D46B7F9A2307B
:403040001E4697F8CE301846FEF734FB0346BB60FEF726FB7860FEF759FB03463B60FEF75FFB034607F1100005933A6804927A680392BB6802930196009523463E4A802101
:403080000AF0ECFE07F11003184601F02BF900E000BF97F8CE30013387F8CE3097F8CE30012B7FF637AF0020FEF71AFBC7F8BC00D7F8BC30002B51D0FB68D3F89420D7F860
:4030C000BC309A424AD22D4B1A68D7F8BC30D31A41F28732934241D9294801F003F90D21F868FDF7A5FA39E0FB681B790D2B1BD107F1900319460020FEF752FA0346002BFD
:403100002ED0B7F99420FB68A3F87C20B7F99620FB68A3F87E201B4801F0E4F80C21F868FDF786FA00BF1BE0FB681B790E2B1AD1FB689B79002B15D0FB6893F83030002B8B
:4031400010D0114801F0CEF80A21F868FDF770FA00BF07E000BF06E000BF04E000BF02E000BF00E000BFD437BD46F0BD6F12833ACDCCCC3DFC80FF1F8CFE0000E485FF1F43
:40318000C8FE0000F8FE00002CFF000080B584B000AF7860234801F0A5F87B6893F88830002B09D1204A00217868FDF7FDFA06217868FDF73DFA31E007F1080207F10C0372
:4031C0001946786800F0B6FE0346002B09D1174A00217868FDF7E8FA06217868FDF728FA1CE0FA687B68C3F8A020BA687B68C3F8A4207B68D3F880207B68C3F8A8207B6872
:40320000D3F884207B68C3F8AC207B68012283F89920074B1A687B68C3F89C201037BD4680BD00BF54FF000080FF0000A0FF0000E485FF1F80B582B000AF78607B6800221C
:4032400083F899200020FEF7FBF97B680022DA7100BF0837BD4680BD80B582B000AF78600B46FB70FB78652B05D106217868FDF7DFF9012300E0002318460837BD4680BD29
:4032800080B582B000AF786039603B6800221A743B6800229A733B684FF000029A603B6802225A733B685A7B3B681A737B68D3F8A8207B68D3F8A0301946104609F0F2FDB7
:4032C00003460B49184609F0ABFF03461A463B681A607B68D3F8AC300549184609F0A0FF03461A463B685A6000BF0837BD4680BD0000344380B582B000AF7860054B1A6821
:403300007B689A60044800F0EDFF00BF0837BD4680BD00BFE485FF1FBCFF000080B582B000AF78600B46FB70FB781946786800F02DFF0346002B01D0012300E00023184607
:403340000837BD4680BD00BFB0B58AB000AFF860B9607A603B603749F86809F0ADFE03463B623449786809F0A7FE0346FB61B968386809F097FD03462E49184609F09CFED2
:403380000346BB61B86907F0D7FD0446F86907F097FD03461946204609F08EFE03467B61386A07F08DFD0446F86907F0C5FD03461946204609F080FE03461C46386A07F07E
:4033C000BBFD0546F86907F07BFD03461946284609F072FE03461D46B86907F071FD03461946284609F068FE03461946204609F059FD03463B613969786907F02DFE0346A4
:403400000D49184609F058FE03467B624FF00001786A09F0EFFF0346002B05D00749786A09F042FD03467B627B6A18462837BD46B0BD00BF98F98E3CE62E65420000B443A3
:40344000B0B58AB000AFF860B9607A603B605049F86809F031FE03463B624D49386809F02BFE0346FB61B968B86B09F01BFD03464749184609F020FE0346BB61396AF86908
:4034800009F010FD03467B614FF07C51786909F013FE0346184607F04FFD04464FF07C51786909F009FE0346184607F045FD03461946204609F000FE03461C46386A07F0A0
:4034C000FFFC0546F86907F0FBFC03461946284609F0F2FD03461D464FF07C51B86909F0EBFD0346184607F027FD03461946284609F0E2FD03461D464FF07C51B86909F0FD
:40350000DBFD0346184607F017FD03461946284609F0D2FD03461946204609F0C5FC03463B61386907F09AFD044639694FF07E5009F0B8FC0346184607F090FD03461946CE
:40354000204607F089FD03461249184609F0B4FD03467B624FF07E51786A09F04BFF0346002B02D04FF07E537B627968F86B09F099FC0346796A184607F06EFD03460649DA
:40358000184609F099FD034618462837BD46B0BD98F98E3C706D424BE62E654280B483B000AF78607B685A6A7B685A637B689A6A7B689A637B68DA6A7B68DA637B680022E0
:4035C00083F840207B68002283F8312000BF0C37BD4680BC704700BF80B5C2B002AF78607B681B6807F108021146184601F014FA97F8263083F00103DBB2002B54D17B6800
:403600005B6B184609F004FD03462A49184609F053FD0346C7F8FC307B689B6B184609F0F7FC03462349184609F046FD0346C7F8F8307B68DB6B184609F0EAFC03461E490D
:40364000184609F039FD0346C7F8F430B86AF96AD7F8F830D7F8FC20FFF776FE0246BB6B1946104609F01EFC03461449184609F0D7FD03461A467B68DA61B86AF96A3A6BC8
:40368000D7F8F4300193D7F8F8300093D7F8FC30FFF7D6FE03460949184609F0C1FD03461A467B681A6200E000BF07F58077BD4680BD00BF95BFD6336F12833A00003443D9
:4036C00090B58BB000AF7860694B1B683B627B68DB6C3A6AD31A312B40F2C38007F1080207F10C031946786800F024FC0346002B00F0B9805F4B7B627B68DB6C002B34D08E
:403700007B68DB6C3A6AD31A184609F07DFC03465949184609F0D0FC0346FB614FF00001F86909F085FE0346002B1ED0FA687B685B6C1946104609F0B5FB034623F00044C2
:40374000BA687B689B6C1946104609F0ABFB034623F000431946204609F0A6FB0346F969184609F05DFD03467B62FA687B685A64BA687B689A647B683A6ADA647B68DB6977
:403780003E49184609F098FC0346BB617B681B6A3A49184609F090FC03467B61FB68B969184609F07FFB034623F000434FF07C51184609F01FFE0346002B11D0BB68796970
:4037C000184609F06FFB034623F000434FF07C51184609F00FFE0346002B01D0012300E00023FB7401231C464FF07E51786A09F001FE0346002B01D100231C46E3B2BB7421
:403800007B6893F83130002B14D07B6893F84030002B05D1FB7C002B0CD0BB7C002B09D0174800F05FFD7868FFF7B8FE7868FFF7D3FE19E07B6893F84030002B14D1FB7CD6
:40384000002B11D0BB7C002B0ED07B68012283F840200C4800F046FD09217868FCF7E8FE02E000BF00E000BF2C37BD4690BD00BFE485FF1F286B6E4E6F12833A0000344374
:40388000F0FF00001800010080B582B000AF78607B6893F83030002B07D10B4800F022FD06217868FCF7C4FE0BE0084800F01AFD7B680022DA647868FFF770FE7868FFF784
:4038C0008BFE0837BD4680BD400001007000010080B582B000AF78600020FDF7B1FE7B6893F84030002B03D001217868FDF738F87B684FF000021A627B681A6A7B68DA6136
:4039000000BF0837BD4680BD80B582B000AF78600B46FB70FB78652B05D106217868FCF787FE012300E0002318460837BD4680BD80B582B000AF786039603B6800221A7469
:403940003B6800229A733B684FF000029A603B6802225A733B685A7B3B681A737B68DB691C49184609F046FD0346002B01D0194B0EE07B68DB694FF07E51184609F058FDBD
:403980000346002B02D04FF07E5301E07B68DB693A6813607B681B6A0E49184609F02AFD0346002B01D00B4B0EE07B681B6A4FF07E51184609F03CFD0346002B02D04FF043
:4039C0007E5301E07B681B6A3A68536000BF0837BD4680BD000080BF80B582B000AF7860034800F07FFC00BF0837BD4680BD00BFA400010080B582B000AF78607B680022A2
:403A0000A3F87C207B680022A3F87E207B684FF000021A667B684FF000025A667B684FF000029A667B684FF00002DA667B684FF000021A677B684FF000025A677B684FF055
:403A400000029A67034800F04DFC00BF0837BD4680BD00BFD000010080B582B000AF78600B46FB70FB78652B05D106217868FCF7DFFD012300E0002318460837BD4680BD94
:403A800090B58DB000AF78607B689B6FFB627B68B3F97C30184609F0BBFA03468B49184609F00AFB0346BB627B68B3F97E30184609F0AEFA03468549184609F0FDFA0346A3
:403AC0007B627B681B6F3B627B685B6FFB617B681B6DB96A184609F0EFFA03461C467B685A6D7B681B6E1946104609F0E5FA03461946204609F0D8F903461C467B689B6D4C
:403B0000396A184609F0D8FA03461946204609F0CBF90346BB617B681B6D796A184609F0CBFA03461C467B685A6D7B685B6E1946104609F0C1FA03461946204609F0B4F901
:403B400003461C467B689B6DF969184609F0B4FA03461946204609F0A7F903467B617B68DB6D3B61BB6923F000433969184609F041FC0346002B0ED07B681C6EF96AB86AC1
:403B800009F09AFA03461946204609F08DF903461A467B681A667B6923F000433969184609F028FC0346002B0ED07B685C6EF96A786A09F081FA03461946204609F074F95C
:403BC00003461A467B685A667B681B6DB96A184609F072FA03461C467B685A6D7B681B6E1946104609F068FA03461946204609F05BF903461C467B689B6D396A184609F06C
:403C00005BFA03461946204609F04EF90346FB607B681B6D796A184609F04EFA03461C467B685A6D7B685B6E1946104609F044FA03461946204609F037F903461C467B689E
:403C40009B6DF969184609F037FA03461946204609F02AF90346BB603B6983F00043F968184609F0E5FB0346002B03D03B6983F0004309E03969F86809F0DAFB0346002B04
:403C800001D03B6900E0FB687A6893663B6983F00043B968184609F0CBFB0346002B01D03B690DE03969B86809F0C2FB0346002B03D03B6983F0004302E0BB6883F000432F
:403CC0007A68D36600BF3437BD4690BDCDCCCC3D80B483B000AF786039603B6800221A743B6800229A733B684FF000029A603B6801225A733B685A7B3B681A737B689A6EDD
:403D00003B681A607B68DA6E3B685A6000BF0C37BD4680BC704700BF80B582B000AF7860034800F0DFFA00BF0837BD4680BD00BFFC00010080B582B000AF78600B46FB7081
:403D4000FB781946786800F021FA0346002B01D0012309E0FB78332B05D10B217868FCF767FC012300E0002318460837BD4680BD80B582B000AF7860034800F0B3FA00BF92
:403D80000837BD4680BD00BF5401010080B582B000AF78600B46FB70FB781946786800F0F5F90346002B01D0012309E0FB78332B05D10B217868FCF73BFC012300E00023DF
:403DC00018460837BD4680BD80B483B000AF0346FB71FB79022B05D0032B05D0012B05D1054B04E0054B02E0054B00E0054B18460C37BD4680BC704798010100A0010100E7
:403E0000AC010100B401010080B582B000AF7860164800F067FA7B681B7C1846FFF7D4FF0346184600F05EFA114800F05BFA7B685B69002B02D07B685B6900E00D4B184672
:403E400000F050FA7B681B7C032B07D17B681B68002B03D0084800F045FA02E0074800F041FA00BF0837BD4680BD00BFBC010100C8010100CC010100D80101000C0201000D
:403E800080B584B000AF78600B46FB707B681B7C032B13D07B685B790F2B06D07B685B79102B02D07B685B7900E00623FB73FB7B19467868FCF7BCFB012300E0002318462E
:403EC0001037BD4680BD00BF80B582B000AF7860074800F007FA7B681B68002B04D07B681B68184600F026FD00BF0837BD4680BD2802010080B483B000AF78600B46FB70FF
:403F0000002318460C37BD4680BC704780B582B000AF7860396039687868FCF7E1FC7B681B7C032B02D13B6801221A7400BF0837BD4680BD80B5C0B000AFF860B9607A6043
:403F4000FB681B68002B01D1002318E0FB681B6807F114021146184600F05EFD3B7D83F00103DBB2002B01D0002308E007F1100307F114007A68B96800F0BAFD0346184624
:403F800007F58077BD4680BDF0B599B002AFF860B9607A60FB6893F89930002B41D107F1500207F154031946F868FFF7C3FF0346002B05D16F4A0021F868FCF7F5FBD5E0C4
:403FC0007B6D184608F0EEFB05460E463B6D184608F0E8FB03460C4607F11000CDE900342A463346644909F06BFF07F11003184600F078F9614800F075F97A6DFB68C3F8BE
:40400000A0203A6DFB68C3F8A4207A6DFB68C3F8A8203A6DFB68C3F8AC20FB68012283F89920FB68D3F8A830B968184608F03CFF03461C46FB68D3F880305149184608F0EE
:4040400031FF03461946204609F0D4F90346002B09D0FB68D3F880304949184608F022FF03461A462AE0FB68D3F8A830B968184608F01AFF03461C46FB68D3F880304049AD
:40408000184608F011FF03461946204609F0D0F90346002B09D0FB68D3F880303849184608F002FF03461A4608E0FB68D3F8A830B968184608F0F8FE03461A46FB68C3F8FC
:4040C000A820FB68D3F8AC307968184608F0ECFE03461C46FB68D3F884302A49184608F0E1FE03461946204609F084F90346002B09D0FB68D3F884302249184608F0D2FE54
:4041000003461A462AE0FB68D3F8AC307968184608F0CAFE03461C46FB68D3F884301949184608F0C1FE03461946204609F080F90346002B09D0FB68D3F884301149184658
:4041400008F0B2FE03461A4608E0FB68D3F8AC307968184608F0A8FE03461A46FB68C3F8AC20094B1A68FB68C3F89C205C37BD46F0BD00BF6002010080020100A002010051
:404180000000F0410000A041E485FF1F80B582B000AF78600B46FB70FB78613B162B77D801A252F823F000BF6F42000091420000914200007F4200009142000091420000A0
:4041C00091420000914200000542000029420000174200003B4200009142000091420000914200009142000091420000914200005F42000091420000914200009142000085
:404200004D4200004FF07C524FF000017868FFF7BBFE01233DE04FF03F424FF000017868FFF7B2FE012334E04FF000024FF03F417868FFF7A9FE01232BE04FF000024FF0E8
:404240007C517868FFF7A0FE012322E04FF07E524FF000017868FFF797FE012319E00F4A4FF000017868FFF78FFE012311E04FF000020A497868FFF787FE012309E04FF0B4
:4042800000024FF07E517868FFF77EFE012300E0002318460837BD4680BD00BF000080BF80B500AF0021002004F028FD00BF80BD80B500AF04F0C4FE0346002B0DD004F081
:4042C000B3FE0346002B05D005F0B2F8044B01221A7002E0024B00221A7000BF80BD00BF9886FF1F80B586B000AF7860204B1B78002B37D07B68002B34D0786809F004FE48
:40430000F86000237B6128E000233B6106E03B6901333B613B69174A934225D805F024F90346002BF3D0FA687B69D31A402B06D8FB689AB27B699BB2D31A9BB200E040230C
:404340007B817A687B6913447A891146184605F0C3F87B897A6913447B617A69FB689A42D2D302E000BF00E000BF1837BD4680BD9886FF1F400D030080B582B000AF0C4B13
:404380001B78002B01D100230EE005F0DBF80346002B01D1002307E00023FB71FB1D0121184605F0F3F8FB7918460837BD4680BD9886FF1F80B483B000AF0346FB80FB8853
:4043C0000133FB80FB88FF2B01D90023FB80FB8818460C37BD4680BC704700BF80B483B000AF78607B680022A3F800217B680022A3F802217B680022A3F8042100BF0C37D7
:40440000BD4680BC704700BF80B584B000AF78600B46FB707B68B3F800319BB21846FFF7C9FF0346FB817B68B3F802319BB2FA899A420AD17B68B3F804319BB201339AB256
:404440007B68A3F8042100230CE07B68B3F800319BB219467B68FA785A547B68FA89A3F80021012318461037BD4680BD80B582B000AF786039607B68B3F800319AB27B687C
:40448000B3F802319BB29A4201D1002316E07B68B3F802319BB21A467B689B5CDAB23B681A707B68B3F802319BB21846FFF782FF03461A467B68A3F802210123184608371B
:4044C000BD4680BD80B483B000AF78607B681B680F4A13617B685B680D4A93617B689B680B4A13627B681A7B094B1A757B685A7B074B1A777B689A7B054B83F824207B68DA
:404500001A7C034B1A7300BF0C37BD4680BC70470481FF1F80B582B000AF78607A680021002000F0CFFB00BF0837BD4680BD00BF80B584B000AF78600023FB6009E07B686D
:404540005B687A681268F97A10469847FB680133FB607B6803F22A2307F10B0211461846FFF784FF0346002BE9D1FB6818461037BD4680BD80B582B000AF786039604FF4EA
:4045800060720021786808F0F0FF7B683A6807CA83E807007B68022283F830237B6803F592731846FFF71AFF7B6803F22A231846FFF714FF044A7B681360044B1B68984776
:4045C00000BF0837BD4680BD9C86FF1F0481FF1F80B582B000AF78600B46FB707B68002B0FD07B6803F59273FA7811461846FFF70BFF7B68B3F828329AB27B68A3F8202109
:4046000000E000BF0837BD4680BD00BF80B483B000AF78600B46FB707B68002B09D07B6893F82221FB781343DAB27B6883F8222100E000BF0C37BD4680BC704780B58AB01E
:4046400000AF78607B68002B00F02F81994BD3F880307B6202E17B68D3F818315A1C7B68C3F81821FB7A1946002002F0C5FD03463B623B6A002B00D1F0E07B68D3F81431B0
:404680005A1C7B68C3F814218A4BFB61FB691B697B83FB699B893B83FB691B6F7B617B6820331846FFF736FF7B69002B00F09F807B8B013B2F2B00F2998001A252F823F006
:4046C000B7470000ED4700009347000081470000ED470000ED470000ED470000ED470000ED470000ED470000ED470000C9470000ED470000ED470000ED470000ED4700009A
:40470000ED470000ED470000ED470000ED470000ED470000A5470000ED470000ED470000ED470000ED470000ED470000ED470000ED470000ED470000ED470000ED47000081
:40474000ED470000ED470000ED470000ED470000ED470000ED470000ED470000ED470000ED470000ED470000ED470000ED470000ED470000ED470000ED470000DB4700000B
:404780007B6803F120023B8B1946786900F0CEFA2DE07B6803F120023B8B1946786900F095FB24E07B6803F120023B8B1946786900F0C8FB1BE07B6803F120023B8B1946E7
:4047C000786900F061FC12E07B6803F120023B8B1946786900F03CFD09E07B6803F120023B8B1946786900F0F9FD00E000BF7B68B3F83233002B31D07B68B3F832337A8BED
:404800009A422BD17B687A8BA3F83A237B683A8BA3F83C237B68012283F838233B8B3F2B02D83B8BDBB200E04023FB747B69002B08D07B6803F23E33FA7C7969184608F055
:4048400089FE07E07B6803F23E33FA7C0021184608F08BFE7B68FA7C83F87E237B6803F5927307F10B0211461846FFF7FFFD0346002B7FF4F0AE0F4BD3F88030FB60FA68F3
:404880007B6A9A4209D97B68D3F81C21F9687B6ACB1A1A447B68C3F81C217B68B3F828329AB27B68A3F8202100E000BF2837BD4680BD00BFD486FF1FB0B584B000AF78607E
:4048C00039607B68002B03D07B685B68002B01D1012329E03868FFF7F5FD7B683A6803F10C0415460FCD0FC42B682360104B5B6898477868FFF71CFEF8607B68D3F80C310D
:404900005A1C7B68C3F80C217B68D3F81021FB681A447B68C3F810217B6893F82231002B14BF01230023DBB218461037BD46B0BD0481FF1FB0B588B000AF78607B68002B4A
:4049400011D07B6807F10C0403F10C050FCD0FC42B68236001233B7707F10C0319467868FFF7AAFF00E000BF2037BD46B0BD00BF80B588B002AF78600B467B807B68002B71
:4049800003D07B685B68002B01D101233EE007F10C03184602F03AFB7B6893F830333B7479886B4607F110021268104618800233120C1A70FB680022164802F091FB7868F1
:4049C000FFF7B6FD78617B687A88A3F832237B680022C3F834237B68002283F838237B68D3F80C315A1C7B68C3F80C217B68D3F810217B691A447B68C3F810217B6893F8E4
:404A00002231002B14BF01230023DBB218461837BD4680BDCC86FF1F80B582B000AF786039607B68002B0BD03B68002B08D03A687B6810462033EC22194608F08BFD00E0E3
:404A400000BF0837BD4680BD80B483B000AF78607B681B781A067B6801331B781B041A437B6802331B781B0213437A6803321278134318460C37BD4680BC704780B483B03B
:404A800000AF78607B681B781B021AB27B6801331B781BB213431BB218460C37BD4680BC704700BF80B483B000AF78607B681B781B021AB27B6801331B781BB213431BB239
:404AC0009BB218460C37BD4680BC704780B584B000AF786007F10E0302227968184608F039FDB7F90E3018461037BD4680BD00BFB0B58AB000AFF860B9607A603B60FB681F
:404B0000002B06D0FB681B7883F00103DBB2002B01D00023CEE0FB68DB683B62FB681B69FB61FB685B69BB61FB689B697B61BB68002B3FD07969386A08F0BEFA03461C4665
:404B4000B969F86908F0B8FA03461946204608F0ABF903461946184608F0A6F903461C46B969B86908F0A8FA03461D467969786908F0A2FA03461946284608F095F9034651
:404B80001946184608F090F9034619464FF07E5008F088F903461946204606F05DFA0246464B1B681946104608F086FA03461A46BB681A607B68002B38D0B969386A08F08D
:404BC0007BFA03461C46F969786908F075FA03461946204608F066F903461946184608F063F903467B624FF07E51786A08F020FC0346002B03D04FF07E537B6208E030496D
:404C0000786A08F0F7FB0346002B01D02C4B7B62786A06F0CFF90246284B1B681946104608F04AFA03461A467B681A603B68002B3FD0F969386A08F03FFA03461C4679699B
:404C4000B86908F039FA03461946204608F02CF903461946184608F027F903461C46F969F86908F029FA03461D46B969B86908F023FA03461946284608F016F9034619464D
:404C8000184608F011F9034619464FF07E5008F009F903461946204606F0DEF90246074B1B681946104608F007FA03461A463B681A60012318462837BD46B0BDAC02010079
:404CC000000080BF80B485B000AFF8600B467A607B81154B9A6C7B685A60134BDA6C7B689A60114B1A6E7B68DA600F4B5A6D7B681A610D4B9A6D7B685A610B4BDA6D7B685D
:404D00009A61094B93F850207B681A77064B93F851207B685A777B6801221A7000BF1437BD4680BC704700BF0481FF1F80B58AB000AFF8600B467A607B817B89152B40F2AF
:404D4000BB80F868FFF780FE7862FB6804331846FFF77AFE3862FB6808331846FFF774FEF861FB680C331846FFF788FE03467B83FB680E331846FFF781FE03463B83FB68E9
:404D800010331846FFF78EFE0346FB82FB6812331846FFF787FE0346BB82FB6814331846FFF780FE03467B827B687A6A5A647B683A6A1A647B68FA699A647B687A8BA3F8F0
:404DC0004C207B683A8BA3F84E207B68FA8AA3F850207B68BA8AA3F852207B687A8AA3F85420786A08F014F903463549184608F017FA03461A467B685A62386A08F008F902
:404E000003462F49184608F00BFA03461A467B681A62F86908F0FCF803462A49184608F0FFF903461A467B689A62B7F91A30184608F0EEF803462449184608F0F1F90346FA
:404E40001A467B68DA62B7F91830184608F0E0F803461D49184608F0E3F903461A467B681A63FB8A184608F0CFF803461649184608F0D6F903461A467B685A63BB8A184648
:404E800008F0C2F803461049184608F0C9F903461A467B689A637B8A184608F0B5F803460949184608F0BCF903461A467B68DA637B6801229A7700E000BF2837BD4680BD31
:404EC0008096184B00007A440000C84280B584B000AFF8600B467A607B817B89042B28D9FB6801331846FFF7F1FD0346184608F08FF803461149184608F092F903461A467A
:404F00007B689A65FB6803331846FFF7DFFD0346184608F07DF803460949184608F080F903461A467B68DA657B68012283F8562000E000BF1037BD4680BD00BF0000204140
:404F400000007A4480B584B000AFF8600B467A607B817B890E2B40F28E80FB6801331846FFF7B4FD0346184608F052F803464449184608F055F903461A467B689A66FB6871
:404F800003331846FFF7A2FD0346184608F040F803463B49184608F043F903461A467B68DA66FB6805331846FFF790FD0346184608F02EF803463249184608F031F90346F8
:404FC0001A467B681A67FB6807331846FFF77EFD0346184608F01CF803462A49184608F01FF903461A467B68C3F88020FB6809331846FFF76BFD0346184608F009F8034679
:405000001F49184608F00CF903461A467B685A67FB680B331846FFF759FD0346184607F0F7FF03461649184608F0FAF803461A467B689A67FB680D331846FFF747FD034680
:40504000184607F0E5FF03460D49184608F0E8F803461A467B68DA677B684FF00002C3F884207B684FF00002C3F888207B68012283F8602000E000BF1037BD4680BD00BF65
:405080000000C8420000204180B584B000AFF8600B467A607B817B89152B40F2CF80F868FFF7ECFC0346184607F0B2FF03466549184608F0B5F803461A467B68C3F89420A7
:4050C000FB689A787B6883F89820FB6803331B78184607F099FF03465B49184608F0A0F803461A467B68C3F89C20FB681A797B6883F8A020FB6805331846FFF7BFFC034627
:405100001A467B68A3F8A220FB6807331846FFF7B5FC03461A467B68A3F8A420FB6809331846FFF7ABFC0346184607F071FF03464649184608F074F803461A467B68C3F8B9
:40514000A820FB680B331846FFF798FC03461A467B68A3F8AC20FB680D331846FFF78EFC03461A467B68A3F8AE20FB6810331846FFF784FC03461A467B68A3F8B020FB68A1
:4051800012331846FFF77AFC0346184607F040FF03462C49184608F043F803461A467B68C3F8B420FB6814331846FFF767FC03461A467B68A3F8B8207B68012283F88C200C
:4051C0007B68B3F9A2309BB203F00103002B14BF01230023DAB27B6883F88D207B68B3F9A2309BB203F00203002B14BF01230023DAB27B6883F88E207B68B3F9A2309BB2FD
:4052000003F00403002B14BF01230023DAB27B6883F88F207B68B3F9A2309BB203F00803002B14BF01230023DAB27B6883F890207B6893F890207B68DA7700E000BF1037D3
:40524000BD4680BD0000C842000040400000204180B584B000AFF8600B467A607B817B89122B40F2B080FB6801331846FFF72EFC0346184607F0CCFE03465549184607F010
:40528000CFFF03461A467B68C3F8BC20FB6803331846FFF71BFC0346184607F0B9FE03464B49184607F0BCFF03461A467B68C3F8C020FB6805331846FFF708FC03461846F6
:4052C00007F0A6FE03464249184607F0A9FF03461A467B68C3F8C420FB6807331846FFF7F5FB0346184607F093FE03463949184607F096FF03461A467B68C3F8C820FB68C0
:4053000009331846FFF7E2FB0346184607F080FE03463049184607F083FF03461A467B68C3F8CC20FB680B331846FFF7CFFB0346184607F06DFE03462549184607F070FFD5
:4053400003461A467B68C3F8D020FB680D331846FFF7BCFB0346184607F05AFE03461C49184607F05DFF03461A467B68C3F8D420FB680F331846FFF7A9FB0346184607F07D
:4053800047FE03461249184607F04AFF03461A467B68C3F8D820FB6811331846FFF796FB0346184607F034FE03460B49184607F037FF03461A467B68C3F8DC207B6801225A
:4053C00083F8BA2000E000BF1037BD4680BD00BF00007A440000C8420000204180B584B000AFF8600B467A607B817B890C2B2CD9FB6808331B78092B0CBF01230023DAB270
:405400007B6883F8E120FB6809331846FFF736FB0346184607F0FCFD03460E49184607F0FFFE03461A467B68C3F8E420FB680B331846FFF723FB03461A467B68A3F8E820D3
:405440007B68012283F8E02000E000BF1037BD4680BD00BF0000204180B500AF1A4A0A211A4801F0C1FD1A4B00221A75184B00221A77174B002283F82420154B002283F875
:405480002C20134B002283F83420114B002283F83C200F4B002283F841200D4B002283F840200B4B002283F84220094B002283F84320074B002283F84420054B002283F866
:4054C000452000BF80BD00BF19550000CC86FF1F0481FF1F80B584B002AF3B46184601F095FD02233B7100237B710023BB716B463A1D1268114619800233120C1A703B686E
:40550000002240F21511034801F02AFE00BF0837BD4680BDCC86FF1F80B592B002AF78607B681B78022B07D0042B02D0012B06D008E000F0AFFC05E000F0ACFC02E000F090
:40554000B5FC00BF7B68DB6E184600F07DFC7B68DB6840F21512934205D040F21F12934200F04A82EAE37B681B78022B40F0EA83B74B1B78002B06D107F13003032118465A
:4055800000F096FE06E007F130000023FF22032100F0ACFEAF4B1B7D032B1BD801A252F823F000BFB5550000BD550000C5550000CD550000002387F83F300FE0012387F8EA
:4055C0003F300BE0022387F83F3007E0032387F83F3003E0002387F83F3000BF9D4B1B7F032B1BD801A252F823F000BFFD550000055600000D56000015560000002387F811
:405600003E300FE0042387F83E300BE0082387F83E3007E00C2387F83E3003E0002387F83E3000BF8B4B93F82430032B1AD801A252F823F0455600004D5600005556000083
:405640005D560000002387F83D300FE0102387F83D300BE0202387F83D3007E0302387F83D3003E0002387F83D3000BF97F83F2097F83E301343DAB297F83D301343DBB2BD
:4056800087F83030734B5B7B002B07D097F8303063F07F03DBB287F8303006E097F8303003F07F03DBB287F830306A4B1B7B002B07D097F8303043F04003DBB287F8303071
:4056C00006E097F8303023F04003DBB287F830305F4B1B78002B06D107F130030121184600F0E6FD06E007F130000023FF22012100F0FCFD564B1B78002B05D1564A012102
:40570000564800F0DFFB07E0554B0093554B524A0121524800F03AFC4D4B1B78002B05D14D4A0121504800F0CDFB07E04C4B00934C4B494A01214C4800F028FC444B1B786D
:40574000002B05D1444A0121484800F0BBFB07E0434B0093434B404A0121444800F016FC0023BB833A4B1B78002B06D107F11C030121184600F0C2FC07E007F11C004FF078
:4057800000033B4A012100F0E5FC324B93F82C30012B07D0022B09D0002B0BD1002387F83C300BE0102387F83C3007E0202387F83C3003E0002387F83C3000BF254B93F823
:4057C0003430012B07D0022B09D0002B0BD1002387F83B300BE0042387F83B3007E0082387F83B3003E0002387F83B3000BF194B93F83C30012B07D0022B09D0002B0BD116
:40580000002387F83A300BE0012387F83A3007E0022387F83A3003E0002387F83A3000BF97F83C2097F83B301343DAB297F83A301343DBB287F83030054B1B78002B19D147
:4058400007F130030121184600F032FD19E000BFC886FF1F0481FF1F00FEFF462481FF1F0001003800FEFFC61C81FF1F1481FF1F00FF7F4707F130000023FF22012100F0E4
:4058800035FDAF4B9B6AAF49184607F015FC0346AC49184607F008FB0346184607F00EFE03469BB23B81A64B1B6BA649184607F003FC0346A349184607F0F6FA03461846EC
:4058C00007F0FCFD03469BB27B819D4B9B6B9D49184607F0F1FB03469A49184607F0E4FA0346184607F0EAFD03469BB2BB81964B1B78002B06D107F108030321184600F070
:4059000059FD07E007F1080000234FF6FF72032100F07AFD8C4B1B78002B05D1012200218A4800F0EDFD04E001220021874800F04DFE854B1B78002B05D1012201218448C4
:4059400000F0DEFD04E001220121814800F03EFE7D4B1B78002B05D1012204217D4800F0CFFD04E0012204217A4800F02FFE764B1B78002B05D101220521774800F0C0FD04
:4059800004E001220521744800F020FE6E4B1B78002B05D101220621704800F0B1FD04E0012206216D4800F011FE674B1B78002B05D1012207216A4800F0A2FD04E0012248
:4059C0000721674800F002FE00F04CFA002387F830305D4B1B78002B06D107F130030121184600F065FCB0E107F130000023FF22012100F07BFCA8E17B681B78012B40F08E
:405A0000A381514B1B78002B06D107F130030321184600F04DFC06E007F130000023FF22032100F063FC484B1B78002B06D107F130030221184600F03BFC06E007F130005D
:405A40000023FF22022100F051FC97F83030184607F0DAFA03464349184607F02DFB03464149184607F020FA03461A46344B9A6497F83130184607F0C7FA03463949184681
:405A800007F01AFB03463849184607F00DFA03461A462B4BDA642A4B9B6C3349184607F09FFC0346002B03D0254B4FF000029A64234BDB6C2C49184607F092FC0346002BF8
:405AC00003D01F4B4FF00002DA641F4B1B78002B04D10121254800F0EBFB05E00023FF220121224800F002FC174B1B78002B04D101211F4800F0DCFB05E00023FF22012155
:405B00001B4800F0F3FB104B1B78002B05D10D4A0121184800F0D6F907E0174B0093174B084A0121134800F031FA074B1B78002B28D1044A0121124800F0C4F92AE000BF2C
:405B40000481FF1F00FEFF46C886FF1F4481FF1F4581FF1F4681FF1F4781FF1F4881FF1F4981FF1FCDCCCC3D000020415481FF1F5581FF1F6481FF1F0001003800FEFFC689
:405B80005881FF1F744B0093744B754A0121754800F0FCF9744B1B78002B05D1704A0121724800F08FF907E06B4B00936B4B6C4A01216E4800F0EAF96B4B1B78002B05D168
:405BC000674A01216A4800F07DF907E0624B0093624B634A0121664800F0D8F9624B1B78002B06D107F130030221184600F060FB06E007F130000023FF22022100F076FB99
:405C0000594B1B78002B05D101220021594800F077FC04E001220021564800F0D7FC524B1B78002B05D101220121534800F068FC04E001220121504800F0C8FC4A4B1B7859
:405C4000002B05D1012202214C4800F059FC04E001220221494800F0B9FC00F003F9424B1B78002B05D101220021454800F048FC04E001220021424800F0A8FC00F0F2F872
:405C8000394B1B78002B04D101213E4800F010FB05E00023FF2201213A4800F027FB324B1B78002B04D10121374800F001FB05E00023FF220121344800F018FB2A4B1B78DC
:405CC000002B04D10121314800F0F2FA05E00023FF2201212D4800F009FB234B1B78002B04D101212A4800F065FB06E000234FF6FF720121264800F087FB1B4B1B78002BAF
:405D000004D10121234800F055FB06E000234FF6FF7201211F4800F077FB134B1B78002B04D101211C4800F045FB0EE000234FF6FF720121184800F067FB06E07B680122E9
:405D40001A7102E000BF00E000BF00F099F8034618464037BD4680BD0001003800FEFFC600FEFF465881FF1FC886FF1F5C81FF1F6081FF1F7281FF1F7381FF1F7481FF1FA7
:405D80007681FF1F6E81FF1F6F81FF1F7081FF1F6881FF1F6A81FF1F6C81FF1F80B584B000AF7860154B1B68002B23D07B689B79002B00D01FE07B685A6E7B681A67002375
:405DC000FB600FE00D4B1B6803F22A207B681B6F591C7A6811671B781946FEF715FBFB680133FB607B68B3F862301A46FB689A42E8DC00E000BF1037BD4680BD9C86FF1F31
:405E000080B483B000AF786000BF0C37BD4680BC704700BF80B500AF0A4B1B68002B0ED0084B1B689B68002B09D0064B1B689B68044A1268126810469847034600E0002381
:405E4000184680BD9C86FF1F80B483B000AF7860034A7B68136000BF0C37BD4680BC70476887FF1F80B400AF044B1B680133034A136000BFBD4680BC704700BF6887FF1F87
:405E800080B400AF024B1B681846BD4680BC70476887FF1F80B400AF034B00221A7000BFBD4680BC704700BFC886FF1F80B400AF034B02221A7000BFBD4680BC704700BFBE
:405EC000C886FF1FF0B587B000AFF860B9607A6051E0FB681B687968184607F0EDF803461E46FB681B68012214464FF00001184607F09EFA0346002B01D100231C46E3B291
:405F00001C46FB681B68012215464FF00001184607F070FA0346002B01D100231D46EBB2E31A184607F074F803464FF07C51184607F0C2F803461946304606F0B5FF034600
:405F4000184607F095FA0346FB820F4B1B685A1C0D490A60B7F91620121212B2D2B21A70094B1B685A1C08490A60FA8AD2B21A70FB680433FB60BB685A1EBA60002BA8D1A0
:405F800000BF1C37BD46F0BD6887FF1F80B586B000AFF860B9607A603B60564B1B78012B40F09E804EE0544B1B681B78DBB21B021BB21A46504B1B6801331B78DBB21343E2
:405FC000184607F025F803467B614B4B1B680233494A1360396A786907F06EF803467B61FB681B687969184606F05EFF03461A46FB681A60FB681B687968184607F018FA83
:406000000346002B02D0FB687A681A60FB681B683968184607F0EEF90346002B02D0FB683A681A60FB681B681946184607F00AFA0346002B03D0FB684FF000021A60FB686D
:406040000433FB60BB685A1EBA60002BABD14CE0294B1B681B78DBB21B021BB21A46264B1B6801331B78DBB21343184606F0D0FF03463B61204B1B6802331F4A1360396A5D
:40608000386907F019F803463B61FB683A691A60FB681B687968184607F0CAF90346002B02D0FB687A681A60FB681B683968184607F0A0F90346002B02D0FB683A681A60B4
:4060C000FB681B681946184607F0BCF90346002B03D0FB684FF000021A60FB680433FB60BB685A1EBA60002BB2D100BF1837BD4680BD00BFC886FF1F6887FF1F80B485B0A5
:4061000000AF7860396018E07B681B88FB81104B1B685A1C0E490A60B7F90E20121212B2D2B21A700A4B1B685A1C09490A60FA89D2B21A707B6802337B603B685A1E3A6019
:40614000002BE1D100BF1437BD4680BC704700BF6887FF1F80B586B000AFF860B9607A603B60514B1B78012B40F0948049E04F4B1B681B78DBB21B021AB24C4B1B6801333A
:406180001B78DBB21BB21343FB82484B1B680233464A1360FB68B3F900309AB2FB8A13449BB21AB2FB681A80FB68B3F90030184606F02EFF03467968184607F039F903469A
:4061C000002B06D0786807F053F903461AB2FB681A80FB68B3F90030184606F019FF03463968184607F006F90346002B06D0386807F03EF903461AB2FB681A80FB680233BE
:40620000FB60BB685A1EBA60002BB0D147E0274B1B681B78DBB21B021AB2244B1B6801331B78DBB21BB21343BB82204B1B6802331E4A1360FB68BA8A1A80FB68B3F9003059
:40624000184606F0E5FE03467968184607F0F0F80346002B06D0786807F00AF903461AB2FB681A80FB68B3F90030184606F0D0FE03463968184607F0BDF80346002B06D0AB
:40628000386807F0F5F803461AB2FB681A80FB680233FB60BB685A1EBA60002BB7D100BF1837BD4680BD00BFC886FF1F6887FF1F80B483B000AF786039600AE00A4B1B681E
:4062C0005A1C09490A607A6812781A707B6801337B603B685A1E3A60002BEFD100BF0C37BD4680BC704700BF6887FF1F80B487B000AFF860B96011461A460B46FB711346C8
:40630000BB712A4B1B78012B46D122E0284B1B685A1C27490A601B78DBB2FB74FB681B787B6197F913307A6913447B61FA797B699A4201DAFB797B61BA797B699A4201DD25
:40634000BB797B617B69DAB2FB681A70FB680133FB60BB685A1EBA60002BD7D121E0144B1B685A1C12490A601B78BB74FB68BA7C1A70FB681B78FA799A4202D2FB68FA7944
:406380001A70FB681B78BA799A4202D9FB68BA791A70FB680133FB60BB685A1EBA60002BDDD100BF1C37BD4680BC7047C886FF1F6887FF1F80B483B000AF7860396016E0D5
:4063C000104B1B685A1C0F490A607A681288120A92B2D2B21A700B4B1B685A1C09490A607A681288D2B21A707B6802337B603B685A1E3A60002BE3D100BF0C37BD4680BC40
:40640000704700BF6887FF1F80B487B000AFF860B96011461A460B46FB801346BB80364B1B78012B5ED12DE0344B1B681B78DBB29BB21B029AB2314B1B6801331B78DBB290
:406440009BB21343FB822D4B1B6802332B4A1360FB681A88FB8A13449AB2FB681A80FB681B88FA889A4202D2FB68FA881A80FB681B88BA889A4202D9FB68BA881A80FB6862
:406480000233FB60BB685A1EBA60002BCCD12EE01A4B1B681B78DBB29BB21B029AB2174B1B6801331B78DBB29BB21343BB82134B1B680233114A1360FB68BA8A1A80FB6862
:4064C0001B88FA889A4202D2FB68FA881A80FB681B88BA889A4202D9FB68BA881A80FB680233FB60BB685A1EBA60002BD0D100BF1C37BD4680BC7047C886FF1F6887FF1F15
:4065000080B485B000AF78600B46FB701346BB702D4B1B681B78BB730023FB73BB78013B072B2BD801A252F823F000BF4D65000053650000596500005F65000065650000C5
:406540006B65000071650000776500000123FB7315E00323FB7312E00723FB730FE00F23FB730CE01F23FB7309E03F23FB7306E07F23FB7303E0FF23FB7300E000BFFA7B93
:40658000FB7802FA03F35BB2DB435AB297F90E3013405BB2BB737B681A78FB7B1340DBB21A46FB7802FA03F35AB297F90E3013435BB2BB73044B1B68BA7B1A7000BF14374D
:4065C000BD4680BC704700BF6887FF1F80B485B000AF78600B46FB701346BB700023FB73BB78013B072B2BD801A252F823F000BF11660000176600001D66000023660000B5
:40660000296600002F660000356600003B6600000123FB7315E00323FB7312E00723FB730FE00F23FB730CE01F23FB7309E03F23FB7306E07F23FB7303E0FF23FB7300E028
:4066400000BF174B1B78012B15D1164B1B681B78DBB21A46FB7842FA03F35AB297F90F3013405BB2BB737B681A78BB7B5340DAB27B681A700FE00B4B1B681B78DBB21A4663
:40668000FB7842FA03F35AB297F90F3013405BB2DAB27B681A7000BF1437BD4680BC7047C886FF1F6887FF1F80B582B000AF786074220021786806F058FF7B680022DA6671
:4066C0007B6800229A667B6800221A67002318460837BD4680BD00BF80B584B000AF78607B6803F11C027B681A677B6803F11C027B685A667B6800221A717B685B79002BFD
:406700000AD02F4B1B68002B04D02D4B1B687868984704E001234EE0786800F0F3FA7B681A6F7B68DA667B689B7C002B22D07B6803F11C017B68B3F86230053B1A464FF03D
:40674000FF3000F027FCF8600023BB607B68B3F86230053B18337A681344191D07F108030422184606F0F6FEBB68FA689A4201D0072320E07868FFF743FB7B681B7C032B9E
:4067800016D801A252F823F0A967000099670000A1670000A1670000786800F013F809E0786800F057F805E0786800F0B5F801E0022300E0002318461037BD4680BD00BFD9
:4067C000A486FF1FB0B588B002AF786000237B6136E07B685A7E1E497B6911F833309A4203D07B685B7E002B27D107F10C03184600F00CFC7B689B7C7B737B68DB7C3B73E9
:406800007B689B7DBB730123FB737B681B7E3B747B69DB000E4A98187B68D9687B689C796B4607F11002126815461D800233120C1A70FB68224600F007FC7B6901337B61D3
:406840007B69002BC5DD00BF1837BD46B0BD00BF6087FF1FB0B588B002AF78607B681B7C032B03D17B6805221A7006E07B681B7C022B02D17B6803221A7000237B6141E0DD
:406880007B685A7E23497B6911F833309A4203D07B685B7E002B32D11E4A7B69DB0013445B68786898477B685B78002B27D107F10C03184600F0AAFB7B689B7C7B737B682A
:4068C000DB7C3B737B689B7DBB730123FB737B681B7E3B747B69DB000E4A98187B68D9687B689C796B4607F11002126815461D800233120C1A70FB68224600F0A5FB7B6981
:4069000001337B617B69002BBADD00BF1837BD46B0BD00BF6087FF1F80B584B000AF78607B6801221A700023FB6009E0084AFB68DB0013445B6878689847FB680133FB601D
:40694000FB68002BF2DD00BF1037BD4680BD00BFCC86FF1F80B582B000AF78607B6803F120027B689A667B689A6E7B681A677B685B79002B0AD0094B1B68002B04D0074B48
:406980001B687868984704E0012303E0786800F0F5F8002318460837BD4680BDA086FF1F80B586B000AF78600023FB757B681B79012B01D10823DDE07B681B6F1A467B6817
:4069C0009B6ED31A9AB27B681A817B685B79002B03D17B681B89642B07D97B6803F11C027B685A660123FB7504E07B6803F11D027B685A667B681B6F1A467B685B6ED31A1C
:406A00009AB27B68A3F862207B689B7C002B29D07B68B3F8623003F00303C3F104033B617B681B6F3A690021184606F09EFD7B681A6F3B691A447B681A677B68B3F862207A
:406A40003B699BB213449AB27B68A3F862207B681B6F1A467B689B6ED31A9BB204339AB27B681A817B685B79002B12D07B6851221A777B6842225A777B681B891B0A9BB2D2
:406A8000DAB27B689A777B681B89DAB27B68DA772AE0FB7D002B19D07B6851221A777B6858225A777B681B895BB263F07F035BB2DAB27B689A777B681B89DB099BB2DBB229
:406AC00003F07F03DAB27B68DA770DE07B6851225A777B6858229A777B681B89DBB203F07F03DAB27B68DA777B689B7C002B22D07B68596E7B68B3F862301A464FF0FF30E7
:406B000000F048FA0346BB607B681B6F07F108010422184606F01EFD7B681B6F1A1D7B681A677B681B6F1A467B685B6ED31A9AB27B68A3F862207B689A6E7B681B89194631
:406B4000104600F069F90346FB737B681B6F591C7A681167FA7BD243D2B21A707B68B3F8623001339AB27B68A3F862207868FFF715F9002318461837BD4680BD80B584B0E5
:406B800000AF78607B689A6E7B681A677B6803F170027B68DB681946104600F05BF97B6800225A747B689B7C002B02D07B6801225A740023FB737B681B7C5BB203F00F03DC
:406BC0005AB2FB7BDBB25BB213435BB2DBB2FB737B68DB7C1B015BB203F010035AB2FB7BDBB25BB213435BB2DBB2FB737B68DB7D5B015BB203F020035AB2FB7BDBB25BB262
:406C000013435BB2DBB2FB737B689B7D9B015BB203F040035AB2FB7BDBB25BB213435BB2DBB2FB737B685B7CDB015AB2FB7BDBB25BB213435BB2DBB2FB737B681B6F591CB0
:406C40007A681167FA7BD2B21A707B685B7C002B16D00023FB737B689B7C5BB203F001035AB2FB7BDBB25BB213435BB2DBB2FB737B681B6F591C7A681167FA7BD2B21A70A4
:406C80007B689B7D002B12D17B6803F170027B681B7E1946104600F0DDF87B6803F170027B685B7E1946104600F0D4F805E07B6800221A767B6800225A767B68DB7D002B61
:406CC00012D17B6803F170027B689B7E1946104600F0C0F87B6803F170027B68DB7E1946104600F0B7F805E07B6800229A767B680022DA767B681A6F7B68DA6600BF103752
:406D0000BD4680BD80B584B000AF78607B689A6E7B681A677B687033184600F0DFF802467B68DA607B681B6F591C7A6811671B78FB73FB7BDBB203F00F03DAB27B681A7482
:406D4000FB7BDBB21B09DBB203F00103DAB27B68DA74FB7BDBB25B09DBB203F00103DAB27B68DA75FB7BDBB29B09DBB203F00103DAB27B689A75FB7BDBB2DB09DAB27B6803
:406D80005A747B685B7C002B0DD07B681B6F591C7A6811671B78FB73FB7BDBB203F00103DAB27B689A747B689B7D002B11D17B687033184600F092F80346DAB27B681A76E1
:406DC0007B687033184600F089F80346DAB27B685A767B68DB7D002B11D17B687033184600F07CF80346DAB27B689A767B687033184600F073F80346DAB27B68DA767B6834
:406E0000DB7C002B04D07B681B6F9A1C7B681A6700BF1037BD4680BD80B485B000AF786039600023FB720023FB6009E07B685A1C7A601A78FB7A1344FB72FB680133FB60BF
:406E4000FA683B689A42F1D3FB7A18461437BD4680BC704780B485B000AF786039600023FB6033E0FA681346DB009B1A3A6822FA03F3DBB203F07F03FB72FB685A1C13469F
:406E8000DB009B1A3A6822FA03F3DBB203F07F03BB72BB7A002B0CD07B681B68FA7A62F07F02D2B21A707B681B685A1C7B681A6009E07B681B68FA7A1A707B681B685A1C06
:406EC0007B681A6005E0FB680133FB60FB68032BC8DD00BF1437BD4680BC704780B485B000AF78600023FB600023BB6022E07B681B681B7803F07F01BA681346DB009B1A03
:406F000001FA03F3FA681343FB607B681B681B785BB2002B05DA7B681B685A1C7B681A6005E07B681B685A1C7B681A6005E0BB680133BB60BB68032BD9DDFB68184614377C
:406F4000BD4680BC704700BF80B485B000AF0346FB71FB791B06BB600023FB730EE0BB68002B05DABB685A00094B5340BB6002E0BB685B00BB60FB7B0133FB73FB7B072B79
:406F8000EDD9BB6818461437BD4680BC704700BFB71DC10480B586B000AFF860B9607A60FB683B6100237B6115E03B691B0E5AB2B9687B690B441B785BB253405BB2DBB29F
:406FC0001846FFF7C1FF02463B691B0253403B617B6901337B617A697B689A42E5D33B6918461837BD4680BD80B485B000AFF8600B467A60FB72FB687A685A60FB68FA7A88
:407000001A7000BF1437BD4680BC704780B483B000AF78607B6800229A707B680022DA707B6800229A717B6800221A717B6800225A717B6800221A707B6800225A7000BFED
:407040000C37BD4680BC704782B080B5A2B000AFF860B960C7F894301346FB7107F114031846FFF721FBFB79BB76BB683B62002387F8243097F8983087F82D3097F8993051
:4070800087F82E3097F89A3087F82F30FB681B7887F82C3097F8943087F8273097F8953087F8263007F114031846FFF753FC00233B75FB685B6807F1140210469847034662
:4070C000C7F8843007F114031846FFF769FC034618468837BD46BDE8804002B0704700BF82B080B5A2B000AFF860B960C7F894301346FB7107F114031846FFF7D5FAFB7998
:40710000BB76BB683B62012387F8243097F8983087F82D30002387F82E3097F89A3087F82F30FB681B7887F82C3097F8943087F8273097F8953087F8263007F1140318466D
:40714000FFF708FC07F114031846FFF729FC034618468837BD46BDE8804002B0704700BF82B080B5A2B000AFF860B960C7F894301346FB7107F114031846FFF795FAFB7910
:40718000BB76BB683B62022387F8243097F8983087F82D3097F8993087F82E3097F89A3087F82F30FB681B7887F82C3097F8943087F8273097F8953087F8263007F1140315
:4071C0001846FFF7C7FB02233B75FB685B6807F11402104698470346C7F8843007F114031846FFF7DDFB034618468837BD46BDE8804002B0704700BF90B585B000AF0346DC
:407200000A46FB711346BB71FB79B94A8C2101FB03F313441B78072B00F2578301A252F823F000BF45720000C3720000717300006F74000079750000ED750000C97600000E
