:400000000080002011000000F97C0000F97C000080B500AF024A034B1B68136007F09EFEBC760040FA46004010B5054C237833B9044B13B10448AFF300800123237010BD8A
:400040005082FF1F0000000000020100084B10B51BB108490848AFF300800848036803B910BD074B002BFBD0BDE81040184700BF000000005482FF1F00020100C880FF1FEA
:400080000000000080B582B000AF78600B46FB70FB78184608F08AFB00BF0837BD4680BD80B483B000AF7860034B1B6818460C37BD4680BC704700BFEC85FF1F80B582B0FF
:4000C00000AF114B1B78FB71FB7903F01E03002B04D0FB7919460D4804F0EAF9FB7903F02003002B06D00A4B1B78DBB21946074804F0C0F9FB7903F02003002BE1D100BFEF
:400100000837BD4680BD00BF646400406C82FF1F4D64004080B500AF044B1B680133034A136008F063FC00BF80BD00BFEC85FF1F80B582B000AF104B1B78FB71FB7903F05A
:400140001E03002B03D0FB79184601F0C1FCFB7903F02003002B05D0084B1B78DBB2184601F092FBFB7903F02003002BE3D100BF0837BD4680BD00BF6C64004043640040AA
:4001800080B584B000AFF860B9607A603B604FF00001F8680DF02AFF0346002B01D02D2200E020223B681A704FF00001F8680DF01DFF0346002B03D0FB6883F00043FB6024
:4001C000F8680DF051FF03461AB2BB681A80BB68B3F9003018460DF017FD03461946F8680DF05CFC03460F4918460DF061FD034618460DF039FF03461AB27B681A807B680A
:40020000B3F90030002B08DA7B68B3F900309BB25B429BB21AB27B681A8000BF1037BD4680BD00BF0000C842F0B5EDB008AF07F12C03184600F06EFE07F1D003142200218B
:4002400018460DF08EFF002387F88F311BE097F88F2107F11C03002123F8121097F88F3107F11C025B001344FF229A8097F88F2107F11C030432802123F8121097F88F317A
:40028000013387F88F3197F88F31012BDFD907F11C0300221A7362B609F0ACFA03F052FFA44803F071FF09F0BFF809F043F909F07DF901F013FAA04809F09AF99F4803F0E8
:4002C00063FF01E009F012F909F01EF90346002BF8D108F0C5F908F047FA08F081FA01E008F01EFA08F02AFA0346002BF8D19449944804F091F807F12C03924A1A60924831
:4003000008F090FA914803F03FFF00F0BFFD07F12C03D3F88030184600F042FD0346002B14D18B4803F030FF07F12C03D3F8802007F11C031146184600F006FC07F12C0391
:4003400093F87C30184600F0BBF902E0814803F01BFF00F017F9804803F016FF08F024FB7E4808F071FB7E4803F00EFF07F12C03184600F009FF09F0C1F9034683F00103C5
:40038000DBB2184609F09CF9764B1B68C7F8883103F044FF034687F8873197F88731002B12D000F07FFC0346002B05D097F88731184600F03FFC07E097F8872107F12C0335
:4003C0001146184601F0AEF85E4804F089F807F12C03184602F026FB03F0BCFE07F11803184600F037F90346002B0AD007F11803184600F0FBFB07F12C037433184600F0FF
:400400005BFC07F12C03184602F092FB07F12C03184602F0C7FC07F12C03184602F04AFD07F12C03184600F007FF07F12C03184601F0DAF807F12C035B6ED7F88821D31A51
:40044000632B12D907F12C03D7F888215A6607F1D00207F12C031146184600F05DFF07F1D0031946374804F079F907F12C0393F87030002B3FF47FAF07F12C039B6ED7F8C6
:400480008821D31A41F2873293427FF674AF07F12C03D7F888219A6607F12C03586F07F10F0307F1140207F11601FFF769FE07F12C03986F07F10E0307F1100207F11201F0
:4004C000FFF75EFE07F12C031B79184600F0A4FE024607F10F031B78194607F11603B3F900301C4607F11403B3F900301D4607F10E031B781E4607F11203B3F900307B605A
:4005000007F11003B3F9003007F1E40006937B68059304960395029401910092D7F88831114AA0210EF096FA07F1E403184603F02BFE20E7280301003101000050030100B4
:40054000080201006C82FF1FBD0000006803010084030100AC030100D003010015010000F0030100EC85FF1F1004010080B500AF08F06AF8024B01221A7000BF80BD00BF8E
:40058000F085FF1F80B582B000AF62B607F0B4FD07F0D6FF114808F009F8114B00221A70104B00221A70104B00221A700023FB7107E0FB790D4A002122F81310FB79013357
:4005C000FB71FB79012BF4D9002007F0D3FF07F0ABFD00BF0837BD4680BD00BF6D050000F285FF1FF085FF1FF185FF1FF485FF1F98B500AF07F0A8FD134B1B78DBB21C4660
:4006000007F0B2FD03461A46104B23F814200E4B1B78DBB2012B06D10D4B01221A700A4B00221A7006E0084B1B78DBB20133DAB2054B1A70044B1B78DBB2184607F09AFFEF
:4006400007F072FD00BF98BDF285FF1FF485FF1FF185FF1F80B584B000AF7860154B1B78DBB2002B04D0134B00221A70FFF7C0FF114B1B78DBB2002B17D00F4B00221A707E
:400680000023FB730CE0FB7B5B007A681344FA7B0A4931F8122012B21A80FB7B0133FB73FB7B012BEFD9012300E0002318461037BD4680BDF085FF1FF185FF1FF485FF1FE6
:4006C00080B483B000AF0346FB71FB79012B08D0022B0BD0002B00D00DE0094B094A1A6009E0074B4FF07C521A6004E0044B4FF07E521A6000BF00BF0C37BD4680BC704771
:40070000CC80FF1FCDCCCC3D90B585B000AF0446084611461A462346FB800346BB800B467B8013463B80B7F90620B7F904309A4201DABB88FB80B7F90620B7F900309A42AC
:4007400001DD3B88FB803A887B88D31A9BB2FB817A88BB88D31A9BB2BB81B7F90E30002B01DC0123FB81B7F90C30002B01DC0123BB81B7F90620B7F902309A4214DBB7F90A
:400780000620B7F90230D31A18460DF03DFA0446B7F90E3018460DF037FA0346194620460DF03AFB034613E0B7F90620B7F90230D31A18460DF028FA0446B7F90C301846BC
:4007C0000DF022FA0346194620460DF025FB034618461437BD4690BD90B583B000AF786039603B6883F00043796818460DF0FEFB0346002B09D0396878680DF0F7FB034647
:40080000002B02D04FF000032AE04FF0000178680DF00AFC0346002B11D0396878680DF03DF903461C4639684FF07E500DF036F90346194620460DF0EFFA034610E03968F0
:4008400078680DF02DF903461C4639684FF07E500DF024F90346194620460DF0DDFA034618460C37BD4690BD80B485B000AF78600023FB7338E0FB7B7A685B001344B3F997
:4008800004309AB2F97B7B6833F911309BB2D31A9BB2BB81FA7B7B6833F91220F97B7B68043133F911309A420EDAFA7B7B68043233F91220FB7B79685B000B44B3F90430F1
:4008C0009A4201DA012300E00023FB72B7F90C30132B01DC00230BE0FB7A002B01D1002306E0FB7B0133FB73FB7B012BC3D9012318461437BD4680BC704700BF90B484B0CD
:4009000000AF78601B4A1C4B14460FCB07C423800023FB7323E0FB7BFA7B520079680A44B2F90010134A22F81310FB7BFA7B520079680A44B2F900100E4A5B0013440A46EC
:400940009A80FB7BFA7B520079680A44B2F90010084A043322F81310FB7B0133FB73FB7B012BD8D9054B01221A7000BF1037BD4690BC70471886FF1F0886FF1F2686FF1FCA
:4009800080B485B000AF7860214B1B78012B39D10023FB7332E0FB7B5B007A681344B3F90020FB7B1B4931F913309A4209DAFB7BFA7B520079680A44B2F90010154A22F8F3
:4009C0001310FB7B5B007A681344B3F90020FB7B10495B000B44B3F904309A420BDDFB7BFA7B520079680A44B2F90010094A5B0013440A469A80FB7B0133FB73FB7B012B91
:400A0000C9D900E000BF1437BD4680BC704700BF2686FF1F1886FF1F80B483B000AF0023FB7107E0FB790A4A002142F82310FB790133FB71FB79012BF4D9064B00221A807F
:400A4000054B02221A7000BF0C37BD4680BC70473086FF1F3886FF1F2686FF1F80B485B000AF7860234B1B78022B3DD10023FB7311E0FB7BFA7B204951F82220F97B4900BC
:400A800078680144B1F900100A441B4941F82320FB7B0133FB73FB7B012BEAD9174B1B8801339AB2154B1A80144B1B881F2B1CD90023BB7311E0BA7BBB7B0F4951F823304B
:400AC000002B00DA1F335B1118B20D49131D024621F81320BB7B0133BB73BB7B012BEAD9044B03221A7000E000BF1437BD4680BC704700BF2686FF1F3086FF1F3886FF1F7B
:400B00001886FF1F98B500AF0B48FFF7ADFE0346002B03D10948FFF7F1FE0BE0084A064B14460FCB07C42380054B01221A73054B00221A7098BD00BF1886FF1F2886FF1FC3
:400B40000886FF1F2686FF1F90B484B000AF786039601F4B7A68144620686168A26807C3A2891A801B4B7A68144620686168A26807C3A2891A80174B00221A73164B7A68F7
:400B8000144620686168A26807C3A2891A80134A3B6813600023FB730BE0FB7BF97B7A68043132F911100E4A22F81310FB7B0133FB73FB7B012BF0D90A4B00221A700A4B47
:400BC00000221A8000BF1037BD4690BC704700BFF885FF1F0886FF1F1886FF1F2C86FF1F2886FF1F2686FF1F3886FF1F80B584B000AF78600023FB730CE0FB7BFA7B52007F
:400C000079680A44B2F90010094A22F81310FB7B0133FB73FB7B012BEFD97868FFF7B0FE7868FFF71BFF00BF1037BD4680BD00BF2886FF1F80B582B000AF0346FB71FB7934
:400C4000782B02D0FB79582B03D1144B00221A7020E0FB79632B02D0FB79432B19D10F4B1B78002B03D10E48FFF748FE12E00B4B1B78012B02D1FFF7CFFE0BE0074B1B789E
:400C8000022B07D0054B1B78032B03D1FFF73AFF00E000BF0837BD4680BD00BF2686FF1F2886FF1F80B400AF024B1B781846BD4680BC70472686FF1F90B587B000AF7860C5
:400CC000304B7B613048FFF7CFFD0346002B01D02D4B7B610023FB744CE0FB7C2B4A32F91300FA7C7B6933F91210FA7C7B69043233F91240FB7C7A695B001344B3F9043040
:400D00002246FFF701FDF8602149F868FFF764FDF860204B1A68FB7C22FA03F303F00103002B03D0FB6883F00043FB601A4B1B681946F8680CF0BCFF0346FB604FF07E5197
:400D4000F8680DF071F90346002B02D04FF07E53FB601249F8680DF049F90346002B01D00E4BFB60FA7C7B68F96843F82210FB7C0133FB74FB7C012BAFD900BF1C37BD4687
:400D800090BD00BFF885FF1F0886FF1F2886FF1FCDCC4C3D2C86FF1FCC80FF1F000080BF80B586B000AF786007F108030E221946012000F071F80346002B01D1002310E022
:400DC00007F108031846FFF74FFD0346002B01D1002306E007F1080379681846FFF7B4FE012318461837BD4680BD00BF80B483B000AF0346FB71FB79012B02D0022B02D00B
:400E000003E0002302E0012300E0FF2318460C37BD4680BC704700BF80B485B000AF03460A46FB711346BB71FB799BB21B019AB2BB799BB21344FB81FB8903F1804303F5FC
:400E400000431B78DBB218461437BD4680BC704780B584B000AF03463960FB711346BB71FB799BB21B019BB20233FB81FB8903F1804303F500431946BB791A4638680DF0A4
:400E800065F900BF1037BD4680BD00BF80B500AF07F030FE00BF80BD80B584B000AF03463960FB711346BB713B68002B02D0BB79002B01D1002328E0FB791846FFF796FF86
:400EC0000346FB73FB7BFF2B01D100231DE0FB7B00211846FFF7A0FF0346A52B01D0002313E0FB7B01211846FFF796FF0346BB73BA7BBB799A4201D0002306E0BA79FB7B5F
:400F000039681846FFF7A4FF012318461037BD4680BD00BF80B582B000AF7860A422002178680DF01EF97B68012283F870207B6805221A717B6805225A717B68012283F88C
:400F400060207B68002283F830207B68002283F831207B68002283F840207B68012283F87C207B68064A1A657B680022A3F854207B680022A3F8562000BF0837BD4680BD39
:400F80006F12833A80B485B000AF0346FB710023FB7306E0FB79074AD35CFB71FB7B0133FB73FB79002BF5D1FB7B18461437BD4680BC70474004010080B584B000AF034617
:400FC0000A46FB711346BB71FB791846FFF7DAFF0346FB73BB791846FFF7D4FF0346BB7306E0FB79134AD35CFB71FB7B013BFB73FA7BBB7B9A42F4D806E0BB790D4AD35C21
:40100000BB71BB7B013BBB73BA7BFB7B9A42F4D807E0FB79074AD35CFB71BB79054AD35CBB71FA79BB799A42F3D1FB7918461037BD4680BD4004010080B586B000AF786095
:401040000B46FB7008F098FB0346012B01D1012200E000227B689A717B689B79002B01D0414B00E0414B184603F08EF8FB78404A52F82330002B0DD0FB783D4A52F82330D4
:40108000786898470346002B04D13A4803F07CF80623FB707B681B793B75FA783B7D9A425DD0FA783B7D11461846FFF785FF0346FB743B7DFB750FE0FB7D2F4A52F823309B
:4010C000002B05D0FB7D2C4A52F8233078689847FB7D2A4AD35CFB75FA7DFB7C9A42EBD17B683A7D5A710023BB75FB787B750CE0BB7D5A1CBA7507F1180213447A7D03F856
:401100000C2C7B7D1D4AD35C7B757A7DFB7C9A42EED117E0BB7D07F11802134413F80C3C1A46174B53F82230002B0BD0BB7D07F11802134413F80C3C1A46114B53F8223053
:4011400078689847BB7D5A1EBA75002BE2D17B68FA781A710B4B1A687B68DA6600E000BF1837BD4680BD00BFA8050100BC05010054040100D0050100DC0401004004010066
:4011800098040100EC85FF1F80B584B000AF78607B681B79FB737B6800221A71FB7B19467868FFF749FF00BF1037BD4680BD00BF80B584B000AFF8600B467A60FB72FB7A29
:4011C000002B09D1124802F0DFFF786802F0DCFF104802F0D9FF18E0FB681B7E002B02D0FB7A032B10D1FB68FA7A1A74FB687A685A61FB7A032B02D1FB6801221A760F215B
:40120000F868FFF719FF00E000BF1037BD4680BDF80501000006010080B483B000AF0346FB71FB79034A52F8233018460C37BD4680BC7047BC06010080B582B000AF7860A4
:401240007B681B68002B2DD0184B1A68184B1B68D31A632B06D9154B1B68154A1360786801F0F2FA114B1A68124B1B68D31A41F28732934217D90D4B1B680E4A1360786867
:4012800001F004FB786801F023FB786801F042FB786801F061FB786801F080FB786801F09FFB00E000BF0837BD4680BDEC85FF1F3C86FF1F4086FF1F80B582B000AF7860FE
:4012C00039601422002138680CF04BFF3B6800221A733B6800225A733B6800229A7300BF0837BD4680BD00BF80B582B000AF786039601422002138680CF033FF3B680122F3
:401300001A733B6801225A733B6800229A7300BF0837BD4680BD00BF80B584B000AF786039607B6893F88430002B04D03968786801F098FC12E07B681B791A46094B53F8A6
:401340002230FB60FB68002B04D0FB6839687868984703E039687868FFF7AEFF1037BD4680BD00BF6405010080B584B000AF78600B46FB707B681B68002B05D1164A002150
:401380007868FFF715FF23E007F1080207F10C031946786802F028FD0346002B05D10F4A00217868FFF704FF12E0FA687B689A65FB78002B01D1BB6801E04FF000037A6876
:4013C000D3657B68012283F86020054802F0DCFE1037BD4680BD00BF00070100140701003407010080B582B000AF7860034802F0CBFE00BF0837BD4680BD00BF4C070100B0
:4014000080B582B000AF78600B46FB70FB783F2B39D03F2B02DC122B05D039E05B2B2CD0782B1BD034E07B681B7E002B10D07B6800221A767B6800221A747B6800225A6116
:40144000164802F0A1FE06217868FFF7F5FD03E005217868FFF7F0FD01231AE07B681B68002B04D07B681B68184603F0B5F906217868FFF7E1FD01230BE000217868FFF7F9
:4014800073FF012305E07868FFF7ACFF012300E0002318460837BD4680BD00BFD407010080B483B000AF0346FB71FB79072B0BD0FB79082B08D0FB790A2B05D0FB790B2B9E
:4014C00002D0FB790C2B01D1012300E00023DBB218460C37BD4680BC704700BF80B582B000AF78600B46FB70FB78322B09D0332B0DD0312B11D106217868FFF79DFD01230C
:401500000CE007217868FFF797FD012306E00C217868FFF791FD012300E0002318460837BD4680BD80B584B000AF78600B46FB707B681B79102B01D900233DE07B681B7E9A
:40154000002B0BD0FB78122B06D1FB7819467868FFF756FF03462FE000232DE0FB7819467868FFF74DFF0346002B01D0012323E07B681B791A46124B53F82230FB60FB686A
:40158000002B09D0FA78FB681146786898470346002B01D001230FE07B681B791846FFF77FFF0346002B06D1FB7819467868FFF795FF034600E0002318461037BD4680BDE3
:4015C0002005010080B483B000AF0346FB71FB79063B062B01D8012300E0002318460C37BD4680BC704700BF80B5A8B000AF786007F19003184600F0B9FB0346002B13D0C6
:40160000D7F890207B685A62D7F894207B689A62D7F898207B68DA627B68012283F830207B68012283F8312007F18C03184600F077FB0346002B49D07B681B7E002B06D090
:401640007B681B790121184600F0B6FB3FE097F88C301846FFF7B6FF0346002B14D17B681B790221184600F0A7FB97F88C3007F10C00184A40210DF0EDF907F10C03184622
:4016800002F082FD00BF22E097F88C3087F89F3097F89F301846FFF7BFFD034607F14C000D4A40210DF0D6F907F14C03184602F06BFD97F89F3019467868FFF7BDFC7B68B2
:4016C0001B790021184600F077FB00E000BFA037BD4680BDE80701000808010080B483B000AF194B00221A70184B00221A70184B00221A70174B00221A80174B00221A803E
:40170000164B00221A80164B00221A600023FB710CE0FB79134A002142F82310FB79124A002122F81310FB790133FB71FB79012BEFD90E4B00221A700D4B00221A7000BF43
:401740000C37BD4680BC70474486FF1F4786FF1FA086FF1FB086FF1FB286FF1FB486FF1FB886FF1FA486FF1FAC86FF1FBD86FF1FCC86FF1F80B584B000AF03463960FB71EC
:401780003C4B1B68FB60FB793B4A52F82330002B13D0FB79384A52F82330FA68D31ABB60FB79BA68B2F5803F02D2BA6892B201E04FF6FF72314921F81320FA7913465B0069
:4017C00013449B002E4A13440422396818460CF0BDFCFA7913465B0013449B00284A1344181D3B680433022219460CF0AFFCFA7913465B0013449B00214A1344981D3B6800
:401800000633022219460CF0A1FCFA7913465B0013449B0008331A4A98183B680833022219460CF093FCFA7913465B0013449B000833134A1344981C3B680A3302221946E0
:401840000CF084FCFB79012202FA03F35AB20D4B1B78DBB25BB213435BB2DAB2094B1A70FB790549FA6841F8232000BF1037BD4680BD00BFEC85FF1FA486FF1FAC86FF1F39
:401880008886FF1FA086FF1F80B584B000AF0346FB717E4B1B78042B00F2F38001A252F823F000BFB9180000D5180000E31800001719000041190000FB79AB2B03D1734B1D
:4018C00001221A70DDE0724B1B8801339AB2704B1A80D6E06F4AFB7913706C4B02221A70CFE06D4AFB7913706B4B1B78402B03D9664B00221A70C4E0674B1B78002B03D14C
:40190000624B04221A70BCE0644B00221A705F4B03221A70B5E0614B1B785A1CD1B25F4A117019465E4AFB7953545C4B1A785A4B1B789A42C0F0A480544B04221A709FE0F2
:40194000544B1B781A46574B9B5CFB73524B1A78FB7B5340DBB21A46524B9B5CFB730023BB730CE0BB7B4E4AD25CFB7B5340DBB21A464C4B9B5CFB73BB7B0133BB73464B53
:401980001B78BA7B9A42EDD3FA7BFB799A4263D1454B1B680133444A13603E4B1B78013B0F2B60D801A252F823F000BFED190000FF190000671A0000671A0000671A000058
:4019C000671A0000671A0000671A0000671A0000671A0000671A0000671A0000671A0000671A0000291A0000111A00002A4B1B780C2B3AD12A490020FFF7BCFE35E0264BDD
:401A00001B780C2B33D126490120FFF7B3FE2EE0214B1B78012B2CD1214B1A78234B1A70234B01221A7024E01B4B1B780C2B22D11B4B1B681F4A13601F4B042219461F4818
:401A40000CF084FB1E4B042219461E480CF07EFB1D4B01221A700EE01C4B1B8801339AB21A4B1A8008E000BF06E000BF04E000BF02E000BF00E000BF044B00221A7000E08C
:401A800000BF00BF1037BD4680BD00BF4486FF1FB486FF1F4586FF1F4686FF1F4786FF1F4886FF1F20080100B886FF1FBC86FF1FBD86FF1FC086FF1F4C86FF1FC486FF1F76
:401AC0005086FF1FC886FF1FCC86FF1FB086FF1F80B483B000AF0346FB71074B1B8801339AB2054B1A80054B00221A7000BF0C37BD4680BC704700BFB286FF1F4486FF1FA7
:401B000080B584B000AF03463960FB71FB79012B01D900233BE0FB79012202FA03F3BB730023FB7309F07BFF03467B731A4B1B78DAB2BB7B1340DBB2002B23D0FA793868CA
:401B4000164913465B0013449B00CA18034607CA83E80700BB7BDB43DAB20F4B1B78DBB21340DAB20C4B1A700123FB73FB79002B08D107F0F1FD034683F00103DBB218463E
:401B800007F0CCFD7B7B184609F04DFFFB7B18461037BD4680BD00BFA086FF1F8886FF1F80B584B000AF0346FB71FB79012B17D8FB79012202FA03F3FB7309F030FF03467E
:401BC000BB73FB7BDB43DAB2074B1B78DBB21340DAB2054B1A70BB7B184609F024FF00E000BF1037BD4680BDA086FF1F80B400AF024B1B881846BD4680BC7047B486FF1FD3
:401C000080B400AF024B1B681846BD4680BC7047B886FF1F80B483B000AF0346FB71FB79012B04D8FB79054A32F8133000E0002318460C37BD4680BC704700BFAC86FF1F21
:401C400080B483B000AF0346FB71FB79012B04D8FB79054A52F8233000E0002318460C37BD4680BC704700BFA486FF1F80B400AF024B1B881846BD4680BC7047B086FF1FA1
:401C800080B400AF024B1B881846BD4680BC7047B286FF1F80B584B000AF03463960FB711346BB71AB2007F067FCFB79184607F063FCBB79184607F05FFCFB79174AD35C87
:401CC000FB73FA7BBB795340DBB21A46134B9B5CFB730023BB7314E0BB7B3A6813441B78184607F049FCBB7B3A6813441A78FB7B5340DBB21A46094B9B5CFB73BB7B01330F
:401D0000BB73BA7BBB799A42E6D3FB7B184607F033FC00BF1037BD4680BD00BF2008010080B584B000AF78600023FB7309F077FE0346BB730B4B1B78DBB2002B08D07B688D
:401D4000094A12781A70074B00221A700123FB73BB7B184609F067FEFB7B18461037BD4680BD00BFBD86FF1FBC86FF1F80B584B000AF78600023FB7309F051FE0346BB735F
:401D80000B4B1B78DBB2002B09D07B68094A07CA83E80700064B00221A700123FB73BB7B184609F040FEFB7B18461037BD4680BDCC86FF1FC086FF1F80B584B000AF034646
:401DC0000A46FB711346BB71FB793B73BB797B7307F10C03022219463020FFF75BFF00BF1037BD4680BD00BF80B582B000AF78600E4978680CF00EF90346002B02D047F684
:401E0000FF730EE04FF0474178680CF0F9F80346002B01D0064B04E078680CF025F903461BB218460837BD4680BD00BF00FEFF460080FFFF80B582B000AF78604FF0000199
:401E400078680CF0DDF80346002B01D000230EE04FF09F4178680CF0DDF80346002B02D04FF0FF3303E078680CF024F9034618460837BD4680BD00BF80B582B000AF786025
:401E80004FF0000178680CF0BBF80346002B01D000230EE0094978680CF0BCF80346002B02D04FF6FF7304E078680CF003F903469BB218460837BD4680BD00BF00FF7F476B
:401EC00080B5BEB000AF786039601C22002138680CF047F9504B1A683B681A607B681A793B681A717B681B68002B00F090807B681B680C33C7F8F430D7F8F4301A7B3B68C2
:401F00005A71D7F8F4305A7B3B689A71D7F8F4309A7B3B68DA71D7F8F430DA7B3B681A72D7F8F4301A7C3B685A72D7F8F4301B683A4918460BF0BCFE03461846FFF754FFFF
:401F400003461A463B685A81D7F8F4305B68334918460BF0ADFE03461846FFF745FF03461A463B689A81D7F8F4309B682B4918460BF09EFE03461846FFF736FF03461A46E2
:401F80003B68DA817B681B6807F108021146184602F094FC97F824203B681A7497F825203B685A74BB691E4918460BF081FE03461846FFF719FF03461A463B685A82FB6997
:401FC000174918460BF074FE03461846FFF70CFF03461A463B689A823B6A114918460BF067FE03461846FFF7FFFE03461A463B68DA827B690A4918460BF05AFE0346184618
:40200000FFF7F2FE03461A463B681A8300E000BFF837BD4680BD00BFEC85FF1F0000C84200FEFF4680B582B000AF786039601422002138680CF095F8124B1A683B681A6025
:40204000FFF714FE03461A463B689A80FFF718FE03461A463B68DA80FFF7C8FD03461A463B681A81FFF7CCFD02463B68DA600020FFF7D0FD03461A463B681A8200BF0837F1
:40208000BD4680BDEC85FF1F80B5BEB000AF786039601022002138680CF063F8284B1A683B681A607B681B68002B45D07B681B6807F10C021146184602F000FC3B6921496F
:4020C00018460BF0F5FD03461846FFF7D5FE03461A463B689A807B691A4918460BF0E8FD03461846FFF7C8FE03461A463B68DA80D7F8A030134918460BF0DAFD034618465F
:40210000FFF7BAFE03461A463B681A81D7F8C0300C4918460BF0CCFD03461846FFF764FE03461A463B685A8197F8AC203B681A733B6800225A7300E000BFF837BD4680BD83
:40214000EC85FF1F00007A4480B5BEB000AF786039600C22002138680CF003F8174B1A683B681A607B681B68002B23D07B681B6807F10C021146184602F0A0FBD7F8A8308F
:402180000F4918460BF094FD03461846FFF72CFE03461A463B689A80D7F8B430094918460BF086FD03461846FFF744FE02463B689A6000E000BFF837BD4680BDEC85FF1F6E
:4021C000000020410000C84280B5BEB000AF786039602022002138680BF0C3FF234B1A683B681A607B681B68002B3BD07B681B6807F10C021146184602F060FB97F82A30F1
:40220000002B01D0012200E0002297F82B30002B01D0022300E000231343DAB23B681A7197F8A4203B685A71FA6C3B689A603A6D3B68DA607A6D3B681A61B7F958203B6847
:402240009A82B7F95A203B68DA82B7F85C203B681A83B7F85E203B685A83B7F860203B689A8300E000BFF837BD4680BDEC85FF1F80B5BEB000AF78603960102200213868BF
:402280000BF06FFF1B4B1A683B681A607B681B68002B2AD07B681B6807F10C021146184602F00CFB97F86230002B01D0012200E000223B681A717B6E0F4918460BF0F8FC0D
:4022C000034618460BF0D0FE02463B689A60BB6E0A4918460BF0ECFC03461846FFF784FD03461A463B689A8100E000BFF837BD4680BD00BFEC85FF1F000020410000C84280
:4023000080B5BEB000AF786039601022002138680BF027FF2A4B1A683B681A607B681B68002B49D07B681B6807F10C021146184602F0C4FA97F8C630002B01D0012200E0B3
:4023400000223B681A71D7F8C8301E4918460BF0AFFC03461846FFF747FD03461A463B68DA80D7F8CC30174918460BF0A1FC03461846FFF739FD03461A463B681A81D7F8AA
:40238000D030104918460BF093FC03461846FFF72BFD03461A463B685A81D7F8E8300A4918460BF085FC03461846FFF71DFD03461A463B689A8100E000BFF837BD4680BDB0
:4023C000EC85FF1F00007A440000204180B584B000AF786039603B68FB607B6804221946F8680BF0B3FEFB680433FB60FB685A1CFA607A6812791A70FB685A1CFA607A6800
:4024000052791A70FB685A1CFA607A6892791A70FB685A1CFA607A68D2791A70FB685A1CFA607A68127A1A70FB685A1CFA607A68527A1A707B680A3302221946F8680BF01F
:4024400085FEFB680233FB607B680C3302221946F8680BF07BFEFB680233FB607B680E3302221946F8680BF071FEFB680233FB60FB685A1CFA607A68127C1A70FB685A1C10
:40248000FA607A68527C1A707B68123302221946F8680BF05BFEFB680233FB607B68143302221946F8680BF051FEFB680233FB607B68163302221946F8680BF047FEFB683A
:4024C0000233FB607B68183302221946F8680BF03DFEFB680233FB60FA683B68D31ADBB218461037BD4680BD80B584B000AF786039603B68FB607B6804221946F8680BF064
:4025000025FEFB680433FB607B68043302221946F8680BF01BFEFB680233FB607B68063302221946F8680BF011FEFB680233FB607B68083302221946F8680BF007FEFB681F
:402540000233FB607B680C3304221946F8680BF0FDFDFB680433FB607B68103302221946F8680BF0F3FDFB680233FB60FA683B68D31ADBB218461037BD4680BD80B584B026
:4025800000AF786039603B68FB607B6804221946F8680BF0DBFDFB680433FB607B68043302221946F8680BF0D1FDFB680233FB607B68063302221946F8680BF0C7FDFB6893
:4025C0000233FB607B68083302221946F8680BF0BDFDFB680233FB607B680A3302221946F8680BF0B3FDFB680233FB60FB685A1CFA607A68127B1A70FB685A1CFA607A68C0
:4026000092F90D20D2B21A70FA683B68D31ADBB218461037BD4680BD80B584B000AF786039603B68FB607B6804221946F8680BF08DFDFB680433FB607B680433022219460A
:40264000F8680BF083FDFB680233FB607B68083304221946F8680BF079FDFB680433FB60FA683B68D31ADBB218461037BD4680BD80B584B000AF786039603B68FB607B6855
:4026800004221946F8680BF061FDFB680433FB60FB685A1CFA607A6812791A70FB685A1CFA607A6852791A707B68083304221946F8680BF04BFDFB680433FB607B680C33F6
:4026C00004221946F8680BF041FDFB680433FB607B68103304221946F8680BF037FDFB680433FB607B68143302221946F8680BF02DFDFB680233FB607B68163302221946C4
:40270000F8680BF023FDFB680233FB607B68183302221946F8680BF019FDFB680233FB607B681A3302221946F8680BF00FFDFB680233FB607B681C3302221946F8680BF0F9
:4027400005FDFB680233FB60FA683B68D31ADBB218461037BD4680BD80B584B000AF786039603B68FB607B6804221946F8680BF0EDFCFB680433FB60FB685A1CFA607A68C3
:4027800012791A707B68083304221946F8680BF0DDFCFB680433FB607B680C3302221946F8680BF0D3FCFB680233FB60FA683B68D31ADBB218461037BD4680BD80B584B0A9
:4027C00000AF786039603B68FB607B6804221946F8680BF0BBFCFB680433FB60FB685A1CFA607A6812791A707B68063302221946F8680BF0ABFCFB680233FB607B68083370
:4028000002221946F8680BF0A1FCFB680233FB607B680A3302221946F8680BF097FCFB680233FB607B680C3302221946F8680BF08DFCFB680233FB60FA683B68D31ADBB2AB
:4028400018461037BD4680BD80B592B000AF786007F1280319467868FFF732FB07F10C0207F1280311461846FFF7B0FD034687F8473097F8472007F10C0319462020FFF79E
:4028800009FA00BF4837BD4680BD00BF80B58CB000AF786007F1180319467868FFF7C2FB07F1080207F1180311461846FFF71CFE034687F82F3097F82F2007F1080319469A
:4028C0002320FFF7E7F900BF3037BD4680BD00BF80B58CB000AF786007F11C0319467868FFF7D2FB07F10C0207F11C0311461846FFF744FE034687F82F3097F82F2007F182
:402900000C0319462120FFF7C5F900BF3037BD4680BD00BF80B58AB000AF786007F1180319467868FFF710FC07F10C0207F1180311461846FFF770FE034687F8273097F8E5
:40294000272007F10C0319462220FFF7A3F900BF2837BD4680BD00BF80B592B000AF786007F1240319467868FFF72EFC07F1080207F1240311461846FFF77AFE034687F831
:40298000473097F8472007F1080319462420FFF781F900BF4837BD4680BD00BF80B58AB000AF786007F1140319467868FFF760FC07F1080207F1140311461846FFF7CCFE3B
:4029C000034687F8273097F8272007F1080319462520FFF75FF900BF2837BD4680BD00BF80B58CB000AF786007F11C0319467868FFF786FC07F10C0207F11C031146184638
:402A0000FFF7DCFE034687F82F3097F82F2007F10C0319462620FFF73DF900BF3037BD4680BD00BF80B588B000AF78607B681B68002B53D02D4B1A687B685B6ED31A042B5A
:402A40004ED92A4B1B683B614FF0FF33FB610023BB6100237B6122E025497A6913465B0013449B000B4408331B683A69D31AFB601F497A6913465B0013449B000B44043328
:402A80001A68FB689A4207D8FA68BB699A4203D3FB68BB617B69FB617B6901337B617B69032BD9D9FB69B3F1FF3F1BD07B6818680F49FA6913465B0013449B000B441B88E0
:402AC000194601F0A7FE0A49FA6913465B0013449B000B4408333A691A6004E000BF02E000BF00E000BF2037BD4680BDEC85FF1FD080FF1F80B582B000AF78607B68002274
:402B0000DA60034801F040FB00BF0837BD4680BD2009010080B582B000AF7860034801F033FB00BF0837BD4680BD00BF5C09010080B584B000AF78607B681B79052B2CD12D
:402B40007B689B79002B28D007F1080207F10C031946786801F048F90346002B18D07B68DB68002B03D11B4B1A687B68DA60194B1A687B68DB68D31A41F28732934222D986
:402B8000154801F001FB06217868FEF755FA1AE07B680022DA6000BF15E07B681B79062B14D17B689B79002B10D07B6893F83030002B0AD0094801F0E7FA0A217868FEF70E
:402BC0003BFA00BF01E000BF00E000BF1037BD4680BD00BFEC85FF1F7C090100AC09010080B582B000AF78600B46FB70FB781946786801F01DFA0346002B01D0012300E0E4
:402C0000002318460837BD4680BD00BF80B483B000AF78607B681B79062B0CBF01230023DBB218460C37BD4680BC704780B582B000AF7860034801F0A7FA00BF0837BD463D
:402C400080BD00BFDC09010080B483B000AF78607B68002283F8842000BF0C37BD4680BC704700BF80B582B000AF786039603B6800229A733B684FF000029A603B680022AD
:402C80001A747B6893F88430002B25D03B6802225A733B685A7B3B681A737B68D3F894207B68D3F88C30194610460AF0F7FE0346144918460BF0B0F803461A463B681A602B
:402CC0007B68D3F898300F4918460BF0A5F803461A463B685A6010E03B6801225A733B685A7B3B681A737B685A6F3B681A607B689B6F83F000423B685A6000BF0837BD4616
:402D000080BD00BF0000344380B582B000AF78600B46FB70FB781946786801F089F90346002B01D0012335E0FB78362B23D0362B04DC322B0FD0342B15D02AE0382B02D00C
:402D4000652B20D025E0154A4FF00001786801F075F801231EE0124A4FF00001786801F06DF8012316E04FF000020D49786801F065F801230EE04FF000020849786801F0A9
:402D80005DF8012306E006217868FEF755F9012300E0002318460837BD4680BD6801B43B6801B4BB80B586B000AF78607B6893F88430002B4AD0284B1A687B68D3F8883082
:402DC000D31A3B613B69952B42D90023FB7507F1080207F10C031946786801F005F80346002B27D0FA687B68D3F89430194610460AF054FE034623F00043184918460BF069
:402E0000F5F80346002B13D0BA687B68D3F89830194610460AF042FE034623F000430F4918460BF0E3F80346002B01D0012300E00023FB75FB7D002B03D13B69B3F5FA6F94
:402E400007D37B68002283F8842002E000BF00E000BF1837BD4680BDEC85FF1FCDCC4C3D80B584B000AF786007F1080207F10C031946786800F0B8FF034618461037BD4604
:402E800080BD00BF80B483B000AF78607B6893F8603018460C37BD4680BC704780B483B000AF78607B6893F8303018460C37BD4680BC7047F0B5BBB006AFF860FB681B792C
:402EC000082B67D1FB6893F88430002B62D0BE4B1A68FB68D3F88830D31AC7F8C830D7F8C830952B40F26381002387F8CF3007F1B80207F1BC031946F86800F075FF034640
:402F0000002B2AD0D7F8BC20FB68D3F89430194610460AF0C3FD034623F00043AB4918460BF064F80346002B14D0D7F8B820FB68D3F89830194610460AF0B0FD034623F06B
:402F40000043A24918460BF051F80346002B01D0012300E0002387F8CF3097F8CF30002B05D1D7F8C830B3F5FA6FC0F02081984801F00AF9FB68DB79002B01D0062300E04F
:402F8000092387F8C73097F8C7301946F868FEF753F80CE1FB681B79092B32D107F1AC0319460020FEF7ACFD0346002B11D0B7F9B020FB68A3F85420B7F9B220FB68A3F844
:402FC0005620844801F0E0F80C21F868FEF734F8F6E0FB689B79002B00F0EB807A4B1A68FB689B68D31A42F20F72934240F2E180794801F0C9F80B21F868FEF71DF800BFC6
:40300000D7E0FB681B790A2B18D16F4B1A68734B1B68D31A41F2873293420BD96A4B1B686E4A1360FB6893F83030002B02D0F86800F004FBF86800F075FBC1E0FB681B7960
:403040000C2B7ED1002387F8C630002387F8CE3053E007F1A00297F8CE3011461846FEF74FFD0346002B42D097F8CE30002B0CD1B7F9A420FB68A3F85420B7F9A620FB6868
:40308000A3F85620012387F8C63097F8CE30544A52F82340B7F9A4301D46B7F9A6301E4697F8CE301846FEF7B5FD0346BB60FEF7A7FD7860FEF7DAFD03463B60FEF7E0FDD4
:4030C000034607F1140005933A6804927A680392BB680293019600952346424A80210BF0B9FC07F11403184601F04EF800E000BF97F8CE30013387F8CE3097F8CE30012BD0
:40310000A7D90020FEF79CFDC7F8C000D7F8C030002B50D0FB68DA6ED7F8C0309A424AD2294B1A68D7F8C030D31A41F28732934241D92D4801F028F80D21F868FDF77CFF76
:4031400039E0FB681B790D2B1BD107F1940319460020FEF7D5FC0346002B2ED0B7F99820FB68A3F85420B7F99A20FB68A3F856201E4801F009F80C21F868FDF75DFF00BF29
:403180001BE0FB681B790E2B1AD1FB689B79002B15D0FB6893F83030002B10D0144800F0F3FF0A21F868FDF747FF00BF07E000BF06E000BF04E000BF02E000BF00E000BF29
:4031C000D437BD46F0BD00BFEC85FF1FCDCC4C3D2C0A0100440A01006C0A0100D086FF1F0081FF1F980A0100D40A0100040B0100380B010080B584B000AF7860224800F074
:40320000C3FF7B6893F86030002B09D11F4A00217868FDF7CDFF06217868FDF70DFF2FE007F1080207F10C031946786800F0DCFD0346002B09D1164A00217868FDF7B8FF1E
:4032400006217868FDF7F8FE1AE0FA687B68C3F88C20BA687B68C3F890207B689A6D7B68C3F894207B68DA6D7B68C3F898207B68012283F88420074B1A687B68C3F888204C
:403280001037BD4680BD00BF600B01008C0B0100AC0B0100EC85FF1F80B582B000AF78607B68002283F884200020FEF779FC7B680022DA7100BF0837BD4680BD80B582B0EC
:4032C00000AF78600B46FB70FB78652B05D106217868FDF7B1FE012300E0002318460837BD4680BD80B582B000AF786039603B6800221A743B6800229A733B684FF0000274
:403300009A603B6802225A733B685A7B3B681A737B68D3F894207B68D3F88C30194610460AF0BCFB03460B4918460AF075FD03461A463B681A607B68D3F8983005491846D6
:403340000AF06AFD03461A463B685A6000BF0837BD4680BD0000344380B582B000AF7860054B1A687B689A60044800F00DFF00BF0837BD4680BD00BFEC85FF1FC80B0100EC
:4033800080B582B000AF78600B46FB70FB781946786800F04DFE0346002B01D0012300E0002318460837BD4680BD00BFB0B58AB000AFF860B9607A603B603749F8680AF060
:4033C00077FC03463B62344978680AF071FC0346FB61B96838680AF061FB03462E4918460AF066FC0346BB61B86908F0A1FB0446F86908F061FB0346194620460AF058FC05
:4034000003467B61386A08F057FB0446F86908F08FFB0346194620460AF04AFC03461C46386A08F085FB0546F86908F045FB0346194628460AF03CFC03461D46B86908F04A
:403440003BFB0346194628460AF032FC0346194620460AF023FB03463B613969786908F0F7FB03460D4918460AF022FC03467B624FF00001786A0AF0B9FD0346002B05D00A
:403480000749786A0AF00CFB03467B627B6A18462837BD46B0BD00BF98F98E3CE62E65420000B443B0B58AB000AFF860B9607A603B605049F8680AF0FBFB03463B624D493C
:4034C00038680AF0F5FB0346FB61B968B86B0AF0E5FA0346474918460AF0EAFB0346BB61396AF8690AF0DAFA03467B614FF07C5178690AF0DDFB0346184608F019FB044652
:403500004FF07C5178690AF0D3FB0346184608F00FFB0346194620460AF0CAFB03461C46386A08F0C9FA0546F86908F0C5FA0346194628460AF0BCFB03461D464FF07C5176
:40354000B8690AF0B5FB0346184608F0F1FA0346194628460AF0ACFB03461D464FF07C51B8690AF0A5FB0346184608F0E1FA0346194628460AF09CFB0346194620460AF0A3
:403580008FFA03463B61386908F064FB044639694FF07E500AF082FA0346184608F05AFB03461946204608F053FB0346124918460AF07EFB03467B624FF07E51786A0AF069
:4035C00015FD0346002B02D04FF07E537B627968F86B0AF063FA0346796A184608F038FB0346064918460AF063FB034618462837BD46B0BD98F98E3C706D424BE62E6542F2
:4036000080B483B000AF78607B685A6A7B685A637B689A6A7B689A637B68DA6A7B68DA637B68002283F840207B68002283F8312000BF0C37BD4680BC704700BF80B5C2B038
:4036400002AF78607B681B6807F108021146184601F034F997F8263083F00103DBB2002B54D17B685B6B18460AF0CEFA03462A4918460AF01DFB0346C7F8FC307B689B6B3B
:4036800018460AF0C1FA0346234918460AF010FB0346C7F8F8307B68DB6B18460AF0B4FA03461E4918460AF003FB0346C7F8F430B86AF96AD7F8F830D7F8FC20FFF776FE7D
:4036C0000246BB6B194610460AF0E8F90346144918460AF0A1FB03461A467B68DA61B86AF96A3A6BD7F8F4300193D7F8F8300093D7F8FC30FFF7D6FE0346094918460AF078
:403700008BFB03461A467B681A6200E000BF07F58077BD4680BD00BF95BFD6336F12833A0000344390B58BB000AF7860694B1B683B627B68DB6C3A6AD31A312B40F2C380F1
:4037400007F1080207F10C031946786800F04CFB0346002B00F0B9805F4B7B627B68DB6C002B34D07B68DB6C3A6AD31A18460AF047FA0346594918460AF09AFA0346FB617D
:403780004FF00001F8690AF04FFC0346002B1ED0FA687B685B6C194610460AF07FF9034623F00044BA687B689B6C194610460AF075F9034623F00043194620460AF070F9FE
:4037C0000346F96918460AF027FB03467B62FA687B685A64BA687B689A647B683A6ADA647B68DB693E4918460AF062FA0346BB617B681B6A3A4918460AF05AFA03467B6130
:40380000FB68B96918460AF049F9034623F000434FF07C5118460AF0E9FB0346002B11D0BB68796918460AF039F9034623F000434FF07C5118460AF0D9FB0346002B01D082
:40384000012300E00023FB7401231C464FF07E51786A0AF0CBFB0346002B01D100231C46E3B2BB747B6893F83130002B14D07B6893F84030002B05D1FB7C002B0CD0BB7C7B
:40388000002B09D0174800F07FFC7868FFF7B8FE7868FFF7D3FE19E07B6893F84030002B14D1FB7C002B11D0BB7C002B0ED07B68012283F840200C4800F066FC09217868CC
:4038C000FDF7BAFB02E000BF00E000BF2C37BD4690BD00BFEC85FF1F286B6E4E6F12833A00003443FC0B0100240C010080B582B000AF78607B6893F83030002B07D10B488F
:4039000000F042FC06217868FDF796FB0BE0084800F03AFC7B680022DA647868FFF770FE7868FFF78BFE0837BD4680BD4C0C01007C0C010080B582B000AF78600020FEF722
:403940002FF97B6893F84030002B03D001217868FDF70AFD7B684FF000021A627B681A6A7B68DA6100BF0837BD4680BD80B582B000AF78600B46FB70FB78652B05D1062139
:403980007868FDF759FB012300E0002318460837BD4680BD80B582B000AF786039603B6800221A743B6800229A733B684FF000029A603B6802225A733B685A7B3B681A7315
:4039C0007B68DB691C4918460AF010FB0346002B01D0194B0EE07B68DB694FF07E5118460AF022FB0346002B02D04FF07E5301E07B68DB693A6813607B681B6A0E49184607
:403A00000AF0F4FA0346002B01D00B4B0EE07B681B6A4FF07E5118460AF006FB0346002B02D04FF07E5301E07B681B6A3A68536000BF0837BD4680BD000080BF80B582B06E
:403A400000AF7860034800F09FFB00BF0837BD4680BD00BFB00C010080B582B000AF78607B680022A3F854207B680022A3F85620034800F089FB00BF0837BD4680BD00BF5C
:403A8000DC0C010080B582B000AF78600B46FB70FB78652B05D106217868FDF7CDFA012300E0002318460837BD4680BD80B584B000AF786039603B6800221A743B68002233
:403AC0009A733B684FF000029A603B6801225A733B685A7B3B681A737B68B3F9543018460AF092F80346374918460AF0E1F80346FB607B68B3F9563018460AF085F80346DA
:403B0000304918460AF0D4F80346BB607B681B6DF96818460AF0CCF803462B4918460AF065FA0346002B01D0274B18E07B681B6DF96818460AF0BCF803464FF07E511846EC
:403B40000AF072FA0346002B02D04FF07E5306E07B681B6DF96818460AF0AAF803463A6813607B681B6DB96818460AF0A1F80346154918460AF03AFA0346002B02D04FF04A
:403B80007E5319E07B681B6DB96818460AF090F803464FF07E5118460AF046FA0346002B01D0094B08E07B681B6DB96818460AF07FF8034683F000433A68536000BF1037AA
:403BC000BD4680BDCDCCCC3D000080BF80B582B000AF7860034800F0D7FA00BF0837BD4680BD00BF080D010080B582B000AF78600B46FB70FB781946786800F019FA0346EF
:403C0000002B01D0012309E0FB78332B05D10B217868FDF711FA012300E0002318460837BD4680BD80B582B000AF7860034800F0ABFA00BF0837BD4680BD00BF600D01008C
:403C400080B582B000AF78600B46FB70FB781946786800F0EDF90346002B01D0012309E0FB78332B05D10B217868FDF7E5F9012300E0002318460837BD4680BD80B483B0D0
:403C800000AF0346FB71FB79022B05D0032B05D0012B05D1054B04E0054B02E0054B00E0054B18460C37BD4680BC7047A40D0100AC0D0100B80D0100C00D010080B582B041
:403CC00000AF7860164800F05FFA7B681B7C1846FFF7D4FF0346184600F056FA114800F053FA7B685B69002B02D07B685B6900E00D4B184600F048FA7B681B7C032B07D1E5
:403D00007B681B68002B03D0084800F03DFA02E0074800F039FA00BF0837BD4680BD00BFC80D0100D40D0100D80D0100E40D0100180E010080B584B000AF78600B46FB70F4
:403D40007B681B7C032B13D07B685B790F2B06D07B685B79102B02D07B685B7900E00623FB73FB7B19467868FDF766F9012300E0002318461037BD4680BD00BF80B582B0C5
:403D800000AF7860074800F0FFF97B681B68002B04D07B681B68184600F01EFD00BF0837BD4680BD340E010080B483B000AF78600B46FB70002318460C37BD4680BC70472C
:403DC00080B582B000AF7860396039687868FDF78BFA7B681B7C032B02D13B6801221A7400BF0837BD4680BD80B5C0B000AFF860B9607A60FB681B68002B01D1002318E098
:403E0000FB681B6807F114021146184600F056FD3B7D83F00103DBB2002B01D0002308E007F1100307F114007A68B96800F0B2FD0346184607F58077BD4680BDF0B599B052
:403E400002AFF860B9607A60FB6893F88430002B41D107F1500207F154031946F868FFF7C3FF0346002B05D16B4A0021F868FDF79FF9CDE07B6D184609F090FA05460E4636
:403E80003B6D184609F08AFA03460C4607F11000CDE900342A46334660490AF00DFE07F11003184600F070F95D4800F06DF97A6DFB68C3F88C203A6DFB68C3F890207A6D91
:403EC000FB68C3F894203A6DFB68C3F89820FB68012283F88420FB68D3F89430B968184609F0DEFD03461C46FB689B6D4D49184609F0D4FD0346194620460AF077F80346F5
:403F0000002B08D0FB689B6D4649184609F0C6FD03461A4628E0FB68D3F89430B968184609F0BEFD03461C46FB689B6D3D49184609F0B6FD0346194620460AF075F8034630
:403F4000002B08D0FB689B6D3649184609F0A8FD03461A4608E0FB68D3F89430B968184609F09EFD03461A46FB68C3F89420FB68D3F898307968184609F092FD03461C46DF
:403F8000FB68DB6D2849184609F088FD0346194620460AF02BF80346002B08D0FB68DB6D2149184609F07AFD03461A4628E0FB68D3F898307968184609F072FD03461C46B6
:403FC000FB68DB6D1849184609F06AFD0346194620460AF029F80346002B08D0FB68DB6D1149184609F05CFD03461A4608E0FB68D3F898307968184609F052FD03461A4616
:40400000FB68C3F89820094B1A68FB68C3F888205C37BD46F0BD00BF6C0E01008C0E0100AC0E01000000F0410000A041EC85FF1F80B582B000AF78600B46FB70FB78613BE1
:40404000162B77D801A252F823F000BF1341000035410000354100002341000035410000354100003541000035410000A9400000CD400000BB400000DF40000035410000EF
:40408000354100003541000035410000354100003541000003410000354100003541000035410000F14000004FF07C524FF000017868FFF7C3FE01233DE04FF03F424FF0B7
:4040C00000017868FFF7BAFE012334E04FF000024FF03F417868FFF7B1FE01232BE04FF000024FF07C517868FFF7A8FE012322E04FF07E524FF000017868FFF79FFE012370
:4041000019E00F4A4FF000017868FFF797FE012311E04FF000020A497868FFF78FFE012309E04FF000024FF07E517868FFF786FE012300E0002318460837BD4680BD00BFFD
:40414000000080BF80B500AF0021002005F0D4FB00BF80BD80B500AF05F070FD0346002B0DD005F05FFD0346002B05D005F05EFF044B01221A7002E0024B00221A7000BF02
:4041800080BD00BFD486FF1F80B586B000AF7860204B1B78002B37D07B68002B34D078680AF0AEFCF86000237B6128E000233B6106E03B6901333B613B69174A934225D884
:4041C00005F0D0FF0346002BF3D0FA687B69D31A402B06D8FB689AB27B699BB2D31A9BB200E040237B817A687B6913447A891146184605F06FFF7B897A6913447B617A69BA
:40420000FB689A42D2D302E000BF00E000BF1837BD4680BDD486FF1F400D030080B582B000AF0C4B1B78002B01D100230EE005F087FF0346002B01D1002307E00023FB719B
:40424000FB1D0121184605F09FFFFB7918460837BD4680BDD486FF1F80B483B000AF0346FB80FB880133FB80FB88FF2B01D90023FB80FB8818460C37BD4680BC704700BF40
:4042800080B483B000AF78607B680022A3F800217B680022A3F802217B680022A3F8042100BF0C37BD4680BC704700BF80B584B000AF78600B46FB707B68B3F800319BB258
:4042C0001846FFF7C9FF0346FB817B68B3F802319BB2FA899A420AD17B68B3F804319BB201339AB27B68A3F8042100230CE07B68B3F800319BB219467B68FA785A547B6802
:40430000FA89A3F80021012318461037BD4680BD80B582B000AF786039607B68B3F800319AB27B68B3F802319BB29A4201D1002316E07B68B3F802319BB21A467B689B5C86
:40434000DAB23B681A707B68B3F802319BB21846FFF782FF03461A467B68A3F80221012318460837BD4680BD80B483B000AF78607B681B680F4A13617B685B680D4A936144
:404380007B689B680B4A13627B681A7B094B1A757B685A7B074B1A777B689A7B054B83F824207B681A7C034B1A7300BF0C37BD4680BC70470881FF1F80B582B000AF78606F
:4043C0007A680021002000F0CFFB00BF0837BD4680BD00BF80B584B000AF78600023FB6009E07B685B687A681268F97A10469847FB680133FB607B6803F22A2307F10B02C6
:4044000011461846FFF784FF0346002BE9D1FB6818461037BD4680BD80B582B000AF786039604FF460720021786809F09AFE7B683A6807CA83E807007B68022283F830230D
:404440007B6803F592731846FFF71AFF7B6803F22A231846FFF714FF044A7B681360044B1B68984700BF0837BD4680BDD886FF1F0881FF1F80B582B000AF78600B46FB7003
:404480007B68002B0FD07B6803F59273FA7811461846FFF70BFF7B68B3F828329AB27B68A3F8202100E000BF0837BD4680BD00BF80B483B000AF78600B46FB707B68002B80
:4044C00009D07B6893F82221FB781343DAB27B6883F8222100E000BF0C37BD4680BC704780B58AB000AF78607B68002B00F02F81994BD3F880307B6202E17B68D3F81831AA
:404500005A1C7B68C3F81821FB7A1946002002F0C5FD03463B623B6A002B00D1F0E07B68D3F814315A1C7B68C3F814218A4BFB61FB691B697B83FB699B893B83FB691B6FA8
:404540007B617B6820331846FFF736FF7B69002B00F09F807B8B013B2F2B00F2998001A252F823F05B460000914600003746000025460000914600009146000091460000F6
:40458000914600009146000091460000914600006D4600009146000091460000914600009146000091460000914600009146000091460000914600004946000091460000F7
:4045C000914600009146000091460000914600009146000091460000914600009146000091460000914600009146000091460000914600009146000091460000914600004B
:4046000091460000914600009146000091460000914600009146000091460000914600007F4600007B6803F120023B8B1946786900F0CEFA2DE07B6803F120023B8B19461B
:40464000786900F095FB24E07B6803F120023B8B1946786900F0C8FB1BE07B6803F120023B8B1946786900F061FC12E07B6803F120023B8B1946786900F03CFD09E07B68F6
:4046800003F120023B8B1946786900F0F9FD00E000BF7B68B3F83233002B31D07B68B3F832337A8B9A422BD17B687A8BA3F83A237B683A8BA3F83C237B68012283F838230C
:4046C0003B8B3F2B02D83B8BDBB200E04023FB747B69002B08D07B6803F23E33FA7C7969184609F033FD07E07B6803F23E33FA7C0021184609F035FD7B68FA7C83F87E23D7
:404700007B6803F5927307F10B0211461846FFF7FFFD0346002B7FF4F0AE0F4BD3F88030FB60FA687B6A9A4209D97B68D3F81C21F9687B6ACB1A1A447B68C3F81C217B6801
:40474000B3F828329AB27B68A3F8202100E000BF2837BD4680BD00BF2087FF1FB0B584B000AF786039607B68002B03D07B685B68002B01D1012329E03868FFF7F5FD7B6892
:404780003A6803F10C0415460FCD0FC42B682360104B5B6898477868FFF71CFEF8607B68D3F80C315A1C7B68C3F80C217B68D3F81021FB681A447B68C3F810217B6893F8E5
:4047C0002231002B14BF01230023DBB218461037BD46B0BD0881FF1FB0B588B000AF78607B68002B11D07B6807F10C0403F10C050FCD0FC42B68236001233B7707F10C0333
:4048000019467868FFF7AAFF00E000BF2037BD46B0BD00BF80B588B002AF78600B467B807B68002B03D07B685B68002B01D101233EE007F10C03184602F03AFB7B6893F873
:4048400030333B7479886B4607F110021268104618800233120C1A70FB680022164802F091FB7868FFF7B6FD78617B687A88A3F832237B680022C3F834237B68002283F8F6
:4048800038237B68D3F80C315A1C7B68C3F80C217B68D3F810217B691A447B68C3F810217B6893F82231002B14BF01230023DBB218461837BD4680BD1887FF1F80B582B0DD
:4048C00000AF786039607B68002B0BD03B68002B08D03A687B6810462033EC22194609F035FC00E000BF0837BD4680BD80B483B000AF78607B681B781A067B6801331B78F8
:404900001B041A437B6802331B781B0213437A6803321278134318460C37BD4680BC704780B483B000AF78607B681B781B021AB27B6801331B781BB213431BB218460C37C7
:40494000BD4680BC704700BF80B483B000AF78607B681B781B021AB27B6801331B781BB213431BB29BB218460C37BD4680BC704780B584B000AF786007F10E0302227968B9
:40498000184609F0E3FBB7F90E3018461037BD4680BD00BFB0B58AB000AFF860B9607A603B60FB68002B06D0FB681B7883F00103DBB2002B01D00023CEE0FB68DB683B628E
:4049C000FB681B69FB61FB685B69BB61FB689B697B61BB68002B3FD07969386A09F068F903461C46B969F86909F062F903461946204609F055F803461946184609F050F896
:404A000003461C46B969B86909F052F903461D467969786909F04CF903461946284609F03FF803461946184609F03AF8034619464FF07E5009F032F803461946204607F043
:404A400007F90246464B1B681946104609F030F903461A46BB681A607B68002B38D0B969386A09F025F903461C46F969786909F01FF903461946204609F010F80346194616
:404A8000184609F00DF803467B624FF07E51786A09F0CAFA0346002B03D04FF07E537B6208E03049786A09F0A1FA0346002B01D02C4B7B62786A07F079F80246284B1B689B
:404AC0001946104609F0F4F803461A467B681A603B68002B3FD0F969386A09F0E9F803461C467969B86909F0E3F803461946204608F0D6FF03461946184608F0D1FF0346E7
:404B00001C46F969F86909F0D3F803461D46B969B86909F0CDF803461946284608F0C0FF03461946184608F0BBFF034619464FF07E5008F0B3FF03461946204607F088F876
:404B40000246074B1B681946104609F0B1F803461A463B681A60012318462837BD46B0BDB80E0100000080BF80B485B000AFF8600B467A607B81154B9A6C7B685A60134BAC
:404B8000DA6C7B689A60114B1A6E7B68DA600F4B5A6D7B681A610D4B9A6D7B685A610B4BDA6D7B689A61094B93F850207B681A77064B93F851207B685A777B6801221A7086
:404BC00000BF1437BD4680BC704700BF0881FF1F80B58AB000AFF8600B467A607B817B89152B40F2BB80F868FFF780FE7862FB6804331846FFF77AFE3862FB680833184657
:404C0000FFF774FEF861FB680C331846FFF788FE03467B83FB680E331846FFF781FE03463B83FB6810331846FFF78EFE0346FB82FB6812331846FFF787FE0346BB82FB68BC
:404C400014331846FFF780FE03467B827B687A6A5A647B683A6A1A647B68FA699A647B687A8BA3F84C207B683A8BA3F84E207B68FA8AA3F850207B68BA8AA3F852207B68DE
:404C80007A8AA3F85420786A08F0BEFF03463549184609F0C1F803461A467B685A62386A08F0B2FF03462F49184609F0B5F803461A467B681A62F86908F0A6FF03462A4959
:404CC000184609F0A9F803461A467B689A62B7F91A30184608F098FF03462449184609F09BF803461A467B68DA62B7F91830184608F08AFF03461D49184609F08DF803463A
:404D00001A467B681A63FB8A184608F079FF03461649184609F080F803461A467B685A63BB8A184608F06CFF03461049184609F073F803461A467B689A637B8A184608F052
:404D40005FFF03460949184609F066F803461A467B68DA637B6801229A7700E000BF2837BD4680BD8096184B00007A440000C84280B584B000AFF8600B467A607B817B898B
:404D8000042B28D9FB6801331846FFF7F1FD0346184608F039FF03461149184609F03CF803461A467B689A65FB6803331846FFF7DFFD0346184608F027FF034609491846D3
:404DC00009F02AF803461A467B68DA657B68012283F8562000E000BF1037BD4680BD00BF0000204100007A4480B584B000AFF8600B467A607B817B890E2B40F28E80FB685B
:404E000001331846FFF7B4FD0346184608F0FCFE03464449184608F0FFFF03461A467B689A66FB6803331846FFF7A2FD0346184608F0EAFE03463B49184608F0EDFF03467F
:404E40001A467B68DA66FB6805331846FFF790FD0346184608F0D8FE03463249184608F0DBFF03461A467B681A67FB6807331846FFF77EFD0346184608F0C6FE03462A4932
:404E8000184608F0C9FF03461A467B68C3F88020FB6809331846FFF76BFD0346184608F0B3FE03461F49184608F0B6FF03461A467B685A67FB680B331846FFF759FD0346A5
:404EC000184608F0A1FE03461649184608F0A4FF03461A467B689A67FB680D331846FFF747FD0346184608F08FFE03460D49184608F092FF03461A467B68DA677B684FF0B3
:404F00000002C3F884207B684FF00002C3F888207B68012283F8602000E000BF1037BD4680BD00BF0000C8420000204180B584B000AFF8600B467A607B817B89152B40F22B
:404F4000CF80F868FFF7ECFC0346184608F05CFE03466549184608F05FFF03461A467B68C3F89420FB689A787B6883F89820FB6803331B78184608F043FE03465B4918466C
:404F800008F04AFF03461A467B68C3F89C20FB681A797B6883F8A020FB6805331846FFF7BFFC03461A467B68A3F8A220FB6807331846FFF7B5FC03461A467B68A3F8A42079
:404FC000FB6809331846FFF7ABFC0346184608F01BFE03464649184608F01EFF03461A467B68C3F8A820FB680B331846FFF798FC03461A467B68A3F8AC20FB680D33184688
:40500000FFF78EFC03461A467B68A3F8AE20FB6810331846FFF784FC03461A467B68A3F8B020FB6812331846FFF77AFC0346184608F0EAFD03462C49184608F0EDFE03464A
:405040001A467B68C3F8B420FB6814331846FFF767FC03461A467B68A3F8B8207B68012283F88C207B68B3F9A2309BB203F00103002B14BF01230023DAB27B6883F88D2050
:405080007B68B3F9A2309BB203F00203002B14BF01230023DAB27B6883F88E207B68B3F9A2309BB203F00403002B14BF01230023DAB27B6883F88F207B68B3F9A2309BB239
:4050C00003F00803002B14BF01230023DAB27B6883F890207B6893F890207B68DA7700E000BF1037BD4680BD0000C842000040400000204180B584B000AFF8600B467A60D5
:405100007B817B89122B40F2B080FB6801331846FFF72EFC0346184608F076FD03465549184608F079FE03461A467B68C3F8BC20FB6803331846FFF71BFC0346184608F02F
:4051400063FD03464B49184608F066FE03461A467B68C3F8C020FB6805331846FFF708FC0346184608F050FD03464249184608F053FE03461A467B68C3F8C420FB680733EF
:405180001846FFF7F5FB0346184608F03DFD03463949184608F040FE03461A467B68C3F8C820FB6809331846FFF7E2FB0346184608F02AFD03463049184608F02DFE034622
:4051C0001A467B68C3F8CC20FB680B331846FFF7CFFB0346184608F017FD03462549184608F01AFE03461A467B68C3F8D020FB680D331846FFF7BCFB0346184608F004FDA9
:4052000003461C49184608F007FE03461A467B68C3F8D420FB680F331846FFF7A9FB0346184608F0F1FC03461249184608F0F4FD03461A467B68C3F8D820FB6811331846D2
:40524000FFF796FB0346184608F0DEFC03460B49184608F0E1FD03461A467B68C3F8DC207B68012283F8BA2000E000BF1037BD4680BD00BF00007A440000C84200002041B1
:4052800080B584B000AFF8600B467A607B817B890C2B2CD9FB6808331B78092B0CBF01230023DAB27B6883F8E120FB6809331846FFF736FB0346184608F0A6FC03460E49B0
:4052C000184608F0A9FD03461A467B68C3F8E420FB680B331846FFF723FB03461A467B68A3F8E8207B68012283F8E02000E000BF1037BD4680BD00BF0000204180B500AF7A
:405300001A4A0A211A4801F0C1FD1A4B00221A75184B00221A77174B002283F82420154B002283F82C20134B002283F83420114B002283F83C200F4B002283F841200D4BC1
:40534000002283F840200B4B002283F84220094B002283F84320074B002283F84420054B002283F8452000BF80BD00BFBD5300001887FF1F0881FF1F80B584B002AF3B4618
:40538000184601F095FD02233B7100237B710023BB716B463A1D1268114619800233120C1A703B68002240F21511034801F02AFE00BF0837BD4680BD1887FF1F80B592B09B
:4053C00002AF78607B681B78022B07D0042B02D0012B06D008E000F0AFFC05E000F0ACFC02E000F0B5FC00BF7B68DB6E184600F07DFC7B68DB6840F21512934205D040F217
:405400001F12934200F04A82EAE37B681B78022B40F0EA83B74B1B78002B06D107F130030321184600F096FE06E007F130000023FF22032100F0ACFEAF4B1B7D032B1BD812
:4054400001A252F823F000BF59540000615400006954000071540000002387F83F300FE0012387F83F300BE0022387F83F3007E0032387F83F3003E0002387F83F3000BFCB
:405480009D4B1B7F032B1BD801A252F823F000BFA1540000A9540000B1540000B9540000002387F83E300FE0042387F83E300BE0082387F83E3007E00C2387F83E3003E08A
:4054C000002387F83E3000BF8B4B93F82430032B1AD801A252F823F0E9540000F1540000F954000001550000002387F83D300FE0102387F83D300BE0202387F83D3007E0C5
:40550000302387F83D3003E0002387F83D3000BF97F83F2097F83E301343DAB297F83D301343DBB287F83030734B5B7B002B07D097F8303063F07F03DBB287F8303006E044
:4055400097F8303003F07F03DBB287F830306A4B1B7B002B07D097F8303043F04003DBB287F8303006E097F8303023F04003DBB287F830305F4B1B78002B06D107F130033C
:405580000121184600F0E6FD06E007F130000023FF22012100F0FCFD564B1B78002B05D1564A0121564800F0DFFB07E0554B0093554B524A0121524800F03AFC4D4B1B7879
:4055C000002B05D14D4A0121504800F0CDFB07E04C4B00934C4B494A01214C4800F028FC444B1B78002B05D1444A0121484800F0BBFB07E0434B0093434B404A01214448C5
:4056000000F016FC0023BB833A4B1B78002B06D107F11C030121184600F0C2FC07E007F11C004FF000033B4A012100F0E5FC324B93F82C30012B07D0022B09D0002B0BD17F
:40564000002387F83C300BE0102387F83C3007E0202387F83C3003E0002387F83C3000BF254B93F83430012B07D0022B09D0002B0BD1002387F83B300BE0042387F83B30D6
:4056800007E0082387F83B3003E0002387F83B3000BF194B93F83C30012B07D0022B09D0002B0BD1002387F83A300BE0012387F83A3007E0022387F83A3003E0002387F856
:4056C0003A3000BF97F83C2097F83B301343DAB297F83A301343DBB287F83030054B1B78002B19D107F130030121184600F032FD19E000BF1487FF1F0881FF1F00FEFF46E2
:405700002881FF1F0001003800FEFFC62081FF1F1881FF1F00FF7F4707F130000023FF22012100F035FDAF4B9B6AAF49184608F0BFFA0346AC49184608F0B2F903461846CF
:4057400008F0B8FC03469BB23B81A64B1B6BA649184608F0ADFA0346A349184608F0A0F90346184608F0A6FC03469BB27B819D4B9B6B9D49184608F09BFA03469A49184688
:4057800008F08EF90346184608F094FC03469BB2BB81964B1B78002B06D107F108030321184600F059FD07E007F1080000234FF6FF72032100F07AFD8C4B1B78002B05D172
:4057C000012200218A4800F0EDFD04E001220021874800F04DFE854B1B78002B05D101220121844800F0DEFD04E001220121814800F03EFE7D4B1B78002B05D10122042185
:405800007D4800F0CFFD04E0012204217A4800F02FFE764B1B78002B05D101220521774800F0C0FD04E001220521744800F020FE6E4B1B78002B05D101220621704800F09C
:40584000B1FD04E0012206216D4800F011FE674B1B78002B05D1012207216A4800F0A2FD04E001220721674800F002FE00F04CFA002387F830305D4B1B78002B06D107F18B
:4058800030030121184600F065FCB0E107F130000023FF22012100F07BFCA8E17B681B78012B40F0A381514B1B78002B06D107F130030321184600F04DFC06E007F13000BA
:4058C0000023FF22032100F063FC484B1B78002B06D107F130030221184600F03BFC06E007F130000023FF22022100F051FC97F83030184608F084F903464349184608F057
:40590000D7F903464149184608F0CAF803461A46344B9A6497F83130184608F071F903463949184608F0C4F903463849184608F0B7F803461A462B4BDA642A4B9B6C3349D4
:40594000184608F049FB0346002B03D0254B4FF000029A64234BDB6C2C49184608F03CFB0346002B03D01F4B4FF00002DA641F4B1B78002B04D10121254800F0EBFB05E069
:405980000023FF220121224800F002FC174B1B78002B04D101211F4800F0DCFB05E00023FF2201211B4800F0F3FB104B1B78002B05D10D4A0121184800F0D6F907E0174B88
:4059C0000093174B084A0121134800F031FA074B1B78002B28D1044A0121124800F0C4F92AE000BF0881FF1F00FEFF461487FF1F4881FF1F4981FF1F4A81FF1F4B81FF1F3A
:405A00004C81FF1F4D81FF1FCDCCCC3D000020415881FF1F5981FF1F6881FF1F0001003800FEFFC65C81FF1F744B0093744B754A0121754800F0FCF9744B1B78002B05D1B8
:405A4000704A0121724800F08FF907E06B4B00936B4B6C4A01216E4800F0EAF96B4B1B78002B05D1674A01216A4800F07DF907E0624B0093624B634A0121664800F0D8F98A
:405A8000624B1B78002B06D107F130030221184600F060FB06E007F130000023FF22022100F076FB594B1B78002B05D101220021594800F077FC04E001220021564800F0A1
:405AC000D7FC524B1B78002B05D101220121534800F068FC04E001220121504800F0C8FC4A4B1B78002B05D1012202214C4800F059FC04E001220221494800F0B9FC00F061
:405B000003F9424B1B78002B05D101220021454800F048FC04E001220021424800F0A8FC00F0F2F8394B1B78002B04D101213E4800F010FB05E00023FF2201213A4800F0AC
:405B400027FB324B1B78002B04D10121374800F001FB05E00023FF220121344800F018FB2A4B1B78002B04D10121314800F0F2FA05E00023FF2201212D4800F009FB234BFB
:405B80001B78002B04D101212A4800F065FB06E000234FF6FF720121264800F087FB1B4B1B78002B04D10121234800F055FB06E000234FF6FF7201211F4800F077FB134BDF
:405BC0001B78002B04D101211C4800F045FB0EE000234FF6FF720121184800F067FB06E07B6801221A7102E000BF00E000BF00F099F8034618464037BD4680BD00010038F2
:405C000000FEFFC600FEFF465C81FF1F1487FF1F6081FF1F6481FF1F7681FF1F7781FF1F7881FF1F7A81FF1F7281FF1F7381FF1F7481FF1F6C81FF1F6E81FF1F7081FF1FF0
:405C400080B584B000AF7860154B1B68002B23D07B689B79002B00D01FE07B685A6E7B681A670023FB600FE00D4B1B6803F22A207B681B6F591C7A6811671B781946FEF789
:405C800015FBFB680133FB607B68B3F862301A46FB689A42E8DC00E000BF1037BD4680BDD886FF1F80B483B000AF786000BF0C37BD4680BC704700BF80B500AF0A4B1B685C
:405CC000002B0ED0084B1B689B68002B09D0064B1B689B68044A1268126810469847034600E00023184680BDD886FF1F80B483B000AF7860034A7B68136000BF0C37BD4677
:405D000080BC7047B487FF1F80B400AF044B1B680133034A136000BFBD4680BC704700BFB487FF1F80B400AF024B1B681846BD4680BC7047B487FF1F80B400AF034B0022EE
:405D40001A7000BFBD4680BC704700BF1487FF1F80B400AF034B02221A7000BFBD4680BC704700BF1487FF1FF0B587B000AFF860B9607A6051E0FB681B687968184607F03D
:405D800097FF03461E46FB681B68012214464FF00001184608F048F90346002B01D100231C46E3B21C46FB681B68012215464FF00001184608F01AF90346002B01D100232E
:405DC0001D46EBB2E31A184607F01EFF03464FF07C51184607F06CFF03461946304607F05FFE0346184608F03FF90346FB820F4B1B685A1C0D490A60B7F91620121212B22F
:405E0000D2B21A70094B1B685A1C08490A60FA8AD2B21A70FB680433FB60BB685A1EBA60002BA8D100BF1C37BD46F0BDB487FF1F80B586B000AFF860B9607A603B60564BB0
:405E40001B78012B40F09E804EE0544B1B681B78DBB21B021BB21A46504B1B6801331B78DBB21343184607F0CFFE03467B614B4B1B680233494A1360396A786907F018FF66
:405E800003467B61FB681B687969184607F008FE03461A46FB681A60FB681B687968184608F0C2F80346002B02D0FB687A681A60FB681B683968184608F098F80346002B57
:405EC00002D0FB683A681A60FB681B681946184608F0B4F80346002B03D0FB684FF000021A60FB680433FB60BB685A1EBA60002BABD14CE0294B1B681B78DBB21B021BB227
:405F00001A46264B1B6801331B78DBB21343184607F07AFE03463B61204B1B6802331F4A1360396A386907F0C3FE03463B61FB683A691A60FB681B687968184608F074F8C8
:405F40000346002B02D0FB687A681A60FB681B683968184608F04AF80346002B02D0FB683A681A60FB681B681946184608F066F80346002B03D0FB684FF000021A60FB6877
:405F80000433FB60BB685A1EBA60002BB2D100BF1837BD4680BD00BF1487FF1FB487FF1F80B485B000AF7860396018E07B681B88FB81104B1B685A1C0E490A60B7F90E2057
:405FC000121212B2D2B21A700A4B1B685A1C09490A60FA89D2B21A707B6802337B603B685A1E3A60002BE1D100BF1437BD4680BC704700BFB487FF1F80B586B000AFF86001
:40600000B9607A603B60514B1B78012B40F0948049E04F4B1B681B78DBB21B021AB24C4B1B6801331B78DBB21BB21343FB82484B1B680233464A1360FB68B3F900309AB2FD
:40604000FB8A13449BB21AB2FB681A80FB68B3F90030184607F0D8FD03467968184607F0E3FF0346002B06D0786807F0FDFF03461AB2FB681A80FB68B3F90030184607F0A1
:40608000C3FD03463968184607F0B0FF0346002B06D0386807F0E8FF03461AB2FB681A80FB680233FB60BB685A1EBA60002BB0D147E0274B1B681B78DBB21B021AB2244B70
:4060C0001B6801331B78DBB21BB21343BB82204B1B6802331E4A1360FB68BA8A1A80FB68B3F90030184607F08FFD03467968184607F09AFF0346002B06D0786807F0B4FF1E
:4061000003461AB2FB681A80FB68B3F90030184607F07AFD03463968184607F067FF0346002B06D0386807F09FFF03461AB2FB681A80FB680233FB60BB685A1EBA60002B39
:40614000B7D100BF1837BD4680BD00BF1487FF1FB487FF1F80B483B000AF786039600AE00A4B1B685A1C09490A607A6812781A707B6801337B603B685A1E3A60002BEFD175
:4061800000BF0C37BD4680BC704700BFB487FF1F80B487B000AFF860B96011461A460B46FB711346BB712A4B1B78012B46D122E0284B1B685A1C27490A601B78DBB2FB7429
:4061C000FB681B787B6197F913307A6913447B61FA797B699A4201DAFB797B61BA797B699A4201DDBB797B617B69DAB2FB681A70FB680133FB60BB685A1EBA60002BD7D1CE
:4062000021E0144B1B685A1C12490A601B78BB74FB68BA7C1A70FB681B78FA799A4202D2FB68FA791A70FB681B78BA799A4202D9FB68BA791A70FB680133FB60BB685A1E55
:40624000BA60002BDDD100BF1C37BD4680BC70471487FF1FB487FF1F80B483B000AF7860396016E0104B1B685A1C0F490A607A681288120A92B2D2B21A700B4B1B685A1C45
:4062800009490A607A681288D2B21A707B6802337B603B685A1E3A60002BE3D100BF0C37BD4680BC704700BFB487FF1F80B487B000AFF860B96011461A460B46FB8013469A
:4062C000BB80364B1B78012B5ED12DE0344B1B681B78DBB29BB21B029AB2314B1B6801331B78DBB29BB21343FB822D4B1B6802332B4A1360FB681A88FB8A13449AB2FB68F4
:406300001A80FB681B88FA889A4202D2FB68FA881A80FB681B88BA889A4202D9FB68BA881A80FB680233FB60BB685A1EBA60002BCCD12EE01A4B1B681B78DBB29BB21B02DE
:406340009AB2174B1B6801331B78DBB29BB21343BB82134B1B680233114A1360FB68BA8A1A80FB681B88FA889A4202D2FB68FA881A80FB681B88BA889A4202D9FB68BA8838
:406380001A80FB680233FB60BB685A1EBA60002BD0D100BF1C37BD4680BC70471487FF1FB487FF1F80B485B000AF78600B46FB701346BB702D4B1B681B78BB730023FB7338
:4063C000BB78013B072B2BD801A252F823F000BFF1630000F7630000FD63000003640000096400000F640000156400001B6400000123FB7315E00323FB7312E00723FB7348
:406400000FE00F23FB730CE01F23FB7309E03F23FB7306E07F23FB7303E0FF23FB7300E000BFFA7BFB7802FA03F35BB2DB435AB297F90E3013405BB2BB737B681A78FB7B18
:406440001340DBB21A46FB7802FA03F35AB297F90E3013435BB2BB73044B1B68BA7B1A7000BF1437BD4680BC704700BFB487FF1F80B485B000AF78600B46FB701346BB7033
:406480000023FB73BB78013B072B2BD801A252F823F000BFB5640000BB640000C1640000C7640000CD640000D3640000D9640000DF6400000123FB7315E00323FB7312E06B
:4064C0000723FB730FE00F23FB730CE01F23FB7309E03F23FB7306E07F23FB7303E0FF23FB7300E000BF174B1B78012B15D1164B1B681B78DBB21A46FB7842FA03F35AB2FC
:4065000097F90F3013405BB2BB737B681A78BB7B5340DAB27B681A700FE00B4B1B681B78DBB21A46FB7842FA03F35AB297F90F3013405BB2DAB27B681A7000BF1437BD4699
:4065400080BC70471487FF1FB487FF1F80B582B000AF786074220021786807F002FE7B680022DA667B6800229A667B6800221A67002318460837BD4680BD00BF80B584B0A2
:4065800000AF78607B6803F11C027B681A677B6803F11C027B685A667B6800221A717B685B79002B0AD02F4B1B68002B04D02D4B1B687868984704E001234EE0786800F05B
:4065C000F3FA7B681A6F7B68DA667B689B7C002B22D07B6803F11C017B68B3F86230053B1A464FF0FF3000F027FCF8600023BB607B68B3F86230053B18337A681344191D23
:4066000007F108030422184607F0A0FDBB68FA689A4201D0072320E07868FFF743FB7B681B7C032B16D801A252F823F04D6600003D6600004566000045660000786800F0BD
:4066400013F809E0786800F057F805E0786800F0B5F801E0022300E0002318461037BD4680BD00BFE086FF1FB0B588B002AF786000237B6136E07B685A7E1E497B6911F82A
:4066800033309A4203D07B685B7E002B27D107F10C03184600F00CFC7B689B7C7B737B68DB7C3B737B689B7DBB730123FB737B681B7E3B747B69DB000E4A98187B68D968EB
:4066C0007B689C796B4607F11002126815461D800233120C1A70FB68224600F007FC7B6901337B617B69002BC5DD00BF1837BD46B0BD00BFAC87FF1FB0B588B002AF786081
:406700007B681B7C032B03D17B6805221A7006E07B681B7C022B02D17B6803221A7000237B6141E07B685A7E23497B6911F833309A4203D07B685B7E002B32D11E4A7B69DB
:40674000DB0013445B68786898477B685B78002B27D107F10C03184600F0AAFB7B689B7C7B737B68DB7C3B737B689B7DBB730123FB737B681B7E3B747B69DB000E4A981815
:406780007B68D9687B689C796B4607F11002126815461D800233120C1A70FB68224600F0A5FB7B6901337B617B69002BBADD00BF1837BD46B0BD00BFAC87FF1F80B584B0C7
:4067C00000AF78607B6801221A700023FB6009E0084AFB68DB0013445B6878689847FB680133FB60FB68002BF2DD00BF1037BD4680BD00BF1887FF1F80B582B000AF7860B3
:406800007B6803F120027B689A667B689A6E7B681A677B685B79002B0AD0094B1B68002B04D0074B1B687868984704E0012303E0786800F0F5F8002318460837BD4680BD5F
:40684000DC86FF1F80B586B000AF78600023FB757B681B79012B01D10823DDE07B681B6F1A467B689B6ED31A9AB27B681A817B685B79002B03D17B681B89642B07D97B68B7
:4068800003F11C027B685A660123FB7504E07B6803F11D027B685A667B681B6F1A467B685B6ED31A9AB27B68A3F862207B689B7C002B29D07B68B3F8623003F00303C3F175
:4068C00004033B617B681B6F3A690021184607F048FC7B681A6F3B691A447B681A677B68B3F862203B699BB213449AB27B68A3F862207B681B6F1A467B689B6ED31A9BB2C2
:4069000004339AB27B681A817B685B79002B12D07B6851221A777B6842225A777B681B891B0A9BB2DAB27B689A777B681B89DAB27B68DA772AE0FB7D002B19D07B685122E7
:406940001A777B6858225A777B681B895BB263F07F035BB2DAB27B689A777B681B89DB099BB2DBB203F07F03DAB27B68DA770DE07B6851225A777B6858229A777B681B89DF
:40698000DBB203F07F03DAB27B68DA777B689B7C002B22D07B68596E7B68B3F862301A464FF0FF3000F048FA0346BB607B681B6F07F108010422184607F0C8FB7B681B6FB7
:4069C0001A1D7B681A677B681B6F1A467B685B6ED31A9AB27B68A3F862207B689A6E7B681B891946104600F069F90346FB737B681B6F591C7A681167FA7BD243D2B21A7046
:406A00007B68B3F8623001339AB27B68A3F862207868FFF715F9002318461837BD4680BD80B584B000AF78607B689A6E7B681A677B6803F170027B68DB681946104600F06F
:406A40005BF97B6800225A747B689B7C002B02D07B6801225A740023FB737B681B7C5BB203F00F035AB2FB7BDBB25BB213435BB2DBB2FB737B68DB7C1B015BB203F0100324
:406A80005AB2FB7BDBB25BB213435BB2DBB2FB737B68DB7D5B015BB203F020035AB2FB7BDBB25BB213435BB2DBB2FB737B689B7D9B015BB203F040035AB2FB7BDBB25BB232
:406AC00013435BB2DBB2FB737B685B7CDB015AB2FB7BDBB25BB213435BB2DBB2FB737B681B6F591C7A681167FA7BD2B21A707B685B7C002B16D00023FB737B689B7C5BB206
:406B000003F001035AB2FB7BDBB25BB213435BB2DBB2FB737B681B6F591C7A681167FA7BD2B21A707B689B7D002B12D17B6803F170027B681B7E1946104600F0DDF87B68FA
:406B400003F170027B685B7E1946104600F0D4F805E07B6800221A767B6800225A767B68DB7D002B12D17B6803F170027B689B7E1946104600F0C0F87B6803F170027B681C
:406B8000DB7E1946104600F0B7F805E07B6800229A767B680022DA767B681A6F7B68DA6600BF1037BD4680BD80B584B000AF78607B689A6E7B681A677B687033184600F0F1
:406BC000DFF802467B68DA607B681B6F591C7A6811671B78FB73FB7BDBB203F00F03DAB27B681A74FB7BDBB21B09DBB203F00103DAB27B68DA74FB7BDBB25B09DBB203F0C8
:406C00000103DAB27B68DA75FB7BDBB29B09DBB203F00103DAB27B689A75FB7BDBB2DB09DAB27B685A747B685B7C002B0DD07B681B6F591C7A6811671B78FB73FB7BDBB2C3
:406C400003F00103DAB27B689A747B689B7D002B11D17B687033184600F092F80346DAB27B681A767B687033184600F089F80346DAB27B685A767B68DB7D002B11D17B68EA
:406C80007033184600F07CF80346DAB27B689A767B687033184600F073F80346DAB27B68DA767B68DB7C002B04D07B681B6F9A1C7B681A6700BF1037BD4680BD80B485B0F1
:406CC00000AF786039600023FB720023FB6009E07B685A1C7A601A78FB7A1344FB72FB680133FB60FA683B689A42F1D3FB7A18461437BD4680BC704780B485B000AF7860E4
:406D000039600023FB6033E0FA681346DB009B1A3A6822FA03F3DBB203F07F03FB72FB685A1C1346DB009B1A3A6822FA03F3DBB203F07F03BB72BB7A002B0CD07B681B6874
:406D4000FA7A62F07F02D2B21A707B681B685A1C7B681A6009E07B681B68FA7A1A707B681B685A1C7B681A6005E0FB680133FB60FB68032BC8DD00BF1437BD4680BC7047F2
:406D800080B485B000AF78600023FB600023BB6022E07B681B681B7803F07F01BA681346DB009B1A01FA03F3FA681343FB607B681B681B785BB2002B05DA7B681B685A1CBE
:406DC0007B681A6005E07B681B685A1C7B681A6005E0BB680133BB60BB68032BD9DDFB6818461437BD4680BC704700BF80B485B000AF0346FB71FB791B06BB600023FB73EB
:406E00000EE0BB68002B05DABB685A00094B5340BB6002E0BB685B00BB60FB7B0133FB73FB7B072BEDD9BB6818461437BD4680BC704700BFB71DC10480B586B000AFF8602B
:406E4000B9607A60FB683B6100237B6115E03B691B0E5AB2B9687B690B441B785BB253405BB2DBB21846FFF7C1FF02463B691B0253403B617B6901337B617A697B689A4250
:406E8000E5D33B6918461837BD4680BD80B485B000AFF8600B467A60FB72FB687A685A60FB68FA7A1A7000BF1437BD4680BC704780B483B000AF78607B6800229A707B6841
:406EC0000022DA707B6800229A717B6800221A717B6800225A717B6800221A707B6800225A7000BF0C37BD4680BC704782B080B5A2B000AFF860B960C7F894301346FB713F
:406F000007F114031846FFF721FBFB79BB76BB683B62002387F8243097F8983087F82D3097F8993087F82E3097F89A3087F82F30FB681B7887F82C3097F8943087F82730DE
:406F400097F8953087F8263007F114031846FFF753FC00233B75FB685B6807F11402104698470346C7F8843007F114031846FFF769FC034618468837BD46BDE8804002B0F6
:406F8000704700BF82B080B5A2B000AFF860B960C7F894301346FB7107F114031846FFF7D5FAFB79BB76BB683B62012387F8243097F8983087F82D30002387F82E3097F8EA
:406FC0009A3087F82F30FB681B7887F82C3097F8943087F8273097F8953087F8263007F114031846FFF708FC07F114031846FFF729FC034618468837BD46BDE8804002B057
:40700000704700BF82B080B5A2B000AFF860B960C7F894301346FB7107F114031846FFF795FAFB79BB76BB683B62022387F8243097F8983087F82D3097F8993087F82E3002
:4070400097F89A3087F82F30FB681B7887F82C3097F8943087F8273097F8953087F8263007F114031846FFF7C7FB02233B75FB685B6807F11402104698470346C7F8843097
:4070800007F114031846FFF7DDFB034618468837BD46BDE8804002B0704700BF90B585B000AF03460A46FB711346BB71FB79B94A8C2101FB03F313441B78072B00F25783EE
:4070C00001A252F823F000BFE97000006771000015720000137300001D740000917400006D75000045760000BB79512B2AD1FB79A84A8C2101FB03F31344023301221A8067
:40710000FB79A44A8C2101FB03F313442033BA791A70FB79FA798C2101FB02F219329D490A4408329B498C2000FB03F30B4474331A60FB79974A8C2101FB03F3134401224B
:407140001A7014E3FB7993498C2202FB03F20A448432126801328F498C2000FB03F30B4484331A6003E3FA798A498C2303FB02F30B4474331B68591C86488C2404FB02F2CB
:40718000024474321160BA791A70FB7981498C2202FB03F20A4402321288013290B27D4A8C2101FB03F31344023302461A80BB79582B11D1FB79774A8C2101FB03F31344AE
:4071C000093300221A70FB79724A8C2101FB03F3134402221A70CAE2BB79422B11D1FB796C4A8C2101FB03F31344093301221A70FB79684A8C2101FB03F3134404221A70CF
:40720000B5E2FB79634A8C2101FB03F3134400221A70ACE2FA795F498C2303FB02F30B4474331B68591C5B488C2404FB02F2024474321160BA791A70FB7956498C2202FB9D
