:400000000080002011000000456D0000456D000080B500AF024A034B1B68136006F0C4FEBC760040FA46004010B5054C237833B9044B13B10448AFF300800123237010BDEB
:400040000082FF1F0000000048C00000084B10B51BB108490848AFF300800848036803B910BD074B002BFBD0BDE81040184700BF000000000482FF1F48C00000C880FF1F80
:400080000000000080B582B000AF78600B46FB70FB78184607F06AFC00BF0837BD4680BD80B483B000AF7860034B1B6818460C37BD4680BC704700BF9C85FF1F80B582B06F
:4000C00000AF114B1B78FB71FB7903F01E03002B04D0FB7919460D4803F0FAFAFB7903F02003002B06D00A4B1B78DBB21946074803F0D0FAFB7903F02003002BE1D100BFCF
:400100000837BD4680BD00BF696400401C82FF1F4964004080B500AF044B1B680133034A136007F043FD00BF80BD00BF9C85FF1F80B584B000AFF860B9607A603B604FF0B3
:400140000001F86809F0A8FE0346002B01D02D2200E020223B681A704FF00001F86809F09BFE0346002B03D0FB6883F00043FB60F86809F0CFFE03461AB2BB681A80BB6894
:40018000B3F90030184609F095FC03461946F86809F0DAFB03460F49184609F0DFFC0346184609F0B7FE03461AB27B681A807B68B3F90030002B08DA7B68B3F900309BB213
:4001C0005B429BB21AB27B681A8000BF1037BD4680BD00BF0000C84290B591B000AFF860B9607A603B60FB68DB68FB63FB681B69BB63FB685B697B63FB689B693B63B96B6B
:40020000F86B09F0ABFC03461C46396B786B09F0A5FC03461946204609F098FB03461946184609F093FB0346FB62B96BB86B09F095FC03461C46796B786B09F08FFC034612
:400240001946204609F082FB03461946184609F07DFB034619464FF07E5009F075FB0346BB62B96AF86A08F037FB03464549184609F074FC03467B62796BF86B09F06EFC2B
:4002800003461C46B96B386B09F068FC03461946204609F059FB03461946184609F056FB03463B624FF07E51386A09F009FE0346002B01D0344B11E03449386A09F0F6FD6E
:4002C0000346002B01D0324B08E0386A08F0B2FA03462C49184609F041FC0346FB61396BF86B09F03BFC03461C46796BB86B09F035FC03461946204609F028FB0346194632
:40030000184609F023FB0346BB61796B786B09F025FC03461C46396B386B09F01FFC03461946204609F012FB03461946184609F00DFB034619464FF07E5009F005FB0346EA
:400340007B617969B86908F0C7FA03460D49184609F004FC03463B61BB683A6879683869FFF7E6FE3B6DBA6D796DF869FFF7E0FEFB6D7A6E396E786AFFF7DAFE00BF44371E
:40038000BD4690BDE62E65420000B442000080BF0000B4C290B5C5B000AF3B1D18603B46196007F108031946574803F097FB07F108031B7883F00103DBB2002B01D0002315
:4003C0009DE007F10803DB68C7F80C3107F108031B69C7F8083107F108035B69C7F8043107F108039B69C7F80031D7F80411D7F80C0109F0B3FB03461C46D7F80811D7F844
:40040000000109F0ABFB03461946204609F09CFA03461946184609F099FA0346C7F8FC304FF07E51D7F8FC0009F04AFD0346002B01D0364B13E03649D7F8FC0009F036FD71
:400440000346002B01D0334B09E0D7F8FC0008F0F1F903463049184609F080FB03463A4612681360D7F80011D7F80C0109F076FB03461C46D7F80411D7F8080109F06EFBEA
:4004800003461946204609F061FA03461946184609F05CFA0346C7F8F830D7F80411D7F8040109F05BFB03461C46D7F80011D7F8000109F053FB03461946204609F046FA65
:4004C00003461946184609F041FA034619464FF07E5009F039FA0346C7F8F430D7F8F410D7F8F80008F0F8F903460B49184609F035FB03461A463B1D1B681A60012318468E
:4005000007F58A77BD4690BD1C82FF1F0000B442000080BF0000B4C2E62E654280B483B000AF0346FB71FB79012B02D0022B02D003E0054B02E0054B00E0054B18460C37DA
:40054000BD4680BC704700BF5CC0000064C000006CC0000080B5ACB000AF78600B46FB70002387F8AF3055E007F10803C7F8A83097F8AF301A462C49D7F8A8000AF0C0F9C9
:4005800003461A46D7F8A8301344C7F8A830002387F8AE301AE097F8AF2097F8AE3013441A467B6813441B781A462049D7F8A8000AF0A6F903461A46D7F8A8301344C7F8F5
:4005C000A83097F8AE30013387F8AE3097F8AE30072B07D897F8AF2097F8AE301A44FB789A42D8DBD7F8A830114A1188927819809A7002231A46D7F8A8301344C7F8A8301A
:4006000007F10803184607F07DF897F8AF30083387F8AF3097F8AF20FB789A42A4D300BFB037BD4680BD00BF74C0000080C0000088C0000090B5B5B002AFF8600B467A6083
:40064000FB72FB7A07F120007A6862490AF058F907F12003184607F055F8FB7A1946F868FFF778FFFB7A052B03D85B4807F04AF8ADE0FB7A022B0AD9FB68591C07F11803F1
:400680000222184609F0B8FCB7F9183000E00023A7F8C630FB7A042B0AD9FB68D91C07F116030222184609F0A7FCB7F9163000E00023A7F8C430FB7A062B0AD9FB68591D7F
:4006C00007F114030222184609F096FCB7F9143000E00023A7F8C230B7F9C630184609F0E9F903463D49184609F0ECFA0346184607F11F0307F11A0207F11C01FFF718FD76
:40070000B7F9C620FB7F1C46B7F91C30B7F91A1007F1200001910093234631490AF0F0F807F12003184606F0EDFFB7F9C430184609F0C0F903462949184609F0C3FA034648
:40074000184607F11F0307F11A0207F11C01FFF7EFFCB7F9C420FB7F1C46B7F91C30B7F91A1007F120000191009323461D490AF0C7F807F12003184606F0C4FFB7F9C23018
:40078000184609F097F903461449184609F09AFA0346184607F11F0307F11A0207F11C01FFF7C6FCB7F9C220FB7F1C46B7F91C30B7F91A1007F120000191009323460A49E2
:4007C0000AF09EF807F12003184606F09BFFCC37BD4690BD8CC00000B4C000000000C842C0C00000E8C0000010C10000B0B5B4B004AFF8600B467A60FB72FB7A07F114005D
:400800007A684D490AF07CF807F11403184606F079FFFB7A1946F868FFF79CFEFB7A0B2B03D8464806F06EFF83E0FB7A032B11D9FB681B781A06FB6801331B781B041A4310
:40084000FB6802331B781B021343FA6803321278134300E00023C7F8BC30FB7A072B12D9FB6804331B781A06FB6805331B781B041A43FB6806331B781B021343FA680732EF
:400880001278134300E00023C7F8B830FB7A0B2B12D9FB6808331B781A06FB6809331B781B041A43FB680A331B781B021343FA680B321278134300E00023C7F8B430D7F87F
:4008C000B8301F4A82FB03129215DB17D51AD7F8B8301B4A82FB03129115DA17891A194A02FB01F2991AD7F8BC30154A82FB03029215DB17D01AD7F8BC20114B83FB0243B6
:400900009C15D317E31A0F4C04FB03F3D31A07F11404D7F8B4200292019300900B462A460949204609F0ECFF07F11403184606F0E9FEC037BD46B0BD38C10000B4C00000FC
:400940006BCA5F6B8096980060C1000080B5B2B002AFF8600B467A60FB72FB7A07F11C007A68434909F0CCFF07F11C03184606F0C9FEFB7A1946F868FFF7ECFDFB7A042BCD
:4009800003D83C4806F0BEFE6FE0FB7A022B0AD9FB68591C07F114030222184609F02CFBB7F9143000E00023A7F8BE30FB7A042B0AD9FB68D91C07F112030222184609F0DE
:4009C0001BFBB7F9123000E00023A7F8BC30B7F9BE30184609F06EF803462749184609F071F90346184607F11B0307F1160207F11801FFF79DFBFB7E1A46B7F918301946F0
:400A0000B7F9163007F11C0000930B461B4909F077FF07F11C03184606F074FEB7F9BC30184609F047F803461549184609F04AF90346184607F11B0307F1160207F11801C7
:400A4000FFF776FBFB7E1A46B7F918301946B7F9163007F11C0000930B460A4909F050FF07F11C03184606F04DFEC037BD4680BD8CC10000B4C0000000002041B4C10000D2
:400A80000000C842C8C10000F0B5B5B004AFF8600B467A60FB72FB7A07F11C007A684D4909F02EFF07F11C03184606F02BFEFB7A1946F868FFF74EFDFB7A032B03D84648BA
:400AC00006F020FE83E0FB7A012B0AD9FB681B781B021AB2FB6801331B781BB213431BB200E00023A7F8BE30B7F9BE30184608F0E1FF03463949184609F0E4F803461846F9
:400B000007F11B0307F1160207F11801FFF710FBFB7E1D46B7F918301E46B7F916301946FB6802331B781C46FB6803331B782C4AA2FB03235B08DBB207F11C0002930194D0
:400B4000009133462A46274909F0DAFE07F11C03184606F0D7FDFB7A0A2B38D9FB7A0A2B0BD9FB6809331B781B021AB2FB680A331B781BB213431BB200E00023A7F8BC3066
:400B8000B7F9BC30184608F095FF03461649184609F098F80346184607F11B0307F1160207F11801FFF7C4FAFB7E1A46B7F918301946B7F9163007F11C0000930B460B491C
:400BC00009F09EFE07F11C03184606F09BFDC437BD46F0BDDCC10000B4C000000000C842ABAAAAAA04C200000000204130C20000B0B5B6B004AFF8600B467A60FB72FB7AF2
:400C000007F11C007A684C4909F07AFE07F11C03184606F077FDFB7A1946F868FFF79AFCFB7A052B03D8454806F06CFD81E0FB7A012B0AD9FB681B781B021AB2FB68013352
:400C40001B781BB213431BB200E00023A7F8C230FB7A032B0BD9FB6802331B781B021AB2FB6803331B781BB213431BB200E00023A7F8C030FB7A052B0BD9FB6804331B785E
:400C80001B021AB2FB6805331B781BB213431BB200E00023A7F8BE30B7F9C030184608F009FF0446B7F9C230184608F003FF03461946204607F010FE03462149184608F03F
:400CC0004DFF0346C7F8C4304FF00001D7F8C40009F0E2F80346002B07D01A49D7F8C40008F034FE0346C7F8C43007F11B0307F1160207F11801D7F8C400FFF719FAB7F91C
:400D0000C220B7F9C010B7F9BE30B7F918000446B7F91600054607F11C000295019400930B46094909F0ECFD07F11C03184606F0E9FCC837BD46B0BD48C20000B4C00000FB
:400D4000E62E65420000B44370C2000080B5B2B002AFF8600B467A60FB72FB7A07F118007A68624909F0CCFD07F11803184606F0C9FCFB7A1946F868FFF7ECFBFB7A062BA0
:400D800003D85B4806F0BEFCADE0FB7A022B0BD9FB6801331B781B021AB2FB6802331B781BB213431BB200E00023A7F8BE30FB7A042B0BD9FB6803331B781B021AB2FB6834
:400DC00004331B781BB213431BB200E00023A7F8BC30FB7A062B0BD9FB6805331B781B021AB2FB6806331B781BB213431BB200E00023A7F8BA30B7F9BE30184608F05AFE13
:400E000003463C49184608F05DFF0346184607F1170307F1120207F11401FFF789F9FB7D1A46B7F914301946B7F9123007F1180000930B46304909F063FD07F11803184694
:400E400006F060FCB7F9BC30184608F033FE03462849184608F036FF0346184607F1170307F1120207F11401FFF762F9FB7D1A46B7F914301946B7F9123007F118000093D5
:400E80000B461E4909F03CFD07F11803184606F039FCB7F9BA30184608F00CFE03461549184608F00FFF0346184607F1170307F1120207F11401FFF73BF9FB7D1A46B7F923
:400EC00014301946B7F9123007F1180000930B460B4909F015FD07F11803184606F012FC084806F00FFCC037BD4680BD98C20000B4C000000000C842C0C20000D4C200001D
:400F0000E8C20000FCC20000F0B5B3B004AFF8600B467A60FB72FB7A07F114007A68374909F0EEFC07F11403184606F0EBFBFB7A1946F868FFF70EFBFB7A082B03D8304861
:400F400006F0E0FB57E0FB6808331B781A4607F114032C49184609F0D3FC07F11403184606F0D0FBFB7A0D2B45D9002387F8B730092387F8B6300FE097F8B630FA681344FE
:400F80001B78002B03D0012387F8B73008E097F8B630013387F8B63097F8B6300D2BEBD9FB6809331B781D46FB680A331B781E46FB680B331B781A46FB680C331B7819465B
:400FC000FB680D331B781C4697F8B730002B01D00D4B00E00D4B07F11400039302940191009233462A460A4909F08AFC07F11403184606F087FBBC37BD46F0BD18C30000DD
:40100000B4C0000040C3000060C3000074C3000084C3000080B596B000AF78605F4BB3F83A33A7F856305E4B3B655C4B93F87E3387F84F30B7F85630013B2F2B00F29C80AC
:4010400001A252F823F000BF391100005911000029110000191100007911000079110000791100007911000079110000791100007911000049110000791100007911000065
:401080007911000079110000791100007911000079110000791100007911000009110000791100007911000079110000791100007911000079110000791100007911000000
:4010C0007911000079110000791100007911000079110000791100007911000079110000791100007911000079110000791100007911000079110000791100007911000050
:40110000791100006911000097F84F307A681946386DFFF78FFA3CE097F84F307A681946386DFFF763FB34E097F84F307A681946386DFFF70BFC2CE097F84F307A68194674
:40114000386DFFF7A1FC24E097F84F307A681946386DFFF74DFD1CE097F84F307A681946386DFFF7F3FD14E097F84F307A681946386DFFF7C9FE0CE0B7F8562007F10C036C
:401180000849184609F0BCFB07F10C03184606F0B9FA00BF5837BD4680BD00BF1C82FF1F5A85FF1FB0C3000080B584B000AFF860B9607A603B60FB681B78012B03D0FB68F3
:4011C0001B78032B05D10E4802F016FC0D4806F099FABB6800221A70FB6800221A707B6800221A703B6800221A70782001F04CFF054806F087FA00BF1037BD4680BD00BFC7
:401200001C82FF1FD0C30000E4C300002DE9F04FF3B008AF07F11C031946574802F05EFC564806F06FFA07F11C031B7883F00103DBB2002B03D0524806F064FA97E007F1A2
:40124000140407F1160207F11B0107F11C0007F10C03059307F10E03049307F11903039307F11003029307F11203019307F11A0300932346FEF7B0FF07F11B031B789E46B2
:4012800007F11603B3F900309C4607F11403B3F900301A4607F11A031B78194607F11203B3F900301C4607F11003B3F900301D4607F119031B781E4607F10E03B3F9003088
:4012C0007B6007F10C03B3F9003007F5847006937B6805930496039502940191009263467246284909F00CFB07F58473184606F009FA07F11C03DB68184607F0A5FF824609
:401300008B4607F11C031B69184607F09DFF04460D4607F11C035B69184607F095FF8046894607F11C039B69184607F08DFF02460B4607F58470CDE90423CDE90289CDE901
:40134000004552465B46104909F0DAFA07F58473184606F0D7F90D4806F0D4F91621064802F068FB0A4B1B68034AC2F8343307F5D677BD46BDE8F08F1C82FF1F00C400008A
:4013800028C400005CC4000098C40000C0C400009C85FF1F80B592B000AF03460A46FB711346BB71FA79BB799A423DD0BB79012B03D11F4806F0A6F937E0BB79022B03D146
:4013C0001C4806F09FF930E0BB79032B03D11A4806F098F929E0BB79002B1BD1FB79032B18D101F02FFF0346002B03D0134806F089F902E0124806F085F907F108030E22D1
:401400001049184609F07CFA07F10803184606F079F90AE0BB79002B07D1FB79002B04D0094806F06FF900E000BF4837BD4680BDF4C4000028C5000044C5000070C5000039
:4014400088C50000A4C50000C4C50000F0B5B3B004AF7860396007F1170307F1120207F114017868FEF764FE07F1160307F10E0207F110013868FEF75BFEFB7D1D46B7F904
:4014800014301E46B7F91230BA7DB7F91010B7F90E00044607F11800039402910192009333462A46054909F02BFA07F11803184606F028F900BFBC37BD46F0BDD8C5000047
:4014C0002DE9F043ADF53F7D0EAF07F29F1300221A7007F5CF7300221A7007F2871300221A7007F5C37300221A70002387F8BF32002387F8BE32002387F8BD324FF0000332
:40150000C7F8B8324FF00003C7F8B432002387F8B3320023C7F8AC324FF00003C7F8A8324FF00003C7F8A4324FF00003C7F878324FF00003C7F87432002387F8A332002336
:40154000C7F89C320023C7F8983207F5BC734FF000025A6007F5BC735A6807F5BC731A60002387F897321BE097F8972207F5B473002123F8121097F8973207F5B4725B0076
:401580001344FF229A8097F8972207F5B4730432802123F8121097F89732013387F8973297F89732012BDFD907F5B47300221A73002387F89632012387F89532012387F8C1
:4015C00094320123C7F8703262B605F0FDFFC04806F098F8BF4806F095F8BF4806F092F8BE4806F08FF8BE4806F08CF8BD4806F089F8BD4806F086F8BC4806F083F8BC4887
:4016000006F080F806F030F906F08EF906F0C8F9B849B94802F010F8B84806F0E3F9B84806F070F801F09CFED7F8700201F022FE0346002B0AD1B34806F064F807F5B47321
:40164000D7F87012184601F0A9FC02E0AE4806F059F801F0B1F9AD4806F054F806F084FAAB4806F0D1FAAB4806F04CF806F00EF8034687F86F3207F29F131B78002B05D03C
:4016800007F29F131B78012B40F0A48297F86F326D2B03D097F86F324D2B1AD107F29F131B78002B0DD107F29F1301221A70012387F8BF32002387F8B332974806F022F893
:4016C000D7E107F29F1300221A70944806F01AF8CFE197F86F32712B03D097F86F32512B0CD107F29F131B78002B07D107F29F1302221A708A4806F005F8BAE197F86F32F5
:401700006E2B03D097F86F324E2B21D107F29F131B78002B1CD14FF00003C7F8A8324FF00003C7F8A43207F29F1303221A707D4805F0E8FF97F8A332002B02D17A4805F086
:40174000E1FFD7F8A412D7F8A802FFF77FFE90E197F86F326A2B03D097F86F324A2B22D107F287131B78002B0CBF01230023DBB21A4607F287131A7007F287131B78002BB9
:4017800005D0012387F8BF32002387F8B33207F287131B78002B01D0644B00E0644B184605F0B0FF65E197F86F326C2B03D097F86F324C2B2DD107F5CF731B78002B04D181
:4017C00007F5CF7301221A700DE007F5CF731B78012B04D107F5CF7302221A7003E007F5CF7300221A70002387F8B33207F5CF731B781846FEF792FE024607F5D0734D492E
:40180000184609F07DF807F5D073184605F07AFF2FE197F86F326B2B03D097F86F324B2B0DD1002387F8B33207F5CF7307F5C37207F2871107F29F10FFF7B6FC19E197F844
:401840006F32782B03D097F86F32582B13D1002387F8B33207F5CF7307F5C37207F2871107F29F10FFF7A0FC002387F8BF32324805F048FFFDE097F86F32732B03D097F8A3
:401880006F32532B17D107F5C3731B78002B0CBF01230023DBB21A4607F5C3731A7007F5C3731B78002B01D0244B00E0244B184605F028FFDDE097F86F32632B03D097F8A0
:4018C0006F32432B3ED1632001F0DEFBD1E000BF14C600003CC6000064C6000098C60000C4C60000F8C6000028C7000054C700007CC7000050C000001C82FF1FBD0000008B
:40190000B0C70000CCC70000F4C7000014C800001501000034C8000054C8000068C800007CC8000090C80000D0C8000010C9000024C900003CC9000050C9000074C9000053
:401940008CC9000097F86F327A2B03D097F86F325A2B23D14FF00003C7F8B8324FF00003C7F8B432012387F8B33207F2871300221A70CD4B1B68C7F8AC3207F5CF7302228E
:401980001A7007F29F131B78002B03D107F29F1301221A70C54805F0B5FE6AE097F86F325B2B66D107F5B2734FF000021A6007F5B0734FF000021A6007F5B07207F5B27327
:4019C00011461846FEF7E6FC0346002B4ED007F5B2731B68C7F8783207F5B0731B68C7F87432012387F8A33207F5B273186807F25F1307F5AD7207F5AE71FEF799FB07F576
:401A0000B073186807F5AF7307F5AB7207F5AC71FEF78EFB07F25F131B781D4607F5AE73B3F900301E4607F5AD73B3F900301A4607F5AF731B78194607F5AC73B3F9003018
:401A40001C4607F5AB73B3F9003007F5D070039302940191009233462A46954908F050FF07F5D073184605F04DFE02E0914805F049FE07F29F131B78012B40F0938297F862
:401A80006F32702B03D097F86F32502B13D197F8BE32002B0CBF01230023DBB287F8BE3297F8BE32002B01D0834B00E0834B184605F028FE76E297F86F32382B14D097F802
:401AC0006F32322B10D097F86F32352B0CD097F86F32342B08D097F86F32362B04D097F86F32302B40F05E8207F5CF731B78022B03D0734805F006FE54E297F86F32303BDF
:401B0000082B5AD801A252F823F000BF471B0000BB1B0000A51B0000BB1B0000311B00008D1B00005F1B0000BB1B0000771B0000644BC7F8B8324FF00003C7F8B4326248F4
:401B400005F0E0FD3AE04FF00003C7F8B8324FF00003C7F8B4325D4805F0D4FD2EE04FF07A53C7F8B8324FF00003C7F8B432584805F0C8FD22E04FF00003C7F8B832554BAB
:401B8000C7F8B432544805F0BDFD17E04FF00003C7F8B8324FF00003C7F8B4324F4805F0B1FD0BE04FF00003C7F8B8324C4BC7F8B4324C4805F0A6FD00E000BF012387F8B2
:401BC000B33207F2871300221A70374B1B68C7F8AC32E7E107F29F131B78022B40F0E38097F86F32742B03D097F86F32542B0FD13D4B0022A3F832233B4B002283F8382310
:401C000007F29F1300221A70384805F07BFDCAE197F86F32782B03D097F86F32582B12D1314B0022A3F832232F4B002283F8382307F5CF7307F5C37207F2871107F29F10D1
:401C4000FFF7B2FAAFE10023A7F8923297F86F32612B03D097F86F32412B06D11623A7F89232234805F04EFD86E097F86F32672B03D097F86F32472B06D10423A7F8923265
:401C80001C4805F03FFD77E097F86F32622B03D097F86F32422B31D10323A7F89232164805F030FD68E000BF9C85FF1FA4C90000C4C9000000CA000030CA00004CCA0000E6
:401CC00068CA0000000080BE8CCA0000A4CA0000BCCA0000E4380E3ED4CA0000ECCA0000E4380EBE00CB00001C82FF1F18CB000030CB000048CB000060CB000097F86F32B3
:401D0000732B03D097F86F32532B06D10123A7F89232BE4805F0F6FC2EE097F86F326E2B03D097F86F324E2B06D10C23A7F89232B74805F0E7FC1FE097F86F32322B06D143
:401D40000223A7F89232B34805F0DCFC14E097F86F32342B06D13023A7F89232AE4805F0D1FC09E097F86F32712B03D097F86F32512B01D1FFF74AFAB7F89232002B00F07D
:401D80001281A64BB3F83233002B40F00C81B7F892321946A14801F04DFEA14B1B689F4AC2F83433FFE007F29F131B78032B40F0FA8097F86F32742B03D097F86F32542BF1
:401DC00007D107F29F1300221A70964805F09AFCE9E097F86F32782B03D097F86F32582B0AD107F5CF7307F5C37207F2871107F29F10FFF7D9F9D6E04FF00003C7F88C3269
:401E00004FF00003C7F8883297F86F326A2B03D097F86F324A2B03D1834BC7F88C3256E097F86F326C2B03D097F86F324C2B03D17E4BC7F88C324AE097F86F32692B03D039
:401E400097F86F32492B03D1784BC7F888323EE097F86F326B2B03D097F86F324B2B03D1714BC7F8883232E097F86F32612B03D097F86F32412B04D14FF03F43C7F88C32F8
:401E800025E097F86F32642B03D097F86F32442B04D14FF07C53C7F88C3218E097F86F32772B03D097F86F32572B04D14FF07C53C7F888320BE097F86F32732B03D097F8C6
:401EC0006F32532B03D14FF03F43C7F888324FF00001D7F88C0207F0D5FF0346002B08D04FF00001D7F8880207F0CCFF0346002B59D1D7F88C12D7F8A80207F027FD0346BE
:401F00004B49184607F0C8FF0346002B01D0484B16E0D7F88C12D7F8A80207F017FD03464449184607F0D6FF0346002B01D0414B06E0D7F88C12D7F8A80207F007FD034651
:401F4000C7F8A832D7F88812D7F8A40207F0FEFC03463749184607F09FFF0346002B01D0334B16E0D7F88812D7F8A40207F0EEFC03463049184607F0ADFF0346002B01D0BD
:401F80002C4B06E0D7F88812D7F8A40207F0DEFC0346C7F8A432D7F8A412D7F8A802FFF755FA00E000BF01F0A7F8034687F86E3297F86E2297F8963211461846FFF7EAF959
:401FC00097F86E3287F89632144801F099FB07F29F131B78022B50D1104B93F83833002B2AD00F4B1A680D4BD3F83433D31AC7F86832D7F86802FFF70DF8084B002283F8B8
:402000003823064B0022A3F8322336E078CB000094CB0000ACCB0000C8CB00001C82FF1F9C85FF1FE0CB0000CDCC4CBDCDCC4C3D000070C100007041CA4BB3F83233002B84
:402040001BD0C94B1A68C74BD3F83433D31AB3F5FA6F12D3C34BB3F832331A4607F5D073C249184608F04CFC07F5D073184605F049FBBC4B0022A3F8322307F29F131B7825
:40208000012B40F08E8097F8B332002B00F08980002387F8873207F5A8734FF000021A6007F5A6734FF000021A6007F5A67207F5A87311461846FEF76DF90346002B52D050
:4020C00007F5A8731C68AA49D7F8B80207F046FD03461946204607F037FC0346C7F8803207F5A6731C68A249D7F8B40207F036FD03461946204607F027FC0346C7F87C328C
:402100004FF00001D7F8800207F0C6FE0346002B05D0D7F8803283F00043C7F880324FF00001D7F87C0207F0B7FE0346002B05D0D7F87C3283F00043C7F87C324FF07C5134
:40214000D7F8800207F0A8FE0346002B0BD04FF07C51D7F87C0207F09FFE0346002B02D0012387F8873297F88732002B0BD17E4B1A68D7F8AC32D31A40F2DB52934202D950
:40218000012387F8873297F88732002B09D0002387F8B33207F2871301221A70754805F0B1FA05F07FFD034687F8673297F89432012B28D197F86732002B24D1322006F077
:4021C000FDF805F06FFD0346002B1CD197F895325A1C694B83FB0231D317C91A0B465B000B44D11A0B4687F8953297F89532184600F090FC614805F085FA00BF05F052FD5D
:402200000346002BFAD097F8673287F8943207F5C073184600F038FC0346002B6ED007F5C073184600F00CFF07F5BC73184600F095FF07F5C3731B78002B41D007F5BC73CF
:402240001B684F49184607F089FC0346184607F061FE0346A7F8643207F5BC735B684849184607F07BFC0346184607F053FE0346A7F8623207F5C073B3F90030184600F0DF
:4022800039FCC7F85C0207F5C073B3F90230184600F030FCC7F85802B7F96432B7F9622207F5D07001920093D7F85832D7F85C22344908F025FB07F5D073184605F022FA67
:4022C00000F01AFF0346022B18D100F03DFF0346A7F85632B7F8563203F007039BB2002B0CD1B7F8562207F5D0702023264908F007FB07F5D073184605F004FA07F5C4737F
:402300000122DA7307F5C47300221A7407F29F131B78032B3AD107F5C47302221A7307F5C47302225A7307F5C47300229A731049D7F8A80207F0C6FC03461A4607F5C47302
:402340001A600B49D7F8A40207F0BCFC03461A4607F5C4735A6007F5C4734FF000029A6084E000BF1C82FF1F9C85FF1FF8CB00000000344314CC00005655555540CC0000CE
:4023800000007A4458CC000084CC000097F8B332002B20D007F5CF731B78022B1BD107F5C47302221A7307F5C47302225A7307F5C47300229A7307F5C473D7F8B8221A60B2
:4023C00007F5C473D7F8B4225A6007F5C4734FF000029A604AE007F287131B78002B28D000F08AFE0346002B23D107F5CF731A7807F5C4731A7307F5CF731A7807F5C473F7
:402400005A7307F5C47300229A7307F5BC731A6807F5C4731A6007F5BC735B6883F0004207F5C4735A6007F5C4734FF000029A601CE007F5C47300221A7307F5C4730022E2
:402440005A7307F5C47300229A7307F5C4734FF000029A6007F5C4739A6807F5C4735A6007F5C4735A6807F5C4731A6007F29F131B78012B04D007F29F131B78032B15D16B
:4024800000F03AFE0346002B10D1AD4B1A68D7F89C32D31A632B09D9A94B1B68C7F89C3207F5C4731946A74801F068FA97F8BF32002B3FF4DBA807F29F131B78012B7FF415
:4024C000D5A800F019FE0346002B7FF4CFA89C4B1A68D7F89832D31AB3F57A7FFFF4C6A8974B1B68C7F89832954B1B68C7F85032D7F85032944AA2FB03235C0DD7F85032CB
:40250000924AA2FB03239A0B914BA3FB021359090B461B015B1A9B00D11AD7F850328D4AA2FB032398098A4BA3FB00235A0913461B019B1A9B00C21A07F5D07000920B46B9
:402540002246854908F0DCF907F5D073184605F0D9F807F59A7319467A4801F0D7FA07F59A73196807F59A739C6807F59A731B6907F59A72927D07F5D07001920093234603
:402580000A46764908F0BCF907F5D073184605F0B9F807F1240319466A4801F09FFA07F124031B78002B00F03C8107F5917407F5927207F2291107F1240007F58D730593F4
:4025C00007F58E73049307F22713039307F58F73029307F59073019307F5947300932346FDF7FAFD07F124035B68184607F092FC0346A7F84E3207F124035C68B7F94E322E
:40260000184607F057FA03461946204607F09CF903465349184607F0A1FA0346184607F079FC0346A7F84C3207F124039B68184607F070FC0346A7F84A3207F124039C68A2
:40264000B7F94A32184607F035FA03461946204607F07AF903464249184607F07FFA0346184607F057FC0346A7F8483207F124031B7F9B09DBB203F0010387F8473207F16C
:4026800024031B7F1B09DBB203F0010387F8463207F124035B7F1B09DBB203F0010387F8453297F8B332002B60D02E49D7F8B80207F054FA0346184607F2191307F58A724B
:4026C00007F58B71FDF734FD2649D7F8B40207F045FA0346184607F58C7307F5887207F58971FDF725FD07F219131B781D4607F58B73B3F900301E4607F58A73B3F90030C5
:402700001A4607F58C731B78194607F58973B3F900301C4607F58873B3F9003007F5D070039302940191009233462A460E4908F0E7F807F5D073184604F0E4FF16E000BF77
:402740009C85FF1F1C82FF1FB17C219573B2E74589888888D34D621094CC0000ACCC00000000204100003443DCCC000007F229131B789C4607F59273B3F90030984607F5BE
:402780009173B3F90030FB6107F594731B78BB6107F59073B3F900307B6107F58F73B3F900303B6107F227131B78FB6007F58E73B3F90030BB6007F58D73B3F900307B6036
:4027C000B7F94E02B7F94C42B7F94A52B7F9486297F8471297F8462297F8453207F5D07E0D930C920B910A960995089407907A680692BA680592FA6804923A6903927A6935
:402800000292BA690192FB690093434662465E49704608F075F807F5D073184604F072FF02E05A4804F06EFF97F8BE32002B0FD097F8BD32002B0BD10221554801F0FAF8CC
:40284000544B1B68524AC2F83433022387F8BD3297F8BD32002B24D04D4B93F83833002B1FD04B4BB3F83A2397F8BD329BB29A4217D1484B1A68464BD3F83433D31AC7F8F0
:402880004032D7F84002FEF7C5FB414B002283F838233F4B0022A3F83223002387F8BD3220E097F8BD32002B1CD03A4B1A68384BD3F83433D31AB3F5FA6F13D397F8BD228C
:4028C00007F5D0733449184608F01AF807F5D073184604F017FF2E4B0022A3F83223002387F8BD3207F5BC73186807F2331307F5977207F59871FDF71BFC07F5BC73586807
:4029000007F5997307F5957207F59671FDF710FC07F233131B78984607F59873B3F90030994607F59773B3F900301C4607F599731B781D4607F59673B3F900301E4607F594
:402940009573B3F90030FB6107F5CF731B781846FDF7E4FD034607F5D0700493FB6903930296019500944B4642460C4907F0C8FF07F5D073184604F0C5FE07F59A73002290
:402980009A75FEF773BE00BF08CD000068CD00001C82FF1F9C85FF1F84CD0000A0CD000080B500AF04F054FF024B01221A7000BF80BD00BFA085FF1F80B582B000AF62B60F
:4029C00004F0C0FB04F0C0FE114804F0F3FE114B00221A70104B00221A70104B00221A700023FB7107E0FB790D4A002122F81310FB790133FB71FB79012BF4D9002004F0EE
:402A0000BDFE04F0B7FB00BF0837BD4680BD00BFA1290000A285FF1FA085FF1FA185FF1FA485FF1F98B500AF04F0B4FB134B1B78DBB21C4604F0BEFB03461A46104B23F810
:402A400014200E4B1B78DBB2012B06D10D4B01221A700A4B00221A7006E0084B1B78DBB20133DAB2054B1A70044B1B78DBB2184604F084FE04F07EFB00BF98BDA285FF1FA4
:402A8000A485FF1FA185FF1F80B584B000AF7860154B1B78DBB2002B04D0134B00221A70FFF7C0FF114B1B78DBB2002B17D00F4B00221A700023FB730CE0FB7B5B007A6899
:402AC0001344FA7B0A4931F8122012B21A80FB7B0133FB73FB7B012BEFD9012300E0002318461037BD4680BDA085FF1FA185FF1FA485FF1F80B582B000AF0346FB80B7F918
:402B00000630184604F094FB034618460837BD4680BD00BF80B483B000AF0346FB71FB79012B08D0022B0BD0002B00D00DE0094B094A1A6009E0074B4FF07C521A6004E09F
:402B4000044B4FF07E521A6000BF00BF0C37BD4680BC7047CC80FF1FCDCCCC3D90B585B000AF0446084611461A462346FB800346BB800B467B8013463B80B7F90620B7F9F4
:402B800004309A4201DABB88FB80B7F90620B7F900309A4201DD3B88FB803A887B88D31A9BB2FB817A88BB88D31A9BB2BB81B7F90E30002B01DC0123FB81B7F90C30002BDB
:402BC00001DC0123BB81B7F90620B7F902309A4214DBB7F90620B7F90230D31A184606F069FF0446B7F90E30184606F063FF03461946204607F066F8034613E0B7F9062051
:402C0000B7F90230D31A184606F054FF0446B7F90C30184606F04EFF03461946204607F051F8034618461437BD4690BD90B583B000AF786039603B6883F000437968184687
:402C400007F02AF90346002B09D03968786807F023F90346002B02D04FF000032AE04FF00001786807F036F90346002B11D03968786806F069FE03461C4639684FF07E50F5
:402C800006F062FE03461946204607F01BF8034610E03968786806F059FE03461C4639684FF07E5006F050FE03461946204607F009F8034618460C37BD4690BD80B485B059
:402CC00000AF78600023FB7338E0FB7B7A685B001344B3F904309AB2F97B7B6833F911309BB2D31A9BB2BB81FA7B7B6833F91220F97B7B68043133F911309A420EDAFA7BFF
:402D00007B68043233F91220FB7B79685B000B44B3F904309A4201DA012300E00023FB72B7F90C30132B01DC00230BE0FB7A002B01D1002306E0FB7B0133FB73FB7B012BA6
:402D4000C3D9012318461437BD4680BC704700BF90B484B000AF78601B4A1C4B14460FCB07C423800023FB7323E0FB7BFA7B520079680A44B2F90010134A22F81310FB7BFD
:402D8000FA7B520079680A44B2F900100E4A5B0013440A469A80FB7BFA7B520079680A44B2F90010084A043322F81310FB7B0133FB73FB7B012BD8D9054B01221A7000BFDA
:402DC0001037BD4690BC7047C885FF1FB885FF1FD685FF1F80B485B000AF7860214B1B78012B39D10023FB7332E0FB7B5B007A681344B3F90020FB7B1B4931F913309A4286
:402E000009DAFB7BFA7B520079680A44B2F90010154A22F81310FB7B5B007A681344B3F90020FB7B10495B000B44B3F904309A420BDDFB7BFA7B520079680A44B2F90010D2
:402E4000094A5B0013440A469A80FB7B0133FB73FB7B012BC9D900E000BF1437BD4680BC704700BFD685FF1FC885FF1F80B483B000AF0023FB7107E0FB790A4A002142F855
:402E80002310FB790133FB71FB79012BF4D9064B00221A80054B02221A7000BF0C37BD4680BC7047E085FF1FE885FF1FD685FF1F80B485B000AF7860234B1B78022B3DD1A8
:402EC0000023FB7311E0FB7BFA7B204951F82220F97B490078680144B1F900100A441B4941F82320FB7B0133FB73FB7B012BEAD9174B1B8801339AB2154B1A80144B1B88A9
:402F00001F2B1CD90023BB7311E0BA7BBB7B0F4951F82330002B00DA1F335B1118B20D49131D024621F81320BB7B0133BB73BB7B012BEAD9044B03221A7000E000BF143765
:402F4000BD4680BC704700BFD685FF1FE085FF1FE885FF1FC885FF1F98B500AF0B48FFF7ADFE0346002B03D10948FFF7F1FE0BE0084A064B14460FCB07C42380054B012299
:402F80001A73054B00221A7098BD00BFC885FF1FD885FF1FB885FF1FD685FF1F90B484B000AF786039601F4B7A68144620686168A26807C3A2891A801B4B7A681446206868
:402FC0006168A26807C3A2891A80174B00221A73164B7A68144620686168A26807C3A2891A80134A3B6813600023FB730BE0FB7BF97B7A68043132F911100E4A22F8131006
:40300000FB7B0133FB73FB7B012BF0D90A4B00221A700A4B00221A8000BF1037BD4690BC704700BFA885FF1FB885FF1FC885FF1FDC85FF1FD885FF1FD685FF1FE885FF1F21
:4030400080B584B000AF78600023FB730CE0FB7BFA7B520079680A44B2F90010094A22F81310FB7B0133FB73FB7B012BEFD97868FFF7B0FE7868FFF71BFF00BF1037BD462D
:4030800080BD00BFD885FF1F80B582B000AF0346FB71FB79782B02D0FB79582B03D1144B00221A7020E0FB79632B02D0FB79432B19D10F4B1B78002B03D10E48FFF748FEF1
:4030C00012E00B4B1B78012B02D1FFF7CFFE0BE0074B1B78022B07D0054B1B78032B03D1FFF73AFF00E000BF0837BD4680BD00BFD685FF1FD885FF1F80B400AF024B1B78B7
:403100001846BD4680BC7047D685FF1F90B583B000AF78600B48FFF7D1FD0346002B0BD07B68084A1C46134607CB20606160A2601B88A381012300E0002318460C37BD46C6
:4031400090BD00BFB885FF1F80B400AF024B1B881846BD4680BC7047E885FF1F90B587B000AF7860304B7B613048FFF7A7FD0346002B01D02D4B7B610023FB744CE0FB7CFC
:403180002B4A32F91300FA7C7B6933F91210FA7C7B69043233F91240FB7C7A695B001344B3F904302246FFF7D9FCF8602149F868FFF73CFDF860204B1A68FB7C22FA03F368
:4031C00003F00103002B03D0FB6883F00043FB601A4B1B681946F86806F0C0FC0346FB604FF07E51F86806F075FE0346002B02D04FF07E53FB601249F86806F04DFE03469C
:40320000002B01D00E4BFB60FA7C7B68F96843F82210FB7C0133FB74FB7C012BAFD900BF1C37BD4690BD00BFA885FF1FB885FF1FD885FF1FCDCC4C3DDC85FF1FCC80FF1F25
:40324000000080BF80B584B000AF3B461846FFF75DFF0346002B01D1002306E03B460E221946012000F082F8034618461037BD4680BD00BF80B586B000AF786007F10803FA
:403280000E221946012000F0B9F80346002B01D1002310E007F108031846FFF70FFD0346002B01D1002306E007F1080379681846FFF774FE012318461837BD4680BD00BF38
:4032C00080B483B000AF0346FB71FB79012B02D0022B02D003E0002302E0012300E0FF2318460C37BD4680BC704700BF80B485B000AF03460A46FB711346BB71FB799BB2CB
:403300001B019AB2BB799BB21344FB81FB8903F1804303F500431B78DBB218461437BD4680BC704780B584B000AF03463960FB711346BB71FB799BB21B019BB20233FB81D6
:40334000FB8903F1804303F500431946BB791A46386806F051FE00BF1037BD4680BD00BF80B500AF04F0B6FC00BF80BD80B588B000AF03463960FB711346BB713B68002BB7
:4033800001D1002335E0BB79002B02D0BB790E2B01D900232DE0FB791846FFF791FF0346FB77FB7FFF2B01D1002322E007F1080310220021184606F02AFEA5233B72BB7932
:4033C0007B72BA7907F1080302333968184606F013FE04F085FCFA7F07F108031146184604F086FCB861BB69002B01D1012300E0002318462037BD4680BD00BF80B584B0D5
:4034000000AF03463960FB711346BB713B68002B02D0BB79002B01D1002328E0FB791846FFF74EFF0346FB73FB7BFF2B01D100231DE0FB7B00211846FFF758FF0346A52B55
:4034400001D0002313E0FB7B01211846FFF74EFF0346BB73BA7BBB799A4201D0002306E0BA79FB7B39681846FFF75CFF012318461037BD4680BD00BF80B483B000AF034676
:40348000FB80FB880133FB80FB88FF2B01D90023FB80FB8818460C37BD4680BC704700BF80B483B000AF78607B680022A3F800217B680022A3F802217B680022A3F804212A
:4034C00000BF0C37BD4680BC704700BF80B584B000AF78600B46FB707B68B3F800319BB21846FFF7C9FF0346FB817B68B3F802319BB2FA899A420AD17B68B3F804319BB224
:4035000001339AB27B68A3F8042100230CE07B68B3F800319BB219467B68FA785A547B68FA89A3F80021012318461037BD4680BD80B582B000AF786039607B68B3F800317A
:403540009AB27B68B3F802319BB29A4201D1002316E07B68B3F802319BB21A467B689B5CDAB23B681A707B68B3F802319BB21846FFF782FF03461A467B68A3F802210123D8
:4035800018460837BD4680BD80B483B000AF78607B681B680F4A13617B685B680D4A93617B689B680B4A13627B681A7B094B1A757B685A7B074B1A777B689A7B054B83F8B3
:4035C00024207B681A7C034B1A7300BF0C37BD4680BC7047D080FF1F80B582B000AF78607A680021002000F009FB00BF0837BD4680BD00BF80B584B000AF78600023FB605D
:4036000009E07B685B687A681268F97A10469847FB680133FB607B6803F22A2307F10B0211461846FFF784FF0346002BE9D1FB6818461037BD4680BD80B582B000AF786049
:4036400039604FF460720021786806F0E0FC7B683A6807CA83E807007B68022283F830237B6803F592731846FFF71AFF7B6803F22A231846FFF714FF044A7B681360044B60
:403680001B68984700BF0837BD4680BDEC85FF1FD080FF1F80B582B000AF78600B46FB707B68002B0FD07B6803F59273FA7811461846FFF70BFF7B68B3F828329AB27B68B8
:4036C000A3F8202100E000BF0837BD4680BD00BF80B483B000AF78600B46FB707B68002B09D07B6893F82221FB781343DAB27B6883F8222100E000BF0C37BD4680BC704701
:4037000080B58AB000AF78607B68002B00F02F81994BD3F880307B6202E17B68D3F818315A1C7B68C3F81821FB7A1946002002F0DBFC03463B623B6A002B00D1F0E07B688B
:40374000D3F814315A1C7B68C3F814218A4BFB61FB691B697B83FB699B893B83FB691B6F7B617B6820331846FFF736FF7B69002B00F09F807B8B013B2F2B00F2998001A2A2
:4037800052F823F07B380000B13800005738000045380000B1380000B1380000B1380000B1380000B1380000B1380000B13800008D380000B1380000B1380000B138000025
:4037C000B1380000B1380000B1380000B1380000B1380000B138000069380000B1380000B1380000B1380000B1380000B1380000B1380000B1380000B1380000B138000081
:40380000B1380000B1380000B1380000B1380000B1380000B1380000B1380000B1380000B1380000B1380000B1380000B1380000B1380000B1380000B1380000B1380000F8
:403840009F3800007B6803F120023B8B1946786900F008FA2DE07B6803F120023B8B1946786900F0CFFA24E07B6803F120023B8B1946786900F002FB1BE07B6803F12002D7
:403880003B8B1946786900F09BFB12E07B6803F120023B8B1946786900F076FC09E07B6803F120023B8B1946786900F033FD00E000BF7B68B3F83233002B31D07B68B3F8D5
:4038C00032337A8B9A422BD17B687A8BA3F83A237B683A8BA3F83C237B68012283F838233B8B3F2B02D83B8BDBB200E04023FB747B69002B08D07B6803F23E33FA7C796991
:40390000184606F079FB07E07B6803F23E33FA7C0021184606F07BFB7B68FA7C83F87E237B6803F5927307F10B0211461846FFF7FFFD0346002B7FF4F0AE0F4BD3F88030D3
:40394000FB60FA687B6A9A4209D97B68D3F81C21F9687B6ACB1A1A447B68C3F81C217B68B3F828329AB27B68A3F8202100E000BF2837BD4680BD00BF2C86FF1FB0B584B03F
:4039800000AF786039607B68002B03D07B685B68002B01D1012329E03868FFF7F5FD7B683A6803F10C0415460FCD0FC42B682360104B5B6898477868FFF71CFEF8607B68DD
:4039C000D3F80C315A1C7B68C3F80C217B68D3F81021FB681A447B68C3F810217B6893F82231002B14BF01230023DBB218461037BD46B0BDD080FF1FB0B588B000AF7860D5
:403A00007B68002B11D07B6807F10C0403F10C050FCD0FC42B68236001233B7707F10C0319467868FFF7AAFF00E000BF2037BD46B0BD00BF80B588B002AF78600B467B80C0
:403A40007B68002B03D07B685B68002B01D101233EE007F10C03184602F050FA7B6893F830333B7479886B4607F110021268104618800233120C1A70FB680022164802F089
:403A8000A7FA7868FFF7B6FD78617B687A88A3F832237B680022C3F834237B68002283F838237B68D3F80C315A1C7B68C3F80C217B68D3F810217B691A447B68C3F8102120
:403AC0007B6893F82231002B14BF01230023DBB218461837BD4680BD2486FF1F80B582B000AF786039607B68002B0BD03B68002B08D03A687B6810462033EC22194606F0D7
:403B00007BFA00E000BF0837BD4680BDB0B483B000AF786039607B68002B15D03B68002B12D07B68B3F828329AB27B68A3F820213A687B68154603F586740FCC0FC594E8A8
:403B4000030085E8030000E000BF0C37BD46B0BC704700BF80B483B000AF78607B681B781A067B6801331B781B041A437B6802331B781B0213437A680332127813431846EE
:403B80000C37BD4680BC704780B483B000AF78607B681B781B021AB27B6801331B781BB213431BB218460C37BD4680BC704700BF80B483B000AF78607B681B781B021AB242
:403BC0007B6801331B781BB213431BB29BB218460C37BD4680BC704780B584B000AF786007F10E0302227968184606F005FAB7F90E3018461037BD4680BD00BF80B485B0FB
:403C000000AFF8600B467A607B81154B9A6C7B685A60134BDA6C7B689A60114B1A6E7B68DA600F4B5A6D7B681A610D4B9A6D7B685A610B4BDA6D7B689A61094B93F850208B
:403C40007B681A77064B93F851207B685A777B6801221A7000BF1437BD4680BC704700BFD080FF1F80B58AB000AFF8600B467A607B817B89152B40F2BB80F868FFF76AFF05
:403C80007862FB6804331846FFF764FF3862FB6808331846FFF75EFFF861FB680C331846FFF772FF03467B83FB680E331846FFF76BFF03463B83FB6810331846FFF778FF0F
:403CC0000346FB82FB6812331846FFF771FF0346BB82FB6814331846FFF76AFF03467B827B687A6A5A647B683A6A1A647B68FA699A647B687A8BA3F84C207B683A8BA3F85F
:403D00004E207B68FA8AA3F850207B68BA8AA3F852207B687A8AA3F85420786A05F0CAFE03463549184605F0CDFF03461A467B685A62386A05F0BEFE03462F49184605F045
:403D4000C1FF03461A467B681A62F86905F0B2FE03462A49184605F0B5FF03461A467B689A62B7F91A30184605F0A4FE03462449184605F0A7FF03461A467B68DA62B7F914
:403D80001830184605F096FE03461D49184605F099FF03461A467B681A63FB8A184605F085FE03461649184605F08CFF03461A467B685A63BB8A184605F078FE0346104957
:403DC000184605F07FFF03461A467B689A637B8A184605F06BFE03460949184605F072FF03461A467B68DA637B6801229A7700E000BF2837BD4680BD8096184B00007A44F4
:403E00000000C84280B584B000AFF8600B467A607B817B89042B28D9FB6801331846FFF7DBFE0346184605F045FE03461149184605F048FF03461A467B689A65FB680333A9
:403E40001846FFF7C9FE0346184605F033FE03460949184605F036FF03461A467B68DA657B68012283F8562000E000BF1037BD4680BD00BF0000204100007A4480B584B008
:403E800000AFF8600B467A607B817B890E2B40F28E80FB6801331846FFF79EFE0346184605F008FE03464449184605F00BFF03461A467B689A66FB6803331846FFF78CFEF8
:403EC0000346184605F0F6FD03463B49184605F0F9FE03461A467B68DA66FB6805331846FFF77AFE0346184605F0E4FD03463249184605F0E7FE03461A467B681A67FB6800
:403F000007331846FFF768FE0346184605F0D2FD03462A49184605F0D5FE03461A467B68C3F88020FB6809331846FFF755FE0346184605F0BFFD03461F49184605F0C2FEF7
:403F400003461A467B685A67FB680B331846FFF743FE0346184605F0ADFD03461649184605F0B0FE03461A467B689A67FB680D331846FFF731FE0346184605F09BFD03469F
:403F80000D49184605F09EFE03461A467B68DA677B684FF00002C3F884207B684FF00002C3F888207B68012283F8602000E000BF1037BD4680BD00BF0000C8420000204194
:403FC00080B584B000AFF8600B467A607B817B89152B40F2CF80F868FFF7D6FD0346184605F068FD03466549184605F06BFE03461A467B68C3F89420FB689A787B6883F8BA
:404000009820FB6803331B78184605F04FFD03465B49184605F056FE03461A467B68C3F89C20FB681A797B6883F8A020FB6805331846FFF7A9FD03461A467B68A3F8A220D4
:40404000FB6807331846FFF79FFD03461A467B68A3F8A420FB6809331846FFF795FD0346184605F027FD03464649184605F02AFE03461A467B68C3F8A820FB680B33184622
:40408000FFF782FD03461A467B68A3F8AC20FB680D331846FFF778FD03461A467B68A3F8AE20FB6810331846FFF76EFD03461A467B68A3F8B020FB6812331846FFF764FD7E
:4040C0000346184605F0F6FC03462C49184605F0F9FD03461A467B68C3F8B420FB6814331846FFF751FD03461A467B68A3F8B8207B68012283F88C207B68B3F9A2309BB2EA
:4041000003F00103002B14BF01230023DAB27B6883F88D207B68B3F9A2309BB203F00203002B14BF01230023DAB27B6883F88E207B68B3F9A2309BB203F00403002B14BF83
:4041400001230023DAB27B6883F88F207B68B3F9A2309BB203F00803002B14BF01230023DAB27B6883F890207B6893F890207B68DA7700E000BF1037BD4680BD0000C84252
:40418000000040400000204180B584B000AFF8600B467A607B817B89122B40F2B080FB6801331846FFF718FD0346184605F082FC03465549184605F085FD03461A467B6882
:4041C000C3F8BC20FB6803331846FFF705FD0346184605F06FFC03464B49184605F072FD03461A467B68C3F8C020FB6805331846FFF7F2FC0346184605F05CFC03464249C7
:40420000184605F05FFD03461A467B68C3F8C420FB6807331846FFF7DFFC0346184605F049FC03463949184605F04CFD03461A467B68C3F8C820FB6809331846FFF7CCFCA6
:404240000346184605F036FC03463049184605F039FD03461A467B68C3F8CC20FB680B331846FFF7B9FC0346184605F023FC03462549184605F026FD03461A467B68C3F819
:40428000D020FB680D331846FFF7A6FC0346184605F010FC03461C49184605F013FD03461A467B68C3F8D420FB680F331846FFF793FC0346184605F0FDFB03461249184663
:4042C00005F000FD03461A467B68C3F8D820FB6811331846FFF780FC0346184605F0EAFB03460B49184605F0EDFC03461A467B68C3F8DC207B68012283F8BA2000E000BF7F
:404300001037BD4680BD00BF00007A440000C8420000204180B584B000AFF8600B467A607B817B890C2B2CD9FB6808331B78092B0CBF01230023DAB27B6883F8E120FB6872
:4043400009331846FFF720FC0346184605F0B2FB03460E49184605F0B5FC03461A467B68C3F8E420FB680B331846FFF70DFC03461A467B68A3F8E8207B68012283F8E020AB
:4043800000E000BF1037BD4680BD00BF0000204180B500AF1A4A0A211A4801F09DFD1A4B00221A75184B00221A77174B002283F82420154B002283F82C20134B002283F8A4
:4043C0003420114B002283F83C200F4B002283F841200D4B002283F840200B4B002283F84220094B002283F84320074B002283F84420054B002283F8452000BF80BD00BF5E
:40440000514400002486FF1FD080FF1F80B584B002AF3B46184601F071FD02233B7100237B710023BB716B463A1D1268114619800233120C1A703B68002240F21511034873
:4044400001F006FE00BF0837BD4680BD2486FF1F80B592B002AF78607B681B78022B07D0042B02D0012B06D008E000F08BFC05E000F088FC02E000F091FC00BF7B68DB6EC2
:40448000184600F059FC7B68DB6840F21512934205D040F21F12934200F02682C6E37B681B78022B40F0C683A54B1B78002B06D107F130030321184600F072FE06E007F12B
:4044C00030000023FF22032100F088FE9D4B1B7D012B07D0022B09D0002B0BD1002387F83F300BE0012387F83F3007E0022387F83F3003E0002387F83F3000BF914B1B7FED
:40450000012B07D0022B09D0002B0BD1002387F83E300BE0042387F83E3007E0082387F83E3003E0002387F83E3000BF854B93F82430012B07D0022B09D0002B0BD10023C9
:4045400087F83D300BE0102387F83D3007E0202387F83D3003E0002387F83D3000BF97F83F2097F83E301343DAB297F83D301343DBB287F83030734B5B7B002B07D097F8CE
:40458000303063F07F03DBB287F8303006E097F8303003F07F03DBB287F83030694B1B7B002B07D097F8303043F04003DBB287F8303006E097F8303023F04003DBB287F850
:4045C00030305F4B1B78002B06D107F130030121184600F0E5FD06E007F130000023FF22012100F0FBFD564B1B78002B05D1564A0121564800F0DEFB07E0554B0093554B2B
:40460000514A0121514800F039FC4D4B1B78002B05D14D4A0121504800F0CCFB07E04C4B00934C4B484A01214B4800F027FC444B1B78002B05D1444A0121484800F0BAFBC1
:4046400007E0434B0093434B3F4A0121434800F015FC0023BB833A4B1B78002B06D107F11C030121184600F0C1FC07E007F11C004FF000033A4A012100F0E4FC314B93F8F4
:404680002C30012B07D0022B09D0002B0BD1002387F83C300BE0102387F83C3007E0202387F83C3003E0002387F83C3000BF254B93F83430012B07D0022B09D0002B0BD143
:4046C000002387F83B300BE0042387F83B3007E0082387F83B3003E0002387F83B3000BF184B93F83C30012B07D0022B09D0002B0BD1002387F83A300BE0012387F83A3098
:4047000007E0022387F83A3003E0002387F83A3000BF97F83C2097F83B301343DAB297F83A301343DBB287F83030054B1B78002B18D107F130030121184600F031FD18E09C
:404740002086FF1FD080FF1F00FEFF46F080FF1F0001003800FEFFC6E880FF1FE080FF1F00FF7F4707F130000023FF22012100F035FDAF4B9B6AAF49184605F0EFF9034646
:40478000AC49184605F0E2F80346184605F0E8FB03469BB23B81A64B1B6BA649184605F0DDF90346A349184605F0D0F80346184605F0D6FB03469BB27B819D4B9B6B9D4954
:4047C000184605F0CBF903469A49184605F0BEF80346184605F0C4FB03469BB2BB81964B1B78002B06D107F108030321184600F059FD07E007F1080000234FF6FF7203211B
:4048000000F07AFD8C4B1B78002B05D1012200218A4800F0EDFD04E001220021874800F04DFE854B1B78002B05D101220121844800F0DEFD04E001220121814800F03EFE26
:404840007D4B1B78002B05D1012204217D4800F0CFFD04E0012204217A4800F02FFE764B1B78002B05D101220521774800F0C0FD04E001220521744800F020FE6E4B1B78BB
:40488000002B05D101220621704800F0B1FD04E0012206216D4800F011FE674B1B78002B05D1012207216A4800F0A2FD04E001220721674800F002FE00F04CFA002387F8FD
:4048C00030305D4B1B78002B06D107F130030121184600F065FCB0E107F130000023FF22012100F07BFCA8E17B681B78012B40F0A381514B1B78002B06D107F1300303219A
:40490000184600F04DFC06E007F130000023FF22032100F063FC484B1B78002B06D107F130030221184600F03BFC06E007F130000023FF22022100F051FC97F83030184621
:4049400005F0B4F803464349184605F007F903464149184604F0FAFF03461A46344B9A6497F83130184605F0A1F803463949184605F0F4F803463849184604F0E7FF0346F9
:404980001A462B4BDA642A4B9B6C3349184605F079FA0346002B03D0254B4FF000029A64234BDB6C2C49184605F06CFA0346002B03D01F4B4FF00002DA641F4B1B78002BF4
:4049C00004D10121254800F0EBFB05E00023FF220121224800F002FC174B1B78002B04D101211F4800F0DCFB05E00023FF2201211B4800F0F3FB104B1B78002B05D10D4AC3
:404A00000121184800F0D6F907E0174B0093174B084A0121134800F031FA074B1B78002B28D1044A0121124800F0C4F92AE000BFD080FF1F00FEFF462086FF1F1081FF1FA0
:404A40001181FF1F1281FF1F1381FF1F1481FF1F1581FF1FCDCCCC3D000020412081FF1F2181FF1F3081FF1F0001003800FEFFC62481FF1F744B0093744B754A01217548FD
:404A800000F0FCF9744B1B78002B05D1704A0121724800F08FF907E06B4B00936B4B6C4A01216E4800F0EAF96B4B1B78002B05D1674A01216A4800F07DF907E0624B00930D
:404AC000624B634A0121664800F0D8F9624B1B78002B06D107F130030221184600F060FB06E007F130000023FF22022100F076FB594B1B78002B05D101220021594800F0AF
:404B000077FC04E001220021564800F0D7FC524B1B78002B05D101220121534800F068FC04E001220121504800F0C8FC4A4B1B78002B05D1012202214C4800F059FC04E073
:404B400001220221494800F0B9FC00F003F9424B1B78002B05D101220021454800F048FC04E001220021424800F0A8FC00F0F2F8394B1B78002B04D101213E4800F010FBCD
:404B800005E00023FF2201213A4800F027FB324B1B78002B04D10121374800F001FB05E00023FF220121344800F018FB2A4B1B78002B04D10121314800F0F2FA05E0002328
:404BC000FF2201212D4800F009FB234B1B78002B04D101212A4800F065FB06E000234FF6FF720121264800F087FB1B4B1B78002B04D10121234800F055FB06E000234FF64F
:404C0000FF7201211F4800F077FB134B1B78002B04D101211C4800F045FB0EE000234FF6FF720121184800F067FB06E07B6801221A7102E000BF00E000BF00F099F8034655
:404C400018464037BD4680BD0001003800FEFFC600FEFF462481FF1F2086FF1F2881FF1F2C81FF1F3E81FF1F3F81FF1F4081FF1F4281FF1F3A81FF1F3B81FF1F3C81FF1FBE
:404C80003481FF1F3681FF1F3881FF1F80B584B000AF7860154B1B68002B23D07B689B79002B00D01FE07B685A6E7B681A670023FB600FE00D4B1B6803F22A207B681B6F90
:404CC000591C7A6811671B781946FEF7FFFBFB680133FB607B68B3F862301A46FB689A42E8DC00E000BF1037BD4680BDEC85FF1F80B483B000AF786000BF0C37BD4680BCAB
:404D0000704700BF80B500AF0A4B1B68002B0ED0084B1B689B68002B09D0064B1B689B68044A1268126810469847034600E00023184680BDEC85FF1F80B483B000AF7860A9
:404D4000034A7B68136000BF0C37BD4680BC7047C086FF1F80B400AF044B1B680133034A136000BFBD4680BC704700BFC086FF1F80B400AF024B1B681846BD4680BC7047AC
:404D8000C086FF1F80B400AF034B00221A7000BFBD4680BC704700BF2086FF1F80B400AF034B02221A7000BFBD4680BC704700BF2086FF1FF0B587B000AFF860B9607A608D
:404DC00051E0FB681B687968184604F0C7FE03461E46FB681B68012214464FF00001184605F078F80346002B01D100231C46E3B21C46FB681B68012215464FF000011846CD
:404E000005F04AF80346002B01D100231D46EBB2E31A184604F04EFE03464FF07C51184604F09CFE03461946304604F08FFD0346184605F06FF80346FB820F4B1B685A1C3C
:404E40000D490A60B7F91620121212B2D2B21A70094B1B685A1C08490A60FA8AD2B21A70FB680433FB60BB685A1EBA60002BA8D100BF1C37BD46F0BDC086FF1F80B586B01D
:404E800000AFF860B9607A603B60564B1B78012B40F09E804EE0544B1B681B78DBB21B021BB21A46504B1B6801331B78DBB21343184604F0FFFD03467B614B4B1B6802336C
:404EC000494A1360396A786904F048FE03467B61FB681B687969184604F038FD03461A46FB681A60FB681B687968184604F0F2FF0346002B02D0FB687A681A60FB681B68FF
:404F00003968184604F0C8FF0346002B02D0FB683A681A60FB681B681946184604F0E4FF0346002B03D0FB684FF000021A60FB680433FB60BB685A1EBA60002BABD14CE096
:404F4000294B1B681B78DBB21B021BB21A46264B1B6801331B78DBB21343184604F0AAFD03463B61204B1B6802331F4A1360396A386904F0F3FD03463B61FB683A691A60C8
:404F8000FB681B687968184604F0A4FF0346002B02D0FB687A681A60FB681B683968184604F07AFF0346002B02D0FB683A681A60FB681B681946184604F096FF0346002B79
:404FC00003D0FB684FF000021A60FB680433FB60BB685A1EBA60002BB2D100BF1837BD4680BD00BF2086FF1FC086FF1F80B485B000AF7860396018E07B681B88FB81104B55
:405000001B685A1C0E490A60B7F90E20121212B2D2B21A700A4B1B685A1C09490A60FA89D2B21A707B6802337B603B685A1E3A60002BE1D100BF1437BD4680BC704700BF03
:40504000C086FF1F80B586B000AFF860B9607A603B60514B1B78012B40F0948049E04F4B1B681B78DBB21B021AB24C4B1B6801331B78DBB21BB21343FB82484B1B68023385
:40508000464A1360FB68B3F900309AB2FB8A13449BB21AB2FB681A80FB68B3F90030184604F008FD03467968184604F013FF0346002B06D0786804F02DFF03461AB2FB688A
:4050C0001A80FB68B3F90030184604F0F3FC03463968184604F0E0FE0346002B06D0386804F018FF03461AB2FB681A80FB680233FB60BB685A1EBA60002BB0D147E0274B88
:405100001B681B78DBB21B021AB2244B1B6801331B78DBB21BB21343BB82204B1B6802331E4A1360FB68BA8A1A80FB68B3F90030184604F0BFFC03467968184604F0CAFE6E
:405140000346002B06D0786804F0E4FE03461AB2FB681A80FB68B3F90030184604F0AAFC03463968184604F097FE0346002B06D0386804F0CFFE03461AB2FB681A80FB68F5
:405180000233FB60BB685A1EBA60002BB7D100BF1837BD4680BD00BF2086FF1FC086FF1F80B483B000AF786039600AE00A4B1B685A1C09490A607A6812781A707B6801333A
:4051C0007B603B685A1E3A60002BEFD100BF0C37BD4680BC704700BFC086FF1F80B487B000AFF860B96011461A460B46FB711346BB712A4B1B78012B46D122E0284B1B6852
:405200005A1C27490A601B78DBB2FB74FB681B787B6197F913307A6913447B61FA797B699A4201DAFB797B61BA797B699A4201DDBB797B617B69DAB2FB681A70FB680133A1
:40524000FB60BB685A1EBA60002BD7D121E0144B1B685A1C12490A601B78BB74FB68BA7C1A70FB681B78FA799A4202D2FB68FA791A70FB681B78BA799A4202D9FB68BA7959
:405280001A70FB680133FB60BB685A1EBA60002BDDD100BF1C37BD4680BC70472086FF1FC086FF1F80B483B000AF7860396016E0104B1B685A1C0F490A607A681288120A89
:4052C00092B2D2B21A700B4B1B685A1C09490A607A681288D2B21A707B6802337B603B685A1E3A60002BE3D100BF0C37BD4680BC704700BFC086FF1F80B487B000AFF860B3
:40530000B96011461A460B46FB801346BB80364B1B78012B5ED12DE0344B1B681B78DBB29BB21B029AB2314B1B6801331B78DBB29BB21343FB822D4B1B6802332B4A13605E
:40534000FB681A88FB8A13449AB2FB681A80FB681B88FA889A4202D2FB68FA881A80FB681B88BA889A4202D9FB68BA881A80FB680233FB60BB685A1EBA60002BCCD12EE090
:405380001A4B1B681B78DBB29BB21B029AB2174B1B6801331B78DBB29BB21343BB82134B1B680233114A1360FB68BA8A1A80FB681B88FA889A4202D2FB68FA881A80FB68D7
:4053C0001B88BA889A4202D9FB68BA881A80FB680233FB60BB685A1EBA60002BD0D100BF1C37BD4680BC70472086FF1FC086FF1F80B485B000AF78600B46FB701346BB70FE
:405400002D4B1B681B78BB730023FB73BB78013B072B2BD801A252F823F000BF3D54000043540000495400004F540000555400005B54000061540000675400000123FB73FA
:4054400015E00323FB7312E00723FB730FE00F23FB730CE01F23FB7309E03F23FB7306E07F23FB7303E0FF23FB7300E000BFFA7BFB7802FA03F35BB2DB435AB297F90E304E
:4054800013405BB2BB737B681A78FB7B1340DBB21A46FB7802FA03F35AB297F90E3013435BB2BB73044B1B68BA7B1A7000BF1437BD4680BC704700BFC086FF1F80B485B046
:4054C00000AF78600B46FB701346BB700023FB73BB78013B072B2BD801A252F823F000BF01550000075500000D55000013550000195500001F550000255500002B55000099
:405500000123FB7315E00323FB7312E00723FB730FE00F23FB730CE01F23FB7309E03F23FB7306E07F23FB7303E0FF23FB7300E000BF174B1B78012B15D1164B1B681B785C
:40554000DBB21A46FB7842FA03F35AB297F90F3013405BB2BB737B681A78BB7B5340DAB27B681A700FE00B4B1B681B78DBB21A46FB7842FA03F35AB297F90F3013405BB2D1
:40558000DAB27B681A7000BF1437BD4680BC70472086FF1FC086FF1F80B582B000AF786074220021786804F032FD7B680022DA667B6800229A667B6800221A6700231846D1
:4055C0000837BD4680BD00BF80B584B000AF78607B6803F11C027B681A677B6803F11C027B685A667B6800221A717B685B79002B0AD02F4B1B68002B04D02D4B1B68786869
:40560000984704E001234EE0786800F0F3FA7B681A6F7B68DA667B689B7C002B22D07B6803F11C017B68B3F86230053B1A464FF0FF3000F027FCF8600023BB607B68B3F899
:405640006230053B18337A681344191D07F108030422184604F0D0FCBB68FA689A4201D0072320E07868FFF743FB7B681B7C032B16D801A252F823F0995600008956000083
:405680009156000091560000786800F013F809E0786800F057F805E0786800F0B5F801E0022300E0002318461037BD4680BD00BFF485FF1FB0B588B002AF786000237B616E
:4056C00036E07B685A7E1E497B6911F833309A4203D07B685B7E002B27D107F10C03184600F00CFC7B689B7C7B737B68DB7C3B737B689B7DBB730123FB737B681B7E3B7481
:405700007B69DB000E4A98187B68D9687B689C796B4607F11002126815461D800233120C1A70FB68224600F007FC7B6901337B617B69002BC5DD00BF1837BD46B0BD00BFDC
:40574000B886FF1FB0B588B002AF78607B681B7C032B03D17B6805221A7006E07B681B7C022B02D17B6803221A7000237B6141E07B685A7E23497B6911F833309A4203D05F
:405780007B685B7E002B32D11E4A7B69DB0013445B68786898477B685B78002B27D107F10C03184600F0AAFB7B689B7C7B737B68DB7C3B737B689B7DBB730123FB737B68BE
:4057C0001B7E3B747B69DB000E4A98187B68D9687B689C796B4607F11002126815461D800233120C1A70FB68224600F0A5FB7B6901337B617B69002BBADD00BF1837BD466E
:40580000B0BD00BFB886FF1F80B584B000AF78607B6801221A700023FB6009E0084AFB68DB0013445B6878689847FB680133FB60FB68002BF2DD00BF1037BD4680BD00BF3C
:405840002486FF1F80B582B000AF78607B6803F120027B689A667B689A6E7B681A677B685B79002B0AD0094B1B68002B04D0074B1B687868984704E0012303E0786800F066
:40588000F5F8002318460837BD4680BDF085FF1F80B586B000AF78600023FB757B681B79012B01D10823DDE07B681B6F1A467B689B6ED31A9AB27B681A817B685B79002B34
:4058C00003D17B681B89642B07D97B6803F11C027B685A660123FB7504E07B6803F11D027B685A667B681B6F1A467B685B6ED31A9AB27B68A3F862207B689B7C002B29D065
:405900007B68B3F8623003F00303C3F104033B617B681B6F3A690021184604F078FB7B681A6F3B691A447B681A677B68B3F862203B699BB213449AB27B68A3F862207B68A8
:405940001B6F1A467B689B6ED31A9BB204339AB27B681A817B685B79002B12D07B6851221A777B6842225A777B681B891B0A9BB2DAB27B689A777B681B89DAB27B68DA7793
:405980002AE0FB7D002B19D07B6851221A777B6858225A777B681B895BB263F07F035BB2DAB27B689A777B681B89DB099BB2DBB203F07F03DAB27B68DA770DE07B68512289
:4059C0005A777B6858229A777B681B89DBB203F07F03DAB27B68DA777B689B7C002B22D07B68596E7B68B3F862301A464FF0FF3000F048FA0346BB607B681B6F07F108016C
:405A00000422184604F0F8FA7B681B6F1A1D7B681A677B681B6F1A467B685B6ED31A9AB27B68A3F862207B689A6E7B681B891946104600F069F90346FB737B681B6F591C30
:405A40007A681167FA7BD243D2B21A707B68B3F8623001339AB27B68A3F862207868FFF715F9002318461837BD4680BD80B584B000AF78607B689A6E7B681A677B6803F18A
:405A800070027B68DB681946104600F05BF97B6800225A747B689B7C002B02D07B6801225A740023FB737B681B7C5BB203F00F035AB2FB7BDBB25BB213435BB2DBB2FB7320
:405AC0007B68DB7C1B015BB203F010035AB2FB7BDBB25BB213435BB2DBB2FB737B68DB7D5B015BB203F020035AB2FB7BDBB25BB213435BB2DBB2FB737B689B7D9B015BB2EB
:405B000003F040035AB2FB7BDBB25BB213435BB2DBB2FB737B685B7CDB015AB2FB7BDBB25BB213435BB2DBB2FB737B681B6F591C7A681167FA7BD2B21A707B685B7C002B01
:405B400016D00023FB737B689B7C5BB203F001035AB2FB7BDBB25BB213435BB2DBB2FB737B681B6F591C7A681167FA7BD2B21A707B689B7D002B12D17B6803F170027B6842
:405B80001B7E1946104600F0DDF87B6803F170027B685B7E1946104600F0D4F805E07B6800221A767B6800225A767B68DB7D002B12D17B6803F170027B689B7E19461046CA
:405BC00000F0C0F87B6803F170027B68DB7E1946104600F0B7F805E07B6800229A767B680022DA767B681A6F7B68DA6600BF1037BD4680BD80B584B000AF78607B689A6E25
:405C00007B681A677B687033184600F0DFF802467B68DA607B681B6F591C7A6811671B78FB73FB7BDBB203F00F03DAB27B681A74FB7BDBB21B09DBB203F00103DAB27B6894
:405C4000DA74FB7BDBB25B09DBB203F00103DAB27B68DA75FB7BDBB29B09DBB203F00103DAB27B689A75FB7BDBB2DB09DAB27B685A747B685B7C002B0DD07B681B6F591CBC
:405C80007A6811671B78FB73FB7BDBB203F00103DAB27B689A747B689B7D002B11D17B687033184600F092F80346DAB27B681A767B687033184600F089F80346DAB27B6857
:405CC0005A767B68DB7D002B11D17B687033184600F07CF80346DAB27B689A767B687033184600F073F80346DAB27B68DA767B68DB7C002B04D07B681B6F9A1C7B681A6775
:405D000000BF1037BD4680BD80B485B000AF786039600023FB720023FB6009E07B685A1C7A601A78FB7A1344FB72FB680133FB60FA683B689A42F1D3FB7A18461437BD46E7
:405D400080BC704780B485B000AF786039600023FB6033E0FA681346DB009B1A3A6822FA03F3DBB203F07F03FB72FB685A1C1346DB009B1A3A6822FA03F3DBB203F07F0330
:405D8000BB72BB7A002B0CD07B681B68FA7A62F07F02D2B21A707B681B685A1C7B681A6009E07B681B68FA7A1A707B681B685A1C7B681A6005E0FB680133FB60FB68032B98
:405DC000C8DD00BF1437BD4680BC704780B485B000AF78600023FB600023BB6022E07B681B681B7803F07F01BA681346DB009B1A01FA03F3FA681343FB607B681B681B78DC
:405E00005BB2002B05DA7B681B685A1C7B681A6005E07B681B685A1C7B681A6005E0BB680133BB60BB68032BD9DDFB6818461437BD4680BC704700BF80B485B000AF034674
:405E4000FB71FB791B06BB600023FB730EE0BB68002B05DABB685A00094B5340BB6002E0BB685B00BB60FB7B0133FB73FB7B072BEDD9BB6818461437BD4680BC704700BF59
:405E8000B71DC10480B586B000AFF860B9607A60FB683B6100237B6115E03B691B0E5AB2B9687B690B441B785BB253405BB2DBB21846FFF7C1FF02463B691B0253403B61AB
:405EC0007B6901337B617A697B689A42E5D33B6918461837BD4680BD80B485B000AFF8600B467A60FB72FB687A685A60FB68FA7A1A7000BF1437BD4680BC704780B483B0F4
:405F000000AF78607B6800229A707B680022DA707B6800229A717B6800221A717B6800225A717B6800221A707B6800225A7000BF0C37BD4680BC704782B080B5A2B000AF4E
:405F4000F860B960C7F894301346FB7107F114031846FFF721FBFB79BB76BB683B62002387F8243097F8983087F82D3097F8993087F82E3097F89A3087F82F30FB681B78F9
:405F800087F82C3097F8943087F8273097F8953087F8263007F114031846FFF753FC00233B75FB685B6807F11402104698470346C7F8843007F114031846FFF769FC0346F9
:405FC00018468837BD46BDE8804002B0704700BF82B080B5A2B000AFF860B960C7F894301346FB7107F114031846FFF7D5FAFB79BB76BB683B62012387F8243097F89830EE
:4060000087F82D30002387F82E3097F89A3087F82F30FB681B7887F82C3097F8943087F8273097F8953087F8263007F114031846FFF708FC07F114031846FFF729FC0346F2
:4060400018468837BD46BDE8804002B0704700BF82B080B5A2B000AFF860B960C7F894301346FB7107F114031846FFF795FAFB79BB76BB683B62022387F8243097F89830AC
:4060800087F82D3097F8993087F82E3097F89A3087F82F30FB681B7887F82C3097F8943087F8273097F8953087F8263007F114031846FFF7C7FB02233B75FB685B6807F15D
:4060C0001402104698470346C7F8843007F114031846FFF7DDFB034618468837BD46BDE8804002B0704700BF90B585B000AF03460A46FB711346BB71FB79B94A8C2101FB95
:4061000003F313441B78072B00F2578301A252F823F000BF35610000B3610000616200005F63000069640000DD640000B965000091660000BB79512B2AD1FB79A84A8C21B2
:4061400001FB03F31344023301221A80FB79A44A8C2101FB03F313442033BA791A70FB79FA798C2101FB02F219329D490A4408329B498C2000FB03F30B4474331A60FB79DA
:40618000974A8C2101FB03F3134401221A7014E3FB7993498C2202FB03F20A448432126801328F498C2000FB03F30B4484331A6003E3FA798A498C2303FB02F30B4474330A
:4061C0001B68591C86488C2404FB02F2024474321160BA791A70FB7981498C2202FB03F20A4402321288013290B27D4A8C2101FB03F31344023302461A80BB79582B11D140
:40620000FB79774A8C2101FB03F31344093300221A70FB79724A8C2101FB03F3134402221A70CAE2BB79422B11D1FB796C4A8C2101FB03F31344093301221A70FB79684A19
:406240008C2101FB03F3134404221A70B5E2FB79634A8C2101FB03F3134400221A70ACE2FA795F498C2303FB02F30B4474331B68591C5B488C2404FB02F202447432116042
:40628000BA791A70FB7956498C2202FB03F20A4402321288013290B2514A8C2101FB03F31344023302461A8097F90630002B16DAFB79BA7992B222F0800290B2484A8C2154
:4062C00001FB03F313440C3302461A80FB79444A8C2101FB03F3134403221A7066E2FB79BA7990B23E4A8C2101FB03F313440C3302461A80FB79FA7939498C2000FB02F2B9
:406300000A447432126836498C2000FB03F30B446C331A60FB79324A8C2101FB03F31344063300221A70FB792D4A8C2101FB03F3134406221A70FB79294A8C2101FB03F387
:4063400013440C331B88402B40F23082FB79244A8C2101FB03F3134400221A7026E2FA791F498C2303FB02F30B4474331B68591C1B488C2404FB02F2024474321160BA7908
:406380001A70FB7916498C2202FB03F20A4402321288013290B2124A8C2101FB03F31344023302461A80FB79FA790D498C2000FB02F20A447432126809498C2000FB03F3B1
:4063C0000B446C331A6097F90630002B0ADAFB79034A8C2101FB03F3134400221A702FE02C86FF1FFA79FB79A8498C2000FB03F30B440C331B8819B2BB79DB011BB223F4B9
:40640000804323F07F031BB20B431BB298B29F498C2303FB02F30B440C3302461A80FB799A4A8C2101FB03F31344063300221A70FB79964A8C2101FB03F3134406221A70A9
:40644000FB79924A8C2101FB03F313440C331B88402B40F2AD81FB798C4A8C2101FB03F3134400221A70A3E1FA7988498C2303FB02F30B4474331B68591C84488C2404FB6A
:4064800002F2024474321160BA791A70FB797F498C2202FB03F20A4402321288013290B27A4A8C2101FB03F31344023302461A80FB79BA7992B2120290B2744A8C2101FBE8
:4064C00003F313440C3302461A80FB796F4A8C2101FB03F3134405221A706EE1FA796B498C2303FB02F30B4474331B68591C67488C2404FB02F2024474321160BA791A70E8
:40650000FB7962498C2202FB03F20A4402321288013290B25D4A8C2101FB03F31344023302461A80FB79FA7958498C2000FB02F20A447432126855498C2000FB03F30B443C
:406540006C331A60FB79FA7950498C2000FB02F20A440C321188BA7992B20A4390B24B4A8C2101FB03F313440C3302461A80FB79464A8C2101FB03F31344063300221A7031
:40658000FB79424A8C2101FB03F3134406221A70FB793E4A8C2101FB03F313440C331B88402B40F20781FB79384A8C2101FB03F3134400221A70FDE0FA7934498C2303FB28
:4065C00002F30B4474331B68591C30488C2404FB02F2024474321160BA791A70FB792B498C2202FB03F20A4402321288013290B2264A8C2101FB03F31344023302461A80ED
:40660000FB79FA7921498C2000FB02F20A4406321178BA790A44D0B21C4A8C2101FB03F31344063302461A70FB79184A8C2101FB03F313440C331B881846FB79134A8C216B
:4066400001FB03F3134402331B881C46FB790F4A8C2101FB03F313446C331B681946FB798C2202FB03F31833084A13440833CB1AE31A984200F3A080FB79044A8C2101FBD5
:4066800003F3134407221A7096E000BF2C86FF1FFA794C498C2303FB02F30B4474331B68591C48488C2404FB02F2024474321160BA791A70FB7943498C2202FB03F20A4402
:4066C00002321288013290B23E4A8C2101FB03F31344023302461A80BB79FB73FB79394A8C2101FB03F3134400221A70FB79354A8C2101FB03F313440A33FA791A70FB7BEE
:40670000FA7930498C2000FB02F20A44063212781344FF2B39D1FB792A4A8C2101FB03F31344783300221A60FC79FEF7EBFA0146244A8C2303FB04F3134488331960FB796B
:40674000204A8C2101FB03F313447C3301221A70FB79FA791B498C2000FB02F20A4402321088184A8C2101FB03F31344663302461A80FB798C2202FB03F3124A134404338B
:406780001846FEF721FF012318E0FB790D498C2202FB03F20A4480321268013209498C2000FB03F30B4480331A6006E000BF04E000BF02E000BF00E000BF00231846143774
:4067C000BD4690BD2C86FF1F80B582B000AF786039603A680021786803F019FC00BF0837BD4680BD80B584B000AFF860B9607A607A68B968F86803F0FFFB00BF1037BD464D
:4068000080BD00BF80B483B000AF0346FB71FEE780B487B000AF7860396000233B6100237B6127E07B699B007A6813441B68BB60BB68FB73BB6823F0FF03BB6014E03B698A
:406840005B003A6813441B781A46BB68134419463B695B003A6813445B780B703B6901333B61FB7B013BFB73FB7B002BE7D17B6901337B617B691D2BD4D900BF1C37BD46E3
:4068800080BC704780B582B000AF424B00221A80414B50221A70414B19221A80404B18221A70404B1A221A803F4B18221A7004223E493F48FFF796FF3E4B02221A704FF06A
:4068C000402308221A703C4B03221A703B4B3C4A1278D2B21A703B4B08221A803A4B41F251221A800023FB7019237B6014E0FB785B00DAB2354B1B78DBB203F00103DBB281
:406900001343DBB203F00303FB704FF4F07001F067FF7B68013B7B607B68002B02D0FB78032BE4D17B68002B02D10320FFF76AFF274B4FF480721A80254B07221A70254BAF
:4069400000221A70244B48221A70214B00221A70224B02221A70224B04221A70214A214B1B78DBB243F00703DBB213701E4A1E4B1B78DBB243F00103DBB213701B4A1B4B71
:406980001B78DBB263F07F03DBB2137000BF0837BD4680BD80400040824000408440004086400040884000408A40004050060048004100400043004000420040A14600402B
:4069C00008010049224200402042004025420040044000400640004008400040014000400B400040A2430040A1430040A043004080B483B000AF0B4B1B78FB710A4AFB791B
:406A000003F00703DBB21370084AFB791B09DBB21370074B44221A7000BF0C37BD4680BC704700BFCF0100496E5800406F5800407658004080B483B000AF0346FB71FB79E3
:406A4000012B24D8FA79FB791344FB71FB79124A52F82330FA79104951F822201178FA790E48825C0A43D2B21A70FB790133FB71FB79094A52F82330FA79074951F822202F
:406A80001178FA790548825C0A43D2B21A7000BF0C37BD4680BC7047CCCD0000DCCD000080B483B000AF0346FB71FB79012B28D8FA79FB791344FB71FB79144A52F8233096
:406AC000FA79124951F822201178FA791048825CD243D2B20A40D2B21A70FB790133FB71FB790A4A52F82330FA79084951F822201178FA790648825CD243D2B20A40D2B2C3
:406B00001A7000BF0C37BD4680BC7047CCCD0000DCCD000080B483B000AF0346FB71FB79012B0ED8FB79094A52F82330FA79074951F822201178FA790548825C0A43D2B296
:406B40001A7000BF0C37BD4680BC7047E0CD0000E8CD000080B483B000AF0346FB71FB79012B10D8FB790A4A52F82330FA79084951F822201178FA790648825CD243D2B269
:406B80000A40D2B21A7000BF0C37BD4680BC7047E0CD0000E8CD000080B586B000AF72B6514A514B1B78DBB243F00403DBB213700023FB7513E0FA7D13465B0013445B00DD
:406BC0004A4A13443B613B691A683B699B889BB219461046FFF7F8FDFB7D0133FB75FB7D062BE8D90023FB751CE0FA7D13469B0013445B003E4A1344FB60FB681B68BB60C7
:406C0000FB685B687B60FB681A7A5B7A1B0213437B807B881A467968B868FFF7E3FDFB7D0133FB75FB7D002BDFD032494FF09040FFF7EEFD304B0A221A70304A2F4B1B784E
:406C4000DBB243F00203DBB213702D4A2C4B1B78DBB243F00203DBB213702A4A294B1B78DBB243F04003DBB21370274A264B1B78DBB243F01003DBB2137008222349244801
:406C8000FFF7B0FD0A2223492348FFF7ABFD0A2222492348FFF7A6FD082222492248FFF7A1FD082221492248FFF79CFD214A214B1B78DBB243F00803DBB213701E4B6022A5
:406CC0001A70FFF7DFFD1C4B80221A701B4B01221A70FFF78DFE0E220A491948FFF782FD00BF1837BD4680BDE8460040ECCD000018CE0000780000488358004003500140EE
:406D000013500140A0430040C2430040200600480251004028060048C051004034060048F05100404006004812510040480600482251004022430040004800400400084089
:406D4000B043004080B500AF03F02AF903461B680C2B00D1FEE7FEE780B584B000AF78600F4B1A687B6813441A460E4BD31A802B09DC0B4B1B68FB60094B1A687B681344C8
:406D8000074A136007E003F00BF902460C2313604FF0FF33FB60FB6818461037BD4680BD4481FF1FD086FF1F80B586B000AF224B7B61224B3B61204B7B6135E03B691B68ED
:406DC000FB603B695B68BB603B699B683B6000237B600CE0FB681A68BB681A60BB680433BB60FB680433FB607B6804337B607A683B689A42EED13B69DB683B6000237B6009
:406E000008E0BB6800221A60BB680433BB607B6804337B607A683B689A42F2D13B6910333B617B69013B7B617B69002BC6D103F0BDF8FAF745FBFEE701000000D8CF000092
:406E400080B582B000AF184B184A1A60184A184B1B6843F40073136000237B600FE07B68032B04D8134A7B6852F8233000E0124B12497A6841F822307B6801337B607B68C7
:406E80002F2BECD90E4B1B78DAB20E4B1A700E4B0A4A1A60FFF780FE0C4B00221A6000BF0837BD4680BD00BF0CED00E00004FA0514ED00E000000000456D00000080FF1FC0
:406EC000BC760040C480FF1F08ED00E0C080FF1F80B582B002AF324B01221A70314B00221A70102001F068F8102001F04BF907211D2001F0C1FA2C4B04221A702B4B00226B
:406F00001A702B4B00221A702A4A2A4B1B78DBB243F01803DBB21370274B00221A70274B00221A70264B00221A70264B0A221A70254B00221A70254B00221A70244B1222E3
:406F40001A70244B13221A70234B00221A70234B14221A700123009308234FF400424FF40041032000F034FA1D4A0D4B1B78DBB2013B1C499B000B449B7813701A4A084B2E
:406F80001B78DBB2013B174931F823301380044B1B78DBB2184600F069F900BFBD4680BD4881FF1FFC85FF1F96580040975800409E580040075B004093580040885B0040DF
:406FC000895B004080580040815800408358004088580040895800408D580040014E00400E4E00400486FF1F0C4E004080B582B000AF01F014FC0346FB71444B1B78BB7134
:40700000434A434B1B78DBB243F00103DBB213703F4A3F4B1B78DBB243F01003DBB213703C4A3C4B1B78DBB243F00103DBB21370384A384B1B78DBB243F01003DBB2137056
:40704000354A354B1B78DBB243F00203DBB21370324A324B1B78DBB243F00203DBB213702F4A2F4B1B78DBB243F00303DBB21370032001F0C5F9284A274B1B78DBB223F003
:407080000203DBB21370254A244B1B78DBB223F00203DBB21370234A224B1B78DBB243F00603DBB21370204B7A221A701F4A1F4B1B78DBB243F00103DBB213701C4A1C4BB7
:4070C0001B78DBB243F00103DBB21370194A194B1B78DBB243F00103DBB21370164A164B1B78DBB243F00103DBB21370134B4FF000521A60124B4FF000521A60FB79184630
:4071000001F091FB00BF0837BD4680BD4881FF1FAA430040BA430040F8460040F9460040915800407758004082580040A1430040B1430040A2430040B243004080E200E000
:4071400000E100E080B500AF084B1B78002B09D1074B1B78DBB2002B01D1FFF7B9FE034B01221A70FFF742FF00BF80BDFE85FF1FFF85FF1F80B400AF054A054B1B78DBB250
:4071800043F00103DBB2137000BFBD4680BC7047004E004080B400AF054A054B1B78DBB223F00103DBB2137000BFBD4680BC7047004E004080B483B000AF174B1B78DBB2A1
:4071C00003F003037B717B79012B03D8134B1B88FB8011E0114B1B78DBB2FB80104B1B78DBB29BB21B029AB2FB881343FB807B79032B01D10B4B1B780B4B1B78DBB2002B48
:4072000002D00A4B00221A70B7F9063018460C37BD4680BC704700BF144E0040104E0040114E0040124E0040FD85FF1FFC85FF1F80B485B000AF78600A4B1B687A68D31AEA
